:020000040800F2
:1000000000040010A10B0008A10D0008A10D0008BC
:10001000A10D0008A10D0008A10D0008A10D000808
:10002000A10D0008A10D0008A10D0008110E000887
:10003000A10D0008A10D0008A10D0008110F000876
:10004000A10D0008A10D0008A10D0008A10D0008D8
:10005000A10D0008A10D0008A10D0008A10D0008C8
:10006000A10D0008A10D0008A10D000811A60008AF
:1000700051A6000891A60008D1A6000811A7000803
:1000800051A7000891A70008A1B0000821B60008F8
:1000900041B6000861B6000881B60008A10D00084D
:1000A00021C80008A1C70008A10D0008C1C70008A9
:1000B000E1C7000801C80008C1CB0008A10D000875
:1000C000A10D0008A10D0008A10D0008A10D000858
:1000D000A10D0008A10D000851CF000871CF000844
:1000E000A10D0008A10D0008A10D0008A10D000838
:1000F000A10D0008A10D0008A10D0008D1A700085E
:10010000A10D0008A10D0008E1CB0008A10D000819
:10011000A10D0008A10D0008A10D0008A10D000807
:1001200011A8000851A8000891A80008D1A800084B
:1001300011A90008A10D0008A10D0008A1B6000832
:10014000C1B60008E1B6000801B7000851C00008B8
:1001500051A9000891A90008D1A90008A10D000823
:10016000A10D0008A10D0008A10D0008A10D0008B7
:10017000A10D0008A10D0008A10D0008A10D0008A7
:08018000A10D0008A10D00080B
:1001900008B504F0EDFC00F063FF03F031F808F05F
:1001A0006FFE06F0BDFA03F0ABFD08F079F906F03A
:1001B00087FA074804F034F9064B01221A6003F06D
:1001C0007FFC03F095FB4FF4FA7001F061FBF6E75A
:1001D000E03401082C4E0120AFF30080AFF3008023
:1001E00081F0004102E000BF83F0004330B54FEAE8
:1001F00041044FEA430594EA050F08BF90EA020F55
:100200001FBF54EA000C55EA020C7FEA645C7FEAE7
:10021000655C00F0E2804FEA5454D4EB5555B8BF0A
:100220006D420CDD2C4480EA020281EA030382EA7B
:10023000000083EA010180EA020281EA0303362D0D
:1002400088BF30BD11F0004F4FEA01314FF4801CE0
:100250004CEA113102D0404261EB410113F0004FF2
:100260004FEA03334CEA133302D0524263EB4303A9
:1002700094EA050F00F0A780A4F10104D5F1200E47
:100280000DDB02FA0EFC22FA05F2801841F10001A2
:1002900003FA0EF2801843FA05F359410EE0A5F176
:1002A00020050EF1200E012A03FA0EFC28BF4CF0A7
:1002B000020C43FA05F3C01851EBE37101F000455D
:1002C00007D54FF0000EDCF1000C7EEB00006EEB6A
:1002D0000101B1F5801F1BD3B1F5001F0CD34908F4
:1002E0005FEA30004FEA3C0C04F101044FEA44524B
:1002F00012F5800F80F09A80BCF1004F08BF5FEAD2
:10030000500C50F1000041EB045141EA050130BDB1
:100310005FEA4C0C404141EB010111F4801FA4F154
:100320000104E9D191F0000F04BF01460020B1FAA9
:1003300081F308BF2033A3F10B03B3F120020CDAE1
:100340000C3208DD02F1140CC2F10C0201FA0CF0BF
:1003500021FA02F10CE002F11402D8BFC2F1200C24
:1003600001FA02F120FA0CFCDCBF41EA0C019040DA
:10037000E41AA2BF01EB0451294330BD6FEA040423
:100380001F3C1CDA0C340EDC04F11404C4F120020E
:1003900020FA04F001FA02F340EA030021FA04F320
:1003A00045EA030130BDC4F10C04C4F1200220FA77
:1003B00002F001FA04F340EA0300294630BD21FAB5
:1003C00004F0294630BD94F0000F83F4801306BF7B
:1003D00081F480110134013D4EE77FEA645C18BF6F
:1003E0007FEA655C29D094EA050F08BF90EA020F06
:1003F00005D054EA000C04BF1946104630BD91EAFE
:10040000030F1EBF0021002030BD5FEA545C05D100
:100410004000494128BF41F0004130BD14F580043F
:100420003CBF01F5801130BD01F0004545F0FE41B3
:1004300041F470014FF0000030BD7FEA645C1ABFE8
:10044000194610467FEA655C1CBF0B46024650EA1F
:10045000013406BF52EA033591EA030F41F400214B
:1004600030BD00BF90F0000F04BF0021704730B5D1
:100470004FF4806404F132044FF000054FF00001A6
:1004800050E700BF90F0000F04BF0021704730B567
:100490004FF4806404F1320410F0004548BF40423C
:1004A0004FF000013EE700BF42004FEAE2014FEA91
:1004B00031014FEA02701FBF12F07F4393F07F4F6C
:1004C00081F06051704792F0000F14BF93F07F4F9E
:1004D000704730B54FF4607401F0004521F00041E1
:1004E00020E700BF50EA010208BF704730B54FF067
:1004F00000050AE050EA010208BF704730B511F06C
:10050000004502D5404261EB41014FF4806404F1A3
:1005100032045FEA915C3FF4DCAE4FF003025FEA25
:10052000DC0C18BF03325FEADC0C18BF033202EBAD
:10053000DC02C2F1200300FA03FC20FA02F001FA07
:1005400003FE40EA0E0021FA02F11444C1E600BFA6
:1005500070B54FF0FF0C4CF4E06C1CEA11541DBF59
:100560001CEA135594EA0C0F95EA0C0F00F0DEF824
:100570002C4481EA030621EA4C5123EA4C5350EA09
:10058000013518BF52EA033541F4801143F480135A
:1005900038D0A0FB02CE4FF00005E1FB02E506F0EB
:1005A0000042E0FB03E54FF00006E1FB03569CF040
:1005B000000F18BF4EF0010EA4F1FF04B6F5007F46
:1005C00064F5407404D25FEA4E0E6D4146EB0606B8
:1005D00042EAC62141EA55514FEAC52040EA5E5041
:1005E0004FEACE2EB4F1FD0C88BFBCF5E06F1ED8EB
:1005F000BEF1004F08BF5FEA500E50F1000041EB22
:10060000045170BD06F0004646EA010140EA0200CE
:1006100081EA0301B4EB5C04C2BFD4EB0C0541EAF0
:10062000045170BD41F480114FF0000E013C00F305
:10063000AB8014F1360FDEBF002001F0004170BD29
:10064000C4F10004203C35DA0C341BDC04F1140442
:10065000C4F1200500FA05F320FA04F001FA05F2CE
:1006600040EA020001F0004221F0004110EBD3709B
:1006700021FA04F642EB06015EEA430E08BF20EAC7
:10068000D37070BDC4F10C04C4F1200500FA04F36A
:1006900020FA05F001FA04F240EA020001F00041FC
:1006A00010EBD37041F100015EEA430E08BF20EA6F
:1006B000D37070BDC4F1200500FA05F24EEA020EB7
:1006C00020FA04F301FA05F243EA020321FA04F0E6
:1006D00001F0004121FA04F220EA020000EBD3709D
:1006E0005EEA430E08BF20EAD37070BD94F0000F9D
:1006F0000FD101F00046400041EB010111F4801FD1
:1007000008BF013CF7D041EA060195F0000F18BF81
:10071000704703F00046520043EB030313F4801FBD
:1007200008BF013DF7D043EA0603704794EA0C0F77
:100730000CEA135518BF95EA0C0F0CD050EA41068D
:1007400018BF52EA4306D1D181EA030101F000410A
:100750004FF0000070BD50EA410606BF1046194632
:1007600052EA430619D094EA0C0F02D150EA01363E
:1007700013D195EA0C0F05D152EA03361CBF10467F
:1007800019460AD181EA030101F0004141F0FE411E
:1007900041F470014FF0000070BD41F0FE4141F4A2
:1007A000780170BD70B54FF0FF0C4CF4E06C1CEAA2
:1007B00011541DBF1CEA135594EA0C0F95EA0C0F57
:1007C00000F0A7F8A4EB050481EA030E52EA033512
:1007D0004FEA013100F088804FEA03334FF0805533
:1007E00045EA131343EA12634FEA022245EA111560
:1007F00045EA10654FEA00260EF000419D4208BF11
:10080000964244F1FD0404F5407402D25B084FEABD
:100810003202B61A65EB03055B084FEA32024FF469
:1008200080104FF4002CB6EB020E75EB030E22BFC6
:10083000B61A754640EA0C005B084FEA3202B6EB86
:10084000020E75EB030E22BFB61A754640EA5C0035
:100850005B084FEA3202B6EB020E75EB030E22BFC5
:10086000B61A754640EA9C005B084FEA3202B6EBC6
:10087000020E75EB030E22BFB61A754640EADC0085
:1008800055EA060E18D04FEA051545EA16754FEAE7
:1008900006164FEAC30343EA52734FEAC2025FEA05
:1008A0001C1CC0D111F4801F0BD141EA00014FF094
:1008B00000004FF0004CB6E711F4801F04BF014365
:1008C0000020B4F1FD0C88BFBCF5E06F3FF6AFAE81
:1008D000B5EB030C04BFB6EB020C5FEA500C50F111
:1008E000000041EB045170BD0EF0004E4EEA113194
:1008F00014EB5C04C2BFD4EB0C0541EA045170BD9B
:1009000041F480114FF0000E013C90E645EA060EDE
:100910008DE60CEA135594EA0C0F08BF95EA0C0F0C
:100920003FF43BAF94EA0C0F0AD150EA01347FF454
:1009300034AF95EA0C0F7FF425AF104619462CE72B
:1009400095EA0C0F06D152EA03353FF4FDAE10468E
:10095000194622E750EA410618BF52EA43067FF4DF
:10096000C5AE50EA41047FF40DAF52EA43057FF46F
:10097000EBAE12E7000000000000000000000000E5
:100980004FF0FF3C06E000BF4FF0010C02E000BF5B
:100990004FF0010C4DF804CD4FEA410C7FEA6C5C3E
:1009A0004FEA430C18BF7FEA6C5C1BD001B050EAE1
:1009B000410C0CBF52EA430C91EA030F02BF90EACC
:1009C000020F0020704710F1000F91EA030F58BF8B
:1009D000994208BF90422CBFD8176FEAE37040F0ED
:1009E000010070474FEA410C7FEA6C5C02D150EA8B
:1009F000013C07D14FEA430C7FEA6C5CD6D152EA46
:100A0000033CD3D05DF8040B704700BF844610460A
:100A100062468C461946634600E000BF01B5FFF709
:100A2000B7FF002848BF10F1000F01BD4DF808EDD9
:100A3000FFF7F4FF0CBF012000205DF808FB00BFAA
:100A40004DF808EDFFF7EAFF34BF012000205DF804
:100A500008FB00BF4DF808EDFFF7E0FF94BF012051
:100A600000205DF808FB00BF4DF808EDFFF7CEFF52
:100A700094BF012000205DF808FB00BF4DF808ED91
:100A8000FFF7C4FF34BF012000205DF808FB00BF62
:100A90004FEA410212F5001215D211D56FF47873A6
:100AA000B3EB625212D94FEAC12343F0004343EA49
:100AB000505311F0004F23FA02F018BF4042704724
:100AC0004FF00000704750EA013005D111F00040AE
:100AD00008BF6FF0004070474FF00000704700BF44
:100AE0004FEA4102B2F1E04324BFB3F5001CDCF150
:100AF000FE5C0DD901F0004C4FEAC0024CEA507088
:100B0000B2F1004F40EB830008BF20F001007047B6
:100B100011F0804F21D113F13872BCBF01F00040B9
:100B2000704741F480114FEA5252C2F11802C2F1EB
:100B3000200C10FA0CF320FA02F018BF40F001006C
:100B40004FEAC1234FEAD32303FA0CFC40EA0C001E
:100B500023FA02F34FEA4303CCE77FEA625307D15B
:100B600050EA01331EBF4FF0FE4040F44000704792
:100B700001F0004040F0FE4040F40000704700BF2C
:100B8000704700BFAFF30080AFF30080AFF3008089
:100B9000FEE700BFAFF30080AFF30080AFF300804B
:100BA00072B6704C84F309884EF63472CEF20002AD
:100BB0004EF68853CEF200034FF0404111601868A2
:100BC00040F470051D600022E1EE102A4EF63C73E1
:100BD000CEF2000306211A6081F31488BFF36F8FF1
:100BE0006148624DA84218D2EA1C051D531B23F030
:100BF0000302034610184FF0553183421960C2F3C7
:100C000080020AD01AB185422B46296005D01D1DED
:100C10005960083383426960F9D15548A04218D21F
:100C20005449041D0A1B22F00305034628184FF0FF
:100C3000553183421960C5F380020AD01AB184424B
:100C40002346216005D01D1D596008338342696029
:100C5000F9D10CF02DFA4849484881421BD2C61CF4
:100C60000C1D321B464822F00302161D05680423A2
:100C7000B3420D60C2F380020DD022B14568082353
:100C8000B342256007D01A1D1D5884585D500833A3
:100C9000B3428C50F7D13B483B49884217D2CB1C1A
:100CA000041D1A1B22F00305034628180021834265
:100CB0001960C5F380020AD01AB18442234621602C
:100CC00005D01D1D5960083383426960F9D1FFF7D3
:100CD00057FF2E4D2E498D421DD2CC1C2E1DA71B19
:100CE000B808471C01242A6800EA04089047BC425F
:100CF00011D0B8F1000F05D0022433689847BC42E8
:100D0000354608D0696888470234A8682E1D804798
:100D10000835BC42F6D1FFF73BFA1E4D1E4A9542FC
:100D20001DD2D41C2E1DA71BBB085F1C01242968E3
:100D300003EA04088847BC4211D0B8F1000F05D07F
:100D4000022430688047BC42354608D06A68904724
:100D50000234AB682E1D98470835BC42F6D1FFF728
:100D600017FF00BF00080010000000100004001072
:100D7000000400100308001000000020740600208A
:100D80006835010848240020304E01208801000801
:100D9000880100088801000888010008AFF300807E
:100DA000FEE700BFAFF30080AFF30080AFF3008039
:100DB000F8B54EF6E064C0F6000407460FCC42F2E8
:100DC0004846C2F2000635460FC523682B70B96944
:100DD00028460DF065FF4EF6F4613046C0F600017E
:100DE0002E22BDE8F84000F0B3B900BFAFF3008099
:100DF00072B6FEE7AFF30080AFF30080AFF3008080
:100E000000F09EFA00F08CFC00F07AFA00DF00BFE0
:100E1000EFF309824EF63073CEF20003D2F8CC1015
:100E20005960986868309860683282F309880023B6
:100E300083F31188704700BFAFF30080AFF30080E9
:100E400008B54FF46D43CEF200034FF44072C0F288
:100E5000FA520021996007201021DA6000F0D8F8DA
:100E60000A204FF4007100F0D3F80B208021BDE878
:100E7000084000F0CDB800BFAFF30080AFF30080B2
:100E8000202383F311884FF46D43CEF2000358689A
:100E900010F4006325D0EFF30983A3F1680282F315
:100EA000098816494FF080708A6943F84C0C92F813
:100EB0002300096892688968B0B1914294BF00220A
:100EC0000122BAB10E4A43F8502CF1EE10FA4EF658
:100ED0003072CEF20002516841F001005966506054
:100EE000704783F311887047914234BF002201227A
:100EF000002AE7D1034843F8500CE8E798090010AE
:100F0000010E00080C0E0008AFF30080AFF3008064
:100F100008B500F09DF9202383F3118800F0D8F97B
:100F200000F0DEF800F0B4F9002383F3118800F03C
:100F30006FF9BDE80840FFF7A3BF00BFAFF3008023
:100F40002DE9F04F2DED108AC1F80CD0D0F80CD05F
:100F5000BDEC108ABDE8F08FAFF30080AFF30080E6
:100F600008B500F0CDF9002383F311882846A04787
:100F700000F0F6FC08BD00BFAFF30080AFF30080C7
:100F8000F0B44FF461438408CEF20003C03400F0A3
:100F9000030553F82470ED00FF26420906FA05F612
:100FA00027EA060601FA05F500F01F0002F16007C6
:100FB000012101FA00F02E4343F8246043F8270092
:100FC00043F82200F0BC7047AFF30080AFF300801D
:100FD00041094FF4614310B4CEF2000300F01F0248
:100FE0002031012404FA02F4820843F82140C0327F
:100FF00000F0030053F82210C000FF2404FA00F0B0
:1010000021EA000143F8221010BC7047AFF30080C2
:1010100082084FF46D43CEF20003063200F0030065
:1010200030B4C00053F82250FF2404FA00F425EA3B
:10103000040401FA00F10C4343F8224030BC70472D
:10104000024B034A98698261FEE700BF98090010CD
:101050001C2A0108AFF30080AFF30080AFF30080DB
:1010600030B583B0FFF7ECFE00F00AFA00F098F913
:1010700001F0DEF801F024F940F600004021C1F251
:10108000000000F05DFB40F6981440F20043C1F20E
:101090000003C1F200040125C36180F82050A06163
:1010A00000F066F9002383F3118862B64FF2D01185
:1010B000A269C0F60001916140F65000009341F230
:1010C00041034FF4A4712A46C0F60003C1F20000A8
:1010D00000F0BEFB03B030BDAFF30080AFF3008083
:1010E000F8B500F07DF8164B986990F8232012B1FE
:1010F000511E80F82310446A124D631C4362E86855
:101100002C68421CAC42EA6018D0A768013FA76077
:10111000A7B92168E6684D60E760296000F0B8F87B
:10112000002383F311882069B047202383F31188BB
:1011300000F0CEF82C68A368002BEAD0F8BD00BF01
:1011400098090010B4090010AFF30080AFF30080DD
:1011500070B506460D46144602F0A2FC00B170BD03
:1011600002F096FC0C4B0D4A18680D490D4B1560AA
:101170000C601E600028F2D131462A4623460A48F8
:1011800003F04EF948F2A060C0F2010000F080FBCD
:10119000BDE87040FFF72CBE2C4E0120102500202A
:1011A000182500202025002020EF0008AFF3008044
:1011B000064B186820B906490A68002A00DD704706
:1011C00004480549D322FFF7C3BF00BF1425002000
:1011D0001C25002034EF00083CEF0008AFF300802E
:1011E000064B1868002804DB05490A68002A00DD60
:1011F000704704480449C522FFF7AABF1425002000
:101200001C2500205CEF00083CEF0008AFF30080D5
:1012100010B5202383F31188094C2368002B02DDCD
:10122000084A106828B108480849B522FFF790FF1E
:101230002368591E2160002383F3118810BD00BF6D
:10124000142500201C25002080EF00083CEF00083A
:1012500010B5202383F31188094C2368002B02DB8F
:10126000084A106828B108480849A722FFF770FF0C
:101270002368591C2160002383F3118810BD00BF2F
:10128000142500201C25002088EF00083CEF0008F2
:10129000084B1868002810B5074C05DD21680029A7
:1012A00002DD0022226010BD044805499A22FFF7A2
:1012B0004FFFF6E7142500201C25002090EF0008C2
:1012C0003CEF0008AFF30080AFF30080AFF3008085
:1012D000074B1868002810B5064C01DD216821B1C4
:1012E000054806498E22FFF733FF0122226010BD18
:1012F000142500201C25002098EF00083CEF000872
:10130000084B186810B5084C28B92168002902DD7F
:101310000022226010BD054805498222FFF718FF10
:10132000F6E700BF142500201C250020B8EF0008B8
:101330003CEF0008AFF30080AFF30080AFF3008014
:10134000074B186810B5074C08B9216821B1064849
:1013500006497622FFF7FCFE0122226010BD00BF85
:10136000142500201C250020C0EF00083CEF0008D9
:10137000054B186810B905490A6822B104480549A7
:101380006B22FFF7E5BE7047142500201C250020C6
:10139000DCEF00083CEF0008AFF30080AFF3008003
:1013A00040F6B413C1F200034FF0FF3200205B603F
:1013B0001B609A60D8607047AFF30080AFF3008085
:1013C000F8B505460C4616461F46FFF709FFCDB196
:1013D000C6B1BCB10E492F610B68EE609A689442A9
:1013E00004D91B68A41A9A68A242FAD358682B60E1
:1013F0008B42686005605D60AC6002D099680C1B30
:101400009C60F8BD034804495122FFF7A1FEE1E7C3
:10141000B409001000F0000810F00008AFF30080DD
:1014200010B50446FFF7DCFE84B1E368A3B1206881
:101430000C4A904203D08168A368CA188260616830
:101440000860206800234160E36010BD064807493A
:101450006D22FFF77DFEE8E7054804497022FFF79B
:1014600077FEE4E7B409001030F0000810F000083F
:1014700040F00008AFF30080AFF30080AFF30080CE
:1014800040F69813C1F2000300225B601B609A6073
:101490005B611B61704700BFAFF30080AFF300805A
:1014A00010B50446FFF79CFE94F820308BB10E2B4C
:1014B0000FD00022A1680A4884F8202000688368C1
:1014C0008B42FBD24168206061600C604460204622
:1014D00010BD044804495A22FFF73AFEE9E700BF6D
:1014E0009809001060F0000874F00008AFF3008065
:1014F00010B52023044683F31188FFF7E9FE94F822
:1015000020300D2B11D8DFE803F016101007100B58
:10151000101010101010100BA06A8268511C81600E
:1015200094E80C001A60206843604FF0FF33A36218
:101530002046FFF7B5FFFFF7ABFE002383F31188CA
:1015400010BD00BFAFF30080AFF30080AFF30080A9
:1015500070B5104C0646FFF72BFEA5692368E969B4
:101560001A6885F82060ADF164005460142622608A
:101570000122814285F82360A36183F8202003D9EA
:101580002846FFF715FCA36918462946BDE87040B8
:10159000FFF7D6BC98090010AFF30080AFF30080CE
:1015A00070B50C4686B00646FFF702FE631C12D0EB
:1015B0000B4D0C4AAB69214601A8FFF701FF3046ED
:1015C000FFF7C6FF049B13B101A8FFF729FFA86925
:1015D000806A06B070BD3046FFF7BAFF004DF6E7EF
:1015E00098090010F1140008AFF30080AFF30080F9
:1015F00070B5124D04460E46FFF7DAFDA869A268E1
:101600008368A6629A4211D9FFF74AFFC369AC61A9
:10161000ADF1640201219342064684F820100AD8F5
:1016200020463146BDE87040FFF78ABC2046BDE841
:101630007040FFF735BFFFF7BBFBF1E798090010DB
:1016400038B50F4C2368A5691A680121142054602D
:1016500083F8201085F8230028462260A361FFF755
:101660001FFFEB69ADF16402934202D92846FFF7F0
:101670009FFBA0692946BDE83840FFF761BC00BF69
:1016800098090010AFF30080AFF30080AFF3008043
:1016900070B5134E3068B5690368AC685E600122AE
:1016A000002180F820203360B06185F820100346C7
:1016B00000E01B689A68A242FBD8E9695A682B606F
:1016C000ADF16404A1426A6015605D6003D92846EB
:1016D000FFF76EFBB0692946BDE87040FFF730BCEC
:1016E00098090010AFF30080AFF30080AFF30080E3
:1016F00008B5FFF75DFD064B1A6898699168836825
:10170000994200D808BDBDE80840FFF7C1BF00BF3F
:1017100098090010AFF30080AFF30080AFF30080B2
:10172000044B986990F8231009B1FFF7B1BFFFF798
:1017300087BF00BF98090010AFF30080AFF30080AF
:101740002DE9F00140F69814C1F200040022656909
:101750004164046100F13006816000F12C0C00F15D
:101760004C0745614FF0020860610121142480F8A4
:10177000208080F8212080F823400264C263426206
:1017800080F8221082612861C0F82CC0466306638D
:10179000C761BDE8F0017047AFF30080AFF3008090
:1017A0002DE9F04704460D4617469846FFF718FD09
:1017B00014B1B5F59C7F38D21F482049A622FFF707
:1017C000C7FCA5F1640161181D4E089BD6F814C032
:1017D000E1604B641B4BC1F840800B660221002581
:1017E00004F1300204F12C0A04F14C0984F82010B1
:1017F000142301212661A760C4F814C02046746137
:1018000084F8215084F8233067642564E5636562B9
:1018100084F82210A561CCF81040C4F82CA06263B3
:101820002263C4F81C90BDE8F0877F2FC4D8B8F1BC
:10183000000FC6D1C0E700BFA0F00008B4F0000858
:1018400098090010610F0008AFF30080AFF300802B
:10185000F0B51C4683B005460E461746202383F399
:101860001188FFF76DFD089823463A4631460090EF
:101870002846FFF795FF00210446FFF7B9FEFFF762
:101880003FFD002383F31188204603B0F0BD00BF65
:1018900010B5044628B90A480A494FF49372FFF775
:1018A00057FC202383F31188FFF74AFD21460620C9
:1018B000FFF776FEFFF724FD002383F3118810BDA8
:1018C00004F10008B4F00008AFF30080AFF300802B
:1018D00010B52023044683F31188FFF731FD064B32
:1018E000D968611A02D00620FFF75AFEFFF708FDFB
:1018F000002383F3118810BDB4090010AFF30080FA
:1019000038B5114B9C692546A06255F82C0FA842AA
:1019100006D00168E162FFF7C3FDE06AA842F8D192
:1019200094F82100830704D1636922691A6121694F
:101930004B610E20FFF70CFE0448054940F281126E
:10194000BDE83840FFF704BC9809001014F1000806
:10195000B4F00008AFF30080AFF30080AFF3008075
:1019600010B52023044683F31188FFF7E9FC2046D5
:10197000BDE81040FFF7C4BFAFF30080AFF30080B5
:1019800038B50446202383F31188FFF7D9FC94F877
:101990002230002B21D0581EC5B284F82250FFF708
:1019A000AFFC002383F311881DB994F820100E2991
:1019B00000D038BD94F8212002F00303012B14D08D
:1019C000022BF6D163692169A06C19612269214655
:1019D0005361BDE8384000F0FBBC094809494E227C
:1019E000FFF7B6FB94F82230D5E7636920691861E8
:1019F000216920464B61BDE8384000F071BC00BF52
:101A000098F1000874F10008AFF30080AFF3008094
:101A100010B5202383F31188FFF792FC40F698134A
:101A2000C1F200031C6994F82200411C84F82210C2
:101A3000FFF766FC002383F31188204610BD00BF2A
:101A400038B50546202383F31188FFF779FC2C690C
:101A50000E4B9C4218D094F82200FF280CD0411C59
:101A600084F82210FFF74CFC002383F311882846EA
:101A7000FFF786FF204638BD054806499622FFF746
:101A800067FB94F82200EAE70024EBE798090010CE
:101A9000F0F1000808F20008AFF30080AFF3008017
:101AA00038B504460D4628B1002903DB6460246084
:101AB000A56038BD024803495822FFF749FBF5E706
:101AC00030F2000840F20008AFF30080AFF300806E
:101AD00038B50446FFF76CFB002C25D0A3682268BC
:101AE000002B0DDBA24205D012481349C022FFF79C
:101AF0002FFBA368581E0028A06007DB002038BD1C
:101B0000A242F1D0581E0028A060F7DA0B4DA96957
:101B10008C6262680C604A60032061601160FFF7AC
:101B200017FDAB69986A38BD05480349BC22FFF729
:101B30000FFBD3E794F2000840F200089809001068
:101B400084F20008AFF30080AFF30080AFF30080B1
:101B500010B52023044683F31188FFF7F1FB2046DC
:101B6000FFF7B6FF0446FFF7CBFB002383F3118892
:101B7000204610BDAFF30080AFF30080AFF30080CC
:101B800010B50446FFF72CFB002C22D0A368226876
:101B9000002B0DDBA24206D0114812494FF49B7274
:101BA000FFF7D6FAA368581C0028A06006DD10BD18
:101BB000A242F1D0581C0028A060F8DC21680A6815
:101BC00000230846226054608B62BDE81040FFF796
:101BD00067BC054803494FF49972FFF7B9FAD5E796
:101BE00010F3000840F20008FCF20008AFF3008098
:101BF00010B5044620B1002364602460A36010BDCA
:101C0000024803495822FFF7A3FAF4E7A0F30008BB
:101C1000B0F30008AFF30080AFF30080AFF30080B3
:101C2000F8B53E4B05469C69FFF7C2FA002D6FD010
:101C3000A86800283AD0A2688168914208D290F83A
:101C400020308260042B49D0052B34D0002B22D0C9
:101C500028460068854203D08168A2689142F8D284
:101C60004368206063601C604460A5620420FFF745
:101C70006FFCA868A04204D029482A49B222FFF785
:101C800067FA216CA94215D027482649B322BDE83E
:101C9000F840FFF75DBA90E80C001A600268012175
:101CA00080F820105360FFF7FBFBD1E7206CAC609D
:101CB000E8602564F8BD41680768866A0F600768B8
:101CC000334679601B689E4202D099689142F9D2EE
:101CD0005A680360426010605860B9E7416807685D
:101CE000866A0F600768334679601B689E420DD094
:101CF00099689142F9D25A68036042601060586056
:101D0000B068A2688368934299D3A1E73346F2E7AB
:101D1000064804497D22FFF71BFA89E7980900105D
:101D2000E0F30008B0F30008F4F30008D0F3000873
:101D300010B52023044683F31188FFF701FB2046EA
:101D4000FFF76EFFFFF7DCFA002383F3118810BD65
:101D5000214A70B52023956983F31188FFF7F0FAC3
:101D60002C6C002C30D0A368AB4206D01B481C4919
:101D700040F20B12FFF7ECF92C6C2668E368A642E0
:101D80002B641ED0696C4BB11A689A4203D09068DC
:101D9000814238BF0146DB68002BF5D13368326CD5
:101DA000A9603046236000215C60A660E260346474
:101DB000FFF71EFCFFF7A4FA002383F311882046E7
:101DC00070BD0020A060F5E7064805494FF4847215
:101DD000FFF7BEF92C6CC6E79809001030F4000834
:101DE000B0F300081CF40008AFF30080AFF30080EC
:101DF00038B504460D46FFF7F3F9C4B1E26B94F829
:101E0000203045EA0201082BE1630CD0092B00D0F9
:101E100038BDA06A01408842FAD12046FFF740FB56
:101E20000023836238BDA26A1142F6D138BD03484F
:101E30000349FE22FFF78CF9E0E700BFC0F4000879
:101E400088F40008AFF30080AFF30080AFF30080A8
:101E500070B505460E46FFF7C3F965B12C68A5427B
:101E600008D0201D0BC83343E360FFF7C1FF24688F
:101E7000A542F6D170BD03480349BC22FFF768F9BB
:101E8000ECE700BFE4F4000888F40008AFF300803A
:101E900010B4024659B1084B9B69986244680D2002
:101EA00083E814005360236010BCFFF779BB4FF048
:101EB000FF3010BC704700BF98090010AFF30080DE
:101EC00010B4C361019B40608A18002400608460E4
:101ED00041618161C1600261036210BC704700BF53
:101EE00038B50446FFF77CF92068E3680021A0427A
:101EF0006361A361A1600AD06FF0010502682260EE
:101F00005460FFF7CDFA85622068A042F6D138BD53
:101F100038B504460D46FFF763F96369A269A06806
:101F200093421AD0411CA16003F8015B22696361EE
:101F300093420BD22068A0420DD0016821604C6012
:101F4000FFF7AEFA00228262104638BD2068E368CF
:101F5000A0426361F1D1002038BD0028E2D06FF0CB
:101F6000030038BDAFF30080AFF30080AFF3008013
:101F7000F8B504460E46202383F31188FFF7E0F9F5
:101F8000E3690BB120469847A5682046314655B90C
:101F9000FFF77EFF071EF7DAFFF7B2F92B4683F350
:101FA00011883846F8BDA0692269013DA56010F886
:101FB000017B9042A06124BFE068A061FFF7A0F917
:101FC000002383F311883846F8BD00BFAFF30080CB
:101FD0002DE9F0470446154688461E46C769002A83
:101FE0003AD0202383F31188FFF7AAF908F1010AF8
:101FF0004FF00009A8440FB12046B847A568204615
:1020000031465DB9FFF744FF0028F7D0FFF778F9B4
:102010002B4683F311884846BDE8F087A369013D4C
:10202000A56013F8012B0AF8012C2069A3618342F3
:1020300024BFE368A361FFF763F9002383F31188EA
:10204000C24509F10109E6D0202383F31188FFF787
:1020500077F90AF1010ACEE702480349E722FFF7C0
:1020600077F8BEE730F5000844F50008AFF30080CC
:1020700010B4C361019B40608C18006082604161B4
:102080008161C1600461036210BC7047AFF30080DE
:1020900038B50446FFF7A4F8E36822692068636155
:1020A000D11AA042A361A1600AD06FF001050368B4
:1020B00023605C60FFF7F4F985622068A042F6D1E6
:1020C00038BD00BFAFF30080AFF30080AFF30080F6
:1020D0002DE9F041202304468846164683F31188F3
:1020E000FFF72EF9A568204631465DB9FFF7D0FE0F
:1020F000071EF7DAFFF704F92B4683F311883846F9
:10210000BDE8F0816369013DA56003F8018B226998
:102110006361934228BFE368E16928BF636109B145
:1021200020468847FFF7ECF8002383F311881F4609
:102130003846BDE8F08100BFAFF30080AFF3008008
:1021400038B50446FFF74CF8A3696269A0689A4263
:1021500016D0411CA16013F8015B2269A361934270
:102160000BD22068A04206D0016821604C60FFF7C6
:1021700097F900228262284638BDE368A361F0E740
:102180000028E6D06FF0020038BD00BFAFF300803A
:102190002DE9F0470446164688469A46D0F81C902A
:1021A000002A39D0202383F31188FFF7C9F80027CC
:1021B000A56820466B1E0DB3A360656918F8011B66
:1021C00005F8011B22696561954224BFE2686261DE
:1021D000B9F1000F00D0C847FFF792F8002383F34E
:1021E00011880137013E14D0202383F31188FFF7B3
:1021F000A7F8A56820466B1E002DDDD1204651466C
:10220000FFF746FE0028D3D0FFF77AF82B4683F37A
:1022100011883846BDE8F0870348044940F29B1214
:10222000FEF796FFBEE700BF68F5000844F500081A
:1022300040F6C81240F6C4134CF200010648C1F241
:102240000002C1F20003C2F2010120F0070021F0F8
:102250000701106019607047374E0120AFF300800E
:1022600010B50446FEF7BCFF074A08491368096821
:10227000E01D20F00700C91A88429ABF18181060A4
:102280000023184610BD00BFC8090010C409001083
:1022900010B52023044683F31188FFF751F8204638
:1022A000FFF7DEFF0446FFF72BF8002383F31188C6
:1022B000204610BDAFF30080AFF30080AFF3008085
:1022C00040F6D013C1F2000342F291210022C0F681
:1022D000000103F1100019609A60DA60FFF788BC12
:1022E000F8B5074600284DD057F8086C06F11000E5
:1022F000FFF71EFD0836A7F108053446AC4204D8A6
:1023000063680833E01885421FD3B442216801D0C6
:10231000AC4202D219B18D4201D30C46EEE757F818
:10232000042C47F8081C256002F1080357F8080C34
:10233000E91881420FD0606800F1080163189D42DE
:1023400017D0BDE8F840FFF703BD11481149D0226E
:10235000FEF7FEFED9E74868EB581218083247F836
:10236000042C606847F8083C00F1080163189D429E
:10237000E7D157F8041C57F8082C4318083384E8B1
:102380000C00DEE704480349C622FEF7E1FEABE796
:10239000C0F5000890F50008B0F50008AFF3008024
:1023A00038B504460D46FEF71BFF24B11DB1236866
:1023B0002B60256038BD034803499922FEF7C8FE0B
:1023C000F5E700BF28F60008F0F50008AFF300803D
:1023D00038B505460C46202383F31188FEF7B0FF7D
:1023E00028462146FFF7DCFFFEF78AFF002383F330
:1023F000118838BDAFF30080AFF30080AFF30080E9
:10240000F0B4002B08BF0B46074600F10B0C00F19F
:102410000A05B1FBF2F602FB161101F13004392C6A
:10242000C8BF01F13704E4B2B3FBF2F328463146EA
:1024300005F80149002BECD1C0EB0C03F94302462F
:10244000F8184318DB070AD507F8014B12F8014FBB
:1024500005E012F8014F7C7012F8014F5F1C3B46FB
:1024600003F8014B8342F4D1F0BC7047AFF3008016
:102470002DE9F04F2DED028B8FB00DF1210408AB4B
:1024800001940293064617460198029A4CF6CD45F0
:102490000C46CCF6CC45811A03910695254615F8D5
:1024A000011B59B125290ED033682C4625463046EC
:1024B0009A68904715F8011B0029F3D10FB0BDECC5
:1024C000028BBDE8F08F63782D2B00F0D4814FF0A4
:1024D00000092E2B00F0B281302B00F0AF814FF0BD
:1024E00020082C46002506E03978043705EB8505E1
:1024F000237801EB4505A3F13000C1B2013409296D
:10250000F4D92A2BF0D02E2B00F09D814FF0000B38
:102510006C2B00F08C814C2B00F08981A3F14401DD
:10252000342900F27D81DFE811F074017B017B0129
:102530007B017B0174017B017B017B017B017B01C2
:1025400072017B017B017B017B017B0170017B01BF
:102550007B0163017B017B017B017B017B017B01B3
:102560007B017B017B017B01240174017B01D30092
:102570007B017B0174017B017B017B017B017B0182
:1025800072017B017B017B0135007B0170017B01C6
:102590007B0163013868AE4A002814BF8246924628
:1025A00047F6FF719AF800300437BBF1000F08BFFF
:1025B0008B46002B00F098810AEB0B006FEA0A02B1
:1025C0009AF80130111801F001020AF1010B63B110
:1025D00083455B4609D0002A6ED09BF801300BF191
:1025E000010B13B183455B4666D1CAEB0B0B4FF071
:1025F0002008CBEB050525EAE575B9F1000F00F0E1
:10260000CA80BBF1000F27DDD146306819F8011BE5
:102610008268D3446FEA0A0C0BEB0C0E30460EF0C6
:10262000010A9047D94517D0BAF1000F03D033689B
:1026300019F8011B0BE03068CA4682681AF8011BC2
:1026400030469047336899F801100AF101099A68F9
:1026500030469047D945EED1002D3FF41FAF316889
:102660006B1E8A681D463046414603F001099047BB
:10267000002D3FF413AFB9F1000F07D03168304699
:102680008B6841469847013D3FF408AF30684146AA
:102690008268304690473168013D8B68304641463C
:1026A0009847013DF2D1F9E69BF801100BF1010BBF
:1026B00000299AD0834598D003F1010B59785A46E6
:1026C000531C0029F0D1CAEB0B0B4FF0200890E708
:1026D000073727F00707D7E90001FEF701FA08EEF0
:1026E000100AB5EEC08A0837F1EE10FA00F1F48056
:1026F0000DF1200A18EE100AFDF7D6FECDE904010F
:102700000AF0E6FC002800F0C780BBF1000F00F0E3
:10271000D380069AA2FB0B03D9080791BDEEC88AA5
:1027200000230A2218EE101A5046FFF769FE82466F
:102730002E220AF8012B18EE100AFDF7A3FE02461E
:102740000B46DDE90401FDF74FFDCDE904015846D4
:10275000FDF788FE02460B46DDE90401FDF7F8FEB1
:10276000FEF796F90A220146079B5046FFF748FEFE
:102770009CE03868DDF80CB08DF820004FF02008A0
:1027800004370DEB080ACBEB050525EAE575B9F131
:10279000000F7FF436AF6D42002D3FF432AF9AF850
:1027A00000102D296CD030684146826830466FEAAF
:1027B00005099047013509F001093FF422AFB9F14D
:1027C000000F07D0316830468B6841469847013585
:1027D0003FF417AF30684146826830469047316811
:1027E00001358B683046414698470135F2D108E7FC
:1027F0001022396808A804370023FFF701FE029968
:102800000DF1200AC1EB000BBDE70A22F1E7082217
:10281000EFE739680437002956DB08A80A22EBE7FE
:102820008DF82030DDF80CB00DF1200AABE72278EE
:10283000002A3FF473AE013413466FE66B784FF015
:10284000300801354DE621464FF0000B08E000BF8F
:1028500050F60008387804370BEB8B0400EB440B80
:1028600011F8013BA3F13004E0B209280C46F3D97A
:102870002A2BEFD04CE6A51CA3784FF0010928E6DF
:10288000B8F1300F8FD132683046936898470AF11B
:10289000010A0BF1FF3B86E74E2361218AF80030E5
:1028A0008AF801108AF802300AF10300029A0DF149
:1028B000200AC2EB000B66E748F2A06B42F21070F0
:1028C0000790C0F2010B29E72D238DF820304942F3
:1028D0000DF121000A228FE72D208DF82000B1EEA6
:1028E000488A0DF1210A05E79B464FF020084AE788
:1028F000C36882689A4206D04268D154C1684B1CB2
:10290000C360002070476FF001007047AFF3008094
:102910000369C2689A4205D04168CA5C0133036109
:10292000104670476FF00100704700BFAFF30080A2
:1029300038B5044608462369E5686168ED1AAA427D
:1029400038BF15462A46C9180CF01AF820694219F2
:102950002261284638BD00BFAFF30080AFF300808E
:1029600038B5C36885680446ED1A4068AA4238BF86
:1029700015462A46C0180CF003F8E1684A19E260CF
:10298000284638BDAFF30080AFF30080AFF300807E
:1029900010B44FF26064C0F60004C360002304600A
:1029A00041608260036110BC704700BFAFF30080DC
:1029B00003680F2B70B504460D46164609D003F187
:1029C000100104EB8302581C44F82160206055601C
:1029D00070BD034803490D2200F0FAFB2368EEE7BF
:1029E00070F6000884F60008AFF30080AFF30080B3
:1029F0000368002B70B5064609DD041F002504346A
:102A00000135206C616888473068A842F7DC70BDEA
:102A10000368002B2DE9F04106460F4690460ADD7B
:102A2000051F0024043538466A68414690473068DF
:102A30000134A042F6DCBDE8F08100BFAFF30080B6
:102A4000002953DD03464118002003E050008B426B
:102A5000C0B24AD013F8012B504010F0800F4FEA5B
:102A600040021CBF82F02702D243D0B210F0800F88
:102A70004FEA40021CBF82F02702D243D0B210F0CE
:102A8000800F4FEA40021CBF82F02702D243D0B22F
:102A900010F0800F4FEA40021CBF82F02702D243A1
:102AA000D0B210F0800F4FEA40021CBF82F0270224
:102AB000D243D0B210F0800F4FEA40021CBF82F028
:102AC0002702D243D0B24FEA400210F0800F1CBF61
:102AD00082F02702D243D2B21006B7D5520082F05C
:102AE0002700C2438B42D0B2B4D170470020704758
:102AF00010B50021044640220BF0EAFF00232364B6
:102B000010BD00BFAFF30080AFF30080AFF30080D3
:102B1000036C5A1C0264036C102B01D10022026466
:102B2000036C40F82310416C4A1C4264704700BF9C
:102B3000436C8B42B8BF436C026CA8BF0B46002BA2
:102B4000F0B441DD5C1ED143002A04F00105C3EB63
:102B5000020C144604DA21F00F0702F11003FC18EE
:102B6000531E0131634550F824702AD06DB1002BFB
:102B70001C4603DA21F00F040F32A41850F8242069
:102B8000013B0131634517441BD05A1E002B1E46E2
:102B900001F10104154604DA21F00F0103F11006DA
:102BA0008E1950F826100F33002A0F4402DA24F051
:102BB0000F05ED18531E50F82520611C634517447E
:102BC000E3D13846F0BC70470027FAE7AFF3008046
:102BD0002DE9F00300F59E51002400250026C4F2E3
:102BE0000C24C4F27015C4F28226364B0C604FF0F0
:102BF000834700F59652C0F85051C0F854614FF029
:102C0000824101244FF47A7541F65836C0F8587164
:102C1000C0F85C11A0F84A41A0F84C51A0F84861F6
:102C20001C3203F18407596851609C68946053F822
:102C30000C5FBB4242F80C5FF5D1234E334600F5E2
:102C40009B5253F8587D42F8047F596851609C6844
:102C5000083394600832B342F7D1DFF8708000F295
:102C60005C7500264FF05C0C08EB86040CFB060339
:102C7000224603F5E0616F1A52F8849B0B1D043F56
:102C8000AB42C1F80490C7F3800713D03FB1D4F82A
:102C9000842043F8042FAB4204F584720AD01468F0
:102CA0005C60191DD2F884400833AB424C6002F5D9
:102CB0008472F4D10136212E03F15C05D4D1BDE834
:102CC000F0037047DC020108F8F6000800F700087E
:102CD0002DE9F0410746012400F5E966002530465C
:102CE000C7F8444707F0BCF822462B463046214639
:102CF00007F0BEF83046214602222B4607F0B8F80E
:102D00003046214603222B4607F0B2F830462146D2
:102D100004222B4607F0ACF83046032122462B460E
:102D200007F0A6F83046032102222B4607F0A0F850
:102D3000032130460A462B4607F09AF83046032115
:102D400004222B4607F094F83046062122462B46F3
:102D500007F08EF83046062102222B4607F088F84D
:102D60003046062103222B4607F082F83046062122
:102D700004222B4607F07CF8304622462B460821D9
:102D800007F076F80821304602222B4607F070F84B
:102D90003046082103222B4607F06AF804222B460E
:102DA0000821304607F62C1607F062F8304607F087
:102DB00057F83046214604222B4607F059F8304692
:102DC000032102222B4607F053F830460621224603
:102DD0002B4607F04DF8082103222B46304607F515
:102DE000316607F045F8304607F03AF8304621469C
:102DF00022462B4607F03CF83046032122462B465C
:102E000007F036F83046062122462B4607F030F808
:102E10000821224630462B4607F02AF807F12C05F8
:102E20000A23C7F84037284602F022FF4FF6EE414A
:102E3000284622462346C4F2562102F021FF4CF6D2
:102E4000CD41284622460023C4F2F32102F018FFA8
:102E50004CF28F21284622462346C4F2683102F004
:102E60000FFF44F21F51284622460023C4F2963138
:102E700002F006FF0021284600222346C4F2B431A6
:102E800002F0FEFE4EF6AC31284622462346C4F23E
:102E9000CC3102F0F5FE45F24431284622460023AB
:102EA000C4F2EF3102F0ECFE40F2E1212846224666
:102EB0002346C4F2134102F0E3FE44F2EC1128462B
:102EC00022460023C4F2244102F0DAFE002200214F
:102ED0002846C4F234411346BDE8F04102F0D0BEAA
:102EE00041F65833A0F84831704700BFAFF3008077
:102EF00070B505460024012100F5E9664FF07E50CB
:102F00000A462346E861304606F0B2FF30462421E7
:102F10000222234606F0ACFF05F62C1601210A46D4
:102F20002346304606F0A4FF3046242102222346E1
:102F300006F09EFF05F5316601210A46234630461C
:102F400006F096FF304624210222234606F090FF29
:102F5000462305F12C0024210122C5F84037BDE8A5
:102F6000704003F005BB00BFAFF30080AFF30080FB
:102F700070B51148114E84B001F052FAFEF748FDC9
:102F8000044694F82220A368616A0D48551E0095F6
:102F900094F82020029156F822100191A56921464B
:102FA0000022039501F03CFA2046FEF749FD044655
:102FB0000028E6D104B070BDB00301087003010819
:102FC000E0030108AFF30080AFF30080AFF30080AF
:102FD00040F2084040F21841C0F60100C0F601017D
:102FE0002A22FEF7B5B800BFAFF30080AFF3008030
:102FF00040F2304038B5C0F6010042F2EC54C2F263
:10300000000401F00DFA42F6985240F27841C0F205
:1030100033122046C0F6010101F05AF940F2A841EE
:1030200040F28840C0F60101C0F6010001F0F8F955
:1030300040F2B040C0F6010001F0F2F940F2DC408D
:1030400040F2EC41C0F60100C0F6010101F0E8F9E0
:1030500048F2A06240F230512046C0F60101C0F2B1
:10306000010201F035F940F240512046C0F601015D
:103070004FF4E13201F02CF946F6407240F2505123
:103080002046C0F60101C0F240124FF43D4501F068
:103090001FF9C0F2015540F2605120462A46C0F6A1
:1030A000010101F015F94FF4F44240F2705120464D
:1030B000C0F60101C0F6032201F00AF94DF6806264
:1030C00040F280512046C0F60101C0F2802201F09A
:1030D000FFF840F2905120462A46C0F6010101F067
:1030E000F7F840F2A05120460122C0F6010101F09C
:1030F000EFF840F2B85120460122C0F6010101F07C
:10310000E7F840F2C85120460122C0F6010101F063
:10311000DFF840F2E45120460122C0F6010101F03F
:10312000D7F840F2006120460122C0F6010101F00B
:10313000CFF840F2146120460122C0F6010101F0EF
:10314000C7F840F2286120460122C0F6010101F0D3
:10315000BFF840F2446120460022C0F6010101F0B0
:10316000B7F840F2606120460122C0F6010101F08B
:10317000AFF840F27C612046C0F60101012201F067
:10318000A7F84FF4FA70BDE83840FEF781BB00BFE6
:1031900008B543F6C053C2F20003C1B21A6818461C
:1031A0009368984708BD00BFAFF30080AFF300807D
:1031B00038B543F6C053C2F2000305461C680A4600
:1031C000246818462946A04738BD00BFAFF30080E9
:1031D00070B542F224540346C2F200040D46204664
:1031E000194616460BF05CFD204629463246BDE8DE
:1031F0007040FDF7ADBF00BFAFF30080AFF30080BC
:1032000008B501F0F5FA44F61100C0F6000000F030
:103210008FF842F2EC5040F29061C2F20000C0F62A
:10322000010101F02DF8FFF7E3FE40F2986042F64D
:10323000F171C0F60100C0F6000101F0E1F940F2C1
:10324000A06042F6D171C0F60100C0F6000101F0A5
:10325000D7F940F2A86042F67171C0F60100C0F6DD
:10326000000101F0CDF9BDE8084001F0E1B900BF6F
:103270002DE9F843264BDFF8A4809869254A264EAD
:10328000DFF89C908261454608F14E0700F0B0F9E6
:10329000D0B131682048CC68A047044600B200286D
:1032A00025DB042823D0082813D00D2822D01F287E
:1032B000ECDDBD42EAD2E0B2FFF76AFF05F8014B50
:1032C00000F096F90028E4D14FF47A70FEF7E0FAA6
:1032D000DCE74545DAD0E4B22046FFF759FF20206D
:1032E000FFF756FF2046FFF753FF013DCEE70020D2
:1032F000BDE8F883FFF74CFF0A20FFF749FF0023E2
:1033000006482B70D9F8002005469047BEE700BF5D
:103310009809001030070108C03D0020000000207F
:10332000A8290020AFF30080AFF30080AFF3008046
:1033300000B542F6A813C2F2000383B0186000F093
:1033400017F90020009043F2712342F2F0604FF42D
:103350002E714022C0F60003C2F20000FEF778FA98
:1033600003B000BDAFF30080AFF30080AFF3008087
:1033700008B501F0B5FB202383F3118818B9BDE827
:103380000840FDF7DDBFBDE80840FDF7A1BF00BF65
:10339000FFF7EEBFAFF30080AFF30080AFF3008024
:1033A00010B501F09DFB044628B9FDF7A9FF23469F
:1033B00083F3118810BDFDF76BFF002383F31188A1
:1033C00010BD00BFAFF30080AFF30080AFF300800B
:1033D000FFF7E6BFAFF30080AFF30080AFF30080EC
:1033E00008B543F6AC53C2F2000340F240701A68CD
:1033F000C0F60100511C196000F0A2F940F25870AB
:10340000C0F601000D21BDE8084000F089B900BFF9
:1034100043F6AC53C2F2000343F680505A68C2F23E
:10342000000001322C215A6000F07AB9AFF300801D
:1034300008B543F6AC53C2F2000340F268709A68D4
:10344000C0F60100511C996000F07AF942F6AC1008
:10345000C2F2000041F2D431BDE8084000F060B98A
:1034600008B540F27C70C0F6010000F069F940F246
:103470008C70C0F601000721BDE8084000F050B98B
:10348000482808B515D04F2817D0572819D04228FA
:103490001BD043281DD0742807D0542805D00F4BCB
:1034A0001A69501C1861002008BDFFF7D9FF0120E0
:1034B00008BDFFF795FF012008BDFFF7A9FF012018
:1034C00008BD00F04DF9012008BD00F089F9012088
:1034D00008BDFFF7ADFF012008BD00BFAC3D0020D7
:1034E000022906D0032906D00748012918BF002069
:1034F000704706487047032A03D8054800EBC2000E
:1035000070470020704700BF5009010820080108DB
:1035100020090108AFF30080AFF30080AFF3008013
:10352000022938B50C46054616D1202383F31188AD
:10353000FDF7CEFE28460121084A02F019F821467F
:10354000074A284602F014F8064801F0D9FEFDF7B4
:103550009FFE002383F3118838BD00BFA007010838
:1035600030080108C03D0020AFF30080AFF30080B9
:1035700038B543F6C055C2F2000540F6401428465F
:10358000C0F6010401F054FE2146284601F080FEF9
:103590002468236D9A6B48F2A06022F4002199639D
:1035A000C0F20100FEF774F940F660012046C0F653
:1035B000010101F0A5FF236D986B002440F4002267
:1035C00044F63C509A632146C2F20100C4F2020460
:1035D00001F00EFD0421204640F2823208F098F9F5
:1035E0002046082140F28232BDE8384008F090B908
:1035F00043F6C053C2F20003D3F8540201680A78BC
:10360000131F584258417047AFF30080AFF300805A
:103610000D4B0E4A986970B50D4E0E4D826102E059
:103620002B68581C286031680948CC68A04704B250
:103630002046FFF725FF0028F2D121460648224602
:1036400000F0EEFEECE700BF9809001060090108E9
:10365000B44D01200843002074090108AFF3008035
:1036600010B54FF44064C4F20204204603F0C0FCDD
:10367000014640F694100922C0F6010000F0D0FE89
:10368000204603F0B5FC014640F6A4100822C0F61F
:10369000010000F0C5FE43F6AC5444F20833C2F218
:1036A0000003C2F2000440F6B41019682269C0F6A3
:1036B000010000F0B5FE40F6DC102168C0F6010004
:1036C00000F0AEFE40F6F81061682C22C0F6010052
:1036D00000F0A6FE40F61C20A168C0F6010041F2F1
:1036E000D43200F09DFE40F64020E168C0F60100B3
:1036F00041F2D43200F094FE44F24C01C2F20001D7
:1037000040F664200968C0F60100BDE8104000F0F2
:1037100087BE00BFAFF30080AFF30080AFF300803F
:1037200038B544F6B453C2F2010305461C680A4694
:10373000246818462946A04738BD00BFAFF3008073
:10374000014608B541F28870C0F6010000F068FE3D
:10375000BDE80840FFF784BFAFF30080AFF30080FF
:1037600044F24C03C2F2000340F680201A6810B500
:10377000511CC0F601001960FFF7E2FF40F69020EF
:10378000C0F60100032100F04BFE44F6B450C2F233
:10379000010044F248040368C2F200045B6803229B
:1037A00021469847014640F6A020C0F6010000F0EF
:1037B00037FE40F6AC20C0F60100B4F90010A27844
:1037C00000F02EFE40F25000C2F20000A178B4F9E1
:1037D00000200368995410BDAFF30080AFF3008060
:1037E00008B543F6AC53C2F2000340F6C420DA68D1
:1037F000C0F60100511CD960FFF7A2FF40F23C2047
:10380000C2F2000042F6AC11C2F2000141F2D43221
:1038100000680BF0B5F8BDE8084005F019BA00BF24
:1038200040F23C23C2F2000342F6AC101968C2F227
:10383000000041F2D4320BF0A3B800BFAFF3008018
:1038400010B540F6D42144F20C3082B0C0F601012C
:10385000C2F2000000F014FD40F6E420C0F60100C2
:103860004FF4406400F0DCFDC4F2020440F6FC209A
:1038700021460922C0F6010040F2823303F0E0FC49
:1038800040F60C30082240F282332146C0F6010097
:1038900003F0D6FC44F6B45040F25401C2F20100E9
:1038A000C2F2000101F0A4FBFFF7BAFF40F61C30A2
:1038B00043F26161C0F60100C0F6000100F0A0FE15
:1038C0000023009344F2500043F211634FF42E7131
:1038D0004022C0F60003C2F20000FDF7B9FF02B0BB
:1038E00010BD00BFAFF30080AFF30080AFF30080E6
:1038F00010B505F005FB43F68054C2F200042060C9
:1039000006F09EFD606006F04BFEA06006F048FCED
:10391000E06006F055FC206106F07AFC606106F07C
:10392000B7FCE06106F02CFC208405F019FD606214
:1039300005F086FDA06210BDAFF30080AFF30080FC
:1039400044F20C73C2F2000301221A60704700BFF8
:103950002DE9F04707EE901A2DED048BB8EEE78ABB
:10396000DFED368A88EE288A84B0074640F6203498
:10397000C0F6010440F63038C0F6010840F664365F
:10398000C0F6010618EE101A05F012FF824606F086
:1039900007FE05F0CDFE054606F052FD05F0B0FE2F
:1039A000814606F075FC05F0DBFE09EE100A504674
:1039B000FCF77AFD02460B46204600F031FD284612
:1039C000FCF772FD044648460D46FCF76DFD29EEF6
:1039D000280A2246BDEEC09A2B46CDE900018DEDA6
:1039E000029A404600F01CFD18EE101A384605F009
:1039F0001FFF00EE900A20EEA81A18EE100AFDEE46
:103A0000C18AFCF751FDCDED008A02460B463046D7
:103A1000394600F005FD18EE908A44F2086040F641
:103A2000843118EE902AC2F20000C0F6010104B001
:103A3000BDEC048BBDE8F04700F0B2BC0000C8420A
:103A400040F6A03140F69C33C0F60103C0F60101F8
:103A5000002818BF194610B50446054800F0E0FCE0
:103A600004480549224600F033FC0448046010BDB8
:103A7000A40B010810470020C00B010810440020CF
:103A800044F21043C2F2000318687047AFF300809D
:103A90000220012103F06CBCAFF30080AFF3008083
:103AA00042F22053C2F200031868003018BF012010
:103AB000704700BFAFF30080AFF30080AFF300802A
:103AC000F8B5FFF795FD00B9F8BD734C236893B1C5
:103AD000724E734F0220012103F04AFC71482168A5
:103AE00032683B6800F09CFC48F2A060C0F2010024
:103AF000FDF7CEFEFEE700F073FC03F069F96A48BB
:103B000001680029E0D0694F694EFA6845F6C5247E
:103B10005509C0F67C24A4FB0513DC0903F060F909
:103B2000054630686349A84202D10A68A242CBD058
:103B30000C60FF6805F0E4F948F21F53C5F2EB137F
:103B40000446A3FB0720410907EE901A9FED5A0A8D
:103B5000B8EEE77A0323C7EE000A584858493560A3
:103B6000584E10EE902A00F013FB2A46534856494F
:103B700000F096FA55495148224600F091FA04F0B7
:103B80003FFD534902464D4800F08AFA06F018FB03
:103B900005462946204605F00BFE022302464D4904
:103BA000464800F0F5FA06F0FBFC05F0C1FD0223E3
:103BB00002464949414800F0EBFA06F041FC05F0A5
:103BC0009FFD0223024645493C4800F0E1FA06F019
:103BD0005FFB05F0C5FD022302464149374800F06E
:103BE000D7FA2946204605F023FE022302463D4926
:103BF000324800F0CDFA2946204604F089FB022322
:103C0000024639492D4800F0C3FA06F001FB374956
:103C100002460223294800F0BBFA06F021FB344992
:103C200002460223254800F0B3FA06F0C9FA02233F
:103C300002463049214800F0ABFA3268136833B1CC
:103C400005F0FEFB052102461C4800F0D1FA06F003
:103C5000A7FA01EE100AFDEEC11A0321174811EE72
:103C6000902A00F0B5FA3068416831B106F0E8FBFF
:103C700001210246114800F0BBFA06F091FC022136
:103C800002460E4800F0B4FA0C4802F0F9FB0B486B
:103C9000BDE8F84000F0FCBA2025002010250020E7
:103CA00018250020C40B010810440020B40900109E
:103CB000600000206400002000007A4410470020CB
:103CC000E00B010830020020E80B0108F00B0108AE
:103CD000F40B0108F80B0108040C0108100C010892
:103CE0001C0C0108280C0108300C0108380C0108D4
:103CF0003C0C0108440C0108AFF30080AFF30080D6
:103D000044F2144244F2107040F6484108B5C2F241
:103D100000024FF4FA73C2F20000C0F6010100F095
:103D20008FFA40F6544144F20860C0F60101C2F235
:103D3000000000F0A5FA0120FFF782FE40F668407F
:103D400043F65111C0F60100C0F6000100F068FC16
:103D500040F6C03043F64121C0F60100C0F6000134
:103D600000F056FC41F6AC1043F64111C0F60100DC
:103D7000C0F60001BDE8084000F042BCAFF300808F
:103D80000F4B104A70B4DC68156848F29F63651BDE
:103D9000C0F201039D42064607EE901A01DC70BC9A
:103DA00070479FED097A27EE870A1460FDEEC00A7E
:103DB000064810EE902A314670BC00F0F1BA00BF00
:103DC000B40900106800002000007A441047002069
:103DD000F8B507460AF0C4FF114B124D064693E8AA
:103DE00003002860A980681D314600F061FE04468A
:103DF0003A2004F8010B39462046A7190AF050FF73
:103E00000D210A22A1557A70FFF7F2FB00B9F8BD27
:103E1000BB1C2846591BBDE8F840FFF7C9B900BFD5
:103E2000700C01083C6F0020AFF30080AFF30080FE
:103E3000F8B50E46044600293AD030460AF090FF05
:103E4000D4F8F4300546002B38D0D4F8F800D4F874
:103E5000FC20C11A6B189A4209DD6A1C31460AF02F
:103E60008FFDD4F8F8004519C4F8F850F8BD244D7A
:103E70000FCD6060A16003CD2D88E2602361606199
:103E8000A161A583216804F11D000AF0B9FE271D78
:103E90001C4BC21BA41818883146A08038460AF073
:103EA000D7FE194938463722BDE8F840FFF790B9E8
:103EB000164815493E22FDF74BF9BEE7144D0FCDCC
:103EC0006060A16003CD2D88E26023616061A16123
:103ED000A583216804F11D000AF092FE271D094AFE
:103EE000C11B1388641838463146A3800AF0B0FE1F
:103EF000054938462D22BDE8F840FFF769B900BFF3
:103F0000C00C0108BC0C0108840C0108780C0108E5
:103F1000A00C0108AFF30080AFF30080AFF3008086
:103F200070B546F62874C2F2000406460025204605
:103F3000E560FEF79DFA6268E36848F2C421304606
:103F4000C2F20001D554BDE87040FFF771BF00BF59
:103F500008B5062807D8DFE800F00D0F1113151774
:103F600004000A4808BD0A480A498022FFF730F9D0
:103F7000002008BD084808BD084808BD084808BD1D
:103F8000084808BD084808BD084808BDF40C0108E9
:103F9000FC0C0108840C0108CC290108E40C010880
:103FA000E00C0108DC0C0108E80C0108F00C010829
:103FB00046F6287048F2C42108B54FF4FA6200238F
:103FC000C2F20000C2F20001FEF7E2FC45F69C33AB
:103FD000C2F2000301221A7008BD00BFAFF30080D7
:103FE000D0F8F820D0F8F400101A7047AFF3008032
:103FF0001E4B1B782DE9F04180460F46164653B301
:104000004FF46D44CEF20004194B65681C6805F04E
:104010001F05002C26D1202383F311886DB1FDF7F5
:1040200057F9404639463246FFF77AFFFDF730F937
:10403000234683F31188BDE8F081FDF781F94046FE
:1040400039463246FFF76CFFFDF75AF92B4683F3EA
:104050001188BDE8F081074807495022BDE8F041CA
:10406000FFF7B6B8BDE8F041FFF75ABF9C5B0020F0
:104070001C250020140D0108840C0108AFF30080FA
:104080000EB400B582B003AB53F8041B1A4601937B
:10409000FFF7AEFF02B05DF804EB03B0704700BF5E
:1040A00070B540F640540546C0F601041646FFF7C9
:1040B000BFFE28462146FFF7BBFE42F610312846D8
:1040C000C0F6010132462346BDE87040FFF7D8BF75
:1040D000013A10B504460846052A0ED8DFE802F07A
:1040E00017212B353F03FCF7DFF90B462149024628
:1040F0002046BDE81040FFF7C3BFFCF7D5F90B46DB
:104100001D4902462046BDE81040FFF7B9BFFCF745
:10411000CBF90B46194902462046BDE81040FFF78F
:10412000AFBFFCF7C1F90B46154902462046BDE872
:104130001040FFF7A5BFFCF7B7F90B46114902463F
:104140002046BDE81040FFF79BBFFCF7ADF90B46DA
:104150000D4902462046BDE81040FFF791BFFCF72D
:10416000A3F90B46094902462046BDE81040FFF777
:1041700087BF00BF780D0108840D0108440D0108B8
:104180004C0D0108540D0108600D01086C0D01086B
:10419000F8B540F640540546C0F601041E461746E1
:1041A000FFF746FE28462146FFF742FE28463946DD
:1041B0003246FFF78DFF28462146BDE8F840FFF75D
:1041C00037BE00BFAFF30080AFF30080AFF30080D5
:1041D00038B5044608461546FFF7BAFE2A4601469A
:1041E0002046BDE83840FFF75BBF00BFAFF300805B
:1041F00070B5044608461546FFF7AAFE2A46014652
:1042000002232046BDE87040FFF7C2BFAFF3008035
:1042100038B5D0F8F450044615B1C4F8F85038BD9C
:1042200003480449F622FCF793FFC4F8F85038BD60
:10423000880D0108840C0108AFF30080AFF3008003
:10424000F8B5044640F694501F460D461646C0F693
:10425000010000F0E5F82560C4F8F460C4F8FC70D3
:104260002046FFF7D5FF43F60913C0F2B223C4F886
:104270000031F8BDAFF30080AFF30080AFF30080F2
:1042800000F12C02C823FFF7DBBF00BFAFF30080B3
:1042900010B50446D0F8F400FFF79AFD2046BDE8BB
:1042A0001040FFF7B5BF00BFAFF30080AFF3008051
:1042B00040F6A45140F64052C0F60101C0F601029A
:1042C000FFF7DEBEAFF30080AFF30080AFF30080F6
:1042D00070B5044682B00E461546FFF799FF20469A
:1042E000FFF7E6FF40F64053C0F6010341F60C111C
:1042F00000932046C0F6010132462B46FFF7C0FE70
:10430000204602B0BDE87040FFF7C2BFAFF30080A7
:1043100070B50446D0F8F4000C4D0AF021FD0646B5
:10432000FFF736F828460AF01BFD41F2873386195D
:104330009E4204DCD4F8F41028180AF0B1FCFFF710
:1043400047F82046BDE87040FFF762BFA05B002041
:10435000F8B504460F4640F640551646C0F601052E
:10436000FFF756FF20463946FFF762FD20462946F3
:10437000FFF75EFD40F6AC5132462046C0F6010123
:10438000FFF77EFE20462946FFF752FD2046BDE896
:10439000F840FFF7BDBF00BFAFF30080AFF3008070
:1043A00070B5044682B00E461546FFF731FF204631
:1043B000FFF77EFF40F64053C0F6010341F60C11B3
:1043C00000932046C0F6010132462B46FFF758FE07
:1043D000204602B0BDE87040FFF79ABFAFF30080FF
:1043E00038B50A4C0A4DFEF7D3FF294620460AF09D
:1043F00057FC00232B70FEF7EBFF207800B938BD87
:104400002046BDE83840FFF7E3BC00BF1448002059
:10441000A05B0020AFF30080AFF30080AFF300801B
:104420000FB400B583B0FFF7E3F820B903B05DF82F
:1044300004EB04B0704705AA024804990192FEF704
:1044400017F8F3E7C03D0020AFF30080AFF3008022
:1044500070B50446012504E014F8013B2D2B0DD165
:104460006D4220460AF07CFC22460028F4D144F23A
:104470003012C0F2AB0202FB05F070BD002834DD43
:10448000303BD9B2092929D810180138811A0024E3
:10449000C90717D512F8011F1C46A1F13003D9B284
:1044A00009290FD91AE011F8014F303C0A46E1B250
:1044B000092904EB460411D812F8013F303BD9B268
:1044C00009290BD804EB840403EB44038242114610
:1044D00003EB8306E7D103FB05F070BD4BF6D0601C
:1044E000CFF6547000FB05F070BD002070BD00BF1A
:1044F00070B50D4606460AF033FC044628460AF01D
:104500002FFC844201D0002070BD002C25DD3278C4
:104510002B789A42F7D10022E0073346294617D478
:1045200013F8015F11F8010F01228542EBD101322E
:10453000944202F1010210D013F8015F11F8010F4B
:104540008542E0D113F8015F11F8010F8542DAD1FD
:104550000132944202F10102EED1012070BD00BF90
:1045600070B50C4E0C483168FFF75AFF3368002BCA
:104570000FDD0A4D002404EB440105EB81020848DD
:1045800055F821105268FFF74BFF30680134A04204
:10459000F1DC70BD948A0020B00D0108648C00200D
:1045A000C80D0108AFF30080AFF30080AFF30080C7
:1045B000014640F6E050C0F60100FFF731BF00BFF2
:1045C000F0B40B4C2368202B0BD00A4F03EB4306AF
:1045D000B600BD190133B85123606960AA60F0BC10
:1045E0007047054805491722F0BCFEF7F1BD00BF32
:1045F000948A0020648C0020F00D01080C0E010844
:104600000A460021FFF7DCBFAFF30080AFF3008064
:104610000A460121FFF7D4BFAFF30080AFF300805B
:104620000A460421FFF7CCBFAFF30080AFF3008050
:1046300008B540F62C6044F26151C0F60100C0F6A6
:104640000001FFF7DDFF40F6346044F2B151C0F6DF
:104650000100C0F60001BDE80840FFF7D9BF00BF68
:10466000F8B54368032B06460D4671D0042B084667
:104670000CD0022B43D0FFF7EBFE4BF6D061CFF608
:104680005471884235D0B2689047F8BD0AF068FB93
:104690000028FADD2C78202C00F099806C1C002278
:1046A000C3071FD42178012220292346144419D19D
:1046B000511CEAD0571C002018702846FFF7C8FE8E
:1046C0000446E819FFF7C4FEB36801462046984740
:1046D000F8BD1C78202CEBD00B46097801325C1C0D
:1046E0002029E5D001329042234604F10101F0D1A6
:1046F000F8BD3B482946BDE8F840FFF791BE0AF0F7
:104700002FFB00281CDD2B782E2B66D0691C002285
:10471000C3070FD40C7801222E2C0B46114409D16B
:104720001AE01C782E2C17D00C780B460132013180
:104730002E2C11D0013290420B4601F10101F0D133
:104740002846FFF785FE06EE100AF8EEC62A39E085
:10475000826808469047F8BD511CF1D0571C0020D4
:1047600018702846FFF774FEEF19054638460AF020
:10477000F7FA04463846FFF76BFE002C2ADD0121CC
:10478000631EF2EE047A8C4203F00102B0EE677A07
:104790000CD022B102218C4227EEA77A06D027EE58
:1047A000270A02318C4220EE277AF8D100EE900AD7
:1047B000F8EEE06A01EE105A86EE872AF8EEC11A8A
:1047C00071EE822AB36812EE900A9847F8BD2B4624
:1047D000012770E7B7EE007AE8E72B460127BEE72E
:1047E0003C0E0108AFF30080AFF30080AFF3008010
:1047F00008B5FFF7DDFB48F6603040F65461C2F2C1
:104800000000C0F60101BDE80840FFF739BD00BF58
:104810002DE9F04F014681B0054604227C480AF09C
:10482000CFFA002800F09180002D00F0EB80794B4A
:10483000794C0FCB07C42046294600F8013B0AF00B
:10484000DFF9764A118801802C7854B1202C4FF082
:10485000000402D105E0202803D00134285D00289F
:10486000F9D128460AF07CFAA04282466C4B48D027
:10487000D3F80090002291452A552C4455DD694F0C
:1048800009F1FF332846396803F00108BB46FFF7FA
:104890002FFE50BB01264E4547D0B8F1000F14D073
:1048A000BB4628465BF80C1FFFF722FEE8B902263C
:1048B0004E450AD139E0284657F8281007EB880BF7
:1048C000FFF716FE88B94E452FD006EB4602284664
:1048D00057F8221007EB820BFFF70AFE06F10108DA
:1048E00008EB480802360028E5D05846611CFFF75F
:1048F000B7FE4D484849524601B0BDE8F04FFFF7BA
:104900004FBDD3F80080B8F1000F0EDD454E08F121
:10491000FF372846316807F00107B146FFF7E8FD89
:10492000002864D1012444453CD100223E483F493F
:10493000FFF736FD3C4838494FF0FF32FFF730FDB6
:1049400001B0BDE8F04FFFF70BBE394829462C1DDA
:10495000FFF766FD36482146FFF762FD2B79212BD4
:1049600053D0002B47D0681D01E0002A43D00546F4
:1049700010F8012B212AF8D1002105F8011B20464F
:10498000FFF766FD044628460AF0EAF9844202462B
:104990003FF44DAF274821462B4601B0BDE8F04F0C
:1049A000FFF73EBDA7B1B146284659F80C1FFFF7E7
:1049B0009FFDE0B9022444450AD1B6E7284656F8DF
:1049C000271006EB8709FFF793FD80B94445ACD06B
:1049D00004EB4403284656F8231006EB8309FFF73F
:1049E00087FD671C07EB470702340028E6D0D9F89B
:1049F000081088477DE71048214601B0BDE8F04F18
:104A0000FFF70EBD01B0BDE8F08F2546B4E700BF4B
:104A1000640E0108CC0E0108988A0020740C01086D
:104A2000948A0020648C0020608B0020DC0E01083A
:104A30006C0E0108980E01087C0E0108AFF300808F
:104A400070B405464CF6CD4005F10B0605F10A049D
:104A5000CCF6CC40A0FB0123DB0803EB8302A1EBE7
:104A600042013031CAB21946234604F8012900290F
:104A7000F0D1F01A19462818EB43C318DB070AD502
:104A800005F8012B11F8012F05E011F8012F6A70CC
:104A900011F8012F5D1C2B4603F8012B8342F4D142
:104AA00070BC7047AFF30080AFF30080AFF30080BD
:104AB00008B50B1E04DBFFF7C3FF0021017008BD22
:104AC0002D22594200F8012BFFF7BAFF0023037093
:104AD00008BD00BFAFF30080AFF30080AFF30080EC
:104AE00042F21453C2F2000318680028D4BF002019
:104AF00001207047AFF30080AFF30080AFF3008078
:104B00002DE9F041194C984625680F460446164693
:104B1000202383F31188002D13DDFCF7D9FBE06817
:104B200010B12046FCF77CFC43462046394632460D
:104B3000FCF746FCFCF7ACFB002383F31188BDE8CF
:104B4000F081FCF7FDFBE36813B12046FCF768FC3D
:104B50004346204639463246FCF732FCFCF7D0FB90
:104B6000002383F31188BDE8F08100BF14250020E5
:104B700008B506F055F843F2E030C0F6010006F043
:104B8000EFFD00F02DF800F0A3F800F0C9F800F0F8
:104B90007FF900F0FDF900F08BFC00F099FC00F0CB
:104BA0003FFBBDE8084008F08BBA00BFAFF30080C0
:104BB0004FF48053CEF2000319465A68801882429F
:104BC0004B6802D29A4202D970479A42F7D998426A
:104BD00094BF00230123002BF1D17047AFF3008075
:104BE00006F0E6B8AFF30080AFF30080AFF30080CB
:104BF00000230122027043608360C360036143614C
:104C00001830FCF7F5BF00BFAFF30080AFF30080B2
:104C100038B504460D46C8B1202383F31188FCF74C
:104C20008FFB2378581E012804D90B480B497522A5
:104C3000FCF78EFA2046656006F0EAF80221217042
:104C4000FCF75EFB002383F3118838BD0448034959
:104C50007122FCF77DFADFE71C0F0108000F010845
:104C6000F00E0108AFF30080AFF30080AFF30080D7
:104C7000F8B504460E4617461D46FCF7B1FADCB1FE
:104C8000D6B1CFB1012D01D0EB0715D42078022881
:104C900008D0042806D0052804D00A480A49C722AB
:104CA000FCF756FA03232046A760E56026612370CF
:104CB000BDE8F84006F014B904480349C322FCF7E4
:104CC00047FAE3E7600F0108000F0108480F0108E9
:104CD00006F026BDAFF30080AFF30080AFF3008095
:104CE00038B50446002501232946237000F1080049
:104CF0006560FCF7D5FE294604F11400FCF7D0FEF0
:104D000004F1200504F1240004F1280104F12C022F
:104D100004F1300325626062A162E262236338BD60
:104D200007F08EBDAFF30080AFF30080AFF30080DB
:104D30000123002103704160704700BFAFF3008082
:104D400038B504460D46D0B1C9B1202383F311888C
:104D5000FCF7F6FA2378581E012804D90B480C49B1
:104D60006422FCF7F5F92046656007F099FD022101
:104D70002170FCF7C5FA002383F3118838BD05487C
:104D800003496022FCF7E4F9DFE700BF4C1001089B
:104D90003010010820100108AFF30080AFF300804D
:104DA00010B50446C0B1202383F31188FCF7C8FA7C
:104DB0002378581E012804D90A480B497822FCF7A9
:104DC000C7F9204607F034FE01212170FCF798FA5C
:104DD000002383F3118810BD044803497422FCF7B3
:104DE000B7F9E0E768100108301001085C1001080D
:104DF00010B50446B8B1202383F31188FCF7A0FA5C
:104E00002378022B04D00B480B498A22FCF7A0F927
:104E1000204607F065FE03202070FCF771FA00239E
:104E200083F3118810BD054803498722FCF790F9E8
:104E3000E1E700BF88100108301001087810010870
:104E400010B50446C0B1202383F31188FCF778FA2B
:104E50002378981E032804D90A480B499E22FCF7A0
:104E600077F9204607F064FE02212170FCF748FA2A
:104E7000002383F3118810BD044803499922FCF7ED
:104E800067F9E0E7A8100108301001089810010840
:104E900007F0B6BEAFF30080AFF30080AFF3008041
:104EA0000123002103704160704700BFAFF3008011
:104EB00038B504460D46E0B1D9B1202383F31188FB
:104EC000FCF73EFA2378581E012804D90C480D49F6
:104ED0006922FCF73DF9A98865602046218107F029
:104EE000AFFE02222270FCF70BFA002383F3118835
:104EF00038BD054803496522FCF72AF9DDE700BF04
:104F0000EC100108D0100108C0100108AFF30080B8
:104F10000C30FDF75DB800BFAFF30080AFF3008049
:104F20000C304FF0FF33FDF753B800BFAFF30080F4
:104F30003030FDF72DB900BFAFF30080AFF3008034
:104F400030304FF0FF33FDF723B900BFAFF30080DF
:104F50000C30FDF70DB800BFAFF30080AFF3008059
:104F60000C304FF0FF31FDF703B800BFAFF3008006
:104F70003030FDF7ADB800BFAFF30080AFF3008075
:104F800030304FF0FF32FDF7A3B800BFAFF3008021
:104F900007F0FEBFAFF30080AFF30080AFF30080F7
:104FA00070B541F210230546C0F60103044645F8EA
:104FB000043B82B0656001250B46164604F154019E
:104FC0001022257200F10C000094FCF779FF009488
:104FD00004F1300004F1640110223346FDF748F873
:104FE00002B070BDAFF30080AFF30080AFF300807C
:104FF00038B504460D46C8B1202383F31188FCF769
:105000009FF9237A581E012804D90B480B49A62280
:10501000FCF79EF82046294607F0E2FF02212172A4
:10502000FCF76EF9002383F3118838BD0448034967
:10503000A122FCF78DF8DFE7B81101089C110108E7
:1050400090110108AFF30080AFF30080AFF3008050
:1050500038B504460D46FCF7C3F8D4B163693BB1DB
:1050600004F10C002946FCF753FF00280BDB38BD88
:10507000201D0421FCF7ECFE04F10C002946FCF78E
:1050800047FF0028F3DA201D8021BDE83840FCF7F7
:10509000DFBE03480349D822FCF75AF8DEE700BF19
:1050A000E41101089C110108AFF30080AFF3008008
:1050B00070B5046AD4F854321A681178042900D003
:1050C00070BD207A0228FBD115891B7945FA03F2BD
:1050D00012F00105F4D1266CE16BA06B731A1E1A55
:1050E000EED0FCF70DF92B4683F31188D4F8542247
:1050F00033461068117904F1300200F0B1FA202330
:1051000083F31188FCF71CF9D4F854120868097964
:10511000BDE8704000F0DCBAAFF30080AFF3008070
:10512000F8B5046AD4F8542213681978042900D019
:10513000F8BD207A0228FBD155795F8903EB8503FE
:1051400047FA05F2D96812F001074D8AF0D1E669F5
:10515000A0696369321AD61AB542E9D8FCF7D0F8CB
:105160003B4683F31188D4F85412B6FBF5F305FBE4
:1051700003F30868497904F10C0200F061FA202376
:1051800083F31188FCF7DCF8D4F8543218685979A5
:10519000BDE8F84000F074BAAFF30080AFF30080D0
:1051A0000C30FCF715BF00BFAFF30080AFF30080F9
:1051B0000C304FF0FF33FCF70BBF00BFAFF30080A4
:1051C0003030FCF7E5BF00BFAFF30080AFF30080E5
:1051D00030304FF0FF33FCF7DBBF00BFAFF3008090
:1051E0000C30FCF7C5BE00BFAFF30080AFF300800A
:1051F0000C304FF0FF31FCF7BBBE00BFAFF30080B7
:105200003030FCF765BF00BFAFF30080AFF3008024
:1052100030304FF0FF32FCF75BBF00BFAFF30080D0
:10522000704700BFAFF30080AFF30080AFF30080A2
:1052300030B541F280230546C0F60103044645F827
:10524000043B83B0656045F22113012504F154014C
:10525000257200F10C004FF48072C0F60003009438
:10526000FCF72EFE45F2B103009404F1300004F582
:10527000AA714FF48072C0F60003FCF7F9FE03B088
:1052800030BD00BFAFF30080AFF30080AFF300800C
:1052900070B50D4604460E6818B3202383F31188B9
:1052A000FCF74EF8237A581E012804D910481149FA
:1052B000DF22FBF74DFF297906EB81020221946181
:1052C0006B79093346F82340A87906EB8006B46170
:1052D000C4F854522172FCF713F8002383F31188A9
:1052E00070BD05480349DA22FBF732FFD5E700BF5E
:1052F000601201084012010830120108AFF300806B
:1053000070B5D0F8543200F10C06044630461D68E2
:10531000FCF7E6FD04F13000FCF7BAFE201D012188
:10532000FCF796FDD4F85402417905EB810228463A
:10533000D36832465B8A00F083F9D4F85412497975
:105340002846BDE8704000F09BB900BFAFF3008075
:1053500090F8443003F06001202901D0002070470C
:1053600090F84520212A03D0222A09D0202AF5D1FD
:105370000649072200238163C2630364012070474A
:1053800000238363C3630364012070476C00002023
:10539000F8B500EB810306469C690D46CCB120238D
:1053A00083F31188FBF794FF201D0821FCF750FDC3
:1053B000216CE26BA06B8F1A3F1A16D106EB8503A6
:1053C000D9684A69506828B9FBF762FF002383F364
:1053D0001188F8BD0F8A7B1E13EA0007F4D1FBF792
:1053E00057FF3B4683F3118805E0FBF751FF00238D
:1053F00083F311883B463046294604F1300200F021
:105400002FF9202383F31188FBF762FF30462946EA
:1054100000F05EF9D8E700BFAFF30080AFF3008083
:1054200001F109032DE9F04150F823400D460646ED
:10543000CCB1202383F31188FBF74AFF201D042100
:10544000FCF706FD06EB8500E169C768A2696369A0
:105450007F8A881AC3EB0008474506D9FBF718FF77
:10546000002383F31188BDE8F081FBF711FF0023CF
:1054700083F31188B8FBF7F307FB03F330462946A3
:1054800004F10C0200F0DCF8202383F31188FBF711
:105490001FFF3046294600F0F3F8DFE7AFF3008046
:1054A000704700BFAFF30080AFF30080AFF3008020
:1054B00007F0EEB8AFF30080AFF30080AFF30080E9
:1054C000002301220270436083600C30FCF790BB24
:1054D00006F046BEAFF30080AFF30080AFF300806C
:1054E0000023012202704360C36183620362C362CE
:1054F0004362036303814381704700BFAFF30080C1
:1055000070B504460E4600B3F9B1202383F3118829
:10551000FBF716FF2378581E012805D90E480F49BE
:1055200040F21312FBF714FE002520466660E5608A
:1055300025616561A56106F02BFE02212170FBF754
:10554000DFFE2B4683F3118870BD0548034940F206
:105550000F12FBF7FDFDD8E7EC120108D01201088D
:10556000C0120108AFF30080AFF30080AFF30080FA
:10557000F8B504460E461546FBF732FE002C2AD03D
:10558000002D28D02378042B05D01648164940F268
:105590004312FBF7DDFDB71C04EB8700416829B11E
:1055A0001248114940F24512FBF7D2FD686918B163
:1055B0000021102209F08CFAA86918B100211022EC
:1055C00009F086FA04EB8707204631467D60BDE886
:1055D000F84006F0FDBE0648034940F24112FBF7D1
:1055E000B7FDCFE730130108D01201084C130108B2
:1055F00018130108AFF30080AFF30080AFF3008011
:1056000030B400EB81040025E468A4692570E260F1
:105610006360A56030BC06F0C3BF00BFAFF300807D
:1056200030B400EB81040025E46864692570E26011
:105630006360A56030BC06F0CBBF00BFAFF3008055
:1056400030B400EB8104E568AC6901256360002398
:105650002570E260A36030BC06F0A2BFAFF300800B
:1056600030B400EB8104E5686C69012563600023B8
:105670002570E260A36030BC06F0AABFAFF30080E3
:1056800070B504460D46FBF7ABFD9CB1638943FA48
:1056900005F010F0010601D0012070BD012202FAD0
:1056A00005F242EA030161812046294606F0B0FF77
:1056B000304670BD034804494FF4F472FBF748FDCF
:1056C000E4E700BFA0130108D0120108AFF3008087
:1056D00070B504460D46FBF783FD9CB1238943FA60
:1056E00005F010F0010601D0012070BD012202FA80
:1056F00005F242EA030121812046294606F090FF87
:10570000304670BD0348044940F20322FBF720FDF8
:10571000E4E700BFB8130108D0120108AFF300801E
:1057200010B40346002202240470A0F84C2083F831
:105730004E2080F84F2002814281C26002614261A6
:10574000826183F8342010BC06F092BDAFF3008074
:10575000F8B50446002380F8343000F1440206F026
:105760000FFF6068816800292DD02046884750B31C
:10577000E56B94F8443094F84B1094F84A2042EAD0
:105780000120A8423CBF0546E06313F0800F2B4682
:1057900040F08780002D6DD1052184F8341020461B
:1057A00029462A46FFF73CFF202383F31188FBF7A5
:1057B0008FFD29462046FFF78BFFFBF769FD2B463F
:1057C00083F31188F8BD94F8443013F0600711D0CA
:1057D0000021204606F044FF2046002106F038FF55
:1057E00063681A6812B1204605219047062084F8A4
:1057F0003400F8BD94F8456003F07F0242EA0626C3
:10580000B6F5407F00F0068117DDB6F5C06F00F0F9
:10581000968075DDB6F5106F00F0C18040F602424B
:10582000964200F08580B6F5006FD1D1012504F1D4
:105830004F00A063E56327649DE7022E00F0C1805E
:1058400071DDB6F5807F00F09380B6F5817FBFD122
:1058500094F846100029BBD194F8485015F00F0178
:105860005CD02A06204600F1068106F001FF94F87C
:10587000443053E0042284F8342020460021A26BF7
:10588000FFF7BEFE202383F31188FBF721FD0021E3
:105890002046FFF7F5FEFBF7FBFC002383F311889E
:1058A000F8BDB5B1012184F8341020460021A26B67
:1058B000FFF7B6FE202383F31188FBF709FD0021D3
:1058C0002046FFF705FFFBF7E3FC002383F3118875
:1058D000F8BD032084F83400294620462A46FFF705
:1058E0008FFE202383F31188FBF7F2FC2946204624
:1058F000FFF7C6FEFBF7CCFC2B4683F31188F8BDFF
:1059000040F20230864273D0B6F5A06F7FF460AFEC
:10591000B4F84410B1F5A06F00F09B800025A5639A
:10592000E563256427E7002E32D0012E7FF450AFC7
:10593000564902250022A163E56322641BE76068E3
:1059400094F8496094F84830456894F8471094F802
:105950004620204643EA0623A84700283FF438AFF4
:105960004168056894F84430A163E563276402E761
:1059700094F84620012A7FF42BAFB4F84C00A763BB
:1059800020F00201A4F84C10E76327643D46F2E6DC
:10599000022504F14C00A063E5632664EBE694F86D
:1059A000465084F84F50002D44D103212170626885
:1059B0001568002DB2D020460221A84794F8443043
:1059C000ACE794F8483013F0800F204603F00F0145
:1059D00033D106F0B5FD012833D002287FF4F8AEAC
:1059E0002B4DE063A563276494F844300546C2E676
:1059F00094F8461000297FF4EBAE94F8485015F067
:105A00000F018BD02B0620463AD406F021FE94F8E5
:105A1000443083E794F84620012A7FF4D9AEB4F8E5
:105A20004C50A76345F00200A4F84C00E7632764DC
:105A30003D46A0E604202070B9E706F091FD01285C
:105A4000CBD1144AE663A263276494F84430354608
:105A500091E694F84630204684F84E3006F0A8FCD3
:105A600065682A6812B1204601219047032094F806
:105A70004430207052E706F003FE94F844304DE7BE
:105A800006F0EEFD94F8443048E700BFA01201088C
:105A9000B012010800140108AFF30080AFF30080DA
:105AA00038B590F83430022B044624D0052B3AD078
:105AB000012B10D0002106F0D3FD2046002106F076
:105AC000C7FD6068026812B1204605219047062193
:105AD00084F8341038BD90F84B1090F84A30C26BFF
