:020000040800F2
:1000000000040010D1150008D1170008D11700080E
:10001000D1170008D1170008D1170008D117000820
:10002000D1170008D1170008D1170008411800089F
:10003000D1170008D1170008D1170008411900088E
:10004000D1170008D1170008D1170008D1170008F0
:10005000D1170008D1170008D1170008D1170008E0
:10006000D1170008D1170008D117000851D0000897
:1000700091D00008D1D0000811D1000851D100085A
:1000800091D10008D1D1000871DB0008F1E000082F
:1000900011E1000831E1000851E10008D117000822
:1000A00011F6000891F50008D1170008B1F5000815
:1000B000D1F50008F1F50008B1F90008D1170008E2
:1000C000D1170008D1170008D1170008D117000870
:1000D000D117000861FD000881FD0008A1FD00089E
:1000E000D1170008D1170008D1170008D117000850
:1000F000D1170008D1170008D117000811D2000845
:10010000D1170008D1170008D1F90008D11700084D
:10011000D1170008D1170008D1170008D11700081F
:1001200051D2000891D20008D1D2000811D30008A2
:1001300051D30008D1170008D117000871E1000859
:1001400091E10008B1E10008D1E1000821EB0008CD
:1001500091D30008D1D3000811D40008D1170008AA
:10016000D1170008D1170008D1170008D1170008CF
:10017000D1170008D1170008D1170008D1170008BF
:08018000D1170008D117000897
:1001900008B505F065FF01F07BFC12F0F9F90020CD
:1001A00008BD00BFAFF30080AFF30080AFF3008065
:1001B00081F0004102E000BF83F0004330B54FEA18
:1001C00041044FEA430594EA050F08BF90EA020F85
:1001D0001FBF54EA000C55EA020C7FEA645C7FEA18
:1001E000655C00F0E2804FEA5454D4EB5555B8BF3B
:1001F0006D420CDD2C4480EA020281EA030382EAAC
:10020000000083EA010180EA020281EA0303362D3D
:1002100088BF30BD11F0004F4FEA01314FF4801C10
:100220004CEA113102D0404261EB410113F0004F22
:100230004FEA03334CEA133302D0524263EB4303D9
:1002400094EA050F00F0A780A4F10104D5F1200E77
:100250000DDB02FA0EFC22FA05F2801841F10001D2
:1002600003FA0EF2801843FA05F359410EE0A5F1A6
:1002700020050EF1200E012A03FA0EFC28BF4CF0D7
:10028000020C43FA05F3C01851EBE37101F000458D
:1002900007D54FF0000EDCF1000C7EEB00006EEB9A
:1002A0000101B1F5801F1BD3B1F5001F0CD3490824
:1002B0005FEA30004FEA3C0C04F101044FEA44527B
:1002C00012F5800F80F09A80BCF1004F08BF5FEA02
:1002D000500C50F1000041EB045141EA050130BDE2
:1002E0005FEA4C0C404141EB010111F4801FA4F185
:1002F0000104E9D191F0000F04BF01460020B1FADA
:1003000081F308BF2033A3F10B03B3F120020CDA11
:100310000C3208DD02F1140CC2F10C0201FA0CF0EF
:1003200021FA02F10CE002F11402D8BFC2F1200C54
:1003300001FA02F120FA0CFCDCBF41EA0C0190400A
:10034000E41AA2BF01EB0451294330BD6FEA040453
:100350001F3C1CDA0C340EDC04F11404C4F120023E
:1003600020FA04F001FA02F340EA030021FA04F350
:1003700045EA030130BDC4F10C04C4F1200220FAA7
:1003800002F001FA04F340EA0300294630BD21FAE5
:1003900004F0294630BD94F0000F83F4801306BFAB
:1003A00081F480110134013D4EE77FEA645C18BF9F
:1003B0007FEA655C29D094EA050F08BF90EA020F36
:1003C00005D054EA000C04BF1946104630BD91EA2E
:1003D000030F1EBF0021002030BD5FEA545C05D131
:1003E0004000494128BF41F0004130BD14F5800470
:1003F0003CBF01F5801130BD01F0004545F0FE41E4
:1004000041F470014FF0000030BD7FEA645C1ABF18
:10041000194610467FEA655C1CBF0B46024650EA4F
:10042000013406BF52EA033591EA030F41F400217B
:1004300030BD00BF90F0000F04BF0021704730B501
:100440004FF4806404F132044FF000054FF00001D6
:1004500050E700BF90F0000F04BF0021704730B597
:100460004FF4806404F1320410F0004548BF40426C
:100470004FF000013EE700BF42004FEAE2014FEAC1
:1004800031014FEA02701FBF12F07F4393F07F4F9C
:1004900081F06051704792F0000F14BF93F07F4FCE
:1004A000704730B54FF4607401F0004521F0004111
:1004B00020E700BF50EA010208BF704730B54FF097
:1004C00000050AE050EA010208BF704730B511F09C
:1004D000004502D5404261EB41014FF4806404F1D4
:1004E00032045FEA915C3FF4DCAE4FF003025FEA56
:1004F000DC0C18BF03325FEADC0C18BF033202EBDE
:10050000DC02C2F1200300FA03FC20FA02F001FA37
:1005100003FE40EA0E0021FA02F11444C1E600BFD6
:1005200070B54FF0FF0C4CF4E06C1CEA11541DBF89
:100530001CEA135594EA0C0F95EA0C0F00F0DEF854
:100540002C4481EA030621EA4C5123EA4C5350EA39
:10055000013518BF52EA033541F4801143F480138A
:1005600038D0A0FB02CE4FF00005E1FB02E506F01B
:100570000042E0FB03E54FF00006E1FB03569CF070
:10058000000F18BF4EF0010EA4F1FF04B6F5007F76
:1005900064F5407404D25FEA4E0E6D4146EB0606E8
:1005A00042EAC62141EA55514FEAC52040EA5E5071
:1005B0004FEACE2EB4F1FD0C88BFBCF5E06F1ED81B
:1005C000BEF1004F08BF5FEA500E50F1000041EB52
:1005D000045170BD06F0004646EA010140EA0200FF
:1005E00081EA0301B4EB5C04C2BFD4EB0C0541EA21
:1005F000045170BD41F480114FF0000E013C00F336
:10060000AB8014F1360FDEBF002001F0004170BD59
:10061000C4F10004203C35DA0C341BDC04F1140472
:10062000C4F1200500FA05F320FA04F001FA05F2FE
:1006300040EA020001F0004221F0004110EBD370CB
:1006400021FA04F642EB06015EEA430E08BF20EAF7
:10065000D37070BDC4F10C04C4F1200500FA04F39A
:1006600020FA05F001FA04F240EA020001F000412C
:1006700010EBD37041F100015EEA430E08BF20EA9F
:10068000D37070BDC4F1200500FA05F24EEA020EE7
:1006900020FA04F301FA05F243EA020321FA04F016
:1006A00001F0004121FA04F220EA020000EBD370CD
:1006B0005EEA430E08BF20EAD37070BD94F0000FCD
:1006C0000FD101F00046400041EB010111F4801F01
:1006D00008BF013CF7D041EA060195F0000F18BFB2
:1006E000704703F00046520043EB030313F4801FEE
:1006F00008BF013DF7D043EA0603704794EA0C0FA8
:100700000CEA135518BF95EA0C0F0CD050EA4106BD
:1007100018BF52EA4306D1D181EA030101F000413A
:100720004FF0000070BD50EA410606BF1046194662
:1007300052EA430619D094EA0C0F02D150EA01366E
:1007400013D195EA0C0F05D152EA03361CBF1046AF
:1007500019460AD181EA030101F0004141F0FE414E
:1007600041F470014FF0000070BD41F0FE4141F4D2
:10077000780170BD70B54FF0FF0C4CF4E06C1CEAD2
:1007800011541DBF1CEA135594EA0C0F95EA0C0F87
:1007900000F0A7F8A4EB050481EA030E52EA033542
:1007A0004FEA013100F088804FEA03334FF0805563
:1007B00045EA131343EA12634FEA022245EA111590
:1007C00045EA10654FEA00260EF000419D4208BF41
:1007D000964244F1FD0404F5407402D25B084FEAEE
:1007E0003202B61A65EB03055B084FEA32024FF49A
:1007F00080104FF4002CB6EB020E75EB030E22BFF7
:10080000B61A754640EA0C005B084FEA3202B6EBB6
:10081000020E75EB030E22BFB61A754640EA5C0065
:100820005B084FEA3202B6EB020E75EB030E22BFF5
:10083000B61A754640EA9C005B084FEA3202B6EBF6
:10084000020E75EB030E22BFB61A754640EADC00B5
:1008500055EA060E18D04FEA051545EA16754FEA17
:1008600006164FEAC30343EA52734FEAC2025FEA35
:100870001C1CC0D111F4801F0BD141EA00014FF0C4
:1008800000004FF0004CB6E711F4801F04BF014395
:100890000020B4F1FD0C88BFBCF5E06F3FF6AFAEB1
:1008A000B5EB030C04BFB6EB020C5FEA500C50F141
:1008B000000041EB045170BD0EF0004E4EEA1131C4
:1008C00014EB5C04C2BFD4EB0C0541EA045170BDCB
:1008D00041F480114FF0000E013C90E645EA060E0F
:1008E0008DE60CEA135594EA0C0F08BF95EA0C0F3D
:1008F0003FF43BAF94EA0C0F0AD150EA01347FF485
:1009000034AF95EA0C0F7FF425AF104619462CE75B
:1009100095EA0C0F06D152EA03353FF4FDAE1046BE
:10092000194622E750EA410618BF52EA43067FF40F
:10093000C5AE50EA41047FF40DAF52EA43057FF49F
:10094000EBAE12E700000000000000000000000015
:100950004FF0FF3C06E000BF4FF0010C02E000BF8B
:100960004FF0010C4DF804CD4FEA410C7FEA6C5C6E
:100970004FEA430C18BF7FEA6C5C1BD001B050EA11
:10098000410C0CBF52EA430C91EA030F02BF90EAFC
:10099000020F0020704710F1000F91EA030F58BFBB
:1009A000994208BF90422CBFD8176FEAE37040F01D
:1009B000010070474FEA410C7FEA6C5C02D150EABB
:1009C000013C07D14FEA430C7FEA6C5CD6D152EA76
:1009D000033CD3D05DF8040B704700BF844610463B
:1009E00062468C461946634600E000BF01B5FFF73A
:1009F000B7FF002848BF10F1000F01BD4DF808ED0A
:100A0000FFF7F4FF0CBF012000205DF808FB00BFDA
:100A10004DF808EDFFF7EAFF34BF012000205DF834
:100A200008FB00BF4DF808EDFFF7E0FF94BF012081
:100A300000205DF808FB00BF4DF808EDFFF7CEFF82
:100A400094BF012000205DF808FB00BF4DF808EDC1
:100A5000FFF7C4FF34BF012000205DF808FB00BF92
:100A60004FEA410212F5001215D211D56FF47873D6
:100A7000B3EB625212D94FEAC12343F0004343EA79
:100A8000505311F0004F23FA02F018BF4042704754
:100A90004FF00000704750EA013005D111F00040DE
:100AA00008BF6FF0004070474FF00000704700BF74
:100AB0004FEA4102B2F1E04324BFB3F5001CDCF180
:100AC000FE5C0DD901F0004C4FEAC0024CEA5070B8
:100AD000B2F1004F40EB830008BF20F001007047E7
:100AE00011F0804F21D113F13872BCBF01F00040EA
:100AF000704741F480114FEA5252C2F11802C2F11C
:100B0000200C10FA0CF320FA02F018BF40F001009C
:100B10004FEAC1234FEAD32303FA0CFC40EA0C004E
:100B200023FA02F34FEA4303CCE77FEA625307D18B
:100B300050EA01331EBF4FF0FE4040F440007047C2
:100B400001F0004040F0FE4040F40000704700BF5C
:100B500080F0004002E000BF81F0004142001FBF72
:100B60005FEA410392EA030F7FEA226C7FEA236C7B
:100B70006AD04FEA1262D2EB1363C1BFD218414070
:100B800048404140B8BF5B42192B88BF704710F006
:100B9000004F40F4000020F07F4018BF404211F0A9
:100BA000004F41F4000121F07F4118BF494292EA11
:100BB000030F3FD0A2F1010241FA03FC10EB0C003D
:100BC000C3F1200301FA03F100F0004302D54942CA
:100BD00060EB4000B0F5000F13D3B0F1807F06D377
:100BE00040084FEA310102F10102FE2A51D2B1F16F
:100BF000004F40EBC25008BF20F0010040EA030064
:100C00007047490040EB000010F4000FA2F1010210
:100C1000EDD1B0FA80FCACF1080CB2EB0C0200FA9A
:100C20000CF0AABF00EBC25052421843BCBFD040E8
:100C30001843704792F0000F81F4000106BF80F462
:100C400000000132013BB5E74FEA41037FEA226C25
:100C500018BF7FEA236C21D092EA030F04D092F0F0
:100C6000000F08BF0846704790EA010F1CBF002024
:100C7000704712F07F4F04D1400028BF40F0004081
:100C8000704712F100723CBF00F50000704700F0A1
:100C9000004343F0FE4040F4000070477FEA2262C8
:100CA00016BF08467FEA23630146420206BF5FEA99
:100CB000412390EA010F40F4800070474FF0000399
:100CC00004E000BF10F0004348BF40425FEA000C60
:100CD00008BF704743F0964301464FF000001CE008
:100CE00050EA010208BF70474FF000030AE000BF5E
:100CF00050EA010208BF704711F0004302D540429C
:100D000061EB41015FEA010C02BF8446014600200D
:100D100043F0B64308BFA3F18053A3F50003BCFA28
:100D20008CF2083AA3EBC25310DB01FA02FC6344D5
:100D300000FA02FCC2F12002BCF1004F20FA02F2DC
:100D400043EB020008BF20F00100704702F12002CF
:100D500001FA02FCC2F1200250EA4C0021FA02F230
:100D600043EB020008BF20EADC707047000000007F
:100D700073B96AB9002908BF0028BCBF00204FF032
:100D80000041C4BF6FF000414FF0FF3000F0C8B821
:100D900082B0EC462DE9005000F092F8DDF804E056
:100DA00002B00CBC704700BF000000000000000053
:100DB00010B50021044600F029F920B92046BDE80D
:100DC000104000F02DB804F1004000F029F8424234
:100DD00061EB41031046194610BD00BF0000000042
:100DE00038B50022002305460C46FFF711FE28B94E
:100DF00028462146BDE8384000F03AB8284604F1BC
:100E0000004100F035F8424261EB410310461946BB
:100E100038BD00BF0000000000000000000000001E
:100E200070B5FFF729FB00230022C3F6F0530446F8
:100E30000D46FFF775FB00F07BF80646FFF7FAFA60
:100E400000230022C4F2F013FFF76AFB02460B46B0
:100E500020462946FFF7B0F900F06AF80022024365
:100E60001046314670BD00BF0000000000000000C9
:100E7000002370B50022C3F6F05304460D46FFF779
:100E80004FFB00F055F80646FFF7D4FA0023002286
:100E9000C4F2F013FFF744FB02460B4620462946F6
:100EA000FFF78AF900F044F8002202431046314669
:100EB00070BD00BF00000000000000000000000046
:100EC000F8B5164604460D461F4600F0C9F806FB65
:100ED00001F300FB0737A6FB0023FB18A21A65EB02
:100EE0000303069CC4E90023F8BD00BFF8B516460D
:100EF00004460D461F4600F013FA00FB07F7A0FB5F
:100F0000062306FB0177FB18A21A65EB0303069C78
:100F1000C4E90023F8BD00BF00000000000000008D
:100F2000704700BF0000000000000000000000004B
:100F30004A0011D212F5001211D20DD56FF4787358
:100F4000B3EB62520ED44FEAC12343F0004343EAAD
:100F5000505323FA02F070474FF00000704750EAF8
:100F6000013002D14FF0FF3070474FF00000704762
:100F70004FF0FF3C06E000BF4FF0010C02E000BF65
:100F80004FF0010C4DF804CD4FEA40024FEA410307
:100F90007FEA226C18BF7FEA236C11D001B052EABD
:100FA000530C18BF90EA010F58BFB2EB030088BF83
:100FB000C81738BF6FEAE17018BF40F001007047F2
:100FC0007FEA226C02D15FEA402C05D17FEA236CD4
:100FD000E4D15FEA412CE1D05DF8040B704700BF1B
:100FE000844608466146FFE70FB5FFF7C9FF0028B2
:100FF00048BF10F1000F0FBD4DF808EDFFF7F4FFEB
:101000000CBF012000205DF808FB00BF4DF808ED83
:10101000FFF7EAFF34BF012000205DF808FB00BFA6
:101020004DF808EDFFF7E0FF94BF012000205DF8C8
:1010300008FB00BF4DF808EDFFF7D2FF94BF012079
:1010400000205DF808FB00BF4DF808EDFFF7C8FF72
:1010500034BF012000205DF808FB00BF0000000045
:1010600000292DE9F00F1D46C0F29D800024002DBF
:10107000C0F2948080460F4694461E46E3BB8A42E7
:1010800055D9B2FA82F747B1C7F1200520FA05F623
:1010900001FA07F1BA403143B840170CB1FBF7F63B
:1010A000030C1FFA82FC07FB16110CFB06F543EA42
:1010B00001439D4208D9711E9B1880F013819D4207
:1010C00040F21081023E9B18591BB1FBF7F507FB5C
:1010D000151380B20CFB05FC40EA03418C4507D98F
:1010E0006B1E8A1880F00081944540F2FD80023D1D
:1010F00045EA0641002503E08B420CD9002529462C
:101100000A462B4614B1524263EB4303104619467C
:10111000BDE8F00F7047B3FA83F5002D40F08780EB
:101120008B4201D38242EAD800250121E8E712B9B7
:101130000126B6FBF2F2B2FA82F6002E39D18E1AEF
:10114000130C1FFA82FC0125B6FBF3F703FB1761B2
:101150004FEA10490CFB07F849EA0146B04506D9A9
:10116000791EB61802D2B04500F2D3800F46C8EB04
:101170000606B6FBF3F103FB116380B20CFB01FC26
:1011800040EA03439C4506D94E1E9A1802D2944564
:1011900000F2C280314641EA0741B1E7E4435242DE
:1011A00063EB430366E7404261EB41014FF0FF34DC
:1011B0005DE7B240C6F1200921FA09F720FA09F5E6
:1011C000130C01FA06F1B7FBF3F845EA01091FFA1F
:1011D00082FC03FB18774FEA19410CFB08F541EA42
:1011E0000747B040BD420AD9BF1808F1FF3680F06A
:1011F0008E80BD4240F28B80A8F10208BF18791B97
:10120000B1FBF3F503FB15171FFA89F90CFB05F683
:1012100049EA07418E4206D96F1E891871D28E4263
:101220006FD9023D89188E1B45EA08458CE7C5F148
:10123000200122FA01F306FA05F61E4327FA01F20D
:101240004FEA164907FA05F720FA01F1B2FBF9F85F
:101250000F433B0C1FFA86FA09FB18220AFB08FB16
:1012600043EA024293450CFA05FC08D9921908F1A9
:10127000FF314AD2934548D9A8F102089219CBEB25
:101280000203B3FBF9F109FB1132BFB20AFB01FA09
:1012900047EA02439A4506D94A1E9B1933D29A451A
:1012A00031D902399B1941EA08410F0C1FFA8CF819
:1012B00008FB07F68AB24FEA1C4C08FB02F80CFB4D
:1012C000026202EB18420CFB07FC964288BF0CF549
:1012D000803CCAEB03030CEB124C63450ED305D0E4
:1012E00000250DE70E46EFE61D4601E71FFA88F8D8
:1012F00000FA05F008EB0245A842F1D201390025B9
:10130000FEE63D468FE71146CDE78846B7E7B04693
:1013100075E7023FB6182AE702393CE700000000F3
:101320002DE9F007144605460E46002B3DD18A42B2
:1013300049D9B2FA82F747B1C7F1200120FA01F288
:1013400006FA07F6BC401643BD40220CB6FBF2F08D
:101350002F0CA1B202FB106601FB00F347EA064620
:10136000B34208D9471E361980F0F880B34240F2E4
:10137000F58002383619F61AB6FBF2F302FB136257
:10138000ADB201FB03F145EA0242914207D95E1E6C
:10139000121980F0E580914240F2E280023B43EA7C
:1013A00000400021BDE8F00770478B4243D8B3FAF4
:1013B00083F4002C42D18B4202D3824200F2DF80C0
:1013C00000210120EEE712B90127B7FBF2F4B4FACD
:1013D00084F2002A40F088800A1B230CA7B2012166
:1013E000B2FBF3F603FB16224FEA154C07FB06F09F
:1013F0004CEA0242904207D9121906F1FF3C02D290
:10140000904200F2CE806646121AB2FBF3F003FB64
:101410001023ADB207FB00F745EA03439F4207D90B
:10142000421E1B1980F09E809F4240F29B80023832
:1014300040EA0640B6E700210846B3E7C4F12006BB
:1014400022FA06F503FA04F32B434FEA134C21FA70
:1014500006F501FA04F120FA06F6B5FBFCF746EAB8
:10146000010A1FFA83F80CFB17554FEA1A4108FBD3
:1014700007F941EA0545A94502FA04F203D97E1E9F
:10148000ED187FD33746C9EB0501B1FBFCF60CFB29
:1014900016151FFA8AFA08FB06F84AEA054188453C
:1014A00003D9751EC91873D32E4646EA0746370C72
:1014B0001FFA82FC0CFB07F5120CB3B20CFB03FC09
:1014C00002FB035303EB1C4302FB07F29D4288BF60
:1014D00002F58032C8EB010102EB134291424BD37B
:1014E00042D0304600215DE79440C2F1200521FA48
:1014F00005F6230C20FA05F701FA02F1B6FBF3FC1E
:1015000039430D0CA7B203FB1C6645EA064607FBF0
:101510000CF8B04500FA02F508D936190CF1FF3085
:101520003DD2B0453BD9ACF1020C3619C8EB0602EE
:10153000B2FBF3F003FB10268AB242EA064207FB35
:1015400000F1914206D9461E121926D2914224D9A1
:1015500002381219521A40EA0C4141E738460AE7AC
:1015600033461CE7104663E71FFA8CFC00FA04F0D0
:101570000CEB03439842B4D2701E002112E72146BF
:1015800020460FE7A9457FF67DAF023FED187AE7C9
:10159000884589D9023EC91887E73046DAE784468C
:1015A000C4E7023E12192FE700000000000000000F
:1015B000704700BFAFF30080AFF30080AFF300804F
:1015C000FEE700BFAFF30080AFF30080AFF3008011
:1015D00072B6704C84F309884EF63472CEF2000273
:1015E0004EF68853CEF200034FF040411160186868
:1015F00040F470051D600022E1EE102A4EF63C73A7
:10160000CEF2000306211A6081F31488BFF36F8FB6
:101610006148624DA84218D2EA1C051D531B23F0F5
:101620000302034610184FF0553183421960C2F38C
:1016300080020AD01AB185422B46296005D01D1DB3
:101640005960083383426960F9D15548A04218D2E5
:101650005449041D0A1B22F00305034628184FF0C5
:10166000553183421960C5F380020AD01AB1844211
:101670002346216005D01D1D5960083383426960EF
:10168000F9D10EF04DFC4849484881421BD2C61C96
:101690000C1D321B464822F00302161D0568042368
:1016A000B3420D60C2F380020DD022B14568082319
:1016B000B342256007D01A1D1D5884585D50083369
:1016C000B3428C50F7D13B483B49884217D2CB1CE0
:1016D000041D1A1B22F0030503462818002183422B
:1016E0001960C5F380020AD01AB1844223462160F2
:1016F00005D01D1D5960083383426960F9D1FFF799
:1017000057FF2E4D2E498D421DD2CC1C2E1DA71BDE
:10171000B808471C01242A6800EA04089047BC4224
:1017200011D0B8F1000F05D0022433689847BC42AD
:10173000354608D0696888470234A8682E1D80475E
:101740000835BC42F6D1FEF723FD1E4D1E4A9542D8
:101750001DD2D41C2E1DA71BBB085F1C01242968A9
:1017600003EA04088847BC4211D0B8F1000F05D045
:10177000022430688047BC42354608D06A689047EA
:101780000234AB682E1D98470835BC42F6D1FFF7EE
:1017900017FF00BF00080010000000100004001038
:1017A0000004001003080010000000209406002030
:1017B00010980108803200205C6D0120880100082B
:1017C000880100088801000888010008AFF3008044
:1017D000FEE700BFAFF30080AFF30080AFF30080FF
:1017E000F8B544F2E034C0F6010407460FCC43F2EA
:1017F0008026C2F2000635460FC523682B70B969F2
:10180000284612F0CDFC44F2F4313046C0F6010116
:101810002E22BDE8F84000F0B3B900BFAFF300805E
:1018200072B6FEE7AFF30080AFF30080AFF3008045
:1018300000F09EFA00F08CFC00F07AFA00DF00BFA6
:10184000EFF309824EF63073CEF20003D2F8CC10DB
:101850005960986868309860683282F3098800237C
:1018600083F31188704700BFAFF30080AFF30080AF
:1018700008B54FF46D43CEF200034FF44072C0F24E
:10188000FA520021996007201021DA6000F0D8F8A0
:101890000A204FF4007100F0D3F80B208021BDE83E
:1018A000084000F0CDB800BFAFF30080AFF3008078
:1018B000202383F311884FF46D43CEF20003586860
:1018C00010F4006325D0EFF30983A3F1680282F3DB
:1018D000098816494FF080708A6943F84C0C92F8D9
:1018E0002300096892688968B0B1914294BF0022D0
:1018F0000122BAB10E4A43F8502CF1EE10FA4EF61E
:101900003072CEF20002516841F001005966506019
:10191000704783F311887047914234BF002201223F
:10192000002AE7D1034843F8500CE8E79809001073
:10193000311800083C180008AFF30080AFF30080B6
:1019400008B500F09DF9202383F3118800F0D8F941
:1019500000F0DEF800F0B4F9002383F3118800F002
:101960006FF9BDE80840FFF7A3BF00BFAFF30080E9
:101970002DE9F04F2DED108AC1F80CD0D0F80CD025
:10198000BDEC108ABDE8F08FAFF30080AFF30080AC
:1019900008B500F0CDF9002383F311882846A0474D
:1019A00000F0F6FC08BD00BFAFF30080AFF300808D
:1019B000F0B44FF461438408CEF20003C03400F069
:1019C000030553F82470ED00FF26420906FA05F6D8
:1019D00027EA060601FA05F500F01F0002F160078C
:1019E000012101FA00F02E4343F8246043F8270058
:1019F00043F82200F0BC7047AFF30080AFF30080E3
:101A000041094FF4614310B4CEF2000300F01F020D
:101A10002031012404FA02F4820843F82140C03244
:101A200000F0030053F82210C000FF2404FA00F075
:101A300021EA000143F8221010BC7047AFF3008088
:101A400082084FF46D43CEF20003063200F003002B
:101A500030B4C00053F82250FF2404FA00F425EA01
:101A6000040401FA00F10C4343F8224030BC7047F3
:101A7000024B034A98698261FEE700BF9809001093
:101A80008C870108AFF30080AFF30080AFF30080D4
:101A900030B583B0FFF7ECFE00F00AFA00F098F9D9
:101AA00001F086F801F0CCF840F600004021C1F2C8
:101AB000000000F05DFB40F6981440F20043C1F2D4
:101AC0000003C1F200040125C36180F82050A06129
:101AD00000F066F9002383F3118862B644F2D06106
:101AE000A269C0F60101916140F65000009341F6F1
:101AF00071234FF4A4712A46C0F60003C1F200001E
:101B000000F0BEFB03B030BDAFF30080AFF3008048
:101B1000F8B500F07DF8164B986990F8232012B1C3
:101B2000511E80F82310446A124D631C4362E8681A
:101B30002C68421CAC42EA6018D0A768013FA7603D
:101B4000A7B92168E6684D60E760296000F0B8F841
:101B5000002383F311882069B047202383F3118881
:101B600000F0CEF82C68A368002BEAD0F8BD00BFC7
:101B700098090010B4090010AFF30080AFF30080A3
:101B800070B506460D46144603F0A2F900B170BDCB
:101B900003F096F90C4B0D4A18680D490D4B156072
:101BA0000C601E600028F2D131462A4623460A48BE
:101BB00003F04EFE48F2A060C0F2010000F080FB8E
:101BC000BDE87040FFF72CBE586D0120483300205F
:101BD000503300205833002020440108AFF3008028
:101BE000064B186820B906490A68002A00DD7047CC
:101BF00004480549D322FFF7C3BF00BF4C33002080
:101C000054330020344401083C440108AFF3008001
:101C1000064B1868002804DB05490A68002A00DD25
:101C2000704704480449C522FFF7AABF4C3300207F
:101C3000543300205C4401083C440108AFF30080A9
:101C400010B5202383F31188094C2368002B02DD93
:101C5000084A106828B108480849B522FFF790FFE4
:101C60002368591E2160002383F3118810BD00BF33
:101C70004C33002054330020804401083C440108C8
:101C800010B5202383F31188094C2368002B02DB55
:101C9000084A106828B108480849A722FFF770FFD2
:101CA0002368591C2160002383F3118810BD00BFF5
:101CB0004C33002054330020884401083C44010880
:101CC000084B1868002810B5074C05DD216800296D
:101CD00002DD0022226010BD044805499A22FFF768
:101CE0004FFFF6E74C3300205433002090440108A6
:101CF0003C440108AFF30080AFF30080AFF30080F5
:101D0000074B1868002810B5064C01DD216821B189
:101D1000054806498E22FFF733FF0122226010BDDD
:101D20004C33002054330020984401083C440108FF
:101D3000084B186810B5084C28B92168002902DD45
:101D40000022226010BD054805498222FFF718FFD6
:101D5000F6E700BF4C33002054330020B84401089C
:101D60003C440108AFF30080AFF30080AFF3008084
:101D7000074B186810B5074C08B9216821B106480F
:101D800006497622FFF7FCFE0122226010BD00BF4B
:101D90004C33002054330020C04401083C44010867
:101DA000054B186810B905490A6822B1044805496D
:101DB0006B22FFF7E5BE70474C3300205433002000
:101DC000DC4401083C440108AFF30080AFF300801D
:101DD00040F6B413C1F200034FF0FF3200205B6005
:101DE0001B609A60D8607047AFF30080AFF300804B
:101DF000F8B505460C4616461F46FFF709FFCDB15C
:101E0000C6B1BCB10E492F610B68EE609A6894426E
:101E100004D91B68A41A9A68A242FAD358682B60A6
:101E20008B42686005605D60AC6002D099680C1BF5
:101E30009C60F8BD034804495122FFF7A1FEE1E789
:101E4000B40900100045010810450108AFF30080F7
:101E500010B50446FFF7DCFE84B1E368A3B1206847
:101E60000C4A904203D08168A368CA1882606168F6
:101E70000860206800234160E36010BD0648074900
:101E80006D22FFF77DFEE8E7054804497022FFF761
:101E900077FEE4E7B4090010304501081045010859
:101EA00040450108AFF30080AFF30080AFF300803E
:101EB00040F69813C1F2000300225B601B609A6039
:101EC0005B611B61704700BFAFF30080AFF3008020
:101ED00010B50446FFF79CFE94F820308BB10E2B12
:101EE0000FD00022A1680A4884F820200068836887
:101EF0008B42FBD24168206061600C6044602046E8
:101F000010BD044804495A22FFF73AFEE9E700BF32
:101F1000980900106045010874450108AFF300807E
:101F200010B52023044683F31188FFF7E9FE94F8E7
:101F300020300D2B11D8DFE803F016101007100B1E
:101F4000101010101010100BA06A8268511C8160D4
:101F500094E80C001A60206843604FF0FF33A362DE
:101F60002046FFF7B5FFFFF7ABFE002383F3118890
:101F700010BD00BFAFF30080AFF30080AFF300806F
:101F800070B5104C0646FFF72BFEA5692368E9697A
:101F90001A6885F82060ADF1640054601426226050
:101FA0000122814285F82360A36183F8202003D9B0
:101FB0002846FFF715FCA36918462946BDE870407E
:101FC000FFF7D6BC98090010AFF30080AFF3008094
:101FD00070B50C4686B00646FFF702FE631C12D0B1
:101FE0000B4D0C4AAB69214601A8FFF701FF3046B3
:101FF000FFF7C6FF049B13B101A8FFF729FFA869EB
:10200000806A06B070BD3046FFF7BAFF004DF6E7B4
:1020100098090010211F0008AFF30080AFF3008083
:1020200070B5124D04460E46FFF7DAFDA869A268A6
:102030008368A6629A4211D9FFF74AFFC369AC616F
:10204000ADF1640201219342064684F820100AD8BB
:1020500020463146BDE87040FFF78ABC2046BDE807
:102060007040FFF735BFFFF7BBFBF1E798090010A1
:1020700038B50F4C2368A5691A68012114205460F3
:1020800083F8201085F8230028462260A361FFF71B
:102090001FFFEB69ADF16402934202D92846FFF7B6
:1020A0009FFBA0692946BDE83840FFF761BC00BF2F
:1020B00098090010AFF30080AFF30080AFF3008009
:1020C00070B5134E3068B5690368AC685E60012274
:1020D000002180F820203360B06185F8201003468D
:1020E00000E01B689A68A242FBD8E9695A682B6035
:1020F000ADF16404A1426A6015605D6003D92846B1
:10210000FFF76EFBB0692946BDE87040FFF730BCB1
:1021100098090010AFF30080AFF30080AFF30080A8
:1021200008B5FFF75DFD064B1A68986991688368EA
:10213000994200D808BDBDE80840FFF7C1BF00BF05
:1021400098090010AFF30080AFF30080AFF3008078
:10215000044B986990F8231009B1FFF7B1BFFFF75E
:1021600087BF00BF98090010AFF30080AFF3008075
:102170002DE9F00140F69814C1F2000400226569CF
:102180004164046100F13006816000F12C0C00F123
:102190004C0745614FF0020860610121142480F86A
:1021A000208080F8212080F823400264C2634262CC
:1021B00080F8221082612861C0F82CC04663066353
:1021C000C761BDE8F0017047AFF30080AFF3008056
:1021D0002DE9F04704460D4617469846FFF718FDCF
:1021E00014B1B5F59C7F38D21F482049A622FFF7CD
:1021F000C7FCA5F1640161181D4E089BD6F814C0F8
:10220000E1604B641B4BC1F840800B660221002546
:1022100004F1300204F12C0A04F14C0984F8201076
:10222000142301212661A760C4F814C020467461FC
:1022300084F8215084F8233067642564E56365627F
:1022400084F82210A561CCF81040C4F82CA0626379
:102250002263C4F81C90BDE8F0877F2FC4D8B8F182
:10226000000FC6D1C0E700BFA0450108B445010872
:102270009809001091190008AFF30080AFF30080B7
:10228000F0B51C4683B005460E461746202383F35F
:102290001188FFF76DFD089823463A4631460090B5
:1022A0002846FFF795FF00210446FFF7B9FEFFF728
:1022B0003FFD002383F31188204603B0F0BD00BF2B
:1022C00010B5044628B90A480A494FF49372FFF73B
:1022D00057FC202383F31188FFF74AFD214606208F
:1022E000FFF776FEFFF724FD002383F3118810BD6E
:1022F00004460108B4450108AFF30080AFF3008045
:1023000010B52023044683F31188FFF731FD064BF7
:10231000D968611A02D00620FFF75AFEFFF708FDC0
:10232000002383F3118810BDB4090010AFF30080BF
:1023300038B5114B9C692546A06255F82C0FA84270
:1023400006D00168E162FFF7C3FDE06AA842F8D158
:1023500094F82100830704D1636922691A61216915
:102360004B610E20FFF70CFE0448054940F2811234
:10237000BDE83840FFF704BC980900101446010876
:10238000B4450108AFF30080AFF30080AFF30080E5
:1023900010B52023044683F31188FFF7E9FC20469B
:1023A000BDE81040FFF7C4BFAFF30080AFF300807B
:1023B00038B50446202383F31188FFF7D9FC94F83D
:1023C0002230002B21D0581EC5B284F82250FFF7CE
:1023D000AFFC002383F311881DB994F820100E2957
:1023E00000D038BD94F8212002F00303012B14D053
:1023F000022BF6D163692169A06C1961226921461B
:102400005361BDE8384000F0EBBC094809494E2251
:10241000FFF7B6FB94F82230D5E7636920691861AD
:10242000216920464B61BDE8384000F061BC00BF27
:102430009846010874460108AFF30080AFF30080AE
:1024400010B5202383F31188FFF792FC40F6981310
:10245000C1F200031C6994F82200411C84F8221088
:10246000FFF766FC002383F31188204610BD00BFF0
:1024700038B50546202383F31188FFF779FC2C69D2
:102480000E4B9C4218D094F82200FF280CD0411C1F
:1024900084F82210FFF74CFC002383F311882846B0
:1024A000FFF786FF204638BD054806499622FFF70C
:1024B00067FB94F82200EAE70024EBE79809001094
:1024C000F046010808470108AFF30080AFF3008031
:1024D00038B504460D4628B1002903DB646024604A
:1024E000A56038BD024803495822FFF749FBF5E7CC
:1024F0003047010840470108AFF30080AFF3008088
:1025000010B50446FFF784FB002C22D0A368226894
:10251000002B0DDBA24206D0114812494FF49B72EA
:10252000FFF72EFBA368581C0028A06006DD10BD35
:10253000A242F1D0581C0028A060F8DC21680A688B
:1025400000230846226054608B62BDE81040FFF70C
:10255000BFBC054803494FF49972FFF711FBD5E75B
:102560001048010840470108FC470108AFF300800C
:1025700010B5044620B1002364602460A36010BD40
:10258000024803495822FFF7FBFAF4E7A048010884
:10259000B0480108AFF30080AFF30080AFF30080D4
:1025A000F8B53E4B05469C69FFF71AFB002D6FD02E
:1025B000A86800283AD0A2688168914208D290F8B1
:1025C00020308260042B49D0052B34D0002B22D040
:1025D00028460068854203D08168A2689142F8D2FB
:1025E0004368206063601C604460A5620420FFF7BC
:1025F000C7FCA868A04204D029482A49B222FFF7A4
:10260000BFFA216CA94215D027482649B322BDE85C
:10261000F840FFF7B5BA90E80C001A600268012193
:1026200080F820105360FFF753FCD1E7206CAC60BA
:10263000E8602564F8BD41680768866A0F6007682E
:10264000334679601B689E4202D099689142F9D264
:102650005A680360426010605860B9E741680768D3
:10266000866A0F600768334679601B689E420DD00A
:1026700099689142F9D25A680360426010605860CC
:10268000B068A2688368934299D3A1E73346F2E722
:10269000064804497D22FFF773FA89E7980900107C
:1026A000E0480108B0480108F4480108D048010892
:1026B00010B52023044683F31188FFF759FB204609
:1026C000FFF76EFFFFF734FB002383F3118810BD83
:1026D000214A70B52023956983F31188FFF748FBE1
:1026E0002C6C002C30D0A368AB4206D01B481C4990
:1026F00040F20B12FFF744FA2C6C2668E368A642FE
:102700002B641ED0696C4BB11A689A4203D0906852
:10271000814238BF0146DB68002BF5D13368326C4B
:10272000A9603046236000215C60A660E2603464EA
:10273000FFF776FCFFF7FCFA002383F311882046AD
:1027400070BD0020A060F5E7064805494FF484728B
:10275000FFF716FA2C6CC6E79809001030490108FB
:10276000B04801081C490108AFF30080AFF30080B6
:1027700038B504460D46FFF74BFAC4B1E26B94F846
:10278000203045EA0201082BE1630CD0092B00D070
:1027900038BDA06A01408842FAD12046FFF798FB75
:1027A0000023836238BDA26A1142F6D138BD0348C6
:1027B0000349FE22FFF7E4F9E0E700BFC049010842
:1027C00088490108AFF30080AFF30080AFF30080C9
:1027D00070B505460E46FFF71BFA65B12C68A54299
:1027E00008D0201D0BC83343E360FFF7C1FF246806
:1027F000A542F6D170BD03480349BC22FFF7C0F9DA
:10280000ECE700BFE449010888490108AFF3008004
:1028100010B4024659B1084B9B69986244680D2078
:1028200083E814005360236010BCFFF7D1BB4FF066
:10283000FF3010BC704700BF98090010AFF3008054
:1028400010B4C361019B40608A180024006084605A
:1028500041618161C1600261036210BC704700BFC9
:1028600038B50446FFF7D4F92068E3680021A04298
:102870006361A361A1600AD06FF001050268226064
:102880005460FFF725FB85622068A042F6D138BD71
:1028900038B504460D46FFF7BBF96369A269A06825
:1028A00093421AD0411CA16003F8015B2269636165
:1028B00093420BD22068A0420DD0016821604C6089
:1028C000FFF706FB00228262104638BD2068E368ED
:1028D000A0426361F1D1002038BD0028E2D06FF042
:1028E000030038BDAFF30080AFF30080AFF300808A
:1028F000F8B504460E46202383F31188FFF738FA13
:10290000E3690BB120469847A5682046314655B982
:10291000FFF77EFF071EF7DAFFF70AFA2B4683F36D
:1029200011883846F8BDA0692269013DA56010F8FC
:10293000017B9042A06124BFE068A061FFF7F8F935
:10294000002383F311883846F8BD00BFAFF3008041
:102950002DE9F0470446154688461E46C769002AF9
:102960003AD0202383F31188FFF702FA08F1010A15
:102970004FF00009A8440FB12046B847A56820468B
:1029800031465DB9FFF744FF0028F7D0FFF7D0F9D3
:102990002B4683F311884846BDE8F087A369013DC3
:1029A000A56013F8012B0AF8012C2069A36183426A
:1029B00024BFE368A361FFF7BBF9002383F3118809
:1029C000C24509F10109E6D0202383F31188FFF7FE
:1029D000CFF90AF1010ACEE702480349E722FFF7DF
:1029E000CFF8BEE7304A0108444A0108AFF300803F
:1029F00010B4C361019B40608C180060826041612B
:102A00008161C1600461036210BC7047AFF3008054
:102A100038B50446FFF7FCF8E36822692068636173
:102A2000D11AA042A361A1600AD06FF0010503682A
:102A300023605C60FFF74CFA85622068A042F6D103
:102A400038BD00BFAFF30080AFF30080AFF300806C
:102A50002DE9F041202304468846164683F3118869
:102A6000FFF786F9A568204631465DB9FFF7D0FE2D
:102A7000071EF7DAFFF75CF92B4683F31188384617
:102A8000BDE8F0816369013DA56003F8018B22690F
:102A90006361934228BFE368E16928BF636109B1BC
:102AA00020468847FFF744F9002383F311881F4627
:102AB0003846BDE8F08100BFAFF30080AFF300807F
:102AC00038B50446FFF7A4F8A3696269A0689A4282
:102AD00016D0411CA16013F8015B2269A3619342E7
:102AE0000BD22068A04206D0016821604C60FFF73D
:102AF000EFF900228262284638BDE368A361F0E75F
:102B00000028E6D06FF0020038BD00BFAFF30080B0
:102B10002DE9F0470446164688469A46D0F81C90A0
:102B2000002A39D0202383F31188FFF721F90027E9
:102B3000A56820466B1E0DB3A360656918F8011BDC
:102B400005F8011B22696561954224BFE268626154
:102B5000B9F1000F00D0C847FFF7EAF8002383F36C
:102B600011880137013E14D0202383F31188FFF729
:102B7000FFF8A56820466B1E002DDDD1204651468A
:102B8000FFF746FE0028D3D0FFF7D2F82B4683F399
:102B900011883846BDE8F0870348044940F29B128B
:102BA000FEF7EEFFBEE700BF684A0108444A01088D
:102BB00040F6C81240F6C4134CF200010648C1F2B8
:102BC0000002C1F20003C2F2010120F0070021F06F
:102BD0000701106019607047636D0120AFF300803A
:102BE00010B50446FFF714F8074A08491368096846
:102BF000E01D20F00700C91A88429ABF181810601B
:102C00000023184610BD00BFC8090010C4090010F9
:102C100010B52023044683F31188FFF7A9F8204656
:102C2000FFF7DEFF0446FFF783F8002383F31188E4
:102C3000204610BDAFF30080AFF30080AFF30080FB
:102C400040F6D013C1F2000342F611410022C0F653
:102C5000000103F1100019609A60DA60FFF788BC88
:102C6000F8B5204E002818BF0646073106F11000BF
:102C700021F0070506F10804FFF71AFD00E01C46E5
:102C80002368FBB15A689542F9D805F108019142D1
:102C900015D84FF6F870CFF6FF70401B03EB010E0E
:102CA00082181868CEF8042058505D60C4F800E01F
:102CB0001C4644F8086BFFF70BFD2046F8BD196869
:102CC0002160F5E7FFF704FD32684AB105F108001D
:102CD000904728B100F10804066045602046F8BD21
:102CE0000024EAE7D0090010AFF30080AFF30080C2
:102CF000F8B5074600284DD057F8086C06F11000CB
:102D0000FFF7D6FC0836A7F108053446AC4204D8D4
:102D100063680833E01885421FD3B442216801D0AC
:102D2000AC4202D219B18D4201D30C46EEE757F8FE
:102D3000042C47F8081C256002F1080357F8080C1A
:102D4000E91881420FD0606800F1080163189D42C4
:102D500017D0BDE8F840FFF7BBBC11481149D0229D
:102D6000FEF70EFFD9E74868EB581218083247F80B
:102D7000042C606847F8083C00F1080163189D4284
:102D8000E7D157F8041C57F8082C4318083384E897
:102D90000C00DEE704480349C622FEF7F1FEABE76C
:102DA000C04A0108904A0108B04A0108AFF3008008
:102DB00038B504460D46FEF72BFF24B11DB123683C
:102DC0002B60256038BD034803499922FEF7D8FEE1
:102DD000F5E700BF284B0108F04A0108AFF3008077
:102DE00038B505460C46202383F31188FEF7C0FF53
:102DF00028462146FFF7DCFFFEF79AFF002383F306
:102E0000118838BDAFF30080AFF30080AFF30080CE
:102E1000F0B4002B08BF0B46074600F10B0C00F185
:102E20000A05B1FBF2F602FB161101F13004392C50
:102E3000C8BF01F13704E4B2B3FBF2F328463146D0
:102E400005F80149002BECD1C0EB0C03F943024615
:102E5000F8184318DB070AD507F8014B12F8014FA1
:102E600005E012F8014F7C7012F8014F5F1C3B46E1
:102E700003F8014B8342F4D1F0BC7047AFF30080FC
:102E80002DE9F04F2DED028B8FB00DF1210408AB31
:102E900001940293064617460198029A4CF6CD45D6
:102EA0000C46CCF6CC45811A03910695254615F8BB
:102EB000011B59B125290ED033682C4625463046D2
:102EC0009A68904715F8011B0029F3D10FB0BDECAB
:102ED000028BBDE8F08F63782D2B00F0D4814FF08A
:102EE00000092E2B00F0B281302B00F0AF814FF0A3
:102EF00020082C46002506E03978043705EB8505C7
:102F0000237801EB4505A3F13000C1B20134092952
:102F1000F4D92A2BF0D02E2B00F09D814FF0000B1E
:102F20006C2B00F08C814C2B00F08981A3F14401C3
:102F3000342900F27D81DFE811F074017B017B010F
:102F40007B017B0174017B017B017B017B017B01A8
:102F500072017B017B017B017B017B0170017B01A5
:102F60007B0163017B017B017B017B017B017B0199
:102F70007B017B017B017B01240174017B01D30078
:102F80007B017B0174017B017B017B017B017B0168
:102F900072017B017B017B0135007B0170017B01AC
:102FA0007B0163013868AE4A002814BF824692460E
:102FB00047F6FF719AF800300437BBF1000F08BFE5
:102FC0008B46002B00F098810AEB0B006FEA0A0297
:102FD0009AF80130111801F001020AF1010B63B1F6
:102FE00083455B4609D0002A6ED09BF801300BF177
:102FF000010B13B183455B4666D1CAEB0B0B4FF057
:103000002008CBEB050525EAE575B9F1000F00F0C6
:10301000CA80BBF1000F27DDD146306819F8011BCB
:103020008268D3446FEA0A0C0BEB0C0E30460EF0AC
:10303000010A9047D94517D0BAF1000F03D0336881
:1030400019F8011B0BE03068CA4682681AF8011BA8
:1030500030469047336899F801100AF101099A68DF
:1030600030469047D945EED1002D3FF41FAF31686F
:103070006B1E8A681D463046414603F001099047A1
:10308000002D3FF413AFB9F1000F07D0316830467F
:103090008B6841469847013D3FF408AF3068414690
:1030A0008268304690473168013D8B683046414622
:1030B0009847013DF2D1F9E69BF801100BF1010BA5
:1030C00000299AD0834598D003F1010B59785A46CC
:1030D000531C0029F0D1CAEB0B0B4FF0200890E7EE
:1030E000073727F00707D7E90001FDF7E1FC08EEF5
:1030F000100AB5EEC08A0837F1EE10FA00F1F4803C
:103100000DF1200A18EE100AFDF7B6F9CDE9040119
:103110000FF05EFA002800F0C780BBF1000F00F04E
:10312000D380069AA2FB0B03D9080791BDEEC88A8B
:1031300000230A2218EE101A5046FFF769FE824655
:103140002E220AF8012B18EE100AFDF783F9024629
:103150000B46DDE90401FDF72FF8CDE904015846DF
:10316000FDF768F902460B46DDE90401FDF7D8F9E1
:10317000FDF776FC0A220146079B5046FFF748FE02
:103180009CE03868DDF80CB08DF820004FF0200886
:1031900004370DEB080ACBEB050525EAE575B9F117
:1031A000000F7FF436AF6D42002D3FF432AF9AF836
:1031B00000102D296CD030684146826830466FEA95
:1031C00005099047013509F001093FF422AFB9F133
:1031D000000F07D0316830468B684146984701356B
:1031E0003FF417AF306841468268304690473168F7
:1031F00001358B683046414698470135F2D108E7E2
:103200001022396808A804370023FFF701FE02994D
:103210000DF1200AC1EB000BBDE70A22F1E70822FD
:10322000EFE739680437002956DB08A80A22EBE7E4
:103230008DF82030DDF80CB00DF1200AABE72278D4
:10324000002A3FF473AE013413466FE66B784FF0FB
:10325000300801354DE621464FF0000B08E000BF75
:10326000504B0108387804370BEB8B0400EB440B10
:1032700011F8013BA3F13004E0B209280C46F3D960
:103280002A2BEFD04CE6A51CA3784FF0010928E6C5
:10329000B8F1300F8FD132683046936898470AF101
:1032A000010A0BF1FF3B86E74E2361218AF80030CB
:1032B0008AF801108AF802300AF10300029A0DF12F
:1032C000200AC2EB000B66E748F2A06B42F21070D6
:1032D0000790C0F2010B29E72D238DF820304942D9
:1032E0000DF121000A228FE72D208DF82000B1EE8C
:1032F000488A0DF1210A05E79B464FF020084AE76E
:1033000010B560B907480479053C18BF01240CF0DA
:1033100017FE10B144F00400C4B2204610BD0224D0
:10332000204610BDE81A0120AFF30080AFF3008003
:1033300010B560B907480479053C18BF01240CF0AA
:10334000FFFD10B144F00400C4B2204610BD0224B9
:10335000204610BDE81A0120AFF30080AFF30080D3
:10336000F0B50C4683B030B9234D297903200529E7
:1033700003D003B0F0BD0420FBE7284611460193BB
:1033800003F05EFC019B78BB83B35E1E284621469A
:1033900006F0010703F094FC30BB16F0FF0604F5BD
:1033A000007423D09FB12846214603F089FCD8B988
:1033B000013E16F0FF0604F5007408D116E00E4831
:1033C00003F07EFC711E78B911F0FF060ED0214685
:1033D000094803F075FC04F50075721E2946D6B243
:1033E00004F580640028EAD00120C2E7024803B057
:1033F000BDE8F04003F0B4BCE81A0120AFF3008050
:10340000F0B50C4683B030B9274D29790320052942
:1034100003D003B0F0BD0420FBE7284601920093DF
:103420000CF08EFD019A08B10220F2E72846114601
:1034300003F0F6FC009B78BB83B35E1E2846214652
:1034400006F0010703F02CFD30BB16F0FF0604F573
:10345000007423D09FB12846214603F021FDD8B93E
:10346000013E16F0FF0604F5007408D116E00E4880
:1034700003F016FD711E78B911F0FF060ED021463B
:10348000094803F00DFD04F50075721E2946D6B2F9
:1034900004F580640028EAD00120BAE7024803B0AE
:1034A000BDE8F04003F04CBDE81A0120AFF3008006
:1034B00020B909B908467047022901D00420704795
:1034C0004FF4007313807047AFF30080AFF30080B8
:1034D0004FF40410704700BFAFF30080AFF30080DB
:1034E00001460020FFF7BCBBAFF30080AFF30080C4
:1034F000FFF7FEBBAFF30080AFF30080AFF30080B7
:10350000C36882689A4206D04268D154C1684B1C95
:10351000C360002070476FF001007047AFF3008078
:103520000369C2689A4205D04168CA5C01330361ED
:10353000104670476FF00100704700BFAFF3008086
:1035400038B5044608462369E5686168ED1AAA4261
:1035500038BF15462A46C91810F092FC2069421956
:103560002261284638BD00BFAFF30080AFF3008072
:1035700038B5C36885680446ED1A4068AA4238BF6A
:1035800015462A46C01810F07BFCE1684A19E26033
:10359000284638BDAFF30080AFF30080AFF3008062
:1035A00010B444F66034C0F60104C3600023046024
:1035B00041608260036110BC704700BFAFF30080C0
:1035C00003680F2B70B504460D46164609D003F16B
:1035D000100104EB8302581C44F821602060556000
:1035E00070BD034803490D2200F0EAFF2368EEE7AF
:1035F000704B0108844B0108AFF30080AFF30080EB
:103600000368002B70B5064609DD041F002504344D
:103610000135206C616888473068A842F7DC70BDCE
:103620000368002B2DE9F04106460F4690460ADD5F
:10363000051F0024043538466A68414690473068C3
:103640000134A042F6DCBDE8F08100BFAFF300809A
:10365000002953DD03464118002003E050008B424F
:10366000C0B24AD013F8012B504010F0800F4FEA3F
:1036700040021CBF82F02702D243D0B210F0800F6C
:103680004FEA40021CBF82F02702D243D0B210F0B2
:10369000800F4FEA40021CBF82F02702D243D0B213
:1036A00010F0800F4FEA40021CBF82F02702D24385
:1036B000D0B210F0800F4FEA40021CBF82F0270208
:1036C000D243D0B210F0800F4FEA40021CBF82F00C
:1036D0002702D243D0B24FEA400210F0800F1CBF45
:1036E00082F02702D243D2B21006B7D5520082F040
:1036F0002700C2438B42D0B2B4D17047002070473C
:103700002DE9F04F6E4C0022002383B0104619467D
:10371000E4E80223FCF7D6FE67A3D3E90023FCF715
:10372000FFFEFDF75DFB01260027002908BF0028EA
:1037300000F0BF80002871F10002BCBF4FF0FF30E5
:103740006FF00041C4E9000140F27D39DFF87C816F
:1037500004460D462EE0A04271EB0502BCBF4FF0BF
:10376000FF306FF00041B9F1010AE8E802013BD0F7
:1037700058E9024520462946FCF7A4FE4EA3D3E9AA
:103780000023FCF7CDFEFDF72BFB001941EB0501F3
:10379000A94208BFA04223D0A04271EB0503BCBFE1
:1037A0004FF0FF306FF00041E8E802010AF1FF3905
:1037B00004460D4620462946FCF784FE3EA3D3E985
:1037C0000023FCF7ADFEFDF70BFB001941EB0501F3
:1037D000A94208BFA042BED1A01945EB0701BAE734
:1037E000801941EB0701D7E7364D4FF0FF326FF0FC
:1037F0000043C5E904235746A5F5DF5BD44640F2F4
:10380000E739FBE902236446E517944275EB0300B0
:1038100007F1010A44DACC4545DCE443E843A41847
:1038200040EB03050021012205EA01032240CDE916
:103830000023DDE9000143F25C33C2F200030CF126
:10384000FF3803EB88080022002301431CD00CF151
:10385000010C01220023BCF57A7F48F8047F13D1C4
:1038600021E001200021801841EB03010122002307
:10387000BCF57A7F0CF1010C15D0121843EB010353
:10388000BCF57A7F77600ED008F10406AB4208BF22
:10389000A242C8F804700CF1010C06F10408E0D152
:1038A000CC455746ADDD08490120086003B0BDE8AE
:1038B000F08F304639463DE7000000A09999A93FB6
:1038C00000430020E05E0020F85E0020104300204E
:1038D000234B1A682DE9F04104460D46002A33D0E7
:1038E000002C75F1000338DBB4F57A7F75F1000820
:1038F0001C4822DBD0F89C1F40F27D33994220DC2B
:10390000194F40F27E36BC4602E0461EB14218DA3C
:103910008A19501007EBC003D3E90023944275EBDA
:103920000308F2DB411C0CEBC103D3E900239442F2
:1039300075EB0308EADABDE8F08150F82400BDE831
:10394000F0810846BDE8F0813C2208480849FEF7AE
:1039500017F9002C75F10003C6DA0020BDE8F081EC
:10396000F85E00205C33002000430020B04B0108CB
:10397000C44B0108AFF30080AFF30080AFF30080C9
:1039800010B4002200230160C0E90223C0E904232F
:103990000446002140F6186210BC10F019BB00BFAD
:1039A0002DE9F84F19468246104690469946FFF792
:1039B0008FFFDAE90267DAE9044516EB080647EB00
:1039C000090701228346002340F27E30A41845EB0C
:1039D00003058345CAE90267CAE9044504DD0748CF
:1039E00007496122FEF7CCF80BF1060B5AF82B10B1
:1039F0004A1C4AF82B20BDE8F88F00BFD84B0108BD
:103A0000C44B0108AFF30080AFF30080AFF3008038
:103A10002DE9F04F2DED028BD0E904238BB0CDE9D9
:103A20000023062A73F1000380468B46C0F2F6801D
:103A300083694FF0000A43B900F118009A4650F824
:103A4000043F0AF1010A002BF9D0CBF80030DDE980
:103A50000001FDF74DF9DDE90045DDE900236D10BA
:103A60004FEA34044FF0FF36CDE906454FF0FF3101
:103A700000240025921943EB0103DFF80092CDF8F2
:103A800014B0CDE908235F4608EE900ACB46B9464C
:103A90000BF1040BDBED007A28EEA70A10EE100AFA
:103AA000FDF786F906460F4656EA070200F0B38096
:103AB000DDE90001B94208BFB04201D1DDE9086784
:103AC0000AF1060158F82100221845EBE073B242D2
:103AD00073EB070011DA08EB810114461D4601E083
:103AE00014461D4651F8040F221845EBE073B2420C
:103AF00073EB07000AF1010AF2DBDDE906239642C7
:103B000077EB03031CDA0AF1060158F821002218AA
:103B100045EBE073964277EB030011DB08EB810184
:103B200014461D4601E014461D4651F8040F2218A4
:103B300045EBE073964277EB03000AF1010AF2DAF3
:103B400044F20033C2F2000303EBCA02D2E90001DF
:103B5000CDE90201FDF7CCF8BD4208BFB44208EE42
:103B6000100A2AD044F20031C2F2000101EBCA036C
:103B7000D3E902014FF0FF3280184FF0FF3341EBE1
:103B80000301DDE902230AF1060E801A61EB03014D
:103B9000361B67EB050758F82E2000FB07F306FBE2
:103BA0000133A0FB06015918D317FDF7E1F8FDF723
:103BB0009FF807EE900A38EE278ABDEEC88A05996D
:103BC0002C4B18EE100A41F8040F9B4505917FF429
:103BD0005FAFD8F8102ECB46002A48D108F5616CAB
:103BE00040F27E335CF8040D013B0028FAD0591CEA
:103BF00044F20032C2F2000202EBC101D1E900231B
:103C00004FF0FF301318CBF8103005200BB0BDEC8F
:103C1000028BBDE8F08F0126002751E7164900F11D
:103C2000180C012600205CF8042B002A19DD51E94C
:103C30000223D1E90045121943EB0505EC0F1219D7
:103C400045F100035B104FEA3202431E0BEB830485
:103C5000002344F8042F5CF8045C013301309D42DA
:103C6000F7DC01360831B6F5607FDCD1CEE740F2F3
:103C70007F31BDE7A84B0108084300209C4B010899
:103C800010B500210446402210F0A2F9002323645D
:103C900010BD00BFAFF30080AFF30080AFF3008032
:103CA000036C5A1C0264036C102B01D100220264C5
:103CB000036C40F82310416C4A1C4264704700BFFB
:103CC000436C8B42B8BF436C026CA8BF0B46002B01
:103CD000F0B441DD5C1ED143002A04F00105C3EBC2
:103CE000020C144604DA21F00F0702F11003FC184D
:103CF000531E0131634550F824702AD06DB1002B5A
:103D00001C4603DA21F00F040F32A41850F82420C7
:103D1000013B0131634517441BD05A1E002B1E4640
:103D200001F10104154604DA21F00F0103F1100638
:103D30008E1950F826100F33002A0F4402DA24F0AF
:103D40000F05ED18531E50F82520611C63451744DC
:103D5000E3D13846F0BC70470027FAE7AFF30080A4
:103D600041F65833A0F84831704700BFAFF30080E8
:103D70002DE9F04700F12C050446284604F020FA0E
:103D80000021284600220123C4F2702104F020FA09
:103D90000022002128461346C4F2523104F018FADA
:103DA0000021284600220123C4F2D23104F010FA87
:103DB00000224FF4004128461346C4F21D4104F08E
:103DC00007FA0022002128461346C4F2344104F0C9
:103DD000FFF949F6B25704F24C7204F5EA6347F270
:103DE000BD41C3F61371C3F66F7704F63816116040
:103DF0001F6004F2547008F03BFD304608F038FDB7
:103E0000102008F0C5FA4FF0000AC4F24C2A02460E
:103E100000215346304608F033FD0E2008F0B8FA72
:103E20004FF00009C4F26739024600214B46304684
:103E300008F026FD0D2008F0ABFA4FF40048C4F25C
:103E4000CD38024600214346304608F019FD0F20C8
:103E500008F09EFA4FF44047C4F21347002102468F
:103E600004F61C353B46304608F00AFD284608F0AB
:103E7000FFFC072008F08CFA002102465346284632
:103E800008F0FEFC082008F083FA002102464B46A9
:103E9000284608F0F5FC092008F07AFA00210246CD
:103EA0004346284608F0ECFC0A2008F071FA00218D
:103EB00002463B46284608F0E3FC02200022C4F8F4
:103EC0004007C4F84827BDE8F08700BFAFF3008083
:103ED0002DE9F00300F59E51002400250026C4F2D0
:103EE0000C24C4F27015C4F28226364B0C604FF0DD
:103EF000834700F59652C0F85051C0F854614FF016
:103F0000824101244FF47A7541F65836C0F8587151
:103F1000C0F85C11A0F84A41A0F84C51A0F84861E3
:103F20001C3203F18407596851609C68946053F80F
:103F30000C5FBB4242F80C5FF5D1234E334600F5CF
:103F40009B5253F8587D42F8047F596851609C6831
:103F5000083394600832B342F7D1DFF8708000F282
:103F60005C7500264FF05C0C08EB86040CFB060326
:103F7000224603F5E0616F1A52F8849B0B1D043F43
:103F8000AB42C1F80490C7F3800713D03FB1D4F817
:103F9000842043F8042FAB4204F584720AD01468DD
:103FA0005C60191DD2F884400833AB424C6002F5C6
:103FB0008472F4D10136212E03F15C05D4D1BDE821
:103FC000F00370472C580108484C0108504C010878
:103FD0002DE9F047064600F2547401252046C6F844
:103FE000445708F045FC0D2008F0D2F94FF0000AC4
:103FF000C4F24C2A024600215346204608F040FCF9
:104000000E2008F0C5F9002102465346204608F06C
:1040100037FC0F2008F0BCF9002102465346204629
:1040200008F02EFC102008F0B3F900210246534698
:10403000204608F025FC0D2008F0AAF94FF00009F1
:10404000C4F26739024600214B46204608F018FCAE
:104050000E2008F09DF9002102464B46204608F04C
:104060000FFC0F2008F094F9002102464B46204631
:1040700008F006FC102008F08BF94B4602460021A0
:10408000204608F0FDFB0D2008F082F94FF40048AF
:10409000C4F2CD38024600214346204608F0F0FB2A
:1040A0000E2008F075F9002102464346204608F02C
:1040B000E7FB0F2008F06CF900210246434620463A
:1040C00008F0DEFB102008F063F9002102464346A9
:1040D000204608F0D5FB0D2008F05AF94FF4404770
:1040E000C4F21347024600213B46204608F0C8FBB5
:1040F0000E2008F04DF9002102463B46204608F00C
:10410000BFFB0F2008F044F9002102463B46204641
:1041100008F0B6FB102008F03BF93B4602460021B0
:10412000204606F6381408F0ABFB204608F0A0FB4A
:10413000102008F02DF9002102465346204608F0D1
:104140009FFB0E2008F024F9002102464B46204632
:1041500008F096FB0D2008F01BF9002102464346AB
:10416000204608F08DFB0F2008F012F900210246CE
:104170003B46204606F61C3408F082FB204608F039
:1041800077FB072008F004F9002102465346204639
:1041900008F076FB072008F0FBF8002102464B46AA
:1041A000204608F06DFB072008F0F2F800210246D7
:1041B0004346204608F064FB072008F0E9F8002198
:1041C00002463B46204608F05BFB06F12C040A231E
:1041D000C6F84037204603F0F3FF4FF6EE41204685
:1041E0002A462B46C4F2562103F0F2FF4CF6CD418D
:1041F00020462A460023C4F2F32103F0E9FF4CF2E3
:104200008F2120462A462B46C4F2683103F0E0FF96
:1042100044F21F5120462A460023C4F2963103F08F
:10422000D7FF0021204600222B46C4F2B43103F010
:10423000CFFF4EF6AC3120462A462B46C4F2CC3195
:1042400003F0C6FF45F2443120462A460023C4F25B
:10425000EF3103F0BDFF40F2E12120462A462B4614
:10426000C4F2134103F0B4FF44F2EC1120462A4695
:104270000023C4F2244103F0ABFF002200212046BA
:10428000C4F234411346BDE8F04703F0A1BF00BFBC
:1042900041F65833A0F84831704700BFAFF30080B3
:1042A000F8B54FF07E530446C3610D2008F070F856
:1042B00004F254770025024600212B46384608F0C8
:1042C000DFFA0E2008F064F80026C4F2B436024685
:1042D00000213346384608F0D3FA0D2008F058F88C
:1042E00004F638170246002138462B4608F0C8FA73
:1042F0000E2008F04DF80023024600213846C4F293
:10430000343308F0BDFA082008F042F804F61C37F0
:10431000024600212B46384608F0B2FA082008F081
:1043200037F8334602460021384608F0A9FA4620FD
:10433000C4F84007242104F12C00012204F0C0FB42
:1043400004F24C71002304F5EA644FF07F52C4F28A
:1043500040030A602360F8BDAFF30080AFF3008034
:1043600070B51148114E84B001F072FAFEF768F88A
:10437000044694F82220A368616A0D48551E0095F2
:1043800094F82020029156F822100191A569214647
:104390000022039501F05CFA2046FEF769F8044616
:1043A0000028E6D104B070BDC0580108405C010887
:1043B000F0580108AFF30080AFF30080AFF3008046
:1043C00045F6181045F62811C0F60100C0F60101A7
:1043D0002A22FDF7D5BB00BFAFF30080AFF300800A
:1043E00045F6401038B5C0F6010045F6C474C2F277
:1043F000000401F02DFA45F24E0245F68811C0F294
:1044000033122046C0F6010101F05AF945F6B81101
:1044100045F69810C0F60101C0F6010001F018FA47
:1044200045F6C010C0F6010001F012FA45F6EC1096
:1044300045F6FC11C0F60100C0F6010101F008FAD2
:1044400048F2A06245F640212046C0F60101C0F2C4
:10445000010201F035F945F650212046C0F6010170
:104460004FF4E13201F02CF946F6407245F6602136
:104470002046C0F60101C0F240124FF43D4501F064
:104480001FF9C0F2015545F6702120462A46C0F6B4
:10449000010101F015F94FF4F44245F68021204660
:1044A000C0F60101C0F6032201F00AF94DF6806260
:1044B00045F690212046C0F60101C0F2802201F0AD
:1044C000FFF845F6A02120462A46C0F6010101F07A
:1044D000F7F845F6B02120460122C0F6010101F0AF
:1044E000EFF845F6C82120460122C0F6010101F08F
:1044F000E7F845F6D82120460122C0F6010101F077
:10450000DFF845F6F42120460122C0F6010101F052
:10451000D7F845F6103120460122C0F6010101F01E
:10452000CFF845F6243120460122C0F6010101F002
:10453000C7F845F6383120460122C0F6010101F0E6
:10454000BFF845F6543120460022C0F6010101F0C3
:10455000B7F845F6703120460122C0F6010101F09E
:10456000AFF845F68C312046C0F60101012201F07A
:10457000A7F84FF4FA70BDE83840FDF7A1BE00BFC0
:1045800008B547F29873C2F20003C1B21A68184620
:104590009368984708BD00BFAFF30080AFF3008079
:1045A00038B547F29873C2F2000305461C680A4604
:1045B000246818462946A04738BD00BFAFF30080E5
:1045C00070B545F6FC640346C2F200040D46204671
:1045D000194616460FF0E4FD204629463246BDE84E
:1045E0007040FDF7CDBA00BFAFF30080AFF300809D
:1045F00008B501F01DFB45F65140C0F6000000F083
:104600008FF845F6C47045F6A031C2F20000C0F63E
:10461000010101F04DF8FFF7E3FE45F6A83044F242
:10462000E131C0F60100C0F6000101F001FA45F6E3
:10463000B03044F2C131C0F60100C0F6000101F013
:10464000F7F945F6B83044F26131C0F60100C0F622
:10465000000101F0EDF9BDE8084001F009BA00BF22
:104660002DE9F843264BDFF8A4809869254A264EA9
:10467000DFF89C908261454608F14E0700F0B0F9E2
:10468000D0B131682048CC68A047044600B2002869
:1046900025DB042823D0082813D00D2822D01F287A
:1046A000ECDDBD42EAD2E0B2FFF76AFF05F8014B4C
:1046B00000F096F90028E4D14FF47A70FDF700FE7F
:1046C000DCE74545DAD0E4B22046FFF759FF202069
:1046D000FFF756FF2046FFF753FF013DCEE70020CE
:1046E000BDE8F883FFF74CFF0A20FFF749FF0023DE
:1046F00006482B70D9F8002005469047BEE700BF5A
:1047000098090010805C01089877002000000020C4
:1047100080630020AFF30080AFF30080AFF3008030
:1047200000B546F28033C2F2000383B0186000F097
:1047300017F90020009044F2616346F2C8004FF47C
:104740002E714022C0F60003C2F20000FDF798FD72
:1047500003B000BDAFF30080AFF30080AFF3008083
:1047600008B501F0DDFB202383F3118818B9BDE8FB
:104770000840FDF7FDBABDE80840FDF7C1BA00BF2B
:10478000FFF7EEBFAFF30080AFF30080AFF3008020
:1047900010B501F0C5FB044628B9FDF7C9FA234658
:1047A00083F3118810BDFDF78BFA002383F3118882
:1047B00010BD00BFAFF30080AFF30080AFF3008007
:1047C000FFF7E6BFAFF30080AFF30080AFF30080E8
:1047D00008B547F28473C2F2000345F690401A68A8
:1047E000C0F60100511C196000F0A2F945F6A8407E
:1047F000C0F601000D21BDE8084000F089B900BFF6
:1048000047F28473C2F2000347F258705A68C2F24A
:10481000000001322C215A6000F07AB9AFF3008019
:1048200008B547F28473C2F2000345F6B8409A68AF
:10483000C0F60100511C996000F07AF946F284300C
:10484000C2F2000041F2D431BDE8084000F060B986
:1048500008B545F6CC40C0F6010000F069F945F610
:10486000DC40C0F601000721BDE8084000F050B967
:10487000482808B515D04F2817D0572819D04228F6
:104880001BD043281DD0742807D0542805D00F4BC7
:104890001A69501C1861002008BDFFF7D9FF0120DC
:1048A00008BDFFF795FF012008BDFFF7A9FF012014
:1048B00008BD00F04DF9012008BD00F089F9012084
:1048C00008BDFFF7ADFF012008BD00BF84770020C1
:1048D000022906D0032906D00748012918BF002065
:1048E000704706487047032A03D8054800EBC2000A
:1048F00070470020704700BFA05E0108705D01088E
:10490000705E0108AFF30080AFF30080AFF300806A
:10491000022938B50C46054616D1202383F31188A9
:10492000FDF7EEF928460121084A03F0D9F821469F
:10493000074A284603F0D4F8064802F0F9FDFDF7CF
:10494000BFF9002383F3118838BD00BFF05C010874
:10495000805D010898770020AFF30080AFF30080FE
:1049600038B547F29875C2F2000545F690642846BE
:10497000C0F6010402F074FD2146284602F0A0FDB5
:104980002468236D9A6B48F2A06022F40021996399
:10499000C0F20100FDF794FC45F6B0512046C0F688
:1049A000010103F065F8236D986B002440F40022A8
:1049B00046F660409A632146C2F20100C4F2020446
:1049C00002F02EFC0421204640F2823209F008FD5C
:1049D0002046082140F28232BDE8384009F000BD8F
:1049E00047F29873C2F20003D3F8540201680A78C0
:1049F000131F584258417047AFF30080AFF3008057
:104A00000D4B0E4A986970B50D4E0E4D826102E055
:104A10002B68581C286031680948CC68A04704B24C
:104A20002046FFF725FF0028F2D1214606482246FE
:104A300000F00EFFECE700BF98090010B05E01081F
:104A4000D86C0120E07C0020C45E0108AFF3008038
:104A500010B54FF44064C4F20204204604F0A8FDEF
:104A6000014645F6E4600922C0F6010000F0F0FEC0
:104A7000204604F09DFD014645F6F4600822C0F68C
:104A8000010000F0E5FE47F2847447F6E043C2F20D
:104A90000003C2F2000445F6047019682269C0F6EA
:104AA000010000F0D5FE45F62C702168C0F601002B
:104AB00000F0CEFE45F6487061682C22C0F6010079
:104AC00000F0C6FE45F66C70A168C0F6010041F228
:104AD000D43200F0BDFE45F69070E168C0F60100EA
:104AE00041F2D43200F0B4FE47F62421C2F20001B4
:104AF00045F6B4700968C0F60100BDE8104000F04A
:104B0000A7BE00BFAFF30080AFF30080AFF300801B
:104B100038B546F6D843C2F2010305461C680A467A
:104B2000246818462946A04738BD00BFAFF300806F
:104B3000014608B547F2A820C0F6010000F088FE43
:104B4000BDE80840FFF784BFAFF30080AFF30080FB
:104B500047F62423C2F2000345F6D0701A6810B558
:104B6000511CC0F601001960FFF7E2FF45F6E07046
:104B7000C0F60100032100F06BFE46F6D840C2F2F9
:104B8000010047F620240368C2F200045B68032298
:104B900021469847014645F6F070C0F6010000F046
:104BA00057FE45F6FC70C0F60100B4F90010A2787B
:104BB00000F04EFE40F25000C2F20000A178B4F9BD
:104BC00000200368995410BDAFF30080AFF300805C
:104BD00008B547F28473C2F2000346F21400DA68A3
:104BE000C0F60100511CD960FFF7A2FF40F260201F
:104BF000C2F2000046F28431C2F2000141F2D43226
:104C000000680FF03DF9BDE8084006F069BC00BF40
:104C100040F26023C2F2000346F284301968C2F207
:104C2000000041F2D4320FF02BB900BFAFF3008087
:104C300010B546F2240147F6E44082B0C0F6010107
:104C4000C2F2000000F034FD46F23400C0F601006C
:104C50004FF4406400F0FCFDC4F2020446F24C0044
:104C600021460922C0F6010040F2823304F0C8FD5B
:104C700046F25C00082240F282332146C0F6010071
:104C800004F0BEFD46F6D84040F25401C2F20100E5
:104C9000C2F2000102F0C4FAFFF7BAFF46F26C005C
:104CA00044F65121C0F60100C0F6000100F0C0FE3C
:104CB0000023009347F6282044F601234FF42E7179
:104CC0004022C0F60003C2F20000FDF7D9FA02B09C
:104CD00010BD00BFAFF30080AFF30080AFF30080E2
:104CE00010B506F05DFD47F25874C2F20004206072
:104CF00008F0C6F8606008F073F9A06007F070FF74
:104D0000E06007F07DFF206107F0A2FF606107F01F
:104D1000DFFFE06107F054FF208406F0C1FF60620E
:104D200007F01EF8A06210BDAFF30080AFF3008063
:104D300048F2E813C2F2000301221A60704700BF74
:104D40002DE9F04707EE901A2DED048BB8EEE78AB7
:104D5000DFED368A88EE288A84B0074646F2700472
:104D6000C0F6010446F28008C0F6010846F2B40617
:104D7000C0F6010618EE101A07F0F2F8824608F0A5
:104D80002FF907F0ADF8054608F07AF807F090F82B
:104D9000814607F09DFF07F0BBF809EE100A504668
:104DA000FBF76AFB02460B46204600F051FD284601
:104DB000FBF762FB044648460D46FBF75DFB29EE18
:104DC000280A2246BDEEC09A2B46CDE900018DEDA2
:104DD000029A404600F03CFD18EE101A384607F0E3
:104DE000F7F800EE900A20EEA81A18EE100AFDEE71
:104DF000C18AFBF741FBCDED008A02460B463046E7
:104E0000394600F025FD18EE908A47F6E07046F22C
:104E1000D40118EE902AC2F20000C0F6010104B0DD
:104E2000BDEC048BBDE8F04700F0B2BC0000C84206
:104E300070B506460C4648F2EC10314610EE102ACA
:104E40002346C2F2000010EE105A00F0B9FB48F2FF
:104E5000E400C2F2000031462A462346BDE8704015
:104E600000F0AEBBAFF30080AFF30080AFF3008083
:104E700046F2F00146F2EC03C0F60103C0F6010170
:104E8000002818BF194610B50446054800F0E0FC9C
:104E900004480549224600F013FC0448046010BD94
:104EA000F4600108EC81002010610108E87D002019
:104EB00047F6E853C2F2000318687047AFF300806A
:104EC0000220012104F004BDAFF30080AFF30080A5
:104ED00043F25833C2F200031868003018BF0120B3
:104EE000704700BFAFF30080AFF30080AFF30080E6
:104EF000F8B5FFF775FD00B9F8BD7E4C236893B196
:104F00000220012104F0E4FC7B4D21687B4C7C48AD
:104F100022682B6800F09CFC48F2A060C0F20100FF
:104F2000FDF7CEF9FEE700F05BFC04F001FA7548EE
:104F300001680029E0D0744E744FF26845F6C5242C
:104F40005509C0F67C24A4FB0513DC0904F008FA1B
:104F5000054638686E49A84202D10A68A242CBD001
:104F60000C6006F01DFC04466A483D6000F058FBEA
:104F7000F7686948694E48F21F53C5F2EB13A3FB6B
:104F80000712510907EE901ADFED650AB8EEE70A3D
:104F9000032180EE200AFFF74BFF06F001FC0746D5
:104FA000604961483A4600F093FA5E4959483A46EA
:104FB00000F08EFA07F024FE022100EE100A5B4892
:104FC000FFF736FF306803685BB1052000F048FA50
:104FD000074606F0C5FE022100EE100A3846FFF72C
:104FE00027FF07F035FE022100EE100A5048FFF7B8
:104FF0001FFF07F055FE022100EE100A4D48FFF793
:1050000017FF032000F02CFA074607F0E9FD022104
:1050100000EE100A3846FFF70BFF366872685AB187
:10502000012000F01DFA064607F02AFF022100EEDB
:10503000100A3046FFF7FCFE022000F011FA064687
:1050400007F0CEFF022100EE100A3046FFF7F0FE17
:105050003049D1F8F40005F0B3F82A463649324811
:1050600000F036FA07F0CCFD05462946204606F04A
:1050700077FF0223024631492B4800F0A1FA07F0DE
:10508000AFFF06F02DFF022302462D49264800F00F
:1050900097FA07F0F5FE06F00BFF022302462949B6
:1050A000214800F08DFA07F013FE06F031FF0223CD
:1050B000024625491C4800F083FA2946204606F09E
:1050C00087FF022302462149174800F079FA294652
:1050D000204605F0C5FD1E4902460223124800F095
:1050E0006FFA114803F074FC0F48BDE8F84000F077
:1050F000AFBA00BF5833002050330020483300209F
:1051000014610108E87D0020B4090010600000204F
:1051100064000020E4800020306101085402002077
:1051200000007A4438610108EC8100203C610108EC
:1051300040610108446101084C61010854610108A3
:10514000606101086C6101087861010884610108EF
:105150008C610108AFF30080AFF30080AFF30080F3
:1051600047F6EC5248F2EC1046F2941108B5C2F240
:1051700000024FF4FA73C2F20000C0F6010100F021
:1051800077FA47F6E07046F2A011C2F20000C0F6CE
:10519000010100F08DFA46F2B41148F2E400C0F6C5
:1051A0000101C2F2000000F083FA0120FFF760FE67
:1051B00046F2C01044F64151C0F60100C0F60001AD
:1051C00000F046FC46F2101044F67161C0F6010092
:1051D000C0F6000100F034FC47F2F44044F63151CF
:1051E000C0F60100C0F60001BDE8084000F020BC98
:1051F0000F4B104A70B4DC68156848F29F63651B5A
:10520000C0F201039D42064607EE901A01DC70BC15
:1052100070479FED097A27EE870A1460FDEEC00AF9
:10522000064810EE902A314670BC00F0B1BA00BFBB
:10523000B40900106800002000007A44EC810020CE
:10524000F8B507460FF00CF8114B124D064693E8DF
:1052500003002860A980681D314600F049FE04461D
:105260003A2004F8010B39462046A7190EF098FFA2
:105270000D210A22A1557A70FFF7B2FB00B9F8BDE3
:10528000BB1C2846591BBDE8F840FFF789B900BF91
:10529000D061010818AA0020AFF30080AFF30080AE
:1052A000F8B50E46044600293AD030460EF0D8FF35
:1052B000D4F8F4300546002B38D0D4F8F800D4F8F0
:1052C000FC20C11A6B189A4209DD6A1C31460EF0A7
:1052D000D7FDD4F8F8004519C4F8F850F8BD244DAE
:1052E0000FCD6060A16003CD2D88E2602361606115
:1052F000A161A583216804F11D000EF001FF271DA7
:105300001C4BC21BA41818883146A08038460EF0EA
:105310001FFF194938464222BDE8F840FFF750B94F
:10532000164815494922FCF72BFCBEE7144D0FCD5A
:105330006060A16003CD2D88E26023616061A1619E
:10534000A583216804F11D000EF0DAFE271D094A2D
:10535000C11B1388641838463146A3800EF0F8FE4E
:10536000054938463822BDE8F840FFF729B900BFA3
:10537000206201081C620108E4610108D86101088B
:1053800000620108AFF30080AFF30080AFF300804C
:1053900070B54AF60424C2F20004064600252046F1
:1053A000E560FDF76DFD6268E3684BF6A05130469D
:1053B000C2F20001D554BDE87040FFF771BF00BFD5
:1053C0000EB4F0B582B007AC074654F8043B1E4B50
:1053D0000194197800292CD04FF46D42CEF20002CE
:1053E0001A4D56682D6806F01F06002D27D1202380
:1053F00083F3118886B1FCF783FC3846079922466F
:10540000FFF7C6FFFCF75CFC2B4683F3118802B064
:10541000BDE8F04003B07047FCF7AAFC3846079996
:105420002246FFF7B5FFFCF783FC334683F3118870
:10543000EDE7074807495B22FFF7C2F8E7E707995E
:105440002246FFF7A5FFE2E77896002054330020BC
:105450003C620108E4610108AFF30080AFF3008013
:1054600008B5072807D8DFE800F00D0F111315174E
:1054700019040B4808BD0B480B498E22FFF7A0F812
:10548000002008BD094808BD094808BD094808BDF5
:10549000094808BD094808BD094808BD094808BDB4
:1054A000846201088C620108E46101083C870108FC
:1054B000706201086C620108686201087462010888
:1054C000806201087C620108AFF30080AFF30080C6
:1054D00070B546F2A4240546C0F601041646FFF74F
:1054E000DFFE28462146FFF7DBFE48F6540128463A
:1054F000C0F6010132462346BDE87040FFF760BFA9
:10550000013A10B504460846052A0ED8DFE802F035
:1055100017212B353F03FAF7AFFF0B46214902460F
:105520002046BDE81040FFF74BBFFAF7A5FF0B463A
:105530001D4902462046BDE81040FFF741BFFAF77B
:105540009BFF0B46194902462046BDE81040FFF775
:1055500037BFFAF791FF0B46154902462046BDE8D2
:105560001040FFF72DBFFAF787FF0B46114902469F
:105570002046BDE81040FFF723BFFAF77DFF0B463A
:105580000D4902462046BDE81040FFF719BFFAF763
:1055900073FF0B46094902462046BDE81040FFF75D
:1055A0000FBF00BFDC620108E8620108A8620108C1
:1055B000B0620108B8620108C4620108D062010843
:1055C000F8B546F2A4240546C0F601041E46174667
:1055D000FFF766FE28462146FFF762FE2846394659
:1055E0003246FFF78DFF28462146BDE8F840FFF719
:1055F00057BE00BFAFF30080AFF30080AFF3008071
:1056000046F2EC2146F2A422C0F60101C0F60102E6
:10561000FFF7D6BEAFF30080AFF30080AFF300809A
:1056200038B5D0F8F450044615B1C4F8F85038BD78
:105630000448054940F21B12FCF7A2FAC4F8F850DE
:1056400038BD00BFF4620108E4610108AFF30080D7
:1056500010B50446D0F8F400FFF7F2FD2046BDE88F
:105660001040FFF7DDBF00BFAFF30080AFF3008055
:10567000F8B5044646F200301F460D461646C0F601
:10568000010000F0E5F82560C4F8F460C4F8FC708F
:105690002046FFF7C5FF43F60913C0F2B223C4F852
:1056A0000031F8BDAFF30080AFF30080AFF30080AE
:1056B00000F12C02C823FFF7DBBF00BFAFF300806F
:1056C00070B5044682B00E461546FFF7A9FF204686
:1056D000FFF796FF46F2A423C0F6010347F24C41C0
:1056E00000932046C0F6010132462B46FFF768FEC4
:1056F000204602B0BDE87040FFF7AABFAFF30080BC
:1057000070B50446D0F8F4000C4D0EF0A9FD064625
:10571000FFF736F828460EF0A3FD41F287338619CD
:105720009E4204DCD4F8F41028180EF039FDFFF77F
:1057300047F82046BDE87040FFF772BF7C96002016
:10574000F8B504460F4646F2A4251646C0F60105F4
:10575000FFF766FF20463946FFF7A2FD204629469F
:10576000FFF79EFD46F2103132462046C0F6010199
:10577000FFF726FE20462946FFF792FD2046BDE8AA
:10578000F840FFF7BDBF00BFAFF30080AFF300806C
:1057900070B5044682B00E461546FFF741FF20461D
:1057A000FFF72EFF46F2A423C0F6010347F24C4157
:1057B00000932046C0F6010132462B46FFF700FE5B
:1057C000204602B0BDE87040FFF79ABFAFF30080FB
:1057D000D0F8F820D0F8F400101A7047AFF300802A
:1057E00038B50A4C0A4DFEF7CBFF294620460EF08D
:1057F000D7FC00232B70FEF7E3FF207800B938BDFB
:105800002046BDE83840FFF71BBD00BFF0820020F6
:105810007C960020AFF30080AFF30080AFF30080F0
:105820004AF604204BF6A05108B54FF4FA62002363
:10583000C2F20000C2F20001FDF7B2FE49F2786345
:10584000C2F2000301221A7008BD00BFAFF300804E
:105850000FB400B583B0FFF7C3F820B903B05DF80B
:1058600004EB04B0704705AA024804990192FDF7C1
:1058700007FBF3E798770020AFF30080AFF30080D9
:1058800070B50446012504E014F8013B2D2B0DD121
:105890006D4220460EF0E4FC22460028F4D144F28A
:1058A0003012C0F2AB0202FB05F070BD002834DDFF
:1058B000303BD9B2092929D810180138811A00249F
:1058C000C90717D512F8011F1C46A1F13003D9B240
:1058D00009290FD91AE011F8014F303C0A46E1B20C
:1058E000092904EB460411D812F8013F303BD9B224
:1058F00009290BD804EB840403EB440382421146CC
:1059000003EB8306E7D103FB05F070BD4BF6D060D7
:10591000CFF6547000FB05F070BD002070BD00BFD5
:1059200070B50D4606460EF09BFC044628460EF068
:1059300097FC844201D0002070BD002C25DD327818
:105940002B789A42F7D10022E0073346294617D434
:1059500013F8015F11F8010F01228542EBD10132EA
:10596000944202F1010210D013F8015F11F8010F07
:105970008542E0D113F8015F11F8010F8542DAD1B9
:105980000132944202F10102EED1012070BD00BF4C
:1059900070B50C4E0C483168FFF75AFF3368002B86
:1059A0000FDD0A4D002404EB440105EB8102084899
:1059B00055F821105268FFF74BFF30680134A042C0
:1059C000F1DC70BD70C500202063010840C70020D5
:1059D00038630108AFF30080AFF30080AFF30080BD
:1059E000014646F25030C0F60100FFF731BF00BF5C
:1059F000F0B40B4C23682A2B0BD00A4F03EB430661
:105A0000B600BD190133B85123606960AA60F0BCCB
:105A10007047054805491B22F0BCFEF7D1BD00BF09
:105A200070C5002040C70020606301087C63010846
:105A30000A460021FFF7DCBFAFF30080AFF3008020
:105A40000A460121FFF7D4BFAFF30080AFF3008017
:105A50000A460421FFF7CCBFAFF30080AFF300800C
:105A60000A460321FFF7C4BFAFF30080AFF3008005
:105A700008B546F29C3045F69111C0F60100C0F61B
:105A80000001FFF7D5FF46F2A43045F6E111C0F65C
:105A90000100C0F60001BDE80840FFF7D1BF00BF1C
:105AA000F8B54368032B06460D4671D0042B084613
:105AB0000CD0022B43D0FFF7E3FE4BF6D061CFF6BC
:105AC0005471884235D0B2689047F8BD0EF0C8FBDB
:105AD0000028FADD2C78202C00F099806C1C002224
