:020000040800F2
:1000000000040020B1150008F1160008F1160008E0
:10001000F1160008F1160008F1160008F1160008A4
:10002000F1160008F1160008F11600086117000823
:10003000F1160008F1160008F11600086118000812
:10004000F1160008F1160008F1160008F116000874
:10005000F1160008F1160008F1160008F116000864
:10006000F1160008F1160008F1160008B19000081A
:10007000E19000082191000861910008A191000819
:10008000D191000811920008319A0008F116000879
:10009000F1160008F1160008F1160008F116000824
:1000A000F1AC000871AC0008F116000891AC000832
:1000B000B1AC0008D1AC000861B00008F11600082E
:1000C000F1160008F1160008F1160008F1160008F4
:1000D000F1160008F1160008C1B30008E1B30008EA
:1000E000F1160008F1160008F1160008F1160008D4
:1000F000F1160008F1160008F116000851920008E8
:10010000F1160008F116000881B00008F116000889
:10011000F1160008F1160008F1160008F1160008A3
:1001200091920008C19200080193000841930008D1
:1001300081930008F1160008F1160008F116000876
:10014000F1160008F1160008F116000801A30008D6
:10015000B1930008F193000831940008F1160008EB
:10016000F1160008F1160008F1160008F116000853
:10017000F1160008F1160008F1160008F116000843
:08018000F1160008F116000859
:1001900008B504F075FE01F00BFC03F041F806F021
:1001A000FFFB07F0ADFD06F0C3FB03F071FD074850
:1001B00004F0CEF8064B01221A6003F061FC03F054
:1001C0004FFB4FF4FA7002F003F8F6E7A0E10008E5
:1001D00038080120AFF30080AFF30080AFF3008058
:1001E00030F0004001D102207047A0F50003B3F1C8
:1001F000FE4F01D2042070474FF6FE73421EC0F23C
:100200007F039A4201D803207047B0F1FF43584260
:10021000584170470000000000000000000000008E
:100220002DE9F0418AB004460D4600F071F840F621
:100230000008C2F2000898F90030013306460F4664
:100240000BD02046294600F05BFA30B12046294603
:100250000022002300F0DAFE20B1304639460AB011
:10026000BDE8F08198F800604EF2C013C0F60003BC
:10027000CDE9024501930023CDE90445089366BB0F
:100280004FF6FF734FF06042CCF2EF73CDE90623D7
:10029000204629460022002300F090FE60B1022390
:1002A00000939E4225D0684600F052FA08B3089B9E
:1002B00023BBDDE90667D0E70123022E009313D0AC
:1002C000684600F045FA78B14BF60460C0F60000CD
:1002D00000F046FACDE90601E9E700230022CFF657
:1002E000F073CDE90623D3E700F0EAFE2123036093
:1002F000EAE700F0E5FE22230360D8E700F0E0FE25
:10030000089B0360D5E700BF00000000000000006C
:10031000B1F5801F02462DE9F04F0B4687B0044629
:100320000D460E4662DA21F00045054300F0FE80DE
:100330000029C0F27D8100230022C4F250336FF007
:10034000350700F0CDFB0D460B464FF6FF71024618
:10035000C7F6EF718D4250DC25F07F46002326F46E
:100360007006104606F51524002204F66474C3F6E0
:10037000F07304F480142D1584F07F5EA5F2FF3530
:100380008EF4401EEF194EEA060107EB145800F0F8
:10039000F3F9B31C23F470030022022B82468B4630
:1003A00032DC002300F00AFE002800F0C8800020A4
:1003B0000021B8F1000F24D0404600F02BFBA0A391
:1003C000D3E9002306460F4600F08AFB9EA3D3E93B
:1003D000002304460D463046394600F081FB0246B4
:1003E0000B462046294600F0C9F90AE04FF6FF7196
:1003F0000027C7F6EF718D42AEDD1046194600F0BA
:10040000BDF907B0BDE8F08F4FF08043A6F5C227D5
:1004100000F0B4F9C6F5D7265136A7F27A4737432C
:1004200002460B465046594600F084FCCDE90201D5
:10043000404600F0EFFACDE90401DDE90201024691
:100440000B4600F04DFB02460B46CDE9000100F0E3
:1004500047FB7FA3D3E9002304460D4600F040FB91
:100460007DA3D3E9002300F089F922462B4600F052
:1004700037FB7BA3D3E9002300F080F922462B460B
:1004800000F02EFB78A3D3E9002300F077F9DDE933
:10049000002300F025FB76A3D3E90023CDE900017A
:1004A0002046294600F01CFB73A3D3E9002300F08B
:1004B00065F922462B4600F013FB71A3D3E9002314
:1004C00000F05CF922462B4600F00AFB02460B4680
:1004D000DDE9000100F052F9002F04460D4658DD19
:1004E00000230022C3F6E0735046594600F0F8FAA4
:1004F00052465B4600F0F4FA06460F46B8F1000F8C
:1005000063D122462B4600F039F9DDE9022300F0E1
:10051000E7FA02460B463046394600F02DF902460E
:100520000B465046594600F027F96AE700210020A3
:1005300000220023CCF2503100F0FCFB61E7524670
:100540005B465046594600F0CBFA4FA3D3E900234F
:1005500004460D465046594600F0C2FA0B460021AB
:100560000246C3F6E071002000F006F902460B4691
:100570002046294600F0B4FA04460D46B8F1000FB3
:1005800040F086805046594622462B4600F0F4F84B
:1005900037E7B8F1000F00F09F8029A3D3E90023CB
:1005A000DDE9040100F09CFA22462B4606460F4680
:1005B0005046594600F0E0F8DDE9022300F090FAD9
:1005C00004460D46DDE9040170E01DA3D3E90023D4
:1005D000DDE9040100F084FA22462B468046894674
:1005E0003046394600F0CAF8DDE9022300F078FA17
:1005F00015A3D3E9002304460D46DDE9040100F00C
:100600006FFA02460B462046294600F0B7F802462C
:100610000B463046394600F0AFF852465B4600F0D4
:10062000ABF802460B464046494600F0A5F8E8E61E
:1006300000F0A2F80022002300F07CFBE1E600BFFE
:100640000000E0FE422EE63F763C7935EF39EA3D88
:1006500044523EDF12F1C23FDE03CB966446C73FF1
:10066000599322942449D23F935555555555E53F0A
:100670009FC678D0099AC33FAF788E1DC571CC3F15
:1006800004FA97999999D93F555555555555D53FE0
:10069000404600F0BFF916A3D3E9002380468946FF
:1006A00000F01EFA06460F464046494612A3D3E91B
:1006B000002300F015FA02460B462046294600F0BA
:1006C0005BF852465B4600F057F802460B46304650
:1006D000394600F051F894E622462B4650465946DA
:1006E00000F04AF8DDE9022300F0FAF917E700BF4D
:1006F0000000E0FE422EE63F763C7935EF39EA3DD8
:1007000050EA010201D102207047D0F1010238BF46
:100710000022B1F1004F08BF0028F4D021F00043BF
:100720004FF6FF71A3F58010C7F6DF71884201D83C
:1007300004207047B3F5801F01D2032070470020CA
:10074000C7F6F070834214BF002002F0010070472A
:1007500000207047000000000000000000000000C2
:1007600000210020C7F6F871704700BF00000000AC
:1007700081F0004102E000BF83F0004330B54FEA52
:1007800041044FEA430594EA050F08BF90EA020FBF
:100790001FBF54EA000C55EA020C7FEA645C7FEA52
:1007A000655C00F0E2804FEA5454D4EB5555B8BF75
:1007B0006D420CDD2C4480EA020281EA030382EAE6
:1007C000000083EA010180EA020281EA0303362D78
:1007D00088BF30BD11F0004F4FEA01314FF4801C4B
:1007E0004CEA113102D0404261EB410113F0004F5D
:1007F0004FEA03334CEA133302D0524263EB430314
:1008000094EA050F00F0A780A4F10104D5F1200EB1
:100810000DDB02FA0EFC22FA05F2801841F100010C
:1008200003FA0EF2801843FA05F359410EE0A5F1E0
:1008300020050EF1200E012A03FA0EFC28BF4CF011
:10084000020C43FA05F3C01851EBE37101F00045C7
:1008500007D54FF0000EDCF1000C7EEB00006EEBD4
:100860000101B1F5801F1BD3B1F5001F0CD349085E
:100870005FEA30004FEA3C0C04F101044FEA4452B5
:1008800012F5800F80F09A80BCF1004F08BF5FEA3C
:10089000500C50F1000041EB045141EA050130BD1C
:1008A0005FEA4C0C404141EB010111F4801FA4F1BF
:1008B0000104E9D191F0000F04BF01460020B1FA14
:1008C00081F308BF2033A3F10B03B3F120020CDA4C
:1008D0000C3208DD02F1140CC2F10C0201FA0CF02A
:1008E00021FA02F10CE002F11402D8BFC2F1200C8F
:1008F00001FA02F120FA0CFCDCBF41EA0C01904045
:10090000E41AA2BF01EB0451294330BD6FEA04048D
:100910001F3C1CDA0C340EDC04F11404C4F1200278
:1009200020FA04F001FA02F340EA030021FA04F38A
:1009300045EA030130BDC4F10C04C4F1200220FAE1
:1009400002F001FA04F340EA0300294630BD21FA1F
:1009500004F0294630BD94F0000F83F4801306BFE5
:1009600081F480110134013D4EE77FEA645C18BFD9
:100970007FEA655C29D094EA050F08BF90EA020F70
:1009800005D054EA000C04BF1946104630BD91EA68
:10099000030F1EBF0021002030BD5FEA545C05D16B
:1009A0004000494128BF41F0004130BD14F58004AA
:1009B0003CBF01F5801130BD01F0004545F0FE411E
:1009C00041F470014FF0000030BD7FEA645C1ABF53
:1009D000194610467FEA655C1CBF0B46024650EA8A
:1009E000013406BF52EA033591EA030F41F40021B6
:1009F00030BD00BF90F0000F04BF0021704730B53C
:100A00004FF4806404F132044FF000054FF0000110
:100A100050E700BF90F0000F04BF0021704730B5D1
:100A20004FF4806404F1320410F0004548BF4042A6
:100A30004FF000013EE700BF42004FEAE2014FEAFB
:100A400031014FEA02701FBF12F07F4393F07F4FD6
:100A500081F06051704792F0000F14BF93F07F4F08
:100A6000704730B54FF4607401F0004521F000414B
:100A700020E700BF50EA010208BF704730B54FF0D1
:100A800000050AE050EA010208BF704730B511F0D6
:100A9000004502D5404261EB41014FF4806404F10E
:100AA00032045FEA915C3FF4DCAE4FF003025FEA90
:100AB000DC0C18BF03325FEADC0C18BF033202EB18
:100AC000DC02C2F1200300FA03FC20FA02F001FA72
:100AD00003FE40EA0E0021FA02F11444C1E600BF11
:100AE00070B54FF0FF0C4CF4E06C1CEA11541DBFC4
:100AF0001CEA135594EA0C0F95EA0C0F00F0DEF88F
:100B00002C4481EA030621EA4C5123EA4C5350EA73
:100B1000013518BF52EA033541F4801143F48013C4
:100B200038D0A0FB02CE4FF00005E1FB02E506F055
:100B30000042E0FB03E54FF00006E1FB03569CF0AA
:100B4000000F18BF4EF0010EA4F1FF04B6F5007FB0
:100B500064F5407404D25FEA4E0E6D4146EB060622
:100B600042EAC62141EA55514FEAC52040EA5E50AB
:100B70004FEACE2EB4F1FD0C88BFBCF5E06F1ED855
:100B8000BEF1004F08BF5FEA500E50F1000041EB8C
:100B9000045170BD06F0004646EA010140EA020039
:100BA00081EA0301B4EB5C04C2BFD4EB0C0541EA5B
:100BB000045170BD41F480114FF0000E013C00F370
:100BC000AB8014F1360FDEBF002001F0004170BD94
:100BD000C4F10004203C35DA0C341BDC04F11404AD
:100BE000C4F1200500FA05F320FA04F001FA05F239
:100BF00040EA020001F0004221F0004110EBD37006
:100C000021FA04F642EB06015EEA430E08BF20EA31
:100C1000D37070BDC4F10C04C4F1200500FA04F3D4
:100C200020FA05F001FA04F240EA020001F0004166
:100C300010EBD37041F100015EEA430E08BF20EAD9
:100C4000D37070BDC4F1200500FA05F24EEA020E21
:100C500020FA04F301FA05F243EA020321FA04F050
:100C600001F0004121FA04F220EA020000EBD37007
:100C70005EEA430E08BF20EAD37070BD94F0000F07
:100C80000FD101F00046400041EB010111F4801F3B
:100C900008BF013CF7D041EA060195F0000F18BFEC
:100CA000704703F00046520043EB030313F4801F28
:100CB00008BF013DF7D043EA0603704794EA0C0FE2
:100CC0000CEA135518BF95EA0C0F0CD050EA4106F8
:100CD00018BF52EA4306D1D181EA030101F0004175
:100CE0004FF0000070BD50EA410606BF104619469D
:100CF00052EA430619D094EA0C0F02D150EA0136A9
:100D000013D195EA0C0F05D152EA03361CBF1046E9
:100D100019460AD181EA030101F0004141F0FE4188
:100D200041F470014FF0000070BD41F0FE4141F40C
:100D3000780170BD70B54FF0FF0C4CF4E06C1CEA0C
:100D400011541DBF1CEA135594EA0C0F95EA0C0FC1
:100D500000F0A7F8A4EB050481EA030E52EA03357C
:100D60004FEA013100F088804FEA03334FF080559D
:100D700045EA131343EA12634FEA022245EA1115CA
:100D800045EA10654FEA00260EF000419D4208BF7B
:100D9000964244F1FD0404F5407402D25B084FEA28
:100DA0003202B61A65EB03055B084FEA32024FF4D4
:100DB00080104FF4002CB6EB020E75EB030E22BF31
:100DC000B61A754640EA0C005B084FEA3202B6EBF1
:100DD000020E75EB030E22BFB61A754640EA5C00A0
:100DE0005B084FEA3202B6EB020E75EB030E22BF30
:100DF000B61A754640EA9C005B084FEA3202B6EB31
:100E0000020E75EB030E22BFB61A754640EADC00EF
:100E100055EA060E18D04FEA051545EA16754FEA51
:100E200006164FEAC30343EA52734FEAC2025FEA6F
:100E30001C1CC0D111F4801F0BD141EA00014FF0FE
:100E400000004FF0004CB6E711F4801F04BF0143CF
:100E50000020B4F1FD0C88BFBCF5E06F3FF6AFAEEB
:100E6000B5EB030C04BFB6EB020C5FEA500C50F17B
:100E7000000041EB045170BD0EF0004E4EEA1131FE
:100E800014EB5C04C2BFD4EB0C0541EA045170BD05
:100E900041F480114FF0000E013C90E645EA060E49
:100EA0008DE60CEA135594EA0C0F08BF95EA0C0F77
:100EB0003FF43BAF94EA0C0F0AD150EA01347FF4BF
:100EC00034AF95EA0C0F7FF425AF104619462CE796
:100ED00095EA0C0F06D152EA03353FF4FDAE1046F9
:100EE000194622E750EA410618BF52EA43067FF44A
:100EF000C5AE50EA41047FF40DAF52EA43057FF4DA
:100F0000EBAE12E70000000000000000000000004F
:100F10004FF0FF3C06E000BF4FF0010C02E000BFC5
:100F20004FF0010C4DF804CD4FEA410C7FEA6C5CA8
:100F30004FEA430C18BF7FEA6C5C1BD001B050EA4B
:100F4000410C0CBF52EA430C91EA030F02BF90EA36
:100F5000020F0020704710F1000F91EA030F58BFF5
:100F6000994208BF90422CBFD8176FEAE37040F057
:100F7000010070474FEA410C7FEA6C5C02D150EAF5
:100F8000013C07D14FEA430C7FEA6C5CD6D152EAB0
:100F9000033CD3D05DF8040B704700BF8446104675
:100FA00062468C461946634600E000BF01B5FFF774
:100FB000B7FF002848BF10F1000F01BD4DF808ED44
:100FC000FFF7F4FF0CBF012000205DF808FB00BF15
:100FD0004DF808EDFFF7EAFF34BF012000205DF86F
:100FE00008FB00BF4DF808EDFFF7E0FF94BF0120BC
:100FF00000205DF808FB00BF4DF808EDFFF7CEFFBD
:1010000094BF012000205DF808FB00BF4DF808EDFB
:10101000FFF7C4FF34BF012000205DF808FB00BFCC
:101020004FEA4102B2F1E04324BFB3F5001CDCF10A
:10103000FE5C0DD901F0004C4FEAC0024CEA507042
:10104000B2F1004F40EB830008BF20F00100704771
:1010500011F0804F21D113F13872BCBF01F0004074
:10106000704741F480114FEA5252C2F11802C2F1A6
:10107000200C10FA0CF320FA02F018BF40F0010027
:101080004FEAC1234FEAD32303FA0CFC40EA0C00D9
:1010900023FA02F34FEA4303CCE77FEA625307D116
:1010A00050EA01331EBF4FF0FE4040F4400070474D
:1010B00001F0004040F0FE4040F40000704700BFE7
:1010C00040F60403C2F200031868704700000000F5
:1010D000032A2DE9F00F09D82AB10023CC5CC454AF
:1010E00001339342FAD1BDE8F00F70478307024401
:1010F0000ED0441C4D1C15F8017C04F00306234659
:1011000001342946013504F8027C002EF3D100E0B9
:10111000034611F003046DD0D71A0D1B032F2E6860
:1011200019DDC4F1040C4FEAC4081C1D4FEACC0CB5
:1011300055F8047FC4EB0209234604310434B9F1A5
:10114000030F26FA08FA07FA0CFB3E464BEA0A0799
:1011500044F8087CECDC9A42C5D9013301310132F4
:1011600011F8014C01330131934203F8024CF7D1DD
:10117000B9E70C684033403143F8404C51F83C4CDF
:1011800043F83C4C51F8384C43F8384C51F8344C47
:1011900043F8344C51F8304C43F8304C51F82C4C57
:1011A00043F82C4C51F8284C43F8284C51F8244C67
:1011B00043F8244C51F8204C43F8204C51F81C4C77
:1011C00043F81C4C51F8184C43F8184C51F8144C87
:1011D00043F8144C51F8104C43F8104C51F80C4C97
:1011E00043F80C4C51F8084C43F8084C51F8044CA7
:1011F00043F8044CD41A3F2CBBDC11E00C681033CC
:10120000103143F8104C51F80C4C43F80C4C51F889
:10121000084C43F8084C51F8044C43F8044CD41AD9
:101220000F2CEBDC032C96DD1C1D0D1D55F8047CEA
:10123000161B2346294604340435032E44F8087C43
:10124000F4DC88E70000000000000000000000005F
:10125000032AC9B270B408D82AB10346121803F899
:10126000011B9342FBD170BC70478307024409D035
:10127000441C04F00305234604F8011C0134002D2E
:10128000F7D100E00346D51A01EB01243F2D04EB12
:1012900004442CDD1C604033D51A43F83C4C3F2DF0
:1012A00043F8384C43F8344C43F8304C43F82C4C5A
:1012B00043F8284C43F8244C43F8204C43F81C4C8A
:1012C00043F8184C43F8144C43F8104C43F80C4CBA
:1012D00043F8084C43F8044CDCDC08E01C60103395
:1012E000D51A43F80C4C43F8084C43F8044C0F2D26
:1012F000F4DC032D08DD1D1D561B45F8044C032EA0
:101300002B4605F10405F7DC9A42ACD901330132D2
:1013100003F8011C01339342FAD1A4E70000000056
:1013200041EA00039B0710B414D10B68A3F101320A
:1013300022EA030212F0803F0CD10A1D40F8043B60
:10134000114652F8043BA3F1013424EA030414F0DB
:10135000803FF3D04A1E12F8013F00F8013B002BFA
:10136000F9D1013810BC70470000000000000000F7
:10137000830770B5064614D10368A3F1013222EA4F
:10138000030313F0803F0CD1031D1A4653F8044B9E
:10139000A4F1013525EA040414F0803FF5D010468D
:1013A00000E0304603782BB1431C18460133047823
:1013B000002CFAD100F004F8304670BD00000000A7
:1013C00080EA0102844612F0030F4FD111F0030F9F
:1013D00032D14DF8044D11F0040F51F8043B0BD0FD
:1013E000A3F101329A4312F0803F04BF4CF8043B52
:1013F00051F8043B16D100BF51F8044BA3F1013260
:101400009A4312F0803FA4F101320BD14CF8043B17
:10141000A24312F0803F04BF51F8043B4CF8044B48
:10142000EAD023460CF8013B13F0FF0F4FEA3323B9
:10143000F8D15DF8044B704711F0010F06D011F898
:10144000012B0CF8012B002A08BF704711F0020F86
:10145000BFD031F8022B12F0FF0F16BF2CF8022B71
:101460008CF8002012F47F4FB3D1704711F8012B94
:101470000CF8012B002AF9D1704700BF00000000D2
:1014800020F0030110F00300C0F1000051F8043B0C
:1014900000F1040C4FEACC0C6FF000021CBF22FAE2
:1014A0000CF213434FF0010C4CEA0C2C4CEA0C4CA0
:1014B000A3EB0C0222EA030212EACC1204BF51F899
:1014C000043B0430F4D013F0FF0F1FBF013013F4BE
:1014D0007F4F013013F47F0F18BF0130704700BFFA
:1014E00070B4002A45D041EA000313F0030329D168
:1014F000032A27D905680C68A54223D1141F3AD0C6
:10150000A5F1013222EA050515F0803F0DD03AE041
:101510005B686A68A3F10135934225EA03052ED181
:10152000043C28D015F0803F27D10D4603460431F6
:101530000430032CECD8661E2CB91C792A79A01A29
:1015400070BC7047561E04780A789442F7D1C6B131
:101550008CB101368B1C891904E08B4203F1010325
:101560000BD044B113F8012C10F8014F9442F4D081
:10157000E5E71046E4E72046E2E70020E0E7661EE4
:10158000E1E73046DCE71846DAE700BF000000007C
:10159000704700BFAFF30080AFF30080AFF300806F
:1015A000FEE700BFAFF30080AFF30080AFF3008031
:1015B00072B63E4880F309883D4B3E491A684FF0A9
:1015C000404442F470020C601A600023E1EE103ACD
:1015D000394A1360062383F31488BFF36F8F374AA9
:1015E000374B9A420BD2D143C91821F00301131F84
:1015F00089184FF0553243F8042F8B42FBD1314A02
:1016000082420CD23049131DC91A21F00301131F65
:1016100089184FF0553243F8042F8B42FBD109F063
:1016200067FF2A492A4B99420BD2C843C01820F0C1
:101630000300284C04300023E258CA50043383428C
:10164000FAD1254A254B9A420AD2D143C91821F032
:101650000301131F8918002243F8042F8B42FBD18A
:10166000FFF796FF1E4D1F4B9D420BD2EE43F6181F
:10167000B608043D0136002455F8043F013498476C
:10168000B442F9D1FEF784FD174D184B9D420BD2A1
:10169000EE43F618B608043D0136002455F8043F21
:1016A00001349847B442F9D1FFF77AFF00080020CF
:1016B00088ED00E034EF00E03CEF00E000000020A7
:1016C000000400200004002003080020000800207F
:1016D00004170020D8E10008081700203C0801206A
:1016E00088010008880100088801000888010008B6
:1016F000FEE700BFAFF30080AFF30080AFF30080E0
:10170000F8B5094D094E07460FCD34460FC42B6876
:101710002370B9692046FFF753FE054930462E2253
:10172000BDE8F84000F0B4B960B500080817002023
:1017300074B50008AFF30080AFF30080AFF3008012
:1017400072B6FEE7AFF30080AFF30080AFF3008026
:1017500000F096FA00F084FC00F072FA00DF00BF9F
:10176000EFF30982064BD2F8CC10596099686831C2
:101770009960683282F30988002383F311887047E7
:1017800030EF00E0AFF30080AFF30080AFF30080F4
:1017900008B50A4B00229A60094A07201021DA6036
:1017A00000F0DEF80A204FF4007100F0D9F80B20A9
:1017B0008021BDE8084000F0D3B800BF00ED00E094
:1017C0000003FA05AFF30080AFF30080AFF30080B1
:1017D000202383F311881A4B5B6813F4006322D033
:1017E000EFF30983A3F1680282F3098815494FF0EA
:1017F00080708A6943F84C0C92F82300096892685B
:10180000896898B1914294BF00220122A2B10E4A88
:1018100043F8502CF1EE10FA0C4A516841F00100E7
:1018200059665060704783F311887047914234BF06
:1018300000220122002AEAD1054A43F8502CEBE7A6
:1018400000ED00E08C1900205117000830EF00E097
:101850005C170008AFF30080AFF30080AFF30080A7
:1018600008B500F095F9202383F3118800F0D0F932
:1018700000F0D6F800F0ACF9002383F3118800F0F3
:1018800067F9BDE80840FFF7A3BF00BFAFF30080D2
:101890002DE9F04F2DED108AC1F80CD0D0F80CD006
:1018A000BDEC108ABDE8F08FAFF30080AFF300808D
:1018B00008B500F0C5F9002383F311882846A04736
:1018C00000F0EEFC08BD00BFAFF30080AFF3008076
:1018D000F0B484080F4BC03400F0030553F82470B3
:1018E000ED00FF26420906FA05F627EA060601FA88
:1018F00005F500F01F0002F16007012101FA00F078
:101900002E4343F8246043F8270043F82200F0BC3C
:10191000704700BF00E100E0AFF30080AFF300804C
:10192000410910B40C4B00F01F022031012404FACD
:1019300002F4820843F82140C03200F0030053F85B
:101940002210C000FF2404FA00F021EA000043F84E
:10195000220010BC704700BF00E100E0AFF3008040
:1019600082080A4B063200F0030030B4C00053F87E
:101970002250FF2404FA00F425EA040401FA00F1DD
:101980000C4343F8224030BC704700BF00ED00E03C
:10199000024B034A9B699A61FEE700BF8C19002045
:1019A0009CD70008AFF30080AFF30080AFF3008056
:1019B00030B583B0FFF7ECFE00F002FA00F090F9CA
:1019C00001F0D6F801F01CF940210E480E4C00F051
:1019D00057FB0E4BA0610125C36180F8205000F039
:1019E00067F9002383F3118862B60949A26909489F
:1019F000916100934FF4A4712A46074B00F0C8FB95
:101A000003B030BDD01700208C1900200004002046
:101A100040B800082018002091190008AFF300809A
:101A2000F8B500F07DF8164B9B6993F8232012B1AE
:101A3000013A83F823205A6A124D01325A62EB6848
:101A40002C680133AC42EB6018D0A768013FA76057
:101A5000A7B92368E6685D60E7602B6000F0B8F81E
:101A6000002383F311882069B047202383F3118872
:101A700000F0CEF82C68A368002BEAD0F8BD00BFB8
:101A80008C1900207C190020AFF30080AFF3008098
:101A9000F8B50E4C256807460E46134605B1F8BD4D
:101AA0000B490C4A0E6012680B4920600B60002A3B
:101AB000F5D139463246094802F04AFC084800F0A0
:101AC00087FBBDE8F840FFF73BBE00BF7819002058
:101AD000681900203808012070190020A0B50008FE
:101AE000A0860100AFF30080AFF30080AFF3008069
:101AF000064B1B6823B9064B1B68002B00DD7047A3
:101B000004480549D322FFF7C3BF00BF6C1900206A
:101B100074190020B4B50008BCB50008AFF300800C
:101B2000064B1B68002B04DB054B1B68002B00DDFC
:101B3000704704480449C522FFF7AABF6C1900206A
:101B400074190020DCB50008BCB50008AFF30080B4
:101B500010B5202383F31188094C2368002B02DD84
:101B6000084A12682AB108480849B522FFF790FFD1
:101B70002368013B2360002383F3118810BD00BF5D
:101B80006C1900207419002000B60008BCB50008CC
:101B900010B5202383F31188094C2368002B02DB46
:101BA000084A12682AB108480849A722FFF770FFBF
:101BB000236801332360002383F3118810BD00BF25
:101BC0006C1900207419002008B60008BCB5000884
:101BD000084B1B68002B10B5074C05DD2368002B54
:101BE00002DD0023236010BD044805499A22FFF757
:101BF0004FFFF6E76C1900207419002010B600089A
:101C0000BCB50008AFF30080AFF30080AFF30080F5
:101C1000074B1B68002B10B5064C01DD236823B170
:101C2000054806498E22FFF733FF0123236010BDCC
:101C30006C1900207419002018B60008BCB5000803
:101C4000084B1B6810B5084C2BB92368002B02DD2C
:101C50000023236010BD054805498222FFF718FFC5
:101C6000F6E700BF6C1900207419002030B6000898
:101C7000BCB50008AFF30080AFF30080AFF3008085
:101C8000074B1B6810B5074C0BB9236823B10648F6
:101C900006497622FFF7FCFE0123236010BD00BF3A
:101CA0006C1900207419002038B60008BCB5000873
:101CB000054B1B6813B9054B1B6823B10448054944
:101CC0006B22FFF7E5BE70476C19002074190020E5
:101CD00054B60008BCB50008AFF30080AFF3008035
:101CE000044B4FF0FF329A6000225B601B60DA60A9
:101CF000704700BF7C190020AFF30080AFF3008075
:101D0000F8B505460C4616461F46FFF709FFCDB14C
:101D1000C6B1BCB10E492F610B68EE609A6894425F
:101D200004D91B68A41A9A68A242FAD35A682B6095
:101D30008B426A6015605D60AC6002D09A68141BCB
:101D40009C60F8BD034804495122FFF7A1FEE1E77A
:101D50007C19002070B6000880B60008AFF3008040
:101D600010B50446FFF7DCFE84B1E368A3B1236835
:101D70000C4A934203D09968A2688A189A606268F4
:101D8000136023685A600023E36010BD06480749CA
:101D90006D22FFF77DFEE8E7054804497022FFF752
:101DA00077FEE4E77C190020A0B6000880B60008A2
:101DB000B0B60008AFF30080AFF30080AFF300804F
:101DC000034B00225B601B609A605B611B61704784
:101DD0008C190020AFF30080AFF30080AFF30080D8
:101DE00010B50446FFF79CFE94F820308BB10E2B03
:101DF0000FD00022A1680A4B84F820201B689A6843
:101E00008A42FBD25A682360626014605C6020469C
:101E100010BD044804495A22FFF73AFEE9E700BF23
:101E20008C190020D0B60008E4B60008AFF300809B
:101E300010B52023044683F31188FFF7E9FE94F8D8
:101E400020300D2B11D8DFE803F016101007100B0F
:101E5000101010101010100BA36A9A6801329A60CB
:101E600094E80C001A60226853604FF0FF33A362BD
:101E70002046FFF7B5FFFFF7ABFE002383F3118881
:101E800010BD00BFAFF30080AFF30080AFF3008060
:101E900070B5104C0646FFF72BFEA5692368E9696B
:101EA0001A6885F82060ADF1640054601426226041
:101EB0000122814285F82360A36183F8202003D9A1
:101EC0002846FFF71DFCA36918462946BDE8704067
:101ED000FFF7DEBC8C190020AFF30080AFF3008069
:101EE00070B50C4686B00646FFF702FE631C12D0A2
:101EF0000B4D0C4AAB69214601A8FFF701FF3046A4
:101F0000FFF7C6FF049B13B101A8FFF729FFAB69D8
:101F1000986A06B070BD3046FFF7BAFF004DF6E78D
:101F20008C190020311E0008AFF30080AFF3008051
:101F300070B5124D04460E46FFF7DAFDA869A26897
:101F40008368A6629A4211D9FFF74AFFC369AC6160
:101F5000ADF1640201219342064684F820100AD8AC
:101F600020463146BDE87040FFF792BC2046BDE8F0
:101F70007040FFF735BFFFF7C3FBF1E78C19002076
:101F800038B50F4C2368A5691A68012183F8201021
:101F90001421546085F8231028462260A361FFF7BE
:101FA0001FFFEB69ADF16402934202D92846FFF7A7
:101FB000A7FBA0692946BDE83840FFF769BC00BF10
:101FC0008C190020AFF30080AFF30080AFF30080E6
:101FD00070B5134E3068B5690368AC685E60012265
:101FE0003360002380F82020B06185F8203003465C
:101FF00000E01B689A68A242FBD8E9695A682B6026
:10200000ADF16404A1426A6015605D6003D92846A1
:10201000FFF776FBB0692946BDE87040FFF738BC92
:102020008C190020AFF30080AFF30080AFF3008085
:1020300008B5FFF75DFD064B1A689B6992689B68BF
:102040009A4200D808BDBDE80840FFF7C1BF00BFF5
:102050008C190020AFF30080AFF30080AFF3008055
:10206000044B9B6993F823300BB1FFF7B1BFFFF727
:1020700087BF00BF8C190020AFF30080AFF3008052
:102080002DE9F001134C416465690461002200F1FF
:102090003006816000F12C0C00F14C0745614FF0D7
:1020A000020860610121142480F8208080F821203A
:1020B00080F823400264C263426280F82210826189
:1020C0002861C0F82CC046630663C761BDE8F00113
:1020D000704700BF8C190020AFF30080AFF3008081
:1020E0002DE9F04704460D4617469846FFF718FDC0
:1020F00014B1B5F59C7F38D21F482049A622FFF7BE
:10210000C7FCA5F1640161181D4E089BD6F814C0E8
:10211000E1604B641B4BC1F840800B66022384F8DE
:1021200020301423002504F1300204F12C0A04F1BC
:102130004C0984F8233001232661A760C4F814C039
:102140002046746184F8215067642564E563656204
:1021500084F82230A561CCF81040C4F82CA062634A
:102160002263C4F81C90BDE8F0877F2FC4D8B8F173
:10217000000FC6D1C0E700BF10B7000824B70008A1
:102180008C190020B1180008AFF30080AFF3008075
:10219000F0B51C4683B005460E461746202383F350
:1021A0001188FFF76DFD2346089C3A46314600949E
:1021B0002846FFF795FF00210446FFF7B9FEFFF719
:1021C0003FFD002383F31188204603B0F0BD00BF1C
:1021D00010B5044628B90A480A494FF49372FFF72C
:1021E00057FC202383F31188FFF74AFD2146062080
:1021F000FFF776FEFFF724FD002383F3118810BD5F
:1022000074B7000824B70008AFF30080AFF3008074
:1022100010B52023044683F31188FFF731FD064BE8
:10222000D968611A02D00620FFF75AFEFFF708FDB1
:10223000002383F3118810BD7C190020AFF30080C8
:1022400038B5114B9C692546A06255F82C0FA84261
:1022500006D00368E362FFF7C3FDE06AA842F8D145
:1022600094F821309B0704D1636922691A612269BD
:1022700053610E20FFF70CFE0448054940F281121D
:10228000BDE83840FFF704BC8C19002084B7000873
:1022900024B70008AFF30080AFF30080AFF30080F5
:1022A00010B52023044683F31188FFF7E9FC20468C
:1022B000BDE81040FFF7C4BFAFF30080AFF300806C
:1022C00038B50446202383F31188FFF7D9FC94F82E
:1022D0002230002B21D0013BDDB284F82250FFF7E1
:1022E000AFFC002383F311881DB994F820300E2B26
:1022F00000D038BD94F8213003F00303012B14D033
:10230000022BF6D163692269A06C1A612269214609
:102310005361BDE8384000F0FBBC094809494E2232
:10232000FFF7B6FB94F82230D5E7636922691A619A
:10233000226920465361BDE8384000F071BC00BFFF
:1023400008B80008E4B70008AFF30080AFF30080DE
:1023500010B5202383F31188FFF792FC064B1C690C
:1023600094F82230013384F82230FFF769FC00230F
:1023700083F31188204610BD8C190020AFF3008034
:1023800038B50546202383F31188FFF779FC2C69C3
:102390000E4B9C4218D094F82230FF2B0CD0013306
:1023A00084F82230FFF74CFC002383F31188284681
:1023B000FFF786FF204638BD054806499622FFF7FD
:1023C00067FB94F82230EAE70024EBE78C19002041
:1023D00060B8000878B80008AFF30080AFF3008061
:1023E00038B504460D4628B1002903DB646024603B
:1023F000A56038BD024803495822FFF749FBF5E7BD
:10240000A0B80008B0B80008AFF30080AFF30080B8
:1024100038B50446FFF76CFB002C25D0A368226872
:10242000002B0DDBA24205D012481349C022FFF752
:102430002FFBA368013B002BA36007DB002038BD06
:10244000A242F1D0013B002BA360F7DA0B4DAB6940
:102450009C6262681C605A60032063601360FFF72F
:1024600017FDAB69986A38BD05480349BC22FFF7E0
:102470000FFBD3E704B90008B0B800088C1900209E
:10248000F4B80008AFF30080AFF30080AFF3008032
:1024900010B52023044683F31188FFF7F1FB204693
:1024A000FFF7B6FF0446FFF7CBFB002383F3118849
:1024B000204610BDAFF30080AFF30080AFF3008083
:1024C00010B50446FFF72CFB002C22D0A36822682D
:1024D000002B0DDBA24206D0114812494FF49B722B
:1024E000FFF7D6FAA3680133002BA36006DD10BD09
:1024F000A242F1D00133002BA360F8DC23681A68F4
:1025000018462260546000229A62BDE81040FFF72E
:1025100067BC054803494FF49972FFF7B9FAD5E74C
:1025200080B90008B0B800086CB90008AFF30080AB
:1025300010B5044620B1002364602460A36010BD80
:10254000024803495822FFF7A3FAF4E710BA00083B
:1025500020BA0008AFF30080AFF30080AFF3008033
:10256000F8B53E4B05469C69FFF7C2FA002D6FD0C7
:10257000A86800283AD0A2688368934208D290F8ED
:1025800020308260042B49D0052B34D0002B22D080
:102590002B461B689D4203D09968A2689142F8D2ED
:1025A0005A682360626004205C601460A562FFF7D3
:1025B0006FFCAB68A34204D029482A49B222FFF736
:1025C00067FA236CAB4215D027482649B322BDE8F1
:1025D000F840FFF75DBA90E80C001A60026801212C
:1025E00080F820105360FFF7FBFBD1E7236CAC6051
:1025F000EB602564F8BD41680368866A0B60076874
:10260000334679601B689E4202D099689142F9D2A4
:102610005A680360426010605860B9E74168036817
:10262000866A0B600768334679601B689E420DD04E
:1026300099689142F9D25A6803604260106058600C
:10264000B068A2688368934299D3A1E73346F2E762
:10265000064804497D22FFF71BFA89E78C19002000
:1026600050BA000820BA000864BA000840BA00084E
:1026700010B52023044683F31188FFF701FB2046A1
:10268000FFF76EFFFFF7DCFA002383F3118810BD1C
:10269000214A70B52023956983F31188FFF7F0FA7A
:1026A0002C6C002C30D0A368AB4206D01B481C49D0
:1026B00040F20B12FFF7ECF92C6C2668E368A64297
:1026C0002B641ED0696C4BB11A689A4203D0926891
:1026D000914238BF1146DB68002BF5D13368326C6C
:1026E000A9603046236000215C60A660E26034642B
:1026F000FFF71EFCFFF7A4FA002383F3118820469E
:1027000070BD0023A360F5E7064805494FF48472C5
:10271000FFF7BEF92C6CC6E78C190020A0BA0008A0
:1027200020BA00088CBA0008AFF30080AFF3008035
:1027300038B504460D46FFF7F3F9C4B1E26B94F8DF
:10274000203045EA0201082BE1630CD0092B00D0B0
:1027500038BDA36A19408B42FAD12046FFF740FBEF
:102760000023836238BDA36A1942F6D138BD0348FD
:102770000349FE22FFF78CF9E0E700BF30BB0008F9
:10278000F8BA0008AFF30080AFF30080AFF3008029
:1027900070B505460E46FFF7C3F965B12C68A54232
:1027A00008D0201D0BC83343E360FFF7C1FF246846
:1027B000A542F6D170BD03480349BC22FFF768F972
:1027C000ECE700BF54BB0008F8BA0008AFF3008084
:1027D00010B4024659B1084B9B69986244680D20B9
:1027E00083E814005360236010BCFFF779BB4FF0FF
:1027F000FF3010BC704700BF8C190020AFF3008081
:1028000010B4C361019B40608A180024006084609A
:1028100041618161C1600261036210BC704700BF09
:1028200038B50446FFF77CF9E36820686361A3616B
:102830000023A042A3600AD06FF001050368236063
:102840005C60FFF7CDFA85622068A042F6D138BD02
:1028500038B504460D46FFF763F9A26963699342F0
:10286000A2681AD00132A26003F8015B2269636199
:1028700093420BD22068A0420DD0036823605C60B5
:10288000FFF7AEFA00238362184638BD2068E3687C
:10289000A0426361F1D1002038BD002AE2D06FF080
:1028A000030038BDAFF30080AFF30080AFF30080CA
:1028B000F8B504460E46202383F31188FFF7E0F9AC
:1028C000E3690BB120469847A5682046314655B9C3
:1028D000FFF77EFF071EF7DAFFF7B2F92B4683F307
:1028E00011883846F8BDA3692269013DA56013F837
:1028F000017B9342A36124BFE368A361FFF7A0F9C2
:10290000002383F311883846F8BD00BFAFF3008081
:102910002DE9F0470446154688461E46C769002A39
:102920003AD0202383F31188FFF7AAF908F1010AAE
:102930004FF00009A8440FB12046B847A5682046CB
:1029400031465DB9FFF744FF0028F7D0FFF778F96B
:102950002B4683F311884846BDE8F087A369013D03
:10296000A56013F8012B0AF8012C2269A361934298
:1029700024BFE368A361FFF763F9002383F31188A1
:10298000C24509F10109E6D0202383F31188FFF73E
:1029900077F90AF1010ACEE702480349E722FFF777
:1029A00077F8BEE7A0BB0008B4BB0008AFF3008017
:1029B00010B4C361019B40608C180060826041616B
:1029C0008161C1600461036210BC7047AFF3008095
:1029D00038B50446FFF7A4F8E3682269206863610C
:1029E000D21AA042A361A2600AD06FF00105036869
:1029F00023605C60FFF7F4F985622068A042F6D19D
:102A000038BD00BFAFF30080AFF30080AFF30080AC
:102A10002DE9F041202304468846164683F31188A9
:102A2000FFF72EF9A568204631465DB9FFF7D0FEC5
:102A3000071EF7DAFFF704F92B4683F311883846AF
:102A4000BDE8F0816369013DA56003F8018B22694F
:102A50006361934224BFE3686361E3690BB120467D
:102A60009847FFF7EDF8002383F311881F46384697
:102A7000BDE8F081AFF30080AFF30080AFF30080DA
:102A800038B50446FFF74CF86269A3699A42A26818
:102A900016D00132A26013F8015B2269A361934250
:102AA0000BD22068A04206D0036823605C60FFF769
:102AB00097F900238362284638BDE368A361F0E7F5
:102AC000002AE6D06FF0020038BD00BFAFF30080EF
:102AD0002DE9F0470446164688469A46D0F81C90E1
:102AE000002A39D0202383F31188FFF7C9F8002783
:102AF000A56820466B1E0DB3A36018F8013B6569FD
:102B000005F8013B236965619D4224BFE368636169
:102B1000B9F1000F00D0C847FFF792F8002383F304
:102B200011880137013E14D0202383F31188FFF769
:102B3000A7F8A56820466B1E002DDDD12046514622
:102B4000FFF746FE0028D3D0FFF77AF82B4683F331
:102B500011883846BDE8F0870348044940F29B12CB
:102B6000FEF796FFBEE700BFD8BB0008B4BB000865
:102B7000054A064B22F007021A60054A054B22F06F
:102B800007021A60704700BF83170010AC190020BD
:102B900000C00120A8190020AFF30080AFF300802F
:102BA00010B50446FEF7BCFF074A084913680968D8
:102BB000E01D20F00700C91A88429ABF181810605B
:102BC0000023184610BD00BFAC190020A819002032
:102BD00010B52023044683F31188FFF751F82046EF
:102BE000FFF7DEFF0446FFF72BF8002383F311887D
:102BF000204610BDAFF30080AFF30080AFF300803C
:102C0000044B0549002203F1100019609A60DA6054
:102C1000FFF78EBCB0190020D12B0008AFF3008065
:102C2000F8B5074600284DD057F8086C06F110009B
:102C3000FFF71EFD0836A7F108053446AC4204D85C
:102C400063680833E3189D421FD3B442236801D060
:102C5000AC4202D21BB19D4201D31C46EEE757F8AD
:102C6000042C47F8083C256002F1080357F8080CCB
:102C7000E91881420FD0636803F10802A218954257
:102C800017D0BDE8F840FFF703BD11481149D02225
:102C9000FEF7FEFED9E74968EB585218083247F8AC
:102CA000042C47F8083C636803F10802A218954217
:102CB000E7D157F8041C57F8082C5B18083384E850
:102CC0000C00DEE704480349C622FEF7E1FEABE74D
:102CD00030BC000800BC000820BC0008AFF3008036
:102CE00038B504460D46FEF71BFF24B11DB123681D
:102CF0002B60256038BD034803499922FEF7C8FEC2
:102D0000F5E700BF98BC000860BC0008AFF3008086
:102D100038B505460C46202383F31188FEF7B0FF33
:102D200028462146FFF7DCFFFEF78AFF002383F3E6
:102D3000118838BDAFF30080AFF30080AFF300809F
:102D40000368052B70B504460D46164608D0991D3C
:102D500004EB8302013344F821602360556070BDA9
:102D6000034804490D2200F043FA2368EFE700BF4F
:102D7000C0BC0008D4BC0008AFF30080AFF30080F3
:102D80000368002B70B5064609DD041F00250434D6
:102D90006368A069984733680135AB42F7DC70BDC2
:102DA0000368002B2DE9F04106460F4690460ADDE8
:102DB000051F0024043538466B6841469847336840
:102DC0000134A342F6DCBDE8F08100BFAFF3008020
:102DD000002910B41DDD02464418002012F8011B22
:102DE0000823484004E0013B13F0FF03C0B20CD0BD
:102DF00010F0800F4FEA4000F5D080F02700013B33
:102E0000C04313F0FF03C0B2F2D1A242E6D110BC1E
:102E100070470020FBE700BFAFF30080AFF30080F6
:102E200010B5044604F034FF38B906F059F80146ED
:102E30002046BDE8104005F023BE05F0D1F950B1A1
:102E400007EE900AB8EEE77AF2EE047AC7EE277A38
:102E500017EE900A10BD062003F0C2FE07EE900A9E
:102E6000B8EEE77AF0EE087A27EE277ADFED0A7AF5
:102E7000C7EE277A094977EEA77A17EE900A06F08F
:102E800007F907EE900AFDEEE77A17EE900ABDE823
:102E9000104005F0BDBF00BF00F07F450080BB447F
:102EA000F0B5204D2E4607460FCEA5B010AC0FC48E
:102EB0000FCE0FC496E803001B4E06961B4E0796D6
:102EC0004FF07A5608961A4E09964FF07C560A969D
:102ED000184E283584E803000B960FCD164E0C963D
:102EE0004FF07D560D96154E1AAC0E960FC40FCDB1
:102EF0000FC495E8030006AB84E8030000930223A7
:102F0000019304AB029310AB4FF07E5604931AACBE
:102F10000B480F96394600220A23059404F028FD39
:102F200025B0F0BD10B500089D80C63D7B142E3E37
:102F300027A0B13E14D0183F1F852B3F14D0583F17
:102F4000F0BC0008AFF30080AFF30080AFF3008067
:102F5000012383610223C3600323036204234360CC
:102F6000704700BFAFF30080AFF30080AFF3008085
:102F7000024B034A5A60034A9A607047BCA500207E
:102F80009A99193F295C8740AFF30080AFF3008026
:102F900070B51148114E84B001F0DAF9FFF7D8F995
:102FA000044694F82220A368616A0D48013A009211
:102FB00094F82020029156F822200192A56921461A
:102FC0000022039501F0C4F92046FFF7D9F9044621
:102FD0000028E6D104B070BD40BD000800BD000867
:102FE00070BD0008AFF30080AFF30080AFF3008046
:102FF000024803492B22FEF74BBD00BF98BD0008D5
:10300000A8BD0008AFF30080AFF30080AFF30080ED
:1030100010B5444C444801F09BF902222046434934
:1030200001F046F84249434801F092F9424801F064
:103030008FF94249424801F08BF920464149424A02
:1030400001F036F8204641494FF4E13201F030F802
:1030500020463F493F4A01F02BF820463E493F4A6F
:1030600001F026F820463E493E4A01F021F820466C
:1030700001223D4901F01CF8204601223B4901F0A4
:1030800017F8204601223A4901F012F801222046A1
:10309000384901F00DF8204600F0F2FF204636498D
:1030A00000F0BEFE2046354900F0BAFE2046344905
:1030B00000F0B6FE204600F0EBFF20460122314929
:1030C00000F0F6FF204601222F4900F0F1FF2046D4
:1030D00001222E4900F0ECFF204601222C4900F08D
:1030E000E7FF20462B49012200F0E2FF20460122A3
:1030F000294900F0DDFF20460422284900F0D8FFCE
:10310000204627494FF4C87200F0D2FF20462549D7
:10311000012200F0CDFF4FF4FA70BDE81040FFF738
:1031200057B800BF981A0020C0BD000808BE0008AC
:1031300038BE000818BE000840BE00087CBE00086B
:103140006CBE000884BE0008A086010094BE000882
:10315000A4BE0008406F4001B4BE000800BD0105D8
:10316000C4BE0008007A030AD4BE0008ECBE000802
:10317000FCBE000818BF000834BF000838BF0008B4
:103180003CBF000848BF00085CBF000870BF0008D3
:103190008CBF0008A8BF0008C4BF0008D8BF000843
:1031A000F0BF000808C00008AFF30080AFF3008054
:1031B00008B5034B1A68C1B292681846904708BD1B
:1031C000C0070120AFF30080AFF30080AFF30080B1
:1031D00038B5044B1C6805460A462468184629463B
:1031E000A04738BDC0070120AFF30080AFF30080D7
:1031F00070B5084B06460C4682B031461846154657
:10320000FEF7DEF821462A4602B0BDE87040FEF720
:103210003FBC00BFD0190020AFF30080AFF30080A7
:1032200008B501F0FDFB0E4800F092F80D480E497C
:1032300000F12C02C82300F05BFEFFF7E9FE0B480B
:103240000B4901F02DFB0B480B4901F029FB0B4802
:103250000B4901F025FBBDE8084001F029BB00BF88
:10326000414A0008981A00202CC0000834C0000809
:10327000113000083CC00008F12F000844C00008CD
:10328000912F0008AFF30080AFF30080AFF3008010
:103290002DE9F843264BDFF8A4809B69254A264E8A
:1032A000DFF89C909A61454608F14E0700F0A8F9B6
:1032B000D0B133682048DB689847044600B2002844
:1032C00025DB042823D0082813D00D2822D01F285E
:1032D000ECDDBD42EAD2E0B2FFF76AFF05F8014B30
:1032E00000F08EF90028E4D14FF47A70FEF770FFF9
:1032F000DCE74545DAD0E4B22046FFF759FF20204D
:10330000FFF756FF2046FFF753FF013DCEE70020B1
:10331000BDE8F883FFF74CFF0A20FFF749FF0023C1
:1033200006482B70D9F8003005469847BEE700BF25
:103330008C190020D0C000080C2F0020F8080020B5
:10334000D0200020AFF30080AFF30080AFF3008007
:1033500000B5084B83B0186000F002F90023009319
:103360004FF4A761044B05484022FEF711FF03B05C
:1033700000BD00BFD020002091320008981B002023
:1033800008B501F035FD202383F3118818B9BDE895
:103390000840FEF775BCBDE80840FEF739BC00BF29
:1033A00010B501F025FD044628B9FEF749FC234677
:1033B00083F3118810BDFEF70BFC002383F3118803
:1033C00010BD00BFAFF30080AFF30080AFF300800B
:1033D00008B5064B06481A6801321A6000F098F9E1
:1033E00004480D21BDE8084000F082B9F82E002005
:1033F000E0C00008F8C00008AFF30080AFF3008021
:10340000034B04485A68202101325A6000F070B919
:10341000F82E0020D82E0020AFF30080AFF30080FC
:1034200008B5074B07489A6801329A6000F070F9B6
:10343000054840F60461BDE8084000F059B900BFF6
:10344000F82E002008C10008D4200020AFF300802F
:1034500008B5044800F05CF903480721BDE80840BE
:1034600000F046B91CC100082CC10008AFF3008071
:10347000482808B515D04F2817D0572819D042280A
:103480001BD043281DD0742807D0542805D00F4BDB
:103490001A6901321A61002008BDFFF7D9FF012027
:1034A00008BDFFF795FF012008BDFFF7A9FF012028
:1034B00008BD00F03DF9012008BD00F071F90120C0
:1034C00008BDFFF7ADFF012008BD00BFF82E0020AA
:1034D000022906D0032906D00748012918BF002079
:1034E000704706487047032A03D8054800EBC2001E
:1034F00070470020704700BFF0C20008C0C100083C
:10350000C0C20008AFF30080AFF30080AFF30080CB
:10351000022938B50C46054616D1202383F31188BD
:10352000FEF776FB28460121084A02F071FA21468F
:10353000074A284602F06CFA064802F031F8FEF716
:1035400047FB002383F3118838BD00BF40C100084A
:10355000D0C100080C2F0020AFF30080AFF3008033
:1035600070B5174E174C184D304601F0B9FF214683
:10357000304601F0DDFF24681448236D9A6B22F475
:1035800000229A63FEF724FE2046114902F008FA51
:10359000236D10489A6B42F400229A63002101F0D7
:1035A0007FFE0421284640F2823206F0B1FB284615
:1035B000082140F28232BDE8704006F0A9BB00BF8E
:1035C0000C2F0020E0C2000800000240A08601008D
:1035D00000C2000848070120AFF30080AFF300806D
:1035E000044BD3F854321B681878031F58425841D3
:1035F000704700BF0C2F0020AFF30080AFF30080B6
:10360000044BD3F854321B681878021F50425041C3
:10361000704700BF0C2F0020AFF30080AFF3008095
:1036200010B5114B114C19682269114800F090FE39
:103630002168104800F08CFE61680F48202200F0DD
:1036400087FEA1680D4840F6046200F081FEE16843
:103650000B4840F6046200F07BFE0A4B0A481968EA
:10366000BDE8104000F074BED8340020F82E0020D1
:1036700000C3000828C3000844C3000868C300084A
:103680008CC3000898310020B0C30008AFF300805D
:10369000124B134A9B6970B5124E134D9A61FFF796
:1036A0009FFF78B133680F48DB68984704B2204623
:1036B000FFF7DEFE58B12B6801332B60FFF790FF58
:1036C0000028EFD14FF47A70FEF782FDE7E721463C
:1036D0000648224600F03CFEEDE700BF8C190020B2
:1036E000CCC300080C2F0020D8340020E0C3000811
:1036F00038B5044B1C6805460A4624681846294616
:10370000A04738BD0C2F0020AFF30080AFF300803E
:1037100008B50146034800F01BFEBDE80840FFF76E
:103720007FBF00BF80D20008AFF30080AFF30080FE
:10373000114B12481A6810B501321A60FFF7E8FF02
:103740000F48104C032100F003FE0F4803680322CA
:103750005B682146984701460C4800F0F9FDB4F932
:103760000010A2780A4800F0F3FD0A4AA178B4F9E3
:1037700000301268D15410BD9831002000C40008F8
:1037800010C40008943100200C2F002020C4000831
:103790002CC4000848090020AFF30080AFF300807C
:1037A00008B5094B0948DA680132DA60FFF7B0FF63
:1037B000074B0849186840F60462FDF789FCBDE82C
:1037C000084004F035BE00BFF82E002044C40008B5
:1037D000400A0020D4200020AFF30080AFF3008027
:1037E000034B0448196840F60462FDF771BC00BF42
:1037F000400A0020D4200020AFF30080AFF3008007
:1038000000B50F480F4983B000F12C02C82300F027
:103810006FFB0D4800F09CFDFFF7A2FEFFF7E0FFF5
:103820000A480B4901F03CF8002300934FF44E7115
:10383000084B09484022FEF7ABFC03B000BD00BFB7
:10384000DC34002054C4000864C4000880C40008AC
:103850002136000891360008A0310020AFF3008027
:1038600010B52DED028B04F0E3FE1D4C2060062008
:1038700003F0B6F907EE100AF8EEC77AF0EE088A00
:1038800067EEA87A9FED178AC7EE887A164977EE19
:10389000A77A17EE900A05F0FBFB60600E2003F09C
:1038A0009FF907EE100AF8EEC77A104967EEA88A6A
:1038B000C8EE887A77EEA77A17EE900A05F0E8FB53
:1038C000A06005F0C5FAE06005F00AFB206105F094
:1038D0003FFB606105F07CFBE061BDEC028B10BD3D
:1038E000D82E002000F07F450080BB4400C0284552
:1038F000014B01221A607047D4380020AFF30080DA
:10390000F0B507EE101A2DED048BF8EEC77ADFED57
:10391000408A87EEA88A85B00646F0EE089A18EE2F
:10392000101A05F07DF805460E2003F059F907EE50
:10393000100AF8EEC77A9FED379A67EEA97A3649F2
:10394000C7EE897A77EEA77A17EE900A05F0A0FB0A
:1039500005F026F80446062003F042F907EE100AA7
:10396000F8EEC77A2D4967EEA99AC9EE897A77EE03
:10397000A77A17EE900A05F08BFB04F0F9FF0746D3
:1039800005F026FB05F024F809EE100A2846FDF79D
:1039900053F802460B46224800F0DAFC2046FDF7B9
:1039A0004BF829EE289A044638460D46FDF744F8B0
:1039B000BDEEC99A22462B46CDE900018DED029A53
:1039C000184800F0C5FC18EE101A304605F058F8FB
:1039D00007EE900A18EE100A67EEA88AFDF72CF899
:1039E000FDEEE88A02460B46CDED008A31460E48D0
:1039F00000F0AEFC18EE907A0C480D4918EE902AB3
:103A000005B0BDEC048BBDE8F04000F0B1BB00BFD9
:103A10000000C84200F07F4500C028450080BB443C
:103A200090C40008A0C40008D4C40008D437002003
:103A3000F4C40008AFF30080AFF30080AFF3008060
:103A4000084B094910B5002818BF19460446074815
:103A500000F07EFC06480749224600F029FB064B91
:103A60001C6010BD0CC5000810C5000814C5000876
:103A7000D838002030C50008DC350020AFF30080C6
:103A8000F8B52DED028BFFF7BBFD10B9BDEC028B35
:103A9000F8BD654C23687BB10320012103F0C0FB16
:103AA000624B63481A68634B21681B6800F050FC46
:103AB0006148FEF78DFBFEE700F07AFB03F090F91A
:103AC0005E4B1B68002BE1D05D4F5E4BFD685E4E88
:103AD0006D09A3FB052503F08BF93368ED098342DB
:103AE00004465A4B02D11A68AA42CFD01D60FF6823
:103AF00004F09EFD564B57493460A3FB07277F090E
:103B000006EE907ADFED547AB8EEE67A0323C7EE3C
:103B1000276A05465148F0EE088A16EE902A00F012
:103B20006FFA22464D484E4900F022FA2A464D4986
:103B30004A4800F01DFA04F06BF94B490246474829
:103B400000F016FA05F0CCF90146284604F098FF7B
:103B5000022302464549414800F052FA05F0F8F9BF
:103B60000223024642493D4800F04AFA05F018FA9D
:103B7000022302463F49394800F042FA05F0B0F905
:103B8000022302463C49354800F03AFA05F0C0F9F4
:103B900005210246314800F063FA05F059F907EEB5
:103BA000100ABDEEC77A032117EE102A2B4800F049
:103BB00047FA062003F014F806EE900AF8EEE67ACB
:103BC0009FED2E8A67EEA87A2D49C7EE887A77EEA8
:103BD000A77A17EE900A05F05BFA012102461F480A
:103BE00000F03EFA0E2002F0FBFF07EE100AF8EE9E
:103BF000C77A244967EEA88AC8EE887A77EEA77A52
:103C000017EE900A05F044FA02210246134800F02C
:103C100027FA124802F024FE1048BDEC028BBDE8E2
:103C2000F84000F035BA00BF78190020681900206C
:103C300034C5000870190020A0860100DC35002082
:103C40007C190020C55A7C0A4C090020500900202C
:103C50001F85EB5150C5000800007A44D838002079
:103C600058C5000860C5000864C5000868C500089C
:103C700074C5000878C5000880C5000800F07F45BD
:103C80000080BB4400C02845AFF30080AFF3008044
:103C900008B512481249134A4FF4FA7300F028F994
:103CA0001148124900F12C02C82300F021F901202B
:103CB000FFF7C6FE0E480F4900F0EAFD4FF416600C
:103CC0004FF48C71FFF71CFE0B480C4900F0D8FD37
:103CD0000B480C49BDE8084000F0E2BDD838002090
:103CE00084C50008E0350020D437002090C50008C6
:103CF000A4C500080139000830C50008413A000891
:103D000098D40008F1380008AFF30080AFF30080CA
:103D10000D4B0E4A70B4D2681C680D4D141BAC429A
:103D2000064607EE901A01DC70BC70479FED097AD9
:103D300067EE877A1A60FDEEE77A074817EE902A59
:103D4000314670BC00F014BA540900207C190020E0
:103D50009F86010000007A44D8380020AFF300802D
:103D600070B582B00646FDF78BFB124B124C054630
:103D700093E803002060A180601D294601F030F81F
:103D800003463A2203F8012B314618465E19FDF727
:103D900017FB0D220A2342557370FFF731FC08B957
:103DA00002B070BDB11C2046091B02B0BDE87040D6
:103DB000FFF70EBAB0C50008E8600020AFF300803E
:103DC00008B5052806D8DFE800F00C0E1012140321
:103DD000094808BD09480A492222FFF709FA0020CC
:103DE00008BD084808BD084808BD084808BD08487F
:103DF00008BD084808BD00BFCCC50008D0C50008F4
:103E0000E8C500084CD70008C0C50008BCC50008BC
:103E1000B8C50008C4C50008AFF30080AFF3008048
:103E2000F8B5044608460F46FDF72AFBD4F8F430EF
:103E30000546002B32D0D4F8F800D4F8FC20C31A81
:103E4000EB189A4209DD6A1C3946FDF741F9D4F8AE
:103E5000F8305D19C4F8F850F8BD214D0FCD606001
:103E6000A16003CD2D88E26023616061A161A5831B
:103E7000216804F11D00FDF753FA261D194B801B24
:103E800024181B883946A3803046FDF771FA16497D
:103E900030464922BDE8F840FFF7AAB9134D0FCDCF
:103EA0006060A16003CD2D88E26023616061A16143
:103EB000A583216804F11D00FDF732FA261D094B88
:103EC000801B24181B883946A3803046FDF750FA22
:103ED000054930463F22BDE8F840FFF789B900BFE9
:103EE00024C6000820C60008E8C5000804C600086B
:103EF000F8B5044615460E461F46054800F028FA58
:103F00002660C4F8F450C4F8FC70C4F8F850F8BD4A
:103F100040C60008AFF30080AFF30080AFF300802D
:103F200038B5041D0546204600F05AFF28462146B4
:103F3000BDE83840FFF774BFAFF30080AFF30080F7
:103F400038B504461546FFF76BFF20462946FFF7B4
:103F5000E7FF03492046BDE83840FFF761BF00BFD7
:103F600038BF0008AFF30080AFF30080AFF30080EC
:103F7000F8B50C4D04461746061DFFF751FF2046C5
:103F80002946FFF74DFF3946304600F029FF20460D
:103F90003146FFF745FF20462946BDE8F840FFF7C8
:103FA0003FBF00BF38BF0008AFF30080AFF3008011
:103FB0002DE9F8439046051D99460446089F0F4E8B
:103FC000FFF72EFF4146284600F00AFF204629460B
:103FD000FFF726FF20463146FFF722FF49463A46C3
:103FE000284600F065FE20462946FFF719FF2046C7
:103FF0003146BDE8F843FFF713BF00BF38BF0008E4
:104000002DE9F0410C4D044698461746061DFFF772
:1040100007FF20462946FFF703FF42463946304650
:1040200000F046FE20463146FFF7FAFE20462946BC
:10403000BDE8F041FFF7F4BE38BF0008AFF30080E1
:1040400038B5044608461546FFF7BAFE2A4601462B
:104050002046BDE83840FFF78BBF00BFAFF30080BC
:1040600070B5044608461546FFF7AAFE2A460146E3
:1040700002232046BDE87040FFF7C2BFAFF30080C7
:10408000D0F8F430C0F8F830704700BFAFF30080CC
:1040900010B50446D0F8F400FFF762FED4F8F4300F
:1040A000C4F8F83010BD00BFAFF30080AFF300805C
:1040B000D0F8F43070B50446C0F8F8300D46094920
:1040C0001646FFF7ADFE20460749FFF7A9FE20463A
:1040D00029463246FFF734FF2046BDE87040FFF71F
:1040E000D7BF00BF34BF000838BF0008AFF300805F
:1040F00070B50446D0F8F4000C4DFDF7C1F9064642
:10410000FFF73EF92846FDF7BBF941F287338619E0
:104110009E4204DCD4F8F4102818FDF751F9FFF79B
:104120003FF9D4F8F430C4F8F83070BD604D002089
:10413000D0F8F43070B50C4DC0F8F830044616468F
:10414000FFF76EFE20462946FFF76AFE20463146FD
:10415000FFF7E6FE20462946FFF762FE2046BDE84F
:104160007040FFF7C5BF00BF38BF0008AFF3008045
:10417000D0F8F43070B50446C0F8F8300D4609495F
:104180001646FFF74DFE20460749FFF749FE204639
:1041900029463246FFF7D4FE2046BDE87040FFF7BF
:1041A000A7BF00BF34BF000838BF0008AFF30080CE
:1041B00038B50A4C0A4DFFF7E3F829462046FDF7CB
:1041C000FFF800232B70FFF7EBF8237803B938BD15
:1041D0002046BDE83840FFF7C3BD00BFD8390020F6
:1041E000604D0020AFF30080AFF30080AFF300809C
:1041F0002DE9F041B1F1000804463BDD00780028CC
:1042000032D02146002311F8016F0133002EFAD17C
:1042100098452ADCB04612F0020F0CBF202630264B
:1042200012F0010224D1B8F1000F27DD47463046D5
:10423000FEF7BEFF013FFAD120784546B84630B1BF
:10424000FEF7B6FF14F8010F01350028F8D1B8F1D8
:10425000000F06DD44463046FEF7AAFF013CFAD1C6
:1042600045442846BDE8F0810346C3EB0808D2E781
:104270000025E4E7202600250078E0E71546DEE784
:10428000F0B587B005460C9F0446002837D0002AB9
:1042900031D100208DF81700002C4CD00D980DF175
:1042A0001605A0F13A0CB4FBF1F601FB1644092CFB
:1042B000C8BF644404F1300E34462E4605F801E9C7
:1042C000002CF0D172B1002B24D12D2206F8012C44
:1042D0000024013E304619463A46FFF789FF00198F
:1042E00007B0F0BD16490968F1B12B2106F8011C91
:1042F0001446013EEEE70A2918D00022C9E7194604
:1043000003A830233A468DF80C308DF80D50FFF796
:104310006FFFE5E7BA07D8D52D200193FEF748FFD8
:10432000019B0124013BD5E71446D3E70028E4DADA
:1043300044420122ADE70DF11706002AD2D0C2E7B0
:1043400070740020AFF30080AFF30080AFF3008003
:104350000FB42DE9F04F2DED028BA5B0FFF750F90A
:1043600030B925B0BDEC028BBDE8F04F04B070470A
:10437000309BDFF898B31A780021CBF80010002AA0
:10438000EFD0252ADFF888830DF1C4095ED1587873
:104390005C1C0028E5D025285AD02D2800F080810B
:1043A00000252B2800F07681302807D1631C1C469D
:1043B00013F8010B302845F00205F8D02E2800F044
:1043C0004781A0F13003092B40F2428106260027E5
:1043D0006C2804BF607801345838202800F22E8100
:1043E000DFE810F01E012C012C012C012C012C0106
:1043F0002C012C012C012C012C010D01FF002C01A2
:104400004E002C012C012C012C012C012C012C0123
:104410002C012C012C012C012C0140002C01390015
:104420002C012C012100612359F8040B0095019304
:10443000102100223B46FFF723FF0022CBF800208B
:104440006278631C002A8CD0252AA0D018781C46DC
:10445000FEF7AEFEF4E7612359F8040B00950193D3
:104460000A21E6E759F8040BA64B2A4639460028EC
:1044700008BF1846FFF7BCFE0022CBF80020DFE79C
:1044800019F0070F18BF09F10409F9E80201FCF758
:10449000C7FD08EE100AFBF7A3FE002800F0048118
:1044A000B5EEC08AF1EE10FA00F11081DBF80030B1
:1044B000002B00F008812B238DF83C300DF13D0ED0
:1044C0000FA8072E0AD8DFF84CA20AEB8603D3ED1B
:1044D000007A38EE278A002E00F0018100220123A5
:1044E00003EB830301325B00B242F9D107EE103ACD
:1044F000F8EE477ABCEEC87A17EE102A002A00F0D0
:10450000DE8017EE103A4FF0000C05A9A8FB03A2BD
:10451000D20802EB820AA3EB4A0303F1300A01F846
:104520000CA013460CF1010C002AEFD1BCF1000FD6
:1045300000F0C5806144F44411F8013D0EF8013BE0
:10454000E645F9D1002E3ED0B8EE477A724638EEF5
:10455000478A2E2368EE277A02F8013BFCEEE77AC1
:10456000039217EE903A002B00F0C5804FF0000C3C
:1045700005A9A8FB03A2D20802EB820AA3EB4A0317
:1045800003F1300A01F80CA013460CF1010C002ACB
:10459000EFD1664540F2A6800CF1FF330DF1130216
:1045A00005A902EB060CCB18302203F8012F634556
:1045B000FBD18B1913F8012D8B420EF8012FF9D185
:1045C000039B03EB060E4FF0000A8EF800A09DF847
:1045D0003C30002B6BD0034613F8012F002AFBD18F
:1045E00065E0612359F8040B019300953B460A21CD
:1045F0000122FFF745FE0023CBF8003020E759F8F1
:10460000043B2A464FF0000A04A839468DF811A051
:104610008DF81030FFF7ECFD0022CBF800200FE7FB
:10462000412359F8040B019300953B4610210022C9
:10463000FFF726FE0023CBF8003001E72520FEF728
:10464000B7FD2078FEF7B4FD0023CBF80030F7E685
:104650000027AE46234606263D4603E0A0F130067D
:1046600013F8010FA0F130022E28D1B21C460CD055
:1046700009290DD806EB860100EB410007EB870402
:10468000002DEBD102EB4407EAE700260125E7E71E
:1046900075469DE601236078CBF80030E41883E688
:1046A0009C1C987801257CE6174B0FA80F932A468F
:1046B0003946FFF79DFD0022CBF80020C0E63023ED
:1046C0000EF8013B3EE70FA88646FAE62D238DF84B
:1046D0003C30B1EE488A0DF13D0E0FA8F1E6F7EE41
:1046E000007A07E7BCF1000F08D130238EF80130C3
:1046F0000EF1020E67E717EE90CA4AE7664605A973
:1047000057E700BF50C600084E614E00707400208D
:10471000CDCCCCCC60C60008AFF30080AFF30080F6
:1047200038B50446012504E014F8013B2D2B0AD1CD
:104730006D422046FCF7A4FE21460028F4D1114822
:1047400000FB05F038BD00281ADD303BDAB2092A3B
:1047500012D808180138002205E011F8013F303B5B
:10476000DCB2092C08D802EB8202814203EB420240
:10477000F3D102FB05F038BD034800FB05F038BD5E
:10478000002038BD3041AB00D0BE54FFAFF30080F5
:1047900070B50C460546FCF773FE06462046FCF74E
:1047A0006FFE864201D0002070BD002E10DD2A78F9
:1047B00023789A42F7D12A462146002305E012F8D1
:1047C000015F11F8014FA542EDD101339E42F6D1B0
:1047D000012070BDAFF30080AFF30080AFF3008025
:1047E00070B50C4E0C483168FFF7B2FD3368002BF2
:1047F0000FDD0A4D002404EB440305EB830255F85A
:10480000231007485268FFF7A3FD33680134A34221
:10481000F1DC70BD7474002080C600084076002072
:1048200098C60008AFF30080AFF30080AFF30080BC
:1048300001460148FFF78CBDB0C60008AFF3008009
:10484000F0B40B4C2368202B0BD00A4F03EB43062C
:10485000B600BD190133B85123606960AA60F0BC8D
:104860007047054805491722F0BCFEF7C1BC00BFE0
:104870007474002040760020C0C60008DCC6000822
:104880000A460121FFF7DCBFAFF30080AFF30080E1
:104890000A460421FFF7D4BFAFF30080AFF30080D6
:1048A0000A460021FFF7CCBFAFF30080AFF30080D2
:1048B00008B505480549FFF7F3FF05480549BDE878
:1048C0000840FFF7DDBF00BFFCC60008E147000855
:1048D00004C7000831480008AFF30080AFF3008040
:1048E0004368032B2DE9F04107460E4655D0042BB3
:1048F00008460AD0022B23D0FFF712FF464B9842FE
:1049000018D0BB689847BDE8F081FCF7B9FD0028D6
:10491000F9DD3378202B76D0741C002302E0157863
:10492000202D28D001339842224604F10104F6D10B
:10493000BDE8F08139483146BDE8F041FFF708BDD8
:10494000FCF79EFD00280EDD33782E2B61D0711C04
:10495000002302E014782E2C24D0013398420A461A
:1049600001F10101F6D13046FFF7DAFE06EE100A3A
:10497000F8EEC67A41E0581CC5D05D1C00211170CC
:104980003046FFF7CDFE04467019FFF7C9FEBB683D
:10499000014620469847BDE8F0818368084698475D
:1049A000BDE8F081591CDED05D1C4FF0000882F894
:1049B00000803046FFF7B4FE751906462846FCF71E
:1049C0005FFD04462846FFF7ABFE44451EDD434627
:1049D000F7EE007AB2EE047A01339C4267EE877AF2
:1049E000FAD107EE100AF8EEC76A06EE106AC6EEB4
:1049F000A77AB8EEC67A77EE277ABB6817EE900AE8
:104A00009847BDE8F08132460125B7E7F7EE007A16
:104A1000E7E732460125C8E7D0BE54FF0CC70008BF
:104A20000348044900F12C02C823FFF761BA00BF14
:104A30004075002024C70008AFF30080AFF300806A
:104A40002DE9F0470146064604225348FCF748FD8D
:104A5000002854D0002E00F09B80504B504C0FCBC0
:104A600007C42046314600F8013BFCF759FC4D4B8A
:104A70001B880380357855B1202D4FF0000502D1F9
:104A800005E0202B03D00135735D002BF9D13046B2
:104A9000FCF7F6FCA8428046434B5BD0D3F800906D
:104AA0000024A145745535441ADD404F01E04C45C2
:104AB00016D004EB4403304657F82310013407EBBB
:104AC000830AFFF765FE0028F1D05046691CFFF706
:104AD00007FF374832494246BDE8F047FFF748BB79
:104AE000002233483349FFF743FB31482C494FF04C
:104AF000FF32FFF73DFBBDE8F047FFF771BE2E48E0
:104B00003146341DFFF724FC2B482146FFF720FCDB
:104B10003379212B3ED0002B34D0731D01E0002AC5
:104B200030D01E4613F8012B212AF8D1002306F8B5
:104B3000013B2046FFF7F4FD04463046FCF7A0FC9D
:104B40008442024689D01D4821463346BDE8F047DD
:104B5000FFF7FEBB1D68002DC2DD144F002401E0ED
:104B6000AC42BDD004EB4403304657F82310013467
:104B700007EB8309FFF70CFE0028F1D0D9F80830C5
:104B80009847A6E70E482146BDE8F047FFF7E0BB8F
:104B9000BDE8F0872646C9E734C700089CC700086F
:104BA00078740020B4C5000874740020407600209A
:104BB00040750020ACC700083CC7000868C7000863
:104BC0004CC70008AFF30080AFF30080AFF3008064
:104BD00070B400F10B0600F10A04B1FBF2F502FB20
:104BE000151101F13003392BC8BF01F137032946F4
:104BF000254604F801390029EFD1711B2A464118D6
:104C000001E012F8013F00F8013B8842F9D170BC85
:104C1000704700BFAFF30080AFF30080AFF30080B8
:104C2000092870B427DD632829DDB0F57A7F24DBFD
:104C300042F20F73984224DD174B984223DD174B45
:104C4000984222DD1649884223DD164DA8421EDD1A
:104C50000123154C02E00133A8420ADD84FB006207
:104C6000C017C0EBA20088421A46F4DC981D70BC45
:104C70007047D01DFBE70020F9E70220F7E701208D
:104C8000F5E70320F3E70420F1E70520EFE707202D
:104C9000EDE70620EBE700BF9F8601003F420F00D3
:104CA0007F969800FFE0F50567666666AFF30080C3
:104CB000F0B52DED028B08EE101AB5EEC08AF1EEBC
:104CC00010FA83B0164609D52D23B1EE488AB5EE09
:104CD000C08AF1EE10FA00F8013BF6D4FDEEC88A66
:104CE0000A2218EE901AFFF773FF002E044633DDF8
:104CF000F8EEE88A05462E23771E38EE688A05F816
:104D0000013B072F42D8DFE807F02F3235383B3E12
:104D1000042CDFED1F7AF8EEE77A27EE888ABDEEE5
:104D2000C88A18EE100A8DED018AFFF779FF431C3F
:104D3000B342019909DA2346E419241A302203F810
:104D4000012FA342FBD13F1AED1928460A22FFF793
:104D50003FFF002304460370204603B0BDEC028BE6
:104D6000F0BDDFED0C7AD6E7DFED0B7AD3E7DFEDB0
:104D70000B7AD0E7DFED0A7ACDE7DFED0A7ACAE7F2
:104D8000DFED097AC7E7DFED097AC4E7FEE700BF88
:104D90008096980000E1F5050A000000640000001C
:104DA000E803000010270000A086010040420F0029
:104DB0000B1E10B5044604DBFFF70AFF0023037047
:104DC00010BD2D2100F8011B5942FFF701FF002300
:104DD000037010BDAFF30080AFF30080AFF300802D
:104DE0000A22FFF7E5BF00BFAFF30080AFF30080FA
:104DF000034B18680028D4BF00200120704700BF73
:104E00006C190020AFF30080AFF30080AFF3008097
:104E10002DE9F041194C984625680F460446164680
:104E2000202383F31188002D13DDFCF7F1FEE368E6
:104E300013B12046FCF794FF4346204639463246DC
:104E4000FCF75EFFFCF7C4FE002383F31188BDE886
:104E5000F081FCF715FFE36813B12046FCF780FFF3
:104E60004346204639463246FCF74AFFFCF7E8FE47
:104E7000002383F31188BDE8F08100BF6C19002086
:104E800008B504F0BDFB0A4804F052FE00F030F80B
:104E900000F0A6F800F05CF900F0DAF900F058FC38
:104EA00000F066FD00F014FBBDE8084006F028BBEA
:104EB000A0E00008AFF30080AFF30080AFF3008004
:104EC00008494A68801882424B6802D29A4202D945
:104ED00070479A42F7D9984294BF00230123002BD0
:104EE000F1D17047001000E0AFF30080AFF3008015
:104EF00004F02EBCAFF30080AFF30080AFF300806E
:104F000000230122027043608360C3600361436138
:104F10001830FDF70DBB00BFAFF30080AFF300808A
:104F200038B504460D46C8B1202383F31188FCF739
:104F3000A7FE2378013B012B04D90B480B497522AE
:104F4000FCF7A6FD2046656004F032FC02232370C6
:104F5000FCF776FE002383F3118838BD044803492B
:104F60007122FCF795FDDFE7ECC70008D0C7000809
:104F7000C0C70008AFF30080AFF30080AFF300803C
:104F8000F8B504460E4617461D46FCF7C9FDDCB1D0
:104F9000D6B1CFB1012D01D0EB0715D4207802286E
:104FA00008D0042806D0052804D00A480A49C72298
:104FB000FCF76EFD03232046A760E56026612370A1
:104FC000BDE8F84004F054BC04480349C322FCF790
:104FD0005FFDE3E730C80008D0C7000818C8000824
:104FE00005F096BEAFF30080AFF30080AFF3008012
:104FF0000123037000234360704700BFAFF30080BC
:1050000038B504460D46D0B1C9B1202383F31188C9
:10501000FCF736FE2378013B012B04D90B480C49E1
:105020006422FCF735FD2046656005F0A1FE0223F1
:105030002370FCF705FE002383F3118838BD054873
:1050400003496022FCF724FDDFE700BF1CC900080C
:1050500000C90008F0C80008AFF30080AFF300807B
:1050600010B50446C0B1202383F31188FCF708FE75
:105070002378013B012B04D90A480B497822FCF71D
:1050800007FD204605F034FF01232370FCF7D8FD0F
:10509000002383F3118810BD044803497422FCF7F0
:1050A000F7FCE0E738C9000800C900082CC900086F
:1050B00010B50446B8B1202383F31188FCF7E0FD56
:1050C0002378022B04D00B480B498A22FCF7E0FC22
:1050D000204605F055FF03232370FCF7B1FD0023A4
:1050E00083F3118810BD054803498722FCF7D0FCE3
:1050F000E1E700BF58C9000800C9000848C9000816
:1051000010B50446C0B1202383F31188FCF7B8FD25
:105110002378023B032B04D90A480B499E22FCF753
:10512000B7FC204605F054FF02232370FCF788FDEE
:10513000002383F3118810BD044803499922FCF72A
:10514000A7FCE0E778C9000800C9000868C90008A2
:1051500005F0A6BFAFF30080AFF30080AFF300808F
:105160000123037000234360704700BFAFF300804A
:1051700038B504460D46E0B1D9B1202383F3118838
:10518000FCF77EFD2378013B012B04D90C480D4927
:105190006922FCF77DFCAB8865602046238105F021
:1051A00097FF02232370FCF74BFD002383F3118844
:1051B00038BD054803496522FCF76AFCDDE700BFFE
:1051C000BCC90008A0C9000890C90008AFF300805E
:1051D0000C30FDF79DBB00BFAFF30080AFF3008044
:1051E0000C304FF0FF33FDF793BB00BFAFF30080EF
:1051F0003030FDF76DBC00BFAFF30080AFF300802F
:1052000030304FF0FF33FDF763BC00BFAFF30080D9
:105210000C30FDF74DBB00BFAFF30080AFF3008053
:105220000C304FF0FF31FDF743BB00BFAFF3008000
:105230003030FDF7EDBB00BFAFF30080AFF300806F
:1052400030304FF0FF32FDF7E3BB00BFAFF300801B
:1052500006F0D6B8AFF30080AFF30080AFF3008064
:1052600070B50E4B82B005460446009045F8043BED
:10527000656001250B46164604F1540110220C30DE
:105280002572FDF7BDFA009404F1300004F16401C9
:1052900010223346FDF78CFB02B070BDE0CA000857
:1052A00038B504460D46C8B1202383F31188FCF7B6
:1052B000E7FC237A013B012B04D90B480B49A622BA
:1052C000FCF7E6FB2046294606F0BAF802232372D3
:1052D000FCF7B6FC002383F3118838BD044803496A
:1052E000A122FCF7D5FBDFE788CA00086CCA0008DA
:1052F00060CA0008AFF30080AFF30080AFF3008016
:1053000038B504460D46FCF70BFCD4B163693BB1DC
:1053100004F10C002946FDF79BFA00280BDB38BD91
:10532000201D0421FDF734FA04F10C002946FDF795
:105330008FFA0028F3DA201D8021BDE83840FDF700
:1053400027BA03480349D822FCF7A2FBDEE700BFD7
:10535000B4CA00086CCA0008AFF30080AFF3008045
:1053600070B5046AD4F854321A681178042900D050
:1053700070BD217A0229FBD112891B7942FA03F30D
:1053800013F00105F4D1216CE36BA26BC91A8E1ADC
:10539000EED0FCF755FC2B4683F31188D4F8542249
:1053A00033461068117904F1300200F0A9FB202384
:1053B00083F31188FCF764FCD4F854321868197927
:1053C000BDE8704000F0D4BBAFF30080AFF30080C5
:1053D000F8B5046AD4F8542213681978042900D067
:1053E000F8BD217A0229FBD15279598903EB820356
:1053F00041FA02F2DB6812F001075D8AF0D1E6693A
:10540000A2696369B61AF61AB542E9D8FCF718FC26
:105410003B4683F31188D4F85422B6FBF5F305FB21
:1054200003F31068517904F10C0200F059FB2023BA
:1054300083F31188FCF724FCD4F8543218685979A6
:10544000BDE8F84000F06CBBAFF30080AFF3008024
:105450000C30FDF75DBA00BFAFF30080AFF3008002
:105460000C304FF0FF33FDF753BA00BFAFF30080AD
:105470003030FDF72DBB00BFAFF30080AFF30080ED
:1054800030304FF0FF33FDF723BB00BFAFF3008098
:105490000C30FDF70DBA00BFAFF30080AFF3008012
:1054A0000C304FF0FF31FDF703BA00BFAFF30080BF
:1054B0003030FDF7ADBA00BFAFF30080AFF300802E
:1054C00030304FF0FF32FDF7A3BA00BFAFF30080DA
:1054D000704700BFAFF30080AFF30080AFF30080F0
:1054E00030B50F4A0F4B0546044645F8042B83B0F0
:1054F0006560012504F1540125720C304FF480726F
:105500000094FDF77DF9009404F1300004F5AA71D0
:105510004FF48072044BFDF74BFA03B030BD00BF6F
:1055200050CB0008D153000861530008AFF300804E
:1055300070B50D4604460E6818B3202383F3118816
:10554000FCF79EFB237A013B012B04D9104811493B
:10555000DF22FCF79DFA2B7906EB83039C616B79C4
:10556000093346F82340AB7906EB83060223B46186
:105570002372C4F85452FCF763FB002383F31188B1
:1055800070BD05480349DA22FCF782FAD5E700BF6F
:1055900030CB000810CB000800CB0008AFF3008030
:1055A00070B5D0F8543200F10C06044630461D6840
:1055B000FDF736F904F13000FDF70AFA201D01214C
:1055C000FDF7E6F8D4F85432597905EB8103284603
:1055D000DB6832465B8A00F083FAD4F8543259799A
:1055E0002846BDE8704000F09BBA00BFAFF30080D2
:1055F00090F8443003F06003202B01D00020704766
:1056000090F84530212B03D0222B09D0202BF5D147
:10561000064B83630723C3630023036401207047A1
:1056200000238363C363036401207047580900208B
:10563000F8B500EB810306469C690D46CCB12023EA
:1056400083F31188FCF7E4FA0821201DFDF7A0F888
:10565000216CE26BA36B8A1AD71A16D106EB85036D
:10566000DA6853695B682BB9FCF7B2FA002383F35D
:105670001188F8BD128A013A12EA0307F4D1FCF747
:10568000A7FA3B4683F3118805E0FCF7A1FA002353
:1056900083F311883B463046294604F1300200F07E
:1056A0002FFA202383F31188FCF7B2FA30462946FB
:1056B00000F05EFAD8E700BFAFF30080AFF30080E0
:1056C00001F109032DE9F04150F823400D4606464B
:1056D000CCB1202383F31188FCF79AFA201D042112
:1056E000FDF756F806EB8503E169D868A26963699E
:1056F000478A8A1AC3EB0208474506D9FCF768FABD
:10570000002383F31188BDE8F081FCF761FA0023E0
:1057100083F31188B8FBF7F307FB03F33046294600
:1057200004F10C0200F0DCF9202383F31188FCF76C
:105730006FFA3046294600F0F3F9DFE7AFF3008057
:10574000704700BFAFF30080AFF30080AFF300807D
:1057500005F01EB9AFF30080AFF30080AFF3008017
:10576000002301220270436083600C30FCF7E0BE2E
:1057700038B504460D46D0B1C9B1202383F3118852
:10578000FCF77EFA2378013B012B04D90B480C4926
:105790007122FCF77DF92046656005F031F902239E
:1057A0002370FCF74DFA002383F3118838BD0548B8
:1057B00003496D22FCF76CF9DFE700BF9CCB0008C2
:1057C00080CB000870CB0008AFF30080AFF30080FF
:1057D00010B50446D8B1202383F31188FCF750FAA2
:1057E0002378013B012B04D90C480D498722FCF793
:1057F0004FF9204605F0CCF9204605F099F9012330
:105800002370FCF71DFA002383F3118810BD0548AF
:1058100003498322FCF73CF9DDE700BFB8CB000861
:1058200080CB0008ACCB0008AFF30080AFF3008062
:1058300010B50446A8B1202383F31188FCF720FAA1
:105840002378022B04D00A480A499A22FCF720F94F
:10585000204605F095F9FCF7F3F9002383F311884E
:1058600010BD054803499722FCF712F9E3E700BF92
:10587000D8CB000880CB0008C8CB0008AFF300806D
:1058800010B50446A8B1202383F31188FCF7F8F97A
:105890002378022B04D00A480A49AC22FCF7F8F816
:1058A000204605F075F9FCF7CBF9002383F3118846
:1058B00010BD05480349A922FCF7EAF8E3E700BF59
:1058C000F8CB000880CB0008E8CB0008AFF30080DD
:1058D00070B504460D46164608B1002937D11D485B
:1058E0001D4940F26712FCF7D3F8202383F3118897
:1058F000FCF7C6F92378022B05D0184816494FF457
:10590000B572FCF7C5F863681B682BB114481249DF
:1059100040F26B12FCF7BCF80323237020462946A3
:10592000324605F03DF9A3682BB10E480A4940F212
:105930006D12FCF7ADF80C4B9B690220A360FCF7DD
:10594000A7FAFCF77DF9002383F3118870BD002AC4
:10595000CBD1C4E738CD000880CB000844CD000887
:1059600054CD0008F0CC00088C190020AFF3008063
:1059700004F04EBDAFF30080AFF30080AFF30080C2
:105980000023012202704360C36183620362C36229
:105990004362036303814381704700BFAFF300801C
:1059A00070B504460E4600B3F9B1202383F3118885
:1059B000FCF766F92378013B012B05D90E480F4906
:1059C00040F21312FCF764F8002520466660E5609B
:1059D00025616561A56104F033FD02232370FCF7A6
:1059E0002FF92B4683F3118870BD0548034940F217
:1059F0000F12FCF74DF8D8E71CCE000800CE0008C7
:105A0000F0CD0008AFF30080AFF30080AFF300806B
:105A1000F8B504460E461546FCF782F8002C2AD04D
:105A2000002D28D02378042B05D01648164940F2C3
:105A30004312FCF72DF8B71C04EB87035B682BB10E
:105A40001248114940F24512FCF722F8686918B172
:105A500000211022FBF7FCFBA86918B100211022DD
:105A6000FBF7F6FB04EB8707204631467D60BDE877
:105A7000F84004F0DDBD0648034940F24112FCF74E
:105A800007F8CFE760CE000800CE00087CCE000803
:105A900048CE0008AFF30080AFF30080AFF3008082
:105AA00030B400EB81040025E468A4692570E2604D
:105AB0006360A56030BC04F0A3BE00BFAFF30080FC
:105AC00030B400EB81040025E46864692570E2606D
:105AD0006360A56030BC04F0ABBE00BFAFF30080D4
