:020000040800F2
:1000000000040010A10B0008A10D0008A10D0008BC
:10001000A10D0008A10D0008A10D0008A10D000808
:10002000A10D0008A10D0008A10D0008110E000887
:10003000A10D0008A10D0008A10D0008110F000876
:10004000A10D0008A10D0008A10D0008A10D0008D8
:10005000A10D0008A10D0008A10D0008A10D0008C8
:10006000A10D0008A10D0008A10D0008119B0008BA
:10007000519B0008919B0008D19B0008119C00082F
:10008000519C0008919C0008A1A5000821AB000824
:1000900041AB000861AB000881AB0008A10D00086E
:1000A00021BD0008A1BC0008A10D0008C1BC0008CA
:1000B000E1BC000801BD0008C1C00008A10D000896
:1000C000A10D0008A10D0008A10D0008A10D000858
:1000D000A10D0008A10D000851C4000871C400085A
:1000E000A10D0008A10D0008A10D0008A10D000838
:1000F000A10D0008A10D0008A10D0008D19C000869
:10010000A10D0008A10D0008E1C00008A10D000824
:10011000A10D0008A10D0008A10D0008A10D000807
:10012000119D0008519D0008919D0008D19D000877
:10013000119E0008A10D0008A10D0008A1AB000848
:10014000C1AB0008E1AB000801AC000851B50008E4
:10015000519E0008919E0008D19E0008A10D000844
:10016000A10D0008A10D0008A10D0008A10D0008B7
:10017000A10D0008A10D0008A10D0008A10D0008A7
:08018000A10D0008A10D00080B
:1001900008B504F085FC00F063FF03F009F806F0F1
:1001A000AFF803F065FD07F043FF06F079F8074864
:1001B00004F0CEF8064B01221A6003F041FC03F074
:1001C0005FFB4FF4FA7001F063FBF6E7501701088C
:1001D00084210120AFF30080AFF30080AFF30080F3
:1001E00081F0004102E000BF83F0004330B54FEAE8
:1001F00041044FEA430594EA050F08BF90EA020F55
:100200001FBF54EA000C55EA020C7FEA645C7FEAE7
:10021000655C00F0E2804FEA5454D4EB5555B8BF0A
:100220006D420CDD2C4480EA020281EA030382EA7B
:10023000000083EA010180EA020281EA0303362D0D
:1002400088BF30BD11F0004F4FEA01314FF4801CE0
:100250004CEA113102D0404261EB410113F0004FF2
:100260004FEA03334CEA133302D0524263EB4303A9
:1002700094EA050F00F0A780A4F10104D5F1200E47
:100280000DDB02FA0EFC22FA05F2801841F10001A2
:1002900003FA0EF2801843FA05F359410EE0A5F176
:1002A00020050EF1200E012A03FA0EFC28BF4CF0A7
:1002B000020C43FA05F3C01851EBE37101F000455D
:1002C00007D54FF0000EDCF1000C7EEB00006EEB6A
:1002D0000101B1F5801F1BD3B1F5001F0CD34908F4
:1002E0005FEA30004FEA3C0C04F101044FEA44524B
:1002F00012F5800F80F09A80BCF1004F08BF5FEAD2
:10030000500C50F1000041EB045141EA050130BDB1
:100310005FEA4C0C404141EB010111F4801FA4F154
:100320000104E9D191F0000F04BF01460020B1FAA9
:1003300081F308BF2033A3F10B03B3F120020CDAE1
:100340000C3208DD02F1140CC2F10C0201FA0CF0BF
:1003500021FA02F10CE002F11402D8BFC2F1200C24
:1003600001FA02F120FA0CFCDCBF41EA0C019040DA
:10037000E41AA2BF01EB0451294330BD6FEA040423
:100380001F3C1CDA0C340EDC04F11404C4F120020E
:1003900020FA04F001FA02F340EA030021FA04F320
:1003A00045EA030130BDC4F10C04C4F1200220FA77
:1003B00002F001FA04F340EA0300294630BD21FAB5
:1003C00004F0294630BD94F0000F83F4801306BF7B
:1003D00081F480110134013D4EE77FEA645C18BF6F
:1003E0007FEA655C29D094EA050F08BF90EA020F06
:1003F00005D054EA000C04BF1946104630BD91EAFE
:10040000030F1EBF0021002030BD5FEA545C05D100
:100410004000494128BF41F0004130BD14F580043F
:100420003CBF01F5801130BD01F0004545F0FE41B3
:1004300041F470014FF0000030BD7FEA645C1ABFE8
:10044000194610467FEA655C1CBF0B46024650EA1F
:10045000013406BF52EA033591EA030F41F400214B
:1004600030BD00BF90F0000F04BF0021704730B5D1
:100470004FF4806404F132044FF000054FF00001A6
:1004800050E700BF90F0000F04BF0021704730B567
:100490004FF4806404F1320410F0004548BF40423C
:1004A0004FF000013EE700BF42004FEAE2014FEA91
:1004B00031014FEA02701FBF12F07F4393F07F4F6C
:1004C00081F06051704792F0000F14BF93F07F4F9E
:1004D000704730B54FF4607401F0004521F00041E1
:1004E00020E700BF50EA010208BF704730B54FF067
:1004F00000050AE050EA010208BF704730B511F06C
:10050000004502D5404261EB41014FF4806404F1A3
:1005100032045FEA915C3FF4DCAE4FF003025FEA25
:10052000DC0C18BF03325FEADC0C18BF033202EBAD
:10053000DC02C2F1200300FA03FC20FA02F001FA07
:1005400003FE40EA0E0021FA02F11444C1E600BFA6
:1005500070B54FF0FF0C4CF4E06C1CEA11541DBF59
:100560001CEA135594EA0C0F95EA0C0F00F0DEF824
:100570002C4481EA030621EA4C5123EA4C5350EA09
:10058000013518BF52EA033541F4801143F480135A
:1005900038D0A0FB02CE4FF00005E1FB02E506F0EB
:1005A0000042E0FB03E54FF00006E1FB03569CF040
:1005B000000F18BF4EF0010EA4F1FF04B6F5007F46
:1005C00064F5407404D25FEA4E0E6D4146EB0606B8
:1005D00042EAC62141EA55514FEAC52040EA5E5041
:1005E0004FEACE2EB4F1FD0C88BFBCF5E06F1ED8EB
:1005F000BEF1004F08BF5FEA500E50F1000041EB22
:10060000045170BD06F0004646EA010140EA0200CE
:1006100081EA0301B4EB5C04C2BFD4EB0C0541EAF0
:10062000045170BD41F480114FF0000E013C00F305
:10063000AB8014F1360FDEBF002001F0004170BD29
:10064000C4F10004203C35DA0C341BDC04F1140442
:10065000C4F1200500FA05F320FA04F001FA05F2CE
:1006600040EA020001F0004221F0004110EBD3709B
:1006700021FA04F642EB06015EEA430E08BF20EAC7
:10068000D37070BDC4F10C04C4F1200500FA04F36A
:1006900020FA05F001FA04F240EA020001F00041FC
:1006A00010EBD37041F100015EEA430E08BF20EA6F
:1006B000D37070BDC4F1200500FA05F24EEA020EB7
:1006C00020FA04F301FA05F243EA020321FA04F0E6
:1006D00001F0004121FA04F220EA020000EBD3709D
:1006E0005EEA430E08BF20EAD37070BD94F0000F9D
:1006F0000FD101F00046400041EB010111F4801FD1
:1007000008BF013CF7D041EA060195F0000F18BF81
:10071000704703F00046520043EB030313F4801FBD
:1007200008BF013DF7D043EA0603704794EA0C0F77
:100730000CEA135518BF95EA0C0F0CD050EA41068D
:1007400018BF52EA4306D1D181EA030101F000410A
:100750004FF0000070BD50EA410606BF1046194632
:1007600052EA430619D094EA0C0F02D150EA01363E
:1007700013D195EA0C0F05D152EA03361CBF10467F
:1007800019460AD181EA030101F0004141F0FE411E
:1007900041F470014FF0000070BD41F0FE4141F4A2
:1007A000780170BD70B54FF0FF0C4CF4E06C1CEAA2
:1007B00011541DBF1CEA135594EA0C0F95EA0C0F57
:1007C00000F0A7F8A4EB050481EA030E52EA033512
:1007D0004FEA013100F088804FEA03334FF0805533
:1007E00045EA131343EA12634FEA022245EA111560
:1007F00045EA10654FEA00260EF000419D4208BF11
:10080000964244F1FD0404F5407402D25B084FEABD
:100810003202B61A65EB03055B084FEA32024FF469
:1008200080104FF4002CB6EB020E75EB030E22BFC6
:10083000B61A754640EA0C005B084FEA3202B6EB86
:10084000020E75EB030E22BFB61A754640EA5C0035
:100850005B084FEA3202B6EB020E75EB030E22BFC5
:10086000B61A754640EA9C005B084FEA3202B6EBC6
:10087000020E75EB030E22BFB61A754640EADC0085
:1008800055EA060E18D04FEA051545EA16754FEAE7
:1008900006164FEAC30343EA52734FEAC2025FEA05
:1008A0001C1CC0D111F4801F0BD141EA00014FF094
:1008B00000004FF0004CB6E711F4801F04BF014365
:1008C0000020B4F1FD0C88BFBCF5E06F3FF6AFAE81
:1008D000B5EB030C04BFB6EB020C5FEA500C50F111
:1008E000000041EB045170BD0EF0004E4EEA113194
:1008F00014EB5C04C2BFD4EB0C0541EA045170BD9B
:1009000041F480114FF0000E013C90E645EA060EDE
:100910008DE60CEA135594EA0C0F08BF95EA0C0F0C
:100920003FF43BAF94EA0C0F0AD150EA01347FF454
:1009300034AF95EA0C0F7FF425AF104619462CE72B
:1009400095EA0C0F06D152EA03353FF4FDAE10468E
:10095000194622E750EA410618BF52EA43067FF4DF
:10096000C5AE50EA41047FF40DAF52EA43057FF46F
:10097000EBAE12E7000000000000000000000000E5
:100980004FF0FF3C06E000BF4FF0010C02E000BF5B
:100990004FF0010C4DF804CD4FEA410C7FEA6C5C3E
:1009A0004FEA430C18BF7FEA6C5C1BD001B050EAE1
:1009B000410C0CBF52EA430C91EA030F02BF90EACC
:1009C000020F0020704710F1000F91EA030F58BF8B
:1009D000994208BF90422CBFD8176FEAE37040F0ED
:1009E000010070474FEA410C7FEA6C5C02D150EA8B
:1009F000013C07D14FEA430C7FEA6C5CD6D152EA46
:100A0000033CD3D05DF8040B704700BF844610460A
:100A100062468C461946634600E000BF01B5FFF709
:100A2000B7FF002848BF10F1000F01BD4DF808EDD9
:100A3000FFF7F4FF0CBF012000205DF808FB00BFAA
:100A40004DF808EDFFF7EAFF34BF012000205DF804
:100A500008FB00BF4DF808EDFFF7E0FF94BF012051
:100A600000205DF808FB00BF4DF808EDFFF7CEFF52
:100A700094BF012000205DF808FB00BF4DF808ED91
:100A8000FFF7C4FF34BF012000205DF808FB00BF62
:100A90004FEA410212F5001215D211D56FF47873A6
:100AA000B3EB625212D94FEAC12343F0004343EA49
:100AB000505311F0004F23FA02F018BF4042704724
:100AC0004FF00000704750EA013005D111F00040AE
:100AD00008BF6FF0004070474FF00000704700BF44
:100AE0004FEA4102B2F1E04324BFB3F5001CDCF150
:100AF000FE5C0DD901F0004C4FEAC0024CEA507088
:100B0000B2F1004F40EB830008BF20F001007047B6
:100B100011F0804F21D113F13872BCBF01F00040B9
:100B2000704741F480114FEA5252C2F11802C2F1EB
:100B3000200C10FA0CF320FA02F018BF40F001006C
:100B40004FEAC1234FEAD32303FA0CFC40EA0C001E
:100B500023FA02F34FEA4303CCE77FEA625307D15B
:100B600050EA01331EBF4FF0FE4040F44000704792
:100B700001F0004040F0FE4040F40000704700BF2C
:100B8000704700BFAFF30080AFF30080AFF3008089
:100B9000FEE700BFAFF30080AFF30080AFF300804B
:100BA00072B6704C84F309884EF63472CEF20002AD
:100BB0004EF68853CEF200034FF0404111601868A2
:100BC00040F470051D600022E1EE102A4EF63C73E1
:100BD000CEF2000306211A6081F31488BFF36F8FF1
:100BE0006148624DA84218D2EA1C051D531B23F030
:100BF0000302034610184FF0553183421960C2F3C7
:100C000080020AD01AB185422B46296005D01D1DED
:100C10005960083383426960F9D15548A04218D21F
:100C20005449041D0A1B22F00305034628184FF0FF
:100C3000553183421960C5F380020AD01AB184424B
:100C40002346216005D01D1D596008338342696029
:100C5000F9D10BF0ADFC4849484881421BD2C61C73
:100C60000C1D321B464822F00302161D05680423A2
:100C7000B3420D60C2F380020DD022B14568082353
:100C8000B342256007D01A1D1D5884585D500833A3
:100C9000B3428C50F7D13B483B49884217D2CB1C1A
:100CA000041D1A1B22F00305034628180021834265
:100CB0001960C5F380020AD01AB18442234621602C
:100CC00005D01D1D5960083383426960F9D1FFF7D3
:100CD00057FF2E4D2E498D421DD2CC1C2E1DA71B19
:100CE000B808471C01242A6800EA04089047BC425F
:100CF00011D0B8F1000F05D0022433689847BC42E8
:100D0000354608D0696888470234A8682E1D804798
:100D10000835BC42F6D1FFF73BFA1E4D1E4A9542FC
:100D20001DD2D41C2E1DA71BBB085F1C01242968E3
:100D300003EA04088847BC4211D0B8F1000F05D07F
:100D4000022430688047BC42354608D06A68904724
:100D50000234AB682E1D98470835BC42F6D1FFF728
:100D600017FF00BF00080010000000100004001072
:100D7000000400100308001000000020740600208A
:100D800088170108780600208821012088010008C2
:100D9000880100088801000888010008AFF300807E
:100DA000FEE700BFAFF30080AFF30080AFF3008039
:100DB000F8B54DF27014C0F6000407460FCC40F2AF
:100DC0007866C2F2000635460FC523682B70B969F4
:100DD00028460CF085F84DF284113046C0F600012B
:100DE0002E22BDE8F84000F0B3B900BFAFF3008099
:100DF00072B6FEE7AFF30080AFF30080AFF3008080
:100E000000F09EFA00F08CFC00F07AFA00DF00BFE0
:100E1000EFF309824EF63073CEF20003D2F8CC1015
:100E20005960986868309860683282F309880023B6
:100E300083F31188704700BFAFF30080AFF30080E9
:100E400008B54FF46D43CEF200034FF44072C0F288
:100E5000FA520021996007201021DA6000F0D8F8DA
:100E60000A204FF4007100F0D3F80B208021BDE878
:100E7000084000F0CDB800BFAFF30080AFF30080B2
:100E8000202383F311884FF46D43CEF2000358689A
:100E900010F4006325D0EFF30983A3F1680282F315
:100EA000098816494FF080708A6943F84C0C92F813
:100EB0002300096892688968B0B1914294BF00220A
:100EC0000122BAB10E4A43F8502CF1EE10FA4EF658
:100ED0003072CEF20002516841F001005966506054
:100EE000704783F311887047914234BF002201227A
:100EF000002AE7D1034843F8500CE8E798090010AE
:100F0000010E00080C0E0008AFF30080AFF3008064
:100F100008B500F09DF9202383F3118800F0D8F97B
:100F200000F0DEF800F0B4F9002383F3118800F03C
:100F30006FF9BDE80840FFF7A3BF00BFAFF3008023
:100F40002DE9F04F2DED108AC1F80CD0D0F80CD05F
:100F5000BDEC108ABDE8F08FAFF30080AFF30080E6
:100F600008B500F0CDF9002383F311882846A04787
:100F700000F0F6FC08BD00BFAFF30080AFF30080C7
:100F8000F0B44FF461438408CEF20003C03400F0A3
:100F9000030553F82470ED00FF26420906FA05F612
:100FA00027EA060601FA05F500F01F0002F16007C6
:100FB000012101FA00F02E4343F8246043F8270092
:100FC00043F82200F0BC7047AFF30080AFF300801D
:100FD00041094FF4614310B4CEF2000300F01F0248
:100FE0002031012404FA02F4820843F82140C0327F
:100FF00000F0030053F82210C000FF2404FA00F0B0
:1010000021EA000143F8221010BC7047AFF30080C2
:1010100082084FF46D43CEF20003063200F0030065
:1010200030B4C00053F82250FF2404FA00F425EA3B
:10103000040401FA00F10C4343F8224030BC70472D
:10104000024B034A98698261FEE700BF98090010CD
:101050001C0D0108AFF30080AFF30080AFF30080F8
:1010600030B583B0FFF7ECFE00F00AFA00F098F913
:1010700001F0DEF801F024F940F600004021C1F251
:10108000000000F05DFB40F6981440F20043C1F20E
:101090000003C1F200040125C36180F82050A06163
:1010A00000F066F9002383F3118862B64DF26041C7
:1010B000A269C0F60001916140F65000009341F230
:1010C00041034FF4A4712A46C0F60003C1F20000A8
:1010D00000F0BEFB03B030BDAFF30080AFF3008083
:1010E000F8B500F07DF8164B986990F8232012B1FE
:1010F000511E80F82310446A124D631C4362E86855
:101100002C68421CAC42EA6018D0A768013FA76077
:10111000A7B92168E6684D60E760296000F0B8F87B
:10112000002383F311882069B047202383F31188BB
:1011300000F0CEF82C68A368002BEAD0F8BD00BF01
:1011400098090010B4090010AFF30080AFF30080DD
:1011500070B506460D46144602F062FC00B170BD43
:1011600002F056FC0C4B0D4A18680D490D4B1560EA
:101170000C601E600028F2D131462A4623460A48F8
:1011800003F0E6F848F2A060C0F2010000F080FB36
:10119000BDE87040FFF72CBE8421012040070020ED
:1011A0004807002050070020B0D10008AFF30080AE
:1011B000064B186820B906490A68002A00DD704706
:1011C00004480549D322FFF7C3BF00BF44070020EE
:1011D0004C070020C4D10008CCD10008AFF3008038
:1011E000064B1868002804DB05490A68002A00DD60
:1011F000704704480449C522FFF7AABF44070020EE
:101200004C070020ECD10008CCD10008AFF30080DF
:1012100010B5202383F31188094C2368002B02DDCD
:10122000084A106828B108480849B522FFF790FF1E
:101230002368591E2160002383F3118810BD00BF6D
:10124000440700204C07002010D20008CCD1000831
:1012500010B5202383F31188094C2368002B02DB8F
:10126000084A106828B108480849A722FFF770FF0C
:101270002368591C2160002383F3118810BD00BF2F
:10128000440700204C07002018D20008CCD10008E9
:10129000084B1868002810B5074C05DD21680029A7
:1012A00002DD0022226010BD044805499A22FFF7A2
:1012B0004FFFF6E7440700204C07002020D200082B
:1012C000CCD10008AFF30080AFF30080AFF3008013
:1012D000074B1868002810B5064C01DD216821B1C4
:1012E000054806498E22FFF733FF0122226010BD18
:1012F000440700204C07002028D20008CCD1000869
:10130000084B186810B5084C28B92168002902DD7F
:101310000022226010BD054805498222FFF718FF10
:10132000F6E700BF440700204C07002048D2000821
:10133000CCD10008AFF30080AFF30080AFF30080A2
:10134000074B186810B5074C08B9216821B1064849
:1013500006497622FFF7FCFE0122226010BD00BF85
:10136000440700204C07002050D20008CCD10008D0
:10137000054B186810B905490A6822B104480549A7
:101380006B22FFF7E5BE7047440700204C070020A2
:101390006CD20008CCD10008AFF30080AFF300801E
:1013A00040F6B413C1F200034FF0FF3200205B603F
:1013B0001B609A60D8607047AFF30080AFF3008085
:1013C000F8B505460C4616461F46FFF709FFCDB196
:1013D000C6B1BCB10E492F610B68EE609A689442A9
:1013E00004D91B68A41A9A68A242FAD358682B60E1
:1013F0008B42686005605D60AC6002D099680C1B30
:101400009C60F8BD034804495122FFF7A1FEE1E7C3
:10141000B409001090D20008A0D20008AFF30080F9
:1014200010B50446FFF7DCFE84B1E368A3B1206881
:101430000C4A904203D08168A368CA188260616830
:101440000860206800234160E36010BD064807493A
:101450006D22FFF77DFEE8E7054804497022FFF79B
:1014600077FEE4E7B4090010C0D20008A0D200085B
:10147000D0D20008AFF30080AFF30080AFF300805C
:1014800040F69813C1F2000300225B601B609A6073
:101490005B611B61704700BFAFF30080AFF300805A
:1014A00010B50446FFF79CFE94F820308BB10E2B4C
:1014B0000FD00022A1680A4884F8202000688368C1
:1014C0008B42FBD24168206061600C604460204622
:1014D00010BD044804495A22FFF73AFEE9E700BF6D
:1014E00098090010F0D2000804D30008AFF3008080
:1014F00010B52023044683F31188FFF7E9FE94F822
:1015000020300D2B11D8DFE803F016101007100B58
:10151000101010101010100BA06A8268511C81600E
:1015200094E80C001A60206843604FF0FF33A36218
:101530002046FFF7B5FFFFF7ABFE002383F31188CA
:1015400010BD00BFAFF30080AFF30080AFF30080A9
:1015500070B5104C0646FFF72BFEA5692368E969B4
:101560001A6885F82060ADF164005460142622608A
:101570000122814285F82360A36183F8202003D9EA
:101580002846FFF715FCA36918462946BDE87040B8
:10159000FFF7D6BC98090010AFF30080AFF30080CE
:1015A00070B50C4686B00646FFF702FE631C12D0EB
:1015B0000B4D0C4AAB69214601A8FFF701FF3046ED
:1015C000FFF7C6FF049B13B101A8FFF729FFA86925
:1015D000806A06B070BD3046FFF7BAFF004DF6E7EF
:1015E00098090010F1140008AFF30080AFF30080F9
:1015F00070B5124D04460E46FFF7DAFDA869A268E1
:101600008368A6629A4211D9FFF74AFFC369AC61A9
:10161000ADF1640201219342064684F820100AD8F5
:1016200020463146BDE87040FFF78ABC2046BDE841
:101630007040FFF735BFFFF7BBFBF1E798090010DB
:1016400038B50F4C2368A5691A680121142054602D
:1016500083F8201085F8230028462260A361FFF755
:101660001FFFEB69ADF16402934202D92846FFF7F0
:101670009FFBA0692946BDE83840FFF761BC00BF69
:1016800098090010AFF30080AFF30080AFF3008043
:1016900070B5134E3068B5690368AC685E600122AE
:1016A000002180F820203360B06185F820100346C7
:1016B00000E01B689A68A242FBD8E9695A682B606F
:1016C000ADF16404A1426A6015605D6003D92846EB
:1016D000FFF76EFBB0692946BDE87040FFF730BCEC
:1016E00098090010AFF30080AFF30080AFF30080E3
:1016F00008B5FFF75DFD064B1A6898699168836825
:10170000994200D808BDBDE80840FFF7C1BF00BF3F
:1017100098090010AFF30080AFF30080AFF30080B2
:10172000044B986990F8231009B1FFF7B1BFFFF798
:1017300087BF00BF98090010AFF30080AFF30080AF
:101740002DE9F00140F69814C1F200040022656909
:101750004164046100F13006816000F12C0C00F15D
:101760004C0745614FF0020860610121142480F8A4
:10177000208080F8212080F823400264C263426206
:1017800080F8221082612861C0F82CC0466306638D
:10179000C761BDE8F0017047AFF30080AFF3008090
:1017A0002DE9F04704460D4617469846FFF718FD09
:1017B00014B1B5F59C7F38D21F482049A622FFF707
:1017C000C7FCA5F1640161181D4E089BD6F814C032
:1017D000E1604B641B4BC1F840800B660221002581
:1017E00004F1300204F12C0A04F14C0984F82010B1
:1017F000142301212661A760C4F814C02046746137
:1018000084F8215084F8233067642564E5636562B9
:1018100084F82210A561CCF81040C4F82CA06263B3
:101820002263C4F81C90BDE8F0877F2FC4D8B8F1BC
:10183000000FC6D1C0E700BF30D3000844D3000872
:1018400098090010610F0008AFF30080AFF300802B
:10185000F0B51C4683B005460E461746202383F399
:101860001188FFF76DFD089823463A4631460090EF
:101870002846FFF795FF00210446FFF7B9FEFFF762
:101880003FFD002383F31188204603B0F0BD00BF65
:1018900010B5044628B90A480A494FF49372FFF775
:1018A00057FC202383F31188FFF74AFD21460620C9
:1018B000FFF776FEFFF724FD002383F3118810BDA8
:1018C00094D3000844D30008AFF30080AFF3008046
:1018D00010B52023044683F31188FFF731FD064B32
:1018E000D968611A02D00620FFF75AFEFFF708FDFB
:1018F000002383F3118810BDB4090010AFF30080FA
:1019000038B5114B9C692546A06255F82C0FA842AA
:1019100006D00168E162FFF7C3FDE06AA842F8D192
:1019200094F82100830704D1636922691A6121694F
:101930004B610E20FFF70CFE0448054940F281126E
:10194000BDE83840FFF704BC98090010A4D3000894
:1019500044D30008AFF30080AFF30080AFF3008002
:1019600010B52023044683F31188FFF7E9FC2046D5
:10197000BDE81040FFF7C4BFAFF30080AFF30080B5
:1019800038B50446202383F31188FFF7D9FC94F877
:101990002230002B21D0581EC5B284F82250FFF708
:1019A000AFFC002383F311881DB994F820100E2991
:1019B00000D038BD94F8212002F00303012B14D08D
:1019C000022BF6D163692169A06C19612269214655
:1019D0005361BDE8384000F0FBBC094809494E227C
:1019E000FFF7B6FB94F82230D5E7636920691861E8
:1019F000216920464B61BDE8384000F071BC00BF52
:101A000028D4000804D40008AFF30080AFF30080AE
:101A100010B5202383F31188FFF792FC40F698134A
:101A2000C1F200031C6994F82200411C84F82210C2
:101A3000FFF766FC002383F31188204610BD00BF2A
:101A400038B50546202383F31188FFF779FC2C690C
:101A50000E4B9C4218D094F82200FF280CD0411C59
:101A600084F82210FFF74CFC002383F311882846EA
:101A7000FFF786FF204638BD054806499622FFF746
:101A800067FB94F82200EAE70024EBE798090010CE
:101A900080D4000898D40008AFF30080AFF3008032
:101AA00038B504460D4628B1002903DB6460246084
:101AB000A56038BD024803495822FFF749FBF5E706
:101AC000C0D40008D0D40008AFF30080AFF300808A
:101AD00038B50446FFF76CFB002C25D0A3682268BC
:101AE000002B0DDBA24205D012481349C022FFF79C
:101AF0002FFBA368581E0028A06007DB002038BD1C
:101B0000A242F1D0581E0028A060F7DA0B4DA96957
:101B10008C6262680C604A60032061601160FFF7AC
:101B200017FDAB69986A38BD05480349BC22FFF729
:101B30000FFBD3E724D50008D0D400089809001083
:101B400014D50008AFF30080AFF30080AFF300803E
:101B500010B52023044683F31188FFF7F1FB2046DC
:101B6000FFF7B6FF0446FFF7CBFB002383F3118892
:101B7000204610BDAFF30080AFF30080AFF30080CC
:101B800010B50446FFF72CFB002C22D0A368226876
:101B9000002B0DDBA24206D0114812494FF49B7274
:101BA000FFF7D6FAA368581C0028A06006DD10BD18
:101BB000A242F1D0581C0028A060F8DC21680A6815
:101BC00000230846226054608B62BDE81040FFF796
:101BD00067BC054803494FF49972FFF7B9FAD5E796
:101BE000A0D50008D0D400088CD50008AFF3008041
:101BF00010B5044620B1002364602460A36010BDCA
:101C0000024803495822FFF7A3FAF4E730D6000848
:101C100040D60008AFF30080AFF30080AFF3008040
:101C2000F8B53E4B05469C69FFF7C2FA002D6FD010
:101C3000A86800283AD0A2688168914208D290F83A
:101C400020308260042B49D0052B34D0002B22D0C9
:101C500028460068854203D08168A2689142F8D284
:101C60004368206063601C604460A5620420FFF745
:101C70006FFCA868A04204D029482A49B222FFF785
:101C800067FA216CA94215D027482649B322BDE83E
:101C9000F840FFF75DBA90E80C001A600268012175
:101CA00080F820105360FFF7FBFBD1E7206CAC609D
:101CB000E8602564F8BD41680768866A0F600768B8
:101CC000334679601B689E4202D099689142F9D2EE
:101CD0005A680360426010605860B9E7416807685D
:101CE000866A0F600768334679601B689E420DD094
:101CF00099689142F9D25A68036042601060586056
:101D0000B068A2688368934299D3A1E73346F2E7AB
:101D1000064804497D22FFF71BFA89E7980900105D
:101D200070D6000840D6000884D6000860D60008A7
:101D300010B52023044683F31188FFF701FB2046EA
:101D4000FFF76EFFFFF7DCFA002383F3118810BD65
:101D5000214A70B52023956983F31188FFF7F0FAC3
:101D60002C6C002C30D0A368AB4206D01B481C4919
:101D700040F20B12FFF7ECF92C6C2668E368A642E0
:101D80002B641ED0696C4BB11A689A4203D09068DC
:101D9000814238BF0146DB68002BF5D13368326CD5
:101DA000A9603046236000215C60A660E260346474
:101DB000FFF71EFCFFF7A4FA002383F311882046E7
:101DC00070BD0020A060F5E7064805494FF4847215
:101DD000FFF7BEF92C6CC6E798090010C0D60008C2
:101DE00040D60008ACD60008AFF30080AFF3008007
:101DF00038B504460D46FFF7F3F9C4B1E26B94F829
:101E0000203045EA0201082BE1630CD0092B00D0F9
:101E100038BDA06A01408842FAD12046FFF740FB56
:101E20000023836238BDA26A1142F6D138BD03484F
:101E30000349FE22FFF78CF9E0E700BF50D7000806
:101E400018D70008AFF30080AFF30080AFF3008035
:101E500070B505460E46FFF7C3F965B12C68A5427B
:101E600008D0201D0BC83343E360FFF7C1FF24688F
:101E7000A542F6D170BD03480349BC22FFF768F9BB
:101E8000ECE700BF74D7000818D70008AFF3008054
:101E900010B4024659B1084B9B69986244680D2002
:101EA00083E814005360236010BCFFF779BB4FF048
:101EB000FF3010BC704700BF98090010AFF30080DE
:101EC00010B4C361019B40608A18002400608460E4
:101ED00041618161C1600261036210BC704700BF53
:101EE00038B50446FFF77CF92068E3680021A0427A
:101EF0006361A361A1600AD06FF0010502682260EE
:101F00005460FFF7CDFA85622068A042F6D138BD53
:101F100038B504460D46FFF763F96369A269A06806
:101F200093421AD0411CA16003F8015B22696361EE
:101F300093420BD22068A0420DD0016821604C6012
:101F4000FFF7AEFA00228262104638BD2068E368CF
:101F5000A0426361F1D1002038BD0028E2D06FF0CB
:101F6000030038BDAFF30080AFF30080AFF3008013
:101F7000F8B504460E46202383F31188FFF7E0F9F5
:101F8000E3690BB120469847A5682046314655B90C
:101F9000FFF77EFF071EF7DAFFF7B2F92B4683F350
:101FA00011883846F8BDA0692269013DA56010F886
:101FB000017B9042A06124BFE068A061FFF7A0F917
:101FC000002383F311883846F8BD00BFAFF30080CB
:101FD0002DE9F0470446154688461E46C769002A83
:101FE0003AD0202383F31188FFF7AAF908F1010AF8
:101FF0004FF00009A8440FB12046B847A568204615
:1020000031465DB9FFF744FF0028F7D0FFF778F9B4
:102010002B4683F311884846BDE8F087A369013D4C
:10202000A56013F8012B0AF8012C2069A3618342F3
:1020300024BFE368A361FFF763F9002383F31188EA
:10204000C24509F10109E6D0202383F31188FFF787
:1020500077F90AF1010ACEE702480349E722FFF7C0
:1020600077F8BEE7C0D70008D4D70008AFF30080E8
:1020700010B4C361019B40608C18006082604161B4
:102080008161C1600461036210BC7047AFF30080DE
:1020900038B50446FFF7A4F8E36822692068636155
:1020A000D11AA042A361A1600AD06FF001050368B4
:1020B00023605C60FFF7F4F985622068A042F6D1E6
:1020C00038BD00BFAFF30080AFF30080AFF30080F6
:1020D0002DE9F041202304468846164683F31188F3
:1020E000FFF72EF9A568204631465DB9FFF7D0FE0F
:1020F000071EF7DAFFF704F92B4683F311883846F9
:10210000BDE8F0816369013DA56003F8018B226998
:102110006361934228BFE368E16928BF636109B145
:1021200020468847FFF7ECF8002383F311881F4609
:102130003846BDE8F08100BFAFF30080AFF3008008
:1021400038B50446FFF74CF8A3696269A0689A4263
:1021500016D0411CA16013F8015B2269A361934270
:102160000BD22068A04206D0016821604C60FFF7C6
:1021700097F900228262284638BDE368A361F0E740
:102180000028E6D06FF0020038BD00BFAFF300803A
:102190002DE9F0470446164688469A46D0F81C902A
:1021A000002A39D0202383F31188FFF7C9F80027CC
:1021B000A56820466B1E0DB3A360656918F8011B66
:1021C00005F8011B22696561954224BFE2686261DE
:1021D000B9F1000F00D0C847FFF792F8002383F34E
:1021E00011880137013E14D0202383F31188FFF7B3
:1021F000A7F8A56820466B1E002DDDD1204651466C
:10220000FFF746FE0028D3D0FFF77AF82B4683F37A
:1022100011883846BDE8F0870348044940F29B1214
:10222000FEF796FFBEE700BFF8D70008D4D7000836
:1022300040F6C81240F6C4134CF200010648C1F241
:102240000002C1F20003C2F2010120F0070021F0F8
:1022500007011060196070478F210120AFF30080E3
:1022600010B50446FEF7BCFF074A08491368096821
:10227000E01D20F00700C91A88429ABF18181060A4
:102280000023184610BD00BFC8090010C409001083
:1022900010B52023044683F31188FFF751F8204638
:1022A000FFF7DEFF0446FFF72BF8002383F31188C6
:1022B000204610BDAFF30080AFF30080AFF3008085
:1022C00040F6D013C1F2000342F291210022C0F681
:1022D000000103F1100019609A60DA60FFF788BC12
:1022E000F8B5074600284DD057F8086C06F11000E5
:1022F000FFF71EFD0836A7F108053446AC4204D8A6
:1023000063680833E01885421FD3B442216801D0C6
:10231000AC4202D219B18D4201D30C46EEE757F818
:10232000042C47F8081C256002F1080357F8080C34
:10233000E91881420FD0606800F1080163189D42DE
:1023400017D0BDE8F840FFF703BD11481149D0226E
:10235000FEF7FEFED9E74868EB581218083247F836
:10236000042C606847F8083C00F1080163189D429E
:10237000E7D157F8041C57F8082C4318083384E8B1
:102380000C00DEE704480349C622FEF7E1FEABE796
:1023900050D8000820D8000840D80008AFF30080CB
:1023A00038B504460D46FEF71BFF24B11DB1236866
:1023B0002B60256038BD034803499922FEF7C8FE0B
:1023C000F5E700BFB8D8000880D80008AFF3008058
:1023D00038B505460C46202383F31188FEF7B0FF7D
:1023E00028462146FFF7DCFFFEF78AFF002383F330
:1023F000118838BDAFF30080AFF30080AFF30080E9
:10240000F0B4002B08BF0B46074600F10B0C00F19F
:102410000A05B1FBF2F602FB161101F13004392C6A
:10242000C8BF01F13704E4B2B3FBF2F328463146EA
:1024300005F80149002BECD1C0EB0C03F94302462F
:10244000F8184318DB070AD507F8014B12F8014FBB
:1024500005E012F8014F7C7012F8014F5F1C3B46FB
:1024600003F8014B8342F4D1F0BC7047AFF3008016
:102470002DE9F04F2DED028B8FB00DF1210408AB4B
:1024800001940293064617460198029A4CF6CD45F0
:102490000C46CCF6CC45811A03910695254615F8D5
:1024A000011B59B125290ED033682C4625463046EC
:1024B0009A68904715F8011B0029F3D10FB0BDECC5
:1024C000028BBDE8F08F63782D2B00F0D4814FF0A4
:1024D00000092E2B00F0B281302B00F0AF814FF0BD
:1024E00020082C46002506E03978043705EB8505E1
:1024F000237801EB4505A3F13000C1B2013409296D
:10250000F4D92A2BF0D02E2B00F09D814FF0000B38
:102510006C2B00F08C814C2B00F08981A3F14401DD
:10252000342900F27D81DFE811F074017B017B0129
:102530007B017B0174017B017B017B017B017B01C2
:1025400072017B017B017B017B017B0170017B01BF
:102550007B0163017B017B017B017B017B017B01B3
:102560007B017B017B017B01240174017B01D30092
:102570007B017B0174017B017B017B017B017B0182
:1025800072017B017B017B0135007B0170017B01C6
:102590007B0163013868AE4A002814BF8246924628
:1025A00047F6FF719AF800300437BBF1000F08BFFF
:1025B0008B46002B00F098810AEB0B006FEA0A02B1
:1025C0009AF80130111801F001020AF1010B63B110
:1025D00083455B4609D0002A6ED09BF801300BF191
:1025E000010B13B183455B4666D1CAEB0B0B4FF071
:1025F0002008CBEB050525EAE575B9F1000F00F0E1
:10260000CA80BBF1000F27DDD146306819F8011BE5
:102610008268D3446FEA0A0C0BEB0C0E30460EF0C6
:10262000010A9047D94517D0BAF1000F03D033689B
:1026300019F8011B0BE03068CA4682681AF8011BC2
:1026400030469047336899F801100AF101099A68F9
:1026500030469047D945EED1002D3FF41FAF316889
:102660006B1E8A681D463046414603F001099047BB
:10267000002D3FF413AFB9F1000F07D03168304699
:102680008B6841469847013D3FF408AF30684146AA
:102690008268304690473168013D8B68304641463C
:1026A0009847013DF2D1F9E69BF801100BF1010BBF
:1026B00000299AD0834598D003F1010B59785A46E6
:1026C000531C0029F0D1CAEB0B0B4FF0200890E708
:1026D000073727F00707D7E90001FEF701FA08EEF0
:1026E000100AB5EEC08A0837F1EE10FA00F1F48056
:1026F0000DF1200A18EE100AFDF7D6FECDE904010F
:1027000009F066FF002800F0C780BBF1000F00F061
:10271000D380069AA2FB0B03D9080791BDEEC88AA5
:1027200000230A2218EE101A5046FFF769FE82466F
:102730002E220AF8012B18EE100AFDF7A3FE02461E
:102740000B46DDE90401FDF74FFDCDE904015846D4
:10275000FDF788FE02460B46DDE90401FDF7F8FEB1
:10276000FEF796F90A220146079B5046FFF748FEFE
:102770009CE03868DDF80CB08DF820004FF02008A0
:1027800004370DEB080ACBEB050525EAE575B9F131
:10279000000F7FF436AF6D42002D3FF432AF9AF850
:1027A00000102D296CD030684146826830466FEAAF
:1027B00005099047013509F001093FF422AFB9F14D
:1027C000000F07D0316830468B6841469847013585
:1027D0003FF417AF30684146826830469047316811
:1027E00001358B683046414698470135F2D108E7FC
:1027F0001022396808A804370023FFF701FE029968
:102800000DF1200AC1EB000BBDE70A22F1E7082217
:10281000EFE739680437002956DB08A80A22EBE7FE
:102820008DF82030DDF80CB00DF1200AABE72278EE
:10283000002A3FF473AE013413466FE66B784FF015
:10284000300801354DE621464FF0000B08E000BF8F
:10285000E0D80008387804370BEB8B0400EB440B0E
:1028600011F8013BA3F13004E0B209280C46F3D97A
:102870002A2BEFD04CE6A51CA3784FF0010928E6DF
:10288000B8F1300F8FD132683046936898470AF11B
:10289000010A0BF1FF3B86E74E2361218AF80030E5
:1028A0008AF801108AF802300AF10300029A0DF149
:1028B000200AC2EB000B66E748F2A06B42F21070F0
:1028C0000790C0F2010B29E72D238DF820304942F3
:1028D0000DF121000A228FE72D208DF82000B1EEA6
:1028E000488A0DF1210A05E79B464FF020084AE788
:1028F000C36882689A4206D04268D154C1684B1CB2
:10290000C360002070476FF001007047AFF3008094
:102910000369C2689A4205D04168CA5C0133036109
:10292000104670476FF00100704700BFAFF30080A2
:1029300038B5044608462369E5686168ED1AAA427D
:1029400038BF15462A46C9180AF03AF920694219D3
:102950002261284638BD00BFAFF30080AFF300808E
:1029600038B5C36885680446ED1A4068AA4238BF86
:1029700015462A46C0180AF023F9E1684A19E260B0
:10298000284638BDAFF30080AFF30080AFF300807E
:1029900010B44DF6F004C0F60004C36000230460D8
:1029A00041608260036110BC704700BFAFF30080DC
:1029B0000368052B70B504460D46164608D0991DD0
:1029C00004EB8302581C44F821602060556070BD00
:1029D000034804490D2200F0D3FB2368EFE700BF52
:1029E00000D9000814D90008AFF30080AFF30080CD
:1029F0000368002B70B5064609DD041F002504346A
:102A00000135A069616888473068A842F7DC70BD6D
:102A10000368002B2DE9F04106460F4690460ADD7B
:102A2000051F0024043538466A68414690473068DF
:102A30000134A042F6DCBDE8F08100BFAFF30080B6
:102A4000002953DD03464118002003E050008B426B
:102A5000C0B24AD013F8012B504010F0800F4FEA5B
:102A600040021CBF82F02702D243D0B210F0800F88
:102A70004FEA40021CBF82F02702D243D0B210F0CE
:102A8000800F4FEA40021CBF82F02702D243D0B22F
:102A900010F0800F4FEA40021CBF82F02702D243A1
:102AA000D0B210F0800F4FEA40021CBF82F0270224
:102AB000D243D0B210F0800F4FEA40021CBF82F028
:102AC0002702D243D0B24FEA400210F0800F1CBF61
:102AD00082F02702D243D2B21006B7D5520082F05C
:102AE0002700C2438B42D0B2B4D170470020704758
:102AF00010B50021044640220AF00AF9002323649D
:102B000010BD00BFAFF30080AFF30080AFF30080D3
:102B1000036C5A1C0264036C102B01D10022026466
:102B2000036C40F82310416C4A1C4264704700BF9C
:102B3000436C8B42B8BF436C026CA8BF0B46002BA2
:102B4000F0B441DD5C1ED143002A04F00105C3EB63
:102B5000020C144604DA21F00F0702F11003FC18EE
:102B6000531E0131634550F824702AD06DB1002BFB
:102B70001C4603DA21F00F040F32A41850F8242069
:102B8000013B0131634517441BD05A1E002B1E46E2
:102B900001F10104154604DA21F00F0103F11006DA
:102BA0008E1950F826100F33002A0F4402DA24F051
:102BB0000F05ED18531E50F82520611C634517447E
:102BC000E3D13846F0BC70470027FAE7AFF3008046
:102BD000F0B54DF22015C0F600052E4607460FCE83
:102BE000A5B010AC0FC40FCE0FC496E8030048F296
:102BF0009D06C3F6C656069641F27B46C3F62E6680
:102C000007964FF07A5608964AF22706C3F6B16641
:102C100009964FF07C560A964DF214062835C3F6F5
:102C2000187684E803000B960FCD48F21F56C3F6C2
:102C30002B760C964FF07D560D964DF214061AAC7D
:102C4000C3F658760E960FC40FCD0FC495E8030057
:102C500084E80300022006AB04A910AC01904DF6F5
:102C600090104FF07E56009302910494C0F600003D
:102C70001AAC394600220A230F96059404F010FE80
:102C800025B0F0BDAFF30080AFF30080AFF300805C
:102C900070B50024054606F043FC01210A46234690
:102CA000284606F045FC284601210222234606F06C
:102CB0003FFC284601210322234606F039FC284622
:102CC00001210422234606F033FC28460321012279
:102CD000234606F02DFC284603210222234606F057
:102CE00027FC032128460A46234606F021FC2846F5
:102CF00003210422234606F01BFC2846062101225C
:102D0000234606F015FC284606210222234606F03B
:102D10000FFC284603222346062106F009FC062163
:102D200028460422234606F003FC284608210122F7
:102D3000234606F0FDFB284608210222234606F022
:102D4000F7FB284608210322234606F0F1FB05F590
:102D5000F276082104222346284606F0E9FB304695
:102D600006F0DEFB304601210422234606F0E0FB9C
:102D7000304603210222234606F0DAFB30460621C4
:102D80000122234606F0D4FB05F5727508210322C3
:102D90002346304606F0CCFB284606F0C1FB012155
:102DA00028460A46234606F0C3FB2846234603214D
:102DB000012206F0BDFB284606210122234606F02B
:102DC000B7FB2846082101222346BDE8704006F0E3
:102DD000AFBB00BFAFF30080AFF30080AFF3008064
:102DE00000F65C62324B0021C4F20C212DE9F001A7
:102DF0001E68304C116001254FF47A7741F6583344
:102E00002D4AA0F84A51A0F84C71A0F848310A2088
:102E1000506106F6785504F1840761686960A3681B
:102E2000AB6054F80C0FBC4245F80C0FF5D1234CA5
:102E3000254606F5606255F8587D1760696851604F
:102E4000AB68083593600832A542F7D1DFF870C04F
:102E500006F5FC7400255C270CEB85010A4607FB90
:102E6000056000F5D07352F8848BE01A9C42C3F8D9
:102E70000080C0F3800013D038B1D1F8842043F82B
:102E8000042F9C4201F584720AD011685960D2F86F
:102E90008400191D08339C42486002F58472F4D105
:102EA00001355C34212DD7D1BDE8F001704700BF5A
:102EB000380200207CE5000894AE002088D9000884
:102EC000A0D90008AFF30080AFF30080AFF300801B
:102ED00070B51148114E84B001F03AFAFEF798FD32
:102EE000044694F82220A368616A0D48551E009597
:102EF00094F82020029156F822100191A5692146EC
:102F00000022039501F024FA2046FEF799FD0446BD
:102F10000028E6D104B070BD10E60008F0E9000812
:102F200040E60008AFF30080AFF30080AFF300800D
:102F30004EF268604EF27861C0F60000C0F6000103
:102F40002A22FEF705B900BFAFF30080AFF300807F
:102F50004EF2906038B5C0F6000040F61C04C2F294
:102F6000000401F0F5F942F633524EF2D861C0F296
:102F700033122046C0F6000101F062F94EF20871EA
:102F80004EF2E860C0F60001C0F6000001F0E0F982
:102F90004EF21070C0F6000001F0DAF94EF23C700B
:102FA0004EF24C71C0F60000C0F6000101F0D0F9FD
:102FB00048F2A0624EF290712046C0F60001C0F2C5
:102FC000010201F03DF94EF2A0712046C0F6000169
:102FD0004FF4E13201F034F946F640724EF2B0712E
:102FE0002046C0F60001C0F240124FF43D4501F00A
:102FF00027F9C0F201554EF2C07120462A46C0F6AC
:10300000000101F01DF94FF4F4424EF2D071204658
:10301000C0F60001C0F6032201F012F94DF68062FD
:103020004EF2E0712046C0F60001C0F2802201F0AD
:1030300007F94EF2F07120462A46C0F6000101F071
:10304000FFF84EF6000120460122C0F6000101F013
:10305000F7F84EF6180120460122C0F6000101F0F3
:10306000EFF84EF6280120460122C0F6000101F0DB
:10307000E7F84EF644010122C0F60001204601F0B7
:10308000DFF8204601F074F84EF66C034EF660014E
:103090004EF66802C0F60003C0F60001C0F600025A
:1030A000204600F09DFF204601F0BAF84EF6780168
:1030B00020460122C0F6000101F0C2F84EF68C0154
:1030C00020460122C0F6000101F0BAF84EF6A00138
:1030D00020460122C0F6000101F0B2F84EF6BC0114
:1030E00020460022C0F6000101F0AAF84EF6D801F1
:1030F0002046C0F60001012201F0A2F84EF6F401CC
:1031000001222046C0F6000101F09AF84EF608119F
:1031100020460422C0F6000101F092F84EF620117C
:103120002046C0F60001012201F08AF84FF4FA703F
:10313000BDE83840FEF7ACBBAFF30080AFF30080D2
:1031400008B541F60053C2F20003C1B21A6818462E
:103150009368984708BD00BFAFF30080AFF30080CD
:1031600038B541F60053C2F2000305461C680A4612
:10317000246818462946A04738BD00BFAFF3008039
:1031800070B540F254740346C2F200040D46204666
:103190001946164609F0A4FE204629463246BDE8E7
:1031A0007040FDF7D5BF00BFAFF30080AFF30080E4
:1031B00008B501F0B5FA44F24170C0F6000000F025
:1031C0008FF840F61C004EF64411C2F20000C0F623
:1031D000000101F01DF8FFF7BBFE4EF64C1042F661
:1031E0005171C0F60000C0F6000101F0A1F94EF6E1
:1031F000541042F63171C0F60000C0F6000101F033
:1032000097F94EF65C1042F6D161C0F60000C0F6A8
:10321000000101F08DF9BDE8084001F0A1B900BF3F
:103220002DE9F843264BDFF8A4809869254A264EFD
:10323000DFF89C908261454608F14E0700F0A0F946
:10324000D0B131682048CC68A047044600B20028BD
:1032500025DB042823D0082813D00D2822D01F28CE
:10326000ECDDBD42EAD2E0B2FFF76AFF05F8014BA0
:1032700000F086F90028E4D14FF47A70FEF708FBDD
:10328000DCE74545DAD0E4B22046FFF759FF2020BD
:10329000FFF756FF2046FFF753FF013DCEE7002022
:1032A000BDE8F883FFF74CFF0A20FFF749FF002332
:1032B00006482B70D9F8002005469047BEE700BFAE
:1032C0009809001030EA0008001D002000000020CE
:1032D000580E0020AFF30080AFF30080AFF3008002
:1032E00000B540F65863C2F2000383B0186000F0E6
:1032F00007F90020009043F2212340F620104FF4FC
:10330000A7614022C0F60003C2F20000FEF7A0FA57
:1033100003B000BDAFF30080AFF30080AFF30080D7
:1033200008B501F075FB202383F3118818B9BDE8B7
:103330000840FEF705B8BDE80840FDF7C9BF00BF6B
:1033400010B501F065FB044628B9FDF7D9FF234607
:1033500083F3118810BDFDF79BFF002383F31188D1
:1033600010BD00BFAFF30080AFF30080AFF300806B
:1033700008B541F6EC43C2F200034EF640201A684D
:10338000C0F60000511C196000F0A2F94EF658205A
:10339000C0F600000D21BDE8084000F089B900BF6B
:1033A00041F6EC43C2F2000341F6C0405A68C2F253
:1033B000000001322C215A6000F07AB9AFF300808E
:1033C00008B541F6EC43C2F200034EF668209A6855
:1033D000C0F60000511C996000F07AF940F65C607C
:1033E000C2F2000040F66461BDE8084000F060B938
:1033F00008B54EF67C20C0F6000000F069F94EF6E4
:103400008C20C0F600000721BDE8084000F050B94C
:10341000482808B515D04F2817D0572819D042286A
:103420001BD043281DD0742807D0542805D00F4B3B
:103430001A69501C1861002008BDFFF7D9FF012050
:1034400008BDFFF795FF012008BDFFF7A9FF012088
:1034500008BD00F04DF9012008BD00F089F90120F8
:1034600008BDFFF7ADFF012008BD00BFEC1C002028
:10347000022906D0032906D00748012918BF0020D9
:10348000704706487047032A03D8054800EBC2007E
:1034900070470020704700BF50EC000820EB000888
:1034A00020EC0008AFF30080AFF30080AFF30080A2
:1034B000022938B50C46054616D1202383F311881E
:1034C000FDF706FF28460121084A01F0E9FF2146E1
:1034D000074A284601F0E4FF064801F0A9FEFDF77F
:1034E000D7FE002383F3118838BD00BFA0EA00088F
:1034F00030EB0008001D0020AFF30080AFF3008028
:1035000038B541F60055C2F200054EF64044284653
:10351000C0F6000401F024FE2146284601F050FECA
:103520002468236D9A6B48F2A06022F4002199630D
:10353000C0F20100FEF7ACF94EF660312046C0F64D
:10354000000101F075FF236D986B002440F4002208
:1035500042F294009A632146C2F20100C4F20204CE
:1035600001F0DEFC0421204640F2823207F050FCDC
:103570002046082140F28232BDE8384007F048BCBE
:1035800041F60053C2F20003D3F8540201680A78EE
:10359000131F584258417047AFF30080AFF30080CB
:1035A0000D4B0E4A986970B50D4E0E4D826102E0CA
:1035B0002B68581C286031680948CC68A04704B2C1
:1035C0002046FFF725FF0028F2D121460648224673
:1035D00000F0BEFEECE700BF9809001060EC0008A8
:1035E0000C210120C822002074EC0008AFF30080F9
:1035F00010B54FF44064C4F20204204603F0E0FA30
:1036000001464EF694400922C0F6000000F0A0FEEC
:10361000204603F0D5FA01464EF6A4400822C0F633
:10362000000000F095FE41F6EC4442F2C823C2F2DD
:103630000003C2F200044EF6B44019682269C0F6D5
:10364000000000F085FE4EF6DC402168C0F6000068
:1036500000F07EFE4EF6F84061682C22C0F60000B5
:1036600000F076FE4EF61C50A168C0F6000040F651
:10367000646200F06DFE4EF64050E168C0F6000056
:1036800040F6646200F064FE41F68C71C2F2000103
:103690004EF664500968C0F60000BDE8104000F026
:1036A00057BE00BFAFF30080AFF30080AFF30080E0
:1036B00038B542F20C13C2F2010305461C680A46F3
:1036C000246818462946A04738BD00BFAFF30080E4
:1036D000014608B54FF64820C0F6000000F038FE5D
:1036E000BDE80840FFF784BFAFF30080AFF3008070
:1036F00041F68C73C2F200034EF680501A6810B582
:10370000511CC0F600001960FFF7E2FF4EF6905022
:10371000C0F60000032100F01BFE42F20C10C2F2C2
:10372000010041F688740368C2F200045B6803225A
:103730002146984701464EF6A050C0F6000000F022
:1037400007FE4EF6AC50C0F60000B4F90010A278A7
:1037500000F0FEFD40F25000C2F20000A178B4F982
:1037600000200368995410BDAFF30080AFF30080D0
:1037700008B541F6EC43C2F200034EF6C450DA68D5
:10378000C0F60000511CD960FFF7A2FF40F23820BC
:10379000C2F2000040F65C61C2F2000140F66462D1
:1037A000006809F00DFABDE8084004F061BF00BFF1
:1037B00040F23823C2F2000340F65C601968C2F29E
:1037C000000040F6646209F0FBB900BFAFF300806F
:1037D00010B54EF6D45142F2CC2082B0C0F60001B2
:1037E000C2F2000000F014FD4EF6E450C0F60000F6
:1037F0004FF4406400F0ACFDC4F202044EF6FC50FD
:1038000021460922C0F6000040F2823303F000FB9B
:103810004EF60C60082240F282332146C0F60000CA
:1038200003F0F6FA42F20C1040F25401C2F2010029
:10383000C2F2000101F074FBFFF7BAFF4EF61C6004
:1038400043F2F151C0F60000C0F6000100F070FE36
:103850000023009341F6907043F2A1534FF44E7150
:103860004022C0F60003C2F20000FDF7F1FF02B0F3
:1038700010BD00BFAFF30080AFF30080AFF3008056
:1038800010B505F005F841F6C044C2F2000420600E
:1038900006F076F8606006F013F9A06005F048FFC6
:1038A000E06005F055FF206105F0A2FF606105F0C2
:1038B000DFFFE06105F02CFF206205F011F8A06247
:1038C00010BD00BFAFF30080AFF30080AFF3008006
:1038D00042F2C463C2F2000301221A60704700BFC3
:1038E0002DE9F04707EE901A2DED048BB8EEE78A2C
:1038F000DFED368A88EE288A84B007464EF62064CB
:10390000C0F600044EF63068C0F600084EF6646655
:10391000C0F6000618EE101A05F0D2F9824606F03D
:10392000CFF805F08DF9054606F02AF805F070F994
:10393000814605F09DFF05F09BF909EE100A5046FF
:10394000FCF7B2FD02460B46204600F001FD28467A
:10395000FCF7AAFD044648460D46FCF7A5FD29EEF6
:10396000280A2246BDEEC09A2B46CDE900018DED16
:10397000029A404600F0ECFC18EE101A384605F0AA
:10398000DFF900EE900A20EEA81A18EE100AFDEEFC
:10399000C18AFCF789FDCDED008A02460B46304610
:1039A000394600F0D5FC18EE908A42F2C4504EF62B
:1039B000846118EE902AC2F20000C0F6000104B043
:1039C000BDEC048BBDE8F04700F092BC0000C8429B
:1039D0004EF6A0614EF69C63C0F60003C0F60001EF
:1039E000002818BF194610B50446054800F0B0FC81
:1039F00004480549224600F023FC0448046010BD39
:103A0000A4EE0008C8260020C0EE0008CC23002049
:103A10000220012103F064BAAFF30080AFF300800D
:103A200040F25073C2F200031868003018BF012042
:103A3000704700BFAFF30080AFF30080AFF30080AA
:103A4000F8B5FFF79DFD00B9F8BD704C236893B140
:103A50006F4E704F0220012103F042FA6E48216838
:103A600032683B6800F074FC48F2A060C0F20100CC
:103A7000FDF70EFFFEE700F04BFC02F099FF6748F0
:103A800001680029E0D0664F664EFA6845F6C52405
:103A90005509C0F67C24A4FB0513DC0902F090FF55
:103AA000054630686049A84202D10A68A242CBD0DC
:103AB000FF680C6004F0ECFE48F21F53C5F2EB13F4
:103AC0000446A3FB0720410907EE901A9FED570A11
:103AD000B8EEE77A0323C7EE000A5548554935602A
:103AE00010EE902A00F004FB2A465148524900F09B
:103AF00087FA224651494E4800F082FA04F040FB12
:103B00004F4902464A4800F07BFA05F021FE05467F
:103B10002946204605F0D4F8022302464949444884
:103B200000F0E6FA05F0CCFF05F08AF80223024621
:103B300045493F4800F0DCFA05F022FF05F068F83F
:103B40000223024641493A4800F0D2FA05F090FEBD
:103B500005F08EF8022302463D49354800F0C8FAC8
:103B60002946204605F0ECF8022302463949304840
:103B700000F0BEFA2946204604F09AF902230246D4
:103B800035492B4800F0B4FA05F032FE33490246BD
:103B90000223274800F0ACFA05F052FE0223024649
:103BA0002F49234800F0A4FA05F0D2FD0223024673
:103BB0002C491F4800F09CFA05F0F2FD0521024651
:103BC0001B4800F0C5FA05F0B3FD01EE100AFDEE4A
:103BD000C11A032111EE902A154800F0A9FA05F048
:103BE000CFFE01210246124800F0B2FA05F068FF4C
:103BF000022102460E4800F0ABFA0D4802F0D8FA56
:103C00000B48BDE8F84000F00BBB00BF5007002098
:103C10004007002048070020C4EE0008CC23002005
:103C2000B4090010600000206400002000007A4405
:103C3000C8260020E0EE0008E8EE0008F0EE0008DC
:103C4000F4EE0008F8EE000804EF000810EF00089A
:103C50001CEF000828EF000830EF000838EF0008DC
:103C60003CEF000844EF0008AFF30080AFF30080A2
:103C700042F2D03242F2C8604EF6487108B5C2F244
:103C800000024FF4FA73C2F20000C0F6000100F027
:103C9000A7FA4EF6547142F2C450C0F60001C2F2C7
:103CA000000000F0B5FA0120FFF792FE4EF66870B2
:103CB00043F6E101C0F60000C0F6000100F048FC48
:103CC0004EF6C06043F6D111C0F60000C0F6000108
:103CD00000F036FC4FF66C4043F6D101C0F6000010
:103CE000C0F60001BDE8084000F022BCAFF3008040
:103CF0000F4B104A70B4DC68156848F29F63651B6F
:103D0000C0F201039D42064607EE901A01DC70BC2A
:103D100070479FED097A27EE870A1460FDEEC00A0E
:103D2000064810EE902A314670BC00F0E1BA00BFA0
:103D3000B40900106800002000007A44C826002062
:103D4000F8B5074609F02CF9114B124D064693E8D9
:103D500003002860A980681D314600F041FE04463A
:103D60003A2004F8010B39462046A71909F0B8F8A3
:103D70000D210A22A1557A70FFF702FC00B9F8BDA7
:103D8000BB1C2846591BBDE8F840FFF7E9B900BF46
:103D900070EF0008F04E0020AFF30080AFF300801A
:103DA000F8B50E46044600293AD0304609F0F8F836
:103DB000D4F8F4300546002B38D0D4F8F800D4F805
:103DC000FC20C11A6B189A4209DD6A1C314608F0C2
:103DD000F7FED4F8F8004519C4F8F850F8BD244DA2
:103DE0000FCD6060A16003CD2D88E260236160612A
:103DF000A161A583216804F11D0009F021F8271DA8
:103E00001C4BC21BA41818883146A080384609F004
:103E10003FF8194938463022BDE8F840FFF7B0B9FD
:103E2000164815493722FDF793F9BEE7144D0FCD1B
:103E30006060A16003CD2D88E26023616061A161B3
:103E4000A583216804F11D0008F0FAFF271D094A27
:103E5000C11B1388641838463146A38009F018F84E
:103E6000054938462622BDE8F840FFF789B900BF6A
:103E7000C0EF0008BCEF000884EF000878EF0008EE
:103E8000A0EF0008AFF30080AFF30080AFF3008035
:103E900070B544F6DC64C2F20004064600252046F4
:103EA000E560FEF7E5FA6268E36846F2782130469D
:103EB000C2F20001D554BDE87040FFF771BF00BFEA
:103EC00008B5052806D8DFE800F00C0E1012140320
:103ED000094808BD09480A497722FFF751F900202F
:103EE00008BD084808BD084808BD084808BD08487E
:103EF00008BD084808BD00BFF0EF0008F4EF000857
:103F000084EF0008CC0C0108E4EF0008E0EF0008A3
:103F1000DCEF0008E8EF0008AFF30080AFF30080AB
:103F200044F6DC6046F2782108B54FF4FA620023CB
:103F3000C2F20000C2F20001FEF72AFD43F6503340
:103F4000C2F2000301221A7008BD00BFAFF3008067
:103F50001E4B1B782DE9F04180460F46164653B3A1
:103F60004FF46D44CEF20004194B65681C6805F0EF
:103F70001F05002C26D1202383F311886DB1FDF796
:103F8000A7F9404639463246FFF782FFFDF780F930
:103F9000234683F31188BDE8F081FDF7D1F940464F
:103FA00039463246FFF774FFFDF7AAF92B4683F333
:103FB0001188BDE8F081074807494922BDE8F04172
:103FC000FFF7DEB8BDE8F041FFF762BF503B0020CD
:103FD0004C0700200CF0000884EF0008AFF30080CD
:103FE0000EB400B582B003AB53F8041B1A4601931C
:103FF000FFF7AEFF02B05DF804EB03B0704700BFFF
:1040000070B54EF668040546C0F600041646FFF784
:10401000C7FE28462146FFF7C3FE40F60471284636
:10402000C0F6010132462346BDE87040FFF7D8BF15
:10403000013A10B504460846052A0ED8DFE802F01A
:1040400017212B353F03FCF72FFA0B462149024677
:104050002046BDE81040FFF7C3BFFCF725FA0B462A
:104060001D4902462046BDE81040FFF7B9BFFCF7E6
:104070001BFA0B46194902462046BDE81040FFF7DF
:10408000AFBFFCF711FA0B46154902462046BDE8C2
:104090001040FFF7A5BFFCF707FA0B46114902468F
:1040A0002046BDE81040FFF79BBFFCF7FDF90B462B
:1040B0000D4902462046BDE81040FFF791BFFCF7CE
:1040C000F3F90B46094902462046BDE81040FFF7C8
:1040D00087BF00BF6CF0000878F0000838F00008D7
:1040E00040F0000848F0000854F0000860F00008B4
:1040F000F8B54EF668040546C0F600041E4617469D
:10410000FFF74EFE28462146FFF74AFE284639466D
:104110003246FFF78DFF28462146BDE8F840FFF7FD
:104120003FBE00BFAFF30080AFF30080AFF300806D
:1041300038B5044608461546FFF7C2FE2A46014632
:104140002046BDE83840FFF75BBF00BFAFF30080FB
:1041500070B5044608461546FFF7B2FE2A460146EA
:1041600002232046BDE87040FFF7C2BFAFF30080D6
:1041700038B5D0F8F450044615B1C4F8F85038BD3D
:1041800003480449E822FCF7E3FFC4F8F85038BDBF
:104190007CF0000884EF0008AFF30080AFF30080EC
:1041A000F0B54EF6680483B005460F461646C0F6D5
:1041B0000004FFF7DDFF4FF2880128462246C0F6D3
:1041C0000001FFF70DFF4FF6CC3100942846C0F6F2
:1041D00000013A463346FFF703FF03B0F0BD00BFCE
:1041E000F8B504464FF29000C0F600000D461646A2
:1041F0001F4600F0ADF820462560C4F8F460C4F80E
:10420000FC70BDE8F840FFF7B3BF00BFAFF300801C
:1042100000F12C02C823FFF7E3BF00BFAFF300801B
:1042200010B50446D0F8F400FFF78AFD2046BDE83B
:104230001040FFF79DBF00BFAFF30080AFF30080D9
:1042400010B50446FFF7ACFF2046BDE81040FFF76D
:10425000E7BF00BFAFF30080AFF30080AFF3008093
:1042600070B50446D0F8F4000C4D08F099FE0646EF
:10427000FFF756F8284608F093FE41F28733861977
:104280009E4204DCD4F8F410281808F029FEFFF749
:1042900057F82046BDE87040FFF76ABF543B002046
:1042A000F8B504460F464EF668051646C0F60005FA
:1042B000FFF75EFF20463946FFF772FD204629468C
:1042C000FFF76EFD4FF2A00132462046C0F6000116
:1042D000FFF786FE20462946FFF762FD2046BDE82F
:1042E000F840FFF7BDBF00BFAFF30080AFF3008021
:1042F00010B50446FFF754FF2046BDE81040FFF715
:10430000AFBF00BFAFF30080AFF30080AFF300801A
:1043100038B50A4C0A4DFFF703F82946204608F045
:10432000DFFD00232B70FFF70BF8207800B938BDB4
:104330002046BDE83840FFF703BD00BFC827002076
:10434000543B0020AFF30080AFF30080AFF3008058
:104350000FB400B583B0FFF713F920B903B05DF8CF
:1043600004EB04B0704705AA024804990192FEF7D5
:104370007FF8F3E7001D0020AFF30080AFF300806B
:1043800070B50446012504E014F8013B2D2B0DD136
:104390006D42204608F004FE22460028F4D144F283
:1043A0003012C0F2AB0202FB05F070BD002834DD14
:1043B000303BD9B2092929D810180138811A0024B4
:1043C000C90717D512F8011F1C46A1F13003D9B255
:1043D00009290FD91AE011F8014F303C0A46E1B221
:1043E000092904EB460411D812F8013F303BD9B239
:1043F00009290BD804EB840403EB440382421146E1
:1044000003EB8306E7D103FB05F070BD4BF6D060EC
:10441000CFF6547000FB05F070BD002070BD00BFEA
:1044200070B50D46064608F0BBFD0446284608F068
:10443000B7FD844201D0002070BD002C25DD32780C
:104440002B789A42F7D10022E0073346294617D449
:1044500013F8015F11F8010F01228542EBD10132FF
:10446000944202F1010210D013F8015F11F8010F1C
:104470008542E0D113F8015F11F8010F8542DAD1CE
:104480000132944202F10102EED1012070BD00BF61
:1044900070B50C4E0C483168FFF75AFF3368002B9B
:1044A0000FDD0A4D002404EB440105EB81020848AE
:1044B00055F821105268FFF74BFF30680134A042D5
:1044C000F1DC70BD486A0020B0F00008146C0020D8
:1044D000C8F00008AFF30080AFF30080AFF30080B6
:1044E00001464FF2E000C0F60000FFF731BF00BF09
:1044F000F0B40B4C2368202B0BD00A4F03EB430680
:10450000B600BD190133B85123606960AA60F0BCE0
:104510007047054805491722F0BCFEF731BE00BFC1
:10452000486A0020146C0020F0F000080CF100082C
:104530000A460021FFF7DCBFAFF30080AFF3008035
:104540000A460121FFF7D4BFAFF30080AFF300802C
:104550000A460421FFF7CCBFAFF30080AFF3008021
:1045600008B54FF22C1044F29141C0F60000C0F69D
:104570000001FFF7DDFF4FF2341044F2E141C0F6D5
:104580000000C0F60001BDE80840FFF7D9BF00BF3A
:10459000F8B54368032B06460D4671D0042B084638
:1045A0000CD0022B43D0FFF7EBFE4BF6D061CFF6D9
:1045B0005471884235D0B2689047F8BD08F0F0FCDD
:1045C0000028FADD2C78202C00F099806C1C002249
:1045D000C3071FD42178012220292346144419D16E
:1045E000511CEAD0571C002018702846FFF7C8FE5F
:1045F0000446E819FFF7C4FEB36801462046984711
:10460000F8BD1C78202CEBD00B46097801325C1CDD
:104610002029E5D001329042234604F10101F0D176
:10462000F8BD3B482946BDE8F840FFF791BE08F0C9
:10463000B7FC00281CDD2B782E2B66D0691C0022CD
:10464000C3070FD40C7801222E2C0B46114409D13C
:104650001AE01C782E2C17D00C780B460132013151
:104660002E2C11D0013290420B4601F10101F0D104
:104670002846FFF785FE06EE100AF8EEC62A39E056
:10468000826808469047F8BD511CF1D0571C0020A5
:1046900018702846FFF774FEEF190546384608F0F3
:1046A0007FFC04463846FFF76BFE002C2ADD012113
:1046B000631EF2EE047A8C4203F00102B0EE677AD8
:1046C0000CD022B102218C4227EEA77A06D027EE29
:1046D000270A02318C4220EE277AF8D100EE900AA8
:1046E000F8EEE06A01EE105A86EE872AF8EEC11A5B
:1046F00071EE822AB36812EE900A9847F8BD2B46F5
:10470000012770E7B7EE007AE8E72B460127BEE7FE
:104710003CF10008AFF30080AFF30080AFF30080FE
:1047200008B5FFF7FDFB46F614304FF25411C2F204
:104730000000C0F60001BDE80840FFF769BD00BFFA
:104740002DE9F04F014681B0054604227C4808F06F
:1047500057FC002800F09180002D00F0EB80794B91
:10476000794C0FCB07C42046294600F8013B08F0DE
:1047700067FB764A118801802C7854B1202C4FF0C9
:10478000000402D105E0202803D00134285D002870
:10479000F9D1284608F004FCA04282466C4B48D070
:1047A000D3F80090002291452A552C4455DD694FDD
:1047B00009F1FF332846396803F00108BB46FFF7CB
:1047C0002FFE50BB01264E4547D0B8F1000F14D044
:1047D000BB4628465BF80C1FFFF722FEE8B902260D
:1047E0004E450AD139E0284657F8281007EB880BC8
:1047F000FFF716FE88B94E452FD006EB4602284635
:1048000057F8221007EB820BFFF70AFE06F10108AA
:1048100008EB480802360028E5D05846611CFFF72F
:10482000B7FE4D484849524601B0BDE8F04FFFF78A
:104830005FBDD3F80080B8F1000F0EDD454E08F1E2
:10484000FF372846316807F00107B146FFF7E8FD5A
:10485000002864D1012444453CD100223E483F4910
:10486000FFF746FD3C4838494FF0FF32FFF740FD67
:1048700001B0BDE8F04FFFF70BBE394829462C1DAB
:10488000FFF766FD36482146FFF762FD2B79212BA5
:1048900053D0002B47D0681D01E0002A43D00546C5
:1048A00010F8012B212AF8D1002105F8011B204620
:1048B000FFF766FD0446284608F072FB8442024674
:1048C0003FF44DAF274821462B4601B0BDE8F04FDD
:1048D000FFF73EBDA7B1B146284659F80C1FFFF7B8
:1048E0009FFDE0B9022444450AD1B6E7284656F8B0
:1048F000271006EB8709FFF793FD80B94445ACD03C
:1049000004EB4403284656F8231006EB8309FFF70F
:1049100087FD671C07EB470702340028E6D0D9F86B
:10492000081088477DE71048214601B0BDE8F04FE8
:10493000FFF70EBD01B0BDE8F08F2546B4E700BF1C
:1049400064F10008CCF100084C6A002074EF000804
:10495000486A0020146C0020146B0020DCF1000871
:104960006CF1000898F100087CF10008AFF30080BA
:1049700070B405464CF6CD4005F10B0605F10A046E
:10498000CCF6CC40A0FB0123DB0803EB8302A1EBB8
:1049900042013031CAB21946234604F801290029E0
:1049A000F0D1F01A19462818EB43C318DB070AD5D3
:1049B00005F8012B11F8012F05E011F8012F6A709D
:1049C00011F8012F5D1C2B4603F8012B8342F4D113
:1049D00070BC7047AFF30080AFF30080AFF300808E
:1049E00008B50B1E04DBFFF7C3FF0021017008BDF3
:1049F0002D22594200F8012BFFF7BAFF0023037064
:104A000008BD00BFAFF30080AFF30080AFF30080BC
:104A100040F24473C2F2000318680028D4BF00209B
:104A200001207047AFF30080AFF30080AFF3008048
:104A30002DE9F041194C984625680F460446164664
:104A4000202383F31188002D13DDFCF741FCE0687F
:104A500010B12046FCF7E4FC434620463946324676
:104A6000FCF7AEFCFCF714FC002383F31188BDE8CF
:104A7000F081FCF765FCE36813B12046FCF7D0FC3D
:104A80004346204639463246FCF79AFCFCF738FC90
:104A9000002383F31188BDE8F08100BF44070020A4
:104AA00008B505F03DFB41F25060C0F6010006F08C
:104AB000D7F800F02DF800F0A3F800F0C9F800F0E6
:104AC0007FF900F0FDF900F08BFC00F099FC00F09C
:104AD0003FFBBDE8084007F073BD00BFAFF30080A7
:104AE0004FF48053CEF2000319465A688018824270
:104AF0004B6802D29A4202D970479A42F7D998423B
:104B000094BF00230123002BF1D17047AFF3008045
:104B100005F0CEBBAFF30080AFF30080AFF30080B1
:104B200000230122027043608360C360036143611C
:104B30001830FDF75DB800BFAFF30080AFF3008021
:104B400038B504460D46C8B1202383F31188FCF71D
:104B5000F7FB2378581E012804D90B480B4975220E
:104B6000FCF7F6FA2046656005F0D2FB02212170C1
:104B7000FCF7C6FB002383F3118838BD04480349C2
:104B80007122FCF7E5FADFE71CF2000800F20008EA
:104B9000F0F10008AFF30080AFF30080AFF30080C6
:104BA000F8B504460E4617461D46FCF719FBDCB166
:104BB000D6B1CFB1012D01D0EB0715D42078022852
:104BC00008D0042806D0052804D00A480A49C7227C
:104BD000FCF7BEFA03232046A760E5602661237038
:104BE000BDE8F84005F0FCBB04480349C322FCF7CC
:104BF000AFFAE3E760F2000800F2000848F20008AC
:104C000006F00EB8AFF30080AFF30080AFF3008082
:104C100038B50446002501232946237000F1080019
:104C20006560FCF73DFF294604F11400FCF738FFEE
:104C300004F1200504F1240004F1280104F12C0200
:104C400004F1300325626062A162E262236338BD31
:104C500007F076B8AFF30080AFF30080AFF30080C9
:104C60000123002103704160704700BFAFF3008053
:104C700038B504460D46D0B1C9B1202383F311885D
:104C8000FCF75EFB2378581E012804D90B480C4919
:104C90006422FCF75DFA2046656007F081F8022186
:104CA0002170FCF72DFB002383F3118838BD0548E4
:104CB00003496022FCF74CFADFE700BF4CF3000821
:104CC00030F3000820F30008AFF30080AFF300805A
:104CD00010B50446C0B1202383F31188FCF730FBE4
:104CE0002378581E012804D90A480B497822FCF77A
:104CF0002FFA204607F01CF901212170FCF700FB78
:104D0000002383F3118810BD044803497422FCF783
:104D10001FFAE0E768F3000830F300085CF30008CE
:104D200010B50446B8B1202383F31188FCF708FBC3
:104D30002378022B04D00B480B498A22FCF708FA8F
:104D4000204607F04DF903202070FCF7D9FA002324
:104D500083F3118810BD054803498722FCF7F8F951
:104D6000E1E700BF88F3000830F3000878F300089B
:104D700010B50446C0B1202383F31188FCF7E0FA94
:104D80002378981E032804D90A480B499E22FCF771
:104D9000DFF9204607F04CF902212170FCF7B0FA48
:104DA000002383F3118810BD044803499922FCF7BE
:104DB000CFF9E0E7A8F3000830F3000898F3000803
:104DC00007F09EB9AFF30080AFF30080AFF300802F
:104DD0000123002103704160704700BFAFF30080E2
:104DE00038B504460D46E0B1D9B1202383F31188CC
:104DF000FCF7A6FA2378581E012804D90C480D495F
:104E00006922FCF7A5F9A98865602046218107F091
:104E100097F902222270FCF773FA002383F31188BA
:104E200038BD054803496522FCF792F9DDE700BF6C
:104E3000ECF30008D0F30008C0F30008AFF30080E3
:104E40000C30FDF7C5B800BFAFF30080AFF30080B2
:104E50000C304FF0FF33FDF7BBB800BFAFF300805D
:104E60003030FDF795B900BFAFF30080AFF300809D
:104E700030304FF0FF33FDF78BB900BFAFF3008048
:104E80000C30FDF775B800BFAFF30080AFF30080C2
:104E90000C304FF0FF31FDF76BB800BFAFF300806F
:104EA0003030FDF715B900BFAFF30080AFF30080DD
:104EB00030304FF0FF32FDF70BB900BFAFF3008089
:104EC00007F0E6BAAFF30080AFF30080AFF30080E5
:104ED00070B54FF210530546C0F60003044645F87E
:104EE000043B82B0656001250B46164604F154016F
:104EF0001022257200F10C000094FCF7E1FF0094F1
:104F000004F1300004F1640110223346FDF7B0F8DB
:104F100002B070BDAFF30080AFF30080AFF300804C
:104F200038B504460D46C8B1202383F31188FCF739
:104F300007FA237A581E012804D90B480B49A622E8
:104F4000FCF706F92046294607F0CAFA0221217229
:104F5000FCF7D6F9002383F3118838BD04480349D0
:104F6000A122FCF7F5F8DFE7B8F400089CF400088C
:104F700090F40008AFF30080AFF30080AFF300803F
:104F800038B504460D46FCF72BF9D4B163693BB143
:104F900004F10C002946FCF7BBFF00280BDB38BDF1
:104FA000201D0421FCF754FF04F10C002946FCF7F6
:104FB000AFFF0028F3DA201D8021BDE83840FCF760
:104FC00047BF03480349D822FCF7C2F8DEE700BF19
:104FD000E4F400089CF40008AFF30080AFF3008015
:104FE00070B5046AD4F854321A681178042900D0D4
:104FF00070BD207A0228FBD115891B7945FA03F28E
:1050000012F00105F4D1266CE16BA06B731A1E1A25
:10501000EED0FCF775F92B4683F31188D4F85422AF
:1050200033461068117904F1300200F0B1FA202300
:1050300083F31188FCF784F9D4F8541208680979CD
:10504000BDE8704000F0DCBAAFF30080AFF3008041
:10505000F8B5046AD4F8542213681978042900D0EA
:10506000F8BD207A0228FBD155795F8903EB8503CF
:1050700047FA05F2D96812F001074D8AF0D1E669C6
:10508000A0696369321AD61AB542E9D8FCF738F933
:105090003B4683F31188D4F85412B6FBF5F305FBB5
:1050A00003F30868497904F10C0200F061FA202347
:1050B00083F31188FCF744F9D4F85432186859790D
:1050C000BDE8F84000F074BAAFF30080AFF30080A1
:1050D0000C30FCF77DBF00BFAFF30080AFF3008062
:1050E0000C304FF0FF33FCF773BF00BFAFF300800D
:1050F0003030FDF74DB800BFAFF30080AFF3008054
:1051000030304FF0FF33FDF743B800BFAFF30080FE
:105110000C30FCF72DBF00BFAFF30080AFF3008071
:105120000C304FF0FF31FCF723BF00BFAFF300801E
:105130003030FCF7CDBF00BFAFF30080AFF300808D
:1051400030304FF0FF32FCF7C3BF00BFAFF3008039
:10515000704700BFAFF30080AFF30080AFF3008073
:1051600030B54FF280530546C0F60003044645F8BB
:10517000043B83B0656045F25103012504F15401FD
:10518000257200F10C004FF48072C0F60003009409
:10519000FCF796FE44F6E173009404F1300004F548
:1051A000AA714FF48072C0F60003FCF761FF03B0F0
:1051B00030BD00BFAFF30080AFF30080AFF30080DD
:1051C00070B50D4604460E6818B3202383F311888A
:1051D000FCF7B6F8237A581E012804D91048114963
:1051E000DF22FBF7B5FF297906EB810202219461EA
:1051F0006B79093346F82340A87906EB8006B46141
:10520000C4F854522172FCF77BF8002383F3118811
:1052100070BD05480349DA22FBF79AFFD5E700BFC6
:1052200060F5000840F5000830F50008AFF3008095
:1052300070B5D0F8543200F10C06044630461D68B3
:10524000FCF74EFE04F13000FCF722FF201D012187
:10525000FCF7FEFDD4F85402417905EB81022846A3
:10526000D36832465B8A00F083F9D4F85412497946
:105270002846BDE8704000F09BB900BFAFF3008046
:1052800090F8443003F06001202901D000207047DD
:1052900090F84520212A03D0222A09D0202AF5D1CE
:1052A0000649072200238163C2630364012070471B
:1052B00000238363C3630364012070476C000020F4
:1052C000F8B500EB810306469C690D46CCB120235E
:1052D00083F31188FBF7FCFF201D0821FCF7B8FDC4
:1052E000216CE26BA06B8F1A3F1A16D106EB850377
:1052F000D9684A69506828B9FBF7CAFF002383F3CD
:105300001188F8BD0F8A7B1E13EA0007F4D1FBF762
:10531000BFFF3B4683F3118805E0FBF7B9FF00238D
:1053200083F311883B463046294604F1300200F0F1
:105330002FF9202383F31188FBF7CAFF3046294653
:1053400000F05EF9D8E700BFAFF30080AFF3008054
:1053500001F109032DE9F04150F823400D460646BE
:10536000CCB1202383F31188FBF7B2FF201D042169
:10537000FCF76EFD06EB8500E169C768A269636909
:105380007F8A881AC3EB0008474506D9FBF780FFE0
:10539000002383F31188BDE8F081FBF779FF002338
:1053A00083F31188B8FBF7F307FB03F33046294674
:1053B00004F10C0200F0DCF8202383F31188FBF7E2
:1053C00087FF3046294600F0F3F8DFE7AFF30080AF
:1053D000704700BFAFF30080AFF30080AFF30080F1
:1053E00006F0D6BBAFF30080AFF30080AFF30080D0
:1053F000002301220270436083600C30FCF7F8BB8D
:1054000006F02EB9AFF30080AFF30080AFF3008059
:105410000023012202704360C36183620362C3629E
:105420004362036303814381704700BFAFF3008091
:1054300070B504460E4600B3F9B1202383F31188FA
:10544000FBF77EFF2378581E012805D90E480F4927
:1054500040F21312FBF77CFE002520466660E560F3
:1054600025616561A56106F013F902212170FBF742
:1054700047FF2B4683F3118870BD0548034940F26E
:105480000F12FBF765FED8E7ECF50008D0F5000831
:10549000C0F50008AFF30080AFF30080AFF30080E9
:1054A000F8B504460E461546FBF79AFE002C2AD0A6
:1054B000002D28D02378042B05D01648164940F239
:1054C0004312FBF745FEB71C04EB8700416829B186
:1054D0001248114940F24512FBF73AFE686918B1CB
:1054E0000021102207F014FCA86918B10021102235
:1054F00007F00EFC04EB8707204631467D60BDE8CF
:10550000F84006F0E5B90648034940F24112FBF7BE
:105510001FFECFE730F60008D0F500084CF6000873
:1055200018F60008AFF30080AFF30080AFF30080FF
:1055300030B400EB81040025E468A4692570E260C2
:105540006360A56030BC06F0ABBA00BFAFF300806B
:1055500030B400EB81040025E46864692570E260E2
:105560006360A56030BC06F0B3BA00BFAFF3008043
:1055700030B400EB8104E568AC6901256360002369
:105580002570E260A36030BC06F08ABAAFF30080F9
:1055900030B400EB8104E5686C6901256360002389
:1055A0002570E260A36030BC06F092BAAFF30080D1
:1055B00070B504460D46FBF713FE9CB1638943FAB0
:1055C00005F010F0010601D0012070BD012202FAA1
:1055D00005F242EA030161812046294606F098FA65
:1055E000304670BD034804494FF4F472FBF7B0FD38
:1055F000E4E700BFA0F60008D0F50008AFF3008094
:1056000070B504460D46FBF7EBFD9CB1238943FAC8
:1056100005F010F0010601D0012070BD012202FA50
:1056200005F242EA030121812046294606F078FA74
:10563000304670BD0348044940F20322FBF788FD61
:10564000E4E700BFB8F60008D0F50008AFF300802B
:1056500010B40346002202240470A0F84C2083F802
:105660004E2080F84F2002814281C2600261426177
:10567000826183F8342010BC06F07AB8AFF3008062
:10568000F8B50446002380F8343000F1440206F0F7
:10569000F7F96068816800292DD02046884750B30B
:1056A000E56B94F8443094F84B1094F84A2042EAA1
:1056B0000120A8423CBF0546E06313F0800F2B4653
:1056C00040F08780002D6DD1052184F834102046EC
:1056D00029462A46FFF73CFF202383F31188FBF776
:1056E000F7FD29462046FFF78BFFFBF7D1FD2B4640
:1056F00083F31188F8BD94F8443013F0600711D09B
:105700000021204606F02CFA2046002106F020FA5F
:1057100063681A6812B1204605219047062084F874
:105720003400F8BD94F8456003F07F0242EA062693
:10573000B6F5407F00F0068117DDB6F5C06F00F0CA
:10574000968075DDB6F5106F00F0C18040F602421C
:10575000964200F08580B6F5006FD1D1012504F1A5
:105760004F00A063E56327649DE7022E00F0C1802F
:1057700071DDB6F5807F00F09380B6F5817FBFD1F3
:1057800094F846100029BBD194F8485015F00F0149
:105790005CD02A06204600F1068106F0E9F994F86B
:1057A000443053E0042284F8342020460021A26BC8
:1057B000FFF7BEFE202383F31188FBF789FD00214C
:1057C0002046FFF7F5FEFBF763FD002383F3118806
:1057D000F8BDB5B1012184F8341020460021A26B38
:1057E000FFF7B6FE202383F31188FBF771FD00213C
:1057F0002046FFF705FFFBF74BFD002383F31188DD
:10580000F8BD032084F83400294620462A46FFF7D5
:105810008FFE202383F31188FBF75AFD294620468B
:10582000FFF7C6FEFBF734FD2B4683F31188F8BD66
:1058300040F20230864273D0B6F5A06F7FF460AFBD
:10584000B4F84410B1F5A06F00F09B800025A5636B
:10585000E563256427E7002E32D0012E7FF450AF98
:10586000564902250022A163E56322641BE76068B4
:1058700094F8496094F84830456894F8471094F8D3
:105880004620204643EA0623A84700283FF438AFC5
:105890004168056894F84430A163E563276402E732
:1058A00094F84620012A7FF42BAFB4F84C00A7638C
:1058B00020F00201A4F84C10E76327643D46F2E6AD
:1058C000022504F14C00A063E5632664EBE694F83E
:1058D000465084F84F50002D44D103212170626856
:1058E0001568002DB2D020460221A84794F8443014
:1058F000ACE794F8483013F0800F204603F00F0116
:1059000033D106F09DF8012833D002287FF4F8AE99
:105910002B4DE063A563276494F844300546C2E646
:1059200094F8461000297FF4EBAE94F8485015F037
:105930000F018BD02B0620463AD406F009F994F8D3
:10594000443083E794F84620012A7FF4D9AEB4F8B6
:105950004C50A76345F00200A4F84C00E7632764AD
:105960003D46A0E604202070B9E706F079F801284A
:10597000CBD1144AE663A263276494F844303546D9
:1059800091E694F84630204684F84E3005F090FFBA
:1059900065682A6812B1204601219047032094F8D7
:1059A0004430207052E706F0EBF894F844304DE7AD
:1059B00006F0D6F894F8443048E700BFA0F5000898
:1059C000B0F5000800F70008AFF30080AFF30080E7
:1059D00038B590F83430022B044624D0052B3AD049
:1059E000012B10D0002106F0BBF82046002106F064
:1059F000AFF86068026812B1204605219047062181
:105A000084F8341038BD90F84B1090F84A30C26BCF
:105A100043EA0121914206D9C5682B8AB2FBF3F112
:105A200003FB1125F5B1002103200B4684F8340057
:105A30000A462046FFF77CFD202383F31188FBF7FD
:105A400047FC00212046FFF7B3FDFBF721FC0023B4
:105A500083F3118838BD026C02B19047002384F8AB
:105A6000343038BD2B4629462A46FFF771FD2023E6
:105A700083F31188FBF72CFC29462046FFF7C0FD75
:105A8000FBF706FC2B4683F31188022084F83400D0
:105A900038BD00BFAFF30080AFF30080AFF30080EC
:105AA00090F83430032B10B504462AD0042B11D0C3
:105AB0000021204606F054F82046002106F048F860
:105AC00063681A6812B1204605219047062184F8C0
:105AD000341010BD002105220B4680F834200A4600
