:020000040800F2
:1000000000040010B11500087118000871180008EC
:10001000711800087118000871180008711800089C
:10002000711800087118000871180008E11800081C
:10003000711800087118000871180008011A0008EA
:10004000711800087118000871180008711800086C
:10005000711800087118000871180008711800085C
:10006000711800087118000871180008A110010823
:10007000E11001082111010861110108A111010815
:10008000E111010821120108811C010871210108F8
:1000900091210108B1210108D1210108711800083E
:1000A000D13701085137010871180008713701086C
:1000B00091370108B1370108513C01087118000857
:1000C00071180008711800087118000871180008EC
:1000D0007118000881400108A1400108C1400108D1
:1000E00071180008711800087118000871180008CC
:1000F00071180008711800087118000861120108D1
:100100007118000871180008713C01087118000886
:10011000711800087118000871180008711800089B
:10012000A1120108E112010821130108611301085D
:10013000A11301087118000871180008F1210108C5
:10014000112201083122010851220108A12B0108C6
:10015000E113010821140108611401087118000855
:10016000711800087118000871180008711800084B
:10017000711800087118000871180008711800083B
:08018000711800087118000855
:1001900081F0004102E000BF83F0004330B54FEA38
:1001A00041044FEA430594EA050F08BF90EA020FA5
:1001B0001FBF54EA000C55EA020C7FEA645C7FEA38
:1001C000655C00F0E2804FEA5454D4EB5555B8BF5B
:1001D0006D420CDD2C4480EA020281EA030382EACC
:1001E000000083EA010180EA020281EA0303362D5E
:1001F00088BF30BD11F0004F4FEA01314FF4801C31
:100200004CEA113102D0404261EB410113F0004F42
:100210004FEA03334CEA133302D0524263EB4303F9
:1002200094EA050F00F0A780A4F10104D5F1200E97
:100230000DDB02FA0EFC22FA05F2801841F10001F2
:1002400003FA0EF2801843FA05F359410EE0A5F1C6
:1002500020050EF1200E012A03FA0EFC28BF4CF0F7
:10026000020C43FA05F3C01851EBE37101F00045AD
:1002700007D54FF0000EDCF1000C7EEB00006EEBBA
:100280000101B1F5801F1BD3B1F5001F0CD3490844
:100290005FEA30004FEA3C0C04F101044FEA44529B
:1002A00012F5800F80F09A80BCF1004F08BF5FEA22
:1002B000500C50F1000041EB045141EA050130BD02
:1002C0005FEA4C0C404141EB010111F4801FA4F1A5
:1002D0000104E9D191F0000F04BF01460020B1FAFA
:1002E00081F308BF2033A3F10B03B3F120020CDA32
:1002F0000C3208DD02F1140CC2F10C0201FA0CF010
:1003000021FA02F10CE002F11402D8BFC2F1200C74
:1003100001FA02F120FA0CFCDCBF41EA0C0190402A
:10032000E41AA2BF01EB0451294330BD6FEA040473
:100330001F3C1CDA0C340EDC04F11404C4F120025E
:1003400020FA04F001FA02F340EA030021FA04F370
:1003500045EA030130BDC4F10C04C4F1200220FAC7
:1003600002F001FA04F340EA0300294630BD21FA05
:1003700004F0294630BD94F0000F83F4801306BFCB
:1003800081F480110134013D4EE77FEA645C18BFBF
:100390007FEA655C29D094EA050F08BF90EA020F56
:1003A00005D054EA000C04BF1946104630BD91EA4E
:1003B000030F1EBF0021002030BD5FEA545C05D151
:1003C0004000494128BF41F0004130BD14F5800490
:1003D0003CBF01F5801130BD01F0004545F0FE4104
:1003E00041F470014FF0000030BD7FEA645C1ABF39
:1003F000194610467FEA655C1CBF0B46024650EA70
:10040000013406BF52EA033591EA030F41F400219B
:1004100030BD00BF90F0000F04BF0021704730B521
:100420004FF4806404F132044FF000054FF00001F6
:1004300050E700BF90F0000F04BF0021704730B5B7
:100440004FF4806404F1320410F0004548BF40428C
:100450004FF000013EE700BF42004FEAE2014FEAE1
:1004600031014FEA02701FBF12F07F4393F07F4FBC
:1004700081F06051704792F0000F14BF93F07F4FEE
:10048000704730B54FF4607401F0004521F0004131
:1004900020E700BF50EA010208BF704730B54FF0B7
:1004A00000050AE050EA010208BF704730B511F0BC
:1004B000004502D5404261EB41014FF4806404F1F4
:1004C00032045FEA915C3FF4DCAE4FF003025FEA76
:1004D000DC0C18BF03325FEADC0C18BF033202EBFE
:1004E000DC02C2F1200300FA03FC20FA02F001FA58
:1004F00003FE40EA0E0021FA02F11444C1E600BFF7
:1005000070B54FF0FF0C4CF4E06C1CEA11541DBFA9
:100510001CEA135594EA0C0F95EA0C0F00F0DEF874
:100520002C4481EA030621EA4C5123EA4C5350EA59
:10053000013518BF52EA033541F4801143F48013AA
:1005400038D0A0FB02CE4FF00005E1FB02E506F03B
:100550000042E0FB03E54FF00006E1FB03569CF090
:10056000000F18BF4EF0010EA4F1FF04B6F5007F96
:1005700064F5407404D25FEA4E0E6D4146EB060608
:1005800042EAC62141EA55514FEAC52040EA5E5091
:100590004FEACE2EB4F1FD0C88BFBCF5E06F1ED83B
:1005A000BEF1004F08BF5FEA500E50F1000041EB72
:1005B000045170BD06F0004646EA010140EA02001F
:1005C00081EA0301B4EB5C04C2BFD4EB0C0541EA41
:1005D000045170BD41F480114FF0000E013C00F356
:1005E000AB8014F1360FDEBF002001F0004170BD7A
:1005F000C4F10004203C35DA0C341BDC04F1140493
:10060000C4F1200500FA05F320FA04F001FA05F21E
:1006100040EA020001F0004221F0004110EBD370EB
:1006200021FA04F642EB06015EEA430E08BF20EA17
:10063000D37070BDC4F10C04C4F1200500FA04F3BA
:1006400020FA05F001FA04F240EA020001F000414C
:1006500010EBD37041F100015EEA430E08BF20EABF
:10066000D37070BDC4F1200500FA05F24EEA020E07
:1006700020FA04F301FA05F243EA020321FA04F036
:1006800001F0004121FA04F220EA020000EBD370ED
:100690005EEA430E08BF20EAD37070BD94F0000FED
:1006A0000FD101F00046400041EB010111F4801F21
:1006B00008BF013CF7D041EA060195F0000F18BFD2
:1006C000704703F00046520043EB030313F4801F0E
:1006D00008BF013DF7D043EA0603704794EA0C0FC8
:1006E0000CEA135518BF95EA0C0F0CD050EA4106DE
:1006F00018BF52EA4306D1D181EA030101F000415B
:100700004FF0000070BD50EA410606BF1046194682
:1007100052EA430619D094EA0C0F02D150EA01368E
:1007200013D195EA0C0F05D152EA03361CBF1046CF
:1007300019460AD181EA030101F0004141F0FE416E
:1007400041F470014FF0000070BD41F0FE4141F4F2
:10075000780170BD70B54FF0FF0C4CF4E06C1CEAF2
:1007600011541DBF1CEA135594EA0C0F95EA0C0FA7
:1007700000F0A7F8A4EB050481EA030E52EA033562
:100780004FEA013100F088804FEA03334FF0805583
:1007900045EA131343EA12634FEA022245EA1115B0
:1007A00045EA10654FEA00260EF000419D4208BF61
:1007B000964244F1FD0404F5407402D25B084FEA0E
:1007C0003202B61A65EB03055B084FEA32024FF4BA
:1007D00080104FF4002CB6EB020E75EB030E22BF17
:1007E000B61A754640EA0C005B084FEA3202B6EBD7
:1007F000020E75EB030E22BFB61A754640EA5C0086
:100800005B084FEA3202B6EB020E75EB030E22BF15
:10081000B61A754640EA9C005B084FEA3202B6EB16
:10082000020E75EB030E22BFB61A754640EADC00D5
:1008300055EA060E18D04FEA051545EA16754FEA37
:1008400006164FEAC30343EA52734FEAC2025FEA55
:100850001C1CC0D111F4801F0BD141EA00014FF0E4
:1008600000004FF0004CB6E711F4801F04BF0143B5
:100870000020B4F1FD0C88BFBCF5E06F3FF6AFAED1
:10088000B5EB030C04BFB6EB020C5FEA500C50F161
:10089000000041EB045170BD0EF0004E4EEA1131E4
:1008A00014EB5C04C2BFD4EB0C0541EA045170BDEB
:1008B00041F480114FF0000E013C90E645EA060E2F
:1008C0008DE60CEA135594EA0C0F08BF95EA0C0F5D
:1008D0003FF43BAF94EA0C0F0AD150EA01347FF4A5
:1008E00034AF95EA0C0F7FF425AF104619462CE77C
:1008F00095EA0C0F06D152EA03353FF4FDAE1046DF
:10090000194622E750EA410618BF52EA43067FF42F
:10091000C5AE50EA41047FF40DAF52EA43057FF4BF
:10092000EBAE12E700000000000000000000000035
:100930004FF0FF3C06E000BF4FF0010C02E000BFAB
:100940004FF0010C4DF804CD4FEA410C7FEA6C5C8E
:100950004FEA430C18BF7FEA6C5C1BD001B050EA31
:10096000410C0CBF52EA430C91EA030F02BF90EA1C
:10097000020F0020704710F1000F91EA030F58BFDB
:10098000994208BF90422CBFD8176FEAE37040F03D
:10099000010070474FEA410C7FEA6C5C02D150EADB
:1009A000013C07D14FEA430C7FEA6C5CD6D152EA96
:1009B000033CD3D05DF8040B704700BF844610465B
:1009C00062468C461946634600E000BF01B5FFF75A
:1009D000B7FF002848BF10F1000F01BD4DF808ED2A
:1009E000FFF7F4FF0CBF012000205DF808FB00BFFB
:1009F0004DF808EDFFF7EAFF34BF012000205DF855
:100A000008FB00BF4DF808EDFFF7E0FF94BF0120A1
:100A100000205DF808FB00BF4DF808EDFFF7CEFFA2
:100A200094BF012000205DF808FB00BF4DF808EDE1
:100A3000FFF7C4FF34BF012000205DF808FB00BFB2
:100A40004FEA410212F5001215D211D56FF47873F6
:100A5000B3EB625212D94FEAC12343F0004343EA99
:100A6000505311F0004F23FA02F018BF4042704774
:100A70004FF00000704750EA013005D111F00040FE
:100A800008BF6FF0004070474FF00000704700BF94
:100A90004FEA4102B2F1E04324BFB3F5001CDCF1A0
:100AA000FE5C0DD901F0004C4FEAC0024CEA5070D8
:100AB000B2F1004F40EB830008BF20F00100704707
:100AC00011F0804F21D113F13872BCBF01F000400A
:100AD000704741F480114FEA5252C2F11802C2F13C
:100AE000200C10FA0CF320FA02F018BF40F00100BD
:100AF0004FEAC1234FEAD32303FA0CFC40EA0C006F
:100B000023FA02F34FEA4303CCE77FEA625307D1AB
:100B100050EA01331EBF4FF0FE4040F440007047E2
:100B200001F0004040F0FE4040F40000704700BF7C
:100B300080F0004002E000BF81F0004142001FBF92
:100B40005FEA410392EA030F7FEA226C7FEA236C9B
:100B50006AD04FEA1262D2EB1363C1BFD218414090
:100B600048404140B8BF5B42192B88BF704710F026
:100B7000004F40F4000020F07F4018BF404211F0C9
:100B8000004F41F4000121F07F4118BF494292EA31
:100B9000030F3FD0A2F1010241FA03FC10EB0C005D
:100BA000C3F1200301FA03F100F0004302D54942EA
:100BB00060EB4000B0F5000F13D3B0F1807F06D397
:100BC00040084FEA310102F10102FE2A51D2B1F18F
:100BD000004F40EBC25008BF20F0010040EA030084
:100BE0007047490040EB000010F4000FA2F1010231
:100BF000EDD1B0FA80FCACF1080CB2EB0C0200FABB
:100C00000CF0AABF00EBC25052421843BCBFD04008
:100C10001843704792F0000F81F4000106BF80F482
:100C200000000132013BB5E74FEA41037FEA226C45
:100C300018BF7FEA236C21D092EA030F04D092F010
:100C4000000F08BF0846704790EA010F1CBF002044
:100C5000704712F07F4F04D1400028BF40F00040A1
:100C6000704712F100723CBF00F50000704700F0C1
:100C7000004343F0FE4040F4000070477FEA2262E8
:100C800016BF08467FEA23630146420206BF5FEAB9
:100C9000412390EA010F40F4800070474FF00003B9
:100CA00004E000BF10F0004348BF40425FEA000C80
:100CB00008BF704743F0964301464FF000001CE028
:100CC00050EA010208BF70474FF000030AE000BF7E
:100CD00050EA010208BF704711F0004302D54042BC
:100CE00061EB41015FEA010C02BF8446014600202E
:100CF00043F0B64308BFA3F18053A3F50003BCFA49
:100D00008CF2083AA3EBC25310DB01FA02FC6344F5
:100D100000FA02FCC2F12002BCF1004F20FA02F2FC
:100D200043EB020008BF20F00100704702F12002EF
:100D300001FA02FCC2F1200250EA4C0021FA02F250
:100D400043EB020008BF20EADC707047000000009F
:100D500073B96AB9002908BF0028BCBF00204FF052
:100D60000041C4BF6FF000414FF0FF3000F0C8B841
:100D700082B0EC462DE9005000F092F8DDF804E076
:100D800002B00CBC704700BF000000000000000073
:100D900010B50021044600F029F920B92046BDE82D
:100DA000104000F02DB804F1004000F029F8424254
:100DB00061EB41031046194610BD00BF0000000062
:100DC00038B50022002305460C46FFF711FE28B96E
:100DD00028462146BDE8384000F03AB8284604F1DC
:100DE000004100F035F8424261EB410310461946DC
:100DF00038BD00BF0000000000000000000000003F
:100E000070B5FFF729FB00230022C3F6F053044618
:100E10000D46FFF775FB00F07BF80646FFF7FAFA80
:100E200000230022C4F2F013FFF76AFB02460B46D0
:100E300020462946FFF7B0F900F06AF80022024385
:100E40001046314670BD00BF0000000000000000E9
:100E5000002370B50022C3F6F05304460D46FFF799
:100E60004FFB00F055F80646FFF7D4FA00230022A6
:100E7000C4F2F013FFF744FB02460B462046294616
:100E8000FFF78AF900F044F8002202431046314689
:100E900070BD00BF00000000000000000000000066
:100EA000F8B5164604460D461F4600F0C9F806FB85
:100EB00001F300FB0737A6FB0023FB18A21A65EB22
:100EC0000303069CC4E90023F8BD00BFF8B516462D
:100ED00004460D461F4600F013FA00FB07F7A0FB7F
:100EE000062306FB0177FB18A21A65EB0303069C99
:100EF000C4E90023F8BD00BF0000000000000000AE
:100F0000704700BF0000000000000000000000006B
:100F10004A0011D212F5001211D20DD56FF4787378
:100F2000B3EB62520ED44FEAC12343F0004343EACD
:100F3000505323FA02F070474FF00000704750EA18
:100F4000013002D14FF0FF3070474FF00000704782
:100F50004FF0FF3C06E000BF4FF0010C02E000BF85
:100F60004FF0010C4DF804CD4FEA40024FEA410327
:100F70007FEA226C18BF7FEA236C11D001B052EADD
:100F8000530C18BF90EA010F58BFB2EB030088BFA3
:100F9000C81738BF6FEAE17018BF40F00100704712
:100FA0007FEA226C02D15FEA402C05D17FEA236CF4
:100FB000E4D15FEA412CE1D05DF8040B704700BF3B
:100FC000844608466146FFE70FB5FFF7C9FF0028D2
:100FD00048BF10F1000F0FBD4DF808EDFFF7F4FF0B
:100FE0000CBF012000205DF808FB00BF4DF808EDA4
:100FF000FFF7EAFF34BF012000205DF808FB00BFC7
:101000004DF808EDFFF7E0FF94BF012000205DF8E8
:1010100008FB00BF4DF808EDFFF7D2FF94BF012099
:1010200000205DF808FB00BF4DF808EDFFF7C8FF92
:1010300034BF012000205DF808FB00BF0000000065
:1010400000292DE9F00F1D46C0F29D800024002DDF
:10105000C0F2948080460F4694461E46E3BB8A4207
:1010600055D9B2FA82F747B1C7F1200520FA05F643
:1010700001FA07F1BA403143B840170CB1FBF7F65B
:10108000030C1FFA82FC07FB16110CFB06F543EA62
:1010900001439D4208D9711E9B1880F013819D4227
:1010A00040F21081023E9B18591BB1FBF7F507FB7C
:1010B000151380B20CFB05FC40EA03418C4507D9AF
:1010C0006B1E8A1880F00081944540F2FD80023D3D
:1010D00045EA0641002503E08B420CD9002529464C
:1010E0000A462B4614B1524263EB4303104619469D
:1010F000BDE8F00F7047B3FA83F5002D40F087800C
:101100008B4201D38242EAD800250121E8E712B9D7
:101110000126B6FBF2F2B2FA82F6002E39D18E1A0F
:10112000130C1FFA82FC0125B6FBF3F703FB1761D2
:101130004FEA10490CFB07F849EA0146B04506D9C9
:10114000791EB61802D2B04500F2D3800F46C8EB24
:101150000606B6FBF3F103FB116380B20CFB01FC46
:1011600040EA03439C4506D94E1E9A1802D2944584
:1011700000F2C280314641EA0741B1E7E4435242FE
:1011800063EB430366E7404261EB41014FF0FF34FC
:101190005DE7B240C6F1200921FA09F720FA09F506
:1011A000130C01FA06F1B7FBF3F845EA01091FFA3F
:1011B00082FC03FB18774FEA19410CFB08F541EA62
:1011C0000747B040BD420AD9BF1808F1FF3680F08A
:1011D0008E80BD4240F28B80A8F10208BF18791BB7
:1011E000B1FBF3F503FB15171FFA89F90CFB05F6A4
:1011F00049EA07418E4206D96F1E891871D28E4284
:101200006FD9023D89188E1B45EA08458CE7C5F168
:10121000200122FA01F306FA05F61E4327FA01F22D
:101220004FEA164907FA05F720FA01F1B2FBF9F87F
:101230000F433B0C1FFA86FA09FB18220AFB08FB36
:1012400043EA024293450CFA05FC08D9921908F1C9
:10125000FF314AD2934548D9A8F102089219CBEB45
:101260000203B3FBF9F109FB1132BFB20AFB01FA29
:1012700047EA02439A4506D94A1E9B1933D29A453A
:1012800031D902399B1941EA08410F0C1FFA8CF839
:1012900008FB07F68AB24FEA1C4C08FB02F80CFB6D
:1012A000026202EB18420CFB07FC964288BF0CF569
:1012B000803CCAEB03030CEB124C63450ED305D004
:1012C00000250DE70E46EFE61D4601E71FFA88F8F8
:1012D00000FA05F008EB0245A842F1D201390025D9
:1012E000FEE63D468FE71146CDE78846B7E7B046B4
:1012F00075E7023FB6182AE702393CE70000000014
:101300002DE9F007144605460E46002B3DD18A42D2
:1013100049D9B2FA82F747B1C7F1200120FA01F2A8
:1013200006FA07F6BC401643BD40220CB6FBF2F0AD
:101330002F0CA1B202FB106601FB00F347EA064640
:10134000B34208D9471E361980F0F880B34240F204
:10135000F58002383619F61AB6FBF2F302FB136277
:10136000ADB201FB03F145EA0242914207D95E1E8C
:10137000121980F0E580914240F2E280023B43EA9C
:1013800000400021BDE8F00770478B4243D8B3FA14
:1013900083F4002C42D18B4202D3824200F2DF80E0
:1013A00000210120EEE712B90127B7FBF2F4B4FAED
:1013B00084F2002A40F088800A1B230CA7B2012186
:1013C000B2FBF3F603FB16224FEA154C07FB06F0BF
:1013D0004CEA0242904207D9121906F1FF3C02D2B0
:1013E000904200F2CE806646121AB2FBF3F003FB85
:1013F0001023ADB207FB00F745EA03439F4207D92C
:10140000421E1B1980F09E809F4240F29B80023852
:1014100040EA0640B6E700210846B3E7C4F12006DB
:1014200022FA06F503FA04F32B434FEA134C21FA90
:1014300006F501FA04F120FA06F6B5FBFCF746EAD8
:10144000010A1FFA83F80CFB17554FEA1A4108FBF3
:1014500007F941EA0545A94502FA04F203D97E1EBF
:10146000ED187FD33746C9EB0501B1FBFCF60CFB49
:1014700016151FFA8AFA08FB06F84AEA054188455C
:1014800003D9751EC91873D32E4646EA0746370C92
:101490001FFA82FC0CFB07F5120CB3B20CFB03FC29
:1014A00002FB035303EB1C4302FB07F29D4288BF80
:1014B00002F58032C8EB010102EB134291424BD39B
:1014C00042D0304600215DE79440C2F1200521FA68
:1014D00005F6230C20FA05F701FA02F1B6FBF3FC3E
:1014E00039430D0CA7B203FB1C6645EA064607FB11
:1014F0000CF8B04500FA02F508D936190CF1FF30A6
:101500003DD2B0453BD9ACF1020C3619C8EB06020E
:10151000B2FBF3F003FB10268AB242EA064207FB55
:1015200000F1914206D9461E121926D2914224D9C1
:1015300002381219521A40EA0C4141E738460AE7CC
:1015400033461CE7104663E71FFA8CFC00FA04F0F0
:101550000CEB03439842B4D2701E002112E72146DF
:1015600020460FE7A9457FF67DAF023FED187AE7E9
:10157000884589D9023EC91887E73046DAE78446AC
:10158000C4E7023E12192FE700000000000000002F
:10159000704700BFAFF30080AFF30080AFF300806F
:1015A000FEE700BFAFF30080AFF30080AFF3008031
:1015B00072B640F60004C1F2000484F309884EF6C6
:1015C0003473CEF200034FF040421A604EF688505A
:1015D000CEF20000016841F4700303604FF0000296
:1015E000E1EE102A4EF63C70CEF2000002604FF0A1
:1015F000060181F31488BFF36F8F8E4B8E4A9A4297
:101600001FD2A2F104038D48C11A21F0030240F257
:101610000000C1F2000010184FF05531C21AA2F1BB
:101620000402C2F3800243F8041F834240F0F880B2
:1016300007E003F10402596003F10803516083429B
:10164000F7D17F4B7F48984220D2A0F10403E41ADF
:10165000A4F1050424F0030440F20041C1F20001AA
:1016600060184FF05531C21AA2F10402C2F3800291
:1016700043F8041F834240F0CA8007E003F10402EC
:10168000596003F1080351608342F7D112F0E0FD85
:101690006D4B6E48984225D200F104056C4C611BDD
:1016A00021F003004FF0000340F20002C2F20002FA
:1016B0004CF2F051C0F6010100F10404C0F38000C7
:1016C0005D589D5003F10403A34240F0958009E06A
:1016D0005858985003F104035858985003F10403E4
:1016E000A342F5D15B4B5C4A9A421ED2A2F104039D
:1016F0005A49C81A20F0030242F65811C2F20001FA
:1017000050184FF00001C21AA2F10402C2F3800285
:1017100043F8041F834268D107E003F104025960D3
:1017200003F1080351608342F7D1FFF731FF4C4BBF
:101730004C4898421ED2A0F10404A3F105031E1BDD
:101740004FEA960505F1010705F0010654F8041F5C
:1017500088474FF00105BD423DD10BE004F104067E
:101760006368984704F108047068804705F1020532
:10177000BD42F3D115F00CFA3B493C4A8A421ED2D5
:10178000A2F10404A1F105010F1B4FEA970606F12F
:10179000010706F0010654F8045FA8474FF0010561
:1017A000BD420ED10BE004F104066068804704F1ED
:1017B00008047168884705F10205BD42F3D1FFF7BF
:1017C000EFFE002EEFD054F8043F984705F10105D5
:1017D000BD42E8D1F3E7002EC0D054F8042F904763
:1017E00005F10105BD42B9D1C4E7002A95D043F8FF
:1017F000041F834291D198E700283FF469AF5858FD
:10180000985003F10403A3427FF462AF6AE7002A11
:101810003FF434AF43F8041F83427FF42FAF35E722
:10182000002A3FF406AF43F8041F83427FF401AF60
:1018300007E700BF0004001000000010FB030010C9
:101840000008001000040010AC050020000000207B
:10185000AF050020845D0120582900207F5D012014
:101860008801000888010008880100088801000834
:10187000FEE700BFAFF30080AFF30080AFF300805E
:10188000F8B5074642F65816C2F20006344648F646
:101890007015C0F601050FCD0FC42B6823703046BC
:1018A000B96916F01DFF304648F68411C0F60101F3
:1018B0004FF02E0200F0ECF9F8BD00BFAFF300804E
:1018C00072B6FEE7AFF30080AFF30080AFF30080A5
:1018D00000F026FB00F05CFD00F0FAFA00DF00BF2C
:1018E000EFF30982D2F8CC104EF63073CEF200033B
:1018F0005960986800F16800986002F1680282F30C
:1019000009884FF0000383F311887047AFF300801C
:1019100008B54FF46D43CEF200034FF000029A6019
:101920004FF44070C0F2FA50D8604FF007004FF00B
:10193000100100F0F5F84FF00A004FF4007100F0CC
:10194000EFF84FF00B004FF0800100F0E9F808BD10
:101950004FF0200383F311884FF46D43CEF2000360
:10196000586810F4006F42D0EFF30983A3F16802C6
:1019700082F309884FF0807143F84C1C40F69810B0
:10198000C1F20000826992F8231059B140F6981113
:10199000C1F20001086881689268914294BF0022F8
:1019A00001220AE040F69810C1F200000168886840
:1019B0009268904234BF0022012242B141F6D10028
:1019C000C0F6000043F8500CF1EE10FA05E041F6C5
:1019D000DC02C0F6000243F8502C4EF63072CEF214
:1019E00000025168596641F00103536070474FF09F
:1019F000000383F311887047AFF30080AFF30080DA
:101A000008B500F0E5F94FF0200383F3118800F0EA
:101A100037FA00F0F5F800F00BFA4FF0000383F30B
:101A2000118800F0A5F9FFF793FF08BDAFF3008020
:101A30002DE9F04F2DED108AC1F80CD0D0F80CD064
:101A4000BDEC108ABDE8F08FAFF30080AFF30080EB
:101A500008B500F03DFA4FF0000383F311882846E3
:101A6000A04700F0A5FD08BDAFF30080AFF30080F4
:101A700070B44FEA90024FF46143CEF2000302F1DA
:101A8000C00253F8226000F003044FEAC4044FF090
:101A9000FF0505FA04F526EA050501FA04F10D43F0
:101AA00043F822504FEA501200F01F004FF001019E
:101AB00001FA00F002F1600143F8210043F822002E
:101AC00070BC7047AFF30080AFF30080AFF30080CD
:101AD00010B44FEA501200F01F034FF0010101FA59
:101AE00003F14FF46143CEF2000302F1200243F808
:101AF00022104FEA900202F1C00253F8221000F0C7
:101B000003004FEAC0004FF0FF0404FA00F021EA9E
:101B1000000143F8221010BC704700BFAFF30080F3
:101B200030B44FEA90024FF46D43CEF2000302F15D
:101B3000060253F8225000F003004FEAC0004FF0B5
:101B4000FF0404FA00F425EA040401FA00F10C434E
:101B500043F8224030BC7047AFF30080AFF3008001
:101B600040F69813C1F2000398694BF28C32C0F62C
:101B700001028261FEE700BFAFF30080AFF3008097
:101B800030B583B0FFF7C4FE00F092FA00F010FA0F
:101B900001F07EF901F0CCF940F60000C1F200003E
:101BA0004FF0400100F004FC40F69815C1F200052A
:101BB000A8614FF0010480F8204040F20043C1F2D8
:101BC0000003C36100F0D4F94FF0000383F31188E0
:101BD00062B6AA6948F66041C0F6010191610093BE
:101BE00040F65000C1F200004FF4A471224641F6C5
:101BF0006133C0F6000300F03BFC03B030BD00BF12
:101C00002DE9F04100F094F840F69813C1F200037A
:101C1000986990F823201AB102F1FF3180F823105F
:101C2000436A03F10103436240F6B410C1F20000BD
:101C3000C26802F10102C2600168814224D08C684E
:101C400004F1FF338B600C468A68EAB94FF0000656
:101C500040F6B415C1F200054FF02008E768E660D1
:101C600021684D6023682B6000F0E2F8334683F36F
:101C700011882069B847434683F3118800F000F9C2
:101C80002C68A0680028E9D0BDE8F081AFF300809F
:101C900070B506460D46144605F01AFE38BB05F031
:101CA0000FFE42F62023C2F200031D6042F62820F8
:101CB000C2F20000046042F63021C2F200010E6060
:101CC00045F68052C2F20102136883B948F6B0109B
:101CD000C0F6010031462A46234606F059FB48F279
:101CE000A060C0F2010000F0EBFBFFF7E9FD70BD62
:101CF00008B542F62423C2F20003186830B942F650
:101D00002C21C2F200010A68002A0BDC48F6C4103C
:101D1000C0F6010048F6CC11C0F601014FF0D30225
:101D2000FFF7B6FF08BD00BFAFF30080AFF3008040
:101D300008B542F62423C2F200031868002806DB27
:101D400042F62C21C2F200010A68002A0BDC48F698
:101D5000EC10C0F6010048F6CC11C0F601014FF0BE
:101D6000C502FFF795FF08BDAFF30080AFF3008019
:101D700008B54FF0200383F3118842F62423C2F202
:101D800000031868002805DD42F62C21C2F200018C
:101D90000A685AB148F61020C0F6010048F6CC1186
:101DA000C0F601014FF0B502FFF772FF42F624239F
:101DB000C2F20003186800F1FF3119604FF0000310
:101DC00083F3118808BD00BFAFF30080AFF300803C
:101DD00008B54FF0200383F3118842F62423C2F2A2
:101DE00000031868002805DB42F62C21C2F200012E
:101DF0000A685AB148F61820C0F6010048F6CC111E
:101E0000C0F601014FF0A702FFF742FF42F624237C
:101E1000C2F20003186800F1010018604FF00003DF
:101E200083F3118808BD00BFAFF30080AFF30080DB
:101E300008B542F62423C2F200031868002806DD24
:101E400042F62C21C2F200010A68002A0BDC48F697
:101E50002020C0F6010048F6CC11C0F601014FF079
:101E60009A02FFF715FF42F62C23C2F200034FF04F
:101E70000000186008BD00BFAFF30080AFF3008022
:101E800008B542F62423C2F200031868002805DDD5
:101E900042F62C21C2F200010A685AB148F6282005
:101EA000C0F6010048F6CC11C0F601014FF08E02D9
:101EB000FFF7EEFE42F62C23C2F200034FF00100C2
:101EC000186008BDAFF30080AFF30080AFF300806F
:101ED00008B542F62423C2F20003186830B942F66E
:101EE0002C21C2F200010A68002A0BDC48F64820C7
:101EF000C0F6010048F6CC11C0F601014FF0820295
:101F0000FFF7C6FE42F62C23C2F200034FF000009A
:101F1000186008BDAFF30080AFF30080AFF300801E
:101F200008B542F62423C2F20003186828B942F625
:101F30002C21C2F200010A685AB148F65020C0F6BE
:101F4000010048F6CC11C0F601014FF07602FFF710
:101F50009FFE42F62C23C2F200034FF001001860EE
:101F600008BD00BFAFF30080AFF30080AFF3008087
:101F700008B542F62423C2F20003186828B942F6D5
:101F80002C21C2F200010A685AB148F66C20C0F652
:101F9000010048F6CC11C0F601014FF06B02FFF7CB
:101FA00077FE08BDAFF30080AFF30080AFF3008091
:101FB00040F6B413C1F200035B601B604FF0FF32C8
:101FC0009A604FF00000D860704700BFAFF3008008
:101FD000F8B505460C4616461F46FFF7A9FE0DB19B
:101FE00006B15CB948F69020C0F6010048F6A02181
:101FF000C0F601014FF05102FFF74AFE2F61EE607B
:1020000040F6B413C1F2000318688268944204D900
:10201000A41A00688268A242FAD328604168696005
:1020200045600D60AC6040F6B413C1F20003984205
:1020300002D08268141B8460F8BD00BFAFF300803B
:1020400010B50446FFF774FE5CB948F6C020C0F630
:10205000010048F6A021C0F601014FF06D02FFF724
:1020600017FEE3685BB948F6D020C0F6010048F6D9
:10207000A021C0F601014FF07002FFF709FE2068B1
:1020800040F6B412C1F20002904203D08168A36806
:10209000CA188260606821680160236862685A60BB
:1020A0004FF00000E06010BDAFF30080AFF30080A0
:1020B00040F69813C1F200035B601B604FF0000212
:1020C0009A605B611B617047AFF30080AFF30080E3
:1020D00010B50446FFF72CFE94F820300BB10E2B00
:1020E0000BD148F6F020C0F6010048F60431C0F6E6
:1020F00001014FF05A02FFF7CBFD4FF0000084F8CA
:102100002000A16840F69813C1F200031B689A688A
:102110008A42FBD22360586860605C60046020469D
:1021200010BD00BFAFF30080AFF30080AFF30080BD
:1021300010B504464FF0200383F31188FFF7A0FE8B
:1021400094F820300D2B1AD8DFE803F00719190E88
:1021500019131919191919191913FFF769FE4FF0F5
:10216000000383F3118810BDA06A826802F10102A6
:102170008260616823680B602068626842604FF08B
:10218000FF31A1622046FFF7A3FFFFF751FE4FF09A
:10219000000383F3118810BDAFF30080AFF300801C
:1021A00038B50546FFF7A4FD40F69813C1F20003C9
:1021B0009C6984F820504FF0140284F8232018689A
:1021C000016819604B6098614FF0010380F820307E
:1021D000ADF16402E069904202D92046FFF750FB5E
:1021E00040F69811C1F2000188692146FFF720FCF2
:1021F00038BD00BFAFF30080AFF30080AFF30080C5
:1022000030B587B005460C46FFF772FDB4F1FF3FCD
:1022100015D001A8214642F23112C0F6000240F664
:102220009813C1F200039B69FFF7D2FE2846FFF71F
:10223000B7FF049830B101A8FFF702FF02E028467B
:10224000FFF7AEFF40F69811C1F200018A69906A6B
:1022500007B030BDAFF30080AFF30080AFF3008074
:1022600038B504460D46FFF743FDA56240F69813C6
:10227000C1F200039869A26881688A4203D82046A7
:10228000FFF726FF38BDFFF723FF054640F69810FD
:10229000C1F2000084614FF0010384F82030ADF1F9
:1022A0006402E969914202D92846FFF7E9FA20461B
:1022B0002946FFF7BDFB38BDAFF30080AFF30080C8
:1022C00010B540F69813C1F200039C691A681168B2
:1022D00019604B609A614FF0010082F820004FF0C6
:1022E000140384F823302046FFF7F2FEADF16402B8
:1022F000E169914202D92046FFF7C2FA40F69810F0
:10230000C1F2000080692146FFF792FB10BD00BFBB
:1023100010B540F69813C1F200039C691A68116861
:1023200019604B609A614FF0010082F820004FF075
:10233000000284F82020A1681B6898688842FBD8B6
:1023400023605A6862605C601460ADF16401E36907
:102350008B4202D92046FFF793FA40F69810C1F25B
:10236000000080692146FFF763FB10BDAFF30080DA
:1023700008B5FFF7BDFC40F69813C1F200031A68D8
:10238000986991688368994201D9FFF7C1FF08BD38
:1023900008B540F69813C1F20003986990F823102D
:1023A00011B9FFF78DFF08BDFFF7B2FF08BD00BFF1
:1023B00010B481604FF0020280F820204FF000023C
:1023C00080F821204FF0140480F823404164026417
:1023D000C26342624FF0010180F82210826140F630
:1023E0009812C1F2000202615169416150610861B5
:1023F00000F12C02C26200F130014163016300F17F
:102400004C02C26110BC7047AFF30080AFF3008094
:10241000F8B504460D4616461F46FFF789FC2CB159
:10242000B5F59C7F02D37F2E00D85FB948F63030D7
:10243000C0F6010048F64431C0F601014FF0A60293
:10244000FFF726FCA5F164002118E1600F64E36842
:10245000069A5A64E06841F65121C0F6000101660F
:1024600020463146FFF7A4FFF8BD00BFAFF3008060
:10247000F0B583B007460E4615461C464FF02003C4
:1024800083F31188FFF74CFD089B009338463146D3
:102490002A462346FFF7BCFF04464FF00001FFF732
:1024A000DFFEFFF715FD4FF0000383F31188204690
:1024B00003B0F0BDAFF30080AFF30080AFF3008056
:1024C00010B5044658B948F69430C0F6010048F6F5
:1024D0004431C0F601014FF49372FFF7D9FB4FF07E
:1024E000200383F31188FFF71BFD4FF00600214600
:1024F000FFF786FEFFF7ECFC4FF0000383F3118833
:1025000010BD00BFAFF30080AFF30080AFF30080D9
:1025100010B504464FF0200383F31188FFF700FD48
:1025200040F6B413C1F20003D968611A03D04FF02A
:102530000600FFF765FEFFF7CBFC4FF0000383F3C7
:10254000118810BDAFF30080AFF30080AFF30080BF
:1025500038B540F69813C1F200039C69A062254685
:1025600055F82C0FA84206D00168E162FFF7B0FDD4
:10257000E06AA842F8D194F8210010F0030F05D1C9
:10258000636922691A612169606948614FF00E0030
:10259000FFF706FE48F6A430C0F6010048F64431C5
:1025A000C0F6010140F28112FFF772FB38BD00BF97
:1025B00010B504464FF0200383F31188FFF7B0FCF9
:1025C0002046FFF7C5FF10BDAFF30080AFF30080DA
:1025D00038B504464FF0200383F31188FFF7A0FCC1
:1025E00094F822305BB948F62840C0F6010048F65E
:1025F0000441C0F601014FF04E02FFF749FB94F889
:10260000225005F1FF30C5B284F82250FFF760FC7C
:102610004FF0000383F3118805BB94F820100E29B6
:102620001CD194F8212002F00303012B02D0022BCD
:1026300014D109E0606921690161236962695A6105
:10264000204600F0D5FC38BD60692169016123692D
:1026500062695A61A06C214600F04AFD38BD00BF96
:1026600010B54FF0200383F31188FFF759FC40F6B3
:102670009813C1F200031C6994F8220000F10100D4
:1026800084F82200FFF724FC4FF0000383F3118845
:10269000204610BDAFF30080AFF30080AFF30080A1
:1026A00038B505464FF0200383F31188FFF738FC57
:1026B0002C6940F69813C1F200039C4216D094F89E
:1026C0002200FF280BD148F68040C0F6010048F6F2
:1026D0009841C0F601014FF09602FFF7D9FA94F83D
:1026E000221001F1010184F8221001E04FF00004F2
:1026F000FFF7EEFB4FF0000383F311882846FFF746
:1027000067FF204638BD00BFAFF30080AFF3008005
:1027100038B50D46044608B100290BDA48F6C0402A
:10272000C0F6010048F6D041C0F601014FF0580252
:10273000FFF7AEFA64602460A56038BDAFF3008097
:1027400010B50446FFF7F4FA5CB948F68C50C0F6B1
:10275000010048F6D041C0F601014FF49972FFF72D
:1027600097FAA368002B03DB2068A04203D10EE098
:102770002168A1420BD148F6A050C0F6010048F6EE
:10278000D041C0F601014FF49B72FFF781FAA268B5
:1027900002F10102A260002A08DC206803682360BD
:1027A0005C604FF000018162FFF792FC10BD00BF3A
:1027B00010B5044658B948F63060C0F6010048F636
:1027C0004061C0F601014FF05802FFF761FA646002
:1027D00024604FF00003A36010BD00BFAFF3008082
:1027E00070B5054640F69813C1F200039C69FFF7E7
:1027F0007FFA5DB948F66060C0F6010048F64061B6
:10280000C0F601014FF07D02FFF742FAA8680028E8
:1028100000F08280A2688168914249D2826090F87B
:102820002020042A04D0052A1FD0002A34D03FE0FB
:10283000466802683260036841685960866A3246B9
:102840001268964204D0936881688B42F8D200E007
:10285000324602605368436050601860806A806846
:10286000A26881689142D9D322E04668016831604C
:10287000036842685A60866A32461268964204D0FB
:10288000936881688B42F8D200E032460260536858
:102890004360506018600BE04FF0010380F8203077
:1028A000426801681160036842685A60FFF710FCD3
:1028B00028462B461B68984204D09968A26891422A
:1028C000F8D200E02B462360586860605C600460CA
:1028D000A5624FF00400FFF763FCAB68A3420BD086
:1028E00048F67060C0F6010048F64061C0F601018C
:1028F0004FF0B202FFF7CCF9216CA94210D048F694
:102900008460C0F6010048F64061C0F601014FF056
:10291000B302FFF7BDF970BDAC60206CE8602564C0
:1029200070BD00BFAFF30080AFF30080AFF3008055
:1029300010B504464FF0200383F31188FFF7F0FA37
:102940002046FFF74DFFFFF7C3FA4FF0000383F374
:10295000118810BDAFF30080AFF30080AFF30080AB
:1029600038B540F69813C1F200039D694FF020037B
:1029700083F31188FFF7D4FA286C58B948F6AC6095
:10298000C0F6010048F64061C0F601014FF48472C0
:10299000FFF77EF9296C8A68AA420BD048F6C0601E
:1029A000C0F6010048F64061C0F6010140F20B128A
:1029B000FFF76EF92C6CE3682B642068A04219D0F5
:1029C000696C4BB11A689A4203D09068814238BF53
:1029D0000146DB68002BF5D1A96020680168216001
:1029E0004C60A060026CE26004644FF00001FFF7ED
:1029F00037FC02E04FF00003A360FFF769FA4FF0E5
:102A0000000383F31188204638BD00BFAFF3008078
:102A100038B504460D46FFF78BF95CB948F650709F
:102A2000C0F6010048F61871C0F601014FF0FE0231
:102A3000FFF72EF9E36B45EA0301E16394F8200008
:102A4000082803D1A36A194206D138BD092809D143
:102A5000A26A11408A4205D12046FFF739FB4FF0A8
:102A60000001816238BD00BFAFF30080AFF300808A
:102A700070B505460E46FFF75BF95DB948F6747010
:102A8000C0F6010048F61871C0F601014FF0BC0213
:102A9000FFF7FEF82C68A54209D0E3683343E360F2
:102AA0006068A168FFF7B4FF2468A542F5D170BD46
:102AB00010B50C4681B140F69813C1F20003996934
:102AC0008862086042684A60416011604FF00D0002
:102AD0002146FFF795FB10BD4FF0FF3010BD00BF42
:102AE00010B4406000604FF0000484604161816177
:102AF000C1608A180261C361019B036210BC704708
:102B000070B50446FFF714F9E3686361A3614FF001
:102B10000000A06020682546A0420AD06FF00106A0
:102B2000016821604D60FFF7D3FA86622068A842F1
:102B3000F6D170BDAFF30080AFF30080AFF300803B
:102B400038B504460D46FFF7F3F86369A26993426E
:102B500017D1A06878B914E0E36863612068A042E7
:102B60000CD0016821604C60FFF7B2FA4FF0000210
:102B70008262104638BD6FF0030038BD4FF0000090
:102B800038BDA16801F10101A16003F8015B636137
:102B900022699342E0D2E1E7AFF30080AFF3008017
:102BA00070B504460E464FF0200383F31188FFF7FB
:102BB000B7F9E3697BB1204698470CE020463146DF
:102BC000FFF776FF051E06DAFFF782F94FF00003E4
:102BD00083F3118814E0A0680028EFD000F1FF31E2
:102BE000A160A36913F8015BA3612269934224BF2A
:102BF000E368A361FFF76CF94FF0000383F31188DA
:102C0000284670BDAFF30080AFF30080AFF30080C3
:102C10002DE9F84F04460F461D46C66992465AB93B
:102C200048F6C070C0F6010048F6D471C0F6010144
:102C30004FF0E702FFF72CF84FF0200383F31188E1
:102C4000FFF76EF907F10108BA444FF00007B946E3
:102C50004FF0200B76B12046B0470BE020462946C6
:102C6000FFF726FF30B1FFF733F94FF0000383F38E
:102C7000118821E0A368002BF0D003F1FF30A060A1
:102C8000A16911F8012B08F8012CA161236999426F
:102C900024BFE168A161FFF71BF94B4683F311885C
:102CA00007F10107D04507D05B4683F31188FFF792
:102CB00037F908F10108CDE73846BDE8F88F00BFC5
:102CC00040600060826041618161C160891801617A
:102CD000C361009B03627047AFF30080AFF30080D5
:102CE00070B50446FFF724F8E3686361A3612269C5
:102CF000D01AA06020682546A0420AD06FF00106D5
:102D0000016821604D60FFF7E3F986622068A84200
:102D1000F6D170BDAFF30080AFF30080AFF3008059
:102D2000F8B504460F4616464FF0200383F311888A
:102D3000FFF7F6F80CE020463146FFF7B9FE051E16
:102D400006DAFFF7C5F84FF0000383F3118819E0A6
:102D5000A368002BEFD003F1FF30A060616901F898
:102D6000017B61612269914224BFE1686161E5698B
:102D70000DB12046A847FFF7ABF84FF0000383F3EF
:102D800011881D462846F8BDAFF30080AFF30080E0
:102D900038B50446FEF7CCFFA36962699A4214D1A4
:102DA000A06878B911E0E368A3612068A04207D069
:102DB000016821604C60FFF78BF94FF000028262DE
:102DC000284638BD6FF0020038BDA16801F101014D
:102DD000A16013F8015BA36122699342E3D2E4E7A7
:102DE0002DE9F84F04460F469B46D0F81C80154647
:102DF0005AB948F6F870C0F6010048F6D471C0F62A
:102E0000010140F29B12FEF743FF4FF0200383F3D2
:102E10001188FFF785F84FF00006B1464FF0200A01
:102E20000BE020465946FFF743FE30B1FFF750F85C
:102E30004FF0000383F3118824E0A368002BF0D047
:102E400003F1FF30A06017F8012B616901F8012B35
:102E500061612369994224BFE1686161B8F1000FA3
:102E600001D02046C047FFF733F84B4683F3118863
:102E700006F10106013D05D0534683F31188FFF7A3
:102E80004FF8DAE73046BDE8F88F00BFAFF30080B7
:102E9000094A22F0070040F6C813C1F20003186087
:102EA0004CF20001C2F2010121F0070240F6C41009
:102EB000C1F20000026070478B5D0120AFF300801B
:102EC00010B50446FEF734FF04F1070323F00701B1
:102ED00040F6C812C1F20002106840F6C413C1F2F5
:102EE00000031A68131A994206D8411840F6C8120E
:102EF000C1F20002116010BD4FF0000010BD00BF14
:102F000010B504464FF0200383F31188FFF708F84B
:102F10002046FFF7D5FF0446FEF7DAFF4FF0000327
:102F200083F31188204610BDAFF30080AFF300801B
:102F300008B540F6D010C1F2000042F60173C0F6A9
:102F4000000303604FF000018160C16000F11000D8
:102F5000FFF72EFC08BD00BFAFF30080AFF3008089
:102F600070B5064618B940F6D016C1F2000601F158
:102F7000070525F0070506F1080406F11000FFF724
:102F8000D7FC1AE05A68954216D805F1080191421B
:102F900002D91A68226009E05A181868585059680E
:102FA000A1F10801481B506022605D601C4644F896
:102FB000086BFFF7D5FC13E01C462368002BE1D11A
:102FC000FFF7CEFC316849B105F108008847044697
:102FD00030B10660456004F1080401E04FF00004E0
:102FE000204670BDAFF30080AFF30080AFF30080E8
:102FF0002DE9F047074658B949F24000C0F60100F4
:1030000049F22001C0F601014FF0C602FEF740FE72
:10301000A7F1080557F8080C00F1080600F11000A8
:10302000FFF786FC344649F2500AC0F6010A49F21D
:103030002009C0F601094FF0D008AC420AD86368F5
:1030400003F10803E018854204D25046494642463F
:10305000FEF71EFEB44201D0AC4228D2216809B16D
:103060008D4224D247F8081C256057F8042C02F141
:103070000803E91857F8080C814208D1496852182A
:1030800002F1080247F8042CEB5847F8083C606846
:1030900000F10801621895420BD157F8043CC018A2
:1030A00000F10800606057F8081C216001E0246806
:1030B000C3E7FFF755FCBDE8F08700BFAFF3008022
:1030C00038B504460D46FEF733FE04B15DB949F24A
:1030D000B800C0F6010049F28001C0F601014FF0CE
:1030E0009902FEF7D5FD23682B60256038BD00BF2F
:1030F00038B505460C464FF0200383F31188FEF7E0
:103100000FFF28462146FFF7DBFFFEF7E1FE4FF0F9
:10311000000383F3118838BDAFF30080AFF3008064
:10312000F0B40746002B08BF0B4600F10B0007F177
:103130000A050E46B1FBF2F402FB141101F1300452
:10314000392CC8BF01F13704AC4605F80149B6FB7C
:10315000F2F1B3FBF2F3002BEBD1CCEB0002B81889
:103160006FEA0703C11801F001042A4612F8011F93
:103170003B4603F8011B834210D10DE002F101042C
:103180005278194601F8012B04F1010264785C7051
:1031900001F101038342F1D1F0BC7047002CEDD066
:1031A00012F8011F03F8011B8342E7D1F4E700BFC7
:1031B00008B54FF00003FFF7B3FF08BDAFF3008081
:1031C0002DE9F04F2DED048B8BB007460E461546CA
:1031D0004FF0000BDFED9A9A4CF6CD40CCF6CC4088
:1031E000029049F2E003C0F601030393B04618F8D9
:1031F000011B002900F0ED81252905D03A6893686C
:10320000384698474646F1E771782D2903BF06F105
:10321000020801220192CDF804B098F800202E2A6D
:1032200001D0302A04D108F101084FF0300401E048
:103230004FF020044046D84610F8012B0646A2F174
:103240003003D9B2092904D92A2A07D1297805F1EE
:10325000040508EB880A01EB4A08EDE72E2A13D192
:103260000146DA4611F8012B0E46A2F13000C0B239
:10327000092804D92A2A08D1287805F104050AEB7F
:103280008A0600EB460AEDE7DA466C2A01D04C2AA2
:1032900005D1307820B106F10106024600E0FFE7D3
:1032A000A2F14403342B00F21781DFE813F0810010
:1032B00015011501150115018100150115011501F3
:1032C000150115010701150115011501150115015C
:1032D0000A0115011501350015011501150115012A
:1032E00015011501150115011501150138008100A1
:1032F0001501970015011501810015011501150132
:1033000015011501070115011501150144001501ED
:103310000A011501150135004FF01002D3E02C68A9
:103320000DF1280909F8184D05F104054FF02004A6
:103330000DF11100E4E005F10404D5F80090B9F1B5
:10334000000F039D08BFA94647F6FF72BAF1000FB0
:1033500008BF924699F80010002900F0C480BAF125
:10336000010F00F1C5804B4609EB0A056FEA090021
:10337000421902F0010103F10103184699F80120F6
:10338000002A40F04381B8E002F101031846527868
:10339000002A00F0B2801A4603F1010108465B786A
:1033A000002B40F04681A8E025464FF02004A7E01E
:1033B000296805F10405002908DA4FF02D008DF881
:1033C0001000C1F100010DF1110000E004A84FF060
:1033D0000A02FFF7EDFE0DF1100991E005F1070576
:1033E00025F0070000F10805D0E90001FDF750FBCA
:1033F00009EE100AB4EEE99AF1EE10FA08D54FF092
:103400002D028DF81020B1EE499A0DF1110901E05D
:103410000DF1100919EE100AFDF71EF841EC180B1A
:1034200013F0C6FB70B94FF04E0189F800104FF051
:10343000610289F8012089F8021009F103003AE0DD
:103440000000000048F2A061C0F20101BAF1000FD3
:1034500008BF8A46BDEEC99A484619EE101A4FF0C9
:103460000A025B46FFF75CFE81464FF02E0309F827
:10347000013B19EE100AFCF7DDFF02460B4651EC4A
:10348000180BFCF789FE41EC180B5046FCF7C2FF05
:1034900002460B4651EC180BFDF732F8FDF7D0FA57
:1034A00001460298A0FB0A2348464FF00A024FEA61
:1034B000D303FFF735FE0DF1100921E04FF00802AC
:1034C00001E04FF00A02296805F1040504A8FFF79E
:1034D0006FFE0DF1100913E00DF1280909F8182D00
:1034E0000DF111000CE0254648464FF0200407E09E
:1034F000254648464FF0200402E025464FF02004C0
:10350000C9EB000ACAEB080C2CEAEC78019B0BB95A
:10351000C8F10008B8F1000F2DDA99F800102D2934
:103520000BD1302C09D109F101093B689A68384662
:103530004FF02D0190470AF1FF3A6FEA080000F0C2
:10354000010101913B689A6838462146904718F17D
:10355000010843D136E03A689368384621469847D7
:1035600008F101083868826838462146904718F10A
:103570000108F0D126E039680B68384649465246C2
:103580009847B8F1000F3FF431AE08F1FF3E0EF05E
:1035900001093A689368384621469847B8F101080E
:1035A00028D123E639688B6838462146984708F1C8
:1035B000FF3838688268384621469047B8F10108DC
:1035C000F0D113E639680B683846494652469847A9
:1035D0000CE60BB0BDEC048BBDE8F08F0198002821
:1035E000B9D039688B6838462146984718F10108E8
:1035F000B1D1E7E7B9F1000FD4D038688268384616
:1036000021469047B8F10108CCD1EFE51A46AB420C
:103610003FF4CAAE00293FF4B7AE03F101010846FA
:103620005B78002B3FF469AF0A46A9427FF4ACAE49
:10363000BAE602F10102A9427FF4A6AEB4E600BFE9
:1036400010B570B940F66C00C2F201000479053C77
:1036500018BF012410F00CFE28B144F00400C4B2DD
:1036600001E04FF00204204610BD00BFAFF3008020
:1036700010B570B940F66C00C2F201000479053C47
:1036800018BF012410F0F4FD28B144F00400C4B2C6
:1036900001E04FF00204204610BD00BFAFF30080F0
:1036A000F8B50D461C46002838D140F66C03C2F22E
:1036B00001031879052834D140F66C00C2F20100EC
:1036C000114605F035FE00282ED104B340F66C06F5
:1036D000C2F2010604F1FF3101F00107304629462C
:1036E00005F076FE002825D021E03046294605F079
:1036F0006FFEE0B905F5007504F1FF3303F0FF0438
:103700003046294605F064FE00282BD00FE040F635
:103710006C00C2F2010005F0B3FEF8BD4FF00400EA
:10372000F8BD4FF00300F8BD4FF00100F8BD4FF0B9
:103730000100F8BD05F5007504F1FF3414F0FF0435
:10374000E5D07FB2002FD0D03046294605F040FEAC
:103750000028ECD105F5007504F1FF3212F0FF04EA
:10376000C3D1D4E705F5007504F1FF3010F0FF0474
:10377000BBD1CCE7AFF30080AFF30080AFF30080A4
:10378000F8B50D4616461C46002840D140F66C039D
:10379000C2F20103187905283CD140F66C00C2F250
:1037A000010010F065FD002837D140F66C00C2F230
:1037B0000100314605F0DCFE002831D104B340F6AB
:1037C0006C06C2F2010604F1FF3707F0010730462C
:1037D000294605F01DFF002828D024E03046294660
:1037E00005F016FFF8B905F5007504F1FF3202F097
:1037F000FF043046294605F00BFF00282ED012E0CA
:1038000040F66C00C2F2010005F05AFFF8BD4FF01F
:103810000400F8BD4FF00300F8BD4FF00200F8BD02
:103820004FF00100F8BD4FF00100F8BD05F500753F
:1038300004F1FF3414F0FF04E2D07FB2002FCDD0AA
:103840003046294605F0E4FE0028ECD105F5007568
:1038500004F1FF3111F0FF04C0D1D1E705F5007587
:1038600004F1FF3313F0FF04B8D1C9E7AFF30080D0
:1038700060B911B102290CD102E04FF0000070478D
:103880004FF4007313804FF0000070474FF00400B6
:1038900070474FF004007047AFF30080AFF3008033
:1038A0004FF40410704700BFAFF30080AFF3008007
:1038B00008B501464FF00000FFF752FB08BD00BFFE
:1038C00008B5FFF795FB08BDAFF30080AFF30080AC
:1038D000C36882689A4208D04268D154C16801F135
:1038E0000101C1604FF0000070476FF001007047A8
:1038F0000369C2689A4206D04168CA5C03F10103B9
:103900000361104670476FF001007047AFF300800D
:1039100038B504460369C568ED1AAA4238BF154692
:1039200042680846D1182A4614F09AFD20694119C8
:103930002161284638BD00BFAFF30080AFF300809F
:1039400038B50446C3688568ED1AAA4238BF1546E3
:103950004068C0182A4614F083FDE1684A19E26005
:10396000284638BDAFF30080AFF30080AFF300808E
:1039700010B449F2F004C0F60104046041608260B2
:10398000C3604FF00003036110BC7047AFF30080C9
:1039900070B504460E46154603680F2B0BD149F24D
:1039A0000010C0F6010049F21411C0F601014FF0F9
:1039B0000D0203F09DFA206800F10102226004EB81
:1039C00080014E6000F1100044F8205070BD00BF2F
:1039D00070B506460368002B0DDDA0F104044FF01E
:1039E000000504F104046168206C884705F10105B5
:1039F0003068A842F5DC70BDAFF30080AFF3008003
:103A00002DE9F04106460F4690460368002B0EDD77
:103A1000A0F104054FF0000405F104056A6838467A
:103A20004146904704F101043068A042F4DCBDE84F
:103A3000F08100BFAFF30080AFF30080AFF30080F0
:103A400010B4002943DD034644184FF000006FF026
:103A5000270113F8012B504010F0800F0CBF4000DD
:103A600081EA4000C2B212F0800F0CBF520081EA1E
:103A70004202D0B210F0800F0CBF400081EA40003B
:103A8000C2B212F0800F0CBF520081EA4202D0B2E3
:103A900010F0800F0CBF400081EA4000C2B212F06B
:103AA000800F0CBF520081EA4202D0B210F0800FAA
:103AB0000CBF400081EA4000C2B212F0800F14BF78
:103AC00081EA42025200D0B2A342C2D101E04FF0DB
:103AD000000010BC704700BFAFF30080AFF3008060
:103AE0002DE9F84F2DED028B43F6D815C2F20005F3
:103AF0002C464FF000024FF00003E4E8022305F5E6
:103B0000DF5505F11805A2469FED638B4FF0FF3896
:103B10006FF00049D3465AE9026730463946FCF750
:103B2000C1FC53EC182BFCF7EBFCFDF749F98019AD
:103B300041EB0701B94208BFB04206D14FF0010284
:103B40004FF00003801841EB0301B04271EB070313
:103B5000BCBF40464946CBE900010AF1080A5AE9D0
:103B6000026730463946FCF79DFC53EC182BFCF7F6
:103B7000C7FCFDF725F9801941EB0701B94208BFE1
:103B8000B0427DD175E04FF0FF326FF00043444901
:103B9000C1E904234FF00006354640F2E73842F60B
:103BA0003429C2F200091CE007F1040B7E6005F124
:103BB000010A554652464FEAEA73824273EB010707
:103BC0000CDA0BF10407CBF804600AF101052A4670
:103BD0004FEAE573824273EB010A46DB66464545D0
:103BE00023DC06F1010CF4E802012A464FEAE573F2
:103BF000824273EB010BF1DA454516DC54E9020110
:103C000005F1FF3709EB87036FEA050202F0010AAD
:103C100003F104075E6005F101052A464FEAE573EA
:103C2000824273EB010B0BDBD8E745F2D051C2F2B5
:103C300000014FF001000860BDEC028BBDE8F88F79
:103C4000B5F57A7FF1D0BAF1000FADD047F8046F27
:103C500005F101052A464FEAE573824273EB010A3A
:103C6000BCDAB5F57A7F9FD1DFE7B5F57A7F9BD1D6
:103C7000DBE74FF001024FF00003801841EB030136
:103C8000B04271EB0703BCBF40464946EAE8020177
:103C9000AA457FF43FAF76E7000000A09999A93FBD
:103CA000B8550020AFF30080AFF30080AFF3008081
:103CB000F8B504460D4645F2D053C2F20003186829
:103CC00058B949F24010C0F6010049F25411C0F64B
:103CD00001014FF03C02FDF7DBFF002C75F1000302
:103CE00037DBB4F57A7F75F1000C06DA42F6342042
:103CF000C2F2000050F82400F8BD42F63421C2F2AE
:103D00000001D1F89C1F40F27D32914224DC40F248
:103D10007E3643F6D817C2F200078B194FEA6300CC
:103D200007EBC002D2E90023944275EB030C02DAE0
:103D300000F1FF3609E000F1010107EBC103D3E90F
:103D40000023944275EB030C07DBB142E5DB084628
:103D5000F8BD4FF00000F8BD0846F8BDAFF3008095
:103D600010B5044601604FF000024FF00003C0E9B7
:103D70000223C0E904234FF0000140F6186214F05A
:103D800017FC10BDAFF30080AFF30080AFF30080ED
:103D9000F8B5064614461D4610461946FFF788FF3B
:103DA0000746D6E90223A41845EB0305C6E90245F8
:103DB000D6E904234FF001004FF00001121843EB45
:103DC0000103C6E9042340F27E339F420BDD49F232
:103DD0006810C0F6010049F25411C0F601014FF01D
:103DE0006102FDF755FF07F1060756F8272002F19B
:103DF000010246F82720F8BDAFF30080AFF3008042
:103E00002DE9F04F2DED028B85B081460391D0E96D
:103E10000423062A73F100000EDA09F1180C43F6A8
:103E2000D818C2F2000808F1080608F5E0584FF06B
:103E3000000081468A4623E0D9F818304FF0000888
:103E400093BB27E056E90245D6E90023121943EB5C
:103E500005034FEAD374121943F100035B104FEAD4
:103E6000320247F8042F00F1010001F101015CF872
:103E7000042C8A42E6DC06F10806464500F0008183
:103E80005CF8043B002BF6DD00F1FF340AEB8407FD
:103E90004946D7E709F118004FF0000808F101087A
:103EA00050F8043F002BF9D003990B6049F230140D
:103EB000C0F60104A4F10405019502914FF0000A37
:103EC0004FF0000BD9E9046730463946FCF700FF94
:103ED000019A02F10402D2ED007A019207EE100A73
:103EE00027EE270A10EE100AFCF752FF04460D4693
:103EF00054EA050004BF01240025BD4208BFB442B6
:103F000006D14FF0FF304FF0FF31241845EB01058B
:103F100008F1060259F822001AEB00024BEBE0739D
:103F2000A24273EB050014DA08F1060109EB8101E6
:103F300092469B4601E092469B4608F1010851F8E3
:103F4000040F1AEB00024BEBE073A24273EB050087
:103F5000F1DB4FEAD773F21847F100035B104FEA29
:103F60003202944275EB030120DA08F1060659F893
:103F700026701AEB07024BEBE773944275EB0300D4
:103F800014DB08F1060109EB810692469B4601E02D
:103F900092469B4608F1010856F8040F1AEB0002FE
:103FA0004BEBE073944275EB0300F1DA43F6D81261
:103FB000C2F2000202EBC803D3E90067304639467B
:103FC000FCF786FE08EE100AAB4508BFA2452BD0D1
:103FD00043F6D812C2F2000202EBC803D3E9020191
:103FE0004FF0FF324FF0FF33801841EB0301801B8D
:103FF00061EB0701B4EB0A0465EB0B0500FB05F36D
:1040000004FB0133A0FB0401591808F1060359F819
:10401000234022464FEAE473FCF79AFEFCF758FE71
:1040200007EE100A38EE078ABDEEC88A029918EE2C
:10403000100A41F8040F0291019A144B9A427FF43E
:1040400041AFD9F8101E51B909F5616940F27E30CF
:1040500000F1FF3059F8042D002AF9D001E040F2B8
:104060007E3043F6D813C2F2000303EBC001D1E95E
:1040700002014FF0FF321218039802614FF0050061
:1040800005B0BDEC028BBDE8F08F00BF3891010890
:1040900010B504464FF000014FF0400214F088FACA
:1040A0004FF00003236410BDAFF30080AFF3008036
:1040B000036C03F101030364026C102A04BF0022A5
:1040C0000264036C40F82310416C01F1010141646A
:1040D000704700BFAFF30080AFF30080AFF3008004
:1040E00070B4436C8B42B4BF466C0E46016C002E1C
:1040F00022DD0A466FEA01048E1B4FF000011346D1
:10410000002A0FDA6FEA0205C5F30015103318D440
:1041100003E003F110031033FBD424F00F0502F188
:104120001003EB1850F82330C91802F1FF3204F1E4
:104130000104B242E3D101E04FF00001084670BC37
:104140007047002DE5D01033E3D4E6E7AFF30080ED
:1041500070B506460C4614F04BFB0546002816DDEC
:104160003378A34216D033464FF0000015F0010F0C
:1041700005D112E013F8011FA14215D170BD00F165
:10418000010210469542F5D14FF0FF3070BD4FF05F
:10419000FF3070BD4FF0000070BD00F1010013F85A
:1041A000012FA242EBD170BD02F1010013F8012FE3
:1041B000A242E4D170BD00BFAFF30080AFF3008036
:1041C00008B5014649F28010C0F6010004F0E0F89D
:1041D00008BD00BFAFF30080AFF30080AFF30080F5
:1041E000F8B545F2D454C2F2000449F29010C0F67A
:1041F0000100216804F0CCF82368002B1CDD4FF08F
:10420000000445F2A065C2F2000549F2A817C0F605
:10421000010745F2D456C2F2000604EB440105EB57
:104220008102384655F82110526804F0B1F804F1C3
:1042300001043068A042F0DCF8BD00BFAFF300809D
:10424000F8B545F2D453C2F200031B68402B0CD1E1
:1042500049F2C010C0F6010049F2DC11C0F60101BC
:104260004FF01E0202F044FEF8BD45F2A066C2F215
:10427000000603EB43054FEA8505741903F10103BA
:1042800045F2D457C2F200073B6070516160A260F2
:10429000F8BD00BFAFF30080AFF30080AFF3008044
:1042A00008B50A464FF00001FFF7CAFF08BD00BF7E
:1042B00008B50A464FF00101FFF7C2FF08BD00BF75
:1042C00008B50A464FF00501FFF7BAFF08BD00BF69
:1042D00008B50A464FF00301FFF7B2FF08BD00BF63
:1042E00008B50A464FF00401FFF7AAFF08BD00BF5A
:1042F00038B5044614F07CFA054658B322782D2AC6
:104300000ED000282BDDA2F13003D8B2092829D81D
:1043100023464FF00001084615F0010F0FD12BE0A6
:1043200004F10100FFF7E4FFC0F1000038BD13F80D
:10433000014FA4F13002D2B2092A2DD917E000EBC7
:104340008000A2F1300202EB400001F101018D4238
:10435000EDD138BD44F23010C0F2AB0038BD4FF0A3
:10436000000038BD4BF6D060CFF6547038BD4BF628
:10437000D060CFF6547038BD01EB8104A2F1300259
:1043800002EB440001F1010113F8012FA2F1300406
:10439000E4B2092CD3D9EAE700EB8000A4F13004A1
:1043A00004EB400001F1010113F8012FA2F13004E8
:1043B000E4B2092CC3D9DAE7AFF30080AFF3008091
:1043C000F8B504464FF02E01FFF7C2FE0546B0F1E6
:1043D000FF3F07D12046FFF78BFF02EE900AB8EEB1
:1043E000E22A37E04FF0000323542046FFF780FF16
:1043F000074605F101056519284614F0F9F9064646
:1044000004462846FFF774FF002E15DDB2EE047A4D
:1044100006F1FF3101F00102F0EE477A4FF001039F
:104420009E421AD10AE027EE870A60EE077A03F16E
:1044300002039C42F7D101E0F7EE007A06EE907A93
:10444000F8EEE60A06EE100AB8EEC61AC1EE271A12
:1044500030EEA12A12EE100AF8BD002AE3D067EE72
:10446000077A03F101039E42DDD1E7E7AFF3008055
:1044700008B549F2F810C0F6010044F2E111C0F6A7
:104480000001FFF70DFF49F20020C0F6010044F2E1
:10449000C111C0F60001FFF70BFF08BDAFF30080AC
:1044A000F8B505460C464368032B03D181682046C6
:1044B0008847F8BD042B20D108464FF02001FFF7B4
:1044C00047FEB0F1FF3F4FD04FF00006265400F1F9
:1044D0000100261830464FF02001FFF739FEB0F1F9
:1044E000FF3F41D04FF00003335400F10102AB68AD
:1044F00020463146B2189847F8BD052B19D1084619
:104500004FF02001FFF724FE0646B0F1FF3F2BD00D
:104510004FF00000A0552046FFF7EAFE074606F1DF
:1045200001016018FFF7E4FE0146AA68384690478B
:10453000F8BD022B05D10846FFF742FFAB6898474C
:10454000F8BD0846FFF7D4FE4BF6D061CFF65471A4
:10455000884207D149F20820C0F60100214603F045
:1045600017FFF8BDAA689047F8BD00BFAFF3008001
:10457000037863B1202B0DD04FF0000101E0202A19
:104580000AD001F10101425C002AF8D104E04FF0A9
:10459000000101E04FF0000108467047AFF30080D2
:1045A000F8B507460E4614F023F905460446304692
:1045B00014F01EF985421BD1002D1CDD3A783378AA
:1045C0009A421BD13B4631464FF0000215F0010FD5
:1045D00007D119E013F8015F11F8010F85421CD0D3
:1045E0000FE002F101029442F4D14FF00100F8BD56
:1045F0004FF00000F8BD4FF00100F8BD4FF0000093
:10460000F8BD4FF00000F8BD02F1010213F8015FA0
:1046100011F8010F8542E4D0F3E702F1010213F82B
:10462000015F11F8010F8542DBD0EAE7AFF30080AC
:10463000704700BFAFF30080AFF30080AFF300809E
:1046400070B50446002849D049F22020C0F6010088
:1046500021464FF0040214F0FBF800283ED149F245
:104660002826C0F601063046214603F091FE04F1EB
:1046700004053046294603F08BFE2379212B14D004
:104680005BB900E05AB949F23820C0F6010029466A
:1046900003F07EFE4FF0000420E004F10500044624
:1046A00010F8012B212AEDD100E02C464FF000013B
:1046B00004F8011B2846FFF71BFE0546204614F0B0
:1046C00097F80246854209D049F25420C0F601000D
:1046D0002946234603F05CFE4FF00004204670BDDF
:1046E0002DE9F84FFFF7ACFF0546002800F0B88031
:1046F00014F07EF88046642800F3B28045F2D85664
:10470000C2F2000649F28823C0F6010334460FCBFB
:1047100007C423803046294613F0E2FF304614F0E8
:1047200067F849F6B431C0F601010A8832522846CA
:10473000FFF71EFF074640453CD145F2D451C2F277
:104740000001D1F80080B8F1000F77DD45F2A066D6
:10475000C2F2000608F1FF3202F0010AB146284613
:104760003168FFF71DFF00287CD009E004EB44030B
:1047700006EB8309284656F82310FFF711FF58B1BE
:10478000D9F80820904745F2D850C2F200003946C7
:1047900002F0C6FBBDE8F88F04F1010404EB44010C
:1047A00006EB8109284656F82110FFF7F9FE00288C
:1047B00074D0E5E705EB000A4FF00000E85545F23C
:1047C000D453C2F20003D3F80090B9F1000F35DDE5
:1047D00045F2A066C2F2000609F1FF3707F0010BAF
:1047E000374628463168FFF7DBFE00285CD009E039
:1047F00004EB440206EB8207284656F82210FFF726
:10480000CFFE68B138460AF10101FFF749FE45F2D3
:10481000D850C2F20000414602F082FBBDE8F88F9A
:1048200004F1010404EB440306EB8307284656F821
:104830002310FFF7B5FE00284ED0E3E749F2982099
:10484000C0F601004FF0000102F06AFB45F2D850BB
:10485000C2F200004FF0FF3102F062FBFFF7C0FC34
:10486000BDE8F88F4FF0000404F101044445E5D0A1
:10487000BAF1000F3FF47AAF04EB440906EB890963
:104880002846D9F80010FFF78BFE00287FF478AF98
:1048900004F1010444457FF469AFCFE704F101045A
:1048A00044457FF463AFC9E74FF0000404F101040D
:1048B0004C45C3D0BBF1000F9AD004EB440106EB8A
:1048C000810728463968FFF76BFE00289AD104F16A
:1048D00001044C458CD1B1E704F101044C4587D16A
:1048E000ACE700BFAFF30080AFF30080AFF3008010
:1048F00010B584B0044641F65833A0F848314FF063
:104900000200C4F89C0B4FF47041C4F2EB510091CB
:104910004FF00002C4F2C82201924FF00003C4F22B
:104920002F43029304F5FA704FF000014FF46842F0
:10493000C4F2FD624FF00003C4F2F0130CF0D0FAA1
:104940004FF40040C4F20950C4F80C0204B010BD8A
:104950002DE9F843044600F12C0528460BF0D8FF5A
:1049600028464FF00001C4F270214FF000024FF0D2
:1049700001030BF0D5FF28464FF00001C4F252317D
:104980004FF0000213460BF0CBFF28464FF000011A
:10499000C4F2D2314FF000024FF001030BF0C0FF20
:1049A00028464FF40041C4F21D414FF00002134667
:1049B0000BF0B6FF28464FF00001C4F234414FF02F
:1049C000000213460BF0ACFF04F24C7347F2BD42F9
:1049D000C3F613721A6004F5EA6049F6B251C3F6E1
:1049E0006F71016004F5EB600BF0FAFE04F63C1504
:1049F00028460BF0F5FE4FF013000BF021FC0246A9
:104A00004FF00009C4F24C2928464FF000014B46F4
:104A10000BF0EEFE4FF011000BF012FC02464FF0CF
:104A20000008C4F2673828464FF0000143460BF0F7
:104A3000DFFE4FF010000BF003FC02464FF400477E
:104A4000C4F2CD3728464FF000013B460BF0D0FEB4
:104A50004FF012000BF0F4FB02464FF44046C4F254
:104A6000134628464FF0000133460BF0C1FE04F513
:104A7000326528460BF0B4FE4FF00A000BF0E0FB65
:104A8000024628464FF000014B460BF0B1FE4FF0B6
:104A90000B000BF0D5FB024628464FF000014346C1
:104AA0000BF0A6FE4FF00C000BF0CAFB02462846A6
:104AB0004FF000013B460BF09BFE4FF00D000BF05A
:104AC000BFFB024628464FF0000133460BF090FE34
:104AD0004FF00203C4F840374FF00002C4F84827F3
:104AE000BDE8F883AFF30080AFF30080AFF3008040
:104AF0002DE9F00F2DED088B4FF00103A0F84A319E
:104B00004FF47A72A0F84C2100F204744FF00001C7
:104B1000C4F20C21216041F65835A0F848514FF4F9
:104B20008046C4F24E56C0F80C624FF00007C4F243
:104B30007017C0F850714FF00002C4F28222C0F822
:104B400054214FF08344C0F858414FF08241C0F8DF
:104B50005C11C0F89C3B00F618339FEDFAAA83ED78
:104B600000AA00F61C35DFEDF89AC5ED009A00F5B5
:104B700032669FEDF69A86ED009A00F62437DFED57
:104B8000F48AC7ED008A00F628329FEDF28A82EDA2
:104B9000008A00F62C349FEDF00A84ED000A00F53F
:104BA0003361DFEDEE0AC1ED000A00F634339FED0C
:104BB000EC1A83ED001A00F63835DFEDEA1AC5ED80
:104BC000001A00F63C369FEDE82A86ED002A00F533
:104BD0003467DFEDE62AC7ED002A00F644329FED88
:104BE000E43A82ED003A00F64834DFEDE23AC4EDF3
:104BF000003A00F64C319FEDE04A81ED004A00F5A5
:104C00003563DFEDDE4AC3ED004A00F654359FED13
:104C1000DC5A85ED005A00F65836DFEDDA5AC6ED5B
:104C2000005A00F65C379FEDD86A87ED006A00F500
:104C30003662DFEDD66AC2ED006A00F664349FED9D
:104C4000D47A84ED007A00F66831DFEDD27AC1EDD6
:104C5000007A00F66C3342F6AB2AC4F2335AC3F83A
:104C600000A000F537654FF00009C4F24D59C5F8B2
:104C7000009000F674364DF25658C4F26658C6F8E5
:104C8000008000F6783745F2565CC4F2805CC7F8C5
:104C900000C000F67C324FF48047C4F28D57176095
:104CA00000F5386442F6AB26C4F29A56266000F648
:104CB000843141F25655C4F2A7550D6000F6883391
:104CC0004FF00004C4F2B4541C6000F68C324EF66F
:104CD000AB21C4F2C051116000F539634DF2565258
:104CE000C4F2CD521A6000F69433DFEDABAAC3EDE7
:104CF00000AA00F5E36346F2420BC3F6C57BC3F896
:104D000000B000F21C7341F2C27BC3F6C67BC3F84D
:104D100000B000F5E4634AF2943BC3F6C67BC3F8E7
:104D200000B000F224734FF2C35BC3F6C87BC3F834
:104D300000B000F5E56346F2666BC3F6C67BC3F8C8
:104D400000B000F22C7349F6566BC3F6687BC3F8CB
:104D500000B000F5E66347F6030BC3F64B7BC3F8E0
:104D600000B000F2347347F2823BC3F6467BC3F8CF
:104D700000B000F5E7634AF6047BC3F64A7BC3F84C
:104D800000B000F23C734CF6CD4BC3F64C7BC3F83D
:104D900000B000F5E86347F2715BC3F64C7BC3F8E3
:104DA00000B000F2447344F2854BC3F64E7BC3F867
:104DB00000B000F5E96345F6294BC3F64F7BC3F815
:104DC00000B000F24C73C3F800B000F5EA63C3F81A
:104DD00000B000F25473C3F800B000F5EB639FED30
:104DE0006FBA83ED00BA00F25C739FED6DBA83ED8C
:104DF00000BA00F5EC639FED6BBA83ED00BA00F2E8
:104E000064739FED69BA83ED00BA00F5ED639FED21
:104E100067BA83ED00BA00F26C739FED65BA83ED5B
:104E200000BA00F5EE63C3F800B000F274739FEDB2
:104E300061BA83ED00BA00F5EF639FED5FBA83EDD1
:104E400000BA00F27C739FED5DBA83ED00BA00F505
:104E5000F0639FED5BBA83ED00BA00F284739FEDBF
:104E600059BA83ED00BA00F5F1639FED57BA83EDAF
:104E700000BA00F28C73C3F800B000F5F263C3F817
:104E800000B000F29473C3F800B000F5F36349F288
:104E9000AF4BC3F6C57BC3F800B000F29C734DF274
:104EA000565BC3F6C57BC3F800B000F5F46342F669
:104EB000911BC3F6C77BC3F800B000F2A4734EF297
:104EC000712BC3F6C57BC3F800B000F5F56342F65D
:104ED000A21BC3F6B57BC3F800B000F2AC7341F679
:104EE0001D4BC3F6EC5BC3F800B000F5F66B4FF05A
:104EF0000003CBF8003000F2B47BCBF8003000F5B3
:104F0000F76BCBF8003000F2BC7BCBF8003000F53B
:104F1000F86BCBF8003000F2C47BCBF8003000F522
:104F2000F96BCBF8003000F2CC7BCBF8003000F509
:104F3000FA6BCBF8003000F2D47BCBF8003000F5F0
:104F4000FB6B8DE09A99993F19E8B43FA036D03FAA
:104F50001F85EB3FCF6903401211114052B81E402C
:104F6000915F2C40D5063A4014AE47405455554009
:104F700098FC6240D7A37040164B7E402DF98540C7
:104F8000CDCC8C4000004844ABAA97445655CB4446
:104F90000000FF445655194500C0DA45EF1CC43FD8
:104FA000925CC83F2A8FC63F44C1C63FEBE3C53F72
:104FB000B4554D3F98DB493FF0134F3F78B73E3F24
:104FC000828D333F931E363F7FA23E3F66F7C43F3C
:104FD0005AF6DE3F817AC73F4EB4CB3F6F489D3FC4
:104FE000EFAA1440C8275C40AE62344049810F40AC
:104FF000BF0D084056D6983FD658FA3E194BF6409A
:10500000ECA3BE40696E9640D0447840D95F4640DC
:1050100092CC1940C95A1D40CD3EE53FB1310C40FC
:1050200058C70440B037AF3FA3CEA43FAF47654158
:10503000545F0B413CDCD14088BAAF4083C2A340EF
:10504000ACE1894093DF4B40B2BA554059863840B5
:1050500019C93540622C29406D53204026FC12406E
:105060001FED26BA8BED00BA00F2DC7B1FED28BAEB
:105070008BED00BA00F5FC6B1FED2ABA8BED00BA80
:1050800000F2E47B1FED2CBA8BED00BA00F5FD6B4E
:105090001FED2EBA8BED00BA00F2EC7BCBF800309E
:1050A00000F5FE6BCBF8003000F2F47BCBF800305B
:1050B00000F5FF6BCBF8003000F2FC7BCBF8003042
:1050C00000F5006BCBF8003000F6040BCBF8003095
:1050D00000F6080BCBF8003000F60C0BCBF80030D4
:1050E00000F5016BCBF8003000F6140BCBF8003064
:1050F00000F6180B1FED46BA8BED00BA00F61C0B3C
:105100001FED48BA8BED00BA00F5026B1FED4ABAED
:105110008BED00BA00F6240B1FED4CBA8BED00BAF4
:1051200000F6280B1FED4EBA8BED00BA00F62C0BE3
:105130001FED50BA8BED00BA00F5036B1FED52BAAC
:105140008BED00BA00F6340BCBF8003000F6380BCC
:10515000CBF8003000F63C0BCBF8003000F5046BC8
:10516000CBF8003000F6440BCBF8003000F6480BCB
:10517000CBF8003000F64C0BCBF8003000F5056B97
:10518000CBF8003000F6540BCBF8003000F6580B8B
:105190001FED66BA8BED00BA00F65C0B1FED68BA26
:1051A0008BED00BA00F5066B1FED6ABA8BED00BA05
:1051B00000F6640B1FED6CBA8BED00BA00F6680BBD
:1051C0001FED6EBA8BED00BA00F66C0B1FED70BAD6
:1051D0008BED00BA00F5076B1FED72BA8BED00BACC
:1051E00000F6740B1FED74BA8BED00BA00F6780B65
:1051F0001FED76BA8BED00BA00F67C0B1FED78BA86
:105200008BED00BA00F5086B1FED7ABA8BED00BA92
:1052100000F6840B1FED7CBA8BED00BA00F6880B0C
:10522000CBF8003000F68C0BCBF8003000F5096BA2
:10523000CBF8003000F6940BCBF8003000F6980B5A
:105240001FED86BA8BED00BA00F69C0B1FED88BAF5
:105250008BED00BA00F50A6B1FED8ABA8BED00BA30
:1052600000F6A40B1FED8CBA8BED00BA00F6A80B6C
:105270001FED8EBA8BED00BA00F6AC0B1FED90BAA5
:105280008BED00BA00F50B6B1FED92BA8BED00BAF7
:1052900000F6B40B1FED94BA8BED00BA00F6B80B14
:1052A0001FED96BA8BED00BA00F6BC0B1FED98BA55
:1052B0008BED00BA00F50C6B1FED9ABA8BED00BABE
:1052C00000F6C40B1FED9CBA8BED00BA00F6C80BBC
:1052D0001FED9EBA8BED00BA00F6CC0BCBF8003078
:1052E00000F50D6BCBF8003000F6D40BCBF8003096
:1052F00000F6D8034FF4554BC4F2AA1BC3F800B014
:1053000000F6DC034AF2DC7BC4F2761BC3F800B083
:1053100000F50E6344F2021BC4F22F1BC3F800B069
:1053200000F6E40347F6EA0BC4F20C1BC3F800B026
:1053300000F6E8034BF6362BC4F2BB0BC3F800B003
:1053400000F6EC0343F6064BC4F2A10BC3F800B021
:1053500000F50F6349F6C77BC4F2A30BC3F800B096
:1053600000F6F4034AF6780BC4F28C0BC3F800B0D5
:1053700000F6F80343F2BE0BC4F2910BC3F800B081
:1053800000F6FC034CF6FB4BC4F2630BC3F800B011
:1053900000F5106340F6250BC4F2750BC3F800B09E
:1053A00000F6041346F6117BC4F2490BC3F800B0B3
:1053B00000F6081342F6564BC4F2580BC3F800B07F
:1053C00000F60C134EF6853BC4F2310BC3F800B067
:1053D00000F51163C3F800B000F61413C3F800B071
:1053E00000F6181342F6C81BC4F2A01BC3F800B0A5
:1053F00000F61C1347F6575BC4F2821BC3F800B0DB
:1054000000F512634AF6066BC4F2891BC3F800B0BC
:1054100000F6241349F6933BC4F2791BC3F800B09D
:1054200000F6281343F2F33BC4F22F1BC3F800B07D
:1054300000F62C134CF23A0BC4F2F80BC3F800B090
:1054400000F513634CF6B80BC4F2C70BC3F800B0F9
:1054500000F634134DF2D21BC4F2EC0BC3F800B0CB
:1054600000F6381348F2621BC4F2D50BC3F800B043
:1054700000F63C1344F6491BC4F2C40BC3F800B059
:1054800000F514634FF2C05BC4F2B00BC3F800B078
:1054900000F6441349F6777BC4F2980BC3F800B0CA
:1054A00000F648134EF2796BC4F2900BC3F800B0CB
:1054B00000F64C1345F2EC1BC4F2800BC3F800B0AD
:1054C00000F51563C3F800B000F65413C3F800B03C
:1054D00000F6581341F6AC4BC4F2921BC3F800B06F
:1054E00000F65C1346F6185BC4F2771BC3F800B0F5
:1054F00000F5166348F20D6BC4F2791BC3F800B0D7
:1055000000F6641345F2085BC4F2761BC3F800B0E2
:1055100000F668134CF6ED2BC4F24F1BC3F800B035
:1055200000F66C1346F65C5BC4F2551BC3F800B082
:1055300000F5176345F6E44BC4F20E1BC3F800B048
:1055400000F674134DF25B6BC4F20E1BC3F800B08F
:1055500000F6781348F2AD6BC4F2001BC3F800B03C
:1055600000F67C1349F6FA3BC4F2D80BC3F800B03E
:1055700000F5186345F6C30BC4F2BA0BC3F800B0CC
:1055800000F6841343F67E0BC4F2CD0BC3F800B0D3
:1055900000F688134DF6643BC4F2C20BC3F800B0AA
:1055A00000F68C1345F6294BC4F2B70BC3F800B0D4
:1055B00000F51963C3F800B000F69413C3F800B007
:1055C00000F6981345F23D1BC4F28B1BC3F800B0E4
:1055D00000F69C134DF6C74BC4F2751BC3F800B020
:1055E00000F51A634FF6807BC4F2721BC3F800B05B
:1055F00000F6A41346F6172BC4F2751BC3F800B0CF
:1056000000F6A8134EF2EE7BC4F2741BC3F800B090
:1056100000F6AC1343F2B30BC4F2761BC3F800B030
:1056200000F51B6348F6660BC4F2671BC3F800B0B5
:1056300000F6B41341F2571BC4F23F1BC3F800B08D
:1056400000F6B8134CF2D74BC4F22F1BC3F800B0CE
:1056500000F6BC1344F66A5BC4F21F1BC3F800B02B
:1056600000F51C6344F6476BC4F2101BC3F800B08E
:1056700000F6C41341F29C0BC4F2071BC3F800B040
:1056800000F6C81347F6834BC4F2F00BC3F800B022
:1056900000F6CC134CF6CD4BC4F2DC0BC3F800B0D3
:1056A00000F51D63C3F800B000F6D413C3F800B0D2
:1056B00000F6D81340F6EC2BC4F2881BC3F800B0F8
:1056C00000F6DC134FF2F34BC4F2751BC3F800B0C5
:1056D00000F51E634FF42D7BC4F2731BC3F800B0BA
:1056E00000F6E41347F2C93BC4F2741BC3F800B0E0
:1056F00000F6E81343F2CA6BC4F2751BC3F800B09E
:1057000000F6EC134FF67F4BC4F2781BC3F800B0E1
:1057100000F51F6343F6F50BC4F27A1BC3F800B023
:1057200000F6F4134AF2A55BC4F2761BC3F800B08E
:1057300000F6F81341F2176BC4F25A1BC3F800B01D
:1057400000F6FC134BF24C3BC4F22E1BC3F800B026
:1057500000F5206342F20E2BC4F2381BC3F800B0F0
:1057600000F6042348F6677BC4F22A1BC3F800B096
:1057700000F608234DF23D4BC4F2181BC3F800B0ED
:1057800000F60C234AF6146BC4F2131BC3F800B0E6
:1057900000F52163C3F800B000F61423C3F800B08D
:1057A00000F618239FEDFEBA83ED00BA00F61C2325
:1057B0009FEDFCBA83ED00BA00F522639FEDFABAC3
:1057C00083ED00BA00F624239FEDF8BA83ED00BA0A
:1057D00000F628239FEDF6BA83ED00BA00F62C23DD
:1057E0009FEDF4BA83ED00BA00F523639FEDF2BAA2
:1057F00083ED00BA00F634239FEDF0BA83ED00BAD2
:1058000000F638239FEDEEBA83ED00BA00F63C2394
:105810009FEDECBA83ED00BA00F524639FEDEABA80
:1058200083ED00BA00F644239FEDE8BA83ED00BA99
:1058300000F648239FEDE6BA83ED00BA00F64C234C
:10584000C3F800B000F52563C3F800B000F6542398
:10585000C3F800B000F658234CF6076BC4F2871B60
:10586000C3F800B000F65C2347F6465BC4F2751B34
:10587000C3F800B000F526634EF2354BC4F2741B3A
:10588000C3F800B000F6642349F6420BC4F2741B5F
:10589000C3F800B000F6682349F6EE6BC4F2741B3F
:1058A000C3F800B000F66C234BF6D46BC4F2771B40
:1058B000C3F800B000F527634DF6964BC4F27E1B8B
:1058C000C3F800B000F6742347F6614BC4F27C1BAA
:1058D000C3F800B000F678234BF2644BC4F27A1B95
:1058E000C3F800B000F67C2346F2183BC4F27D1BDF
:1058F000C3F800B000F528634FF6974BC4F2801B45
:10590000C3F800B000F684234DF6F27BC4F2701B9E
:10591000C3F800B000F6882348F6B77BC4F26F1BCB
:10592000C3F800B000F68C234CF28F2BC4F2691B35
:10593000C3F800B000F52963C3F800B000F6942363
:10594000C3F800B000F698234BF2E81BC4F2871BA3
:10595000C3F800B000F69C234EF2EE4BC4F2751B68
:10596000C3F800B000F52A6345F6965BC4F2731BDA
:10597000C3F800B000F6A4234AF2776BC4F2741B9C
:10598000C3F800B000F6A82343F6250BC4F2741B3D
:10599000C3F800B000F6AC234CF2BF5BC4F2771B37
:1059A000C3F800B000F52B6343F6C24BC4F27D1B75
:1059B000C3F800B000F6B4234DF2C66BC4F27C1BF2
:1059C000C3F800B000F6B8234DF69E0BC4F27A1B64
:1059D000C3F800B000F6BC2343F6E23BC4F27D1BE3
:1059E000C3F800B000F52C634FF2594BC4F27F1B93
:1059F000C3F800B000F6C42343F6410BC4F2801B89
:105A0000C3F800B000F6C8234AF2DB7BC4F2771B70
:105A1000C3F800B000F6CC2340F63D2BC4F2731B54
:105A2000C3F800B000F52D63C3F800B000F6D4232E
:105A3000C3F800B000F6D82341F27B4BC4F2881BB8
:105A4000C3F800B000F6DC234FF0000BC4F2741B67
:105A5000C3F800B000F52E634EF2481BC4F27A1B67
:105A6000C3F800B000F6E42340F63D2BC4F2771BE8
:105A7000C3F800B000F6E82345F2EC1BC4F2741B37
:105A8000C3F800B000F6EC2348F21F5BC4F2771BAA
:105A9000C3F800B000F52F634CF6CD4BC4F27C1B6D
:105AA000C3F800B000F6F4234AF6146BC4F27B1B73
:105AB000C3F800B000F6F82349F69A1BC4F2791B2C
:105AC000C3F800B000F6FC234AF2D73BC4F27C1BBB
:105AD000C3F800B000F530634FF2C35BC4F2801B23
