:020000040800F2
:1000000000040020510B0008510D0008510D00089C
:10001000510D0008510D0008510D0008510D000848
:10002000510D0008510D0008510D0008C10D0008C8
:10003000510D0008510D0008510D0008C10E0008B7
:10004000510D0008510D0008510D0008510D000818
:10005000510D0008510D0008510D0008510D000808
:10006000510D0008510D0008510D0008E1910008E4
:100070002192000861920008A1920008E192000814
:100080002193000861930008019D0008510D0008AC
:10009000510D0008510D0008510D0008510D0008C8
:1000A00071B10008F1B00008510D000811B100084D
:1000B00031B1000851B1000811B50008510D000818
:1000C000510D0008510D0008510D0008510D000898
:1000D000510D0008510D0008A1B80008C1B8000872
:1000E000510D0008510D0008510D0008510D000878
:1000F000510D0008510D0008510D0008A193000892
:10010000510D0008510D000831B50008510D0008CF
:10011000510D0008510D0008510D0008510D000847
:10012000E19300082194000861940008A19400085C
:10013000E1940008510D0008510D0008510D000810
:10014000510D0008510D0008510D0008F1A60008DE
:100150002195000861950008A1950008510D00083F
:10016000510D0008510D0008510D0008510D0008F7
:10017000510D0008510D0008510D0008510D0008E7
:08018000510D0008510D0008AB
:1001900008B504F00DFA00F03BFF02F079FD05F020
:1001A000D7FF03F085FA07F0BBFC05F0A1FF074875
:1001B00003F076FD064B01221A6003F0B1F903F05B
:1001C000D7F84FF4FA7001F03BFBF6E710FF000898
:1001D00038090120AFF30080AFF30080AFF3008057
:1001E00081F0004102E000BF83F0004330B54FEAE8
:1001F00041044FEA430594EA050F08BF90EA020F55
:100200001FBF54EA000C55EA020C7FEA645C7FEAE7
:10021000655C00F0E2804FEA5454D4EB5555B8BF0A
:100220006D420CDD2C4480EA020281EA030382EA7B
:10023000000083EA010180EA020281EA0303362D0D
:1002400088BF30BD11F0004F4FEA01314FF4801CE0
:100250004CEA113102D0404261EB410113F0004FF2
:100260004FEA03334CEA133302D0524263EB4303A9
:1002700094EA050F00F0A780A4F10104D5F1200E47
:100280000DDB02FA0EFC22FA05F2801841F10001A2
:1002900003FA0EF2801843FA05F359410EE0A5F176
:1002A00020050EF1200E012A03FA0EFC28BF4CF0A7
:1002B000020C43FA05F3C01851EBE37101F000455D
:1002C00007D54FF0000EDCF1000C7EEB00006EEB6A
:1002D0000101B1F5801F1BD3B1F5001F0CD34908F4
:1002E0005FEA30004FEA3C0C04F101044FEA44524B
:1002F00012F5800F80F09A80BCF1004F08BF5FEAD2
:10030000500C50F1000041EB045141EA050130BDB1
:100310005FEA4C0C404141EB010111F4801FA4F154
:100320000104E9D191F0000F04BF01460020B1FAA9
:1003300081F308BF2033A3F10B03B3F120020CDAE1
:100340000C3208DD02F1140CC2F10C0201FA0CF0BF
:1003500021FA02F10CE002F11402D8BFC2F1200C24
:1003600001FA02F120FA0CFCDCBF41EA0C019040DA
:10037000E41AA2BF01EB0451294330BD6FEA040423
:100380001F3C1CDA0C340EDC04F11404C4F120020E
:1003900020FA04F001FA02F340EA030021FA04F320
:1003A00045EA030130BDC4F10C04C4F1200220FA77
:1003B00002F001FA04F340EA0300294630BD21FAB5
:1003C00004F0294630BD94F0000F83F4801306BF7B
:1003D00081F480110134013D4EE77FEA645C18BF6F
:1003E0007FEA655C29D094EA050F08BF90EA020F06
:1003F00005D054EA000C04BF1946104630BD91EAFE
:10040000030F1EBF0021002030BD5FEA545C05D100
:100410004000494128BF41F0004130BD14F580043F
:100420003CBF01F5801130BD01F0004545F0FE41B3
:1004300041F470014FF0000030BD7FEA645C1ABFE8
:10044000194610467FEA655C1CBF0B46024650EA1F
:10045000013406BF52EA033591EA030F41F400214B
:1004600030BD00BF90F0000F04BF0021704730B5D1
:100470004FF4806404F132044FF000054FF00001A6
:1004800050E700BF90F0000F04BF0021704730B567
:100490004FF4806404F1320410F0004548BF40423C
:1004A0004FF000013EE700BF42004FEAE2014FEA91
:1004B00031014FEA02701FBF12F07F4393F07F4F6C
:1004C00081F06051704792F0000F14BF93F07F4F9E
:1004D000704730B54FF4607401F0004521F00041E1
:1004E00020E700BF50EA010208BF704730B54FF067
:1004F00000050AE050EA010208BF704730B511F06C
:10050000004502D5404261EB41014FF4806404F1A3
:1005100032045FEA915C3FF4DCAE4FF003025FEA25
:10052000DC0C18BF03325FEADC0C18BF033202EBAD
:10053000DC02C2F1200300FA03FC20FA02F001FA07
:1005400003FE40EA0E0021FA02F11444C1E600BFA6
:1005500070B54FF0FF0C4CF4E06C1CEA11541DBF59
:100560001CEA135594EA0C0F95EA0C0F00F0DEF824
:100570002C4481EA030621EA4C5123EA4C5350EA09
:10058000013518BF52EA033541F4801143F480135A
:1005900038D0A0FB02CE4FF00005E1FB02E506F0EB
:1005A0000042E0FB03E54FF00006E1FB03569CF040
:1005B000000F18BF4EF0010EA4F1FF04B6F5007F46
:1005C00064F5407404D25FEA4E0E6D4146EB0606B8
:1005D00042EAC62141EA55514FEAC52040EA5E5041
:1005E0004FEACE2EB4F1FD0C88BFBCF5E06F1ED8EB
:1005F000BEF1004F08BF5FEA500E50F1000041EB22
:10060000045170BD06F0004646EA010140EA0200CE
:1006100081EA0301B4EB5C04C2BFD4EB0C0541EAF0
:10062000045170BD41F480114FF0000E013C00F305
:10063000AB8014F1360FDEBF002001F0004170BD29
:10064000C4F10004203C35DA0C341BDC04F1140442
:10065000C4F1200500FA05F320FA04F001FA05F2CE
:1006600040EA020001F0004221F0004110EBD3709B
:1006700021FA04F642EB06015EEA430E08BF20EAC7
:10068000D37070BDC4F10C04C4F1200500FA04F36A
:1006900020FA05F001FA04F240EA020001F00041FC
:1006A00010EBD37041F100015EEA430E08BF20EA6F
:1006B000D37070BDC4F1200500FA05F24EEA020EB7
:1006C00020FA04F301FA05F243EA020321FA04F0E6
:1006D00001F0004121FA04F220EA020000EBD3709D
:1006E0005EEA430E08BF20EAD37070BD94F0000F9D
:1006F0000FD101F00046400041EB010111F4801FD1
:1007000008BF013CF7D041EA060195F0000F18BF81
:10071000704703F00046520043EB030313F4801FBD
:1007200008BF013DF7D043EA0603704794EA0C0F77
:100730000CEA135518BF95EA0C0F0CD050EA41068D
:1007400018BF52EA4306D1D181EA030101F000410A
:100750004FF0000070BD50EA410606BF1046194632
:1007600052EA430619D094EA0C0F02D150EA01363E
:1007700013D195EA0C0F05D152EA03361CBF10467F
:1007800019460AD181EA030101F0004141F0FE411E
:1007900041F470014FF0000070BD41F0FE4141F4A2
:1007A000780170BD70B54FF0FF0C4CF4E06C1CEAA2
:1007B00011541DBF1CEA135594EA0C0F95EA0C0F57
:1007C00000F0A7F8A4EB050481EA030E52EA033512
:1007D0004FEA013100F088804FEA03334FF0805533
:1007E00045EA131343EA12634FEA022245EA111560
:1007F00045EA10654FEA00260EF000419D4208BF11
:10080000964244F1FD0404F5407402D25B084FEABD
:100810003202B61A65EB03055B084FEA32024FF469
:1008200080104FF4002CB6EB020E75EB030E22BFC6
:10083000B61A754640EA0C005B084FEA3202B6EB86
:10084000020E75EB030E22BFB61A754640EA5C0035
:100850005B084FEA3202B6EB020E75EB030E22BFC5
:10086000B61A754640EA9C005B084FEA3202B6EBC6
:10087000020E75EB030E22BFB61A754640EADC0085
:1008800055EA060E18D04FEA051545EA16754FEAE7
:1008900006164FEAC30343EA52734FEAC2025FEA05
:1008A0001C1CC0D111F4801F0BD141EA00014FF094
:1008B00000004FF0004CB6E711F4801F04BF014365
:1008C0000020B4F1FD0C88BFBCF5E06F3FF6AFAE81
:1008D000B5EB030C04BFB6EB020C5FEA500C50F111
:1008E000000041EB045170BD0EF0004E4EEA113194
:1008F00014EB5C04C2BFD4EB0C0541EA045170BD9B
:1009000041F480114FF0000E013C90E645EA060EDE
:100910008DE60CEA135594EA0C0F08BF95EA0C0F0C
:100920003FF43BAF94EA0C0F0AD150EA01347FF454
:1009300034AF95EA0C0F7FF425AF104619462CE72B
:1009400095EA0C0F06D152EA03353FF4FDAE10468E
:10095000194622E750EA410618BF52EA43067FF4DF
:10096000C5AE50EA41047FF40DAF52EA43057FF46F
:10097000EBAE12E7000000000000000000000000E5
:100980004FF0FF3C06E000BF4FF0010C02E000BF5B
:100990004FF0010C4DF804CD4FEA410C7FEA6C5C3E
:1009A0004FEA430C18BF7FEA6C5C1BD001B050EAE1
:1009B000410C0CBF52EA430C91EA030F02BF90EACC
:1009C000020F0020704710F1000F91EA030F58BF8B
:1009D000994208BF90422CBFD8176FEAE37040F0ED
:1009E000010070474FEA410C7FEA6C5C02D150EA8B
:1009F000013C07D14FEA430C7FEA6C5CD6D152EA46
:100A0000033CD3D05DF8040B704700BF844610460A
:100A100062468C461946634600E000BF01B5FFF709
:100A2000B7FF002848BF10F1000F01BD4DF808EDD9
:100A3000FFF7F4FF0CBF012000205DF808FB00BFAA
:100A40004DF808EDFFF7EAFF34BF012000205DF804
:100A500008FB00BF4DF808EDFFF7E0FF94BF012051
:100A600000205DF808FB00BF4DF808EDFFF7CEFF52
:100A700094BF012000205DF808FB00BF4DF808ED91
:100A8000FFF7C4FF34BF012000205DF808FB00BF62
:100A90004FEA4102B2F1E04324BFB3F5001CDCF1A0
:100AA000FE5C0DD901F0004C4FEAC0024CEA5070D8
:100AB000B2F1004F40EB830008BF20F00100704707
:100AC00011F0804F21D113F13872BCBF01F000400A
:100AD000704741F480114FEA5252C2F11802C2F13C
:100AE000200C10FA0CF320FA02F018BF40F00100BD
:100AF0004FEAC1234FEAD32303FA0CFC40EA0C006F
:100B000023FA02F34FEA4303CCE77FEA625307D1AB
:100B100050EA01331EBF4FF0FE4040F440007047E2
:100B200001F0004040F0FE4040F40000704700BF7C
:100B3000704700BFAFF30080AFF30080AFF30080D9
:100B4000FEE700BFAFF30080AFF30080AFF300809B
:100B500072B6704C84F309884EF63472CEF20002FD
:100B60004EF68853CEF200034FF0404111601868F2
:100B700040F470051D600022E1EE102A4EF63C7331
:100B8000CEF2000306211A6081F31488BFF36F8F41
:100B90006148624DA84218D2EA1C051D531B23F080
:100BA0000302034610184FF0553183421960C2F317
:100BB00080020AD01AB185422B46296005D01D1D3E
:100BC0005960083383426960F9D15548A04218D270
:100BD0005449041D0A1B22F00305034628184FF050
:100BE000553183421960C5F380020AD01AB184429C
:100BF0002346216005D01D1D59600833834269607A
:100C0000F9D10AF0FDFE4849484881421BD2C61C72
:100C10000C1D321B464822F00302161D05680423F2
:100C2000B3420D60C2F380020DD022B145680823A3
:100C3000B342256007D01A1D1D5884585D500833F3
:100C4000B3428C50F7D13B483B49884217D2CB1C6A
:100C5000041D1A1B22F003050346281800218342B5
:100C60001960C5F380020AD01AB18442234621607C
:100C700005D01D1D5960083383426960F9D1FFF723
:100C800057FF2E4D2E498D421DD2CC1C2E1DA71B69
:100C9000B808471C01242A6800EA04089047BC42AF
:100CA00011D0B8F1000F05D0022433689847BC4238
:100CB000354608D0696888470234A8682E1D8047E9
:100CC0000835BC42F6D1FFF763FA1E4D1E4A954225
:100CD0001DD2D41C2E1DA71BBB085F1C0124296834
:100CE00003EA04088847BC4211D0B8F1000F05D0D0
:100CF000022430688047BC42354608D06A68904775
:100D00000234AB682E1D98470835BC42F6D1FFF778
:100D100017FF00BF00080020000000200004002092
:100D2000000400200308002000080020740E0020AA
:100D300048FF0008780E00203C09012088010008C7
:100D4000880100088801000888010008AFF30080CE
:100D5000FEE700BFAFF30080AFF30080AFF3008089
:100D6000F8B54CF27054C0F6000407460FCC40F6BC
:100D70007866C2F2000635460FC523682B70B96944
:100D800028460BF0D5FA4CF284513046C0F60001EB
:100D90002E22BDE8F84000F0B3B900BFAFF30080E9
:100DA00072B6FEE7AFF30080AFF30080AFF30080D0
:100DB00000F09EFA00F08CFC00F07AFA00DF00BF31
:100DC000EFF309824EF63073CEF20003D2F8CC1066
:100DD0005960986868309860683282F30988002307
:100DE00083F31188704700BFAFF30080AFF300803A
:100DF00008B54FF46D43CEF200034FF44072C0F2D9
:100E0000FA520021996007201021DA6000F0D8F82A
:100E10000A204FF4007100F0D3F80B208021BDE8C8
:100E2000084000F0CDB800BFAFF30080AFF3008002
:100E3000202383F311884FF46D43CEF200035868EA
:100E400010F4006325D0EFF30983A3F1680282F365
:100E5000098816494FF080708A6943F84C0C92F863
:100E60002300096892688968B0B1914294BF00225A
:100E70000122BAB10E4A43F8502CF1EE10FA4EF6A8
:100E80003072CEF20002516841F0010059665060A4
:100E9000704783F311887047914234BF00220122CA
:100EA000002AE7D1034843F8500CE8E7FC10002083
:100EB000B10D0008BC0D0008AFF30080AFF3008057
:100EC00008B500F09DF9202383F3118800F0D8F9CC
:100ED00000F0DEF800F0B4F9002383F3118800F08D
:100EE0006FF9BDE80840FFF7A3BF00BFAFF3008074
:100EF0002DE9F04F2DED108AC1F80CD0D0F80CD0B0
:100F0000BDEC108ABDE8F08FAFF30080AFF3008036
:100F100008B500F0CDF9002383F311882846A047D7
:100F200000F0F6FC08BD00BFAFF30080AFF3008017
:100F3000F0B44FF461438408CEF20003C03400F0F3
:100F4000030553F82470ED00FF26420906FA05F662
:100F500027EA060601FA05F500F01F0002F1600716
:100F6000012101FA00F02E4343F8246043F82700E2
:100F700043F82200F0BC7047AFF30080AFF300806D
:100F800041094FF4614310B4CEF2000300F01F0298
:100F90002031012404FA02F4820843F82140C032CF
:100FA00000F0030053F82210C000FF2404FA00F000
:100FB00021EA000143F8221010BC7047AFF3008013
:100FC00082084FF46D43CEF20003063200F00300B6
:100FD00030B4C00053F82250FF2404FA00F425EA8C
:100FE000040401FA00F10C4343F8224030BC70477E
:100FF000024B034A98698261FEE700BFFC100020A3
:101000004CF50008AFF30080AFF30080AFF3008031
:1010100030B583B0FFF7ECFE00F00AFA00F098F963
:1010200001F0DEF801F024F940F640704021C2F2F0
:10103000000000F05DFB41F2FC0440F20043C2F20C
:101040000003C2F200040125C36180F82050A061B2
:1010500000F066F9002383F3118862B64CF6600154
:10106000A269C0F60001916140F69070009340F6CD
:10107000F1734FF4A4712A46C0F60003C2F20000D7
:1010800000F0BEFB03B030BDAFF30080AFF30080D3
:10109000F8B500F07DF8164B986990F8232012B14E
:1010A000511E80F82310446A124D631C4362E868A5
:1010B0002C68421CAC42EA6018D0A768013FA760C8
:1010C000A7B92168E6684D60E760296000F0B8F8CC
:1010D000002383F311882069B047202383F311880C
:1010E00000F0CEF82C68A368002BEAD0F8BD00BF52
:1010F000FC100020EC100020AFF30080AFF3008064
:1011000070B506460D46144602F0FAF900B170BDFE
:1011100002F0EEF90C4B0D4A18680D490D4B1560A5
:101120000C601E600028F2D131462A4623460A4848
:1011300002F0B6FD48F2A060C0F2010000F080FBB2
:10114000BDE87040FFF72CBE38090120D810002000
:10115000E0100020E8100020B0C50008AFF30080C8
:10116000064B186820B906490A68002A00DD704756
:1011700004480549D322FFF7C3BF00BFDC1000209D
:10118000E4100020C4C50008CCC50008AFF30080FF
:10119000064B1868002804DB05490A68002A00DDB0
:1011A000704704480449C522FFF7AABFDC1000209D
:1011B000E4100020ECC50008CCC50008AFF30080A7
:1011C00010B5202383F31188094C2368002B02DD1E
:1011D000084A106828B108480849B522FFF790FF6F
:1011E0002368591E2160002383F3118810BD00BFBE
:1011F000DC100020E410002010C60008CCC5000858
:1012000010B5202383F31188094C2368002B02DBDF
:10121000084A106828B108480849A722FFF770FF5C
:101220002368591C2160002383F3118810BD00BF7F
:10123000DC100020E410002018C60008CCC500080F
:10124000084B1868002810B5074C05DD21680029F7
:1012500002DD0022226010BD044805499A22FFF7F2
:101260004FFFF6E7DC100020E410002020C6000845
:10127000CCC50008AFF30080AFF30080AFF300806F
:10128000074B1868002810B5064C01DD216821B114
:10129000054806498E22FFF733FF0122226010BD68
:1012A000DC100020E410002028C60008CCC500088F
:1012B000084B186810B5084C28B92168002902DDD0
:1012C0000022226010BD054805498222FFF718FF61
:1012D000F6E700BFDC100020E410002048C600083C
:1012E000CCC50008AFF30080AFF30080AFF30080FF
:1012F000074B186810B5074C08B9216821B106489A
:1013000006497622FFF7FCFE0122226010BD00BFD5
:10131000DC100020E410002050C60008CCC50008F6
:10132000054B186810B905490A6822B104480549F7
:101330006B22FFF7E5BE7047DC100020E4100020B0
:101340006CC60008CCC50008AFF30080AFF3008086
:1013500041F2EC03C2F200034FF0FF3200205B6069
:101360001B609A60D8607047AFF30080AFF30080D5
:10137000F8B505460C4616461F46FFF709FFCDB1E6
:10138000C6B1BCB10E492F610B68EE609A689442F9
:1013900004D91B68A41A9A68A242FAD358682B6031
:1013A0008B42686005605D60AC6002D099680C1B80
:1013B0009C60F8BD034804495122FFF7A1FEE1E714
:1013C000EC10002090C60008A0C60008AFF3008013
:1013D00010B50446FFF7DCFE84B1E368A3B12068D2
:1013E0000C4A904203D08168A368CA188260616881
:1013F0000860206800234160E36010BD064807498B
:101400006D22FFF77DFEE8E7054804497022FFF7EB
:1014100077FEE4E7EC100020C0C60008A0C6000874
:10142000D0C60008AFF30080AFF30080AFF30080B8
:1014300041F2FC03C2F2000300225B601B609A6071
:101440005B611B61704700BFAFF30080AFF30080AA
:1014500010B50446FFF79CFE94F820308BB10E2B9C
:101460000FD00022A1680A4884F820200068836811
:101470008B42FBD24168206061600C604460204672
:1014800010BD044804495A22FFF73AFEE9E700BFBD
:10149000FC100020F0C6000804C70008AFF300806D
:1014A00010B52023044683F31188FFF7E9FE94F872
:1014B00020300D2B11D8DFE803F016101007100BA9
:1014C000101010101010100BA06A8268511C81605F
:1014D00094E80C001A60206843604FF0FF33A36269
:1014E0002046FFF7B5FFFFF7ABFE002383F311881B
:1014F00010BD00BFAFF30080AFF30080AFF30080FA
:1015000070B5104C0646FFF72BFEA5692368E96904
:101510001A6885F82060ADF16400546014262260DA
:101520000122814285F82360A36183F8202003D93A
:101530002846FFF715FCA36918462946BDE8704008
:10154000FFF7D6BCFC100020AFF30080AFF30080A3
:1015500070B50C4686B00646FFF702FE631C12D03B
:101560000B4D0C4AAB69214601A8FFF701FF30463D
:10157000FFF7C6FF049B13B101A8FFF729FFA86975
:10158000806A06B070BD3046FFF7BAFF004DF6E73F
:10159000FC100020A1140008AFF30080AFF300801E
:1015A00070B5124D04460E46FFF7DAFDA869A26831
:1015B0008368A6629A4211D9FFF74AFFC369AC61FA
:1015C000ADF1640201219342064684F820100AD846
:1015D00020463146BDE87040FFF78ABC2046BDE892
:1015E0007040FFF735BFFFF7BBFBF1E7FC100020B1
:1015F00038B50F4C2368A5691A680121142054607E
:1016000083F8201085F8230028462260A361FFF7A5
:101610001FFFEB69ADF16402934202D92846FFF740
:101620009FFBA0692946BDE83840FFF761BC00BFB9
:10163000FC100020AFF30080AFF30080AFF3008018
:1016400070B5134E3068B5690368AC685E600122FE
:10165000002180F820203360B06185F82010034617
:1016600000E01B689A68A242FBD8E9695A682B60BF
:10167000ADF16404A1426A6015605D6003D928463B
:10168000FFF76EFBB0692946BDE87040FFF730BC3C
:10169000FC100020AFF30080AFF30080AFF30080B8
:1016A00008B5FFF75DFD064B1A6898699168836875
:1016B000994200D808BDBDE80840FFF7C1BF00BF90
:1016C000FC100020AFF30080AFF30080AFF3008088
:1016D000044B986990F8231009B1FFF7B1BFFFF7E9
:1016E00087BF00BFFC100020AFF30080AFF3008085
:1016F0002DE9F00141F2FC04C2F200040022656908
:101700004164046100F13006816000F12C0C00F1AD
:101710004C0745614FF0020860610121142480F8F4
:10172000208080F8212080F823400264C263426256
:1017300080F8221082612861C0F82CC046630663DD
:10174000C761BDE8F0017047AFF30080AFF30080E0
:101750002DE9F04704460D4617469846FFF718FD59
:1017600014B1B5F59C7F38D21F482049A622FFF757
:10177000C7FCA5F1640161181D4E089BD6F814C082
:10178000E1604B641B4BC1F840800B6602210025D1
:1017900004F1300204F12C0A04F14C0984F8201001
:1017A000142301212661A760C4F814C02046746187
:1017B00084F8215084F8233067642564E56365620A
:1017C00084F82210A561CCF81040C4F82CA0626304
:1017D0002263C4F81C90BDE8F0877F2FC4D8B8F10D
:1017E000000FC6D1C0E700BF30C7000844C70008DB
:1017F000FC100020110F0008AFF30080AFF3008051
:10180000F0B51C4683B005460E461746202383F3E9
:101810001188FFF76DFD089823463A46314600903F
:101820002846FFF795FF00210446FFF7B9FEFFF7B2
:101830003FFD002383F31188204603B0F0BD00BFB5
:1018400010B5044628B90A480A494FF49372FFF7C5
:1018500057FC202383F31188FFF74AFD2146062019
:10186000FFF776FEFFF724FD002383F3118810BDF8
:1018700094C7000844C70008AFF30080AFF30080AE
:1018800010B52023044683F31188FFF731FD064B82
:10189000D968611A02D00620FFF75AFEFFF708FD4B
:1018A000002383F3118810BDEC100020AFF30080FB
:1018B00038B5114B9C692546A06255F82C0FA842FB
:1018C00006D00168E162FFF7C3FDE06AA842F8D1E3
:1018D00094F82100830704D1636922691A612169A0
:1018E0004B610E20FFF70CFE0448054940F28112BF
:1018F000BDE83840FFF704BCFC100020A4C7000876
:1019000044C70008AFF30080AFF30080AFF300805E
:1019100010B52023044683F31188FFF7E9FC204625
:10192000BDE81040FFF7C4BFAFF30080AFF3008005
:1019300038B50446202383F31188FFF7D9FC94F8C7
:101940002230002B21D0581EC5B284F82250FFF758
:10195000AFFC002383F311881DB994F820100E29E1
:1019600000D038BD94F8212002F00303012B14D0DD
:10197000022BF6D163692169A06C196122692146A5
:101980005361BDE8384000F0FBBC094809494E22CC
:10199000FFF7B6FB94F82230D5E763692069186138
:1019A000216920464B61BDE8384000F071BC00BFA2
:1019B00028C8000804C80008AFF30080AFF3008017
:1019C00010B5202383F31188FFF792FC41F2FC034A
:1019D000C2F200031C6994F82200411C84F8221012
:1019E000FFF766FC002383F31188204610BD00BF7B
:1019F00038B50546202383F31188FFF779FC2C695D
:101A00000E4B9C4218D094F82200FF280CD0411CA9
:101A100084F82210FFF74CFC002383F3118828463A
:101A2000FFF786FF204638BD054806499622FFF796
:101A300067FB94F82200EAE70024EBE7FC100020A3
:101A400080C8000898C80008AFF30080AFF300809A
:101A500038B504460D4628B1002903DB64602460D4
:101A6000A56038BD024803495822FFF749FBF5E756
:101A7000C0C80008D0C80008AFF30080AFF30080F2
:101A800038B50446FFF76CFB002C25D0A36822680C
:101A9000002B0DDBA24205D012481349C022FFF7EC
:101AA0002FFBA368581E0028A06007DB002038BD6C
:101AB000A242F1D0581E0028A060F7DA0B4DA969A8
:101AC0008C6262680C604A60032061601160FFF7FD
:101AD00017FDAB69986A38BD05480349BC22FFF77A
:101AE0000FFBD3E724C90008D0C80008FC10002071
:101AF00014C90008AFF30080AFF30080AFF300809B
:101B000010B52023044683F31188FFF7F1FB20462C
:101B1000FFF7B6FF0446FFF7CBFB002383F31188E2
:101B2000204610BDAFF30080AFF30080AFF300801C
:101B300010B50446FFF72CFB002C22D0A3682268C6
:101B4000002B0DDBA24206D0114812494FF49B72C4
:101B5000FFF7D6FAA368581C0028A06006DD10BD68
:101B6000A242F1D0581C0028A060F8DC21680A6865
:101B700000230846226054608B62BDE81040FFF7E6
:101B800067BC054803494FF49972FFF7B9FAD5E7E6
:101B9000A0C90008D0C800088CC90008AFF30080B5
:101BA00010B5044620B1002364602460A36010BD1A
:101BB000024803495822FFF7A3FAF4E730CA0008A5
:101BC00040CA0008AFF30080AFF30080AFF300809D
:101BD000F8B53E4B05469C69FFF7C2FA002D6FD061
:101BE000A86800283AD0A2688168914208D290F88B
:101BF00020308260042B49D0052B34D0002B22D01A
:101C000028460068854203D08168A2689142F8D2D4
:101C10004368206063601C604460A5620420FFF795
:101C20006FFCA868A04204D029482A49B222FFF7D5
:101C300067FA216CA94215D027482649B322BDE88E
:101C4000F840FFF75DBA90E80C001A6002680121C5
:101C500080F820105360FFF7FBFBD1E7206CAC60ED
:101C6000E8602564F8BD41680768866A0F60076808
:101C7000334679601B689E4202D099689142F9D23E
:101C80005A680360426010605860B9E741680768AD
:101C9000866A0F600768334679601B689E420DD0E4
:101CA00099689142F9D25A680360426010605860A6
:101CB000B068A2688368934299D3A1E73346F2E7FC
:101CC000064804497D22FFF71BFA89E7FC10002033
:101CD00070CA000840CA000884CA000860CA000828
:101CE00010B52023044683F31188FFF701FB20463B
:101CF000FFF76EFFFFF7DCFA002383F3118810BDB6
:101D0000214A70B52023956983F31188FFF7F0FA13
:101D10002C6C002C30D0A368AB4206D01B481C4969
:101D200040F20B12FFF7ECF92C6C2668E368A64230
:101D30002B641ED0696C4BB11A689A4203D090682C
:101D4000814238BF0146DB68002BF5D13368326C25
:101D5000A9603046236000215C60A660E2603464C4
:101D6000FFF71EFCFFF7A4FA002383F31188204637
:101D700070BD0020A060F5E7064805494FF4847265
:101D8000FFF7BEF92C6CC6E7FC100020C0CA0008A3
:101D900040CA0008ACCA0008AFF30080AFF300806F
:101DA00038B504460D46FFF7F3F9C4B1E26B94F879
:101DB000203045EA0201082BE1630CD0092B00D04A
:101DC00038BDA06A01408842FAD12046FFF740FBA7
:101DD0000023836238BDA26A1142F6D138BD0348A0
:101DE0000349FE22FFF78CF9E0E700BF50CB000863
:101DF00018CB0008AFF30080AFF30080AFF3008092
:101E000070B505460E46FFF7C3F965B12C68A542CB
:101E100008D0201D0BC83343E360FFF7C1FF2468DF
:101E2000A542F6D170BD03480349BC22FFF768F90B
:101E3000ECE700BF74CB000818CB0008AFF30080BC
:101E400010B4024659B1084B9B69986244680D2052
:101E500083E814005360236010BCFFF779BB4FF098
:101E6000FF3010BC704700BFFC100020AFF30080B3
:101E700010B4C361019B40608A1800240060846034
:101E800041618161C1600261036210BC704700BFA3
:101E900038B50446FFF77CF92068E3680021A042CA
:101EA0006361A361A1600AD06FF00105026822603E
:101EB0005460FFF7CDFA85622068A042F6D138BDA4
:101EC00038B504460D46FFF763F96369A269A06857
:101ED00093421AD0411CA16003F8015B226963613F
:101EE00093420BD22068A0420DD0016821604C6063
:101EF000FFF7AEFA00228262104638BD2068E36820
:101F0000A0426361F1D1002038BD0028E2D06FF01B
:101F1000030038BDAFF30080AFF30080AFF3008063
:101F2000F8B504460E46202383F31188FFF7E0F945
:101F3000E3690BB120469847A5682046314655B95C
:101F4000FFF77EFF071EF7DAFFF7B2F92B4683F3A0
:101F500011883846F8BDA0692269013DA56010F8D6
:101F6000017B9042A06124BFE068A061FFF7A0F967
:101F7000002383F311883846F8BD00BFAFF300801B
:101F80002DE9F0470446154688461E46C769002AD3
:101F90003AD0202383F31188FFF7AAF908F1010A48
:101FA0004FF00009A8440FB12046B847A568204665
:101FB00031465DB9FFF744FF0028F7D0FFF778F905
:101FC0002B4683F311884846BDE8F087A369013D9D
:101FD000A56013F8012B0AF8012C2069A361834244
:101FE00024BFE368A361FFF763F9002383F311883B
:101FF000C24509F10109E6D0202383F31188FFF7D8
:1020000077F90AF1010ACEE702480349E722FFF710
:1020100077F8BEE7C0CB0008D4CB0008AFF3008050
:1020200010B4C361019B40608C1800608260416104
:102030008161C1600461036210BC7047AFF300802E
:1020400038B50446FFF7A4F8E368226920686361A5
:10205000D11AA042A361A1600AD06FF00105036804
:1020600023605C60FFF7F4F985622068A042F6D136
:1020700038BD00BFAFF30080AFF30080AFF3008046
:102080002DE9F041202304468846164683F3118843
:10209000FFF72EF9A568204631465DB9FFF7D0FE5F
:1020A000071EF7DAFFF704F92B4683F31188384649
:1020B000BDE8F0816369013DA56003F8018B2269E9
:1020C0006361934228BFE368E16928BF636109B196
:1020D00020468847FFF7ECF8002383F311881F465A
:1020E0003846BDE8F08100BFAFF30080AFF3008059
:1020F00038B50446FFF74CF8A3696269A0689A42B4
:1021000016D0411CA16013F8015B2269A3619342C0
:102110000BD22068A04206D0016821604C60FFF716
:1021200097F900228262284638BDE368A361F0E790
:102130000028E6D06FF0020038BD00BFAFF300808A
:102140002DE9F0470446164688469A46D0F81C907A
:10215000002A39D0202383F31188FFF7C9F800271C
:10216000A56820466B1E0DB3A360656918F8011BB6
:1021700005F8011B22696561954224BFE26862612E
:10218000B9F1000F00D0C847FFF792F8002383F39E
:1021900011880137013E14D0202383F31188FFF703
:1021A000A7F8A56820466B1E002DDDD120465146BC
:1021B000FFF746FE0028D3D0FFF77AF82B4683F3CB
:1021C00011883846BDE8F0870348044940F29B1265
:1021D000FEF796FFBEE700BFF8CB0008D4CB00089F
:1021E00041F21C1241F218134CF200010648C2F2EF
:1021F0000002C2F20003C2F2010120F0070021F048
:1022000007011060196070478B170010AFF3008052
:1022100010B50446FEF7BCFF074A08491368096871
:10222000E01D20F00700C91A88429ABF18181060F4
:102230000023184610BD00BF1C11002018110020FB
:1022400010B52023044683F31188FFF751F8204688
:10225000FFF7DEFF0446FFF72BF8002383F3118816
:10226000204610BDAFF30080AFF30080AFF30080D5
:1022700041F22013C2F2000342F241210022C0F6D3
:10228000000103F1100019609A60DA60FFF788BC62
:10229000F8B5074600284DD057F8086C06F1100035
:1022A000FFF71EFD0836A7F108053446AC4204D8F6
:1022B00063680833E01885421FD3B442216801D017
:1022C000AC4202D219B18D4201D30C46EEE757F869
:1022D000042C47F8081C256002F1080357F8080C85
:1022E000E91881420FD0606800F1080163189D422F
:1022F00017D0BDE8F840FFF703BD11481149D022BF
:10230000FEF7FEFED9E74868EB581218083247F886
:10231000042C606847F8083C00F1080163189D42EE
:10232000E7D157F8041C57F8082C4318083384E801
:102330000C00DEE704480349C622FEF7E1FEABE7E6
:1023400050CC000820CC000840CC0008AFF300803F
:1023500038B504460D46FEF71BFF24B11DB12368B6
:102360002B60256038BD034803499922FEF7C8FE5B
:10237000F5E700BFB8CC000880CC0008AFF30080C0
:1023800038B505460C46202383F31188FEF7B0FFCD
:1023900028462146FFF7DCFFFEF78AFF002383F380
:1023A000118838BDAFF30080AFF30080AFF3008039
:1023B000F0B400F10B0C074600F10A050C46B1FB26
:1023C000F2F602FB161101F13003392BC8BF01F1FF
:1023D0003703DBB2B4FBF2F42846314605F8013985
:1023E000002CECD1C0EB0C020146B818FA4382185D
:1023F000D2070AD507F8013B11F8013F05E011F8B3
:10240000013F7B7011F8013F571C3A4602F8013B2F
:102410008242F4D1F0BC7047AFF30080AFF300808C
:102420002DE9F04F89B005AB0DF1150C0546C3EB56
:102430000C000293CDF804C00C46164603902746C4
:1024400017F8011B59B125290CD02B683C462746AB
:1024500028469A68904717F8011B0029F3D109B064
:10246000BDE8F08F63782D2B00F07C814FF00009E0
:102470002E2B00F05E81302B00F05B814FF02008A6
:102480003C46002706E03178043607EB87072378BF
:1024900001EB4707A3F13002D1B201340929F4D985
:1024A0002A2BF0D02E2B00F0498100216C2B00F05C
:1024B00039814C2B00F03681A3F14400342800F21E
:1024C0002A81DFE810F01A012801280128012801DB
:1024D0001A012801280128012801280118012801D2
:1024E00028012801280128011601280128010901D5
:1024F0002801280128012801280128012801280194
:1025000028012801CD001A012801280128012801ED
:102510001A01280128012801280128011801280191
:102520002801280135002801160128012801090188
:1025300032684CF6E04AC0F6000A002A18BF9246FC
:1025400047F6FF709AF800300436002908BF0146AC
:10255000002B00F01F810AEB01009AF801306FEAAE
:102560000A010A1802F001010AF1010BD3B18345F7
:102570005B4617D079B19BF801300BF1010B8BB1A1
:1025800083455B4607D10DE09BF801100BF1010B71
:1025900041B1834506D003F1010B59785A46531CCB
:1025A0000029F1D1CAEB0B0BCBEB07074FF020084A
:1025B00027EAE777B9F1000F63D0BBF1000F27DD01
:1025C000D146286819F8011B8368D3446FEA0A0AC8
:1025D0000BEB0A02284602F0010A9847D94517D0AA
:1025E000BAF1000F03D0286819F8011B0BE0286826
:1025F000CA4682681AF8011B28469047286899F84D
:1026000001100AF10109836828469847D945EED19F
:10261000002F3FF414AF29687B1E8A681F462846A6
:10262000414603F001099047002F3FF408AFB9F18C
:10263000000F07D0296828468B6841469847013F1C
:102640003FF4FDAE286841468268284690472968D5
:10265000013F8B68284641469847013FF2D1EEE69C
:102660003068DDF80CB08DF8140004364FF0200807
:102670000DF1140ACBEB070727EAE777B9F1000F52
:102680009BD17F42002F98D09AF800102D296ED050
:10269000296828468A6841466FEA0709904701374A
:1026A00009F0010989D0B9F1000F07D02B6828463D
:1026B0009A684146904701373FF47FAF286841460A
:1026C000836828469847296801378A682846414622
:1026D00090470137F2D170E71022316805A8FFF763
:1026E00067FEDDF808C004360DF1140ACCEB000BD0
:1026F000C0E70A22F1E70822EFE731680436002933
:1027000041DB05A80A22FFF753FE029B0DF1140AD4
:10271000C3EB000BAEE78DF81430DDF80CB00DF113
:10272000140AA7E72278002A3FF4C6AE0134134604
:10273000C2E67B784FF030080137A1E62046002141
:1027400005E03278043601EB810402EB440110F815
:10275000013BA3F13004E2B2092A0446F3D92A2B43
:10276000EFD0A3E6A71CA3784FF0010980E6B8F1EB
:10277000300F8DD12A682846936898470AF1010ADC
:102780000BF1FF3B84E72D228DF8142049420DF117
:102790001500B7E79B464FF020086BE7AFF30080CA
:1027A000C36882689A4206D04268D154C1684B1C03
:1027B000C360002070476FF001007047AFF30080E6
:1027C0000369C2689A4205D04168CA5C013303615B
:1027D000104670476FF00100704700BFAFF30080F4
:1027E00038B5044608462369E5686168ED1AAA42CF
:1027F00038BF15462A46C91809F00AFC2069421953
:102800002261284638BD00BFAFF30080AFF30080DF
:1028100038B5C36885680446ED1A4068AA4238BFD7
:1028200015462A46C01809F0F3FBE1684A19E26030
:10283000284638BDAFF30080AFF30080AFF30080CF
:1028400010B44CF6F044C0F60004C36000230460EA
:1028500041608260036110BC704700BFAFF300802D
:102860000368052B70B504460D46164608D0991D21
:1028700004EB8302581C44F821602060556070BD51
:10288000034804490D2200F0EBF92368EFE700BF8D
:1028900000CD000814CD0008AFF30080AFF3008036
:1028A0000368002B70B5064609DD041F00250434BB
:1028B0000135A069616888473068A842F7DC70BDBF
:1028C0000368002B2DE9F04106460F4690460ADDCD
:1028D000051F0024043538466A6841469047306831
:1028E0000134A042F6DCBDE8F08100BFAFF3008008
:1028F000002953DD03464118002003E050008B42BD
:10290000C0B24AD013F8012B504010F0800F4FEAAC
:1029100040021CBF82F02702D243D0B210F0800FD9
:102920004FEA40021CBF82F02702D243D0B210F01F
:10293000800F4FEA40021CBF82F02702D243D0B280
:1029400010F0800F4FEA40021CBF82F02702D243F2
:10295000D0B210F0800F4FEA40021CBF82F0270275
:10296000D243D0B210F0800F4FEA40021CBF82F079
:102970002702D243D0B24FEA400210F0800F1CBFB2
:1029800082F02702D243D2B21006B7D5520082F0AD
:102990002700C2438B42D0B2B4D1704700207047A9
:1029A000704700BFAFF30080AFF30080AFF300804B
:1029B000704700BFAFF30080AFF30080AFF300803B
:1029C00041F65833A0F84831704700BFAFF300809C
:1029D00070B51148114E84B001F062F9FEF7F0FFB6
:1029E000044694F82220A368616A0D48551E00959C
:1029F00094F82020029156F822100191A5692146F1
:102A00000022039501F04CF92046FEF7F1FF044641
:102A10000028E6D104B070BD70CD000830CD0008AC
:102A2000A0CD0008AFF30080AFF30080AFF30080CB
:102A30004CF6C8504CF6D851C0F60000C0F6000164
:102A40002B22FEF75DBB00BFAFF30080AFF3008029
:102A50004CF6F05010B5C0F6000041F20824C2F266
:102A6000000401F01DF942F632524CF63861C0F212
:102A700033122046C0F6000101F092F84CF668616E
:102A80004CF64860C0F60001C0F6000001F008F9FD
:102A90004CF67060C0F6000001F002F94CF69C6044
:102AA0004CF6AC61C0F60000C0F6000101F0F8F889
:102AB00048F2A0624CF6F0612046C0F60001C0F278
:102AC000010201F06DF84CF600712046C0F60001DD
:102AD0004FF4E13201F064F846F640724CF61071A2
:102AE0002046C0F60001C0F2401201F059F84FF440
:102AF0003D424CF620712046C0F60001C0F2015262
:102B000001F04EF84FF4F4424CF630712046C0F616
:102B10000001C0F6032201F043F84CF64071204654
:102B20000122C0F6000101F03BF84CF65871204636
:102B30000122C0F6000101F033F84CF6687120461E
:102B40000122C0F6000101F02BF84CF6847101223D
:102B5000C0F60001204601F023F8204600F0C0FF37
:102B60004CF6A0712046C0F6000100F091FE4CF634
:102B7000A4712046C0F6000100F08AFE4CF6A87150
:102B8000C0F60001204600F083FE204600F0F8FF6A
:102B90004CF6B47120460122C0F6000101F000F8A5
:102BA0004CF6C87120460122C0F6000100F0F8FF83
:102BB0004CF6DC7120460122C0F6000100F0F0FF67
:102BC0004CF6F87120460022C0F6000100F0E8FF44
:102BD0004DF214012046C0F60001012200F0E0FF92
:102BE0004DF2300101222046C0F6000100F0D8FF6E
:102BF0004DF2440120460422C0F6000100F0D0FF4F
:102C00004DF25C012046C0F60001012200F0C8FF31
:102C10004FF4FA70BDE81040FEF712BEAFF300802B
:102C200008B542F28863C2F20003C1B21A681846BE
:102C30009368984708BD00BFAFF30080AFF30080F2
:102C400038B542F28863C2F2000305461C680A46A2
:102C5000246818462946A04738BD00BFAFF300805E
:102C600070B541F240140346C2F200040D462046FE
:102C70001946164609F05CFB204629463246BDE857
:102C80007040FEF73DBA00BFAFF30080AFF30080A5
:102C900008B501F0EDF944F2A100C0F6000000F023
:102CA00097F841F20820C2F200004DF2840100F1D1
:102CB0002C02C823C0F6000100F04AFFFFF7C8FE4F
:102CC0004DF28C0042F65121C0F60000C0F6000122
:102CD00001F0E6F84DF2940042F63121C0F6000012
:102CE000C0F6000101F0DCF84DF29C0042F6D11173
:102CF000C0F60000C0F6000101F0D2F8BDE80840BF
:102D000001F0D6B8AFF30080AFF30080AFF30080DE
:102D10002DE9F843264BDFF8A4809869254A264E12
:102D2000DFF89C908261454608F14E0700F0A0F95B
:102D3000D0B131682048CC68A047044600B20028D2
:102D400025DB042823D0082813D00D2822D01F28E3
:102D5000ECDDBD42EAD2E0B2FFF762FF05F8014BBD
:102D600000F086F90028E4D14FF47A70FEF768FD90
:102D7000DCE74545DAD0E4B22046FFF751FF2020DA
:102D8000FFF74EFF2046FFF74BFF013DCEE7002047
:102D9000BDE8F883FFF744FF0A20FFF741FF002357
:102DA00006482B70D9F8002005469047BEE700BFC3
:102DB000FC10002030D100088826002000080020E8
:102DC00040180020AFF30080AFF30080AFF3008025
:102DD00000B541F64003C2F2000383B0186000F072
:102DE00007F90020009042F6115341F208304FF4E9
:102DF000A7614022C0F60003C2F20000FEF700FD0A
:102E000003B000BDAFF30080AFF30080AFF30080EC
:102E100008B501F085FB202383F3118818B9BDE8BC
:102E20000840FEF765BABDE80840FEF729BA00BFC2
:102E300010B501F075FB044628B9FEF739FA2346B0
:102E400083F3118810BDFEF7FBF9002383F311888B
:102E500010BD00BFAFF30080AFF30080AFF3008080
:102E600008B542F27463C2F200034DF240101A68D2
:102E7000C0F60000511C196000F0A2F94DF2581084
:102E8000C0F600000D21BDE8084000F089B900BF80
:102E900042F27463C2F2000342F250605A68C2F216
:102EA0000000013224215A6000F07AB9AFF30080AB
:102EB00008B542F27463C2F200034DF268109A68DA
:102EC000C0F60000511C996000F07AF941F6440008
:102ED000C2F2000040F60C61BDE8084000F060B9A5
:102EE00008B54DF27C10C0F6000000F069F94DF213
:102EF0008C10C0F600000721BDE8084000F050B972
:102F0000482808B515D04F2817D0572819D042287F
:102F10001BD043281DD0742807D0542805D00F4B50
:102F20001A69501C1861002008BDFFF7D9FF012065
:102F300008BDFFF795FF012008BDFFF7A9FF01209D
:102F400008BD00F04DF9012008BD00F089F901200D
:102F500008BDFFF7ADFF012008BD00BF74260020AB
:102F6000022906D0032906D00748012918BF0020EE
:102F7000704706487047032A03D8054800EBC20093
:102F800070470020704700BF50D3000820D20008CF
:102F900020D30008AFF30080AFF30080AFF30080D0
:102FA000022938B50C46054616D1202383F3118833
:102FB000FEF766F928460121084A02F0D1F82146B9
:102FC000074A284602F0CCF8064801F091FEFEF7C9
:102FD00037F9002383F3118838BD00BFA0D1000862
:102FE00030D2000888260020AFF30080AFF30080C5
:102FF00038B542F28865C2F200054DF240342846E9
:10300000C0F6000401F00CFE2146284601F038FE0F
:103010002468236D9A6B48F2A06022F40021996322
:10302000C0F20100FEF70CFC4DF260212046C0F614
:10303000000102F05DF8236D986B002440F400223B
:1030400040F648009A632146C2F20100C4F202042D
:1030500001F0C6FC0421204640F2823206F0A8FFAF
:103060002046082140F28232BDE8384006F0A0BF79
:1030700042F28863C2F20003D3F8540201680A786E
:10308000131F584258417047AFF30080AFF30080E0
:103090000D4B0E4A986970B50D4E0E4D826102E0DF
:1030A0002B68581C286031680948CC68A04704B2D6
:1030B0002046FFF725FF0028F2D121460648224688
:1030C00000F0EEFDECE700BFFC10002060D300082C
:1030D000C0080120502C002074D30008AFF30080FA
:1030E00010B54FF44064C4F20204204603F068FCBB
:1030F00001464DF294300922C0F6000000F0D0FDE8
:10310000204603F05DFC01464DF2A4300822C0F6D3
:10311000000000F0C5FD42F2746442F65043C2F272
:103120000003C2F200044DF2B43019682269C0F6FF
:10313000000000F0B5FD4DF2DC302168C0F6000063
:1031400000F0AEFD4DF2F83061682422C0F60000B8
:1031500000F0A6FD4DF21C40A168C0F6000040F64C
:103160000C6200F09DFD4DF24040E168C0F60000A9
:1031700040F60C6200F094FD42F61411C2F2000118
:103180004DF264400968C0F60000BDE8104000F050
:1031900087BD00BFAFF30080AFF30080AFF30080C6
:1031A00038B540F6C003C2F2010305461C680A4662
:1031B000246818462946A04738BD00BFAFF30080F9
:1031C000014608B54EF25030C0F6000000F068FD30
:1031D000BDE80840FFF784BFAFF30080AFF3008085
:1031E00042F61413C2F200034DF280401A6810B583
:1031F000511CC0F600001960FFF7E2FF4DF290404D
:10320000C0F60000032100F04BFD40F6C000C2F202
:10321000010042F610140368C2F200045B68032246
:103220002146984701464DF2A040C0F6000000F04C
:1032300037FD4DF2AC40C0F60000B4F90010A278A2
:1032400000F02EFD40F65000C2F20000A178B4F963
:1032500000200368995410BDAFF30080AFF30080E5
:1032600008B542F27463C2F200034DF2C440DA685A
:10327000C0F60000511CD960FFF7A2FF40F63C20C9
:10328000C2F2000041F64401C2F2000140F60C62B5
:10329000006808F0BDFEBDE8084004F081BF00BF33
:1032A00040F63C23C2F2000341F644001968C2F222
:1032B000000040F60C6208F0ABBE00BFAFF3008028
:1032C00010B542F65440C2F200004DF2D44182B033
:1032D00000F12C02C823C0F6000100F039FC4DF2C9
:1032E000E440C0F600004FF4406400F0D9FCC4F2A2
:1032F00002044DF2FC4021460922C0F6000040F2D3
:10330000823303F085FC4DF20C50082240F28233E8
:103310002146C0F6000003F07BFC40F6C00040F6FA
:103320005401C2F20100C2F2000101F059FBFFF7A3
:10333000B7FF4DF21C5043F2E101C0F60000C0F6A9
:10334000000100F0ADFD0023009342F6181043F297
:1033500091034FF44E714022C0F60003C2F2000008
:10336000FEF74EFA02B010BDAFF30080AFF300805D
:1033700010B505F01DF842F25064C2F2000420605E
:1033800005F0EEFE606005F00BFFA06005F020FE8A
:10339000E06005F025FE206105F03AFE606105F071
:1033A00077FEE06105F004FE206210BDAFF30080FF
:1033B00043F24C03C2F2000301221A60704700BFBF
:1033C0002DE9F04707EE901A2DED048BB8EEE78A51
:1033D000DFED368A88EE288A84B007464DF2205405
:1033E000C0F600044DF23058C0F600084DF26456A5
:1033F000C0F6000618EE101A05F0A2F9824605F094
:10340000CFFE05F05DF9054605F0AAFE05F040F98E
:10341000814605F03DFE05F06BF909EE100A5046B5
:10342000FDF742F802460B46204600F039FC2846DC
:10343000FDF73AF8044648460D46FDF735F829EE03
:10344000280A2246BDEEC09A2B46CDE900018DED3B
:10345000029A404600F024FC18EE101A384605F097
:10346000BFF900EE900A20EEA81A18EE100AFDEE41
:10347000C18AFDF719F8CDED008A02460B463046A9
:10348000394600F00DFC18EE908A42F64C704DF271
:10349000845118EE902AC2F20000C0F6000104B078
:1034A000BDEC048BBDE8F04700F0CABB0000C84289
:1034B0004DF2A0514DF29C53C0F60003C0F600013E
:1034C000002818BF194610B50446054800F0E8FB6F
:1034D00004480549224600F063FB0448046010BD1F
:1034E000A4D5000850300020C0D50008542D00207D
:1034F0000320012103F0CCBBAFF30080AFF30080C9
:1035000041F2E803C2F200031868003018BF01203E
:10351000704700BFAFF30080AFF30080AFF30080CF
:10352000F8B5FFF7A5FD00B9F8BD4F4C236893B17E
:103530004E4E4F4F0320012103F0AAFB4D48216856
:1035400032683B6800F0ACFB48F2A060C0F20100BA
:10355000FEF776F9FEE700F083FB03F061F94648D9
:1035600001680029E0D0454F454EFA6845F6C5246C
:103570005509C0F67C24A4FB0513DD0903F058F9B6
:10358000044630683F49A04202D10A68AA42CBD023
:10359000FF680D6004F00CFF48F21F53C5F2EB13F7
:1035A0000546A3FB0720410907EE901A9FED360A56
:1035B000B8EEE77A0323C7EE000A34483449346092
:1035C00010EE902A00F04CFA22463048314900F0C3
:1035D000FFF92A4630492D4800F0FAF904F030FB93
:1035E0002E490246294800F0F3F905F0F9FC01469E
:1035F000284605F0F5F8022302462949234800F041
:103600002FFA05F005FD0223024626491F4800F067
:1036100027FA05F025FD0223024623491B4800F046
:103620001FFA05F0DDFC022302462049174800F08E
:1036300017FA05F0CDFC01EE100AFDEEC11A0321C8
:1036400011EE902A114800F02BFA05F0A9FD022195
:1036500002460E4800F034FA0C4802F0D1FC0B4848
:10366000BDE8F84000F08CBAE8100020D810002027
:10367000E0100020C4D50008542D0020EC100020DC
:10368000600800206408002000007A4450300020C8
:10369000E0D50008E8D50008F0D50008F4D500080A
:1036A000F8D5000804D6000808D6000810D600088F
:1036B00043F250004DF2146142F6585208B5C2F27E
:1036C0000000C0F60001C2F200024FF4FA7300F0ED
:1036D0003FFA42F64C70C2F200004DF2206100F158
:1036E0002C02C823C0F6000100F032FA0120FFF7D7
:1036F000DFFE4DF2346043F2C131C0F60000C0F687
:10370000000100F0C5FB4DF2C05043F2B141C0F6DC
:103710000000C0F6000100F0B3FB4EF2385043F257
:10372000B131C0F60000C0F60001BDE8084000F06D
:10373000B7BB00BFAFF30080AFF30080AFF30080F2
:103740000F4B104A70B4DC68156848F29F63651B24
:10375000C0F201039D42064607EE901A01DC70BCE0
:1037600070479FED097A27EE870A1460FDEEC00AC4
:10377000064810EE902A314670BC00F061BA00BFD6
:10378000EC1000206808002000007A44503000202F
:10379000F8B5074608F02CFE114B124D064693E88B
:1037A00003002860A980681D314600F0B1FE044680
:1037B0003A2004F8010B39462046A71908F0B8FD55
:1037C0000D210A22A1557A70FFF752FC00B9F8BD0D
:1037D000BB1C2846591BBDE8F840FFF731BA00BFB3
:1037E00040D6000884580020AFF30080AFF300807B
:1037F00008B5052806D8DFE800F00C0E10121403F7
:10380000094808BD09480A494822FFF729FA00205B
:1038100008BD084808BD084808BD084808BD084854
:1038200008BD084808BD00BF5CD6000860D6000887
:1038300078D60008FCF4000850D600084CD60008E2
:1038400048D6000854D60008AFF30080AFF30080DC
:1038500045F6700046F60C4108B54FF4FA620023B5
:10386000C2F20000C2F20001FEF7EAFF43F250107C
:10387000C2F200000121FEF7EBF843F25C13C2F242
:10388000000301221A7008BDAFF30080AFF300807F
:10389000F8B50E46044600293AD0304608F0A8FD97
:1038A000D4F8F4300546002B38D0D4F8F800D4F81A
:1038B000FC20C11A6B189A4209DD6A1C314608F0D7
:1038C000A7FBD4F8F8004519C4F8F850F8BD244D0A
:1038D0000FCD6060A16003CD2D88E260236160613F
:1038E000A161A583216804F11D0008F0D1FC271D0A
:1038F0001C4BC21BA41818883146A080384608F01B
:10390000EFFC194938466F22BDE8F840FFF7A8B927
:10391000164815497622FDF7F3FBBEE7144D0FCD8F
:103920006060A16003CD2D88E26023616061A161C8
:10393000A583216804F11D0008F0AAFC271D094A8F
:10394000C11B1388641838463146A38008F0C8FCB0
:10395000054938466522BDE8F840FFF781B900BF48
:10396000C0D60008BCD6000878D6000894D6000857
:10397000A0D60008AFF30080AFF30080AFF3008063
:1039800038B5041D0546204600F0C2FD28462146F4
:10399000BDE83840FFF77CBFAFF30080AFF3008095
:1039A00038B504461546FFF773FF20462946FFF752
:1039B000E7FF4CF6A4712046C0F60001BDE8384090
:1039C000FFF766BFAFF30080AFF30080AFF3008076
:1039D000F8B54CF6A4750446C0F600051746061D5A
:1039E000FFF756FF20462946FFF752FF394630467B
:1039F00000F08EFD20463146FFF74AFF204629465B
:103A0000BDE8F840FFF744BFAFF30080AFF300809C
:103A10002DE9F8439046061D99460446089F4CF64A
:103A2000A475FFF735FF4146304600F071FDC0F642
:103A3000000520463146FFF72BFF20462946FFF7B9
:103A400027FF49463A46304600F0C2FC2046314640
:103A5000FFF71EFF20462946BDE8F843FFF718BFD1
:103A60002DE9F0414CF6A4750446C0F600059846D1
:103A70001746061DFFF70CFF20462946FFF708FFF3
:103A800042463946304600F0A3FC20463146FFF757
:103A9000FFFE20462946BDE8F041FFF7F9BE00BF12
:103AA00038B5044608461546FFF7A2FE2A460146E9
:103AB0002046BDE83840FFF78BBF00BFAFF3008062
:103AC00070B5044608461546FFF792FE2A460146A1
:103AD00002232046BDE87040FFF7C2BFAFF300806D
:103AE00038B5D0F8F450044615B1C4F8F85038BDD4
:103AF00003480449D522FDF703FBC4F8F85038BD4C
:103B000008D7000878D60008AFF30080AFF3008034
:103B100070B5044616460D46FFF7E2FF4CF6A0715D
:103B20002046C0F60001FFF7B3FE4CF6A471204614
:103B3000C0F60001FFF7ACFE204629463246BDE83C
:103B40007040FFF72DBF00BFAFF30080AFF30080E0
:103B5000F8B504464DF21470C0F600000D46164646
:103B60001F4600F09DF820462560C4F8F460C4F8B4
:103B7000FC70BDE8F840FFF7B3BF00BFAFF30080B3
:103B800010B50446D0F8F400FFF702FE2046BDE869
:103B90001040FFF7A5BF00BFAFF30080AFF3008078
:103BA00010B50446FFF7B4FF2046BDE81040FFF70C
:103BB000E7BF00BFAFF30080AFF30080AFF300803A
:103BC00070B50446D0F8F4000C4D08F011FC064620
:103BD000FFF71EF9284608F00BFC41F287338619DF
:103BE0009E4204DCD4F8F410281808F0A1FBFFF77B
:103BF0001FF92046BDE87040FFF772BF603100201A
:103C0000F8B504460F464CF6A4751646C0F60005F6
:103C1000FFF766FF20463946FFF73AFE2046294661
:103C2000FFF736FE20463146FFF7AAFE204629461A
:103C3000FFF72EFE2046BDE8F840FFF7C1BF00BFEA
:103C400010B50446FFF764FF2046BDE81040FFF7BB
:103C5000B7BF00BFAFF30080AFF30080AFF30080C9
:103C600038B50A4C0A4DFFF7D3F82946204608F02C
:103C70005FFB00232B70FFF7DBF8207800B938BD1D
:103C80002046BDE83840FFF783BD00BFE844002070
:103C900060310020AFF30080AFF30080AFF300800D
:103CA0000FB400B583B0FFF7E3F920B903B05DF8B6
:103CB00004EB04B0704705AA024804990192FEF78C
:103CC000AFFBF3E788260020AFF30080AFF300805E
:103CD00070B50446012504E014F8013B2D2B0DD1ED
:103CE0006D42204608F084FB22460028F4D144F2BD
:103CF0003012C0F2AB0202FB05F070BD002834DDCB
:103D0000303BD9B2092929D810180138811A00246A
:103D1000C90717D512F8011F1C46A1F13003D9B20B
:103D200009290FD91AE011F8014F303C0A46E1B2D7
:103D3000092904EB460411D812F8013F303BD9B2EF
:103D400009290BD804EB840403EB44038242114697
:103D500003EB8306E7D103FB05F070BD4BF6D060A3
:103D6000CFF6547000FB05F070BD002070BD00BFA1
:103D700070B50D46064608F03BFB0446284608F0A1
:103D800037FB844201D0002070BD002C25DD327845
:103D90002B789A42F7D10022E0073346294617D400
:103DA00013F8015F11F8010F01228542EBD10132B6
:103DB000944202F1010210D013F8015F11F8010FD3
:103DC0008542E0D113F8015F11F8010F8542DAD185
:103DD0000132944202F10102EED1012070BD00BF18
:103DE00070B50C4E0C483168FFF75AFF3368002B52
:103DF0000FDD0A4D002404EB440105EB8102084865
:103E000055F821105268FFF74BFF30680134A0428B
:103E1000F1DC70BDDC73002030D70008A8750020ED
:103E200048D70008AFF30080AFF30080AFF3008005
:103E300001464DF26070C0F60000FFF731BF00BFD1
:103E4000F0B40B4C2368202B0BD00A4F03EB430636
:103E5000B600BD190133B85123606960AA60F0BC97
:103E60007047054805491722F0BCFEF7F9BE00BFB0
:103E7000DC730020A875002070D700088CD70008DC
:103E80000A460121FFF7DCBFAFF30080AFF30080EB
:103E90000A460421FFF7D4BFAFF30080AFF30080E0
:103EA0000A460021FFF7CCBFAFF30080AFF30080DC
:103EB00008B54DF2AC7043F6E151C0F60000C0F613
:103EC0000001FFF7EDFF4DF2B47043F63161C0F62B
:103ED0000000C0F60001BDE80840FFF7D1BF00BFF9
:103EE000F8B54368032B06460D4671D0042B0846EF
:103EF0000CD0022B43D0FFF7EBFE4BF6D061CFF690
:103F00005471884235D0B2689047F8BD08F070FA15
:103F10000028FADD2C78202C00F099806C1C0022FF
:103F2000C3071FD42178012220292346144419D124
:103F3000511CEAD0571C002018702846FFF7C8FE15
:103F40000446E819FFF7C4FEB368014620469847C7
:103F5000F8BD1C78202CEBD00B46097801325C1C94
:103F60002029E5D001329042234604F10101F0D12D
:103F7000F8BD3B482946BDE8F840FFF791BE08F080
:103F800037FA00281CDD2B782E2B66D0691C002206
:103F9000C3070FD40C7801222E2C0B46114409D1F3
:103FA0001AE01C782E2C17D00C780B460132013108
:103FB0002E2C11D0013290420B4601F10101F0D1BB
:103FC0002846FFF785FE06EE100AF8EEC62A39E00D
:103FD000826808469047F8BD511CF1D0571C00205C
:103FE00018702846FFF774FEEF190546384608F0AA
:103FF000FFF904463846FFF76BFE002C2ADD01214D
:10400000631EF2EE047A8C4203F00102B0EE677A8E
:104010000CD022B102218C4227EEA77A06D027EEDF
:10402000270A02318C4220EE277AF8D100EE900A5E
:10403000F8EEE06A01EE105A86EE872AF8EEC11A11
:1040400071EE822AB36812EE900A9847F8BD2B46AB
:10405000012770E7B7EE007AE8E72B460127BEE7B5
:10406000BCD70008AFF30080AFF30080AFF300804F
:1040700010B5FFF7EDFB47F2A840C2F200004DF289
:10408000D471C0F6000100F12C02C823BDE8104035
:10409000FFF75EBDAFF30080AFF30080AFF30080A9
:1040A0002DE9F04F014681B0054604227C4808F016
:1040B000CFF9002800F09180002D00F0EB80794BC3
:1040C000794C0FCB07C42046294600F8013B08F085
:1040D000DFF8764A118801802C7854B1202C4FF0FB
:1040E000000402D105E0202803D00134285D002817
:1040F000F9D1284608F07CF9A04282466C4B48D0A2
:10410000D3F80090002291452A552C4455DD694F83
:1041100009F1FF332846396803F00108BB46FFF771
:1041200027FE50BB01264E4547D0B8F1000F14D0F2
:10413000BB4628465BF80C1FFFF71AFEE8B90226BB
:104140004E450AD139E0284657F8281007EB880B6E
:10415000FFF70EFE88B94E452FD006EB46022846E3
:1041600057F8221007EB820BFFF702FE06F1010859
:1041700008EB480802360028E5D05846611CFFF7D6
:10418000AFFE4D484849524601B0BDE8F04FFFF739
:1041900057BDD3F80080B8F1000F0EDD454E08F191
:1041A000FF372846316807F00107B146FFF7E0FD09
:1041B000002864D1012444453CD100223E483F49B7
:1041C000FFF73EFD3C4838494FF0FF32FFF738FD1E
:1041D00001B0BDE8F04FFFF703BE394829462C1D5A
:1041E000FFF75EFD36482146FFF75AFD2B79212B5C
:1041F00053D0002B47D0681D01E0002A43D005466C
:1042000010F8012B212AF8D1002105F8011B2046C6
:10421000FFF75EFD0446284608F0EAF884420246AD
:104220003FF44DAF274821462B4601B0BDE8F04F83
:10423000FFF736BDA7B1B146284659F80C1FFFF766
:1042400097FDE0B9022444450AD1B6E7284656F85E
:10425000271006EB8709FFF78BFD80B94445ACD0EA
:1042600004EB4403284656F8231006EB8309FFF7B6
:104270007FFD671C07EB470702340028E6D0D9F81A
:10428000081088477DE71048214601B0BDE8F04F8F
:10429000FFF706BD01B0BDE8F08F2546B4E700BFCB
:1042A000E4D700084CD80008E073002044D600088A
:1042B000DC730020A8750020A87400205CD80008DA
:1042C000ECD7000818D80008FCD70008AFF300802E
:1042D000F0B4064600F10B0700F10A04B1FBF2F559
:1042E00002FB151101F13003392BC8BF01F137036F
:1042F000DBB22046294604F80139002DEED13A1AE6
:104300000146B018F2438218D2070AD506F8013BDD
:1043100011F8013F05E011F8013F737011F8013FFA
:10432000561C324602F8013B8242F4D1F0BC704781
:10433000092870B436DD632838DDB0F57A7F33DBC9
:1043400042F20F73984233DD48F29F61C0F20101DF
:1043500088422FDD44F23F22C0F20F0290422BDD53
:1043600049F27F64C0F29804A04229DD4EF2FF05B5
:10437000C0F2F555A84221DD46F267610123C6F27D
:10438000666102E00133A8420ADD81FB0062C017CA
:10439000C0EBA200A0421E46F4DC981D70BC704722
:1043A000F01DFBE70020F9E70220F7E70120F5E721
:1043B0000320F3E70420F1E70520EFE70720EDE70E
:1043C0000620EBE7AFF30080AFF30080AFF300808F
:1043D000F0B52DED028B08EE101AB5EEC08AF1EEA5
:1043E00010FA83B0154609D52D23B1EE488AB5EEF3
:1043F000C08AF1EE10FA00F8013BF6D4FDEEC88A4F
:104400000A2218EE901AFFF763FF002D044642DDE2
:104410000646F8EEE88A2E206F1E38EE688A06F807
:10442000010B072F55D8DFE807F0404244474A4FB9
:10443000043B49F28061C0F2980107EE101AF8EED1
:10444000C77A27EE880ABDEEC08A18EE100A8DEDF5
:10445000018AFFF76DFF431CAB42019914DA234632
:104460003022E51903F8012F2D1AE4436419AB42F9
:1044700004F0010406D00CB903F8012F03F8012F52
:10448000AB42F9D13F1AF61930460A22FFF720FF56
:10449000044600202070204603B0BDEC028BF0BD26
:1044A0004FF46141C0F2F551C7E70A21C5E7642125
:1044B000C3E74FF47A71C0E742F21071BDE748F2EA
:1044C000A061C0F20101B8E744F24021C0F20F013F
:1044D000B3E7FEE7AFF30080AFF30080AFF30080F7
:1044E0000B1E10B5044604DBFFF7F2FE002101703D
:1044F00010BD2D2100F8011B5942FFF7E9FE0022F3
:10450000027010BDAFF30080AFF30080AFF3008006
:104510000A22FFF7E5BF00BFAFF30080AFF30080D2
:1045200041F2DC03C2F2000318680028D4BF002067
:1045300001207047AFF30080AFF30080AFF300803D
:104540002DE9F041194C984625680F460446164659
:10455000202383F31188002D13DDFCF791FEE06822
:1045600010B12046FCF734FF434620463946324618
:10457000FCF7FEFEFCF764FE002383F31188BDE820
:10458000F081FCF7B5FEE36813B12046FCF720FF8D
:104590004346204639463246FCF7EAFEFCF788FEE1
:1045A000002383F31188BDE8F08100BFDC100020F8
:1045B00008B505F065F94FF61060C0F6000005F08B
:1045C0001FFC00F02DF800F0A3F800F059F900F0FE
:1045D000D7F900F065FC00F073FD00F019FBBDE8B1
:1045E000084007F015BA00BFAFF30080AFF30080BA
:1045F0004FF48053CEF2000319465A688018824265
:104600004B6802D29A4202D970479A42F7D998422F
:1046100094BF00230123002BF1D17047AFF300803A
:1046200005F0F6B9AFF30080AFF30080AFF3008080
:1046300000230122027043608360C3600361436111
:104640001830FDF7ADBA00BFAFF30080AFF30080C4
:1046500038B504460D46C8B1202383F31188FCF712
:1046600047FE2378581E012804D90B480B497522B0
:10467000FCF746FD2046656005F0FAF9022121703D
:10468000FCF716FE002383F3118838BD0448034964
:104690007122FCF735FDDFE79CD8000880D80008C0
:1046A00070D80008AFF30080AFF30080AFF3008054
:1046B000F8B504460E4617461D46FCF769FDDCB109
:1046C000D6B1CFB1012D01D0EB0715D42078022847
:1046D00008D0042806D0052804D00A480A49C72271
:1046E000FCF70EFD03232046A760E56026612370DA
:1046F000BDE8F84005F024BA04480349C322FCF79A
:10470000FFFCE3E7E0D8000880D80008C8D800081C
:1047100006F03EBDAFF30080AFF30080AFF3008042
:104720000123002103704160704700BFAFF3008098
:1047300038B504460D46D0B1C9B1202383F31188A2
:10474000FCF7D6FD2378581E012804D90B480C49E4
:104750006422FCF7D5FC2046656006F049FD022185
:104760002170FCF7A5FD002383F3118838BD0548AF
:1047700003496022FCF7C4FCDFE700BFCCD9000886
:10478000B0D90008A0D90008AFF30080AFF30080D3
:1047900010B50446C0B1202383F31188FCF7A8FDAF
:1047A0002378581E012804D90A480B497822FCF7BF
:1047B000A7FC204606F0E4FD01212170FCF778FDFE
:1047C000002383F3118810BD044803497422FCF7C9
:1047D00097FCE0E7E8D90008B0D90008DCD9000868
:1047E00010B50446B8B1202383F31188FCF780FD8F
:1047F0002378022B04D00B480B498A22FCF780FC5B
:10480000204606F015FE03202070FCF751FD002322
:1048100083F3118810BD054803498722FCF770FC1B
:10482000E1E700BF08DA0008B0D90008F8D90008AD
:1048300010B50446C0B1202383F31188FCF758FD5E
:104840002378981E032804D90A480B499E22FCF7B6
:1048500057FC204606F014FE02212170FCF728FDCB
:10486000002383F3118810BD044803499922FCF703
:1048700047FCE0E728DA0008B0D9000818DA000899
:1048800006F066BEAFF30080AFF30080AFF30080A8
:104890000123002103704160704700BFAFF3008027
:1048A00038B504460D46E0B1D9B1202383F3118811
:1048B000FCF71EFD2378581E012804D90C480D4929
:1048C0006922FCF71DFCA98865602046218106F05D
:1048D0005FFE02222270FCF7EBFC002383F31188B9
:1048E00038BD054803496522FCF70AFCDDE700BF37
:1048F0006CDA000850DA000840DA0008AFF30080F4
:104900000C30FDF73DBB00BFAFF30080AFF300807C
:104910000C304FF0FF33FDF733BB00BFAFF3008027
:104920003030FDF70DBC00BFAFF30080AFF3008067
:1049300030304FF0FF33FDF703BC00BFAFF3008012
:104940000C30FDF7EDBA00BFAFF30080AFF300808D
:104950000C304FF0FF31FDF7E3BA00BFAFF300803A
:104960003030FDF78DBB00BFAFF30080AFF30080A8
:1049700030304FF0FF32FDF783BB00BFAFF3008054
:1049800006F0AEBFAFF30080AFF30080AFF300805E
:1049900070B54DF690330546C0F60003044645F861
:1049A000043B82B0656001250B46164604F15401B4
:1049B0001022257200F10C000094FDF759FA0094C2
:1049C00004F1300004F1640110223346FDF728FBA6
:1049D00002B070BDAFF30080AFF30080AFF3008092
:1049E00038B504460D46C8B1202383F31188FCF77F
:1049F0007FFC237A581E012804D90B480B49A622B4
:104A0000FCF77EFB2046294606F092FF0221217228
:104A1000FCF74EFC002383F3118838BD044803499A
:104A2000A122FCF76DFBDFE738DB00081CDB000888
:104A300010DB0008AFF30080AFF30080AFF300801D
:104A400038B504460D46FCF7A3FBD4B163693BB10E
:104A500004F10C002946FDF733FA00280BDB38BDC2
:104A6000201D0421FDF7CCF904F10C002946FDF7C7
:104A700027FA0028F3DA201D8021BDE83840FDF731
:104A8000BFB903480349D822FCF73AFBDEE700BF71
:104A900064DB00081CDB0008AFF30080AFF300808C
:104AA00070B5046AD4F854321A681178042900D019
:104AB00070BD207A0228FBD115891B7945FA03F2D3
:104AC00012F00105F4D1266CE16BA06B731A1E1A6B
:104AD000EED0FCF7EDFB2B4683F31188D4F854227B
:104AE00033461068117904F1300200F0B1FB202345
:104AF00083F31188FCF7FCFBD4F854120868097999
:104B0000BDE8704000F0DCBBAFF30080AFF3008085
:104B1000F8B5046AD4F8542213681978042900D02F
:104B2000F8BD207A0228FBD155795F8903EB850314
:104B300047FA05F2D96812F001074D8AF0D1E6690B
:104B4000A0696369321AD61AB542E9D8FCF7B0FBFE
:104B50003B4683F31188D4F85412B6FBF5F305FBFA
:104B600003F30868497904F10C0200F061FB20238B
:104B700083F31188FCF7BCFBD4F8543218685979D8
:104B8000BDE8F84000F074BBAFF30080AFF30080E5
:104B90000C30FDF7F5B900BFAFF30080AFF3008034
:104BA0000C304FF0FF33FDF7EBB900BFAFF30080DF
:104BB0003030FDF7C5BA00BFAFF30080AFF300801F
:104BC00030304FF0FF33FDF7BBBA00BFAFF30080CA
:104BD0000C30FDF7A5B900BFAFF30080AFF3008044
:104BE0000C304FF0FF31FDF79BB900BFAFF30080F1
:104BF0003030FDF745BA00BFAFF30080AFF300805F
:104C000030304FF0FF32FDF73BBA00BFAFF300800A
:104C1000704700BFAFF30080AFF30080AFF30080B8
:104C200030B54DF600430546C0F60003044645F88E
:104C3000043B83B0656044F61133012504F154014F
:104C4000257200F10C004FF48072C0F6000300944E
:104C5000FDF70EF944F6A123009404F1300004F5A9
:104C6000AA714FF48072C0F60003FDF7D9F903B0C2
:104C700030BD00BFAFF30080AFF30080AFF3008022
:104C800070B50D4604460E6818B3202383F31188CF
:104C9000FCF72EFB237A581E012804D9104811492D
:104CA000DF22FCF72DFA297906EB810202219461BB
:104CB0006B79093346F82340A87906EB8006B46186
:104CC000C4F854522172FCF7F3FA002383F31188DD
:104CD00070BD05480349DA22FCF712FAD5E700BF98
:104CE000E0DB0008C0DB0008B0DB0008AFF30080A9
:104CF00070B5D0F8543200F10C06044630461D68F9
:104D0000FDF7C6F804F13000FDF79AF9201D0121E6
:104D1000FDF776F8D4F85402417905EB8102284674
:104D2000D36832465B8A00F083FAD4F8541249798A
:104D30002846BDE8704000F09BBA00BFAFF300808A
:104D400090F8443003F06001202901D00020704722
:104D500090F84520212A03D0222A09D0202AF5D113
:104D60000649072200238163C26303640120704760
:104D700000238363C3630364012070476C08002031
:104D8000F8B500EB810306469C690D46CCB12023A3
:104D900083F31188FCF774FA201D0821FDF730F821
:104DA000216CE26BA06B8F1A3F1A16D106EB8503BC
:104DB000D9684A69506828B9FCF742FA002383F39E
:104DC0001188F8BD0F8A7B1E13EA0007F4D1FCF7A7
:104DD00037FA3B4683F3118805E0FCF731FA0023EC
:104DE00083F311883B463046294604F1300200F037
:104DF0002FFA202383F31188FCF742FA3046294624
:104E000000F05EFAD8E700BFAFF30080AFF3008098
:104E100001F109032DE9F04150F823400D46064603
:104E2000CCB1202383F31188FCF72AFA201D04213A
:104E3000FCF7E6FF06EB8500E169C768A2696369D4
:104E40007F8A881AC3EB0008474506D9FCF7F8F9B2
:104E5000002383F31188BDE8F081FCF7F1F900230A
:104E600083F31188B8FBF7F307FB03F330462946B9
:104E700004F10C0200F0DCF9202383F31188FCF725
:104E8000FFF93046294600F0F3F9DFE7AFF3008081
:104E9000704700BFAFF30080AFF30080AFF3008036
:104EA00005F096BFAFF30080AFF30080AFF3008052
:104EB000002301220270436083600C30FCF770BE57
:104EC00038B504460D46D0B1C9B1202383F311880B
:104ED000FCF70EFA2378581E012804D90B480C4918
:104EE0007122FCF70DF92046656005F0B1FF022143
:104EF0002170FCF7DDF9002383F3118838BD0548E4
:104F000003496D22FCF7FCF8DFE700BF4CDC00082A
:104F100030DC000820DC0008AFF30080AFF3008035
:104F200010B50446D8B1202383F31188FCF7E0F9CB
:104F30002378581E012804D90C480D498722FCF714
:104F4000DFF8204606F05CF8204606F019F801214B
:104F50002170FCF7ADF9002383F3118810BD0548DB
:104F600003498322FCF7CCF8DDE700BF68DC0008CA
:104F700030DC00085CDC0008AFF30080AFF3008099
:104F800010B50446A8B1202383F31188FCF7B0F9CB
:104F90002378022B04D00A480A499A22FCF7B0F879
:104FA000204606F01DF8FCF783F9002383F31188EF
:104FB00010BD054803499722FCF7A2F8E3E700BFBC
:104FC00088DC000830DC000878DC0008AFF30080E3
:104FD00010B50446A8B1202383F31188FCF788F9A3
:104FE0002378022B04D00A480A49AC22FCF788F83F
:104FF000204606F005F8FCF75BF9002383F31188DF
:1050000010BD05480349A922FCF77AF8E3E700BF81
:10501000A8DC000830DC000898DC0008AFF3008052
:1050200070B504460D46164608B1002937D11D4813
:105030001D4940F26712FCF763F8202383F31188BF
:10504000FCF756F92378022B05D0184816494FF47F
:10505000B572FCF755F86068016829B11448124927
:1050600040F26B12FCF74CF80322227020462946CE
:10507000324605F0D5FFA3682BB10E480A4940F22D
:105080006D12FCF73DF80C4881690220A160FCF725
:1050900037FAFCF70DF9002383F3118870BD002A5D
:1050A000CBD1C4E7E8DD000830DC0008F4DD0008FF
:1050B00004DE0008A0DD0008FC100020AFF3008033
:1050C00005F09EBBAFF30080AFF30080AFF300802C
:1050D0000023012202704360C36183620362C362E2
:1050E0004362036303814381704700BFAFF30080D5
:1050F00070B504460E4600B3F9B1202383F311883E
:10510000FCF7F6F82378581E012805D90E480F49F8
:1051100040F21312FBF7F4FF002520466660E560BD
:1051200025616561A56105F083FB02212170FCF713
:10513000BFF82B4683F3118870BD0548034940F240
:105140000F12FBF7DDFFD8E7CCDE0008B0DE000869
:10515000A0DE0008AFF30080AFF30080AFF3008063
:10516000F8B504460E461546FCF712F8002C2AD076
:10517000002D28D02378042B05D01648164940F27C
:105180004312FBF7BDFFB71C04EB8700416829B150
:105190001248114940F24512FBF7B2FF686918B195
:1051A0000021102206F0DCFFA86918B100211022AE
:1051B00006F0D6FF04EB8707204631467D60BDE848
:1051C000F84005F055BC0648034940F24112FBF790
:1051D00097FFCFE710DF0008B0DE00082CDF0008E3
:1051E000F8DE0008AFF30080AFF30080AFF300807B
:1051F00030B400EB81040025E468A4692570E26006
:105200006360A56030BC05F01BBD00BFAFF300803C
:1052100030B400EB81040025E46864692570E26025
:105220006360A56030BC05F023BD00BFAFF3008014
:1052300030B400EB8104E568AC69012563600023AC
:105240002570E260A36030BC05F0FABCAFF30080CB
:1052500030B400EB8104E5686C69012563600023CC
:105260002570E260A36030BC05F002BDAFF30080A2
:1052700070B504460D46FBF78BFF9CB1638943FA7A
:1052800005F010F0010601D0012070BD012202FAE4
:1052900005F242EA030161812046294605F008FD36
:1052A000304670BD034804494FF4F472FBF728FF01
:1052B000E4E700BF80DF0008B0DE0008AFF3008045
:1052C00070B504460D46FBF763FF9CB1238943FA92
:1052D00005F010F0010601D0012070BD012202FA94
:1052E00005F242EA030121812046294605F0E8FC47
:1052F000304670BD0348044940F20322FBF700FF2B
:10530000E4E700BF98DF0008B0DE0008AFF30080DC
:1053100010B40346002202240470A0F84C2083F845
:105320004E2080F84F2002814281C26002614261BA
:10533000826183F8342010BC05F0EABAAFF3008034
:10534000F8B50446002380F8343000F1440205F03B
:1053500067FC6068816800292DD02046884750B3DB
:10536000E56B94F8443094F84B1094F84A2042EAE4
:105370000120A8423CBF0546E06313F0800F2B4696
:1053800040F08780002D6DD1052184F8341020462F
:1053900029462A46FFF73CFF202383F31188FBF7B9
:1053A0006FFF29462046FFF78BFFFBF749FF2B468F
:1053B00083F31188F8BD94F8443013F0600711D0DE
:1053C0000021204605F09CFC2046002105F090FCC1
:1053D00063681A6812B1204605219047062084F8B8
:1053E0003400F8BD94F8456003F07F0242EA0626D7
:1053F000B6F5407F00F0068117DDB6F5C06F00F00E
:10540000968075DDB6F5106F00F0C18040F602425F
:10541000964200F08580B6F5006FD1D1012504F1E8
:105420004F00A063E56327649DE7022E00F0C18072
:1054300071DDB6F5807F00F09380B6F5817FBFD136
:1054400094F846100029BBD194F8485015F00F018C
:105450005CD02A06204600F1068105F059FC94F83C
:10546000443053E0042284F8342020460021A26B0B
:10547000FFF7BEFE202383F31188FBF701FF002115
:105480002046FFF7F5FEFBF7DBFE002383F31188D0
:10549000F8BDB5B1012184F8341020460021A26B7B
:1054A000FFF7B6FE202383F31188FBF7E9FE002106
:1054B0002046FFF705FFFBF7C3FE002383F31188A7
:1054C000F8BD032084F83400294620462A46FFF719
:1054D0008FFE202383F31188FBF7D2FE2946204656
:1054E000FFF7C6FEFBF7ACFE2B4683F31188F8BD31
:1054F00040F20230864273D0B6F5A06F7FF460AF01
:10550000B4F84410B1F5A06F00F09B800025A563AE
:10551000E563256427E7002E32D0012E7FF450AFDB
:10552000564902250022A163E56322641BE76068F7
:1055300094F8496094F84830456894F8471094F816
:105540004620204643EA0623A84700283FF438AF08
:105550004168056894F84430A163E563276402E775
:1055600094F84620012A7FF42BAFB4F84C00A763CF
:1055700020F00201A4F84C10E76327643D46F2E6F0
:10558000022504F14C00A063E5632664EBE694F881
:10559000465084F84F50002D44D103212170626899
:1055A0001568002DB2D020460221A84794F8443057
:1055B000ACE794F8483013F0800F204603F00F0159
:1055C00033D105F00DFB012833D002287FF4F8AE6B
:1055D0002B4DE063A563276494F844300546C2E68A
:1055E00094F8461000297FF4EBAE94F8485015F07B
:1055F0000F018BD02B0620463AD405F079FB94F8A6
:10560000443083E794F84620012A7FF4D9AEB4F8F9
:105610004C50A76345F00200A4F84C00E7632764F0
:105620003D46A0E604202070B9E705F0E9FA01281C
:10563000CBD1144AE663A263276494F8443035461C
:1056400091E694F84630204684F84E3005F000FA92
:1056500065682A6812B1204601219047032094F81A
:105660004430207052E705F05BFB94F844304DE77E
:1056700005F046FB94F8443048E700BF80DE0008A0
:1056800090DE0008E0DF0008AFF30080AFF3008099
:1056900038B590F83430022B044624D0052B3AD08C
:1056A000012B10D0002105F02BFB2046002105F036
:1056B0001FFB6068026812B1204605219047062151
:1056C00084F8341038BD90F84B1090F84A30C26B13
:1056D00043EA0121914206D9C5682B8AB2FBF3F156
:1056E00003FB1125F5B1002103200B4684F834009B
:1056F0000A462046FFF77CFD202383F31188FBF741
:10570000BFFD00212046FFF7B3FDFBF799FD002305
:1057100083F3118838BD026C02B19047002384F8EE
:10572000343038BD2B4629462A46FFF771FD202329
:1057300083F31188FBF7A4FD29462046FFF7C0FD3F
:10574000FBF77EFD2B4683F31188022084F834009A
:1057500038BD00BFAFF30080AFF30080AFF300802F
:1057600090F83430032B10B504462AD0042B11D006
:105770000021204605F0C4FA2046002105F0B8FAC1
:1057800063681A6812B1204605219047062184F803
:10579000341010BD002105220B4680F834200A4643
:1057A000FFF736FD202383F31188FBF769FD002105
:1057B0002046FFF785FDFBF743FD002383F31188A7
:1057C00010BDC1688B699A68002AD1D1016C01B102
:1057D0008847002084F8340010BD00BFAFF300807C
:1057E0000F4B1860D3ED007A9FED0E7AB8EEE70A02
:1057F0000246C0EE070AF5EE400AF1EE10FA0AD0B2
:105800009FED091AC1EE201A0848C0ED001A084899
:105810000849FEF715BA054B00211960F7E700BFEC
:1058200028770020000070420050C3473007001066
:105830002C770020F0DF0008AFF30080AFF300808A
:105840004EF214004CF6A87110B5C0F60000C0F678
:105850000001FEF725FA47F22C70C2F200004EF26A
:10586000240100F12C02C823C0F6000140F200041C
:10587000FEF76EF9C1F200044FF440624EF24000B0
:105880002146C4F202020123C0F6000001F028FD07
:105890002046FDF785F84FF49660FFF7A1FF4DF223
:1058A000F05045F2E171C0F60000C0F60001BDE81D
:1058B0001040FEF7E5BA00BFAFF30080AFF3008001
:1058C00070B50346044653F8040B82B00D461946E2
:1058D0001646FFF7F5FA2068FFF752FB113502AACA
:1058E00006EB052642F8046D20680121FFF798FBBE
:1058F0002068FFF76DFB2068FFF712FB02B070BD58
:10590000024647F62C10C2F200000121FFF7D8BF73
:105910000160002141604FF4036182608381C18195
:105920004EF250001146C0F600001A46012301F065
:105930006FB900BFAFF30080AFF30080AFF300801A
:105940002DE9F843A2F1340348F6AD361D02C6F640
:10595000DB0647F62C04C2F20004904686FB0527BE
:10596000EA17A2EB27338146204603F580760F46DF
:105970004CF6A475FEF7B4F84CF6A0712046C0F6BC
:105980000005C0F60001FDF783FF20462946FDF71C
:105990007FFF4EF260012046C0F60001FDF778FF60
:1059A00020463946FDF7ECFF4FF660112046C0F661
:1059B0000001FDF76DFF20463146FDF7E1FF4EF295
:1059C0007C012046C0F60001FDF762FF20464146FB
:1059D000FDF7D6FF29462046FDF75AFF2046FEF781
:1059E000EFF8484639463246BDE8F843FFF768BF4E
:1059F000024647F62C10C2F200000121FFF7A0BFBB
:105A0000024647F62C10C2F200000021FFF798BFB3
:105A100047F62C00C2F200004EF2840108B500F1F6
:105A20002C02C823C0F60001FEF792F84FF4805212
:105A300047F62C1040F25C71C4F202020F23C2F24E
:105A40000000C2F20101FFF763FF4EF2940045F639
:105A50000121C0F60000C0F60001FEF711FA4EF277
:105A60009C0045F6F111C0F60000C0F60001FEF7FB
:105A700007FA4EF2A40045F60111C0F60001C0F687
:105A80000000FEF7FDF940F6B830FFF7B9FF41F628
:105A90005830BDE80840FFF7ABBF00BFAFF3008050
:105AA00040F6780310B5C2F2000348F6C444C2F2CF
:105AB00000044EF2B00120461A68C0F60001FEF75D
:105AC0009FF840F67400C2F200004EF2B80102687E
:105AD000C0F600012046BDE81040FEF791B800BFB7
