:020000040800F2
:1000000000040020B1150008F1160008F1160008E0
:10001000F1160008F1160008F1160008F1160008A4
:10002000F1160008F1160008F11600086117000823
:10003000F1160008F1160008F11600086118000812
:10004000F1160008F1160008F1160008F116000874
:10005000F1160008F1160008F1160008F116000864
:10006000F1160008F1160008F11600089192000838
:10007000C192000801930008419300088193000891
:10008000B1930008F1930008119C0008F1160008D4
:10009000F1160008F1160008F1160008F116000824
:1000A000D1AE000851AE0008F116000871AE00088C
:1000B00091AE0008B1AE000841B20008F116000888
:1000C000F1160008F1160008F1160008F1160008F4
:1000D000F1160008F1160008A1B50008C1B5000826
:1000E000F1160008F1160008F1160008F1160008D4
:1000F000F1160008F1160008F11600083194000806
:10010000F1160008F116000861B20008F1160008A7
:10011000F1160008F1160008F1160008F1160008A3
:1001200071940008A1940008E1940008219500084A
:1001300061950008F1160008F1160008F116000894
:10014000F1160008F1160008F1160008E1A40008F5
:1001500091950008D195000811960008F116000845
:10016000F1160008F1160008F1160008F116000853
:10017000F1160008F1160008F1160008F116000843
:08018000F1160008F116000859
:1001900008B504F0BDFE01F00BFC03F041F806F0D9
:1001A0004FFC03F09DFD07F083FE06F019FC0748A5
:1001B00004F00EF9064B01221A6003F089FC03F0EB
:1001C00067FB4FF4FA7002F003F8F6E7F0F000086E
:1001D00058090120AFF30080AFF30080AFF3008037
:1001E00030F0004001D102207047A0F50003B3F1C8
:1001F000FE4F01D2042070474FF6FE73421EC0F23C
:100200007F039A4201D803207047B0F1FF43584260
:10021000584170470000000000000000000000008E
:100220002DE9F0418AB004460D4600F071F840F621
:100230000008C2F2000898F90030013306460F4664
:100240000BD02046294600F05BFA30B12046294603
:100250000022002300F0DAFE20B1304639460AB011
:10026000BDE8F08198F800604FF21013C0F600036B
:10027000CDE9024501930023CDE90445089366BB0F
:100280004FF6FF734FF06042CCF2EF73CDE90623D7
:10029000204629460022002300F090FE60B1022390
:1002A00000939E4225D0684600F052FA08B3089B9E
:1002B00023BBDDE90667D0E70123022E009313D0AC
:1002C000684600F045FA78B14BF6E470C0F60000DD
:1002D00000F046FACDE90601E9E700230022CFF657
:1002E000F073CDE90623D3E700F0EAFE2123036093
:1002F000EAE700F0E5FE22230360D8E700F0E0FE25
:10030000089B0360D5E700BF00000000000000006C
:10031000B1F5801F02462DE9F04F0B4687B0044629
:100320000D460E4662DA21F00045054300F0FE80DE
:100330000029C0F27D8100230022C4F250336FF007
:10034000350700F0CDFB0D460B464FF6FF71024618
:10035000C7F6EF718D4250DC25F07F46002326F46E
:100360007006104606F51524002204F66474C3F6E0
:10037000F07304F480142D1584F07F5EA5F2FF3530
:100380008EF4401EEF194EEA060107EB145800F0F8
:10039000F3F9B31C23F470030022022B82468B4630
:1003A00032DC002300F00AFE002800F0C8800020A4
:1003B0000021B8F1000F24D0404600F02BFBA0A391
:1003C000D3E9002306460F4600F08AFB9EA3D3E93B
:1003D000002304460D463046394600F081FB0246B4
:1003E0000B462046294600F0C9F90AE04FF6FF7196
:1003F0000027C7F6EF718D42AEDD1046194600F0BA
:10040000BDF907B0BDE8F08F4FF08043A6F5C227D5
:1004100000F0B4F9C6F5D7265136A7F27A4737432C
:1004200002460B465046594600F084FCCDE90201D5
:10043000404600F0EFFACDE90401DDE90201024691
:100440000B4600F04DFB02460B46CDE9000100F0E3
:1004500047FB7FA3D3E9002304460D4600F040FB91
:100460007DA3D3E9002300F089F922462B4600F052
:1004700037FB7BA3D3E9002300F080F922462B460B
:1004800000F02EFB78A3D3E9002300F077F9DDE933
:10049000002300F025FB76A3D3E90023CDE900017A
:1004A0002046294600F01CFB73A3D3E9002300F08B
:1004B00065F922462B4600F013FB71A3D3E9002314
:1004C00000F05CF922462B4600F00AFB02460B4680
:1004D000DDE9000100F052F9002F04460D4658DD19
:1004E00000230022C3F6E0735046594600F0F8FAA4
:1004F00052465B4600F0F4FA06460F46B8F1000F8C
:1005000063D122462B4600F039F9DDE9022300F0E1
:10051000E7FA02460B463046394600F02DF902460E
:100520000B465046594600F027F96AE700210020A3
:1005300000220023CCF2503100F0FCFB61E7524670
:100540005B465046594600F0CBFA4FA3D3E900234F
:1005500004460D465046594600F0C2FA0B460021AB
:100560000246C3F6E071002000F006F902460B4691
:100570002046294600F0B4FA04460D46B8F1000FB3
:1005800040F086805046594622462B4600F0F4F84B
:1005900037E7B8F1000F00F09F8029A3D3E90023CB
:1005A000DDE9040100F09CFA22462B4606460F4680
:1005B0005046594600F0E0F8DDE9022300F090FAD9
:1005C00004460D46DDE9040170E01DA3D3E90023D4
:1005D000DDE9040100F084FA22462B468046894674
:1005E0003046394600F0CAF8DDE9022300F078FA17
:1005F00015A3D3E9002304460D46DDE9040100F00C
:100600006FFA02460B462046294600F0B7F802462C
:100610000B463046394600F0AFF852465B4600F0D4
:10062000ABF802460B464046494600F0A5F8E8E61E
:1006300000F0A2F80022002300F07CFBE1E600BFFE
:100640000000E0FE422EE63F763C7935EF39EA3D88
:1006500044523EDF12F1C23FDE03CB966446C73FF1
:10066000599322942449D23F935555555555E53F0A
:100670009FC678D0099AC33FAF788E1DC571CC3F15
:1006800004FA97999999D93F555555555555D53FE0
:10069000404600F0BFF916A3D3E9002380468946FF
:1006A00000F01EFA06460F464046494612A3D3E91B
:1006B000002300F015FA02460B462046294600F0BA
:1006C0005BF852465B4600F057F802460B46304650
:1006D000394600F051F894E622462B4650465946DA
:1006E00000F04AF8DDE9022300F0FAF917E700BF4D
:1006F0000000E0FE422EE63F763C7935EF39EA3DD8
:1007000050EA010201D102207047D0F1010238BF46
:100710000022B1F1004F08BF0028F4D021F00043BF
:100720004FF6FF71A3F58010C7F6DF71884201D83C
:1007300004207047B3F5801F01D2032070470020CA
:10074000C7F6F070834214BF002002F0010070472A
:1007500000207047000000000000000000000000C2
:1007600000210020C7F6F871704700BF00000000AC
:1007700081F0004102E000BF83F0004330B54FEA52
:1007800041044FEA430594EA050F08BF90EA020FBF
:100790001FBF54EA000C55EA020C7FEA645C7FEA52
:1007A000655C00F0E2804FEA5454D4EB5555B8BF75
:1007B0006D420CDD2C4480EA020281EA030382EAE6
:1007C000000083EA010180EA020281EA0303362D78
:1007D00088BF30BD11F0004F4FEA01314FF4801C4B
:1007E0004CEA113102D0404261EB410113F0004F5D
:1007F0004FEA03334CEA133302D0524263EB430314
:1008000094EA050F00F0A780A4F10104D5F1200EB1
:100810000DDB02FA0EFC22FA05F2801841F100010C
:1008200003FA0EF2801843FA05F359410EE0A5F1E0
:1008300020050EF1200E012A03FA0EFC28BF4CF011
:10084000020C43FA05F3C01851EBE37101F00045C7
:1008500007D54FF0000EDCF1000C7EEB00006EEBD4
:100860000101B1F5801F1BD3B1F5001F0CD349085E
:100870005FEA30004FEA3C0C04F101044FEA4452B5
:1008800012F5800F80F09A80BCF1004F08BF5FEA3C
:10089000500C50F1000041EB045141EA050130BD1C
:1008A0005FEA4C0C404141EB010111F4801FA4F1BF
:1008B0000104E9D191F0000F04BF01460020B1FA14
:1008C00081F308BF2033A3F10B03B3F120020CDA4C
:1008D0000C3208DD02F1140CC2F10C0201FA0CF02A
:1008E00021FA02F10CE002F11402D8BFC2F1200C8F
:1008F00001FA02F120FA0CFCDCBF41EA0C01904045
:10090000E41AA2BF01EB0451294330BD6FEA04048D
:100910001F3C1CDA0C340EDC04F11404C4F1200278
:1009200020FA04F001FA02F340EA030021FA04F38A
:1009300045EA030130BDC4F10C04C4F1200220FAE1
:1009400002F001FA04F340EA0300294630BD21FA1F
:1009500004F0294630BD94F0000F83F4801306BFE5
:1009600081F480110134013D4EE77FEA645C18BFD9
:100970007FEA655C29D094EA050F08BF90EA020F70
:1009800005D054EA000C04BF1946104630BD91EA68
:10099000030F1EBF0021002030BD5FEA545C05D16B
:1009A0004000494128BF41F0004130BD14F58004AA
:1009B0003CBF01F5801130BD01F0004545F0FE411E
:1009C00041F470014FF0000030BD7FEA645C1ABF53
:1009D000194610467FEA655C1CBF0B46024650EA8A
:1009E000013406BF52EA033591EA030F41F40021B6
:1009F00030BD00BF90F0000F04BF0021704730B53C
:100A00004FF4806404F132044FF000054FF0000110
:100A100050E700BF90F0000F04BF0021704730B5D1
:100A20004FF4806404F1320410F0004548BF4042A6
:100A30004FF000013EE700BF42004FEAE2014FEAFB
:100A400031014FEA02701FBF12F07F4393F07F4FD6
:100A500081F06051704792F0000F14BF93F07F4F08
:100A6000704730B54FF4607401F0004521F000414B
:100A700020E700BF50EA010208BF704730B54FF0D1
:100A800000050AE050EA010208BF704730B511F0D6
:100A9000004502D5404261EB41014FF4806404F10E
:100AA00032045FEA915C3FF4DCAE4FF003025FEA90
:100AB000DC0C18BF03325FEADC0C18BF033202EB18
:100AC000DC02C2F1200300FA03FC20FA02F001FA72
:100AD00003FE40EA0E0021FA02F11444C1E600BF11
:100AE00070B54FF0FF0C4CF4E06C1CEA11541DBFC4
:100AF0001CEA135594EA0C0F95EA0C0F00F0DEF88F
:100B00002C4481EA030621EA4C5123EA4C5350EA73
:100B1000013518BF52EA033541F4801143F48013C4
:100B200038D0A0FB02CE4FF00005E1FB02E506F055
:100B30000042E0FB03E54FF00006E1FB03569CF0AA
:100B4000000F18BF4EF0010EA4F1FF04B6F5007FB0
:100B500064F5407404D25FEA4E0E6D4146EB060622
:100B600042EAC62141EA55514FEAC52040EA5E50AB
:100B70004FEACE2EB4F1FD0C88BFBCF5E06F1ED855
:100B8000BEF1004F08BF5FEA500E50F1000041EB8C
:100B9000045170BD06F0004646EA010140EA020039
:100BA00081EA0301B4EB5C04C2BFD4EB0C0541EA5B
:100BB000045170BD41F480114FF0000E013C00F370
:100BC000AB8014F1360FDEBF002001F0004170BD94
:100BD000C4F10004203C35DA0C341BDC04F11404AD
:100BE000C4F1200500FA05F320FA04F001FA05F239
:100BF00040EA020001F0004221F0004110EBD37006
:100C000021FA04F642EB06015EEA430E08BF20EA31
:100C1000D37070BDC4F10C04C4F1200500FA04F3D4
:100C200020FA05F001FA04F240EA020001F0004166
:100C300010EBD37041F100015EEA430E08BF20EAD9
:100C4000D37070BDC4F1200500FA05F24EEA020E21
:100C500020FA04F301FA05F243EA020321FA04F050
:100C600001F0004121FA04F220EA020000EBD37007
:100C70005EEA430E08BF20EAD37070BD94F0000F07
:100C80000FD101F00046400041EB010111F4801F3B
:100C900008BF013CF7D041EA060195F0000F18BFEC
:100CA000704703F00046520043EB030313F4801F28
:100CB00008BF013DF7D043EA0603704794EA0C0FE2
:100CC0000CEA135518BF95EA0C0F0CD050EA4106F8
:100CD00018BF52EA4306D1D181EA030101F0004175
:100CE0004FF0000070BD50EA410606BF104619469D
:100CF00052EA430619D094EA0C0F02D150EA0136A9
:100D000013D195EA0C0F05D152EA03361CBF1046E9
:100D100019460AD181EA030101F0004141F0FE4188
:100D200041F470014FF0000070BD41F0FE4141F40C
:100D3000780170BD70B54FF0FF0C4CF4E06C1CEA0C
:100D400011541DBF1CEA135594EA0C0F95EA0C0FC1
:100D500000F0A7F8A4EB050481EA030E52EA03357C
:100D60004FEA013100F088804FEA03334FF080559D
:100D700045EA131343EA12634FEA022245EA1115CA
:100D800045EA10654FEA00260EF000419D4208BF7B
:100D9000964244F1FD0404F5407402D25B084FEA28
:100DA0003202B61A65EB03055B084FEA32024FF4D4
:100DB00080104FF4002CB6EB020E75EB030E22BF31
:100DC000B61A754640EA0C005B084FEA3202B6EBF1
:100DD000020E75EB030E22BFB61A754640EA5C00A0
:100DE0005B084FEA3202B6EB020E75EB030E22BF30
:100DF000B61A754640EA9C005B084FEA3202B6EB31
:100E0000020E75EB030E22BFB61A754640EADC00EF
:100E100055EA060E18D04FEA051545EA16754FEA51
:100E200006164FEAC30343EA52734FEAC2025FEA6F
:100E30001C1CC0D111F4801F0BD141EA00014FF0FE
:100E400000004FF0004CB6E711F4801F04BF0143CF
:100E50000020B4F1FD0C88BFBCF5E06F3FF6AFAEEB
:100E6000B5EB030C04BFB6EB020C5FEA500C50F17B
:100E7000000041EB045170BD0EF0004E4EEA1131FE
:100E800014EB5C04C2BFD4EB0C0541EA045170BD05
:100E900041F480114FF0000E013C90E645EA060E49
:100EA0008DE60CEA135594EA0C0F08BF95EA0C0F77
:100EB0003FF43BAF94EA0C0F0AD150EA01347FF4BF
:100EC00034AF95EA0C0F7FF425AF104619462CE796
:100ED00095EA0C0F06D152EA03353FF4FDAE1046F9
:100EE000194622E750EA410618BF52EA43067FF44A
:100EF000C5AE50EA41047FF40DAF52EA43057FF4DA
:100F0000EBAE12E70000000000000000000000004F
:100F10004FF0FF3C06E000BF4FF0010C02E000BFC5
:100F20004FF0010C4DF804CD4FEA410C7FEA6C5CA8
:100F30004FEA430C18BF7FEA6C5C1BD001B050EA4B
:100F4000410C0CBF52EA430C91EA030F02BF90EA36
:100F5000020F0020704710F1000F91EA030F58BFF5
:100F6000994208BF90422CBFD8176FEAE37040F057
:100F7000010070474FEA410C7FEA6C5C02D150EAF5
:100F8000013C07D14FEA430C7FEA6C5CD6D152EAB0
:100F9000033CD3D05DF8040B704700BF8446104675
:100FA00062468C461946634600E000BF01B5FFF774
:100FB000B7FF002848BF10F1000F01BD4DF808ED44
:100FC000FFF7F4FF0CBF012000205DF808FB00BF15
:100FD0004DF808EDFFF7EAFF34BF012000205DF86F
:100FE00008FB00BF4DF808EDFFF7E0FF94BF0120BC
:100FF00000205DF808FB00BF4DF808EDFFF7CEFFBD
:1010000094BF012000205DF808FB00BF4DF808EDFB
:10101000FFF7C4FF34BF012000205DF808FB00BFCC
:101020004FEA4102B2F1E04324BFB3F5001CDCF10A
:10103000FE5C0DD901F0004C4FEAC0024CEA507042
:10104000B2F1004F40EB830008BF20F00100704771
:1010500011F0804F21D113F13872BCBF01F0004074
:10106000704741F480114FEA5252C2F11802C2F1A6
:10107000200C10FA0CF320FA02F018BF40F0010027
:101080004FEAC1234FEAD32303FA0CFC40EA0C00D9
:1010900023FA02F34FEA4303CCE77FEA625307D116
:1010A00050EA01331EBF4FF0FE4040F4400070474D
:1010B00001F0004040F0FE4040F40000704700BFE7
:1010C00040F60403C2F200031868704700000000F5
:1010D000032A2DE9F00F09D82AB10023CC5CC454AF
:1010E00001339342FAD1BDE8F00F70478307024401
:1010F0000ED0441C4D1C15F8017C04F00306234659
:1011000001342946013504F8027C002EF3D100E0B9
:10111000034611F003046DD0D71A0D1B032F2E6860
:1011200019DDC4F1040C4FEAC4081C1D4FEACC0CB5
:1011300055F8047FC4EB0209234604310434B9F1A5
:10114000030F26FA08FA07FA0CFB3E464BEA0A0799
:1011500044F8087CECDC9A42C5D9013301310132F4
:1011600011F8014C01330131934203F8024CF7D1DD
:10117000B9E70C684033403143F8404C51F83C4CDF
:1011800043F83C4C51F8384C43F8384C51F8344C47
:1011900043F8344C51F8304C43F8304C51F82C4C57
:1011A00043F82C4C51F8284C43F8284C51F8244C67
:1011B00043F8244C51F8204C43F8204C51F81C4C77
:1011C00043F81C4C51F8184C43F8184C51F8144C87
:1011D00043F8144C51F8104C43F8104C51F80C4C97
:1011E00043F80C4C51F8084C43F8084C51F8044CA7
:1011F00043F8044CD41A3F2CBBDC11E00C681033CC
:10120000103143F8104C51F80C4C43F80C4C51F889
:10121000084C43F8084C51F8044C43F8044CD41AD9
:101220000F2CEBDC032C96DD1C1D0D1D55F8047CEA
:10123000161B2346294604340435032E44F8087C43
:10124000F4DC88E70000000000000000000000005F
:10125000032AC9B270B408D82AB10346121803F899
:10126000011B9342FBD170BC70478307024409D035
:10127000441C04F00305234604F8011C0134002D2E
:10128000F7D100E00346D51A01EB01243F2D04EB12
:1012900004442CDD1C604033D51A43F83C4C3F2DF0
:1012A00043F8384C43F8344C43F8304C43F82C4C5A
:1012B00043F8284C43F8244C43F8204C43F81C4C8A
:1012C00043F8184C43F8144C43F8104C43F80C4CBA
:1012D00043F8084C43F8044CDCDC08E01C60103395
:1012E000D51A43F80C4C43F8084C43F8044C0F2D26
:1012F000F4DC032D08DD1D1D561B45F8044C032EA0
:101300002B4605F10405F7DC9A42ACD901330132D2
:1013100003F8011C01339342FAD1A4E70000000056
:1013200041EA00039B0710B414D10B68A3F101320A
:1013300022EA030212F0803F0CD10A1D40F8043B60
:10134000114652F8043BA3F1013424EA030414F0DB
:10135000803FF3D04A1E12F8013F00F8013B002BFA
:10136000F9D1013810BC70470000000000000000F7
:10137000830770B5064614D10368A3F1013222EA4F
:10138000030313F0803F0CD1031D1A4653F8044B9E
:10139000A4F1013525EA040414F0803FF5D010468D
:1013A00000E0304603782BB1431C18460133047823
:1013B000002CFAD100F004F8304670BD00000000A7
:1013C00080EA0102844612F0030F4FD111F0030F9F
:1013D00032D14DF8044D11F0040F51F8043B0BD0FD
:1013E000A3F101329A4312F0803F04BF4CF8043B52
:1013F00051F8043B16D100BF51F8044BA3F1013260
:101400009A4312F0803FA4F101320BD14CF8043B17
:10141000A24312F0803F04BF51F8043B4CF8044B48
:10142000EAD023460CF8013B13F0FF0F4FEA3323B9
:10143000F8D15DF8044B704711F0010F06D011F898
:10144000012B0CF8012B002A08BF704711F0020F86
:10145000BFD031F8022B12F0FF0F16BF2CF8022B71
:101460008CF8002012F47F4FB3D1704711F8012B94
:101470000CF8012B002AF9D1704700BF00000000D2
:1014800020F0030110F00300C0F1000051F8043B0C
:1014900000F1040C4FEACC0C6FF000021CBF22FAE2
:1014A0000CF213434FF0010C4CEA0C2C4CEA0C4CA0
:1014B000A3EB0C0222EA030212EACC1204BF51F899
:1014C000043B0430F4D013F0FF0F1FBF013013F4BE
:1014D0007F4F013013F47F0F18BF0130704700BFFA
:1014E00070B4002A45D041EA000313F0030329D168
:1014F000032A27D905680C68A54223D1141F3AD0C6
:10150000A5F1013222EA050515F0803F0DD03AE041
:101510005B686A68A3F10135934225EA03052ED181
:10152000043C28D015F0803F27D10D4603460431F6
:101530000430032CECD8661E2CB91C792A79A01A29
:1015400070BC7047561E04780A789442F7D1C6B131
:101550008CB101368B1C891904E08B4203F1010325
:101560000BD044B113F8012C10F8014F9442F4D081
:10157000E5E71046E4E72046E2E70020E0E7661EE4
:10158000E1E73046DCE71846DAE700BF000000007C
:10159000704700BFAFF30080AFF30080AFF300806F
:1015A000FEE700BFAFF30080AFF30080AFF3008031
:1015B00072B63E4880F309883D4B3E491A684FF0A9
:1015C000404442F470020C601A600023E1EE103ACD
:1015D000394A1360062383F31488BFF36F8F374AA9
:1015E000374B9A420BD2D143C91821F00301131F84
:1015F00089184FF0553243F8042F8B42FBD1314A02
:1016000082420CD23049131DC91A21F00301131F65
:1016100089184FF0553243F8042F8B42FBD10AF062
:1016200057F82A492A4B99420BD2C843C01820F0D8
:101630000300284C04300023E258CA50043383428C
:10164000FAD1254A254B9A420AD2D143C91821F032
:101650000301131F8918002243F8042F8B42FBD18A
:10166000FFF796FF1E4D1F4B9D420BD2EE43F6181F
:10167000B608043D0136002455F8043F013498476C
:10168000B442F9D1FEF784FD174D184B9D420BD2A1
:10169000EE43F618B608043D0136002455F8043F21
:1016A00001349847B442F9D1FFF77AFF00080020CF
:1016B00088ED00E034EF00E03CEF00E000000020A7
:1016C000000400200004002003080020000800207F
:1016D000F817002028F10008F81700205C09012005
:1016E00088010008880100088801000888010008B6
:1016F000FEE700BFAFF30080AFF30080AFF30080E0
:10170000F8B5094D094E07460FCD34460FC42B6876
:101710002370B9692046FFF753FE054930462E2253
:10172000BDE8F84000F0B4B940B70008F817002051
:1017300054B70008AFF30080AFF30080AFF3008030
:1017400072B6FEE7AFF30080AFF30080AFF3008026
:1017500000F096FA00F084FC00F072FA00DF00BF9F
:10176000EFF30982064BD2F8CC10596099686831C2
:101770009960683282F30988002383F311887047E7
:1017800030EF00E0AFF30080AFF30080AFF30080F4
:1017900008B50A4B00229A60094A07201021DA6036
:1017A00000F0DEF80A204FF4007100F0D9F80B20A9
:1017B0008021BDE8084000F0D3B800BF00ED00E094
:1017C0000003FA05AFF30080AFF30080AFF30080B1
:1017D000202383F311881A4B5B6813F4006322D033
:1017E000EFF30983A3F1680282F3098815494FF0EA
:1017F00080708A6943F84C0C92F82300096892685B
:10180000896898B1914294BF00220122A2B10E4A88
:1018100043F8502CF1EE10FA0C4A516841F00100E7
:1018200059665060704783F311887047914234BF06
:1018300000220122002AEAD1054A43F8502CEBE7A6
:1018400000ED00E07C1A00205117000830EF00E0A6
:101850005C170008AFF30080AFF30080AFF30080A7
:1018600008B500F095F9202383F3118800F0D0F932
:1018700000F0D6F800F0ACF9002383F3118800F0F3
:1018800067F9BDE80840FFF7A3BF00BFAFF30080D2
:101890002DE9F04F2DED108AC1F80CD0D0F80CD006
:1018A000BDEC108ABDE8F08FAFF30080AFF300808D
:1018B00008B500F0C5F9002383F311882846A04736
:1018C00000F0EEFC08BD00BFAFF30080AFF3008076
:1018D000F0B484080F4BC03400F0030553F82470B3
:1018E000ED00FF26420906FA05F627EA060601FA88
:1018F00005F500F01F0002F16007012101FA00F078
:101900002E4343F8246043F8270043F82200F0BC3C
:10191000704700BF00E100E0AFF30080AFF300804C
:10192000410910B40C4B00F01F022031012404FACD
:1019300002F4820843F82140C03200F0030053F85B
:101940002210C000FF2404FA00F021EA000043F84E
:10195000220010BC704700BF00E100E0AFF3008040
:1019600082080A4B063200F0030030B4C00053F87E
:101970002250FF2404FA00F425EA040401FA00F1DD
:101980000C4343F8224030BC704700BF00ED00E03C
:10199000024B034A9B699A61FEE700BF7C1A002054
:1019A0000CE70008AFF30080AFF30080AFF30080D6
:1019B00030B583B0FFF7ECFE00F002FA00F090F9CA
:1019C00001F0D6F801F01CF940210E480E4C00F051
:1019D00057FB0E4BA0610125C36180F8205000F039
:1019E00067F9002383F3118862B60949A26909489F
:1019F000916100934FF4A4712A46074B00F0C8FB95
:101A000003B030BDC01800207C1A00200004002064
:101A100020BA00081019002091190008AFF30080C7
:101A2000F8B500F07DF8164B9B6993F8232012B1AE
:101A3000013A83F823205A6A124D01325A62EB6848
:101A40002C680133AC42EB6018D0A768013FA76057
:101A5000A7B92368E6685D60E7602B6000F0B8F81E
:101A6000002383F311882069B047202383F3118872
:101A700000F0CEF82C68A368002BEAD0F8BD00BFB8
:101A80007C1A00206C1A0020AFF30080AFF30080B6
:101A900070B506460D46144602F012F800B170BD4E
:101AA00002F006F80B4A0C4B15600C4A1B681460D8
:101AB0000B4A1660002BF2D131462A4623460948CC
:101AC00002F086FC084800F083FBBDE87040FFF799
:101AD00037BE00BF581A002058090120601A0020A4
:101AE000681A002080B70008A0860100AFF30080CC
:101AF000064B1B6823B9064B1B68002B00DD7047A3
:101B000004480549D322FFF7C3BF00BF5C1A002079
:101B1000641A002094B700089CB70008AFF3008057
:101B2000064B1B68002B04DB054B1B68002B00DDFC
:101B3000704704480449C522FFF7AABF5C1A002079
:101B4000641A0020BCB700089CB70008AFF30080FF
:101B500010B5202383F31188094C2368002B02DD84
:101B6000084A12682AB108480849B522FFF790FFD1
:101B70002368013B2360002383F3118810BD00BF5D
:101B80005C1A0020641A0020E0B700089CB7000827
:101B900010B5202383F31188094C2368002B02DB46
:101BA000084A12682AB108480849A722FFF770FFBF
:101BB000236801332360002383F3118810BD00BF25
:101BC0005C1A0020641A0020E8B700089CB70008DF
:101BD000084B1B68002B10B5074C05DD2368002B54
:101BE00002DD0023236010BD044805499A22FFF757
:101BF0004FFFF6E75C1A0020641A0020F0B70008D7
:101C00009CB70008AFF30080AFF30080AFF3008013
:101C1000074B1B68002B10B5064C01DD236823B170
:101C2000054806498E22FFF733FF0123236010BDCC
:101C30005C1A0020641A0020F8B700089CB700085E
:101C4000084B1B6810B5084C2BB92368002B02DD2C
:101C50000023236010BD054805498222FFF718FFC5
:101C6000F6E700BF5C1A0020641A002010B80008D4
:101C70009CB70008AFF30080AFF30080AFF30080A3
:101C8000074B1B6810B5074C0BB9236823B10648F6
:101C900006497622FFF7FCFE0123236010BD00BF3A
:101CA0005C1A0020641A002018B800089CB70008CD
:101CB000054B1B6813B9054B1B6823B10448054944
:101CC0006B22FFF7E5BE70475C1A0020641A002003
:101CD00034B800089CB70008AFF30080AFF3008071
:101CE000044B4FF0FF329A6000225B601B60DA60A9
:101CF000704700BF6C1A0020AFF30080AFF3008084
:101D0000F8B505460C4616461F46FFF709FFCDB14C
:101D1000C6B1BCB10E492F610B68EE609A6894425F
:101D200004D91B68A41A9A68A242FAD35A682B6095
:101D30008B426A6015605D60AC6002D09A68141BCB
:101D40009C60F8BD034804495122FFF7A1FEE1E77A
:101D50006C1A002050B8000860B80008AFF300808B
:101D600010B50446FFF7DCFE84B1E368A3B1236835
:101D70000C4A934203D09968A2688A189A606268F4
:101D8000136023685A600023E36010BD06480749CA
:101D90006D22FFF77DFEE8E7054804497022FFF752
:101DA00077FEE4E76C1A002080B8000860B80008ED
:101DB00090B80008AFF30080AFF30080AFF300806D
:101DC000034B00225B601B609A605B611B61704784
:101DD0007C1A0020AFF30080AFF30080AFF30080E7
:101DE00010B50446FFF79CFE94F820308BB10E2B03
:101DF0000FD00022A1680A4B84F820201B689A6843
:101E00008A42FBD25A682360626014605C6020469C
:101E100010BD044804495A22FFF73AFEE9E700BF23
:101E20007C1A0020B0B80008C4B80008AFF30080E6
:101E300010B52023044683F31188FFF7E9FE94F8D8
:101E400020300D2B11D8DFE803F016101007100B0F
:101E5000101010101010100BA36A9A6801329A60CB
:101E600094E80C001A60226853604FF0FF33A362BD
:101E70002046FFF7B5FFFFF7ABFE002383F3118881
:101E800010BD00BFAFF30080AFF30080AFF3008060
:101E900070B5104C0646FFF72BFEA5692368E9696B
:101EA0001A6885F82060ADF1640054601426226041
:101EB0000122814285F82360A36183F8202003D9A1
:101EC0002846FFF71DFCA36918462946BDE8704067
:101ED000FFF7DEBC7C1A0020AFF30080AFF3008078
:101EE00070B50C4686B00646FFF702FE631C12D0A2
:101EF0000B4D0C4AAB69214601A8FFF701FF3046A4
:101F0000FFF7C6FF049B13B101A8FFF729FFAB69D8
:101F1000986A06B070BD3046FFF7BAFF004DF6E78D
:101F20007C1A0020311E0008AFF30080AFF3008060
:101F300070B5124D04460E46FFF7DAFDA869A26897
:101F40008368A6629A4211D9FFF74AFFC369AC6160
:101F5000ADF1640201219342064684F820100AD8AC
:101F600020463146BDE87040FFF792BC2046BDE8F0
:101F70007040FFF735BFFFF7C3FBF1E77C1A002085
:101F800038B50F4C2368A5691A68012183F8201021
:101F90001421546085F8231028462260A361FFF7BE
:101FA0001FFFEB69ADF16402934202D92846FFF7A7
:101FB000A7FBA0692946BDE83840FFF769BC00BF10
:101FC0007C1A0020AFF30080AFF30080AFF30080F5
:101FD00070B5134E3068B5690368AC685E60012265
:101FE0003360002380F82020B06185F8203003465C
:101FF00000E01B689A68A242FBD8E9695A682B6026
:10200000ADF16404A1426A6015605D6003D92846A1
:10201000FFF776FBB0692946BDE87040FFF738BC92
:102020007C1A0020AFF30080AFF30080AFF3008094
:1020300008B5FFF75DFD064B1A689B6992689B68BF
:102040009A4200D808BDBDE80840FFF7C1BF00BFF5
:102050007C1A0020AFF30080AFF30080AFF3008064
:10206000044B9B6993F823300BB1FFF7B1BFFFF727
:1020700087BF00BF7C1A0020AFF30080AFF3008061
:102080002DE9F001134C416465690461002200F1FF
:102090003006816000F12C0C00F14C0745614FF0D7
:1020A000020860610121142480F8208080F821203A
:1020B00080F823400264C263426280F82210826189
:1020C0002861C0F82CC046630663C761BDE8F00113
:1020D000704700BF7C1A0020AFF30080AFF3008090
:1020E0002DE9F04704460D4617469846FFF718FDC0
:1020F00014B1B5F59C7F38D21F482049A622FFF7BE
:10210000C7FCA5F1640161181D4E089BD6F814C0E8
:10211000E1604B641B4BC1F840800B66022384F8DE
:1021200020301423002504F1300204F12C0A04F1BC
:102130004C0984F8233001232661A760C4F814C039
:102140002046746184F8215067642564E563656204
:1021500084F82230A561CCF81040C4F82CA062634A
:102160002263C4F81C90BDE8F0877F2FC4D8B8F173
:10217000000FC6D1C0E700BFF0B8000804B90008DE
:102180007C1A0020B1180008AFF30080AFF3008084
:10219000F0B51C4683B005460E461746202383F350
:1021A0001188FFF76DFD2346089C3A46314600949E
:1021B0002846FFF795FF00210446FFF7B9FEFFF719
:1021C0003FFD002383F31188204603B0F0BD00BF1C
:1021D00010B5044628B90A480A494FF49372FFF72C
:1021E00057FC202383F31188FFF74AFD2146062080
:1021F000FFF776FEFFF724FD002383F3118810BD5F
:1022000054B9000804B90008AFF30080AFF30080B0
:1022100010B52023044683F31188FFF731FD064BE8
:10222000D968611A02D00620FFF75AFEFFF708FDB1
:10223000002383F3118810BD6C1A0020AFF30080D7
:1022400038B5114B9C692546A06255F82C0FA84261
:1022500006D00368E362FFF7C3FDE06AA842F8D145
:1022600094F821309B0704D1636922691A612269BD
:1022700053610E20FFF70CFE0448054940F281121D
:10228000BDE83840FFF704BC7C1A002064B90008A0
:1022900004B90008AFF30080AFF30080AFF3008013
:1022A00010B52023044683F31188FFF7E9FC20468C
:1022B000BDE81040FFF7C4BFAFF30080AFF300806C
:1022C00038B50446202383F31188FFF7D9FC94F82E
:1022D0002230002B21D0013BDDB284F82250FFF7E1
:1022E000AFFC002383F311881DB994F820300E2B26
:1022F00000D038BD94F8213003F00303012B14D033
:10230000022BF6D163692269A06C1A612269214609
:102310005361BDE8384000F0FBBC094809494E2232
:10232000FFF7B6FB94F82230D5E7636922691A619A
:10233000226920465361BDE8384000F071BC00BFFF
:10234000E8B90008C4B90008AFF30080AFF300801B
:1023500010B5202383F31188FFF792FC064B1C690C
:1023600094F82230013384F82230FFF769FC00230F
:1023700083F31188204610BD7C1A0020AFF3008043
:1023800038B50546202383F31188FFF779FC2C69C3
:102390000E4B9C4218D094F82230FF2B0CD0013306
:1023A00084F82230FFF74CFC002383F31188284681
:1023B000FFF786FF204638BD054806499622FFF7FD
:1023C00067FB94F82230EAE70024EBE77C1A002050
:1023D00040BA000858BA0008AFF30080AFF300809D
:1023E00038B504460D4628B1002903DB646024603B
:1023F000A56038BD024803495822FFF749FBF5E7BD
:1024000080BA000890BA0008AFF30080AFF30080F4
:1024100038B50446FFF76CFB002C25D0A368226872
:10242000002B0DDBA24205D012481349C022FFF752
:102430002FFBA368013B002BA36007DB002038BD06
:10244000A242F1D0013B002BA360F7DA0B4DAB6940
:102450009C6262681C605A60032063601360FFF72F
:1024600017FDAB69986A38BD05480349BC22FFF7E0
:102470000FFBD3E7E4BA000890BA00087C1A0020EA
:10248000D4BA0008AFF30080AFF30080AFF3008050
:1024900010B52023044683F31188FFF7F1FB204693
:1024A000FFF7B6FF0446FFF7CBFB002383F3118849
:1024B000204610BDAFF30080AFF30080AFF3008083
:1024C00010B50446FFF72CFB002C22D0A36822682D
:1024D000002B0DDBA24206D0114812494FF49B722B
:1024E000FFF7D6FAA3680133002BA36006DD10BD09
:1024F000A242F1D00133002BA360F8DC23681A68F4
:1025000018462260546000229A62BDE81040FFF72E
:1025100067BC054803494FF49972FFF7B9FAD5E74C
:1025200060BB000890BA00084CBB0008AFF3008005
:1025300010B5044620B1002364602460A36010BD80
:10254000024803495822FFF7A3FAF4E7F0BB00085A
:1025500000BC0008AFF30080AFF30080AFF3008051
:10256000F8B53E4B05469C69FFF7C2FA002D6FD0C7
:10257000A86800283AD0A2688368934208D290F8ED
:1025800020308260042B49D0052B34D0002B22D080
:102590002B461B689D4203D09968A2689142F8D2ED
:1025A0005A682360626004205C601460A562FFF7D3
:1025B0006FFCAB68A34204D029482A49B222FFF736
:1025C00067FA236CAB4215D027482649B322BDE8F1
:1025D000F840FFF75DBA90E80C001A60026801212C
:1025E00080F820105360FFF7FBFBD1E7236CAC6051
:1025F000EB602564F8BD41680368866A0B60076874
:10260000334679601B689E4202D099689142F9D2A4
:102610005A680360426010605860B9E74168036817
:10262000866A0B600768334679601B689E420DD04E
:1026300099689142F9D25A6803604260106058600C
:10264000B068A2688368934299D3A1E73346F2E762
:10265000064804497D22FFF71BFA89E77C1A00200F
:1026600030BC000800BC000844BC000820BC0008C6
:1026700010B52023044683F31188FFF701FB2046A1
:10268000FFF76EFFFFF7DCFA002383F3118810BD1C
:10269000214A70B52023956983F31188FFF7F0FA7A
:1026A0002C6C002C30D0A368AB4206D01B481C49D0
:1026B00040F20B12FFF7ECF92C6C2668E368A64297
:1026C0002B641ED0696C4BB11A689A4203D0926891
:1026D000914238BF1146DB68002BF5D13368326C6C
:1026E000A9603046236000215C60A660E26034642B
:1026F000FFF71EFCFFF7A4FA002383F3118820469E
:1027000070BD0023A360F5E7064805494FF48472C5
:10271000FFF7BEF92C6CC6E77C1A002080BC0008CD
:1027200000BC00086CBC0008AFF30080AFF3008071
:1027300038B504460D46FFF7F3F9C4B1E26B94F8DF
:10274000203045EA0201082BE1630CD0092B00D0B0
:1027500038BDA36A19408B42FAD12046FFF740FBEF
:102760000023836238BDA36A1942F6D138BD0348FD
:102770000349FE22FFF78CF9E0E700BF10BD000817
:10278000D8BC0008AFF30080AFF30080AFF3008047
:1027900070B505460E46FFF7C3F965B12C68A54232
:1027A00008D0201D0BC83343E360FFF7C1FF246846
:1027B000A542F6D170BD03480349BC22FFF768F972
:1027C000ECE700BF34BD0008D8BC0008AFF30080C0
:1027D00010B4024659B1084B9B69986244680D20B9
:1027E00083E814005360236010BCFFF779BB4FF0FF
:1027F000FF3010BC704700BF7C1A0020AFF3008090
:1028000010B4C361019B40608A180024006084609A
:1028100041618161C1600261036210BC704700BF09
:1028200038B50446FFF77CF9E36820686361A3616B
:102830000023A042A3600AD06FF001050368236063
:102840005C60FFF7CDFA85622068A042F6D138BD02
:1028500038B504460D46FFF763F9A26963699342F0
:10286000A2681AD00132A26003F8015B2269636199
:1028700093420BD22068A0420DD0036823605C60B5
:10288000FFF7AEFA00238362184638BD2068E3687C
:10289000A0426361F1D1002038BD002AE2D06FF080
:1028A000030038BDAFF30080AFF30080AFF30080CA
:1028B000F8B504460E46202383F31188FFF7E0F9AC
:1028C000E3690BB120469847A5682046314655B9C3
:1028D000FFF77EFF071EF7DAFFF7B2F92B4683F307
:1028E00011883846F8BDA3692269013DA56013F837
:1028F000017B9342A36124BFE368A361FFF7A0F9C2
:10290000002383F311883846F8BD00BFAFF3008081
:102910002DE9F0470446154688461E46C769002A39
:102920003AD0202383F31188FFF7AAF908F1010AAE
:102930004FF00009A8440FB12046B847A5682046CB
:1029400031465DB9FFF744FF0028F7D0FFF778F96B
:102950002B4683F311884846BDE8F087A369013D03
:10296000A56013F8012B0AF8012C2269A361934298
:1029700024BFE368A361FFF763F9002383F31188A1
:10298000C24509F10109E6D0202383F31188FFF73E
:1029900077F90AF1010ACEE702480349E722FFF777
:1029A00077F8BEE780BD000894BD0008AFF3008053
:1029B00010B4C361019B40608C180060826041616B
:1029C0008161C1600461036210BC7047AFF3008095
:1029D00038B50446FFF7A4F8E3682269206863610C
:1029E000D21AA042A361A2600AD06FF00105036869
:1029F00023605C60FFF7F4F985622068A042F6D19D
:102A000038BD00BFAFF30080AFF30080AFF30080AC
:102A10002DE9F041202304468846164683F31188A9
:102A2000FFF72EF9A568204631465DB9FFF7D0FEC5
:102A3000071EF7DAFFF704F92B4683F311883846AF
:102A4000BDE8F0816369013DA56003F8018B22694F
:102A50006361934224BFE3686361E3690BB120467D
:102A60009847FFF7EDF8002383F311881F46384697
:102A7000BDE8F081AFF30080AFF30080AFF30080DA
:102A800038B50446FFF74CF86269A3699A42A26818
:102A900016D00132A26013F8015B2269A361934250
:102AA0000BD22068A04206D0036823605C60FFF769
:102AB00097F900238362284638BDE368A361F0E7F5
:102AC000002AE6D06FF0020038BD00BFAFF30080EF
:102AD0002DE9F0470446164688469A46D0F81C90E1
:102AE000002A39D0202383F31188FFF7C9F8002783
:102AF000A56820466B1E0DB3A36018F8013B6569FD
:102B000005F8013B236965619D4224BFE368636169
:102B1000B9F1000F00D0C847FFF792F8002383F304
:102B200011880137013E14D0202383F31188FFF769
:102B3000A7F8A56820466B1E002DDDD12046514622
:102B4000FFF746FE0028D3D0FFF77AF82B4683F331
:102B500011883846BDE8F0870348044940F29B12CB
:102B6000FEF796FFBEE700BFB8BD000894BD0008A1
:102B7000054A064B22F007021A60054A054B22F06F
:102B800007021A60704700BF831700109C1A0020CC
:102B900000C00120981A0020AFF30080AFF300803E
:102BA00010B50446FEF7BCFF074A084913680968D8
:102BB000E01D20F00700C91A88429ABF181810605B
:102BC0000023184610BD00BF9C1A0020981A002050
:102BD00010B52023044683F31188FFF751F82046EF
:102BE000FFF7DEFF0446FFF72BF8002383F311887D
:102BF000204610BDAFF30080AFF30080AFF300803C
:102C0000044B0549002203F1100019609A60DA6054
:102C1000FFF78EBCA01A0020D12B0008AFF3008074
:102C2000F8B5074600284DD057F8086C06F110009B
:102C3000FFF71EFD0836A7F108053446AC4204D85C
:102C400063680833E3189D421FD3B442236801D060
:102C5000AC4202D21BB19D4201D31C46EEE757F8AD
:102C6000042C47F8083C256002F1080357F8080CCB
:102C7000E91881420FD0636803F10802A218954257
:102C800017D0BDE8F840FFF703BD11481149D02225
:102C9000FEF7FEFED9E74968EB585218083247F8AC
:102CA000042C47F8083C636803F10802A218954217
:102CB000E7D157F8041C57F8082C5B18083384E850
:102CC0000C00DEE704480349C622FEF7E1FEABE74D
:102CD00010BE0008E0BD000800BE0008AFF3008091
:102CE00038B504460D46FEF71BFF24B11DB123681D
:102CF0002B60256038BD034803499922FEF7C8FEC2
:102D0000F5E700BF78BE000840BE0008AFF30080C2
:102D100038B505460C46202383F31188FEF7B0FF33
:102D200028462146FFF7DCFFFEF78AFF002383F3E6
:102D3000118838BDAFF30080AFF30080AFF300809F
:102D40000368052B70B504460D46164608D0991D3C
:102D500004EB8302013344F821602360556070BDA9
:102D6000034804490D2200F043FA2368EFE700BF4F
:102D7000A0BE0008B4BE0008AFF30080AFF300802F
:102D80000368002B70B5064609DD041F00250434D6
:102D90006368A069984733680135AB42F7DC70BDC2
:102DA0000368002B2DE9F04106460F4690460ADDE8
:102DB000051F0024043538466B6841469847336840
:102DC0000134A342F6DCBDE8F08100BFAFF3008020
:102DD000002910B41DDD02464418002012F8011B22
:102DE0000823484004E0013B13F0FF03C0B20CD0BD
:102DF00010F0800F4FEA4000F5D080F02700013B33
:102E0000C04313F0FF03C0B2F2D1A242E6D110BC1E
:102E100070470020FBE700BFAFF30080AFF30080F6
:102E200010B5044605F00CF838B906F049F901462A
:102E30002046BDE8104005F0FBBE05F0A9FA50B1F0
:102E400007EE900AB8EEE77AF2EE047AC7EE277A38
:102E500017EE900A10BD062003F012FF07EE900A4D
:102E6000B8EEE77AF0EE087A27EE277ADFED0A7AF5
:102E7000C7EE277A094977EEA77A17EE900A06F08F
:102E8000F7F907EE900AFDEEE77A17EE900ABDE833
:102E9000104006F095B800BF00F07F450080BB44AD
:102EA000F0B5204D2E4607460FCEA5B010AC0FC48E
:102EB0000FCE0FC496E803001B4E06961B4E0796D6
:102EC0004FF07A5608961A4E09964FF07C560A969D
:102ED000184E283584E803000B960FCD164E0C963D
:102EE0004FF07D560D96154E1AAC0E960FC40FCDB1
:102EF0000FC495E8030006AB84E8030000930223A7
:102F0000019304AB029310AB4FF07E5604931AACBE
:102F10000B480F96394600220A23059404F078FDE9
:102F200025B0F0BDF0B600089D80C63D7B142E3E56
:102F300027A0B13E14D0183F1F852B3F14D0583F17
:102F4000D0BE0008AFF30080AFF30080AFF3008085
:102F50000222C260032201230262042283614260D2
:102F6000C362436303648364704700BFAFF30080B0
:102F7000024B034A5A60034A9A607047DCA600205D
:102F80009A99193F295C8740AFF30080AFF3008026
:102F900070B51148114E84B001F01AFAFFF7D8F954
:102FA000044694F82220A368616A0D48013A009211
:102FB00094F82020029156F822200192A56921461A
:102FC0000022039501F004FA2046FFF7D9F90446E0
:102FD0000028E6D104B070BD20BF0008E0BE0008A4
:102FE00050BF0008AFF30080AFF30080AFF3008064
:102FF000024803492B22FEF74BBD00BF78BF0008F3
:1030000088BF0008AFF30080AFF30080AFF300800B
:1030100010B5444C444801F0DBF9444A4449204689
:1030200001F0A6F84349444801F0D2F9434801F0C1
:10303000CFF94349434801F0CBF920464249434A7E
:1030400001F096F8204642494FF4E13201F090F841
:1030500020464049404A01F08BF820463F49404A0B
:1030600001F086F820463F493F4A01F081F82046AA
:1030700001223E4901F07CF8204601223C4901F042
:1030800077F8204601223B4901F072F801222046E0
:10309000394901F06DF8204601F00AF82046374919
:1030A00000F0DEFE2046364900F0DAFE20463549C3
:1030B00000F0D6FE204601F04BF8204601223249AE
:1030C00001F056F820460122304901F051F820461F
:1030D00001222F4901F04CF8204600222D4901F031
:1030E00047F820462C49012201F042F801222046EF
:1030F0002A4901F03DF820460422294901F038F818
:10310000204628494FF4C87201F032F8204626497B
:10311000012201F02DF84FF4FA70BDE81040FFF7DE
:1031200057B800BF881B0020A0BF0008312D330115
:10313000E8BF000818C00008F8BF000820C0000859
:103140005CC000084CC0000864C00008A0860100F4
:1031500074C0000884C00008406F400194C000089B
:1031600000BD0105A4C00008007A030AB4C000082D
:10317000CCC00008DCC00008F8C0000814C100087A
:1031800018C100081CC1000828C100083CC1000883
:1031900050C100086CC1000888C10008A4C1000823
:1031A000B8C10008D0C10008E8C10008AFF3008032
:1031B00008B5034B1A68C1B292681846904708BD1B
:1031C000FC2F0020AFF30080AFF30080AFF300804E
:1031D00038B5044B1C6805460A462468184629463B
:1031E000A04738BDFC2F0020AFF30080AFF3008074
:1031F00070B5084B06460C4682B031461846154657
:10320000FEF7DEF821462A4602B0BDE87040FEF720
:103210003FBC00BFC01A0020AFF30080AFF30080B6
:1032200008B501F045FC0E4800F092F80D480E4933
:1032300000F12C02C82300F073FFFFF7E9FE0B48F2
:103240000B4901F075FB0B480B4901F071FB0B4872
:103250000B4901F06DFBBDE8084001F071BB00BFF8
:10326000D14A0008881B00200CC2000814C20008C4
:10327000113000081CC20008F12F000824C2000809
:10328000912F0008AFF30080AFF30080AFF3008010
:103290002DE9F843264BDFF8A4809B69254A264E8A
:1032A000DFF89C909A61454608F14E0700F098F9C6
:1032B000D0B133682048DB689847044600B2002844
:1032C00025DB042823D0082813D00D2822D01F285E
:1032D000ECDDBD42EAD2E0B2FFF76AFF05F8014B30
:1032E00000F07EF90028E4D14FF47A70FEF770FF09
:1032F000DCE74545DAD0E4B22046FFF759FF20204D
:10330000FFF756FF2046FFF753FF013DCEE70020B1
:10331000BDE8F883FFF74CFF0A20FFF749FF0023C1
:1033200006482B70D9F8003005469847BEE700BF25
:103330007C1A0020B0C20008FC2F0020F8080020F2
:10334000C0210020AFF30080AFF30080AFF3008016
:1033500000B5084B83B0186000F002F90023009319
:103360004FF4A761044B05484022FEF711FF03B05C
:1033700000BD00BFC021002091320008881C002041
:1033800008B501F07DFD202383F3118818B9BDE84D
:103390000840FEF775BCBDE80840FEF739BC00BF29
:1033A00010B501F06DFD044628B9FEF749FC23462F
:1033B00083F3118810BDFEF70BFC002383F3118803
:1033C00010BD00BFAFF30080AFF30080AFF300800B
:1033D00008B5064B06481A6801321A6000F098F9E1
:1033E00004480D21BDE8084000F082B9E82F002014
:1033F000C0C20008D8C20008AFF30080AFF300805D
:10340000034B04485A68202101325A6000F070B919
:10341000E82F0020C82F0020AFF30080AFF300801A
:1034200008B5074B07489A6801329A6000F070F9B6
:10343000054840F60461BDE8084000F059B900BFF6
:10344000E82F0020E8C20008C4210020AFF300806C
:1034500008B5044800F05CF903480721BDE80840BE
:1034600000F046B9FCC200080CC30008AFF30080AE
:10347000482808B515D04F2817D0572819D042280A
:103480001BD043281DD0742807D0542805D00F4BDB
:103490001A6901321A61002008BDFFF7D9FF012027
:1034A00008BDFFF795FF012008BDFFF7A9FF012028
:1034B00008BD00F03DF9012008BD00F071F90120C0
:1034C00008BDFFF7ADFF012008BD00BFE82F0020B9
:1034D000022906D0032906D00748012918BF002079
:1034E000704706487047032A03D8054800EBC2001E
:1034F00070470020704700BFD0C40008A0C3000878
:10350000A0C40008AFF30080AFF30080AFF30080E9
:10351000022938B50C46054616D1202383F31188BD
:10352000FEF776FB28460121084A02F0B9FA214647
:10353000074A284602F0B4FA064802F079F8FEF786
:1035400047FB002383F3118838BD00BF20C3000868
:10355000B0C30008FC2F0020AFF30080AFF3008061
:1035600070B5174E174C184D304602F001F8214641
:10357000304602F025F824681448236D9A6B22F433
:1035800000229A63FEF724FE2046114902F050FA09
:10359000236D10489A6B42F400229A63002101F0D7
:1035A000C7FE0421284640F2823206F0A1FC2846DC
:1035B000082140F28232BDE8704006F099BC00BF9D
:1035C000FC2F0020C0C4000800000240A0860100BB
:1035D000E0C3000868080120AFF30080AFF300806B
:1035E000044BD3F854321B681878021F50425041E4
:1035F000704700BFFC2F0020AFF30080AFF30080C6
:103600000D4B0E4A9B6970B50D4E0E4D9A6102E04E
:103610002B6801332B6033680948DB68984704B294
:103620002046FFF725FF0028F2D121460648224612
:1036300000F0CEFEECE700BF7C1A0020E0C40008DA
:10364000E0080120C8350020F4C40008AFF3008072
:1036500038B51A4D1A4C284603F0EAFC09220146F7
:10366000184800F0B5FE284603F0E2FC08220146A7
:10367000154800F0ADFE154B22691968144800F09A
:10368000A7FE2168134800F0A3FE616812482022BB
:1036900000F09EFEA168114840F6046200F098FE1A
:1036A000E1680F4840F6046200F092FE0D4B0E48B0
:1036B0001968BDE8384000F08BBE00BF000C024026
:1036C000E82F002014C5000824C50008C8350020D4
:1036D00034C500085CC5000878C500089CC5000812
:1036E000C0C5000888320020E4C50008AFF30080A0
:1036F00038B5044B1C6805460A4624681846294616
:10370000A04738BDE0080120AFF30080AFF3008090
:1037100008B50146034800F05BFEBDE80840FFF72E
:1037200097BF00BFE0D40008AFF30080AFF3008084
:10373000114B12481A6810B501321A60FFF7E8FF02
:103740000F48104C032100F043FE0F48036803228A
:103750005B682146984701460C4800F039FEB4F9F1
:103760000010A2780A4800F033FE0A4AA178B4F9A2
:1037700000301268D15410BD8832002000C6000805
:1037800010C6000884320020E008012020C600088E
:103790002CC6000848090020AFF30080AFF300807A
:1037A00008B5094B0948DA680132DA60FFF7B0FF63
:1037B000074B0849186840F60462FDF789FCBDE82C
:1037C000084004F00DBF00BFE82F002044C60008E9
:1037D000340B0020C4210020AFF30080AFF3008041
:1037E000034B0448196840F60462FDF771BC00BF42
:1037F000340B0020C4210020AFF30080AFF3008021
:1038000010B517481749184C82B000F12C02C82394
:1038100000F086FC154800F0DBFD21460922144823
:1038200040F2823303F00CFD082240F2823321463D
:10383000104803F005FD1048104901F079FDFFF72D
:10384000CFFF0F480F4901F073F8002300934FF4A6
:103850004E710D4B0D484022FEF79AFC02B010BD90
:10386000CC35002054C60008000C024064C6000895
:103870007CC600088CC60008E00801204C09002026
:103880009CC600085136000801360008903200201E
:1038900010B52DED028B04F0A3FF1D4C2060062017
:1038A00003F0EEF907EE100AF8EEC77AF0EE088A98
:1038B00067EEA87A9FED178AC7EE887A164977EEE9
:1038C000A77A17EE900A05F0D3FC60600E2003F093
:1038D000D7F907EE100AF8EEC77A104967EEA88A02
:1038E000C8EE887A77EEA77A17EE900A05F0C0FC4A
:1038F000A06005F09DFBE06005F0E2FB206105F0B3
:1039000017FC606105F054FCE061BDEC028B10BD5A
:10391000C82F002000F07F450080BB4400C0284530
:10392000014B01221A607047C4390020AFF30080B8
:10393000F0B507EE101A2DED048BF8EEC77ADFED27
:10394000408A87EEA88A85B00646F0EE089A18EEFF
:10395000101A05F03DF905460E2003F091F907EE27
:10396000100AF8EEC77A9FED379A67EEA97A3649C2
:10397000C7EE897A77EEA77A17EE900A05F078FC01
:1039800005F0E6F80446062003F07AF907EE100A7F
:10399000F8EEC77A2D4967EEA99AC9EE897A77EED3
:1039A000A77A17EE900A05F063FC05F0B9F8074610
:1039B00005F0FEFB05F0E4F809EE100A2846FDF7D5
:1039C0003BF802460B46224800F002FD2046FDF778
:1039D00033F829EE289A044638460D46FDF72CF8B0
:1039E000BDEEC99A22462B46CDE900018DED029A23
:1039F000184800F0EDFC18EE101A304605F018F9E2
:103A000007EE900A18EE100A67EEA88AFDF714F880
:103A1000FDEEE88A02460B46CDED008A31460E489F
:103A200000F0D6FC18EE907A0C480D4918EE902A5A
:103A300005B0BDEC048BBDE8F04000F0E9BB00BF71
:103A40000000C84200F07F4500C028450080BB440C
:103A5000A0C60008B0C60008E4C60008C4380020AC
:103A600004C70008AFF30080AFF30080AFF300801D
:103A7000084B094910B5002818BF194604460748E5
:103A800000F0A6FC06480749224600F071FB064BF1
:103A90001C6010BD1CC7000820C7000824C7000810
:103AA000C839002040C70008CC360020AFF30080A2
:103AB0000320012103F004BCAFF30080AFF30080CA
:103AC000024B1868003018BF01207047681A0020A8
:103AD000F8B52DED028BFFF783FD10B9BDEC028B1D
:103AE000F8BD654C23687BB10320012103F0E8FB9E
:103AF000624B63481A68634B21681B6800F068FCDE
:103B00006148FEF765FBFEE700F092FB03F0B8F9B1
:103B10005E4B1B68002BE1D05D4F5E4BFD685E4E37
:103B20006D09A3FB052503F0B3F93368ED09834262
:103B300004465A4B02D11A68AA42CFD01D60FF68D2
:103B400004F04EFE564B57493460A3FB07277F090C
:103B500006EE907ADFED547AB8EEE67A0323C7EEEC
:103B6000276A05465148F0EE088A16EE902A00F0C2
:103B70005FFA22464D484E4900F012FA2A464D4956
:103B80004A4800F00DFA04F01BFA4B490246474838
:103B900000F006FA05F094FA0146284605F048F8C8
:103BA000022302464549414800F042FA05F0C0FAB6
:103BB0000223024642493D4800F03AFA05F0E0FA95
:103BC000022302463F49394800F032FA05F078FAFC
:103BD000022302463C49354800F02AFA05F088FAEB
:103BE00005210246314800F053FA05F021FA07EEAC
:103BF000100ABDEEC77A032117EE102A2B4800F0F9
:103C000037FA062003F03CF806EE900AF8EEE67A62
:103C10009FED2E8A67EEA87A2D49C7EE887A77EE57
:103C2000A77A17EE900A05F023FB012102461F48F0
:103C300000F02EFA0E2003F023F807EE100AF8EE3B
:103C4000C77A244967EEA88AC8EE887A77EEA77A01
:103C500017EE900A05F00CFB02210246134800F013
:103C600017FA124802F054FE1048BDEC028BBDE872
:103C7000F84000F06DBA00BF681A0020581A002002
:103C800044C70008601A0020A0860100CC3600203E
:103C90006C1A0020C55A7C0A580900205C090020D3
:103CA0001F85EB5160C7000800007A44C839002026
:103CB00068C7000870C7000874C7000878C7000804
:103CC00084C7000888C7000890C7000800F07F4537
:103CD0000080BB4400C02845AFF30080AFF30080F4
:103CE00008B50F480F49104A4FF4FA7300F018FA5C
:103CF0000E480F4900F12C02C82300F011FA0120F0
:103D0000FFF7B6FE0B480C4900F00AFE0B480C49C1
:103D100000F0FEFD0B480C49BDE8084000F008BE6D
:103D2000C839002094C70008D0360020C4380020CD
:103D3000A0C70008B4C700083139000840C7000810
:103D4000713A0008F8D6000821390008AFF3008066
:103D50000D4B0E4A70B4D2681C680D4D141BAC425A
:103D6000064607EE901A01DC70BC70479FED097A99
:103D700067EE877A1A60FDEEE77A074817EE902A19
:103D8000314670BC00F044BA600900206C1A002073
:103D90009F86010000007A44C8390020AFF30080FC
:103DA00070B582B00646FDF76BFB124B124C054610
:103DB00093E803002060A180601D294601F058F8B7
:103DC00003463A2203F8012B314618465E19FDF7E7
:103DD000F7FA0D220A2342557370FFF701FC08B968
:103DE00002B070BDB11C2046091B02B0BDE8704096
:103DF000FFF7EEB9C0C70008D8610020AFF300801C
:103E000008B5052806D8DFE800F00C0E10121403E0
:103E1000094808BD09480A492122FFF7E9F90020AD
:103E200008BD084808BD084808BD084808BD08483E
:103E300008BD084808BD00BFDCC70008E0C700088F
:103E4000F8C70008BCE60008D0C70008CCC70008C7
:103E5000C8C70008D4C70008AFF30080AFF30080E4
:103E6000F8B50E46044600293AD03046FDF708FB67
:103E7000D4F8F4300546002B38D0D4F8F800D4F844
:103E8000FC20C31AEB189A4209DD6A1C3146FDF783
:103E90001FF9D4F8F8305D19C4F8F850F8BD244D76
:103EA0000FCD6060A16003CD2D88E2602361606169
:103EB000A161A583216804F11D00FDF731FA271DDA
:103EC0001C4BC01B24181B883146A3803846FDF7C5
:103ED0004FFA194938464822BDE8F840FFF788B93B
:103EE000164815494F22FDF7D3FDBEE7144D0FCDFF
:103EF0006060A16003CD2D88E26023616061A161F3
:103F0000A583216804F11D00FDF70AFA271D094B5E
:103F1000C01B24181B883146A3803846FDF728FAB9
:103F2000054938463E22BDE8F840FFF761B900BFB9
:103F300040C800083CC80008F8C7000814C80008BA
:103F400020C80008AFF30080AFF30080AFF300801B
:103F500038B5041D0546204600F08AFF2846214654
:103F6000BDE83840FFF77CBFAFF30080AFF30080BF
:103F700038B504461546FFF773FF20462946FFF77C
:103F8000E7FF03492046BDE83840FFF769BF00BF9F
:103F900018C10008AFF30080AFF30080AFF30080DA
:103FA000F8B50C4D04461746061DFFF759FF20468D
:103FB0002946FFF755FF3946304600F059FF2046A5
:103FC0003146FFF74DFF20462946BDE8F840FFF790
:103FD00047BF00BF18C10008AFF30080AFF30080F7
:103FE0002DE9F8439046051D99460446089F0F4E5B
:103FF000FFF736FF4146284600F03AFF20462946A3
:10400000FFF72EFF20463146FFF72AFF49463A4682
:10401000284600F095FE20462946FFF721FF20465E
:104020003146BDE8F843FFF71BBF00BF18C10008C9
:104030002DE9F0410C4D044698461746061DFFF742
:104040000FFF20462946FFF70BFF42463946304610
:1040500000F076FE20463146FFF702FF2046294653
:10406000BDE8F041FFF7FCBE18C10008AFF30080C7
:1040700038B5044608461546FFF7C2FE2A460146F3
:104080002046BDE83840FFF78BBF00BFAFF300808C
:1040900070B5044608461546FFF7B2FE2A460146AB
:1040A00002232046BDE87040FFF7C2BFAFF3008097
:1040B00038B5D0F8F450044615B1C4F8F85038BDFE
:1040C00003480449B922FDF7E3FCC4F8F85038BDB1
:1040D0005CC80008F8C70008AFF30080AFF30080A9
:1040E00070B5044616460D46FFF7E2FF2046074925
:1040F000FFF7B6FE20460649FFF7B2FE20462946E6
:104100003246BDE87040FFF733BF00BF14C100085E
:1041100018C10008AFF30080AFF30080AFF3008058
:10412000F8B5044607480D4616461F4600F050F9FC
:1041300020462560C4F8F460C4F8FC70BDE8F8407F
:10414000FFF7B6BF68C80008AFF30080AFF3008088
:1041500010B50446D0F8F400FFF722FE2046BDE873
:104160001040FFF7A5BF00BFAFF30080AFF30080A2
:1041700010B50446FFF7B4FF2046BDE81040FFF736
:10418000E7BF00BFAFF30080AFF30080AFF3008064
:1041900070B50446D0F8F4000C4DFDF771F90646F1
:1041A000FFF7EEF82846FDF76BF941F287338619E1
:1041B0009E4204DCD4F8F4102818FDF701F9FFF74B
:1041C000EFF82046BDE87040FFF772BF504E002068
:1041D000F8B504460C4D0F461646FFF769FF20461A
:1041E0003946FFF73DFE20462946FFF739FE2046B7
:1041F0003146FFF7ADFE20462946FFF731FE204647
:10420000BDE8F840FFF7C4BF18C10008AFF3008055
:1042100010B50446FFF764FF2046BDE81040FFF7E5
:10422000B7BF00BFAFF30080AFF30080AFF30080F3
:1042300038B50A4C0A4DFFF7A3F829462046FDF78A
:10424000BFF800232B70FFF7ABF8237803B938BD14
:104250002046BDE83840FFF7A3BD00BFC83A0020A4
:10426000504E0020AFF30080AFF30080AFF300802A
:104270002DE9F041B1F1000804463BDD007800284B
:1042800032D02146002311F8016F0133002EFAD1FC
:1042900098452ADCB04612F0020F0CBF20263026CB
:1042A00012F0010224D1B8F1000F27DD4746304655
:1042B000FEF77EFF013FFAD120784546B84630B17F
:1042C000FEF776FF14F8010F01350028F8D1B8F198
:1042D000000F06DD44463046FEF76AFF013CFAD186
:1042E00045442846BDE8F0810346C3EB0808D2E701
:1042F0000025E4E7202600250078E0E71546DEE704
:10430000F0B587B005460C9F0446002837D0002A38
:1043100031D100208DF81700002C4CD00D980DF1F4
:104320001605A0F13A0CB4FBF1F601FB1644092C7A
:10433000C8BF644404F1300E34462E4605F801E946
:10434000002CF0D172B1002B24D12D2206F8012CC3
:104350000024013E304619463A46FFF789FF00190E
:1043600007B0F0BD16490968F1B12B2106F8011C10
:104370001446013EEEE70A2918D00022C9E7194683
:1043800003A830233A468DF80C308DF80D50FFF716
:104390006FFFE5E7BA07D8D52D200193FEF708FF98
:1043A000019B0124013BD5E71446D3E70028E4DA5A
:1043B00044420122ADE70DF11706002AD2D0C2E730
:1043C00060750020AFF30080AFF30080AFF3008092
:1043D0000FB42DE9F04F2DED028BA5B0FFF700F9DA
:1043E00030B925B0BDEC028BBDE8F04F04B070478A
:1043F000309BDFF8A8B31A780021CBF80010002A10
:10440000EFD0252ADFF898830DF1C4095ED15878E2
:104410005C1C0028E5D025285AD02D2800F0868184
:1044200000252B2800F07C81302807D1631C1C4616
:1044300013F8010B302845F00205F8D02E2800F0C3
:104440004D81A0F13003092B40F248810626002758
:104450006C2804BF607801345838202800F2348179
:10446000DFE810F024013201320132013201320161
:1044700032013201320132013201130105013201F0
:104480004E00320132013201320132013201320179
:104490003201320132013201320140003201390071
:1044A000320132012100612359F8040B0095019378
:1044B000102100223B46FFF723FF0022CBF800200B
:1044C0006278631C002A8CD0252AA0D018781C465C
:1044D000FEF76EFEF4E7612359F8040B0095019393
:1044E0000A21E6E759F8040BAA4B2A463946002868
:1044F00008BF1846FFF7BCFE0022CBF80020DFE71C
:1045000019F0070F18BF09F10409F9E80201FCF7D7
:1045100087FD08EE100AFBF763FE002800F00A8111
:10452000B5EEC08AF1EE10FA00F11881DBF8003028
:10453000002B00F010812B238DF83C300DF13D0E47
:104540000FA8072E0AD8DFF85CA20AEB8603D3ED8A
:10455000007A38EE278A002E00F00981002201231C
:1045600003EB830301325B00B242F9D107EE103A4C
:10457000F8EE477ABCEEC87A17EE102A002A00F04F
:10458000E68017EE103A4FF0000C05A9A8FB03A235
:10459000D20802EB820AA3EB4A0303F1300A01F8C6
:1045A0000CA013460CF1010C002AEFD1BCF1000F56
:1045B00000F0CD806144F44411F8013D0EF8013B58
:1045C000E645F9D1002E3ED0B8EE477A724638EE75
:1045D000478A2E2368EE277A02F8013BFCEEE77A41
:1045E000039217EE903A002B00F0CD804FF0000CB4
:1045F00005A9A8FB03A2D20802EB820AA3EB4A0397
:1046000003F1300A01F80CA013460CF1010C002A4A
:10461000EFD1664540F2AE800CF1FF330DF113028D
:1046200005A902EB060CCB18302203F8012F6345D5
:10463000FBD18B1913F8012D8B420EF8012FF9D104
:10464000039B03EB060E4FF0000A8EF800A09DF8C6
:104650003C3023B1034613F8012F002AFBD12A4630
:104660003946FFF705FE0022CBF8002028E761233A
:1046700059F8040B019300953B460A210122FFF7EC
:104680003FFE0023CBF800301AE759F8043B2A46D6
:104690004FF0000A04A839468DF811A08DF81030AB
:1046A000FFF7E6FD0022CBF8002009E7412359F887
:1046B000040B019300953B4610210022FFF720FEDA
:1046C0000023CBF80030FBE62520FEF771FD2078B3
:1046D000FEF76EFD0022CBF80020F1E60027AE4683
:1046E000234606263D4603E0A0F1300613F8010FED
:1046F000A0F130022E28D1B21C460CD009290DD8C9
:1047000006EB860100EB410007EB8704002DEBD19F
:1047100002EB4407EAE700260125E7E7754697E63E
:1047200001236078CBF80030E4187DE69C1C987873
:10473000012576E6184B0FA813F04E0F0F9318BF04
:1047400003468CD013F8012F002AFBD187E73023D2
:104750000EF8013B36E70FA88646F2E62D238DF8CA
:104760003C30B1EE488A0DF13D0E0FA8E9E6F7EEB8
:10477000007AFFE6BCF1000F08D130238EF801303B
:104780000EF1020E5FE717EE90CA42E7664605A9F2
:104790004FE700BF80C800084E614E0060750020E2
:1047A000CDCCCCCC90C80008AFF30080AFF3008034
:1047B00038B50446012504E014F8013B2D2B0AD13D
:1047C0006D422046FCF75CFE21460028F4D11148DA
:1047D00000FB05F038BD00281ADD303BDAB2092AAB
:1047E00012D808180138002205E011F8013F303BCB
:1047F000DCB2092C08D802EB8202814203EB4202B0
:10480000F3D102FB05F038BD034800FB05F038BDCD
:10481000002038BD3041AB00D0BE54FFAFF3008064
:1048200070B50C460546FCF72BFE06462046FCF705
:1048300027FE864201D0002070BD002E10DD2A78B0
:1048400023789A42F7D12A462146002305E012F840
:10485000015F11F8014FA542EDD101339E42F6D11F
:10486000012070BDAFF30080AFF30080AFF3008094
:1048700070B50C4E0C483168FFF7AAFD3368002B69
:104880000FDD0A4D002404EB440305EB830255F8C9
:10489000231007485268FFF79BFD33680134A34299
:1048A000F1DC70BD64750020B0C8000830770020CE
:1048B000C8C80008AFF30080AFF30080AFF30080FA
:1048C00001460148FFF784BDE0C80008AFF300804F
:1048D000F0B40B4C2368202B0BD00A4F03EB43069C
:1048E000B600BD190133B85123606960AA60F0BCFD
:1048F0007047054805491722F0BCFEF779BC00BF98
:104900006475002030770020F0C800080CC900084A
:104910000A460121FFF7DCBFAFF30080AFF3008050
:104920000A460421FFF7D4BFAFF30080AFF3008045
:104930000A460021FFF7CCBFAFF30080AFF3008041
:1049400008B505480549FFF7F3FF05480549BDE8E7
:104950000840FFF7DDBF00BF2CC900087148000800
:1049600034C90008C1480008AFF30080AFF30080ED
:104970004368032B2DE9F04107460E4655D0042B22
:1049800008460AD0022B23D0FFF712FF464B98426D
:1049900018D0BB689847BDE8F081FCF771FD00288E
:1049A000F9DD3378202B76D0741C002302E01578D3
:1049B000202D28D001339842224604F10104F6D17B
:1049C000BDE8F08139483146BDE8F041FFF700BD50
:1049D000FCF756FD00280EDD33782E2B61D0711CBC
:1049E000002302E014782E2C24D0013398420A468A
:1049F00001F10101F6D13046FFF7DAFE06EE100AAA
:104A0000F8EEC67A41E0581CC5D05D1C002111703B
:104A10003046FFF7CDFE04467019FFF7C9FEBB68AC
:104A2000014620469847BDE8F081836808469847CC
:104A3000BDE8F081591CDED05D1C4FF0000882F803
:104A400000803046FFF7B4FE751906462846FCF78D
:104A500017FD04462846FFF7ABFE44451EDD4346DE
:104A6000F7EE007AB2EE047A01339C4267EE877A61
:104A7000FAD107EE100AF8EEC76A06EE106AC6EE23
:104A8000A77AB8EEC67A77EE277ABB6817EE900A57
:104A90009847BDE8F08132460125B7E7F7EE007A86
:104AA000E7E732460125C8E7D0BE54FF3CC90008FD
:104AB0000348044900F12C02C823FFF731BB00BFB3
:104AC0003076002054C90008AFF30080AFF30080B7
:104AD0002DE9F0470146064604225348FCF700FD45
:104AE000002854D0002E00F09B80504B504C0FCB30
:104AF00007C42046314600F8013BFCF711FC4D4B42
:104B00001B880380357855B1202D4FF0000502D168
:104B100005E0202B03D00135735D002BF9D1304621
:104B2000FCF7AEFCA8428046434B5BD0D3F8009024
:104B30000024A145745535441ADD404F01E04C4531
:104B400016D004EB4403304657F82310013407EB2A
:104B5000830AFFF765FE0028F1D05046691CFFF775
:104B600007FF374832494246BDE8F047FFF750BBE0
:104B7000002233483349FFF74BFB31482C494FF0B3
:104B8000FF32FFF745FBBDE8F047FFF771BE2E4847
:104B90003146341DFFF71CFC2B482146FFF718FC5B
:104BA0003379212B3ED0002B34D0731D01E0002A35
:104BB00030D01E4613F8012B212AF8D1002306F825
:104BC000013B2046FFF7F4FD04463046FCF758FC55
:104BD0008442024689D01D4821463346BDE8F0474D
:104BE000FFF7F6BB1D68002DC2DD144F002401E065
:104BF000AC42BDD004EB4403304657F823100134D7
:104C000007EB8309FFF70CFE0028F1D0D9F8083034
:104C10009847A6E70E482146BDE8F047FFF7D8BB06
:104C2000BDE8F0872646C9E764C90008CCC900087A
:104C300068750020C4C70008647500203077002024
:104C400030760020DCC900086CC9000898C900084B
:104C50007CC90008AFF30080AFF30080AFF30080A1
:104C600070B400F10B0600F10A04B1FBF2F502FB8F
:104C7000151101F13003392BC8BF01F13703294663
:104C8000254604F801390029EFD1711B2A46411845
:104C900001E012F8013F00F8013B8842F9D170BCF5
:104CA000704700BFAFF30080AFF30080AFF3008028
:104CB000092870B427DD632829DDB0F57A7F24DB6D
:104CC00042F20F73984224DD174B984223DD174BB5
:104CD000984222DD1649884223DD164DA8421EDD8A
:104CE0000123154C02E00133A8420ADD84FB006277
:104CF000C017C0EBA20088421A46F4DC981D70BCB5
:104D00007047D01DFBE70020F9E70220F7E70120FC
:104D1000F5E70320F3E70420F1E70520EFE707209C
:104D2000EDE70620EBE700BF9F8601003F420F0042
:104D30007F969800FFE0F50567666666AFF3008032
:104D4000F0B52DED028B08EE101AB5EEC08AF1EE2B
:104D500010FA83B0164609D52D23B1EE488AB5EE78
:104D6000C08AF1EE10FA00F8013BF6D4FDEEC88AD5
:104D70000A2218EE901AFFF773FF002E044633DD67
:104D8000F8EEE88A05462E23771E38EE688A05F885
:104D9000013B072F42D8DFE807F02F3235383B3E82
:104DA000042CDFED1F7AF8EEE77A27EE888ABDEE55
:104DB000C88A18EE100A8DED018AFFF779FF431CAF
:104DC000B342019909DA2346E419241A302203F880
:104DD000012FA342FBD13F1AED1928460A22FFF703
:104DE0003FFF002304460370204603B0BDEC028B56
:104DF000F0BDDFED0C7AD6E7DFED0B7AD3E7DFED20
:104E00000B7AD0E7DFED0A7ACDE7DFED0A7ACAE761
:104E1000DFED097AC7E7DFED097AC4E7FEE700BFF7
:104E20008096980000E1F5050A000000640000008B
:104E3000E803000010270000A086010040420F0098
:104E40000B1E10B5044604DBFFF70AFF00230370B6
:104E500010BD2D2100F8011B5942FFF701FF00236F
:104E6000037010BDAFF30080AFF30080AFF300809C
:104E70000A22FFF7E5BF00BFAFF30080AFF3008069
:104E8000034B18680028D4BF00200120704700BFE2
:104E90005C1A0020AFF30080AFF30080AFF3008016
:104EA0002DE9F041194C984625680F4604461646F0
:104EB000202383F31188002D13DDFCF7A9FEE3689E
:104EC00013B12046FCF74CFF434620463946324694
:104ED000FCF716FFFCF77CFE002383F31188BDE886
:104EE000F081FCF7CDFEE36813B12046FCF738FFF4
:104EF0004346204639463246FCF702FFFCF7A0FE47
:104F0000002383F31188BDE8F08100BF5C1A002004
:104F100008B504F065FC0A4804F0FAFE00F030F829
:104F200000F0A6F800F05CF900F0DAF900F058FCA7
:104F300000F066FD00F014FBBDE8084006F0D0BBB1
:104F4000F0EF0008AFF30080AFF30080AFF3008014
:104F500008494A68801882424B6802D29A4202D9B4
:104F600070479A42F7D9984294BF00230123002B3F
:104F7000F1D17047001000E0AFF30080AFF3008084
:104F800004F0D6BCAFF30080AFF30080AFF3008035
:104F900000230122027043608360C36003614361A8
:104FA0001830FDF7C5BA00BFAFF30080AFF3008043
:104FB00038B504460D46C8B1202383F31188FCF7A9
:104FC0005FFE2378013B012B04D90B480B49752266
:104FD000FCF75EFD2046656004F0DAFC02232370D6
:104FE000FCF72EFE002383F3118838BD04480349E3
:104FF0007122FCF74DFDDFE71CCA000800CA00085B
:10500000F0C90008AFF30080AFF30080AFF3008079
:10501000F8B504460E4617461D46FCF781FDDCB187
:10502000D6B1CFB1012D01D0EB0715D420780228DD
:1050300008D0042806D0052804D00A480A49C72207
:10504000FCF726FD03232046A760E5602661237058
:10505000BDE8F84004F0FCBC04480349C322FCF757
:1050600017FDE3E760CA000800CA000848CA000844
:1050700005F03EBFAFF30080AFF30080AFF30080D8
:105080000123037000234360704700BFAFF300802B
:1050900038B504460D46D0B1C9B1202383F3118839
:1050A000FCF7EEFD2378013B012B04D90B480C499A
:1050B0006422FCF7EDFC2046656005F049FF022301
:1050C0002370FCF7BDFD002383F3118838BD05482C
:1050D00003496022FCF7DCFCDFE700BF4CCB000893
:1050E00030CB000820CB0008AFF30080AFF3008086
:1050F00010B50446C0B1202383F31188FCF7C0FD2E
:105100002378013B012B04D90A480B497822FCF78C
:10511000BFFC204605F0DCFF01232370FCF790FD67
:10512000002383F3118810BD044803497422FCF75F
:10513000AFFCE0E768CB000830CB00085CCB000890
:1051400010B50446B8B1202383F31188FCF798FD0D
:105150002378022B04D00B480B498A22FCF798FCD9
:10516000204605F0FDFF03232370FCF769FD0023B3
:1051700083F3118810BD054803498722FCF788FC9A
:10518000E1E700BF88CB000830CB000878CB0008EF
:1051900010B50446C0B1202383F31188FCF770FDDD
:1051A0002378023B032B04D90A480B499E22FCF7C3
:1051B0006FFC204605F0FCFF02232370FCF740FD46
:1051C000002383F3118810BD044803499922FCF79A
:1051D0005FFCE0E7A8CB000830CB000898CB0008C4
:1051E00006F04EB8AFF30080AFF30080AFF300805D
:1051F0000123037000234360704700BFAFF30080BA
:1052000038B504460D46E0B1D9B1202383F31188A7
:10521000FCF736FD2378013B012B04D90C480D49DE
:105220006922FCF735FCAB8865602046238106F0D7
:105230003FF802232370FCF703FD002383F311885A
:1052400038BD054803496522FCF722FCDDE700BFB5
:10525000ECCB0008D0CB0008C0CB0008AFF3008037
:105260000C30FDF755BB00BFAFF30080AFF30080FB
:105270000C304FF0FF33FDF74BBB00BFAFF30080A6
:105280003030FDF725BC00BFAFF30080AFF30080E6
:1052900030304FF0FF33FDF71BBC00BFAFF3008091
:1052A0000C30FDF705BB00BFAFF30080AFF300800B
:1052B0000C304FF0FF31FDF7FBBA00BFAFF30080B9
:1052C0003030FDF7A5BB00BFAFF30080AFF3008027
:1052D00030304FF0FF32FDF79BBB00BFAFF30080D3
:1052E00006F07EB9AFF30080AFF30080AFF300802B
:1052F00070B50E4B82B005460446009045F8043B5D
:10530000656001250B46164604F1540110220C304D
:105310002572FDF775FA009404F1300004F1640180
:1053200010223346FDF744FB02B070BD10CD0008DB
:1053300038B504460D46C8B1202383F31188FCF725
:105340009FFC237A013B012B04D90B480B49A62271
:10535000FCF79EFB2046294606F062F902232372E1
:10536000FCF76EFC002383F3118838BD0448034921
:10537000A122FCF78DFBDFE7B8CC00089CCC00082D
:1053800090CC0008AFF30080AFF30080AFF3008053
:1053900038B504460D46FCF7C3FBD4B163693BB195
:1053A00004F10C002946FDF753FA00280BDB38BD49
:1053B000201D0421FDF7ECF904F10C002946FDF74E
:1053C00047FA0028F3DA201D8021BDE83840FDF7B8
:1053D000DFB903480349D822FCF75AFBDEE700BFD8
:1053E000E4CC00089CCC0008AFF30080AFF3008051
:1053F00070B5046AD4F854321A681178042900D0C0
:1054000070BD217A0229FBD112891B7942FA03F37C
:1054100013F00105F4D1216CE36BA26BC91A8E1A4B
:10542000EED0FCF70DFC2B4683F31188D4F8542200
:1054300033461068117904F1300200F0A9FB2023F3
:1054400083F31188FCF71CFCD4F8543218681979DE
:10545000BDE8704000F0D4BBAFF30080AFF3008034
:10546000F8B5046AD4F8542213681978042900D0D6
:10547000F8BD217A0229FBD15279598903EB8203C5
:1054800041FA02F2DB6812F001075D8AF0D1E669A9
:10549000A2696369B61AF61AB542E9D8FCF7D0FBDF
:1054A0003B4683F31188D4F85422B6FBF5F305FB91
:1054B00003F31068517904F10C0200F059FB20232A
:1054C00083F31188FCF7DCFBD4F85432186859795F
:1054D000BDE8F84000F06CBBAFF30080AFF3008094
:1054E0000C30FDF715BA00BFAFF30080AFF30080BA
:1054F0000C304FF0FF33FDF70BBA00BFAFF3008065
:105500003030FDF7E5BA00BFAFF30080AFF30080A5
:1055100030304FF0FF33FDF7DBBA00BFAFF3008050
:105520000C30FDF7C5B900BFAFF30080AFF30080CA
:105530000C304FF0FF31FDF7BBB900BFAFF3008077
:105540003030FDF765BA00BFAFF30080AFF30080E5
:1055500030304FF0FF32FDF75BBA00BFAFF3008091
:10556000704700BFAFF30080AFF30080AFF300805F
:1055700030B50F4A0F4B0546044645F8042B83B05F
:105580006560012504F1540125720C304FF48072DE
:105590000094FDF735F9009404F1300004F5AA7188
:1055A0004FF48072044BFDF703FA03B030BD00BF27
:1055B00080CD000861540008F1530008AFF300806B
:1055C00070B50D4604460E6818B3202383F3118886
:1055D000FCF756FB237A013B012B04D910481149F3
:1055E000DF22FCF755FA2B7906EB83039C616B797C
:1055F000093346F82340AB7906EB83060223B461F6
:105600002372C4F85452FCF71BFB002383F3118868
:1056100070BD05480349DA22FCF73AFAD5E700BF26
:1056200060CD000840CD000830CD0008AFF3008009
:1056300070B5D0F8543200F10C06044630461D68AF
:10564000FDF7EEF804F13000FDF7C2F9201D01214D
:10565000FDF79EF8D4F85432597905EB81032846BA
:10566000DB6832465B8A00F083FAD4F85432597909
:105670002846BDE8704000F09BBA00BFAFF3008041
:1056800090F8443003F06003202B01D000207047D5
:1056900090F84530212B03D0222B09D0202BF5D1B7
:1056A000064B83630723C363002303640120704711
:1056B00000238363C36303640120704764090020EF
:1056C000F8B500EB810306469C690D46CCB120235A
:1056D00083F31188FCF79CFA0821201DFDF758F888
:1056E000216CE26BA36B8A1AD71A16D106EB8503DD
:1056F000DA6853695B682BB9FCF76AFA002383F315
:105700001188F8BD128A013A12EA0307F4D1FCF7B6
:105710005FFA3B4683F3118805E0FCF759FA002352
:1057200083F311883B463046294604F1300200F0ED
:105730002FFA202383F31188FCF76AFA30462946B2
:1057400000F05EFAD8E700BFAFF30080AFF300804F
:1057500001F109032DE9F04150F823400D460646BA
:10576000CCB1202383F31188FCF752FA201D0421C9
:10577000FDF70EF806EB8503E169D868A269636955
:10578000478A8A1AC3EB0208474506D9FCF720FA74
:10579000002383F31188BDE8F081FCF719FA002398
:1057A00083F31188B8FBF7F307FB03F33046294670
:1057B00004F10C0200F0DCF9202383F31188FCF7DC
:1057C00027FA3046294600F0F3F9DFE7AFF300800F
:1057D000704700BFAFF30080AFF30080AFF30080ED
:1057E00005F0C6B9AFF30080AFF30080AFF30080DF
:1057F000002301220270436083600C30FCF798BEE6
:1058000038B504460D46D0B1C9B1202383F31188C1
:10581000FCF736FA2378013B012B04D90B480C49DD
:105820007122FCF735F92046656005F0D9F90223AD
:105830002370FCF705FA002383F3118838BD05486F
:1058400003496D22FCF724F9DFE700BFCCCD000847
:10585000B0CD0008A0CD0008AFF30080AFF300800A
:1058600010B50446D8B1202383F31188FCF708FA59
:105870002378013B012B04D90C480D498722FCF702
:1058800007F9204605F074FA204605F041FA012395
:105890002370FCF7D5F9002383F3118810BD054868
:1058A00003498322FCF7F4F8DDE700BFE8CD0008E8
:1058B000B0CD0008DCCD0008AFF30080AFF300806E
:1058C00010B50446A8B1202383F31188FCF7D8F95A
:1058D0002378022B04D00A480A499A22FCF7D8F808
:1058E000204605F03DFAFCF7ABF9002383F311885D
:1058F00010BD054803499722FCF7CAF8E3E700BF4B
:1059000008CE0008B0CD0008F8CD0008AFF3008045
:1059100010B50446A8B1202383F31188FCF7B0F931
:105920002378022B04D00A480A49AC22FCF7B0F8CD
:10593000204605F01DFAFCF783F9002383F3118854
:1059400010BD05480349A922FCF7A2F8E3E700BF10
:1059500028CE0008B0CD000818CE0008AFF30080B4
:1059600070B504460D46164608B1002937D11D48CA
:105970001D4940F26712FCF78BF8202383F311884E
:10598000FCF77EF92378022B05D0184816494FF40E
:10599000B572FCF77DF863681B682BB11448124997
:1059A00040F26B12FCF774F803232370204629465B
:1059B000324605F0E5F9A3682BB10E480A4940F2DA
:1059C0006D12FCF765F80C4B9B690220A360FCF795
:1059D0005FFAFCF735F9002383F3118870BD002AC4
:1059E000CBD1C4E768CF0008B0CD000874CF000861
:1059F00084CF000820CF00087C1A0020AFF300807D
:105A000004F0F6BDAFF30080AFF30080AFF3008089
:105A10000023012202704360C36183620362C36298
:105A20004362036303814381704700BFAFF300808B
:105A300070B504460E4600B3F9B1202383F31188F4
:105A4000FCF71EF92378013B012B05D90E480F49BD
:105A500040F21312FCF71CF8002520466660E56052
:105A600025616561A56104F0DBFD02232370FCF76D
:105A7000E7F82B4683F3118870BD0548034940F2CF
:105A80000F12FCF705F8D8E74CD0000830D000081A
:105A900020D00008AFF30080AFF30080AFF30080A8
:105AA000F8B504460E461546FCF73AF8002C2AD005
:105AB000002D28D02378042B05D01648164940F233
:105AC0004312FBF7E5FFB71C04EB87035B682BB1C0
:105AD0001248114940F24512FBF7DAFF686918B124
