:020000040800F2
:1000000000040010AD0401081102010811020108EA
:100010001102010811020108110201081102010870
:10002000110201081102010811020108B1020108C0
:1000300011020108110201081102010881020108E0
:100040001102010811020108110201081102010840
:100050001102010811020108110201081102010830
:100060001102010811020108110201085189010859
:10007000B1890108158A0108798A0108DD8A010819
:100080003D8B0108A18B0108DD7F01084DCB0108E4
:100090006DCB01088DCB0108ADCB01081102010821
:1000A000919901081199010811020108319901087B
:1000B0005199010871990108DD9F01081102010899
:1000C00011020108110201081102010811020108C0
:1000D00011020108C5950108E5950108059601087A
:1000E00011020108110201081102010811020108A0
:1000F000110201081102010811020108058C010812
:100100001102010811020108FD9F010811020108F6
:10011000110201081102010811020108110201086F
:10012000698C0108C98C01082D8D0108918D010889
:10013000F58D01081102010811020108CDCB01085B
:10014000EDCB01080DCC01082DCC010861B90108E7
:10015000558E0108B98E01081D8F01081102010892
:10016000110201081102010811020108110201081F
:10017000110201081102010811020108110201080F
:0801800011020108110201083F
:08018800A1010008E5010008D7
:04019000C1010008A1
:1001A000024B13B1024820F0C3BA704700000000B0
:1001B000D101020800000000000000000000000063
:1001C00010B5054C237833B9044810B10448AFF397
:1001D00000800121217010BD080F002000000000E8
:1001E000C046020808B5064B1BB106480649AFF3E6
:1001F00000800648016811B1054A02B1904708BD68
:1002000000000000C04602080C0F0020040F002070
:1002100000000000000000000000000000000000DE
:1002200080B487B000AF786039604FF00003FB7591
:100230004FF000033B6128E03B697A68D3181A78D5
:10024000FB7D5340FB754FF00803FB7316E0FB7D0D
:100250005BB2002B0ADAFB7D4FEA4303DBB283F08B
:1002600027036FEA0303DBB2FB7503E0FB7D4FEA74
:100270004303FB75FB7B03F1FF33FB73FB7B002B1D
:10028000E5D13B6903F101033B613A693B689A425E
:10029000D2DBFB7D184607F11C07BD4680BC7047CA
:1002A00080B582B000AF78607B6818464FF00001DF
:1002B0004FF0400220F05CF87B684FF000021A64B7
:1002C00007F10807BD4680BD80B483B000AF7860F9
:1002D00039607B681B6C03F101027B681A647B68E0
:1002E0001B6C102B03D17B684FF000021A647B68F3
:1002F0001A6C7B68396843F822107B685B6C03F1E9
:1003000001027B685A6407F10C07BD4680BC704748
:1003100080B489B000AF786039607B685A6C3B6804
:100320009A4202DA7B685B6C00E03B683B614FF00D
:100330000003FB617B681B6CFB604FF00003BB613B
:1003400016E0FA68BB69D31A7B6103E07B6903F1AD
:1003500010037B617B69002BF8DB7B687A6953F8BB
:100360002230FA69D318FB61BB6903F10103BB6159
:10037000BA693B699A42E4DBFB69184607F1240736
:10038000BD4680BC704700BF0000000000000000B8
:1003900080B588B000AF40F62873C2F200034FF07A
:1003A00000004FF00001C3E900014FF00103FB61C1
:1003B00058E0FB6903F1FF3240F62873C2F20003F4
:1003C0004FEAC2029B18D3E90023C7E90023D7E90B
:1003D00000011DF0D7F902460B46104619464CA302
:1003E000D3E900231DF0FCF902460B4610461946DE
:1003F0001DF056FED7E90023121843EB0103C7E9AD
:100400000423D7E90401D7E90023994208BF9042A9
:100410000AD1D7E900014FF001024FF00003121892
:1004200043EB0103C7E90423D7E90401D7E900231B
:10043000904271EB030C05DA4FF0FF326FF000438E
:10044000C7E9042340F62873C2F20003FA694FEAB1
:10045000C2029918D7E90423C1E90023FB6903F11B
:100460000103FB61FA6940F27E339A42A1DD40F656
:100470002873C2F2000303F5DF5303F110034FF0BA
:10048000FF306FF00041C3E900014FF00003FB6053
:100490004FF00003BB602AE042F62033C2F20003B3
:1004A000BA68F96843F82210BB6803F10103BB6026
:1004B00000E000BFB9680A464FEAE273F96801F14B
:1004C000010040F62871C2F200014FEAC00009188D
:1004D000D1E90001824273EB010C04DABA6840F200
:1004E000E7339A42D8DDFB6803F10103FB60BA6889
:1004F00040F2E7339A42DCDD43F6C023C2F2000348
:100500004FF001021A6007F12007BD4680BD00BF11
:10051000000000A09999A93F80B586B000AFC7E957
:10052000000143F6C023C2F200031B68002B0BD16D
:1005300040F24070C0F6020040F25471C0F6020171
:100540004FF03C0210F0D6F9D7E90023002A73F1EE
:10055000000102DA4FF0000355E0D7E9002340F232
:10056000E7304FF00001904271EB030C07DB3A6873
:1005700042F62033C2F2000353F8223043E042F641
:100580002033C2F20003D3F89C3F7B6140F27E33FC
:100590003B6133E07A693B69D3184FEA6303FB6040
:1005A00040F62873C2F20003FA684FEAC2029B18B1
:1005B000D3E90023D7E90001904271EB030C04DA80
:1005C000FB6803F1FF333B6118E0FB6803F10102B4
:1005D00040F62873C2F200034FEAC2029B18D3E927
:1005E0000023D7E90001904271EB030C04DBFB68A8
:1005F00003F101037B6101E0FB6804E07A693B6978
:100600009A42C7DB7B69184607F11807BD4680BDD3
:1006100080B582B000AF786039607B683A681A6054
:1006200079684FF000024FF00003C1E902237968B6
:100630004FF000024FF00003C1E9042378684FF047
:10064000000140F618621FF093FE07F10807BD464F
:1006500080BD00BF90B587B000AFF860C7E9002348
:10066000D7E90001FFF758FF78614FF001033B61C4
:10067000FB68D3E90201D7E90023121843EB010319
:10068000F968C1E90223FB68D3E904013C69224609
:100690004FEAE273121843EB0103F968C1E904233E
:1006A0007A6940F27E339A420BDD40F26870C0F600
:1006B000020040F25471C0F602014FF0610210F0E6
:1006C00019F9FB687A6902F1060253F822203B69A6
:1006D000D118FB687A6902F1060243F8221007F18B
:1006E0001C07BD4690BD00BFB0B52DED028B90B08C
:1006F00000AF786039604FF00003FB637B68D3E99B
:1007000004234FF005004FF00001904271EB030C01
:100710004EDB4FF00003BB6343E04FF000037B630D
:1007200032E0FB6B4FEA83033A68D41840F6287333
:10073000C2F20003BA6B4FEAC2029B18D3E9000170
:10074000BB6B03F1010240F62873C2F200034FEACB
:10075000C2029B18D3E90023801841EB03014FEA42
:10076000D1752A464FF00003121843EB01035B10CA
:100770004FEA320213462360FB6B03F10103FB6374
:100780007B6B03F101037B637B68BA6B02F10602AA
:1007900053F822207B6B9A42C3DCBB6B03F101034D
:1007A000BB63BA6B40F27E339A42B6DDFB6B77E1F6
:1007B0004FF000033B6303E03B6B03F101033B633A
:1007C0007B683A6B02F1060253F82230002BF3D01B
:1007D000FB6B4FEA83033A68D3187A68396B01F1EF
:1007E000060152F821201A60FB6B03F10103FB6341
:1007F0004FF000024FF00003C7E90A234FF0000357
:100800007B6218E140F20003C2F200037A6A4FEA09
:1008100082029B1893ED008A7B68D3E9042310467B
:1008200019461DF0C5FB07EE900A68EE277A17EE11
:10083000900A1DF01DFC02460B46C7E90623D7E9C6
:10084000062352EA030105D14FF001024FF00003E5
:10085000C7E906237B68D3E90401D7E90623994257
:1008600008BF904221D17B68D3E904014FF0FF32E9
:100870004FF0FF33121843EB0103C7E9062314E0DE
:100880007B683A6B02F1060253F822100A464FEADF
:10089000E273D7E90A01121843EB0103C7E90A23FF
:1008A0003B6B03F101033B6300E000BF7B683A6BE5
:1008B00002F1060253F822100A464FEAE273D7E922
:1008C0000A01801841EB0301D7E90623904271EB3E
:1008D000030CD5DB7B68D3E904014FEAD1742246CF
:1008E0004FF00003121843EB01035B104FEA320292
:1008F000D7E90601904271EB030C28DA13E07B681C
:100900003A6B02F1060253F822100A464FEAE273EC
:10091000D7E90A01121843EB0103C7E90A233B6B2D
:1009200003F101033B637B683A6B02F1060253F863
:1009300022100A464FEAE273D7E90A01121843EB84
:100940000103D7E90601904271EB030CD7DA40F6B8
:100950002873C2F200033A6B4FEAC2029B18D3E934
:100960000023104619461DF023FB03467B61D7E99F
:100970000A01D7E90623994208BF904248D03B6B51
:1009800003F1010240F62873C2F200034FEAC202EB
:100990009B18D3E900014FF0FF324FF0FF3380186E
:1009A00041EB030140F62873C2F200033A6B4FEAB1
:1009B000C2029B18D3E90023801A61EB0301D7E937
:1009C0000645D7E90A23A21A65EB030302FB01F5EA
:1009D00000FB03F42C19A0FB0201631819467B6885
:1009E0003A6B02F1060253F8224022464FEAE273C4
:1009F0001DF01EFB02460B46104619461DF0D8FAA4
:100A000007EE100AD7ED057A77EE877AC7ED057AFB
:100A1000FB6B4FEA83033A68D318D7ED057AFDEEF6
:100A2000E77AC3ED007AFB6B03F10103FB637B6A9A
:100A300003F101037B627B6A022B7FF7E3AE40F296
:100A40007E333B6103E03B6903F1FF333B617B682D
:100A50003A6902F1060253F82230002BF3D03B69C9
:100A600003F1010240F62873C2F200034FEAC2020A
:100A70009B18D3E900014FF0FF324FF0FF331218FB
:100A800043EB0103C7E90223FB6B4FEA83033A6898
:100A9000D318BA681A60FB6B03F10103FB63FB6BAD
:100AA000184607F14007BD46BDEC028BB0BD00BF44
:100AB00080B586B000AFF860B9607A60FB681B68EB
:100AC0000F2B0BD140F28070C0F6020040F29471FF
:100AD000C0F602014FF00D020CF0AEFEFB681B6881
:100AE0007B6103F10102FB681A60FA687B694FEAD7
:100AF0008303D318BA685A60FB687A6902F110025E
:100B0000796843F8221007F11807BD4680BD00BF81
:100B100080B584B000AF786039604FF00003FB60AF
:100B20000BE07A68FB684FEA8303D3185B68386888
:100B30009847FB6803F10103FB607B681A68FB6858
:100B40009A42EEDC07F11007BD4680BD80B586B045
:100B500000AF78604FF000037B6114E07A687B6936
:100B60004FEA8303D3185B683B617B687A6902F1C3
:100B7000100253F82230FB603B69F86898477B69A4
:100B800003F101037B617B681A687B699A42E5DCAB
:100B900007F11807BD4680BD80B586B000AF78600C
:100BA00039604FF000037B6115E07A687B694FEA9A
:100BB0008303D3185B683B617B687A6902F110029A
:100BC00053F82230FB603B69F868396898477B69C5
:100BD00003F101037B617B681A687B699A42E4DC5C
:100BE00007F11807BD4680BD80B586B000AFF8603C
:100BF000B9607A604FF000037B610EE0FA687B69B0
:100C00004FEA8303D3185B683B613B69B868796836
:100C100098477B6903F101037B61FB681A687B6974
:100C20009A42EBDC07F11807BD4680BD00000000CA
:100C300080B400AF43F6C823C2F200034FF00002B5
:100C40001A60BD4680BC704780B586B000AFF860C2
:100C5000B9607A6043F6C823C2F200031B68402BD8
:100C60000CD140F2B070C0F6020040F2CC71C0F678
:100C700002014FF01E020CF0DFFD20E043F6C82316
:100C8000C2F200031A6813464FEA43039B184FEA67
:100C9000830343F6CC21C2F200015B187B6102F1B1
:100CA000010243F6C823C2F200031A607B69FA68A6
:100CB0001A607B69BA685A607B697A689A6007F142
:100CC0001807BD4680BD00BF80B582B000AF786018
:100CD000396078684FF000013A68FFF7B5FF07F117
:100CE0000807BD4680BD00BF80B582B000AF786008
:100CF000396078684FF001013A68FFF7A5FF07F106
:100D00000807BD4680BD00BF80B582B000AF7860E7
:100D1000396078684FF005013A68FFF795FF07F1F1
:100D20000807BD4680BD00BF80B582B000AF7860C7
:100D3000396078684FF003013A68FFF785FF07F1E3
:100D40000807BD4680BD00BF80B582B000AF7860A7
:100D5000396078684FF004013A68FFF775FF07F1D2
:100D60000807BD4680BD00BF80B582B000AF786087
:100D7000396078684FF002013A68FFF765FF07F1C4
:100D80000807BD4680BD00BF80B588B000AF786061
:100D900078681FF00DFC03467B617B69002B04D152
:100DA00044F23013C0F2AB033CE07B681B782D2B80
:100DB00009D17B6803F101031846FFF7E5FF0346FD
:100DC000C3F100032EE04FF00003FB614FF000037E
:100DD000BB6122E0BB697A68D3181B78FB74FB7C8B
:100DE0002F2B02D9FB7C392B04D94BF6D063CFF6DD
:100DF000547317E0FB7CA3F13003FB60FA691346E0
:100E00004FEA83039B184FEA43031A46FB68D31843
:100E1000FB61BB6903F10103BB61BA697B699A425B
:100E2000D8DBFB69184607F12007BD4680BD00BF2F
:100E300080B584B000AF78600B46FB7078681FF017
:100E4000B7FB0346BB604FF00003FB600CE0FB68A0
:100E50007A68D3181B78FA789A4201D1FB6809E0C6
:100E6000FB6803F10103FB60FA68BB689A42EEDBA2
:100E70004FF0FF33184607F11007BD4680BD00BF95
:100E800080B58AB000AF786078684FF02E01FFF728
:100E9000CFFFF861FB69B3F1FF3F08D17868FFF736
:100EA00073FFB861D7ED067AF8EEE77A3DE0FB69AB
:100EB0007A68D3184FF000021A707868FFF764FF61
:100EC0007861FB6903F101037A68D3187B60786865
:100ED0001FF06EFB03463B617868FFF755FFF86033
:100EE0004FF07E537B624FF000033B620BE097EDC7
:100EF000097AF2EE047A67EE277AC7ED097A3B6A3F
:100F000003F101033B623A6A3B699A42EFDBD7ED9A
:100F1000057AB8EEE77AD7ED037AF8EEE76AD7ED0F
:100F2000097AC6EEA77A77EE277A17EE903A184636
:100F300007F12807BD4680BD80B582B000AF43F6FB
:100F4000C823C2F200031B6840F2E870C0F602003A
:100F500019460CF0ADF84FF000037B601CE07A6896
:100F600013464FEA43039B184FEA830343F6CC2210
:100F7000C2F200029B183B603B681A683B685B68E2
:100F800040F60000C0F6020011461A460CF090F838
:100F90007B6803F101037B6043F6C823C2F20003C0
:100FA0001B687A689A42DADB07F10807BD4680BD04
:100FB00080B582B000AF786040F61800C0F602003D
:100FC00079680CF075F807F10807BD4680BD00BFD1
:100FD00080B500AF40F62800C0F6020040F6397137
:100FE000C0F60001FFF770FE40F63000C0F60200C8
:100FF00040F6B171C0F60001FFF776FE80BD00BF7C
:1010000080B590B000AF786039607B685B68032B77
:1010100006D17B689B68FB63FB6B3868984797E059
:101020007B685B68042B3BD138684FF02001FFF7E9
:10103000FFFEB863BB6BB3F1FF3F00F08480BB6B76
:101040003A68D3184FF000021A703B687B63BB6BA1
:1010500003F101033A68D3183B6038684FF0200170
:10106000FFF7E6FEB863BB6BB3F1FF3F6DD0BB6B20
:101070003A68D3184FF000021A703B683B63BB6BB1
:1010800003F101033A68D3183B603B68FB627B685D
:101090009B68BB62BB6A786B396BFA6A984757E00A
:1010A0007B685B68052B25D138684FF02001FFF77E
:1010B000BFFE78627B6AB3F1FF3F48D07B6A3A6833
:1010C000D3184FF000021A703868FFF75DFE3862DF
:1010D0007B6A03F101033A68D3183B603868FFF775
:1010E00053FEF8617B689B68BB61BB69386AF9692C
:1010F00098472DE07B685B68022B0AD13868FFF7C0
:10110000BFFE78617B689B683B613B697869984763
:101110001EE03868FFF738FEF860FA684BF6D063D7
:10112000CFF654739A4207D140F63800C0F6020059
:1011300039680BF0BDFF0BE07B689B68BB60BB6848
:10114000F868984704E000BF02E000BF00E000BF7D
:1011500007F14007BD4680BD80B485B000AF786020
:101160004FF00003FB600DE07B681B78FB727B682F
:1011700003F101037B60FB7A202B08D0FB6803F1AD
:101180000103FB607B681B78002BEDD100E000BF02
:10119000FB68184607F11407BD4680BC704700BFC6
:1011A00080B586B000AF7860396078681FF000FACB
:1011B00003463B6138681FF0FBF90346FB603A6960
:1011C000FB689A4202D04FF000031AE04FF0000390
:1011D0007B6110E07B697A68D3181A787B6939687B
:1011E000CB181B789A4202D04FF0000309E07B69CC
:1011F00003F101037B617A693B699A42EADB4FF0B4
:101200000103184607F11807BD4680BD80B400AF42
:10121000BD4680BC704700BF80B586B000AF786027
:101220007B68002B02D14FF000035AE040F65000DB
:10123000C0F6020079684FF004021FF0E9F9034696
:10124000002B4DD140F65800C0F6020079680BF033
:101250002FFF7B6803F104037B6040F65800C0F663
:10126000020079680BF024FF7B687B6111E07B69E9
:101270001B78002B09D140F66800C0F6020079689F
:101280000BF016FF4FF000032BE07B6903F1010325
:101290007B617B691B78212BE9D17B694FF00002D0
:1012A0001A707B6903F101037B617868FFF76CFDBD
:1012B00038617B697B6078681FF07AF90346FB60D0
:1012C0003A69FB689A420BD040F68400C0F60200EF
:1012D0003969FA687B680BF0EBFE4FF0000300E021
:1012E0007B68184607F11807BD4680BD90B58BB0E6
:1012F00000AF78607868FFF78FFF78607B68002B1D
:1013000000F0BA8078681FF053F90346FB61FB696F
:10131000642B00F3B38043F6CC52C2F2000240F6D5
:10132000B803C0F6020314460FCB07C4238043F66C
:10133000CC50C2F2000079681FF0B2F843F6CC50EE
:10134000C2F200001FF034F903461A4643F6CC53AC
:10135000C2F20003D21840F6C803C0F602031B888D
:1013600013807868FFF7F8FEB861BA69FB699A42A2
:1013700031D14FF000037B6224E07A6A13464FEAD2
:1013800043039B184FEA830343F6CC22C2F20002C8
:101390009B187B617B691B6878681946FFF700FF23
:1013A0000346002B0AD07B699B68984743F6CC50D4
:1013B000C2F20000F9690CF0B3FB60E07B6A03F154
:1013C00001037B6243F6C823C2F200031B687A6AFA
:1013D0009A42D2DB3DE0BB697A68D3183B613B6936
:1013E0004FF000021A703B6903F101033B614FF0BB
:1013F00000033B6225E03A6A13464FEA43039B1819
:101400004FEA830343F6CC22C2F200029B18FB6032
:10141000FB681B6878681946FFF7C2FE0346002B7D
:101420000BD0F8683969FFF7EBFD43F6CC50C2F2F8
:101430000000F9690CF074FB21E03B6A03F1010341
:101440003B6243F6C823C2F200031B683A6A9A4221
:10145000D1DB40F6CC00C0F602004FF000010CF0EA
:101460005FFB43F6CC50C2F200004FF0FF310CF0AE
:1014700057FBFFF761FD02E000BF00E000BF07F18E
:101480002C07BD4690BD00BF00000000000000001A
:1014900080B487B000AFF860B9607A603B604FF00D
:1014A0000003FB824FF000033B6110E0FB684FEA52
:1014B0004303BA68D3181A88FB8AD318FB82FA68E8
:1014C0003B68D318FB603B6903F101033B613A6958
:1014D0007B689A42EADBFA8A7B6892FBF3F39BB261
:1014E000184607F11C07BD4680BC704780B586B022
:1014F00000AFF860B9607A60FB681B78042B37D1C5
:1015000044F28C13C2F200031B6803F1010244F29F
:101510008C13C2F200031A6043F63873C2F201035F
:10152000DB681A4644F2FC13C2F200031A614FF062
:1015300000037B6119E0786944F2E811C2F200010E
:101540004FF001024FF00803FFF7A2FF03463B6193
:101550003B6999B244F2FC13C2F200037A6923F8A2
:1015600012107B6903F101037B617B69072BE2DDCC
:1015700007F11807BD4680BD80B584B000AFF860A4
:10158000B9607A60FB681B78042B1BD14FF0000018
:1015900044F2F811C2F200014FF001024FF00103D2
:1015A000FFF776FF03461A4644F2E413C2F2000343
:1015B0001A6044F2E413C2F200031B689BB218469F
:1015C0000AF0E4FA07F11007BD4680BD80B582B08D
:1015D00000AF78604FF0200383F311880FF0A2F87A
:1015E00043F67C70C2F2010040F20C01C2F200012D
:1015F00044F2E812C2F200024FF0010312F06AFB5B
:101600000FF0B4F84FF0000383F3118807F10807D7
:10161000BD4680BD80B582B000AF78604FF020033A
:1016200083F311880FF07EF843F64870C2F2010090
:1016300040F6E001C0F6020144F2F812C2F20002E4
:101640004FF0010312F046FB0FF090F84FF000034B
:1016500083F3118807F10807BD4680BD80B483B0CD
:1016600000AF786044F2FC13C2F200037A6833F8EA
:1016700012309BB2184607F10C07BD4680BC70477C
:1016800080B584B000AF78607B68012B05D144F24F
:10169000E413C2F200031B680BE044F29413C2F29D
:1016A00000037A6853F82230FB60F868FFF7D6FF32
:1016B0000346184607F11007BD4680BD80B584B0CB
:1016C00000AFF860B9607A6040F60810C0F602001A
:1016D00079680BF0EDFCBB6840F61410C0F6020010
:1016E000F9681A464FF0030301F018FE07F11007DE
:1016F000BD4680BD80B584B000AF78607B680F2B9D
:1017000000F2B48001A252F823F000BF4D17000888
:101710005F17000871170008831700089517000865
:10172000A7170008B9170008CB170008DD17000835
:10173000EF17000801180008131800082518000802
:1017400037180008491800085B1800084FF000031C
:10175000C4F20203FB604FF00003BB6093E04FF064
:101760000003C4F20203FB604FF00103BB608AE098
:101770004FF00003C4F20203FB604FF00203BB60B2
:1017800081E04FF00003C4F20203FB604FF003035B
:10179000BB6078E04FF00003C4F20203FB604FF03F
:1017A0000403BB606FE04FF00003C4F20203FB6070
:1017B0004FF00503BB6066E04FF00003C4F2020384
:1017C000FB604FF00603BB605DE04FF00003C4F226
:1017D0000203FB604FF00703BB6054E04FF48063EB
:1017E000C4F20203FB604FF00003BB604BE04FF418
:1017F0008063C4F20203FB604FF00103BB6042E070
:101800004FF40063C4F20203FB604FF00003BB60BF
:1018100039E04FF40063C4F20203FB604FF00103B0
:10182000BB6030E04FF40063C4F20203FB604FF092
:101830000203BB6027E04FF40063C4F20203FB60C5
:101840004FF00303BB601EE04FF40063C4F20203D9
:10185000FB604FF00403BB6015E04FF40063C4F27B
:101860000203FB604FF00503BB600CE040F6201064
:10187000C0F6020040F63411C0F6020140F219121F
:101880000BF0DAFF07E0F868B96840F65012C0F6CE
:101890000202FFF713FF07F11007BD4680BD00BF2E
:1018A00080B582B000AF7860396044F29413C2F220
:1018B00000033A68796843F822107B68052B13DC33
:1018C00040F20C03C2F20003596A7A6813464FEAE9
:1018D00083039B183A6802FA03F3CA1840F20C0318
:1018E000C2F200035A6214E040F20C03C2F2000399
:1018F000196A7A6813464FEA83039B18A3F11E0303
:101900003A6802FA03F3CA1840F20C03C2F2000369
:101910001A623868FFF7EEFE07F10807BD4680BD82
:1019200080B584B000AF78607868FFF7A9FEF860F2
:10193000D7ED037AB8EEE77AF0EE087A27EE277A49
:10194000DFED107AC7EE277A77EEA77AC7ED027A35
:1019500097ED027ADFED0C7A67EE277AFDEEE77AF3
:1019600017EE903A44F28800C2F2000040F654119B
:10197000C0F602011A460BF0D5FA07F11007BD4672
:1019800080BD00BF00F07F450000C84280B584B034
:1019900000AF4FF00003FB6042E0F868FFF75EFE27
:1019A000B86044F28800C2F2000040F66811C0F648
:1019B0000201FA6840F67013C0F602030BF014F847
:1019C00044F28800C2F2000040F67411C0F6020131
:1019D000BA6840F67013C0F602030BF005F8D7EDB5
:1019E000027AB8EEE77AF0EE087A27EE277ADFED92
:1019F000137AC7EE277A77EEA77AC7ED017A44F219
:101A00008800C2F2000040F68011C0F602017A6838
:101A10004FF001030BF08CF9FB6803F10103FB604D
:101A2000FB68072BB9DD44F28800C2F200000BF01E
:101A3000B5FA07F11007BD4680BD00BF00F07F4535
:101A400080B500AF44F29013C2F200031B6844F269
:101A50008800C2F2000040F68411C0F602011A4666
:101A60000BF072FA80BD00BF80B582B000AF786025
:101A700044F29013C2F200037A681A60FFF7E0FFA5
:101A800007F10807BD4680BD80B582B000AF44F2C3
:101A90008800C2F2000040F69011C0F6020143F641
:101AA0009462C2F200024FF4FA730BF057F8FFF79A
:101AB000C7FF40F68410C0F6020041F66921C0F667
:101AC0000001FFF711F943F67C70C2F201004FF0FC
:101AD000000112F061F843F64870C2F201004FF0C5
:101AE000000112F059F840F20C03C2F200034FF06B
:101AF00000021A6240F20C03C2F200034FF000022F
:101B00005A624FF000037B607B687A6802F1010241
:101B10007A6018464FF00001FFF7C2FE7B687A68D2
:101B200002F101027A6018464FF00101FFF7B8FE9A
:101B30007B687A6802F101027A6018464FF0020170
:101B4000FFF7AEFE7B687A6802F101027A60184600
:101B50004FF00301FFF7A4FE7B687A6802F10102EF
:101B60007A6018464FF00601FFF79AFE7B687A68A4
:101B700002F101027A6018464FF00701FFF790FE6C
:101B80007B687A6802F101027A6018464FF00E0114
:101B9000FFF786FE7B687A6802F101027A601846D8
:101BA0004FF00F01FFF77CFE7B68082B0BD040F64F
:101BB0009410C0F6020040F63411C0F602014FF452
:101BC000C5720BF039FE44F27810C2F2010040F207
:101BD0003401C2F2000113F0DBFD44F28C10C2F2BA
:101BE000010040F26801C2F2000113F0D1FD40F69D
:101BF000B010C0F6020041F62111C0F60001FFF757
:101C000073F840F6B410C0F6020041F68D11C0F62C
:101C10000001FFF759F807F10807BD4680BD00BF76
:101C200080B500AF44F29013C2F200031B68002B92
:101C300002D0FFF7ABFE00E000BF80BD0000000057
:101C400080B483B000AF0346FB71FB79032B02D84D
:101C50004FF4804310E0FB79042B02D14FF4803322
:101C60000AE0FB79042B05D9FB790B2B02D84FF442
:101C7000003301E04FF00003184607F10C07BD46A2
:101C800080BC704780B584B000AF0346FB714FF055
:101C90000063FB600BE0FB7903F1FF33FB71FB7921
:101CA0001846FFF7CDFF0346FA68D318FB60FB79AF
:101CB000002BF0D1FB68184607F11007BD4680BD28
:101CC00080B582B000AF0346FB71FB7903F10103DD
:101CD000DBB21846FFF7D6FF0346184607F10807A0
:101CE000BD4680BD80B584B000AF78604FF0000382
:101CF000FB7303E0FB7B03F10103FB73FB7B1846E3
:101D0000FFF7DEFF02467B689A42F3D9FB7B184659
:101D100007F11007BD4680BD80B400AF4FF470538B
:101D2000C4F202031B69002B02DB4FF000031DE02D
:101D30004FF47053C4F2020340F22312C4F267520C
:101D40005A604FF47053C4F2020348F6AB12CCF65B
:101D5000EF525A604FF47053C4F202031B69002B18
:101D600002DA4FF0010301E04FF000031846BD46D0
:101D700080BC704790B583B000AF0346FB71FFF79E
:101D8000CBFF0346002B02D04FF0FF33C2E04FF4ED
:101D90007053C4F20203DB6803F48033002BF6D1E6
:101DA0004FF47053C4F202034FF47052C4F20202B3
:101DB000126922F480721A614FF47053C4F2020364
:101DC0004FF47052C4F20202126942F400721A61B6
:101DD0004FF47053C4F202034FF47052C4F2020283
:101DE000126922F078021A61FB7903F00103002BDB
:101DF0000BD04FF47053C4F202034FF47052C4F28C
:101E00000202126942F008021A61FB7903F0020330
:101E1000002B0BD04FF47053C4F202034FF47052F6
:101E2000C4F20202126942F010021A61FB7903F057
:101E30000403002B0BD04FF47053C4F202034FF491
:101E40007052C4F20202126942F020021A61FB7958
:101E500003F00803002B0BD04FF47053C4F20203BD
:101E60004FF47052C4F20202126942F040021A6149
:101E70004FF47053C4F202034FF47052C4F20202E2
:101E8000126942F002021A614FF47053C4F2020365
:101E90004FF47052C4F20202126942F480321A61A5
:101EA0004FF47053C4F20203DB6803F48033002B59
:101EB000F6D14FF47053C4F202034FF47052C4F2DF
:101EC0000202126922F002021A614FF47053C4F246
:101ED00002034FF47052C4F20202126942F000424F
:101EE0001A61FB791846FFF7CDFE0446FB791846C8
:101EF000FFF7A6FE03462046194600F045F80346C4
:101F000083F00103DBB2002B02D06FF00A0301E083
:101F10004FF00003184607F10C07BD4690BD00BF07
:101F200080B586B000AF7860396020E07868FFF750
:101F3000D9FE0346FB75FB7D1846FFF71BFF386192
:101F40003B69002B01D03B6918E0FB7D1846FFF789
:101F5000B7FE7860FB7D1846FFF772FEF860FA68FE
:101F60003B689A4207D23A68FB68D31A3B603B68E9
:101F7000002BDBD100E000BF4FF00003184607F153
:101F80001807BD4680BD00BF80B483B000AF786045
:101F900039600FE07B681B68B3F1FF3F02D04FF060
:101FA00000031FE07B6803F104037B603B68A3F13F
:101FB00004033B603B68032BECD80EE07B681B7886
:101FC000FF2B02D04FF000030CE07B6803F101030C
:101FD0007B603B6803F1FF333B603B68002BEDD136
:101FE0004FF00103184607F10C07BD4680BC70474F
:101FF00080B485B000AFF860B9607A6014E0FB6827
:102000001A68BB681B689A4202D04FF000032AE0AE
:10201000FB6803F10403FB60BB6803F10403BB60CE
:102020007B68A3F104037B607B68032BE7D815E092
:10203000FB681B78DAB2BB681B789A4202D04FF07B
:10204000000310E0FB6803F10103FB60BB6803F1D0
:102050000103BB607B6803F1FF337B607B68002B6F
:10206000E6D14FF00103184607F11407BD4680BCC6
:10207000704700BF80B584B000AFF860B9607A6087
:10208000FB68B86819467A681EF0CAF84FF000037A
:10209000184607F11007BD4680BD00BF80B483B06D
:1020A00000AF786039604FF47053C4F202034FF40C
:1020B0007052C4F20202126942F001021A617B6896
:1020C0003A681A604FF47053C4F20203DB6803F4F9
:1020D0008033002BF6D14FF47053C4F202034FF457
:1020E0007052C4F20202126922F001021A6107F171
:1020F0000C07BD4680BC704780B58AB000AFF86061
:10210000B9607A60FFF708FE0346002B02D04FF05B
:10211000FF3388E04FF47053C4F20203DB6803F42A
:102120008033002BF6D14FF47053C4F202034FF406
:102130007052C4F20202126922F480721A614FF4E2
:102140007053C4F202034FF47052C4F202021269D7
:1021500042F400721A61FB6803F003033B623B6ABE
:10216000002B3DD0FA683B6AD31AFB61FB691B6800
:10217000BB613B6AC3F104037B627A6A7B689A4263
:1021800001D97B687B6207F118023B6AD3181846B5
:10219000B9687A6A1EF044F8BB69F8691946FFF716
:1021A0007DFFFA687B6AD318FB60BA687B6AD31834
:1021B000BB607A687B6AD31A7B6011E0BB681B68DE
:1021C000F8681946FFF76AFFFB6803F10403FB6038
:1021D000BB6803F10403BB607B68A3F104037B606D
:1021E0007B68032BEAD87B68002B0ED0FB681B684A
:1021F0007B6107F114031846B9687A681EF010F87D
:102200007B69F8681946FFF749FF4FF47053C4F231
:1022100002034FF47052C4F20202126942F000420B
:102220001A614FF00003184607F12807BD4680BD2C
:1022300080B584B000AFF860B9607A603B60BB687D
:102240004FF0FF329A60BB687A681A603A68BB68E0
:102250005A60F86879683A68BB6901F05FF807F17D
:102260001007BD4680BD00BF80B586B002AFF860E4
:10227000B9607A603B604FF001030093F868B96879
:102280007A683B68FFF7D4FF07F11007BD4680BDB1
:1022900080B483B000AF78607B689B68184607F114
:1022A0000C07BD4680BC704780B582B000AF786037
:1022B00039607868FFF7ECFF02463B689A421DD010
:1022C0007B681B683A6802F00102002A14BF0022F2
:1022D0000122D2B211467A68526802F1100201FA64
:1022E00002F13A6802F001007A68526800FA02F2DC
:1022F0000A439A617B683A689A6000E000BF07F180
:102300000807BD4680BD00BF0000000000000000BF
:1023100080B584B000AFF860B9607A603B607B6ADA
:102320004FEAC31343F0020340F6C010C0F60200A8
:10233000B9687A6800F0F2FF7B6A4FEAC31343F092
:10234000020340F6CC10C0F60200F9693A6A00F0C8
:10235000E5FF7B6A4FEAC31343F0020340F6DC104B
:10236000C0F602003968BA6900F0D8FF07F110071B
:10237000BD4680BD80B584B004AF4FF00E0300931E
:102380004FF48063C4F2020301934FF00F030293F2
:102390004FF00503039344F2D010C2F201004FF452
:1023A0008061C4F202014FF00D024FF48063C4F269
:1023B0000203FFF7ADFFBD4680BD00BF80B500AF93
:1023C000FDF7E6FF00F0D6FEFFF7D4FF00F06CFA51
:1023D000FFF75AFB01F090FA00F094FD80BD00BFBA
:1023E00080B582B000AF0346FB71FB7918464FF011
:1023F000010100F05BF807F10807BD4680BD00BF92
:1024000080B582B000AF0346FB71FB7918464FF0F0
:10241000000100F04BF807F10807BD4680BD00BF82
:1024200080B483B000AF0346FB71FB79012B02D06F
:10243000FB79032B02D14FF0010301E04FF00003C1
:10244000184607F10C07BD4680BC704780B483B0C6
:1024500000AF0346FB71FB79002B02D0FB79022B06
:1024600002D14FF0010301E04FF00003184607F1DD
:102470000C07BD4680BC704780B582B000AF786065
:102480000B46FB707B68002B05D0FB781846FFF7E6
:10249000DDFF034604E0FB781846FFF7C1FF034663
:1024A000184607F10807BD4680BD00BF90B583B050
:1024B00000AF03463960FB71FA7913464FEA4303D4
:1024C0009B184FEA830344F2A032C2F200029C1828
:1024D000FA7944F21023C2F2000353F822301B7839
:1024E00038681946FFF7C8FF034620461946FFF72C
:1024F000DBFE07F10C07BD4690BD00BF80B582B082
:1025000000AF0346FB71FA7913464FEA43039B1869
:102510004FEA830344F2A032C2F200029B1818462D
:10252000FFF7B6FE0346184607F10807BD4680BD13
:1025300080B582B000AF03463960FB71FA7944F28E
:102540001023C2F20003396843F82210FB791846C1
:102550004FF00001FFF7AAFF07F10807BD4680BD55
:1025600080B584B000AF786043F6D453C2F2010363
:102570009A6940F6F013C0F6020393610CF0AEF9CD
:102580000346002B02D04FF0640301E04FF021031B
:10259000FB604FF003004FF00001FFF787FF4FF0A3
:1025A00004004FF00101FFF781FFFA6848F2A063D1
:1025B000C0F2010303FB02F303F1FF3244F6D353ED
:1025C000C1F26203A3FB02134FEA931303F1010369
:1025D000184611F089F84FF003004FF00101FFF7A2
:1025E00065FF4FF004004FF00001FFF75FFFFA684E
:1025F00048F2A063C0F2010303FB02F303F1FF32D0
:1026000044F6D353C1F26203A3FB02134FEA9313C0
:1026100003F10103184611F067F8AFE780B584B005
:1026200000AF786043F6D453C2F201039A6940F6D2
:102630000023C0F6020393614FF02103FB6007F013
:10264000FFFD0346002B04D109F05EF90346002B81
:1026500005D04FF002004FF00101FFF727FFFA68A5
:1026600048F2A063C0F2010303FB02F303F1FF325F
:1026700044F6D353C1F26203A3FB02134FEA931350
:1026800003F10103184611F02FF80BF0DBFB0346B2
:10269000002B05D14FF002004FF00001FFF706FFBD
:1026A000FA6848F2A063C0F2010303FB02F303F1EE
:1026B000FF3244F6D353C1F26203A3FB02134FEA85
:1026C000931303F10103184611F00EF8B4E700BFAD
:1026D00080B588B002AFF8607A603B600B46FB7251
:1026E0003B6A1B78002B03D03B6A1B78012B02D17D
:1026F0004FF0010301E04FF005037B61FA7A1346C6
:102700004FEA43039B184FEA830344F2A032C2F21C
:1027100000029B187A690092F86819467A683B684B
:10272000FFF786FDFB7A18464FF00001FFF7BEFE6B
:102730003B68DBB21846396AFFF7FAFE07F1180763
:10274000BD4680BD80B586B002AFF8607A603B6060
:102750000B46FB72FA7A44F65003C2F20003009370
:10276000F86811467A683B68FFF7B2FF07F1100777
:10277000BD4680BD80B584B000AF4FF007037B60DD
:102780004FF00003FB600FE040F29C03C2F2000335
:10279000FA689B181B7818464FF00101FFF786FE78
:1027A000FB6803F10103FB60FA687B689A42EBDB8C
:1027B00042F2107010F098FF4FF00003BB600FE082
:1027C00040F29C03C2F20003BA689B181B781846BB
:1027D0004FF00001FFF76AFEBB6803F10103BB6025
:1027E000BA687B689A42EBDB07F11007BD4680BDF3
:1027F00080B483B000AF0346FB71FB79A3F10703FC
:102800000A2B46D801A252F823F000BF392800084D
:10281000432800084D28000857280008932800087E
:1028200093280008612800086B2800087528000814
:102830007F2800088928000840F61023C0F602030C
:102840002BE040F61823C0F6020326E040F62023D2
:10285000C0F6020321E040F62823C0F602031CE084
:1028600040F63023C0F6020317E040F63C23C0F6E2
:10287000020312E040F64823C0F602030DE040F6E2
:102880005423C0F6020308E040F66023C0F60203BA
:1028900003E040F66C23C0F60203184607F10C076C
:1028A000BD4680BC704700BF80B582B002AF40F625
:1028B0007420C0F602004FF000014FF44062C4F2F1
:1028C00002024FF00D03FFF73DFF40F68820C0F6EF
:1028D00002004FF001014FF44062C4F202024FF0D7
:1028E0000C03FFF72FFF40F69C20C0F602004FF0CC
:1028F00002014FF44062C4F202024FF00E03FFF7F0
:1029000021FF40F6A420C0F602004FF003014FF46F
:102910004062C4F202024FF00F03FFF713FF40F6CC
:10292000BC20C0F602004FF004014FF40062C4F274
:1029300002024FF00E03FFF705FF40F6D420C0F669
:1029400002004FF005014FF44062C4F202024FF062
:102950000603FFF7F7FE40F6DC20C0F602004FF05A
:102960002B014FF40062C4F202024FF00703FFF79D
:10297000E9FE40F6F420C0F602004FF02D014FF4BE
:102980004062C4F202024FF00703FFF7DBFE40F69D
:10299000FC20C0F602004FF02E014FF48062C4F21A
:1029A00002024FF00703FFF7CDFE40F60430C0F6F9
:1029B00002004FF02F014FF44062C4F202024FF0C8
:1029C0000503FFF7BFFE40F60C30C0F602004FF0E3
:1029D00030014FF44062C4F202024FF00303FFF7EC
:1029E000B1FE40F61430C0F602004FF031014FF452
:1029F0004062C4F202024FF00B03FFF7A3FE40F661
:102A00001C30C0F602004FF02C014FF40062C4F2FB
:102A100002024FF00D03FFF795FEFFF7ABFE4FF0FC
:102A20000003009344F65800C2F200004FF42E71E8
:102A30004FF0400242F26153C0F6000310F08EFDE9
:102A40004FF00003009344F61030C2F200004FF440
:102A50002E714FF0400242F21D63C0F6000310F0E9
:102A60007DFDBD4680BD00BF0000000000000000ED
:102A700080B582B000AF78600B46FB70FB7840F603
:102A80003030C0F6020079681A460AF011FB07F1EF
:102A90000807BD4680BD00BF80B584B000AF786038
:102AA000396044F6C853C2F200031B7883F0010377
:102AB000DBB2002B08D040F64830C0F602000AF026
:102AC000F7FA4FF00D0326E038684FF000014FF49D
:102AD00009721DF04DFC386879684FF0060203F06A
:102AE000ABFB0346FB73FB7B002B02D0FB7B082B6D
:102AF00008D1386804F07AF8386804F057F94FF0D4
:102B0000000308E0FB7B40F66C30C0F6020019467B
:102B1000FFF7AEFFFB7B184607F11007BD4680BDEF
:102B200080B582B000AF786042F68840C2F2010002
:102B300079681DF0DDFC786845F2B821C2F2000129
:102B4000FFF7AAFF0346184607F10807BD4680BDF8
:102B500080B59AB004AF786044F6C853C2F200035F
:102B60001B7883F00103DBB2002B06D040F648301F
:102B7000C0F602000AF09CFA67E007F12803184645
:102B8000796804F09BFA034687F8533097F853307E
:102B9000002B5AD178681DF00BFD03467B6507F1C9
:102BA000280207F108031046194604F009FB034602
:102BB00087F8533097F85330002B46D17B7C002B9D
:102BC00043D07B7C2E2B3DD007F1080303F1090392
:102BD000FB643B7C03F01003002B1BD07B6D7A68F9
:102BE000D3184FF02F021A707B6D03F101037B6540
:102BF0007B6D7A68D3181846F96C1DF079FC97F84C
:102C00005330002B20D17B6D7A68D3184FF000022F
:102C10001A70C4E7BB8903F0F003BA8902F00C0212
:102C200002F1B400BA8902F00301BA680090019180
:102C3000029240F68430C0F602007968FA6C0AF01D
:102C400037FAACE700BFAAE700BF07F15807BD4657
:102C500080BD00BF80B500AF40F6A030C0F60200D6
:102C6000FFF776FF80BD00BF80B584B000AF78600D
:102C700044F6C853C2F200031B7883F00103DBB2B1
:102C8000002B62D145F2B820C2F2000042F6884122
:102C9000C2F201014FF0020203F0CEFA0346FB73C9
:102CA000FB7B002B02D0FB7B082B44D145F2B823E1
:102CB000C2F20003DB6845F2B820C2F200001946F8
:102CC00004F08AF80346FB73FB7B002B08D0FB7BE8
:102CD00040F6A430C0F602001946FFF7C9FE34E002
:102CE00078681DF065FC024607F1080345F2B8203C
:102CF000C2F20000796803F0CFFD0346FB737868E9
:102D00001DF056FC0246BB689A4207D9FB7B40F691
:102D1000B030C0F602001946FFF7AAFE45F2B8200F
:102D2000C2F2000003F062FF45F2B820C2F20000D8
:102D300004F03CF809E040F6CC30C0F6020042F660
:102D40008841C2F201010AF0B3F907F11007BD464C
:102D500080BD00BF80B500AF4FF000004FF0000114
:102D600003F038FA45F2B820C2F200004FF000013B
:102D70004FF409721DF0FCFA44F6C853C2F2000386
:102D80004FF000021A7040F6E830C0F602000AF078
:102D90008FF980BD80B582B000AF45F28800C2F2E5
:102DA00000004FF000014FF40C721DF0E1FA4FF0FB
:102DB000000045F28801C2F2000103F00BFA03465D
:102DC000FB71FB79002B0ED144F6C853C2F200030D
:102DD0004FF001021A7040F60040C0F602000AF0FF
:102DE00067F9FB7909E0FB7940F62C40C0F6020058
:102DF0001946FFF73DFE4FF00D03184607F108078F
:102E0000BD4680BD80B500AF43F6D453C2F2010386
:102E10009A6940F63C43C0F60203936142F688503B
:102E2000C2F2010011F092FF034683F00103DBB20E
:102E3000002B15D044F6C853C2F200031B7883F070
:102E40000103DBB2002B1AD0FFF7A4FF0346002BCF
:102E500015D040F64840C0F602000AF029F90EE00D
:102E600044F6C853C2F200031B78002B07D042F689
:102E70008850C2F2010012F087F8FFF76BFF4CF2A6
:102E8000503010F031FCC9E780B582B000AF44F695
:102E9000C853C2F200031B7840F66040C0F602003F
:102EA00019460AF005F944F6C853C2F200031B782C
:102EB00083F00103DBB2002B1FD140F67840C0F64F
:102EC0000200FFF72DFE0346FB71FB79002B07D0B4
:102ED000FB7940F68440C0F602001946FFF7C8FDB2
:102EE00040F68C40C0F60200FFF7BEFE40F69C4064
:102EF000C0F60200FFF7B8FE00E000BF07F10807C8
:102F0000BD4680BD80B582B002AF42F68850C2F2A5
:102F1000010011F093FE42F68850C2F2010040F227
:102F2000BC01C2F2000111F0A5FE4FF000030093B6
:102F300044F6D050C2F200004FF42E714FF002025E
:102F400042F60563C0F6000310F008FB40F6AC4003
:102F5000C0F6020042F68961C0F60001FDF7B4FE3A
:102F600040F6B440C0F6020042F65541C0F60001FA
:102F7000FDF7AAFE40F6BC40C0F6020042F6513111
:102F8000C0F60001FDF7D0FEBD4680BD0000000088
:102F900080B483B000AF78607A684FF00003C4F269
:102FA00002039A4204D140F6C043C0F602034BE04C
:102FB0007A684FF48063C4F202039A4204D140F667
:102FC000C443C0F602033FE07A684FF40063C4F2E2
:102FD00002039A4204D140F6C843C0F6020333E02C
:102FE0007A684FF44063C4F202039A4204D140F677
:102FF000CC43C0F6020327E07A684FF48053C4F252
:1030000002039A4204D140F6D043C0F602031BE00B
:103010007A684FF4A053C4F202039A4204D140F6F6
:10302000D443C0F602030FE07A684FF4E053C4F2D1
:1030300002039A4204D140F6D843C0F6020303E0EB
:1030400040F6DC43C0F60203184607F10C07BD4604
:1030500080BC704780B582B000AF78607A684FF06E
:103060000003C4F202039A4202D14FF0000349E088
:103070007A684FF48063C4F202039A4202D14FF09F
:1030800001033FE07A684FF40063C4F202039A42FE
:1030900002D14FF0020335E07A684FF44063C4F286
:1030A00002039A4202D14FF003032BE07A684FF4F7
:1030B0008053C4F202039A4202D14FF0040321E08C
:1030C0007A684FF4A053C4F202039A4202D14FF03F
:1030D000050317E07A684FF4E053C4F202039A4202
:1030E00002D14FF006030DE040F6E440C0F60200C6
:1030F00040F6F041C0F602014FF038020AF09CFBA6
:103100004FF0FF33184607F10807BD4680BD00BFEA
:1031100080B582B000AF4FF000037B6016E042F64E
:10312000BC53C2F201037A6853F822303B603B681B
:10313000002B07D040F61050C0F6020079683A68BC
:1031400009F0B6FF7B6803F101037B607B686F2B9E
:10315000E5DD45F2E853C2F200031B6840F620505B
:10316000C0F60200194609F0A3FF07F10807BD46A3
:1031700080BD00BF80B582B000AF45F2E440C2F22E
:10318000000040F63851C0F6020109F023FD4FF06F
:1031900000037B600CE042F6BC53C2F201037A6884
:1031A0004FF0000143F822107B6803F101037B60BC
:1031B0007B686F2BEFDD45F2E043C2F200034FF076
:1031C00001021A6040F64450C0F6020009F070FF98
:1031D00040F66450C0F6020043F21111C0F600013F
:1031E000FDF772FD07F10807BD4680BD80B588B0C8
:1031F00002AFF860B9607A6045F2E043C2F20003C2
:103200001B68002B0BD140F66C50C0F6020040F654
:10321000F041C0F602014FF052020AF00DFBB8680F
:10322000FFF718FF78617B694FEA03127B68D318B8
:103230003B61B868FFF7ACFE034640F68450C0F629
:103240000200F9681A467B6809F032FF45F2E44053
:10325000C2F2000040F69451C0F60201FA6809F08B
:10326000C3FBB868FFF794FE024640F6A853C0F6C9
:103270000203009345F2E440C2F2000040F69C5184
:10328000C0F602017B6809F0AFFB45F2E440C2F2F0
:10329000000009F0EFFD42F6BC53C2F201033A69A7
:1032A00053F82230002B21D040F6AC50C0F602007B
:1032B000F9687A6809F0FCFE42F6BC53C2F20103D9
:1032C0003A6953F8223040F6D450C0F6020019464D
:1032D00009F0EEFE40F6FC50C0F6020040F6F04168
:1032E000C0F602014FF05E020AF0A6FA42F6BC53A5
:1032F000C2F201033A69F96843F8221045F2E85333
:10330000C2F200031B6803F1010245F2E853C2F266
:1033100000031A6007F11807BD4680BD80B584B070
:1033200000AFF860B9607A603B607B68F868B968A4
:103330001A46FFF75BFF7B684FF0010202FA03F3C6
:10334000B86819463A6819F0ADF807F11007BD469C
:1033500080BD00BF00000000000000000000000071
:1033600080B58CB000AF786043F6D453C2F201034D
:103370009A6940F61063C0F6020393614FF00003B0
:10338000CBF68073FB624FF0FF33BB624FF0FF332D
:103390007B627B6803F5E663D3ED007AF5EE407A55
:1033A000F1EE10FA05D14FF0640010F09DF900BF66
:1033B000EFE77B6803F5E66393ED007AD7ED0B7AD0
:1033C000B4EE677AF1EE10FA0DD043F63873C2F21C
:1033D0000103DB68BB624FF000037B627B6803F58F
:1033E000E6631B68FB627B6803F5E6631B68BB61F1
:1033F0004FF000033B624DE0D7ED097AB8EEE77A73
:103400007A683B6A03F59A734FEA8303D318D3EDC6
:10341000007A37EE277AD7ED067A67EE277AFCEE48
:10342000E77AC7ED057ABA6A7B69D318184610F0B7
:1034300083F94FF00003FB6123E0FA6913464FEA7A
:1034400043039B184FEA83037A68D3183B617B6878
:10345000FA694FF0960101FB02F13A6A8A1802F10B
:10346000080253F82230FB607B68D3F82827FB68FA
:10347000534038691946FEF717FFFB6903F1010352
:10348000FB617B68DA69FB699A42D6DC3B6A03F12F
:1034900001033B627B689A693B6A9A42ACDC7B6AB7
:1034A00003F101037B6274E780B487B000AFF8607A
:1034B000B9607A603B604FF000037B6134E07B6968
:1034C0004FEA83037A68D3181A68F9687B6903F5B1
:1034D0009A734FEA8303CB181A604FF000033B61E5
:1034E0001AE03B694FEA83033A6AD3181A687B698A
:1034F0004FEA8303D3181968FB683A694FF09600C6
:1035000000FB02F07A69821802F1080243F82210E7
:103510003B6903F101033B613A693B689A42E0DB96
:103520007B6903F101037B617A69BB689A42C6DB60
:1035300007F11C07BD4680BC704700BF80B58EB048
:1035400004AFF860B9607A603B607B6B3B624FF020
:103550007E537B624FF00003BB614FF00103FB61C0
:1035600007F118037B61BA683B68F86811467A680E
:10357000FEF77AFE07F1200300934FF00103019359
:1035800007F114030293F868B9683A6B4FF002032D
:1035900000F012F89FED077AD7ED0E7AC7EE277A82
:1035A000BB6803F5E663C3ED007A07F12807BD4663
:1035B00080BD00BF0050C34780B588B002AFF8603F
:1035C000B9607A603B603B68012B0BDC40F6186009
:1035D000C0F6020040F63061C0F602014FF068020A
:1035E0000DF088F93B68962B0BDD40F64C60C0F679
:1035F000020040F63061C0F602014FF069020DF0A2
:1036000079F93B6803F1FF334FEA83033A6AD31831
:1036100093ED007AF7EE007AB4EE677AF1EE10FAE5
:103620000BD040F66460C0F6020040F63061C0F690
:1036300002014FF06A020DF05DF97B6A002B0BDC92
:1036400040F68860C0F6020040F63061C0F6020124
:103650004FF06B020DF04EF94FF000037B612CE050
:103660007B694FEA83033A6AD31893ED007A7B694A
:1036700003F101034FEA83033A6AD318D3ED007ACA
:10368000B4EEE77AF1EE10FA54BF00230123DBB267
:1036900083F00103DBB2002B0BD040F6AC60C0F628
:1036A000020040F63061C0F602014FF06D020DF0ED
:1036B00021F97B6903F101037B613B6803F1FF3270
:1036C0007B699A42CCDCBB687A6ADA61BB6803F535
:1036D000E6634FF48042C4F21C621A60BB6A009336
:1036E000B86839683A6A7B6AFFF7DEFEBB68FA6839
:1036F000C3F82C27BB687A68C3F82827BB683A68E8
:103700009A61BB6803F5E763BA68009218464FF404
:103710002E714FF0400243F26133C0F600030FF008
:103720001DFF07F11807BD4680BD00BF0000000067
:1037300080B400AF45F27C73C2F200031B681846E8
:10374000BD4680BC704700BF80B582B000AF7860D6
:10375000396040F6D060C0F60200396809F0A8FC74
:1037600045F2EC50C2F2000079684FF00002FDF71C
:103770009FF907F10807BD4680BD00BF80B586B040
:1037800000AF0346FB714FF48053CEF200035B6839
:103790007B6143F63873C2F20103DB683B6140F2A0
:1037A000C803C2F200031B683A69D21A48F2A06348
:1037B000C0F201039A4206DD45F26C73C2F20003C7
:1037C0004FF000021A7040F2C803C2F200033A69D7
:1037D0001A6045F27C73C2F200031B6803F1010218
:1037E00045F27C73C2F200031A6040F21013C2F279
:1037F00000031B6803F12C02FB7945F26C70C2F2E6
:10380000000011461A463B6906F02CFD45F26C7328
:10381000C2F200031B78002B25D0FA7945F26C73B5
:10382000C2F200035B6845F2EC50C2F200001146A0
:103830001A46FDF7D9F94FF48053CEF200035B68C6
:10384000FB60FA687B69D31ABB60BB68002B0BDD99
:10385000B9680A464FEAE27340F60000C1F2000080
:10386000FCF7F8FE00E000BF07F11807BD4680BD79
:1038700080B584B000AF78607A6844F21813C2F261
:1038800001039A4202D14FF0000301E04FF002031E
:10389000FB73FB7B1846FFF771FF07F11007BD466E
:1038A00080BD00BF80B584B000AF78607A6844F214
:1038B0001813C2F201039A4202D14FF0010301E052
:1038C0004FF00303FB73FB7B1846FFF757FF07F12D
:1038D0001007BD4680BD00BF80B500AF45F26860EF
:1038E000C2F2000040F60001C1F2000109F062FDE1
:1038F00007F06CFF80BD00BF80B500AF45F2686087
:10390000C2F2000040F6EC61C0F6020109F062F973
:1039100040F60000C1F2000040F6FC61C0F6020172
:10392000FCF776FE06F028FD40F60470C0F60200B3
:1039300043F6D901C0F60001FDF7C6F945F28070E3
:10394000C2F2000044F21811C2F201014FF4006209
:10395000C4F202024FF0060300F000F940F2CC037B
:10396000C2F200034FF000021A754FF40060C4F277
:103970000200FFF70DFB034640F61470C0F602008C
:1039800019464FF0060209F093FB44F21810C2F2F8
:10399000010040F2CC01C2F2000110F0F1FD44F24E
:1039A0001810C2F2010010F06FFE45F68C00C2F252
:1039B000000044F24811C2F201014FF00002C4F2CB
:1039C00002024FF0050300F0C9F840F2CC03C2F246
:1039D00000034FF000021A754FF00000C4F202001D
:1039E000FFF7D6FA034640F63C70C0F602001946CF
:1039F0004FF0050209F05CFB44F24810C2F20100EE
:103A000040F2CC01C2F2000110F0BAFD44F24810BD
:103A1000C2F2010010F038FE80BD00BF00000000BF
:103A200080B584B000AF78604FF00003FB6016E013
:103A300045F69C13C2F20003FA6853F822301A6864
:103A40007B689A4207D145F69C13C2F20003FA68DC
:103A500053F8223019E0FB6803F10103FB6045F6DF
:103A60009813C2F200031B68FA689A42E0DB40F642
:103A70007070C0F6020040F68471C0F602014FF08B
:103A80001F0209F0D9FE4FF00003184607F1100796
:103A9000BD4680BD80B584B000AF78607868FFF720
:103AA000BFFFF860FB6803F114031846FDF74EF8FA
:103AB00007F11007BD4680BD80B584B000AF7860C7
:103AC0007868FFF7ADFFF860FB6803F190031846D4
:103AD000FDF73CF807F11007BD4680BD80B582B008
:103AE00000AF78607A6844F26013C2F201039A4230
:103AF00002D14FF001032BE07A6844F24813C2F27E
:103B000001039A4202D14FF0010321E07A6844F2A6
:103B10001813C2F201039A4202D14FF0020317E0D8
:103B20007A6844F23013C2F201039A4202D14FF094
:103B300003030DE040F6A470C0F6020040F6847165
:103B4000C0F602014FF04C0209F076FE4FF0FF3351
:103B5000184607F10807BD4680BD00BF90B585B087
:103B600000AFF860B9607A603B60FB68BA681A60C1
:103B7000FB687A685A60FB683A689A603C68B86883
:103B8000FFF7ACFF03464FEAC31343F0020340F6CE
:103B9000B470C0F6020079682246FFF7BFFB45F615
:103BA0009813C2F200031A6845F69C13C2F2000390
:103BB000F96843F8221002F1010245F69813C2F2A7
:103BC00000031A6007F11407BD4690BD80B584B0AC
:103BD00000AF786039607B683A68DA607B68DB68E0
:103BE000002B07D040F2E803C2F200034FF00002BE
:103BF0001A7006E040F2E803C2F200034FF001023F
:103C00001A707B681B68FB607B681B69002B05D002
:103C1000F86810F073FDF86810F0F8FCF86840F2EE
:103C2000E801C2F2000110F0ABFCF86810F02CFDC6
:103C30007B684FF001021A6107F11007BD4680BD95
:103C400080B485B000AF03463960FB80FB887F2BD2
:103C500002D8FB88FB8130E03B68002B10D0FB884A
:103C6000FF2B09D8FB88A3F1800240F6C073C0F691
:103C7000020333F8123001E04FF00003FB811CE037
:103C80004FF00003FB810DE0FA8940F6C073C0F6E7
:103C9000020333F81230FA889A4207D0FB8903F105
:103CA0000103FB81FB897F2BEED900E000BFFB897C
:103CB00003F180039BB2DBB2FB81FB89184607F15D
:103CC0001407BD4680BC704780B485B000AF034682
:103CD000FB804FF00003FB6003E0FB6803F101038E
:103CE000FB6041F2C003C0F60203FA6833F81230F9
:103CF000002B09D041F2C003C0F60203FA6833F882
:103D00001230FA889A42E8D141F2C003C0F60203A9
:103D1000FA6833F81230002B07D041F2A023C0F626
:103D20000203FA6833F8123000E0FB88184607F106
:103D30001407BD4680BC7047000000000000000072
:103D400080B487B000AFF860B9607A60FB687B61CF
:103D5000BB683B610BE03B691A787B691A707B6931
:103D600003F101037B613B6903F101033B617B6864
:103D7000002B0CBF00230123DBB27A6802F1FF3273
:103D80007A60002BE7D107F11C07BD4680BC704765
:103D900080B487B000AFF860B9607A60FB687B617F
:103DA00007E0BB68DAB27B691A707B6903F1010333
:103DB0007B617B68002B0CBF00230123DBB27A6898
:103DC00002F1FF327A60002BEBD107F11C07BD46F0
:103DD00080BC704780B489B000AFF860B9607A6089
:103DE000FB68FB61BB68BB614FF000037B6100BFF8
:103DF0007B68002B0CBF00230123DBB27A6802F141
:103E0000FF327A60002B16D0FB691B781A46BB691B
:103E10001B78D31A7B617B69002B14BF002301231D
:103E2000DBB2FA6902F10102FA61BA6902F1010238
:103E3000BA61002BDCD17B69184607F12407BD4627
:103E400080BC704780B483B000AF7860396003E015
:103E50007B6803F101037B607B681B78002B05D036
:103E60007B681B781A463B689A42F1D17B681B78C5
:103E7000184607F10C07BD4680BC704780B584B07A
:103E800000AF786039607B68DB6AFB60FA683B688A
:103E90009A4255D07B681B79002B39D07B685A78C1
:103EA0007B6803F1300310461946FA684FF00103AE
:103EB0000BF066FF0346002B02D04FF0010341E0F8
:103EC0007B684FF000021A717B681A6A7B68DB69B5
:103ED000D218FB689A421BD97B68DB78FB7214E02E
:103EE0007B68DB69FA68D318FB607B685A787B686B
:103EF00003F1300310461946FA684FF001030BF046
:103F00003FFFFB7A03F1FF33FB72FB7A012BE7D80B
:103F10003B68002B14D07B685A787B6803F1300330
:103F2000104619463A684FF001030BF0D9FE0346DC
:103F3000002B02D04FF0010304E07B683A68DA629C
:103F40004FF00003184607F11007BD4680BD00BFC3
:103F500080B584B000AF786078684FF00001FFF75B
:103F60008DFF0346FB73FB7B002B40F0AB807B682F
:103F70001B78032B40F097807B685B79002B00F067
:103F800092807B684FF00002DA627B6803F13003B5
:103F900018464FF000014FF40072FFF7F9FE7B68FE
:103FA0004FF0550283F82E227B684FF0AA0283F867
:103FB0002F227B684FF0520283F830207B684FF04D
:103FC000520283F831207B684FF0610283F832207F
:103FD0007B684FF0410283F833207B684FF0720218
:103FE00083F814227B684FF0720283F815227B68F5
:103FF0004FF0410283F816227B684FF0610283F88C
:1040000017227B681B69DAB27B6883F818227B6809
:104010001B699BB24FEA13239BB2DAB27B6883F829
:1040200019227B681B694FEA1343DAB27B6883F875
:104030001A227B681B694FEA1363DAB27B6883F844
:104040001B227B68DB68DAB27B6883F81C227B6802
:10405000DB689BB24FEA13239BB2DAB27B6883F82A
:104060001D227B68DB684FEA1343DAB27B6883F872
:104070001E227B68DB684FEA1363DAB27B6883F841
:104080001F227B6859787B6803F130027B685B698B
:10409000084611461A464FF001030BF071FE7B688B
:1040A0004FF000025A717B685B7818464FF00001B0
:1040B0004FF000020BF0C0FE0346002B02D04FF081
:1040C0000103FB73FB7B184607F11007BD4680BD5B
:1040D00080B483B000AF786039603B68A3F102031D
:1040E0003B607B689B69A3F102023B689A4202D85D
:1040F0004FF0000307E07B689B783A6802FB03F20D
:104100007B689B6AD318184607F10C07BD4680BC34
:10411000704700BF80B586B000AF786039603B68FB
:10412000012B04D97B689A693B689A4202D84FF008
:104130000103B8E07B681B78022B52D0032B76D0AA
:10414000012B40F0AE803B687B617B694FEA5303F3
:104150007A69D3187B617B681A6A7B694FEA5323BB
:10416000D31878681946FFF789FE0346002B40F004
:1041700091807B694FEAC3534FEAD3537A68D318CF
:1041800093F830303B617B6903F101037B617B680D
:104190001A6A7B694FEA5323D31878681946FFF7E8
:1041A0006DFE0346002B77D17B694FEAC3534FEA7C
:1041B000D3537A68D31893F830304FEA03233A691F
:1041C00013433B613B6803F00103002B03D03B69C1
:1041D0004FEA131304E03B694FEA03534FEA1353CA
:1041E00061E07B681A6A3B684FEA1323D31878684A
:1041F0001946FFF743FE0346002B4FD13B684FEAB9
:1042000043034FEAC3534FEAD35303F130037A68B1
:10421000D318FB60FB6803F101031B784FEA03230B
:104220009AB2FB681B7813439BB29BB23BE07B685E
:104230001A6A3B684FEAD313D31878681946FFF718
:104240001DFE0346002B2BD13B684FEA83034FEA48
:10425000C3534FEAD35303F130037A68D318FB609A
:10426000FB6803F103031B784FEA0362FB6803F169
:1042700002031B784FEA03431A43FB6803F101036F
:104280001B784FEA03231A43FB681B78134323F080
:10429000704308E000BF04E000BF02E000BF00E0A0
:1042A00000BF4FF0FF33184607F11807BD4680BD29
:1042B00080B588B000AFF860B9607A60BB68012B48
:1042C00004D9FB689A69BB689A4203D84FF002038D
:1042D000FB7711E1FB681B78022B7ED0032B00F0EB
:1042E000A680012B40F0F980BB68BB61BB694FEA37
:1042F0005303BA69D318BB61FB681A6ABB694FEAFA
:104300005323D318F8681946FFF7B8FD0346FB7727
:10431000FB7F002B40F0E580BB694FEAC3534FEAB7
:10432000D35303F13003FA68D3187B61BB6803F001
:104330000103002B0ED07B691B78DBB203F00F0367
:10434000DAB27B68DBB24FEA0313DBB21343DBB2B2
:10435000DBB201E07B68DBB27A691370BB6903F101
:104360000103BB61FB684FF001021A71FB681A6A16
:10437000BB694FEA5323D318F8681946FFF77EFD4F
:104380000346FB77FB7F002B40F0AD80BB694FEA13
:10439000C3534FEAD35303F13003FA68D3187B6158
:1043A000BB6803F00103002B04D07B684FEA1313B2
:1043B000DBB20FE07B691B78DBB223F00F03DAB2CC
:1043C0007B684FEA1323DBB203F00F03DBB2134326
:1043D000DBB2DBB27A6913708AE0FB681A6ABB68E9
:1043E0004FEA1323D318F8681946FFF747FD034631
:1043F000FB77FB7F002B78D1BB684FEA43034FEA82
:10440000C3534FEAD35303F13003FA68D3187B61E7
:104410007B68DAB27B691A707B6903F101037A6801
:1044200092B24FEA122292B2D2B21A7060E0FB68E6
:104430001A6ABB684FEAD313D318F8681946FFF716
:104440001DFD0346FB77FB7F002B50D1BB684FEA75
:1044500083034FEAC3534FEAD35303F13003FA689F
:10446000D3187B617B6903F103031B784FEA036276
:104470007B6903F102031B784FEA03431A437B690C
:1044800003F101031B784FEA03231A437B691B786E
:10449000134303F070437A6813437B607B68DAB29E
:1044A0007B691A707B6903F101037A6892B24FEA63
:1044B000122292B2D2B21A707B6903F102037A68B7
:1044C0004FEA1242D2B21A707B6903F103037A6891
:1044D0004FEA1262D2B21A700AE04FF00203FB7781
:1044E00006E000BF04E000BF02E000BF00E000BF44
:1044F000FB684FF001021A71FB7F184607F1200795
:10450000BD4680BD80B584B000AF786039603B683F
:10451000012B04D97B689A693B689A4203D84FF013
:104520000203FB733FE04FF00003FB7332E0786857
:104530003968FFF7EFFDB860BB68002B30D0BB686F
:10454000012B03D14FF00203FB732CE0BB68B3F1E6
:10455000FF3F03D14FF00103FB7324E07868396813
:104560004FF00002FFF7A4FE0346FB73FB7B002B1A
:1045700018D17B681B69B3F1FF3F09D07B681B69C9
:1045800003F101027B681A617B684FF001025A71E6
:10459000BB683B607B689A693B689A42C7D802E077
:1045A00000BF00E000BFFB7B184607F11007BD46C7
:1045B00080BD00BF80B586B000AF786039603B68D1
:1045C000002B0ED17B68DB683B613B69002B04D07C
:1045D0007B689A693B699A4217D84FF001033B61A7
:1045E00013E078683968FFF795FDB860BB68012B68
:1045F00002D84FF001036DE07B689A69BB689A426C
:1046000001D9BB6866E03B683B613B697B6100E0C8
:1046100000BF7B6903F101037B617B689A697B6959
:104620009A4209D84FF002037B617A693B699A424A
:1046300002D94FF000034DE078687969FFF76AFD11
:10464000B860BB68002B0FD0BB68B3F1FF3F02D04E
:10465000BB68012B01D1BB683CE07A693B699A4297
:10466000D6D14FF0000335E000BF786879696FF06C
:104670007042FFF71DFE0346FB73FB7B002B09D145
:104680003B68002B06D0786839687A69FFF710FE1E
:104690000346FB73FB7B002B12D17B687A69DA60DF
:1046A0007B681B69B3F1FF3F13D07B681B6903F183
:1046B000FF327B681A617B684FF001025A7108E093
:1046C000FB7B012B02D14FF0FF3301E04FF00103E0
:1046D0007B617B69184607F11807BD4680BD00BFA6
:1046E00080B584B000AF78600B467B807B687A88A9
:1046F000DA807B689B68FB60FB68012B05D07B68D8
:104700001B689A69FB689A4202D84FF002036DE079
:10471000FB68002B08D17B681B681B78032B03D137
:104720007B681B685B6AFB60FB68002B16D17B68AB
:10473000FA68DA607B681B681B897A889A4202D320
:104740004FF0020352E07B681B685A6A7B884FEA8D
:1047500013139BB2D2187B681A6139E07B681B681F
:104760009B784FEA03137B811DE07B681B6818462A
:10477000F968FFF7CFFCF860FB68B3F1FF3F02D1A7
:104780004FF0010332E0FB68012B05D97B681B6801
:104790009A69FB689A4202D84FF0020326E07A88B1
:1047A0007B89D31A7B807A887B899A42DDD27B68A9
:1047B000FA68DA607B681B681846F968FFF788FCBE
:1047C00002467B884FEA13139BB2D2187B681A61AA
:1047D0007B681A687B8803F00F034FEA431303F1E9
:1047E0003003D2187B685A614FF00003184607F176
:1047F0001007BD4680BD00BF90B585B000AF7860A2
:1048000039607B68DB8803F101033B813B89002B26
:1048100003D07B681B69002B02D14FF00403D3E067
:104820003B8903F00F039BB2002B40F0BC807B68F8
:104830001B6903F101027B681A617B68DB68002B4E
:1048400009D17B681B681B893A899A42C0F0AB800A
:104850004FF00403B8E03B894FEA13139BB21A46AA
:104860007B681B689B7803F1FF331340002B40F0FB
:104870009A807B681A687B68DB6810461946FFF7E8
:1048800049FCF860FB68012B02D84FF002039BE063
:10489000FB68B3F1FF3F02D14FF0010394E07B6866
:1048A0001B689A69FB689A4271D83B68002B02D159
:1048B0004FF0040388E07B681A687B68DB68104669
:1048C0001946FFF777FEF860FB68002B02D14FF026
:1048D000070379E0FB68012B02D14FF0020373E07C
:1048E000FB68B3F1FF3F02D14FF001036CE07B683E
:1048F0001B6818464FF00001FFF7C0FA0346002B73
:1049000002D04FF001035FE07B681B6803F13003C6
:1049100018464FF000014FF40072FFF739FA7B6838
:104920001C687B681B681846F968FFF7D1FB0346D3
:10493000E3624FF00003FB721BE07B681B684FF0E3
:1049400001021A717B681B6818464FF00001FFF7DF
:1049500095FA0346002B02D04FF0010334E07B6848
:104960001B68DA6A02F10102DA62FB7A03F10103E1
:10497000FB727B681B689B78FA7A9A42DDD37B686E
:104980001B687A681268D16AFA7A8A1ADA627B68D6
:10499000FA68DA607B681B681846F968FFF798FBCD
:1049A00002467B681A617B683A89DA807B681A68FC
:1049B0003B8903F00F034FEA431303F13003D2188E
:1049C0007B685A614FF00003184607F11407BD4693
:1049D00090BD00BF80B586B000AF786039603B689D
:1049E0001B7823F0400303F1FF3213464FEA4303E1
:1049F0009B184FEA83039B187B614FF000033B61D8
:104A00004FF00103FB8141F28043C0F602033A6993
:104A10009B181B7803F101033A68D3181B784FEAFF
:104A200003239AB241F28043C0F6020339695B184E
:104A30001B783968CB181B7813439BB2BB81FB8969
:104A4000002B1CD0BB891846FFF73EF90346FB81BB
:104A50007B69FE2B10D87B694FEA43037A68D31831
:104A60001B887A6902F101027A611846FFF72CF976
:104A70000346FA899A420AD04FF0000324E0BA892B
:104A80004FF6FF739A4202D04FF000031CE03B69DF
:104A900003F101033B613B690C2BB4D93B681B78E4
:104AA00003F04003002B0DD0FB89002B0AD07B695B
:104AB0004FEA43037A68D3181B88002B02D04FF0CB
:104AC000000301E04FF00103184607F11807BD4647
:104AD00080BD00BF80B487B000AF786039603B68AC
:104AE0001B7803F03F0303F1FF3213464FEA430301
:104AF0009B184FEA83039B187B614FF000033B61D7
:104B00004FF00103FB8141F28043C0F602033A6992
:104B10009B181B7803F101033A68D3181B784FEAFE
:104B200003239AB241F28043C0F6020339695B184D
:104B30001B783968CB181B7813439BB2BB81FB8968
:104B4000002B13D07B69FE2B02D94FF0000332E01B
:104B50007B694FEA43037A68D318BA89FA81FA89E4
:104B60001A807B6903F101037B6107E0BA894FF684
:104B7000FF739A4202D04FF000031CE03B6903F13F
:104B800001033B613B690C2BBDD93B681B7803F0EB
:104B90004003002B0DD07B69FE2B02D94FF00003A0
:104BA00009E07B694FEA43037A68D3184FF00002AB
:104BB0001A804FF00103184607F11C07BD4680BC60
:104BC000704700BF80B489B000AFF860B960FA7177
:104BD000BB71BB6803F10D03BA791A70BB6803F1AE
:104BE0000B034FF00F021A70BB6803F10C034FF078
:104BF00000021A70BB6803F11A034FF000021A702A
:104C0000BB6803F11B034FF000021A70FB7903F13C
:104C1000FF3213464FEA43039B184FEA83039B1866
:104C2000FB614FF00003FB824FF00003BB61FA8A87
:104C30004FF6FF739A420AD0FB694FEA4303FA68C2
:104C4000D3181B88FB82FB6903F10103FB6141F26E
:104C50008043C0F60203BA699B181B78BA68D31860
:104C6000FA8AD2B21A7041F28043C0F60203BA69DE
:104C70009B181B7803F10103BA68D318FA8A4FEA2C
:104C8000122292B2D2B21A70FB8A002B02D14FF6D6
:104C9000FF73FB82BB6903F10103BB61BB690C2B92
:104CA000C5D9FA8A4FF6FF739A4207D0FB694FEADB
:104CB0004303FA68D3181B88002B03D1FB7943F018
:104CC0004003FB71BB68FA791A7007F12407BD46EF
:104CD00080BC704780B58AB000AFF860B9607A6078
:104CE0007B80F868B9684FF00B02FFF729F87B88E2
:104CF000052B13D97B884FEAC3329BB24FEA53038B
:104D000013439AB27B681B88D3187B807B6803F1BE
:104D100002037B607B681B88002BEBD14FF00703FD
:104D20003B627B88DBB203F00F03DBB203F130039D
:104D300087F8273097F82730392B05D997F827308F
:104D400003F1070387F8273007F114023B6AD318F1
:104D500097F827201A703B6A03F1FF333B627B8888
:104D60004FEA13137B807B88002BDAD107F1140202
:104D70003B6AD3184FF07E021A704FF00003FB61BC
:104D800003E0FB6903F10103FB61FA693B6A9A42A4
:104D900005D2FA68FB69D3181B78202BF1D1FA6889
:104DA000FB69D2183B6A072B09D807F114013B6A4B
:104DB000CB181B78396A01F10101396201E04FF02B
:104DC00020031370FB6903F10103FB61FB69072BEF
:104DD000E5D907F12807BD4680BD00BF80B485B086
:104DE00000AF78604FF00003FB734FF00B03BB6024
:104DF000FB7B4FEAC312DBB24FEA53031343DAB231
:104E00007B681B78D318FB737B6803F101037B601D
:104E1000BB6803F1FF33BB60BB68002BE8D1FB7BB1
:104E2000184607F11407BD4680BC704780B586B0B0
:104E300000AF786078684FF00001FFF751FC03463F
:104E4000FB75FB7D002B01D0FB7DA2E04FF0FF0343
:104E50003B753B7D7B757B681A687B681B691046D8
:104E60001946FFF70BF80346FB75FB7D002B40F05E
:104E70008A807B685B693B613B691B78BB75BB7D46
:104E8000002B03D14FF00403FB7581E03B6903F174
:104E90000B031B7803F03F03FB73BB7DE52B07D0AF
:104EA000FB7B03F00803002B06D0FB7B0F2B03D00A
:104EB0004FF0FF037B755AE0FB7B0F2B32D17B68F1
:104EC000DB69002B53D0BB7D03F04003002B0CD0DB
:104ED0003B695B7B3B75BB7D23F04003BB75BB7DB2
:104EE0007B757B68DA887B681A84BA7D7B7D9A4201
:104EF00014D13B6903F10D031B783A7D9A420DD121
:104F00007B68DB6918463969FFF764FD0346002BAF
:104F100004D07B7D03F1FF33DBB201E04FF0FF03F0
:104F20007B7524E07B7D002B06D13869FFF756FFA7
:104F300003463A7D9A4228D04FF0FF037B757B6889
:104F40004FF6FF721A847B689B6903F10B031B7891
:104F500003F00103002B0AD17B689B69386919466D
:104F60004FF00B02FEF736FF0346002B0FD0786898
:104F70004FF00001FFF740FC0346FB75FB7D002B63
:104F80003FF469AF04E000BF02E000BF00E000BFF3
:104F9000FB7D184607F11807BD4680BD80B586B079
:104FA00000AF78604FF0FF037B754FF0FF033B7558
:104FB0004FF00403FB757DE07B681A687B681B6912
:104FC00010461946FEF75AFF0346FB75FB7D002B82
:104FD00076D17B685B693B613B691B78BB75BB7DA8
:104FE000002B03D14FF00403FB756EE03B6903F126
:104FF0000B031B7803F03F03FB73BB7DE52B0AD04B
:10500000BB7D2E2B07D0FB7B03F00803002B06D0C3
:10501000FB7B0F2B03D04FF0FF037B7540E0FB7B46
:105020000F2B2ED1BB7D03F04003002B0CD03B692E
:105030005B7B3B75BB7D23F04003BB75BB7D7B7504
:105040007B68DA887B681A84BA7D7B7D9A4214D1AA
:105050003B6903F10D031B783A7D9A420DD17B68C1
:10506000DB6918463969FFF735FD0346002B04D08C
:105070007B7D03F1FF33DBB201E04FF0FF037B7573
:105080000EE07B7D002B06D13869FFF7A7FE0346B3
:105090003A7D9A4216D07B684FF6FF721A8411E06F
:1050A00078684FF00001FFF7A7FB0346FB75FB7D17
:1050B000002B09D17B681B69002B7FF47DAF04E0D6
:1050C00000BF02E000BF00E000BFFB7D002B03D06B
:1050D0007B684FF000021A61FB7D184607F1180744
:1050E000BD4680BD80B58CB000AF78607B689B69A1
:1050F0007B627B68DB693B6207F10C031846796AC7
:105100004FF00C02FEF71CFEFB7D03F00103002BA9
:105110003DD07B6A03F10B034FF000021A707B68ED
:105120004FF00002DA614FF00103BB8515E007F193
:105130000C02BB8D786A11463A6AFFF7CBFD78689E
:10514000FFF774FE034687F82F3097F82F30002BB7
:1051500007D1BB8D03F10103BB85BB8D632BE6D962
:1051600000E000BFBB8D642B02D14FF007030BE1C1
:1051700097F82F30042B02D097F82F3004E17B6A88
:1051800003F10B03FA7D1A707B683A6ADA61FB7DE2
:1051900003F00203002B1FD04FF000037B8503E0D8
:1051A0007B8D03F101037B857B8D4FEA43033A6AD4
:1051B000D3181B88002BF3D17B8D03F119024EF617
:1051C0004F43C4F6C46383FB02134FEAA3014FEAC3
:1051D000E273CB1A7B8502E04FF001037B85786890
:1051E0004FF00001FFF77CFA034687F82F3097F85D
:1051F0002F30002B02D097F82F30C5E04FF000037E
:105200003B853B8DBB857B681A687B681B691046B4
:105210001946FEF733FE034687F82F3097F82F30F4
:10522000002B28D17B685B691B78FB77FB7FE52B24
:1052300002D0FB7F002B0ED1BB8D002B02D17B68EF
:10524000DB883B85BB8D03F10103BB85BA8D7B8D6C
:105250009A4203D110E04FF00003BB8578684FF00D
:105260000101FFF7C9FA034687F82F3097F82F306E
:10527000002BC8D000E000BF97F82F30002B4BD197
:105280007B8D012B48D93B8D78681946FFF728FAAA
:10529000034687F82F3097F82F30002B3CD17B68DE
:1052A0009B691846FFF79AFD0346BB777B8D03F198
:1052B000FF337B857B681A687B681B69104619463B
:1052C000FEF7DCFD034687F82F3097F82F30002BD0
:1052D00021D17B68D8697B6859697B8DDAB2BB7F45
:1052E000FFF770FC7B681B684FF001021A71786849
:1052F0004FF00001FFF780FA034687F82F3097F848
:105300002F30002B08D17B8D03F1FF337B857B8D04
:10531000002BCFD100E000BF97F82F30002B31D108
:105320007B681A687B681B6910461946FEF7A6FD64
:10533000034687F82F3097F82F30002B22D17B6857
:105340005B69BB61B8694FF000014FF02002FEF7C6
:105350001FFD7B689B69B86919464FF00B02FEF789
:10536000EFFCBB6903F10C037A68926902F10B024E
:10537000127802F01802D2B21A707B681B684FF0E4
:1053800001021A7197F82F30184607F13007BD4611
:1053900080BD00BF80B58AB000AF786039603B68DF
:1053A0001B683B6103E03B6903F101033B613B691F
:1053B0001B782F2BF7D03B691B785C2BF3D07B68D5
:1053C000DB69FB604FF000037B617B69BB613A697D
:1053D000BB69D3181B78BB84BB6903F10103BB61B4
:1053E000BB8C1F2B39D9BB8C2F2B36D0BB8C5C2BA5
:1053F00033D07B69FE2B02D94FF00603A6E1BB8CAC
:10540000DBB2BB84BB8C18464FF00101FEF718FCE1
:105410000346BB84BB8C002B02D14FF0060395E101
:10542000BB8C7F2B0DD8BB8C41F29040C0F60200A4
:105430001946FEF707FD0346002B02D04FF0060386
:1054400084E17B694FEA4303FA68D318BA8C1A8067
:105450007B6903F101037B61B9E73A69BB69D21843
:105460003B681A60BB8C1F2B02D84FF0040301E08D
:105470004FF0000387F8263012E07B6903F1FF3319
:105480004FEA4303FA68D3181B88BB84BB8C202BDC
:1054900002D0BB8C2E2B07D17B6903F1FF337B61DC
:1054A0007B69002BE9D100E000BF7B69002B02D1B2
:1054B0004FF006034AE17B694FEA4303FA68D318C9
:1054C0004FF000021A807B689B6918464FF020015C
:1054D0004FF00B02FEF75CFC4FF00003BB6103E0F2
:1054E000BB6903F10103BB61BB694FEA4303FA687F
:1054F000D3181B88202BF3D0BB694FEA4303FA680B
:10550000D3181B882E2BEBD0BB69002B0AD097F841
:10551000263043F0030387F8263003E07B6903F16C
:10552000FF337B617B69002B09D07B6903F1FF337B
:105530004FEA4303FA68D3181B882E2BEED14FF0A5
:1055400000033B624FF0000387F827304FF0080359
:10555000FB61BB694FEA4303FA68D3181B88BB841D
:10556000BB6903F10103BB61BB8C002B00F09F8082
:10557000BB8C202B06D0BB8C2E2B0AD1BA697B6941
:105580009A4206D097F8263043F0030387F8263076
:105590008CE03A6AFB699A4203D2BA697B699A4203
:1055A00026D1FB690B2B06D197F8263043F0030375
:1055B00087F826307EE0BA697B699A4205D097F871
:1055C000263043F0030387F82630BA697B699A4294
:1055D0006FD87B69BB614FF008033B624FF00B0350
:1055E000FB6197F827304FEA830387F827305DE0A7
:1055F000BB8C7F2B19D9BB8C18464FF00001FEF7EE
:105600001FFB0346BB84BB8C002B08D0BB8CA3F1D3
:10561000800241F2A443C0F602039B5CBB8497F86E
:10562000263043F0020387F82630BB8C002B0AD0CB
:10563000BB8C41F29C40C0F602001946FEF702FC0A
:105640000346002B09D04FF05F03BB8497F8263048
:1056500043F0030387F826301CE0BB8C402B09D9AC
:10566000BB8C5A2B06D897F8273043F0020387F8F3
:1056700027300FE0BB8C602B0CD9BB8C7A2B09D860
:1056800097F8273043F0010387F82730BB8CA3F14C
:105690002003BB847B689A693B6AD318BA8CD2B268
:1056A0001A703B6A03F101033B6252E751E700BF06
:1056B00000E000BF7B689B691B78E52B04D17B6809
:1056C0009B694FF005021A70FB69082B05D197F80A
:1056D00027304FEA830387F8273097F8273003F005
:1056E0000C030C2B05D097F8273003F00303032B92
:1056F00005D197F8263043F0020387F8263097F853
:10570000263003F00203002B17D197F8273003F05F
:105710000303012B05D197F8263043F0100387F8D7
:10572000263097F8273003F00C03042B05D197F8A7
:10573000263043F0080387F826307B689B6903F125
:105740000B0397F826201A704FF00003184607F154
:105750002807BD4680BD00BF80B58AB000AF786025
:1057600039603B6803F109033B627B681B69002BCE
:1057700000F0AF807B685B697B617B691B7BFB749E
:105780004FF000037B6227E07A697B6AD3181B78AD
:10579000FB77FB7F202B23D0FB7F052B02D14FF023
:1057A000E503FB77FB7C03F00803002B09D0FB7FAC
:1057B000402B06D9FB7F5A2B03D8FB7F03F1200334
:1057C000FB773B6AFA7F1A703B6A03F101033B6285
:1057D0007B6A03F101037B627B6A072BD4D900E06B
:1057E00000BF7B6903F108031B78202B32D03B6A92
:1057F0004FF02E021A703B6A03F101033B624FF037
:1058000008037B6221E07A697B6AD3181B78FB77F7
:10581000FB7F202B1DD0FB7C03F01003002B09D055
:10582000FB7F402B06D9FB7F5A2B03D8FB7F03F16C
:105830002003FB773B6AFA7F1A703B6A03F101038E
:105840003B627B6A03F101037B627B6A0A2BDAD934
:1058500000E000BF7B69DA7A3B681A727B6903F16A
:105860001F031B784FEA03627B6903F11E031B7859
:105870004FEA03431A437B6903F11D031B784FEA88
:1058800003231A437B6903F11C031B781A433B680B
:105890001A607B6903F119031B784FEA03239AB25C
:1058A0007B6903F118031B7813439BB29AB23B68E0
:1058B0009A807B6903F117031B784FEA03239AB29E
:1058C0007B6903F116031B7813439BB29AB23B68C2
:1058D000DA803B6A4FF000021A703B689B69002B2C
:1058E00050D03B68DB69002B4CD03B689B69FB6068
:1058F0004FF000037B627B681B69002B3CD07B6808
:105900001A8C4FF6FF739A4236D07B68DB69BB6115
:1059100023E07B8918464FF00001FEF791F903461A
:105920007B817B89002B03D14FF000037B6223E056
:105930003B68DB6903F1FF327B6A9A4203D84FF080
:1059400000037B6218E0FA687B6AD3187A89D2B2C6
:105950001A707B6A03F101037B62BB691B887B8140
:105960007B89002B0CBF00230123DBB2BA6902F153
:105970000202BA61002BCCD1FA687B6AD3184FF0CF
:1059800000021A7007F12807BD4680BD80B584B0BB
:1059900000AF786039603B681B782F2B03D03B68E1
:1059A0001B785C2B03D13B6803F101033B607B68F0
:1059B0004FF000029A603B681B781F2B0BD8786869
:1059C0004FF00001FEF78CFE0346FB737B684FF03F
:1059D00000025A615EE03B4678681946FFF7DAFC40
:1059E0000346FB73FB7B002B4DD17868FFF71EFA53
:1059F0000346FB737B689B69DB7ABB73FB7B002BE5
:105A00000BD0FB7B042B40D1BB7B03F00403002BAA
:105A10003DD14FF00503FB7339E0BB7B03F004037A
:105A2000002B36D17B685B69BB60BB6803F10B035D
:105A30001B7803F01003002B03D14FF00503FB7319
:105A400028E0BB6803F115031B784FEA03239AB2E1
:105A5000BB6803F114031B7813439BB29BB24FEA5C
:105A60000342BB6803F11B031B784FEA032399B27F
:105A7000BB6803F11A031B780B439BB29BB21A431A
:105A80007B689A60A7E700BF04E000BF02E000BFA8
:105A900000E000BFFB7B184607F11007BD4680BD44
:105AA00080B582B000AF786039607B685A787B68D7
:105AB00003F13003104619463A684FF001030AF02B
:105AC0000FF90346002B02D04FF0030356E07B682A
:105AD00093F82F324FEA03239AB27B6893F82E3261
