:020000040800F2
:100000000004002071150008B1160008B1160008A0
:10001000B1160008B1160008B1160008B1160008A4
:10002000B1160008B1160008B11600082117000823
:10003000B1160008B1160008B11600082118000812
:10004000B1160008B1160008B1160008B116000874
:10005000B1160008B1160008B1160008B116000864
:10006000B1160008B1160008B1160008518D00083D
:10007000818D0008C18D0008018E0008418E0008A6
:10008000718E0008B18E0008D1960008B1160008E4
:10009000B1160008B1160008B1160008B116000824
:1000A00091A9000811A90008B116000831A900089B
:1000B00051A9000871A9000801AD0008B116000897
:1000C000B1160008B1160008B1160008B1160008F4
:1000D000B1160008B116000861B0000881B0000830
:1000E000B1160008B1160008B1160008B1160008D4
:1000F000B1160008B1160008B1160008F18E00080C
:10010000B1160008B116000821AD0008B1160008AC
:10011000B1160008B1160008B1160008B1160008A3
:10012000318F0008618F0008A18F0008E18F00085F
:1001300021900008B1160008B1160008B116000899
:10014000B1160008B1160008B1160008A19F0008FA
:100150005190000891900008D1900008B116000855
:10016000B1160008B1160008B1160008B116000853
:10017000B1160008B1160008B1160008B116000843
:08018000B1160008B1160008D9
:1001900008B504F07DFE01F0EBFB03F0E9F806F092
:1001A00007FC07F0E5FD06F0CBFB03F0B1FD0748C7
:1001B00004F0E6F8064B01221A6003F0A1FC03F0FC
:1001C000F7FB4FF4FA7001F0E3FFF6E7F0DC00080C
:1001D000A8D10020AFF30080AFF30080AFF3008020
:1001E0002DE9F0418AB004460D4600F071F840F662
:1001F0000008C2F2000898F90030013306460F46A5
:100200000BD02046294600F05BFA30B12046294643
:100210000022002300F0DAFE20B1304639460AB051
:10022000BDE8F08198F800604DF61053C0F6000369
:10023000CDE9024501930023CDE90445089366BB4F
:100240004FF6FF734FF06042CCF2EF73CDE9062317
:10025000204629460022002300F090FE60B10223D0
:1002600000939E4225D0684600F052FA08B3089BDE
:1002700023BBDDE90667D0E70123022E009313D0EC
:10028000684600F045FA78B14BF6A420C0F60000AD
:1002900000F046FACDE90601E9E700230022CFF697
:1002A000F073CDE90623D3E700F0EAFE21230360D3
:1002B000EAE700F0E5FE22230360D8E700F0E0FE65
:1002C000089B0360D5E700BF0000000000000000AD
:1002D000B1F5801F02462DE9F04F0B4687B004466A
:1002E0000D460E4662DA21F00045054300F0FE801F
:1002F0000029C0F27D8100230022C4F250336FF048
:10030000350700F0CDFB0D460B464FF6FF71024658
:10031000C7F6EF718D4250DC25F07F46002326F4AE
:100320007006104606F51524002204F66474C3F620
:10033000F07304F480142D1584F07F5EA5F2FF3570
:100340008EF4401EEF194EEA060107EB145800F038
:10035000F3F9B31C23F470030022022B82468B4670
:1003600032DC002300F00AFE002800F0C8800020E4
:100370000021B8F1000F24D0404600F02BFBA0A3D1
:10038000D3E9002306460F4600F08AFB9EA3D3E97B
:10039000002304460D463046394600F081FB0246F4
:1003A0000B462046294600F0C9F90AE04FF6FF71D6
:1003B0000027C7F6EF718D42AEDD1046194600F0FA
:1003C000BDF907B0BDE8F08F4FF08043A6F5C22716
:1003D00000F0B4F9C6F5D7265136A7F27A4737436D
:1003E00002460B465046594600F084FCCDE9020116
:1003F000404600F0EFFACDE90401DDE902010246D2
:100400000B4600F04DFB02460B46CDE9000100F023
:1004100047FB7FA3D3E9002304460D4600F040FBD1
:100420007DA3D3E9002300F089F922462B4600F092
:1004300037FB7BA3D3E9002300F080F922462B464B
:1004400000F02EFB78A3D3E9002300F077F9DDE973
:10045000002300F025FB76A3D3E90023CDE90001BA
:100460002046294600F01CFB73A3D3E9002300F0CB
:1004700065F922462B4600F013FB71A3D3E9002354
:1004800000F05CF922462B4600F00AFB02460B46C0
:10049000DDE9000100F052F9002F04460D4658DD59
:1004A00000230022C3F6E0735046594600F0F8FAE4
:1004B00052465B4600F0F4FA06460F46B8F1000FCC
:1004C00063D122462B4600F039F9DDE9022300F022
:1004D000E7FA02460B463046394600F02DF902464F
:1004E0000B465046594600F027F96AE700210020E4
:1004F00000220023CCF2503100F0FCFB61E75246B1
:100500005B465046594600F0CBFA4FA3D3E900238F
:1005100004460D465046594600F0C2FA0B460021EB
:100520000246C3F6E071002000F006F902460B46D1
:100530002046294600F0B4FA04460D46B8F1000FF3
:1005400040F086805046594622462B4600F0F4F88B
:1005500037E7B8F1000F00F09F8029A3D3E900230B
:10056000DDE9040100F09CFA22462B4606460F46C0
:100570005046594600F0E0F8DDE9022300F090FA19
:1005800004460D46DDE9040170E01DA3D3E9002314
:10059000DDE9040100F084FA22462B4680468946B4
:1005A0003046394600F0CAF8DDE9022300F078FA57
:1005B00015A3D3E9002304460D46DDE9040100F04C
:1005C0006FFA02460B462046294600F0B7F802466D
:1005D0000B463046394600F0AFF852465B4600F015
:1005E000ABF802460B464046494600F0A5F8E8E65F
:1005F00000F0A2F80022002300F07CFBE1E600BF3F
:100600000000E0FE422EE63F763C7935EF39EA3DC8
:1006100044523EDF12F1C23FDE03CB966446C73F31
:10062000599322942449D23F935555555555E53F4A
:100630009FC678D0099AC33FAF788E1DC571CC3F55
:1006400004FA97999999D93F555555555555D53F20
:10065000404600F0BFF916A3D3E90023804689463F
:1006600000F01EFA06460F464046494612A3D3E95B
:10067000002300F015FA02460B462046294600F0FA
:100680005BF852465B4600F057F802460B46304690
:10069000394600F051F894E622462B46504659461A
:1006A00000F04AF8DDE9022300F0FAF917E700BF8D
:1006B0000000E0FE422EE63F763C7935EF39EA3D18
:1006C00050EA010201D102207047D0F1010238BF87
:1006D0000022B1F1004F08BF0028F4D021F0004300
:1006E0004FF6FF71A3F58010C7F6DF71884201D87D
:1006F00004207047B3F5801F01D20320704700200B
:10070000C7F6F070834214BF002002F0010070476A
:100710000020704700000000000000000000000002
:1007200000210020C7F6F871704700BF00000000EC
:1007300081F0004102E000BF83F0004330B54FEA92
:1007400041044FEA430594EA050F08BF90EA020FFF
:100750001FBF54EA000C55EA020C7FEA645C7FEA92
:10076000655C00F0E2804FEA5454D4EB5555B8BFB5
:100770006D420CDD2C4480EA020281EA030382EA26
:10078000000083EA010180EA020281EA0303362DB8
:1007900088BF30BD11F0004F4FEA01314FF4801C8B
:1007A0004CEA113102D0404261EB410113F0004F9D
:1007B0004FEA03334CEA133302D0524263EB430354
:1007C00094EA050F00F0A780A4F10104D5F1200EF2
:1007D0000DDB02FA0EFC22FA05F2801841F100014D
:1007E00003FA0EF2801843FA05F359410EE0A5F121
:1007F00020050EF1200E012A03FA0EFC28BF4CF052
:10080000020C43FA05F3C01851EBE37101F0004507
:1008100007D54FF0000EDCF1000C7EEB00006EEB14
:100820000101B1F5801F1BD3B1F5001F0CD349089E
:100830005FEA30004FEA3C0C04F101044FEA4452F5
:1008400012F5800F80F09A80BCF1004F08BF5FEA7C
:10085000500C50F1000041EB045141EA050130BD5C
:100860005FEA4C0C404141EB010111F4801FA4F1FF
:100870000104E9D191F0000F04BF01460020B1FA54
:1008800081F308BF2033A3F10B03B3F120020CDA8C
:100890000C3208DD02F1140CC2F10C0201FA0CF06A
:1008A00021FA02F10CE002F11402D8BFC2F1200CCF
:1008B00001FA02F120FA0CFCDCBF41EA0C01904085
:1008C000E41AA2BF01EB0451294330BD6FEA0404CE
:1008D0001F3C1CDA0C340EDC04F11404C4F12002B9
:1008E00020FA04F001FA02F340EA030021FA04F3CB
:1008F00045EA030130BDC4F10C04C4F1200220FA22
:1009000002F001FA04F340EA0300294630BD21FA5F
:1009100004F0294630BD94F0000F83F4801306BF25
:1009200081F480110134013D4EE77FEA645C18BF19
:100930007FEA655C29D094EA050F08BF90EA020FB0
:1009400005D054EA000C04BF1946104630BD91EAA8
:10095000030F1EBF0021002030BD5FEA545C05D1AB
:100960004000494128BF41F0004130BD14F58004EA
:100970003CBF01F5801130BD01F0004545F0FE415E
:1009800041F470014FF0000030BD7FEA645C1ABF93
:10099000194610467FEA655C1CBF0B46024650EACA
:1009A000013406BF52EA033591EA030F41F40021F6
:1009B00030BD00BF90F0000F04BF0021704730B57C
:1009C0004FF4806404F132044FF000054FF0000151
:1009D00050E700BF90F0000F04BF0021704730B512
:1009E0004FF4806404F1320410F0004548BF4042E7
:1009F0004FF000013EE700BF42004FEAE2014FEA3C
:100A000031014FEA02701FBF12F07F4393F07F4F16
:100A100081F06051704792F0000F14BF93F07F4F48
:100A2000704730B54FF4607401F0004521F000418B
:100A300020E700BF50EA010208BF704730B54FF011
:100A400000050AE050EA010208BF704730B511F016
:100A5000004502D5404261EB41014FF4806404F14E
:100A600032045FEA915C3FF4DCAE4FF003025FEAD0
:100A7000DC0C18BF03325FEADC0C18BF033202EB58
:100A8000DC02C2F1200300FA03FC20FA02F001FAB2
:100A900003FE40EA0E0021FA02F11444C1E600BF51
:100AA00070B54FF0FF0C4CF4E06C1CEA11541DBF04
:100AB0001CEA135594EA0C0F95EA0C0F00F0DEF8CF
:100AC0002C4481EA030621EA4C5123EA4C5350EAB4
:100AD000013518BF52EA033541F4801143F4801305
:100AE00038D0A0FB02CE4FF00005E1FB02E506F096
:100AF0000042E0FB03E54FF00006E1FB03569CF0EB
:100B0000000F18BF4EF0010EA4F1FF04B6F5007FF0
:100B100064F5407404D25FEA4E0E6D4146EB060662
:100B200042EAC62141EA55514FEAC52040EA5E50EB
:100B30004FEACE2EB4F1FD0C88BFBCF5E06F1ED895
:100B4000BEF1004F08BF5FEA500E50F1000041EBCC
:100B5000045170BD06F0004646EA010140EA020079
:100B600081EA0301B4EB5C04C2BFD4EB0C0541EA9B
:100B7000045170BD41F480114FF0000E013C00F3B0
:100B8000AB8014F1360FDEBF002001F0004170BDD4
:100B9000C4F10004203C35DA0C341BDC04F11404ED
:100BA000C4F1200500FA05F320FA04F001FA05F279
:100BB00040EA020001F0004221F0004110EBD37046
:100BC00021FA04F642EB06015EEA430E08BF20EA72
:100BD000D37070BDC4F10C04C4F1200500FA04F315
:100BE00020FA05F001FA04F240EA020001F00041A7
:100BF00010EBD37041F100015EEA430E08BF20EA1A
:100C0000D37070BDC4F1200500FA05F24EEA020E61
:100C100020FA04F301FA05F243EA020321FA04F090
:100C200001F0004121FA04F220EA020000EBD37047
:100C30005EEA430E08BF20EAD37070BD94F0000F47
:100C40000FD101F00046400041EB010111F4801F7B
:100C500008BF013CF7D041EA060195F0000F18BF2C
:100C6000704703F00046520043EB030313F4801F68
:100C700008BF013DF7D043EA0603704794EA0C0F22
:100C80000CEA135518BF95EA0C0F0CD050EA410638
:100C900018BF52EA4306D1D181EA030101F00041B5
:100CA0004FF0000070BD50EA410606BF10461946DD
:100CB00052EA430619D094EA0C0F02D150EA0136E9
:100CC00013D195EA0C0F05D152EA03361CBF10462A
:100CD00019460AD181EA030101F0004141F0FE41C9
:100CE00041F470014FF0000070BD41F0FE4141F44D
:100CF000780170BD70B54FF0FF0C4CF4E06C1CEA4D
:100D000011541DBF1CEA135594EA0C0F95EA0C0F01
:100D100000F0A7F8A4EB050481EA030E52EA0335BC
:100D20004FEA013100F088804FEA03334FF08055DD
:100D300045EA131343EA12634FEA022245EA11150A
:100D400045EA10654FEA00260EF000419D4208BFBB
:100D5000964244F1FD0404F5407402D25B084FEA68
:100D60003202B61A65EB03055B084FEA32024FF414
:100D700080104FF4002CB6EB020E75EB030E22BF71
:100D8000B61A754640EA0C005B084FEA3202B6EB31
:100D9000020E75EB030E22BFB61A754640EA5C00E0
:100DA0005B084FEA3202B6EB020E75EB030E22BF70
:100DB000B61A754640EA9C005B084FEA3202B6EB71
:100DC000020E75EB030E22BFB61A754640EADC0030
:100DD00055EA060E18D04FEA051545EA16754FEA92
:100DE00006164FEAC30343EA52734FEAC2025FEAB0
:100DF0001C1CC0D111F4801F0BD141EA00014FF03F
:100E000000004FF0004CB6E711F4801F04BF01430F
:100E10000020B4F1FD0C88BFBCF5E06F3FF6AFAE2B
:100E2000B5EB030C04BFB6EB020C5FEA500C50F1BB
:100E3000000041EB045170BD0EF0004E4EEA11313E
:100E400014EB5C04C2BFD4EB0C0541EA045170BD45
:100E500041F480114FF0000E013C90E645EA060E89
:100E60008DE60CEA135594EA0C0F08BF95EA0C0FB7
:100E70003FF43BAF94EA0C0F0AD150EA01347FF4FF
:100E800034AF95EA0C0F7FF425AF104619462CE7D6
:100E900095EA0C0F06D152EA03353FF4FDAE104639
:100EA000194622E750EA410618BF52EA43067FF48A
:100EB000C5AE50EA41047FF40DAF52EA43057FF41A
:100EC000EBAE12E700000000000000000000000090
:100ED0004FF0FF3C06E000BF4FF0010C02E000BF06
:100EE0004FF0010C4DF804CD4FEA410C7FEA6C5CE9
:100EF0004FEA430C18BF7FEA6C5C1BD001B050EA8C
:100F0000410C0CBF52EA430C91EA030F02BF90EA76
:100F1000020F0020704710F1000F91EA030F58BF35
:100F2000994208BF90422CBFD8176FEAE37040F097
:100F3000010070474FEA410C7FEA6C5C02D150EA35
:100F4000013C07D14FEA430C7FEA6C5CD6D152EAF0
:100F5000033CD3D05DF8040B704700BF84461046B5
:100F600062468C461946634600E000BF01B5FFF7B4
:100F7000B7FF002848BF10F1000F01BD4DF808ED84
:100F8000FFF7F4FF0CBF012000205DF808FB00BF55
:100F90004DF808EDFFF7EAFF34BF012000205DF8AF
:100FA00008FB00BF4DF808EDFFF7E0FF94BF0120FC
:100FB00000205DF808FB00BF4DF808EDFFF7CEFFFD
:100FC00094BF012000205DF808FB00BF4DF808ED3C
:100FD000FFF7C4FF34BF012000205DF808FB00BF0D
:100FE0004FEA4102B2F1E04324BFB3F5001CDCF14B
:100FF000FE5C0DD901F0004C4FEAC0024CEA507083
:10100000B2F1004F40EB830008BF20F001007047B1
:1010100011F0804F21D113F13872BCBF01F00040B4
:10102000704741F480114FEA5252C2F11802C2F1E6
:10103000200C10FA0CF320FA02F018BF40F0010067
:101040004FEAC1234FEAD32303FA0CFC40EA0C0019
:1010500023FA02F34FEA4303CCE77FEA625307D156
:1010600050EA01331EBF4FF0FE4040F4400070478D
:1010700001F0004040F0FE4040F40000704700BF27
:1010800040F60403C2F20003186870470000000035
:10109000032A2DE9F00F09D82AB10023CC5CC454EF
:1010A00001339342FAD1BDE8F00F70478307024441
:1010B0000ED0441C4D1C15F8017C04F00306234699
:1010C00001342946013504F8027C002EF3D100E0FA
:1010D000034611F003046DD0D71A0D1B032F2E68A1
:1010E00019DDC4F1040C4FEAC4081C1D4FEACC0CF6
:1010F00055F8047FC4EB0209234604310434B9F1E6
:10110000030F26FA08FA07FA0CFB3E464BEA0A07D9
:1011100044F8087CECDC9A42C5D901330131013234
:1011200011F8014C01330131934203F8024CF7D11D
:10113000B9E70C684033403143F8404C51F83C4C1F
:1011400043F83C4C51F8384C43F8384C51F8344C87
:1011500043F8344C51F8304C43F8304C51F82C4C97
:1011600043F82C4C51F8284C43F8284C51F8244CA7
:1011700043F8244C51F8204C43F8204C51F81C4CB7
:1011800043F81C4C51F8184C43F8184C51F8144CC7
:1011900043F8144C51F8104C43F8104C51F80C4CD7
:1011A00043F80C4C51F8084C43F8084C51F8044CE7
:1011B00043F8044CD41A3F2CBBDC11E00C6810330C
:1011C000103143F8104C51F80C4C43F80C4C51F8CA
:1011D000084C43F8084C51F8044C43F8044CD41A1A
:1011E0000F2CEBDC032C96DD1C1D0D1D55F8047C2B
:1011F000161B2346294604340435032E44F8087C84
:10120000F4DC88E70000000000000000000000009F
:10121000032AC9B270B408D82AB10346121803F8D9
:10122000011B9342FBD170BC70478307024409D075
:10123000441C04F00305234604F8011C0134002D6E
:10124000F7D100E00346D51A01EB01243F2D04EB52
:1012500004442CDD1C604033D51A43F83C4C3F2D30
:1012600043F8384C43F8344C43F8304C43F82C4C9A
:1012700043F8284C43F8244C43F8204C43F81C4CCA
:1012800043F8184C43F8144C43F8104C43F80C4CFA
:1012900043F8084C43F8044CDCDC08E01C601033D5
:1012A000D51A43F80C4C43F8084C43F8044C0F2D66
:1012B000F4DC032D08DD1D1D561B45F8044C032EE0
:1012C0002B4605F10405F7DC9A42ACD90133013213
:1012D00003F8011C01339342FAD1A4E70000000097
:1012E00041EA00039B0710B414D10B68A3F101324B
:1012F00022EA030212F0803F0CD10A1D40F8043BA1
:10130000114652F8043BA3F1013424EA030414F01B
:10131000803FF3D04A1E12F8013F00F8013B002B3A
:10132000F9D1013810BC7047000000000000000037
:10133000830770B5064614D10368A3F1013222EA8F
:10134000030313F0803F0CD1031D1A4653F8044BDE
:10135000A4F1013525EA040414F0803FF5D01046CD
:1013600000E0304603782BB1431C18460133047863
:10137000002CFAD100F004F8304670BD00000000E7
:1013800080EA0102844612F0030F4FD111F0030FDF
:1013900032D14DF8044D11F0040F51F8043B0BD03D
:1013A000A3F101329A4312F0803F04BF4CF8043B92
:1013B00051F8043B16D100BF51F8044BA3F10132A0
:1013C0009A4312F0803FA4F101320BD14CF8043B58
:1013D000A24312F0803F04BF51F8043B4CF8044B89
:1013E000EAD023460CF8013B13F0FF0F4FEA3323FA
:1013F000F8D15DF8044B704711F0010F06D011F8D9
:10140000012B0CF8012B002A08BF704711F0020FC6
:10141000BFD031F8022B12F0FF0F16BF2CF8022BB1
:101420008CF8002012F47F4FB3D1704711F8012BD4
:101430000CF8012B002AF9D1704700BF0000000012
:1014400020F0030110F00300C0F1000051F8043B4C
:1014500000F1040C4FEACC0C6FF000021CBF22FA22
:101460000CF213434FF0010C4CEA0C2C4CEA0C4CE0
:10147000A3EB0C0222EA030212EACC1204BF51F8D9
:10148000043B0430F4D013F0FF0F1FBF013013F4FE
:101490007F4F013013F47F0F18BF0130704700BF3A
:1014A00070B4002A45D041EA000313F0030329D1A8
:1014B000032A27D905680C68A54223D1141F3AD006
:1014C000A5F1013222EA050515F0803F0DD03AE082
:1014D0005B686A68A3F10135934225EA03052ED1C2
:1014E000043C28D015F0803F27D10D460346043137
:1014F0000430032CECD8661E2CB91C792A79A01A6A
:1015000070BC7047561E04780A789442F7D1C6B171
:101510008CB101368B1C891904E08B4203F1010365
:101520000BD044B113F8012C10F8014F9442F4D0C1
:10153000E5E71046E4E72046E2E70020E0E7661E24
:10154000E1E73046DCE71846DAE700BF00000000BC
:10155000704700BFAFF30080AFF30080AFF30080AF
:10156000FEE700BFAFF30080AFF30080AFF3008071
:1015700072B63E4880F309883D4B3E491A684FF0E9
:10158000404442F470020C601A600023E1EE103A0D
:10159000394A1360062383F31488BFF36F8F374AE9
:1015A000374B9A420BD2D143C91821F00301131FC4
:1015B00089184FF0553243F8042F8B42FBD1314A42
:1015C00082420CD23049131DC91A21F00301131FA6
:1015D00089184FF0553243F8042F8B42FBD109F0A4
:1015E000D7FD2A492A4B99420BD2C843C01820F094
:1015F0000300284C04300023E258CA5004338342CD
:10160000FAD1254A254B9A420AD2D143C91821F072
:101610000301131F8918002243F8042F8B42FBD1CA
:10162000FFF796FF1E4D1F4B9D420BD2EE43F6185F
:10163000B608043D0136002455F8043F01349847AC
:10164000B442F9D1FEF7A4FD174D184B9D420BD2C1
:10165000EE43F618B608043D0136002455F8043F61
:1016600001349847B442F9D1FFF77AFF000800200F
:1016700088ED00E034EF00E03CEF00E000000020E7
:1016800000040020000400200308002000080020BF
:101690000C17002028DD000810170020ACD1002016
:1016A00088010008880100088801000888010008F6
:1016B000FEE700BFAFF30080AFF30080AFF3008020
:1016C000F8B5094D094E07460FCD34460FC42B68B7
:1016D0002370B9692046FFF753FE054930462E2294
:1016E000BDE8F84000F0B4B900B2000810170020BF
:1016F00014B20008AFF30080AFF30080AFF30080B6
:1017000072B6FEE7AFF30080AFF30080AFF3008066
:1017100000F096FA00F084FC00F072FA00DF00BFDF
:10172000EFF30982064BD2F8CC1059609968683102
:101730009960683282F30988002383F31188704727
:1017400030EF00E0AFF30080AFF30080AFF3008034
:1017500008B50A4B00229A60094A07201021DA6076
:1017600000F0DEF80A204FF4007100F0D9F80B20E9
:101770008021BDE8084000F0D3B800BF00ED00E0D4
:101780000003FA05AFF30080AFF30080AFF30080F1
:10179000202383F311881A4B5B6813F4006322D073
:1017A000EFF30983A3F1680282F3098815494FF02A
:1017B00080708A6943F84C0C92F82300096892689B
:1017C000896898B1914294BF00220122A2B10E4AC9
:1017D00043F8502CF1EE10FA0C4A516841F0010028
:1017E00059665060704783F311887047914234BF47
:1017F00000220122002AEAD1054A43F8502CEBE7E7
:1018000000ED00E0941900201117000830EF00E00F
:101810001C170008AFF30080AFF30080AFF3008027
:1018200008B500F095F9202383F3118800F0D0F972
:1018300000F0D6F800F0ACF9002383F3118800F033
:1018400067F9BDE80840FFF7A3BF00BFAFF3008012
:101850002DE9F04F2DED108AC1F80CD0D0F80CD046
:10186000BDEC108ABDE8F08FAFF30080AFF30080CD
:1018700008B500F0C5F9002383F311882846A04776
:1018800000F0EEFC08BD00BFAFF30080AFF30080B6
:10189000F0B484080F4BC03400F0030553F82470F3
:1018A000ED00FF26420906FA05F627EA060601FAC8
:1018B00005F500F01F0002F16007012101FA00F0B8
:1018C0002E4343F8246043F8270043F82200F0BC7D
:1018D000704700BF00E100E0AFF30080AFF300808D
:1018E000410910B40C4B00F01F022031012404FA0E
:1018F00002F4820843F82140C03200F0030053F89C
:101900002210C000FF2404FA00F021EA000043F88E
:10191000220010BC704700BF00E100E0AFF3008080
:1019200082080A4B063200F0030030B4C00053F8BE
:101930002250FF2404FA00F425EA040401FA00F11D
:101940000C4343F8224030BC704700BF00ED00E07C
:10195000024B034A9B699A61FEE700BF941900207D
:101960005CD40008AFF30080AFF30080AFF30080D9
:1019700030B583B0FFF7ECFE00F002FA00F090F90A
:1019800001F0D6F801F01CF940210E480E4C00F091
:1019900057FB0E4BA0610125C36180F8205000F079
:1019A00067F9002383F3118862B60949A2690948DF
:1019B000916100934FF4A4712A46074B00F0C8FBD5
:1019C00003B030BDD8170020941900200004002077
:1019D000E0B400082818002051190008AFF3008077
:1019E000F8B500F07DF8164B9B6993F8232012B1EF
:1019F000013A83F823205A6A124D01325A62EB6889
:101A00002C680133AC42EB6018D0A768013FA76097
:101A1000A7B92368E6685D60E7602B6000F0B8F85E
:101A2000002383F311882069B047202383F31188B2
:101A300000F0CEF82C68A368002BEAD0F8BD00BFF8
:101A40009419002084190020AFF30080AFF30080C8
:101A5000F8B50E4C256807460E46134605B1F8BD8D
:101A60000B490C4A0E6012680B4920600B60002A7B
:101A7000F5D139463246094802F082FC084800F0A8
:101A800087FBBDE8F840FFF73BBE00BF8019002090
:101A900070190020A8D100207819002040B2000859
:101AA000A0860100AFF30080AFF30080AFF30080A9
:101AB000064B1B6823B9064B1B68002B00DD7047E3
:101AC00004480549D322FFF7C3BF00BF74190020A3
:101AD0007C19002054B200085CB20008AFF300800B
:101AE000064B1B68002B04DB054B1B68002B00DD3D
:101AF000704704480449C522FFF7AABF74190020A3
:101B00007C1900207CB200085CB20008AFF30080B2
:101B100010B5202383F31188094C2368002B02DDC4
:101B2000084A12682AB108480849B522FFF790FF11
:101B30002368013B2360002383F3118810BD00BF9D
:101B4000741900207C190020A0B200085CB20008C3
:101B500010B5202383F31188094C2368002B02DB86
:101B6000084A12682AB108480849A722FFF770FFFF
:101B7000236801332360002383F3118810BD00BF65
:101B8000741900207C190020A8B200085CB200087B
:101B9000084B1B68002B10B5074C05DD2368002B94
:101BA00002DD0023236010BD044805499A22FFF797
:101BB0004FFFF6E7741900207C190020B0B200082E
:101BC0005CB20008AFF30080AFF30080AFF3008099
:101BD000074B1B68002B10B5064C01DD236823B1B1
:101BE000054806498E22FFF733FF0123236010BD0D
:101BF000741900207C190020B8B200085CB20008FB
:101C0000084B1B6810B5084C2BB92368002B02DD6C
:101C10000023236010BD054805498222FFF718FF05
:101C2000F6E700BF741900207C190020D0B200082C
:101C30005CB20008AFF30080AFF30080AFF3008028
:101C4000074B1B6810B5074C0BB9236823B1064836
:101C500006497622FFF7FCFE0123236010BD00BF7A
:101C6000741900207C190020D8B200085CB200086A
:101C7000054B1B6813B9054B1B6823B10448054984
:101C80006B22FFF7E5BE7047741900207C19002015
:101C9000F4B200085CB20008AFF30080AFF300803C
:101CA000044B4FF0FF329A6000225B601B60DA60E9
:101CB000704700BF84190020AFF30080AFF30080AD
:101CC000F8B505460C4616461F46FFF709FFCDB18D
:101CD000C6B1BCB10E492F610B68EE609A689442A0
:101CE00004D91B68A41A9A68A242FAD35A682B60D6
:101CF0008B426A6015605D60AC6002D09A68141B0C
:101D00009C60F8BD034804495122FFF7A1FEE1E7BA
:101D10008419002010B3000820B30008AFF300803E
:101D200010B50446FFF7DCFE84B1E368A3B1236875
:101D30000C4A934203D09968A2688A189A60626834
:101D4000136023685A600023E36010BD064807490A
:101D50006D22FFF77DFEE8E7054804497022FFF792
:101D600077FEE4E78419002040B3000820B30008A0
:101D700050B30008AFF30080AFF30080AFF30080F2
:101D8000034B00225B601B609A605B611B617047C4
:101D900094190020AFF30080AFF30080AFF3008010
:101DA00010B50446FFF79CFE94F820308BB10E2B43
:101DB0000FD00022A1680A4B84F820201B689A6883
:101DC0008A42FBD25A682360626014605C602046DD
:101DD00010BD044804495A22FFF73AFEE9E700BF64
:101DE0009419002070B3000884B30008AFF300809A
:101DF00010B52023044683F31188FFF7E9FE94F819
:101E000020300D2B11D8DFE803F016101007100B4F
:101E1000101010101010100BA36A9A6801329A600B
:101E200094E80C001A60226853604FF0FF33A362FD
:101E30002046FFF7B5FFFFF7ABFE002383F31188C1
:101E400010BD00BFAFF30080AFF30080AFF30080A0
:101E500070B5104C0646FFF72BFEA5692368E969AB
:101E60001A6885F82060ADF1640054601426226081
:101E70000122814285F82360A36183F8202003D9E1
:101E80002846FFF71DFCA36918462946BDE87040A7
:101E9000FFF7DEBC94190020AFF30080AFF30080A1
:101EA00070B50C4686B00646FFF702FE631C12D0E2
:101EB0000B4D0C4AAB69214601A8FFF701FF3046E4
:101EC000FFF7C6FF049B13B101A8FFF729FFAB6919
:101ED000986A06B070BD3046FFF7BAFF004DF6E7CE
:101EE00094190020F11D0008AFF30080AFF30080CB
:101EF00070B5124D04460E46FFF7DAFDA869A268D8
:101F00008368A6629A4211D9FFF74AFFC369AC61A0
:101F1000ADF1640201219342064684F820100AD8EC
:101F200020463146BDE87040FFF792BC2046BDE830
:101F30007040FFF735BFFFF7C3FBF1E794190020AE
:101F400038B50F4C2368A5691A68012183F8201061
:101F50001421546085F8231028462260A361FFF7FE
:101F60001FFFEB69ADF16402934202D92846FFF7E7
:101F7000A7FBA0692946BDE83840FFF769BC00BF50
:101F800094190020AFF30080AFF30080AFF300801E
:101F900070B5134E3068B5690368AC685E600122A5
:101FA0003360002380F82020B06185F8203003469C
:101FB00000E01B689A68A242FBD8E9695A682B6066
:101FC000ADF16404A1426A6015605D6003D92846E2
:101FD000FFF776FBB0692946BDE87040FFF738BCD3
:101FE00094190020AFF30080AFF30080AFF30080BE
:101FF00008B5FFF75DFD064B1A689B6992689B6800
:102000009A4200D808BDBDE80840FFF7C1BF00BF35
:1020100094190020AFF30080AFF30080AFF300808D
:10202000044B9B6993F823300BB1FFF7B1BFFFF767
:1020300087BF00BF94190020AFF30080AFF300808A
:102040002DE9F001134C416465690461002200F13F
:102050003006816000F12C0C00F14C0745614FF017
:10206000020860610121142480F8208080F821207A
:1020700080F823400264C263426280F822108261C9
:102080002861C0F82CC046630663C761BDE8F00153
:10209000704700BF94190020AFF30080AFF30080B9
:1020A0002DE9F04704460D4617469846FFF718FD00
:1020B00014B1B5F59C7F38D21F482049A622FFF7FE
:1020C000C7FCA5F1640161181D4E089BD6F814C029
:1020D000E1604B641B4BC1F840800B66022384F81F
:1020E00020301423002504F1300204F12C0A04F1FD
:1020F0004C0984F8233001232661A760C4F814C07A
:102100002046746184F8215067642564E563656244
:1021100084F82230A561CCF81040C4F82CA062638A
:102120002263C4F81C90BDE8F0877F2FC4D8B8F1B3
:10213000000FC6D1C0E700BFB0B30008C4B30008A9
:102140009419002071180008AFF30080AFF30080ED
:10215000F0B51C4683B005460E461746202383F390
:102160001188FFF76DFD2346089C3A4631460094DE
:102170002846FFF795FF00210446FFF7B9FEFFF759
:102180003FFD002383F31188204603B0F0BD00BF5C
:1021900010B5044628B90A480A494FF49372FFF76C
:1021A00057FC202383F31188FFF74AFD21460620C0
:1021B000FFF776FEFFF724FD002383F3118810BD9F
:1021C00014B40008C4B30008AFF30080AFF300807C
:1021D00010B52023044683F31188FFF731FD064B29
:1021E000D968611A02D00620FFF75AFEFFF708FDF2
:1021F000002383F3118810BD84190020AFF3008001
:1022000038B5114B9C692546A06255F82C0FA842A1
:1022100006D00368E362FFF7C3FDE06AA842F8D185
:1022200094F821309B0704D1636922691A612269FD
:1022300053610E20FFF70CFE0448054940F281125D
:10224000BDE83840FFF704BC9419002024B400080E
:10225000C4B30008AFF30080AFF30080AFF3008099
:1022600010B52023044683F31188FFF7E9FC2046CC
:10227000BDE81040FFF7C4BFAFF30080AFF30080AC
:1022800038B50446202383F31188FFF7D9FC94F86E
:102290002230002B21D0013BDDB284F82250FFF721
:1022A000AFFC002383F311881DB994F820300E2B66
:1022B00000D038BD94F8213003F00303012B14D073
:1022C000022BF6D163692269A06C1A61226921464A
:1022D0005361BDE8384000F0FBBC094809494E2273
:1022E000FFF7B6FB94F82230D5E7636922691A61DB
:1022F000226920465361BDE8384000F071BC00BF40
:10230000A8B4000884B40008AFF30080AFF30080E5
:1023100010B5202383F31188FFF792FC064B1C694C
:1023200094F82230013384F82230FFF769FC00234F
:1023300083F31188204610BD94190020AFF300806C
:1023400038B50546202383F31188FFF779FC2C6903
:102350000E4B9C4218D094F82230FF2B0CD0013346
:1023600084F82230FFF74CFC002383F311882846C1
:10237000FFF786FF204638BD054806499622FFF73D
:1023800067FB94F82230EAE70024EBE79419002079
:1023900000B5000818B50008AFF30080AFF3008067
:1023A00038B504460D4628B1002903DB646024607B
:1023B000A56038BD024803495822FFF749FBF5E7FD
:1023C00040B5000850B50008AFF30080AFF30080BF
:1023D00038B50446FFF76CFB002C25D0A3682268B3
:1023E000002B0DDBA24205D012481349C022FFF793
:1023F0002FFBA368013B002BA36007DB002038BD47
:10240000A242F1D0013B002BA360F7DA0B4DAB6980
:102410009C6262681C605A60032063601360FFF76F
:1024200017FDAB69986A38BD05480349BC22FFF720
:102430000FFBD3E7A4B5000850B50008941900209D
:1024400094B50008AFF30080AFF30080AFF30080D5
:1024500010B52023044683F31188FFF7F1FB2046D3
:10246000FFF7B6FF0446FFF7CBFB002383F3118889
:10247000204610BDAFF30080AFF30080AFF30080C3
:1024800010B50446FFF72CFB002C22D0A36822686D
:10249000002B0DDBA24206D0114812494FF49B726B
:1024A000FFF7D6FAA3680133002BA36006DD10BD49
:1024B000A242F1D00133002BA360F8DC23681A6834
:1024C00018462260546000229A62BDE81040FFF76F
:1024D00067BC054803494FF49972FFF7B9FAD5E78D
:1024E00020B6000850B500080CB60008AFF3008015
:1024F00010B5044620B1002364602460A36010BDC1
:10250000024803495822FFF7A3FAF4E7B0B60008DF
:10251000C0B60008AFF30080AFF30080AFF30080D7
:10252000F8B53E4B05469C69FFF7C2FA002D6FD007
:10253000A86800283AD0A2688368934208D290F82D
:1025400020308260042B49D0052B34D0002B22D0C0
:102550002B461B689D4203D09968A2689142F8D22D
:102560005A682360626004205C601460A562FFF713
:102570006FFCAB68A34204D029482A49B222FFF776
:1025800067FA236CAB4215D027482649B322BDE831
:10259000F840FFF75DBA90E80C001A60026801216C
:1025A00080F820105360FFF7FBFBD1E7236CAC6091
:1025B000EB602564F8BD41680368866A0B600768B4
:1025C000334679601B689E4202D099689142F9D2E5
:1025D0005A680360426010605860B9E74168036858
:1025E000866A0B600768334679601B689E420DD08F
:1025F00099689142F9D25A6803604260106058604D
:10260000B068A2688368934299D3A1E73346F2E7A2
:10261000064804497D22FFF71BFA89E79419002038
:10262000F0B60008C0B6000804B70008E0B600081D
:1026300010B52023044683F31188FFF701FB2046E1
:10264000FFF76EFFFFF7DCFA002383F3118810BD5C
:10265000214A70B52023956983F31188FFF7F0FABA
:102660002C6C002C30D0A368AB4206D01B481C4910
:1026700040F20B12FFF7ECF92C6C2668E368A642D7
:102680002B641ED0696C4BB11A689A4203D09268D1
:10269000914238BF1146DB68002BF5D13368326CAC
:1026A000A9603046236000215C60A660E26034646B
:1026B000FFF71EFCFFF7A4FA002383F311882046DE
:1026C00070BD0023A360F5E7064805494FF4847206
:1026D000FFF7BEF92C6CC6E79419002040B700083C
:1026E000C0B600082CB70008AFF30080AFF300803D
:1026F00038B504460D46FFF7F3F9C4B1E26B94F820
:10270000203045EA0201082BE1630CD0092B00D0F0
:1027100038BDA36A19408B42FAD12046FFF740FB2F
:102720000023836238BDA36A1942F6D138BD03483D
:102730000349FE22FFF78CF9E0E700BFD0B700089D
:1027400098B70008AFF30080AFF30080AFF30080CC
:1027500070B505460E46FFF7C3F965B12C68A54272
:1027600008D0201D0BC83343E360FFF7C1FF246886
:10277000A542F6D170BD03480349BC22FFF768F9B2
:10278000ECE700BFF4B7000898B70008AFF300808B
:1027900010B4024659B1084B9B69986244680D20F9
:1027A00083E814005360236010BCFFF779BB4FF03F
:1027B000FF3010BC704700BF94190020AFF30080B9
:1027C00010B4C361019B40608A18002400608460DB
:1027D00041618161C1600261036210BC704700BF4A
:1027E00038B50446FFF77CF9E36820686361A361AC
:1027F0000023A042A3600AD06FF0010503682360A4
:102800005C60FFF7CDFA85622068A042F6D138BD42
:1028100038B504460D46FFF763F9A2696369934230
:10282000A2681AD00132A26003F8015B22696361D9
:1028300093420BD22068A0420DD0036823605C60F5
:10284000FFF7AEFA00238362184638BD2068E368BC
:10285000A0426361F1D1002038BD002AE2D06FF0C0
:10286000030038BDAFF30080AFF30080AFF300800A
:10287000F8B504460E46202383F31188FFF7E0F9EC
:10288000E3690BB120469847A5682046314655B903
:10289000FFF77EFF071EF7DAFFF7B2F92B4683F347
:1028A00011883846F8BDA3692269013DA56013F877
:1028B000017B9342A36124BFE368A361FFF7A0F902
:1028C000002383F311883846F8BD00BFAFF30080C2
:1028D0002DE9F0470446154688461E46C769002A7A
:1028E0003AD0202383F31188FFF7AAF908F1010AEF
:1028F0004FF00009A8440FB12046B847A56820460C
:1029000031465DB9FFF744FF0028F7D0FFF778F9AB
:102910002B4683F311884846BDE8F087A369013D43
:10292000A56013F8012B0AF8012C2269A3619342D8
:1029300024BFE368A361FFF763F9002383F31188E1
:10294000C24509F10109E6D0202383F31188FFF77E
:1029500077F90AF1010ACEE702480349E722FFF7B7
:1029600077F8BEE740B8000854B80008AFF300801D
:1029700010B4C361019B40608C18006082604161AB
:102980008161C1600461036210BC7047AFF30080D5
:1029900038B50446FFF7A4F8E3682269206863614C
:1029A000D21AA042A361A2600AD06FF001050368A9
:1029B00023605C60FFF7F4F985622068A042F6D1DD
:1029C00038BD00BFAFF30080AFF30080AFF30080ED
:1029D0002DE9F041202304468846164683F31188EA
:1029E000FFF72EF9A568204631465DB9FFF7D0FE06
:1029F000071EF7DAFFF704F92B4683F311883846F0
:102A0000BDE8F0816369013DA56003F8018B22698F
:102A10006361934224BFE3686361E3690BB12046BD
:102A20009847FFF7EDF8002383F311881F463846D7
:102A3000BDE8F081AFF30080AFF30080AFF300801A
:102A400038B50446FFF74CF86269A3699A42A26858
:102A500016D00132A26013F8015B2269A361934290
:102A60000BD22068A04206D0036823605C60FFF7A9
:102A700097F900238362284638BDE368A361F0E735
:102A8000002AE6D06FF0020038BD00BFAFF300802F
:102A90002DE9F0470446164688469A46D0F81C9021
:102AA000002A39D0202383F31188FFF7C9F80027C3
:102AB000A56820466B1E0DB3A36018F8013B65693D
:102AC00005F8013B236965619D4224BFE3686361AA
:102AD000B9F1000F00D0C847FFF792F8002383F345
:102AE00011880137013E14D0202383F31188FFF7AA
:102AF000A7F8A56820466B1E002DDDD12046514663
:102B0000FFF746FE0028D3D0FFF77AF82B4683F371
:102B100011883846BDE8F0870348044940F29B120B
:102B2000FEF796FFBEE700BF78B8000854B800086B
:102B3000054A064B22F007021A60054A054B22F0AF
:102B400007021A60704700BF83170010B4190020F5
:102B500000C00120B0190020AFF30080AFF3008067
:102B600010B50446FEF7BCFF074A08491368096818
:102B7000E01D20F00700C91A88429ABF181810609B
:102B80000023184610BD00BFB4190020B019002062
:102B900010B52023044683F31188FFF751F820462F
:102BA000FFF7DEFF0446FFF72BF8002383F31188BD
:102BB000204610BDAFF30080AFF30080AFF300807C
:102BC000044B0549002203F1100019609A60DA6095
:102BD000FFF78EBCB8190020912B0008AFF30080DE
:102BE000F8B5074600284DD057F8086C06F11000DC
:102BF000FFF71EFD0836A7F108053446AC4204D89D
:102C000063680833E3189D421FD3B442236801D0A0
:102C1000AC4202D21BB19D4201D31C46EEE757F8ED
:102C2000042C47F8083C256002F1080357F8080C0B
:102C3000E91881420FD0636803F10802A218954297
:102C400017D0BDE8F840FFF703BD11481149D02265
:102C5000FEF7FEFED9E74968EB585218083247F8EC
:102C6000042C47F8083C636803F10802A218954257
:102C7000E7D157F8041C57F8082C5B18083384E890
:102C80000C00DEE704480349C622FEF7E1FEABE78D
:102C9000D0B80008A0B80008C0B80008AFF30080A2
:102CA00038B504460D46FEF71BFF24B11DB123685D
:102CB0002B60256038BD034803499922FEF7C8FE02
:102CC000F5E700BF38B9000800B90008AFF300808D
:102CD00038B505460C46202383F31188FEF7B0FF74
:102CE00028462146FFF7DCFFFEF78AFF002383F327
:102CF000118838BDAFF30080AFF30080AFF30080E0
:102D00000368052B70B504460D46164608D0991D7C
:102D100004EB8302013344F821602360556070BDE9
:102D2000034804490D2200F00BFB2368EFE700BFC6
:102D300060B9000874B90008AFF30080AFF30080F9
:102D40000368002B70B5064609DD041F0025043416
:102D50006368A069984733680135AB42F7DC70BD02
:102D60000368002B2DE9F04106460F4690460ADD28
:102D7000051F0024043538466B6841469847336880
:102D80000134A342F6DCBDE8F08100BFAFF3008060
:102D9000002910B41DDD02464418002012F8011B62
:102DA0000823484004E0013B13F0FF03C0B20CD0FD
:102DB00010F0800F4FEA4000F5D080F02700013B73
:102DC000C04313F0FF03C0B2F2D1A242E6D110BC5F
:102DD00070470020FBE700BFAFF30080AFF3008037
:102DE00008B50F2003F004FF07EE900AB8EEE77A6B
:102DF000F0EE087A27EE277ADFED177AC7EE277A0A
:102E0000164B93ED017A77EEA77AF4EEC77AF1EEDE
:102E100010FA1CD9D3ED026AF4EEE67AF1EE10FA5C
:102E200010DA77EEC77A36EEC77ADFED0D6A67EE15
:102E3000A67AC7EE877AFDEEE77AF8EEE77A17EE24
:102E4000900A08BDDFED067A17EE900A08BDDFEDA7
:102E5000057A17EE900A08BD00F07F45A8B700205C
:102E60000000C84200000000AFF30080AFF3008014
:102E700008B5012003F0BCFE07EE900AB8EEE77A31
:102E8000F0EE087A27EE277ADFED047AC7EE277A8C
:102E900077EEA77A17EE900A08BD00BF00F07F45D5
:102EA00000B50E2083B003F0A3FE07EE900AB8EE43
:102EB000E77AF0EE087A27EE277ADFED087AC7EE98
:102EC000277A00200649074A074B77EEA77ACDED0F
:102ED000007A05F06DFE03B000BD00BF00F07F4535
:102EE000000010410000A04000009841AFF30080B6
:102EF00008B50E2003F07CFE07EE900AB8EEE77AE4
:102F0000F0EE087A27EE277ADFED047AC7EE277A0B
:102F100077EEA77A17EE900A08BD00BF00F07F4554
:102F20000048704700004041AFF30080AFF30080DD
:102F300008B50E2003F05CFE07EE900AB8EEE77AC3
:102F4000F0EE087A27EE277ADFED057AC7EE277ACA
:102F500077EEA77A17EE900ABDE8084005F040BE6C
:102F600000F07F45AFF30080AFF30080AFF3008047
:102F700010B5044604F0C4FE38B9FFF779FF0146E6
:102F80002046BDE8104005F0D3BC05F0D9F850B19B
:102F900007EE900AB8EEE77AF2EE047AC7EE277AE7
:102FA00017EE900A10BD062003F022FE07EE900AED
:102FB000B8EEE77AF0EE087A27EE277ADFED0A7AA4
:102FC000C7EE277A094977EEA77A17EE900A05F03F
:102FD000AFFE07EE900AFDEEE77A17EE900ABDE825
:102FE000104005F045BE00BF00F07F450080BB44A7
:102FF000F0B5204D2E4607460FCEA5B010AC0FC43D
:103000000FCE0FC496E803001B4E06961B4E079684
:103010004FF07A5608961A4E09964FF07C560A964B
:10302000184E283584E803000B960FCD164E0C96EB
:103030004FF07D560D96154E1AAC0E960FC40FCD5F
:103040000FC495E8030006AB84E803000093022355
:10305000019304AB029310AB4FF07E5604931AAC6D
:103060000B480F96394600220A23059404F088FC89
:1030700025B0F0BDB0B100089D80C63D7B142E3E4A
:1030800027A0B13E14D0183F1F852B3F14D0583FC6
:1030900090B90008AFF30080AFF30080AFF3008079
:1030A000012383610223C36003230362042343607B
:1030B000704700BFAFF30080AFF30080AFF3008034
:1030C000024B034A5A60034A9A607047A8B700202F
:1030D0009A99193F295C8740AFF30080AFF30080D5
:1030E00070B51148114E84B001F04AF9FFF710F99C
:1030F000044694F82220A368616A0D48013A0092C0
:1031000094F82020029156F822200192A5692146C8
:103110000022039501F034F92046FFF711F9044627
:103120000028E6D104B070BDE0B90008A0B90008DD
:1031300010BA0008AFF30080AFF30080AFF3008057
:10314000024803492B22FEF783BC00BF38BA0008AF
:1031500048BA0008AFF30080AFF30080AFF30080FF
:1031600010B5444C444801F00BF902222046434973
:1031700000F0B6FF4249434801F002F9424801F02D
:10318000FFF84249424801F0FBF820464149424AD3
:1031900000F0A6FF204641494FF4E13200F0A0FFC5
:1031A00020463F493F4A00F09BFF20463E493F4AA8
:1031B00000F096FF20463E493E4A00F091FF20462F
:1031C00001223D4900F08CFF204601223B4900F0DE
:1031D00087FF204601223A4900F082FF0122204663
:1031E000384900F07DFF204600F062FF2046364956
:1031F00000F02EFE2046354900F02AFE20463449D4
:1032000000F026FE204600F05BFF204601223149F7
:1032100000F066FF204601222F4900F061FF2046A2
:1032200001222E4900F05CFF204601222C4900F0CB
:1032300057FF20462B49012200F052FF2046012271
:10324000294900F04DFF20460422284900F048FF9C
:10325000204627494FF4C87200F042FF2046254916
:10326000012200F03DFF4FF4FA70BDE81040FEF778
:103270008FBF00BFA01A002060BA0008A8BA0008DB
:10328000D8BA0008B8BA0008E0BA00081CBB0008A9
:103290000CBB000824BB0008A086010034BB00085A
:1032A00044BB0008406F400154BB000800BD01054D
:1032B00064BB0008007A030A74BB00088CBB0008DA
:1032C0009CBB0008B8BB0008D4BB0008D8BB0008F2
:1032D000DCBB0008E8BB0008FCBB000810BC000811
:1032E0002CBC000848BC000864BC000878BC00087E
:1032F00090BC0008A8BC0008AFF30080AFF30080CA
:1033000008B5034B1A68C1B292681846904708BDC9
:1033100030D10020AFF30080AFF30080AFF3008026
:1033200038B5044B1C6805460A46246818462946E9
:10333000A04738BD30D10020AFF30080AFF300804C
:1033400070B5084B06460C4682B031461846154605
:10335000FEF716F821462A4602B0BDE87040FEF797
:1033600077BB00BFD8190020AFF30080AFF3008017
:1033700008B501F05DFB0E4800F08AF80D480E49D3
:1033800000F12C02C82300F0CBFDFFF7E9FE0B484B
:103390000B4901F08DFA0B480B4901F089FA0B48F3
:1033A0000B4901F085FABDE8084001F089BA00BF79
:1033B000514A0008A01A0020CCBC0008D4BC000868
:1033C00061310008DCBC000841310008E4BC0008A1
:1033D000E1300008AFF30080AFF30080AFF300806E
:1033E0002DE9F843204BDFF88C809B691F4A204E63
:1033F000DFF884909A61454608F14E0733681C480F
:10340000DB689847044600B200281DDB04281BD067
:1034100008280BD00D281AD01F28EFDDBD42EDD2B1
:10342000E0B2FFF76DFF05F8014BE7E7E4B2454571
:103430002046E3D0FFF764FF2020FFF761FF20461E
:10344000FFF75EFF013DD9E70020BDE8F883FFF7F5
:1034500057FF0A20FFF754FF002306482B70D9F8C6
:10346000003005469847C9E79419002070BD000850
:1034700030D1002004090020D8200020AFF30080C4
:1034800001207047AFF30080AFF30080AFF30080FE
:1034900010B5104B104C186082B01049104801F064
:1034A00007FF20464FF4007140F2823206F080FAA6
:1034B00020464FF4807140F2823206F079FA002300
:1034C00000934FF4A761074B07484022FEF740FEE8
:1034D00002B010BDD8200020000C0240F8080020E7
:1034E00030D10020E1330008A01B0020AFF30080A2
:1034F00008B501F085FC202383F3118818B9BDE8D5
:103500000840FEF79DBBBDE80840FEF761BB00BF69
:1035100010B501F075FC044628B9FEF771FB23468F
:1035200083F3118810BDFEF733FB002383F311886A
:1035300010BD00BFAFF30080AFF30080AFF3008099
:1035400008B5064B06481A6801321A6000F088F97F
:1035500004480D21BDE8084000F072B9002F00209A
:1035600080BD000898BD0008AFF30080AFF3008075
:10357000034B04485A68202101325A6000F060B9B8
:10358000002F0020E02E0020AFF30080AFF300807A
:1035900008B5074B07489A6801329A6000F060F955
:1035A000054840F60461BDE8084000F049B900BF95
:1035B000002F0020A8BD0008DC200020AFF3008011
:1035C00008B5044800F04CF903480721BDE808405D
:1035D00000F036B9BCBD0008CCBD0008AFF30080D8
:1035E000482808B515D04F2817D0572819D0422899
:1035F0001BD043281DD0742807D0542805D00F4B6A
:103600001A6901321A61002008BDFFF7D9FF0120B5
:1036100008BDFFF795FF012008BDFFF7A9FF0120B6
:1036200008BD00F02DF9012008BD00F061F901206E
:1036300008BDFFF7ADFF012008BD00BF002F00202F
:10364000022906D0032906D00748012918BF002007
:10365000704706487047032A03D8054800EBC200AC
:1036600070470020704700BF90BF000860BE000890
:1036700060BF0008AFF30080AFF30080AFF30080BD
:10368000022938B50C46054616D1202383F311884C
:10369000FEF79EFA28460121084A02F0C1F92146A8
:1036A000074A284602F0BCF9064801F081FFFEF700
:1036B0006FFA002383F3118838BD00BFE0BD000816
:1036C00070BE0008142F0020AFF30080AFF300801D
:1036D00070B5174E174C184D304601F009FF2146C2
:1036E000304601F02DFF24681448236D9A6B22F4B4
:1036F00000229A63FEF74CFD2046114902F058F96A
:10370000236D10489A6B42F400229A63002101F065
:10371000CFFD0421284640F2823206F049F92846BE
:10372000082140F28232BDE8704006F041B900BF86
:10373000142F002080BF000800000240A086010076
:10374000A0BE0008B8D00020AFF30080AFF3008027
:10375000044BD3F854321B681878031F5842584161
:10376000704700BF142F0020AFF30080AFF300803C
:1037700010B5114B114C19682269114800F000FE78
:103780002168104800F0FCFD61680F48202200F01D
:10379000F7FDA1680D4840F6046200F0F1FDE16814
:1037A0000B4840F6046200F0EBFD0A4B0A4819682A
:1037B000BDE8104000F0E4BDE0340020002F002000
:1037C000A0BF0008C8BF0008E4BF000808C0000888
:1037D0002CC00008A031002050C00008AFF30080CA
:1037E000124B134A9B6970B5124E134D9A61FFF745
:1037F000AFFF78B133680F48DB68984704B22046C2
:10380000FFF7EEFE58B12B6801332B60FFF7A0FFE6
:103810000028EFD14FF47A70FEF7BAFCE7E72146B3
:103820000648224600F0ACFDEDE700BF94190020E9
:103830006CC00008142F0020E034002080C0000875
:1038400038B5044B1C6805460A46246818462946C4
:10385000A04738BD142F0020AFF30080AFF30080E5
:1038600008B50146034800F08BFDBDE80840FFF7AE
:103870007FBF00BFE0CE0008AFF30080AFF3008051
:10388000114B12481A6810B501321A60FFF7E8FFB1
:103890000F48104C032100F073FD0F48036803220A
:1038A0005B682146984701460C4800F069FDB4F971
:1038B0000010A2780A4800F063FD0A4AA178B4F922
:1038C00000301268D15410BDA0310020A0C0000803
:1038D000B0C000089C310020142F0020C0C0000898
:1038E000CCC0000854090020AFF30080AFF3008083
:1038F00008B5094B0948DA680132DA60FFF7B0FF12
:10390000074B0849186840F60462FDF7C1FBBDE8A3
:10391000084004F00DBD00BF002F0020E4C00008E7
:10392000480A0020DC200020AFF30080AFF30080C5
:10393000034B0448196840F60462FDF7A9BB00BFB9
:10394000480A0020DC200020AFF30080AFF30080A5
:1039500000B50F480F4983B000F12C02C82300F0D6
:10396000DFFA0D4800F00CFDFFF7B2FEFFF7E0FFB5
:103970000A480B4900F09CFF002300934FF44E715E
:10398000084B09484022FEF7E3FB03B000BD00BF2F
:10399000E4340020F4C0000804C1000820C100087D
:1039A00071370008E1370008A8310020AFF300802C
:1039B00010B52DED028B04F0BBFD1D4C20600620E0
:1039C00003F016F907EE100AF8EEC77AF0EE088A4F
:1039D00067EEA87A9FED178AC7EE887A164977EEC8
:1039E000A77A17EE900A05F0A3F960600E2003F0A5
:1039F000FFF807EE100AF8EEC77A104967EEA88ABA
:103A0000C8EE887A77EEA77A17EE900A05F090F95B
:103A1000A060FFF7E5F9E060FFF72AFA2061FFF701
:103A20003FFA6061FFF77CFAE061BDEC028B10BDEC
:103A3000E02E002000F07F450080BB4400C02845F8
:103A4000014B01221A607047DC380020AFF3008080
:103A5000C0B507EE101A2DED028BF8EEC77ADFED38
:103A6000148A87EEA88A83B0074618EE101A04F06D
:103A70005FFF07EE900A18EE100A67EEA88AFCF7BF
:103A8000BBFFFDEEE88A02460B46CDED008A3946C3
:103A9000084800F075FC18EE906A0748074918EED0
:103AA000902A03B0BDEC028BBDE8C04000F078BBAB
:103AB0000000C84230C10008DC37002050C10008B7
:103AC000084B094910B5002818BF19460446074895
:103AD00000F056FC06480749224600F001FB064B61
:103AE0001C6010BD68C100086CC1000870C10008EE
:103AF000E03800208CC10008E4350020AFF30080DE
:103B0000F8B52DED028BFFF7BBFC10B9BDEC028BB5
:103B1000F8BD654C23687BB10320012103F088FBCD
:103B2000624B63481A68634B21681B6800F028FCED
:103B30006148FEF72DFBFEE700F052FB03F058F959
:103B40005E4B1B68002BE1D05D4F5E4BFD685E4E07
:103B50006D09A3FB052503F053F93368ED09834292
:103B600004465A4B02D11A68AA42CFD01D60FF68A2
:103B700004F0DEFC564B57493460A3FB07277F094E
:103B800006EE907ADFED547AB8EEE67A0323C7EEBC
:103B9000276A05465148F0EE088A16EE902A00F092
:103BA00047FA22464D484E4900F0FAF92A464D4957
:103BB0004A4800F0F5F904F05BF94B4902464748E2
:103BC00000F0EEF9FFF754F90146284604F0B0FE84
:103BD000022302464549414800F02AFAFFF760F9FE
:103BE0000223024642493D4800F022FAFFF780F9DD
:103BF000022302463F49394800F01AFAFFF738F924
:103C0000022302463C49354800F012FAFFF790F9CA
:103C100005210246314800F03BFAFFF7E1F807EED4
:103C2000100ABDEEC77A032117EE102A2B4800F0C8
:103C30001FFA062002F0DCFF06EE900AF8EEE67AA4
:103C40009FED2E8A67EEA87A2D49C7EE887A77EE27
:103C5000A77A17EE900A05F06BF8012102461F487B
:103C600000F016FA0E2002F0C3FF07EE100AF8EE7D
:103C7000C77A244967EEA88AC8EE887A77EEA77AD1
:103C800017EE900A05F054F802210246134800F09E
:103C9000FFF9124802F0ECFD1048BDEC028BBDE8C4
:103CA000F84000F00DBA00BF801900207019002004
:103CB00090C1000878190020A0860100E43500209A
:103CC00084190020C55A7C0A580900205C0900208C
:103CD0001F85EB51ACC1000800007A44E038002099
:103CE000B4C10008BCC10008C0C10008C4C10008BC
:103CF000D0C10008D4C10008DCC1000800F07F4535
:103D00000080BB4400C02845AFF30080AFF30080C3
:103D100008B512481249134A4FF4FA7300F000F93B
:103D20001148124900F12C02C82300F0F9F80120D3
:103D3000FFF7C6FE0E480F4900F0B2FD4FF41660C3
:103D40004FF48C71FFF784FE0B480C4900F0A0FD86
:103D50000B480C49BDE8084000F0AABDE03800203F
:103D6000E0C10008E8350020DC370020ECC1000885
:103D700000C20008513A00088CC10008C13A00088E
:103D8000F8D00008413A0008AFF30080AFF300809C
:103D900070B582B00646FDF753FB124B124C054638
:103DA00093E803002060A180601D294601F020F8FF
:103DB00003463A2203F8012B314618465E19FDF7F7
:103DC000DFFA0D220A2342557370FFF759FB08B939
:103DD00002B070BDB11C2046091B02B0BDE87040A6
:103DE000FFF79EBA10C20008F0600020AFF3008019
:103DF00008B5052806D8DFE800F00C0E10121403F1
:103E0000094808BD09480A492222FFF799FA00200B
:103E100008BD084808BD084808BD084808BD08484E
:103E200008BD084808BD00BF2CC2000830C2000809
:103E300048C200080CD4000820C200081CC20008B8
:103E400018C2000824C20008AFF30080AFF300805E
:103E5000F8B5044608460F46FDF7F2FAD4F8F430F8
:103E60000546002B32D0D4F8F800D4F8FC20C31A51
:103E7000EB189A4209DD6A1C3946FDF709F9D4F8B6
:103E8000F8305D19C4F8F850F8BD214D0FCD6060D1
:103E9000A16003CD2D88E26023616061A161A583EB
:103EA000216804F11D00FDF71BFA261D194B801B2C
:103EB00024181B883946A3803046FDF739FA164985
:103EC00030464922BDE8F840FFF73ABA134D0FCD0E
:103ED0006060A16003CD2D88E26023616061A16113
:103EE000A583216804F11D00FDF7FAF9261D094B91
:103EF000801B24181B883946A3803046FDF718FA2A
:103F0000054930463F22BDE8F840FFF719BA00BF27
:103F100084C2000880C2000848C2000864C20008C9
:103F2000F8B5044615460E461F46054800F028FA27
:103F30002660C4F8F450C4F8FC70C4F8F850F8BD1A
:103F4000A0C20008AFF30080AFF30080AFF30080A1
:103F500038B5041D0546204600F04AFF2846214694
:103F6000BDE83840FFF774BFAFF30080AFF30080C7
:103F700038B504461546FFF76BFF20462946FFF784
:103F8000E7FF03492046BDE83840FFF761BF00BFA7
:103F9000D8BB0008AFF30080AFF30080AFF3008020
:103FA000F8B50C4D04461746061DFFF751FF204695
:103FB0002946FFF74DFF3946304600F019FF2046ED
:103FC0003146FFF745FF20462946BDE8F840FFF798
:103FD0003FBF00BFD8BB0008AFF30080AFF3008045
:103FE0002DE9F8439046051D99460446089F0F4E5B
:103FF000FFF72EFF4146284600F0FAFE20462946EC
:10400000FFF726FF20463146FFF722FF49463A4692
:10401000284600F055FE20462946FFF719FF2046A6
:104020003146BDE8F843FFF713BF00BFD8BB000817
:104030002DE9F0410C4D044698461746061DFFF742
:1040400007FF20462946FFF703FF42463946304620
:1040500000F036FE20463146FFF7FAFE204629469C
:10406000BDE8F041FFF7F4BED8BB0008AFF3008015
:1040700038B5044608461546FFF7BAFE2A460146FB
:104080002046BDE83840FFF78BBF00BFAFF300808C
:1040900070B5044608461546FFF7AAFE2A460146B3
:1040A00002232046BDE87040FFF7C2BFAFF3008097
:1040B000D0F8F430C0F8F830704700BFAFF300809C
:1040C00010B50446D0F8F400FFF762FED4F8F430DF
:1040D000C4F8F83010BD00BFAFF30080AFF300802C
:1040E000D0F8F43070B50446C0F8F8300D460949F0
:1040F0001646FFF7ADFE20460749FFF7A9FE20460A
:1041000029463246FFF734FF2046BDE87040FFF7EE
:10411000D7BF00BFD4BB0008D8BB0008AFF30080F6
:1041200070B50446D0F8F4000C4DFDF789F9064649
:10413000FFF7DEF92846FDF783F941F28733861948
:104140009E4204DCD4F8F4102818FDF719F9FFF7A3
:10415000DFF9D4F8F430C4F8F83070BD684D0020B1
:10416000D0F8F43070B50C4DC0F8F830044616465F
:10417000FFF76EFE20462946FFF76AFE20463146CD
:10418000FFF7E6FE20462946FFF762FE2046BDE81F
:104190007040FFF7C5BF00BFD8BB0008AFF3008079
:1041A000D0F8F43070B50446C0F8F8300D4609492F
:1041B0001646FFF74DFE20460749FFF749FE204609
:1041C00029463246FFF7D4FE2046BDE87040FFF78F
:1041D000A7BF00BFD4BB0008D8BB0008AFF3008066
:1041E00038B50A4C0A4DFFF783F929462046FDF7FA
:1041F000C7F800232B70FFF78BF9237803B938BD7C
:104200002046BDE83840FFF7C3BD00BFE0390020BD
:10421000684D0020AFF30080AFF30080AFF3008063
:104220002DE9F041B1F1000804463BDD007800289B
:1042300032D02146002311F8016F0133002EFAD14C
:1042400098452ADCB04612F0020F0CBF202630261B
:1042500012F0010224D1B8F1000F27DD47463046A5
:10426000FFF74EF8013FFAD120784546B84630B105
:10427000FFF746F814F8010F01350028F8D1B8F11E
:10428000000F06DD44463046FFF73AF8013CFAD10C
:1042900045442846BDE8F0810346C3EB0808D2E751
:1042A0000025E4E7202600250078E0E71546DEE754
:1042B000F0B587B005460C9F0446002837D0002A89
:1042C00031D100208DF81700002C4CD00D980DF145
:1042D0001605A0F13A0CB4FBF1F601FB1644092CCB
:1042E000C8BF644404F1300E34462E4605F801E997
:1042F000002CF0D172B1002B24D12D2206F8012C14
:104300000024013E304619463A46FFF789FF00195E
:1043100007B0F0BD16490968F1B12B2106F8011C60
:104320001446013EEEE70A2918D00022C9E71946D3
:1043300003A830233A468DF80C308DF80D50FFF766
:104340006FFFE5E7BA07D8D52D200193FEF7D8FF18
:10435000019B0124013BD5E71446D3E70028E4DAAA
:1043600044420122ADE70DF11706002AD2D0C2E780
:1043700078740020AFF30080AFF30080AFF30080CB
:104380000FB42DE9F04FA5B0FFF77AF820B925B0AA
:10439000BDE8F04F04B070472E9BDFF880B31A7869
:1043A0000021CBF80010002AF1D0252ADFF8709305
:1043B0000DF1BC085ED158785C1C0028E7D0252898
:1043C0005AD02D2800F0818100252B2800F077811C
:1043D000302807D1631C1C4613F8010B302845F028
:1043E0000205F8D02E2800F04881A0F13003092BF7
:1043F00040F24381062600276C2804BF6078013410
:104400005838202800F22F81DFE810F01F012D011D
:104410002D012D012D012D012D012D012D012D012C
:104420002D010E0100012D014E002D012D012D0148
:104430002D012D012D012D012D012D012D012D010C
:104440002D0140002D0139002D012D012100612396
:1044500058F8040B00950193102100223B46FFF70A
:1044600027FF0022CBF800206278631C002A8ED040
:10447000252AA0D018781C46FEF742FFF4E76123F6
:1044800058F8040B009501930A21E6E758F8040B4D
:10449000A14B2A463946002808BF1846FFF7C0FE40
:1044A0000022CBF80020DFE718F0070F18BF08F153
:1044B0000408F8E80201FCF793FD07EE900AF5EE18
:1044C000C07AF1EE10FA00F10481DBF80030002B25
:1044D00000F00C812B238DF83C300DF13D0E0FA820
:1044E000072E0AD8DFF83CA20AEB860393ED007A88
:1044F00077EE877A002E00F0FC800022012303EB88
:10450000830301325B00B242F9D106EE903AB8EE75
:10451000667AFCEEE76A16EE902A002A00F0E28046
:1045200016EE903A4FF0000C05A9A9FB03A2D208A1
:1045300002EB820AA3EB4A0303F1300A01F80CA054
:1045400013460CF1010C002AEFD1BCF1000F00F072
:10455000C9806144F44411F8013D0EF8013BE64581
:10456000F9D1002E3ED0F8EE666A734677EEE67A11
:104570002E2227EE877A03F8012BBCEEC77A03932D
:1045800017EE103A002B00F0C0804FF0000C05A988
:10459000A9FB03A2D20802EB820AA3EB4A0303F1B0
:1045A000300A01F80CA013460CF1010C002AEFD1DF
:1045B000664540F2A1800CF1FF330DF1130205A90D
:1045C00002EB060CCB18302203F8012F6345FBD118
:1045D0008B1913F8012D8B420EF8012FF9D1039B93
:1045E00003EB060E4FF0000A8EF800A09DF83C3059
:1045F00023B1034613F8012F002AFBD12A4639467E
:10460000FFF70EFE0022CBF800202DE7612358F8BB
:10461000040B019300953B460A210122FFF748FE57
:104620000023CBF800301FE758F8043B2A464FF030
:10463000000A04A839468DF811A08DF81030FFF754
:10464000EFFD0022CBF800200EE7412358F8040BC1
:10465000019300953B4610210022FFF729FE00231D
:10466000CBF8003000E72520FEF74AFE2078FEF761
:1046700047FE0023CBF80030F6E60027AE4623467F
:1046800006263D4603E0A0F1300613F8010FA0F125
:1046900030022E28D1B21C460CD009290DD806EBC9
:1046A000860100EB410007EB8704002DEBD102EB04
:1046B0004407EAE700260125E7E775469CE6012363
:1046C0006078CBF80030E41882E69C1C98780125CD
:1046D0007BE62D238DF83C30F1EE677A0DF13D0E2F
:1046E0000FA8FDE630230EF8013B3AE70FA88646F7
:1046F000F6E6B7EE007A0CE7BCF1000F08D13023E4
:104700008EF801300EF1020E6CE717EE10CA4FE77B
:10471000664605A95CE700BFB0C2000878740020B7
:10472000CDCCCCCCC0C20008AFF30080AFF300808A
:1047300038B50446012504E014F8013B2D2B0AD1BD
:104740006D422046FCF77CFE21460028F4D111483A
:1047500000FB05F038BD00281ADD303BDAB2092A2B
:1047600012D808180138002205E011F8013F303B4B
:10477000DCB2092C08D802EB8202814203EB420230
:10478000F3D102FB05F038BD034800FB05F038BD4E
:10479000002038BD3041AB00D0BE54FFAFF30080E5
:1047A00070B50C460546FCF74BFE06462046FCF766
:1047B00047FE864201D0002070BD002E10DD2A7811
:1047C00023789A42F7D12A462146002305E012F8C1
:1047D000015F11F8014FA542EDD101339E42F6D1A0
:1047E000012070BDAFF30080AFF30080AFF3008015
:1047F00070B50C4E0C483168FFF7C2FD3368002BD2
:104800000FDD0A4D002404EB440305EB830255F849
:10481000231007485268FFF7B3FD33680134A34201
:10482000F1DC70BD7C740020E0C2000848760020F6
:10483000F8C20008AFF30080AFF30080AFF3008050
:1048400001460148FFF79CBD10C30008AFF300808C
:10485000F0B40B4C2368202B0BD00A4F03EB43061C
:10486000B600BD190133B85123606960AA60F0BC7D
:104870007047054805491722F0BCFEF761BD00BF2F
:104880007C7400204876002020C300083CC3000848
:104890000A460121FFF7DCBFAFF30080AFF30080D1
:1048A0000A460421FFF7D4BFAFF30080AFF30080C6
:1048B0000A460021FFF7CCBFAFF30080AFF30080C2
:1048C00008B505480549FFF7F3FF05480549BDE868
:1048D0000840FFF7DDBF00BF5CC30008F1470008D8
:1048E00064C3000841480008AFF30080AFF30080C4
:1048F0004368032B2DE9F04107460E4655D0042BA3
:1049000008460AD0022B23D0FFF712FF464B9842ED
:1049100018D0BB689847BDE8F081FCF791FD0028EE
:10492000F9DD3378202B76D0741C002302E0157853
:10493000202D28D001339842224604F10104F6D1FB
:10494000BDE8F08139483146BDE8F041FFF718BDB8
:10495000FCF776FD00280EDD33782E2B61D0711C1C
:10496000002302E014782E2C24D0013398420A460A
:1049700001F10101F6D13046FFF7DAFE06EE100A2A
:10498000F8EEC67A41E0581CC5D05D1C00211170BC
:104990003046FFF7CDFE04467019FFF7C9FEBB682D
:1049A000014620469847BDE8F0818368084698474D
:1049B000BDE8F081591CDED05D1C4FF0000882F884
:1049C00000803046FFF7B4FE751906462846FCF70E
:1049D00037FD04462846FFF7ABFE44451EDD43463F
:1049E000F7EE007AB2EE047A01339C4267EE877AE2
:1049F000FAD107EE100AF8EEC76A06EE106AC6EEA4
:104A0000A77AB8EEC67A77EE277ABB6817EE900AD7
:104A10009847BDE8F08132460125B7E7F7EE007A06
:104A2000E7E732460125C8E7D0BE54FF6CC3000853
:104A30000348044900F12C02C823FFF771BA00BFF4
:104A40004875002084C30008AFF30080AFF30080F6
:104A50002DE9F0470146064604225348FCF720FDA5
:104A6000002854D0002E00F09B80504B504C0FCBB0
:104A700007C42046314600F8013BFCF731FC4D4BA2
:104A80001B880380357855B1202D4FF0000502D1E9
:104A900005E0202B03D00135735D002BF9D13046A2
:104AA000FCF7CEFCA8428046434B5BD0D3F8009085
:104AB0000024A145745535441ADD404F01E04C45B2
:104AC00016D004EB4403304657F82310013407EBAB
:104AD000830AFFF765FE0028F1D05046691CFFF7F6
:104AE00007FF374832494246BDE8F047FFF758BB59
:104AF000002233483349FFF753FB31482C494FF02C
:104B0000FF32FFF74DFBBDE8F047FFF771BE2E48BF
:104B10003146341DFFF734FC2B482146FFF730FCAB
:104B20003379212B3ED0002B34D0731D01E0002AB5
:104B300030D01E4613F8012B212AF8D1002306F8A5
:104B4000013B2046FFF7F4FD04463046FCF778FCB5
:104B50008442024689D01D4821463346BDE8F047CD
:104B6000FFF70EBC1D68002DC2DD144F002401E0CC
:104B7000AC42BDD004EB4403304657F82310013457
:104B800007EB8309FFF70CFE0028F1D0D9F80830B5
:104B90009847A6E70E482146BDE8F047FFF7F0BB6F
:104BA000BDE8F0872646C9E794C30008FCC30008A7
:104BB0008074002014C200087C7400204876002015
:104BC000487500200CC400089CC30008C8C3000836
:104BD000ACC30008AFF30080AFF30080AFF30080F8
:104BE00070B400F10B0600F10A04B1FBF2F502FB10
:104BF000151101F13003392BC8BF01F137032946E4
:104C0000254604F801390029EFD1711B2A464118C5
:104C100001E012F8013F00F8013B8842F9D170BC75
:104C2000704700BFAFF30080AFF30080AFF30080A8
:104C3000092870B427DD632829DDB0F57A7F24DBED
:104C400042F20F73984224DD174B984223DD174B35
:104C5000984222DD1649884223DD164DA8421EDD0A
:104C60000123154C02E00133A8420ADD84FB0062F7
:104C7000C017C0EBA20088421A46F4DC981D70BC35
:104C80007047D01DFBE70020F9E70220F7E701207D
:104C9000F5E70320F3E70420F1E70520EFE707201D
:104CA000EDE70620EBE700BF9F8601003F420F00C3
:104CB0007F969800FFE0F50567666666AFF30080B3
:104CC000F0B52DED028B08EE101AB5EEC08AF1EEAC
:104CD00010FA83B0164609D52D23B1EE488AB5EEF9
:104CE000C08AF1EE10FA00F8013BF6D4FDEEC88A56
:104CF0000A2218EE901AFFF773FF002E044633DDE8
:104D0000F8EEE88A05462E23771E38EE688A05F805
:104D1000013B072F42D8DFE807F02F3235383B3E02
:104D2000042CDFED1F7AF8EEE77A27EE888ABDEED5
:104D3000C88A18EE100A8DED018AFFF779FF431C2F
:104D4000B342019909DA2346E419241A302203F800
:104D5000012FA342FBD13F1AED1928460A22FFF783
:104D60003FFF002304460370204603B0BDEC028BD6
:104D7000F0BDDFED0C7AD6E7DFED0B7AD3E7DFEDA0
:104D80000B7AD0E7DFED0A7ACDE7DFED0A7ACAE7E2
:104D9000DFED097AC7E7DFED097AC4E7FEE700BF78
:104DA0008096980000E1F5050A000000640000000C
:104DB000E803000010270000A086010040420F0019
:104DC0000B1E10B5044604DBFFF70AFF0023037037
:104DD00010BD2D2100F8011B5942FFF701FF0023F0
:104DE000037010BDAFF30080AFF30080AFF300801D
:104DF0000A22FFF7E5BF00BFAFF30080AFF30080EA
:104E0000034B18680028D4BF00200120704700BF62
:104E100074190020AFF30080AFF30080AFF300807F
:104E20002DE9F041194C984625680F460446164670
:104E3000202383F31188002D13DDFCF7C9FEE368FE
:104E400013B12046FCF76CFF4346204639463246F4
:104E5000FCF736FFFCF79CFE002383F31188BDE8C6
:104E6000F081FCF7EDFEE36813B12046FCF758FF34
:104E70004346204639463246FCF722FFFCF7C0FE87
:104E8000002383F31188BDE8F08100BF741900206E
:104E900008B504F005FA0A4804F09AFC00F030F86E
:104EA00000F0A6F800F05CF900F0DAF900F058FC28
:104EB00000F066FD00F014FBBDE8084006F070B994
:104EC000F0DB0008AFF30080AFF30080AFF30080A9
:104ED00008494A68801882424B6802D29A4202D935
:104EE00070479A42F7D9984294BF00230123002BC0
:104EF000F1D17047001000E0AFF30080AFF3008005
:104F000004F076BAAFF30080AFF30080AFF3008017
:104F100000230122027043608360C3600361436128
:104F20001830FDF7E5BA00BFAFF30080AFF30080A3
:104F300038B504460D46C8B1202383F31188FCF729
:104F40007FFE2378013B012B04D90B480B497522C6
:104F5000FCF77EFD2046656004F07AFA0223237098
:104F6000FCF74EFE002383F3118838BD0448034943
:104F70007122FCF76DFDDFE74CC4000830C4000867
:104F800020C40008AFF30080AFF30080AFF30080CF
:104F9000F8B504460E4617461D46FCF7A1FDDCB1E8
:104FA000D6B1CFB1012D01D0EB0715D4207802285E
:104FB00008D0042806D0052804D00A480A49C72288
:104FC000FCF746FD03232046A760E56026612370B9
:104FD000BDE8F84004F09CBA04480349C322FCF73A
:104FE00037FDE3E790C4000830C4000878C4000827
:104FF00005F0DEBCAFF30080AFF30080AFF30080BC
:105000000123037000234360704700BFAFF30080AB
:1050100038B504460D46D0B1C9B1202383F31188B9
:10502000FCF70EFE2378013B012B04D90B480C49F9
:105030006422FCF70DFD2046656005F0E9FC0223C3
:105040002370FCF7DDFD002383F3118838BD05488C
:1050500003496022FCF7FCFCDFE700BF7CC50008C9
:1050600060C5000850C50008AFF30080AFF30080B2
:1050700010B50446C0B1202383F31188FCF7E0FD8E
:105080002378013B012B04D90A480B497822FCF70D
:10509000DFFC204605F07CFD01232370FCF7B0FD0A
:1050A000002383F3118810BD044803497422FCF7E0
:1050B000CFFCE0E798C5000860C500088CC5000873
:1050C00010B50446B8B1202383F31188FCF7B8FD6E
:1050D0002378022B04D00B480B498A22FCF7B8FC3A
:1050E000204605F09DFD03232370FCF789FD002376
:1050F00083F3118810BD054803498722FCF7A8FCFB
:10510000E1E700BFB8C5000860C50008A8C50008F1
:1051100010B50446C0B1202383F31188FCF790FD3D
:105120002378023B032B04D90A480B499E22FCF743
:105130008FFC204605F09CFD02232370FCF760FDE8
:10514000002383F3118810BD044803499922FCF71A
:105150007FFCE0E7D8C5000860C50008C8C50008A6
:1051600005F0EEBDAFF30080AFF30080AFF3008039
:105170000123037000234360704700BFAFF300803A
:1051800038B504460D46E0B1D9B1202383F3118828
:10519000FCF756FD2378013B012B04D90C480D493F
:1051A0006922FCF755FCAB8865602046238105F039
:1051B000DFFD02232370FCF723FD002383F3118816
:1051C00038BD054803496522FCF742FCDDE700BF16
:1051D0001CC6000800C60008F0C50008AFF3008038
:1051E0000C30FDF775BB00BFAFF30080AFF300805C
:1051F0000C304FF0FF33FDF76BBB00BFAFF3008007
:105200003030FDF745BC00BFAFF30080AFF3008046
:1052100030304FF0FF33FDF73BBC00BFAFF30080F1
:105220000C30FDF725BB00BFAFF30080AFF300806B
:105230000C304FF0FF31FDF71BBB00BFAFF3008018
:105240003030FDF7C5BB00BFAFF30080AFF3008087
:1052500030304FF0FF32FDF7BBBB00BFAFF3008033
:1052600005F01EBFAFF30080AFF30080AFF3008006
:1052700070B50E4B82B005460446009045F8043BDD
:10528000656001250B46164604F1540110220C30CE
:105290002572FDF795FA009404F1300004F16401E1
:1052A00010223346FDF764FB02B070BD40C7000812
:1052B00038B504460D46C8B1202383F31188FCF7A6
:1052C000BFFC237A013B012B04D90B480B49A622D2
:1052D000FCF7BEFB2046294605F002FF022323729D
:1052E000FCF78EFC002383F3118838BD0448034982
:1052F000A122FCF7ADFBDFE7E8C60008CCC600083A
:10530000C0C60008AFF30080AFF30080AFF30080A9
:1053100038B504460D46FCF7E3FBD4B163693BB1F5
:1053200004F10C002946FDF773FA00280BDB38BDA9
:10533000201D0421FDF70CFA04F10C002946FDF7AD
:1053400067FA0028F3DA201D8021BDE83840FDF718
:10535000FFB903480349D822FCF77AFBDEE700BF18
:1053600014C70008CCC60008AFF30080AFF300807C
:1053700070B5046AD4F854321A681178042900D040
:1053800070BD217A0229FBD112891B7942FA03F3FD
:1053900013F00105F4D1216CE36BA26BC91A8E1ACC
:1053A000EED0FCF72DFC2B4683F31188D4F8542261
:1053B00033461068117904F1300200F0A9FB202374
:1053C00083F31188FCF73CFCD4F85432186819793F
:1053D000BDE8704000F0D4BBAFF30080AFF30080B5
:1053E000F8B5046AD4F8542213681978042900D057
:1053F000F8BD217A0229FBD15279598903EB820346
:1054000041FA02F2DB6812F001075D8AF0D1E66929
:10541000A2696369B61AF61AB542E9D8FCF7F0FB3F
:105420003B4683F31188D4F85422B6FBF5F305FB11
:1054300003F31068517904F10C0200F059FB2023AA
:1054400083F31188FCF7FCFBD4F8543218685979BF
:10545000BDE8F84000F06CBBAFF30080AFF3008014
:105460000C30FDF735BA00BFAFF30080AFF300801A
:105470000C304FF0FF33FDF72BBA00BFAFF30080C5
:105480003030FDF705BB00BFAFF30080AFF3008005
:1054900030304FF0FF33FDF7FBBA00BFAFF30080B1
:1054A0000C30FDF7E5B900BFAFF30080AFF300802B
:1054B0000C304FF0FF31FDF7DBB900BFAFF30080D8
:1054C0003030FDF785BA00BFAFF30080AFF3008046
:1054D00030304FF0FF32FDF77BBA00BFAFF30080F2
:1054E000704700BFAFF30080AFF30080AFF30080E0
:1054F00030B50F4A0F4B0546044645F8042B83B0E0
:105500006560012504F1540125720C304FF480725E
:105510000094FDF755F9009404F1300004F5AA71E8
:105520004FF48072044BFDF723FA03B030BD00BF87
:10553000B0C70008E153000871530008AFF30080C2
:1055400070B50D4604460E6818B3202383F3118806
:10555000FCF776FB237A013B012B04D91048114953
:10556000DF22FCF775FA2B7906EB83039C616B79DC
:10557000093346F82340AB7906EB83060223B46176
:105580002372C4F85452FCF73BFB002383F31188C9
:1055900070BD05480349DA22FCF75AFAD5E700BF87
:1055A00090C7000870C7000860C70008AFF300800C
:1055B00070B5D0F8543200F10C06044630461D6830
:1055C000FDF70EF904F13000FDF7E2F9201D01218D
:1055D000FDF7BEF8D4F85432597905EB810328461B
:1055E000DB6832465B8A00F083FAD4F8543259798A
:1055F0002846BDE8704000F09BBA00BFAFF30080C2
:1056000090F8443003F06003202B01D00020704755
:1056100090F84530212B03D0222B09D0202BF5D137
:10562000064B83630723C363002303640120704791
:1056300000238363C3630364012070476009002073
:10564000F8B500EB810306469C690D46CCB12023DA
:1056500083F31188FCF7BCFA0821201DFDF778F8C8
:10566000216CE26BA36B8A1AD71A16D106EB85035D
:10567000DA6853695B682BB9FCF78AFA002383F375
:105680001188F8BD128A013A12EA0307F4D1FCF737
:105690007FFA3B4683F3118805E0FCF779FA002393
:1056A00083F311883B463046294604F1300200F06E
:1056B0002FFA202383F31188FCF78AFA3046294613
:1056C00000F05EFAD8E700BFAFF30080AFF30080D0
:1056D00001F109032DE9F04150F823400D4606463B
:1056E000CCB1202383F31188FCF772FA201D04212A
:1056F000FDF72EF806EB8503E169D868A2696369B6
:10570000478A8A1AC3EB0208474506D9FCF740FAD4
:10571000002383F31188BDE8F081FCF739FA0023F8
:1057200083F31188B8FBF7F307FB03F330462946F0
:1057300004F10C0200F0DCF9202383F31188FCF75C
:1057400047FA3046294600F0F3F9DFE7AFF300806F
:10575000704700BFAFF30080AFF30080AFF300806D
:1057600004F066BFAFF30080AFF30080AFF30080BA
:10577000002301220270436083600C30FCF7B8BE46
:1057800038B504460D46D0B1C9B1202383F3118842
:10579000FCF756FA2378013B012B04D90B480C493E
:1057A0007122FCF755F92046656004F079FF022369
:1057B0002370FCF725FA002383F3118838BD0548D0
:1057C00003496D22FCF744F9DFE700BFFCC700087E
:1057D000E0C70008D0C70008AFF30080AFF3008037
:1057E00010B50446D8B1202383F31188FCF728FABA
:1057F0002378013B012B04D90C480D498722FCF783
:1058000027F9204605F014F8204604F0E1FF0123B3
:105810002370FCF7F5F9002383F3118810BD0548C8
:1058200003498322FCF714F9DDE700BF18C800081C
:10583000E0C700080CC80008AFF30080AFF3008099
:1058400010B50446A8B1202383F31188FCF7F8F9BA
:105850002378022B04D00A480A499A22FCF7F8F868
:10586000204604F0DDFFFCF7CBF9002383F3118819
:1058700010BD054803499722FCF7EAF8E3E700BFAB
:1058800038C80008E0C7000828C80008AFF3008047
:1058900010B50446A8B1202383F31188FCF7D0F992
:1058A0002378022B04D00A480A49AC22FCF7D0F82E
:1058B000204604F0BDFFFCF7A3F9002383F3118811
:1058C00010BD05480349A922FCF7C2F8E3E700BF71
:1058D00058C80008E0C7000848C80008AFF30080B7
:1058E00070B504460D46164608B1002937D11D484B
:1058F0001D4940F26712FCF7ABF8202383F31188AF
:10590000FCF79EF92378022B05D0184816494FF46E
:10591000B572FCF79DF863681B682BB114481249F7
:1059200040F26B12FCF794F80323237020462946BB
:10593000324604F085FFA3682BB10E480A4940F2B5
:105940006D12FCF785F80C4B9B690220A360FCF7F5
:105950007FFAFCF755F9002383F3118870BD002A04
:10596000CBD1C4E798C90008E0C70008A4C9000863
:10597000B4C9000850C9000894190020AFF3008092
:1059800004F096BBAFF30080AFF30080AFF300806C
:105990000023012202704360C36183620362C36219
:1059A0004362036303814381704700BFAFF300800C
:1059B00070B504460E4600B3F9B1202383F3118875
:1059C000FCF73EF92378013B012B05D90E480F491E
:1059D00040F21312FCF73CF8002520466660E560B3
:1059E00025616561A56104F07BFB02232370FCF750
:1059F00007F92B4683F3118870BD0548034940F22F
:105A00000F12FCF725F8D8E77CCA000860CA000826
:105A100050CA0008AFF30080AFF30080AFF30080FE
:105A2000F8B504460E461546FCF75AF8002C2AD065
:105A3000002D28D02378042B05D01648164940F2B3
:105A40004312FCF705F8B71C04EB87035B682BB126
:105A50001248114940F24512FBF7FAFF686918B184
:105A600000211022FBF7D4FBA86918B100211022F5
:105A7000FBF7CEFB04EB8707204631467D60BDE88F
:105A8000F84004F025BC0648034940F24112FBF7F8
:105A9000DFFFCFE7C0CA000860CA0008DCCA000800
:105AA000A8CA0008AFF30080AFF30080AFF3008016
:105AB00030B400EB81040025E468A4692570E2603D
:105AC0006360A56030BC04F0EBBC00BFAFF30080A6
:105AD00030B400EB81040025E46864692570E2605D
