:020000040800F2
:1000000000040020510B0008510D0008510D00089C
:10001000510D0008510D0008510D0008510D000848
:10002000510D0008510D0008510D0008C10D0008C8
:10003000510D0008510D0008510D0008C10E0008B7
:10004000510D0008510D0008510D0008510D000818
:10005000510D0008510D0008510D0008510D000808
:10006000510D0008510D0008510D0008F1950008D0
:100070003196000871960008B1960008F1960008C4
:10008000319700087197000811A10008510D000870
:10009000510D0008510D0008510D0008510D0008C8
:1000A00081B5000801B50008510D000821B5000810
:1000B00041B5000861B5000821B90008510D0008DC
:1000C000510D0008510D0008510D0008510D000898
:1000D000510D0008510D0008B1BC0008D1BC00084A
:1000E000510D0008510D0008510D0008510D000878
:1000F000510D0008510D0008510D0008B19700087E
:10010000510D0008510D000841B90008510D0008BB
:10011000510D0008510D0008510D0008510D000847
:10012000F19700083198000871980008B19800080C
:10013000F1980008510D0008510D0008510D0008FC
:10014000510D0008510D0008510D000801AB0008C9
:100150003199000871990008B1990008510D000803
:10016000510D0008510D0008510D0008510D0008F7
:10017000510D0008510D0008510D0008510D0008E7
:08018000510D0008510D0008AB
:1001900008B504F0C5FB00F03BFF02F0D1FB06F010
:1001A0009FF903F045F907F073FE06F069F9074877
:1001B00003F0E6FC064B01221A6003F031F802F06E
:1001C00007FF4FF4FA7001F03BFBF6E7A0030108CC
:1001D000980C0120AFF30080AFF30080AFF30080F4
:1001E00081F0004102E000BF83F0004330B54FEAE8
:1001F00041044FEA430594EA050F08BF90EA020F55
:100200001FBF54EA000C55EA020C7FEA645C7FEAE7
:10021000655C00F0E2804FEA5454D4EB5555B8BF0A
:100220006D420CDD2C4480EA020281EA030382EA7B
:10023000000083EA010180EA020281EA0303362D0D
:1002400088BF30BD11F0004F4FEA01314FF4801CE0
:100250004CEA113102D0404261EB410113F0004FF2
:100260004FEA03334CEA133302D0524263EB4303A9
:1002700094EA050F00F0A780A4F10104D5F1200E47
:100280000DDB02FA0EFC22FA05F2801841F10001A2
:1002900003FA0EF2801843FA05F359410EE0A5F176
:1002A00020050EF1200E012A03FA0EFC28BF4CF0A7
:1002B000020C43FA05F3C01851EBE37101F000455D
:1002C00007D54FF0000EDCF1000C7EEB00006EEB6A
:1002D0000101B1F5801F1BD3B1F5001F0CD34908F4
:1002E0005FEA30004FEA3C0C04F101044FEA44524B
:1002F00012F5800F80F09A80BCF1004F08BF5FEAD2
:10030000500C50F1000041EB045141EA050130BDB1
:100310005FEA4C0C404141EB010111F4801FA4F154
:100320000104E9D191F0000F04BF01460020B1FAA9
:1003300081F308BF2033A3F10B03B3F120020CDAE1
:100340000C3208DD02F1140CC2F10C0201FA0CF0BF
:1003500021FA02F10CE002F11402D8BFC2F1200C24
:1003600001FA02F120FA0CFCDCBF41EA0C019040DA
:10037000E41AA2BF01EB0451294330BD6FEA040423
:100380001F3C1CDA0C340EDC04F11404C4F120020E
:1003900020FA04F001FA02F340EA030021FA04F320
:1003A00045EA030130BDC4F10C04C4F1200220FA77
:1003B00002F001FA04F340EA0300294630BD21FAB5
:1003C00004F0294630BD94F0000F83F4801306BF7B
:1003D00081F480110134013D4EE77FEA645C18BF6F
:1003E0007FEA655C29D094EA050F08BF90EA020F06
:1003F00005D054EA000C04BF1946104630BD91EAFE
:10040000030F1EBF0021002030BD5FEA545C05D100
:100410004000494128BF41F0004130BD14F580043F
:100420003CBF01F5801130BD01F0004545F0FE41B3
:1004300041F470014FF0000030BD7FEA645C1ABFE8
:10044000194610467FEA655C1CBF0B46024650EA1F
:10045000013406BF52EA033591EA030F41F400214B
:1004600030BD00BF90F0000F04BF0021704730B5D1
:100470004FF4806404F132044FF000054FF00001A6
:1004800050E700BF90F0000F04BF0021704730B567
:100490004FF4806404F1320410F0004548BF40423C
:1004A0004FF000013EE700BF42004FEAE2014FEA91
:1004B00031014FEA02701FBF12F07F4393F07F4F6C
:1004C00081F06051704792F0000F14BF93F07F4F9E
:1004D000704730B54FF4607401F0004521F00041E1
:1004E00020E700BF50EA010208BF704730B54FF067
:1004F00000050AE050EA010208BF704730B511F06C
:10050000004502D5404261EB41014FF4806404F1A3
:1005100032045FEA915C3FF4DCAE4FF003025FEA25
:10052000DC0C18BF03325FEADC0C18BF033202EBAD
:10053000DC02C2F1200300FA03FC20FA02F001FA07
:1005400003FE40EA0E0021FA02F11444C1E600BFA6
:1005500070B54FF0FF0C4CF4E06C1CEA11541DBF59
:100560001CEA135594EA0C0F95EA0C0F00F0DEF824
:100570002C4481EA030621EA4C5123EA4C5350EA09
:10058000013518BF52EA033541F4801143F480135A
:1005900038D0A0FB02CE4FF00005E1FB02E506F0EB
:1005A0000042E0FB03E54FF00006E1FB03569CF040
:1005B000000F18BF4EF0010EA4F1FF04B6F5007F46
:1005C00064F5407404D25FEA4E0E6D4146EB0606B8
:1005D00042EAC62141EA55514FEAC52040EA5E5041
:1005E0004FEACE2EB4F1FD0C88BFBCF5E06F1ED8EB
:1005F000BEF1004F08BF5FEA500E50F1000041EB22
:10060000045170BD06F0004646EA010140EA0200CE
:1006100081EA0301B4EB5C04C2BFD4EB0C0541EAF0
:10062000045170BD41F480114FF0000E013C00F305
:10063000AB8014F1360FDEBF002001F0004170BD29
:10064000C4F10004203C35DA0C341BDC04F1140442
:10065000C4F1200500FA05F320FA04F001FA05F2CE
:1006600040EA020001F0004221F0004110EBD3709B
:1006700021FA04F642EB06015EEA430E08BF20EAC7
:10068000D37070BDC4F10C04C4F1200500FA04F36A
:1006900020FA05F001FA04F240EA020001F00041FC
:1006A00010EBD37041F100015EEA430E08BF20EA6F
:1006B000D37070BDC4F1200500FA05F24EEA020EB7
:1006C00020FA04F301FA05F243EA020321FA04F0E6
:1006D00001F0004121FA04F220EA020000EBD3709D
:1006E0005EEA430E08BF20EAD37070BD94F0000F9D
:1006F0000FD101F00046400041EB010111F4801FD1
:1007000008BF013CF7D041EA060195F0000F18BF81
:10071000704703F00046520043EB030313F4801FBD
:1007200008BF013DF7D043EA0603704794EA0C0F77
:100730000CEA135518BF95EA0C0F0CD050EA41068D
:1007400018BF52EA4306D1D181EA030101F000410A
:100750004FF0000070BD50EA410606BF1046194632
:1007600052EA430619D094EA0C0F02D150EA01363E
:1007700013D195EA0C0F05D152EA03361CBF10467F
:1007800019460AD181EA030101F0004141F0FE411E
:1007900041F470014FF0000070BD41F0FE4141F4A2
:1007A000780170BD70B54FF0FF0C4CF4E06C1CEAA2
:1007B00011541DBF1CEA135594EA0C0F95EA0C0F57
:1007C00000F0A7F8A4EB050481EA030E52EA033512
:1007D0004FEA013100F088804FEA03334FF0805533
:1007E00045EA131343EA12634FEA022245EA111560
:1007F00045EA10654FEA00260EF000419D4208BF11
:10080000964244F1FD0404F5407402D25B084FEABD
:100810003202B61A65EB03055B084FEA32024FF469
:1008200080104FF4002CB6EB020E75EB030E22BFC6
:10083000B61A754640EA0C005B084FEA3202B6EB86
:10084000020E75EB030E22BFB61A754640EA5C0035
:100850005B084FEA3202B6EB020E75EB030E22BFC5
:10086000B61A754640EA9C005B084FEA3202B6EBC6
:10087000020E75EB030E22BFB61A754640EADC0085
:1008800055EA060E18D04FEA051545EA16754FEAE7
:1008900006164FEAC30343EA52734FEAC2025FEA05
:1008A0001C1CC0D111F4801F0BD141EA00014FF094
:1008B00000004FF0004CB6E711F4801F04BF014365
:1008C0000020B4F1FD0C88BFBCF5E06F3FF6AFAE81
:1008D000B5EB030C04BFB6EB020C5FEA500C50F111
:1008E000000041EB045170BD0EF0004E4EEA113194
:1008F00014EB5C04C2BFD4EB0C0541EA045170BD9B
:1009000041F480114FF0000E013C90E645EA060EDE
:100910008DE60CEA135594EA0C0F08BF95EA0C0F0C
:100920003FF43BAF94EA0C0F0AD150EA01347FF454
:1009300034AF95EA0C0F7FF425AF104619462CE72B
:1009400095EA0C0F06D152EA03353FF4FDAE10468E
:10095000194622E750EA410618BF52EA43067FF4DF
:10096000C5AE50EA41047FF40DAF52EA43057FF46F
:10097000EBAE12E7000000000000000000000000E5
:100980004FF0FF3C06E000BF4FF0010C02E000BF5B
:100990004FF0010C4DF804CD4FEA410C7FEA6C5C3E
:1009A0004FEA430C18BF7FEA6C5C1BD001B050EAE1
:1009B000410C0CBF52EA430C91EA030F02BF90EACC
:1009C000020F0020704710F1000F91EA030F58BF8B
:1009D000994208BF90422CBFD8176FEAE37040F0ED
:1009E000010070474FEA410C7FEA6C5C02D150EA8B
:1009F000013C07D14FEA430C7FEA6C5CD6D152EA46
:100A0000033CD3D05DF8040B704700BF844610460A
:100A100062468C461946634600E000BF01B5FFF709
:100A2000B7FF002848BF10F1000F01BD4DF808EDD9
:100A3000FFF7F4FF0CBF012000205DF808FB00BFAA
:100A40004DF808EDFFF7EAFF34BF012000205DF804
:100A500008FB00BF4DF808EDFFF7E0FF94BF012051
:100A600000205DF808FB00BF4DF808EDFFF7CEFF52
:100A700094BF012000205DF808FB00BF4DF808ED91
:100A8000FFF7C4FF34BF012000205DF808FB00BF62
:100A90004FEA4102B2F1E04324BFB3F5001CDCF1A0
:100AA000FE5C0DD901F0004C4FEAC0024CEA5070D8
:100AB000B2F1004F40EB830008BF20F00100704707
:100AC00011F0804F21D113F13872BCBF01F000400A
:100AD000704741F480114FEA5252C2F11802C2F13C
:100AE000200C10FA0CF320FA02F018BF40F00100BD
:100AF0004FEAC1234FEAD32303FA0CFC40EA0C006F
:100B000023FA02F34FEA4303CCE77FEA625307D1AB
:100B100050EA01331EBF4FF0FE4040F440007047E2
:100B200001F0004040F0FE4040F40000704700BF7C
:100B3000704700BFAFF30080AFF30080AFF30080D9
:100B4000FEE700BFAFF30080AFF30080AFF300809B
:100B500072B6704C84F309884EF63472CEF20002FD
:100B60004EF68853CEF200034FF0404111601868F2
:100B700040F470051D600022E1EE102A4EF63C7331
:100B8000CEF2000306211A6081F31488BFF36F8F41
:100B90006148624DA84218D2EA1C051D531B23F080
:100BA0000302034610184FF0553183421960C2F317
:100BB00080020AD01AB185422B46296005D01D1D3E
:100BC0005960083383426960F9D15548A04218D270
:100BD0005449041D0A1B22F00305034628184FF050
:100BE000553183421960C5F380020AD01AB184429C
:100BF0002346216005D01D1D59600833834269607A
:100C0000F9D10BF005F94849484881421BD2C61C6E
:100C10000C1D321B464822F00302161D05680423F2
:100C2000B3420D60C2F380020DD022B145680823A3
:100C3000B342256007D01A1D1D5884585D500833F3
:100C4000B3428C50F7D13B483B49884217D2CB1C6A
:100C5000041D1A1B22F003050346281800218342B5
:100C60001960C5F380020AD01AB18442234621607C
:100C700005D01D1D5960083383426960F9D1FFF723
:100C800057FF2E4D2E498D421DD2CC1C2E1DA71B69
:100C9000B808471C01242A6800EA04089047BC42AF
:100CA00011D0B8F1000F05D0022433689847BC4238
:100CB000354608D0696888470234A8682E1D8047E9
:100CC0000835BC42F6D1FFF763FA1E4D1E4A954225
:100CD0001DD2D41C2E1DA71BBB085F1C0124296834
:100CE00003EA04088847BC4211D0B8F1000F05D0D0
:100CF000022430688047BC42354608D06A68904775
:100D00000234AB682E1D98470835BC42F6D1FFF778
:100D100017FF00BF00080020000000200004002092
:100D2000000400200308002000080020341B0020DD
:100D3000D8030108381B00209C0C01208801000802
:100D4000880100088801000888010008AFF30080CE
:100D5000FEE700BFAFF30080AFF30080AFF3008089
:100D6000F8B54CF6D014C0F6000407460FCC41F697
:100D70003836C2F2000635460FC523682B70B969B4
:100D800028460BF0DDFC4CF6E4113046C0F60001BD
:100D90002E22BDE8F84000F0B3B900BFAFF30080E9
:100DA00072B6FEE7AFF30080AFF30080AFF30080D0
:100DB00000F09EFA00F08CFC00F07AFA00DF00BF31
:100DC000EFF309824EF63073CEF20003D2F8CC1066
:100DD0005960986868309860683282F30988002307
:100DE00083F31188704700BFAFF30080AFF300803A
:100DF00008B54FF46D43CEF200034FF44072C0F2D9
:100E0000FA520021996007201021DA6000F0D8F82A
:100E10000A204FF4007100F0D3F80B208021BDE8C8
:100E2000084000F0CDB800BFAFF30080AFF3008002
:100E3000202383F311884FF46D43CEF200035868EA
:100E400010F4006325D0EFF30983A3F1680282F365
:100E5000098816494FF080708A6943F84C0C92F863
:100E60002300096892688968B0B1914294BF00225A
:100E70000122BAB10E4A43F8502CF1EE10FA4EF6A8
:100E80003072CEF20002516841F0010059665060A4
:100E9000704783F311887047914234BF00220122CA
:100EA000002AE7D1034843F8500CE8E7BC1D0020B6
:100EB000B10D0008BC0D0008AFF30080AFF3008057
:100EC00008B500F09DF9202383F3118800F0D8F9CC
:100ED00000F0DEF800F0B4F9002383F3118800F08D
:100EE0006FF9BDE80840FFF7A3BF00BFAFF3008074
:100EF0002DE9F04F2DED108AC1F80CD0D0F80CD0B0
:100F0000BDEC108ABDE8F08FAFF30080AFF3008036
:100F100008B500F0CDF9002383F311882846A047D7
:100F200000F0F6FC08BD00BFAFF30080AFF3008017
:100F3000F0B44FF461438408CEF20003C03400F0F3
:100F4000030553F82470ED00FF26420906FA05F662
:100F500027EA060601FA05F500F01F0002F1600716
:100F6000012101FA00F02E4343F8246043F82700E2
:100F700043F82200F0BC7047AFF30080AFF300806D
:100F800041094FF4614310B4CEF2000300F01F0298
:100F90002031012404FA02F4820843F82140C032CF
:100FA00000F0030053F82210C000FF2404FA00F000
:100FB00021EA000143F8221010BC7047AFF3008013
:100FC00082084FF46D43CEF20003063200F00300B6
:100FD00030B4C00053F82250FF2404FA00F425EA8C
:100FE000040401FA00F10C4343F8224030BC70477E
:100FF000024B034A98698261FEE700BFBC1D0020D6
:101000009CF90008AFF30080AFF30080AFF30080DD
:1010100030B583B0FFF7ECFE00F00AFA00F098F963
:1010200001F0DEF801F024F941F600404021C2F25F
:10103000000000F05DFB41F6BC5440F20043C2F2F8
:101040000003C2F200040125C36180F82050A061B2
:1010500000F066F9002383F3118862B64CF6B041C4
:10106000A269C0F60001916141F65040009340F63C
:10107000F1734FF4A4712A46C0F60003C2F20000D7
:1010800000F0BEFB03B030BDAFF30080AFF30080D3
:10109000F8B500F07DF8164B986990F8232012B14E
:1010A000511E80F82310446A124D631C4362E868A5
:1010B0002C68421CAC42EA6018D0A768013FA760C8
:1010C000A7B92168E6684D60E760296000F0B8F8CC
:1010D000002383F311882069B047202383F311880C
:1010E00000F0CEF82C68A368002BEAD0F8BD00BF52
:1010F000BC1D0020AC1D0020AFF30080AFF30080CA
:10110000F8B5114C236805460F46164603B1F8BDE5
:1011100002F07EF80D480E4A0E4B016817601E6003
:1011200025600029F3D129463A4633460A4802F0A1
:1011300027FD48F2A060C0F2010000F081FBBDE88D
:10114000F840FFF72DBE00BFA81D0020980C01201D
:10115000981D0020A01D002010CA0008AFF30080D9
:10116000064B186820B906490A68002A00DD704756
:1011700004480549D322FFF7C3BF00BF9C1D0020D0
:10118000A41D002024CA00082CCA0008AFF3008068
:10119000064B1868002804DB05490A68002A00DDB0
:1011A000704704480449C522FFF7AABF9C1D0020D0
:1011B000A41D00204CCA00082CCA0008AFF3008010
:1011C00010B5202383F31188094C2368002B02DD1E
:1011D000084A106828B108480849B522FFF790FF6F
:1011E0002368591E2160002383F3118810BD00BFBE
:1011F0009C1D0020A41D002070CA00082CCA0008F5
:1012000010B5202383F31188094C2368002B02DBDF
:10121000084A106828B108480849A722FFF770FF5C
:101220002368591C2160002383F3118810BD00BF7F
:101230009C1D0020A41D002078CA00082CCA0008AC
:10124000084B1868002810B5074C05DD21680029F7
:1012500002DD0022226010BD044805499A22FFF7F2
:101260004FFFF6E79C1D0020A41D002080CA000847
:101270002CCA0008AFF30080AFF30080AFF300800A
:10128000074B1868002810B5064C01DD216821B114
:10129000054806498E22FFF733FF0122226010BD68
:1012A0009C1D0020A41D002088CA00082CCA00082C
:1012B000084B186810B5084C28B92168002902DDD0
:1012C0000022226010BD054805498222FFF718FF61
:1012D000F6E700BF9C1D0020A41D0020A0CA000846
:1012E0002CCA0008AFF30080AFF30080AFF300809A
:1012F000074B186810B5074C08B9216821B106489A
:1013000006497622FFF7FCFE0122226010BD00BFD5
:101310009C1D0020A41D0020A8CA00082CCA00089B
:10132000054B186810B905490A6822B104480549F7
:101330006B22FFF7E5BE70479C1D0020A41D002016
:10134000C4CA00082CCA0008AFF30080AFF30080C5
:1013500041F6AC53C2F200034FF0FF3200205B6055
:101360001B609A60D8607047AFF30080AFF30080D5
:10137000F8B505460C4616461F46FFF709FFCDB1E6
:10138000C6B1BCB10E492F610B68EE609A689442F9
:1013900004D91B68A41A9A68A242FAD358682B6031
:1013A0008B42686005605D60AC6002D099680C1B80
:1013B0009C60F8BD034804495122FFF7A1FEE1E714
:1013C000AC1D0020E0CA0008F0CA0008AFF300809E
:1013D00010B50446FFF7DCFE84B1E368A3B12068D2
:1013E0000C4A904203D08168A368CA188260616881
:1013F0000860206800234160E36010BD064807498B
:101400006D22FFF77DFEE8E7054804497022FFF7EB
:1014100077FEE4E7AC1D002010CB0008F0CA0008FE
:1014200020CB0008AFF30080AFF30080AFF3008063
:1014300041F6BC53C2F2000300225B601B609A605D
:101440005B611B61704700BFAFF30080AFF30080AA
:1014500010B50446FFF79CFE94F820308BB10E2B9C
:101460000FD00022A1680A4884F820200068836811
:101470008B42FBD24168206061600C604460204672
:1014800010BD044804495A22FFF73AFEE9E700BFBD
:10149000BC1D002040CB000854CB0008AFF30080F7
:1014A00010B52023044683F31188FFF7E9FE94F872
:1014B00020300D2B11D8DFE803F016101007100BA9
:1014C000101010101010100BA06A8268511C81605F
:1014D00094E80C001A60206843604FF0FF33A36269
:1014E0002046FFF7B5FFFFF7ABFE002383F311881B
:1014F00010BD00BFAFF30080AFF30080AFF30080FA
:1015000070B5104C0646FFF72BFEA5692368E96904
:101510001A6885F82060ADF16400546014262260DA
:101520000122814285F82360A36183F8202003D93A
:101530002846FFF715FCA36918462946BDE8704008
:10154000FFF7D6BCBC1D0020AFF30080AFF30080D6
:1015500070B50C4686B00646FFF702FE631C12D03B
:101560000B4D0C4AAB69214601A8FFF701FF30463D
:10157000FFF7C6FF049B13B101A8FFF729FFA86975
:10158000806A06B070BD3046FFF7BAFF004DF6E73F
:10159000BC1D0020A1140008AFF30080AFF3008051
:1015A00070B5124D04460E46FFF7DAFDA869A26831
:1015B0008368A6629A4211D9FFF74AFFC369AC61FA
:1015C000ADF1640201219342064684F820100AD846
:1015D00020463146BDE87040FFF78ABC2046BDE892
:1015E0007040FFF735BFFFF7BBFBF1E7BC1D0020E4
:1015F00038B50F4C2368A5691A680121142054607E
:1016000083F8201085F8230028462260A361FFF7A5
:101610001FFFEB69ADF16402934202D92846FFF740
:101620009FFBA0692946BDE83840FFF761BC00BFB9
:10163000BC1D0020AFF30080AFF30080AFF300804B
:1016400070B5134E3068B5690368AC685E600122FE
:10165000002180F820203360B06185F82010034617
:1016600000E01B689A68A242FBD8E9695A682B60BF
:10167000ADF16404A1426A6015605D6003D928463B
:10168000FFF76EFBB0692946BDE87040FFF730BC3C
:10169000BC1D0020AFF30080AFF30080AFF30080EB
:1016A00008B5FFF75DFD064B1A6898699168836875
:1016B000994200D808BDBDE80840FFF7C1BF00BF90
:1016C000BC1D0020AFF30080AFF30080AFF30080BB
:1016D000044B986990F8231009B1FFF7B1BFFFF7E9
:1016E00087BF00BFBC1D0020AFF30080AFF30080B8
:1016F0002DE9F00141F6BC54C2F2000400226569F4
:101700004164046100F13006816000F12C0C00F1AD
:101710004C0745614FF0020860610121142480F8F4
:10172000208080F8212080F823400264C263426256
:1017300080F8221082612861C0F82CC046630663DD
:10174000C761BDE8F0017047AFF30080AFF30080E0
:101750002DE9F04704460D4617469846FFF718FD59
:1017600014B1B5F59C7F38D21F482049A622FFF757
:10177000C7FCA5F1640161181D4E089BD6F814C082
:10178000E1604B641B4BC1F840800B6602210025D1
:1017900004F1300204F12C0A04F14C0984F8201001
:1017A000142301212661A760C4F814C02046746187
:1017B00084F8215084F8233067642564E56365620A
:1017C00084F82210A561CCF81040C4F82CA0626304
:1017D0002263C4F81C90BDE8F0877F2FC4D8B8F10D
:1017E000000FC6D1C0E700BF80CB000894CB000833
:1017F000BC1D0020110F0008AFF30080AFF3008084
:10180000F0B51C4683B005460E461746202383F3E9
:101810001188FFF76DFD089823463A46314600903F
:101820002846FFF795FF00210446FFF7B9FEFFF7B2
:101830003FFD002383F31188204603B0F0BD00BFB5
:1018400010B5044628B90A480A494FF49372FFF7C5
:1018500057FC202383F31188FFF74AFD2146062019
:10186000FFF776FEFFF724FD002383F3118810BDF8
:10187000E4CB000894CB0008AFF30080AFF3008006
:1018800010B52023044683F31188FFF731FD064B82
:10189000D968611A02D00620FFF75AFEFFF708FD4B
:1018A000002383F3118810BDAC1D0020AFF300802E
:1018B00038B5114B9C692546A06255F82C0FA842FB
:1018C00006D00168E162FFF7C3FDE06AA842F8D1E3
:1018D00094F82100830704D1636922691A612169A0
:1018E0004B610E20FFF70CFE0448054940F28112BF
:1018F000BDE83840FFF704BCBC1D0020F4CB000855
:1019000094CB0008AFF30080AFF30080AFF300800A
:1019100010B52023044683F31188FFF7E9FC204625
:10192000BDE81040FFF7C4BFAFF30080AFF3008005
:1019300038B50446202383F31188FFF7D9FC94F8C7
:101940002230002B21D0581EC5B284F82250FFF758
:10195000AFFC002383F311881DB994F820100E29E1
:1019600000D038BD94F8212002F00303012B14D0DD
:10197000022BF6D163692169A06C196122692146A5
:101980005361BDE8384000F0FBBC094809494E22CC
:10199000FFF7B6FB94F82230D5E763692069186138
:1019A000216920464B61BDE8384000F071BC00BFA2
:1019B00078CC000854CC0008AFF30080AFF300806F
:1019C00010B5202383F31188FFF792FC41F6BC5336
:1019D000C2F200031C6994F82200411C84F8221012
:1019E000FFF766FC002383F31188204610BD00BF7B
:1019F00038B50546202383F31188FFF779FC2C695D
:101A00000E4B9C4218D094F82200FF280CD0411CA9
:101A100084F82210FFF74CFC002383F3118828463A
:101A2000FFF786FF204638BD054806499622FFF796
:101A300067FB94F82200EAE70024EBE7BC1D0020D6
:101A4000D0CC0008E8CC0008AFF30080AFF30080F2
:101A500038B504460D4628B1002903DB64602460D4
:101A6000A56038BD024803495822FFF749FBF5E756
:101A700010CD000820CD0008AFF30080AFF3008048
:101A800038B50446FFF76CFB002C25D0A36822680C
:101A9000002B0DDBA24205D012481349C022FFF7EC
:101AA0002FFBA368581E0028A06007DB002038BD6C
:101AB000A242F1D0581E0028A060F7DA0B4DA969A8
:101AC0008C6262680C604A60032061601160FFF7FD
:101AD00017FDAB69986A38BD05480349BC22FFF77A
:101AE0000FFBD3E774CD000820CD0008BC1D0020FB
:101AF00064CD0008AFF30080AFF30080AFF3008047
:101B000010B52023044683F31188FFF7F1FB20462C
:101B1000FFF7B6FF0446FFF7CBFB002383F31188E2
:101B2000204610BDAFF30080AFF30080AFF300801C
:101B300010B50446FFF72CFB002C22D0A3682268C6
:101B4000002B0DDBA24206D0114812494FF49B72C4
:101B5000FFF7D6FAA368581C0028A06006DD10BD68
:101B6000A242F1D0581C0028A060F8DC21680A6865
:101B700000230846226054608B62BDE81040FFF7E6
:101B800067BC054803494FF49972FFF7B9FAD5E7E6
:101B9000F0CD000820CD0008DCCD0008AFF30080B8
:101BA00010B5044620B1002364602460A36010BD1A
:101BB000024803495822FFF7A3FAF4E780CE000851
:101BC00090CE0008AFF30080AFF30080AFF3008049
:101BD000F8B53E4B05469C69FFF7C2FA002D6FD061
:101BE000A86800283AD0A2688168914208D290F88B
:101BF00020308260042B49D0052B34D0002B22D01A
:101C000028460068854203D08168A2689142F8D2D4
:101C10004368206063601C604460A5620420FFF795
:101C20006FFCA868A04204D029482A49B222FFF7D5
:101C300067FA216CA94215D027482649B322BDE88E
:101C4000F840FFF75DBA90E80C001A6002680121C5
:101C500080F820105360FFF7FBFBD1E7206CAC60ED
:101C6000E8602564F8BD41680768866A0F60076808
:101C7000334679601B689E4202D099689142F9D23E
:101C80005A680360426010605860B9E741680768AD
:101C9000866A0F600768334679601B689E420DD0E4
:101CA00099689142F9D25A680360426010605860A6
:101CB000B068A2688368934299D3A1E73346F2E7FC
:101CC000064804497D22FFF71BFA89E7BC1D002066
:101CD000C0CE000890CE0008D4CE0008B0CE0008D8
:101CE00010B52023044683F31188FFF701FB20463B
:101CF000FFF76EFFFFF7DCFA002383F3118810BDB6
:101D0000214A70B52023956983F31188FFF7F0FA13
:101D10002C6C002C30D0A368AB4206D01B481C4969
:101D200040F20B12FFF7ECF92C6C2668E368A64230
:101D30002B641ED0696C4BB11A689A4203D090682C
:101D4000814238BF0146DB68002BF5D13368326C25
:101D5000A9603046236000215C60A660E2603464C4
:101D6000FFF71EFCFFF7A4FA002383F31188204637
:101D700070BD0020A060F5E7064805494FF4847265
:101D8000FFF7BEF92C6CC6E7BC1D002010CF000881
:101D900090CE0008FCCE0008AFF30080AFF30080C7
:101DA00038B504460D46FFF7F3F9C4B1E26B94F879
:101DB000203045EA0201082BE1630CD0092B00D04A
:101DC00038BDA06A01408842FAD12046FFF740FBA7
:101DD0000023836238BDA26A1142F6D138BD0348A0
:101DE0000349FE22FFF78CF9E0E700BFA0CF00080F
:101DF00068CF0008AFF30080AFF30080AFF300803E
:101E000070B505460E46FFF7C3F965B12C68A542CB
:101E100008D0201D0BC83343E360FFF7C1FF2468DF
:101E2000A542F6D170BD03480349BC22FFF768F90B
:101E3000ECE700BFC4CF000868CF0008AFF3008014
:101E400010B4024659B1084B9B69986244680D2052
:101E500083E814005360236010BCFFF779BB4FF098
:101E6000FF3010BC704700BFBC1D0020AFF30080E6
:101E700010B4C361019B40608A1800240060846034
:101E800041618161C1600261036210BC704700BFA3
:101E900038B50446FFF77CF92068E3680021A042CA
:101EA0006361A361A1600AD06FF00105026822603E
:101EB0005460FFF7CDFA85622068A042F6D138BDA4
:101EC00038B504460D46FFF763F96369A269A06857
:101ED00093421AD0411CA16003F8015B226963613F
:101EE00093420BD22068A0420DD0016821604C6063
:101EF000FFF7AEFA00228262104638BD2068E36820
:101F0000A0426361F1D1002038BD0028E2D06FF01B
:101F1000030038BDAFF30080AFF30080AFF3008063
:101F2000F8B504460E46202383F31188FFF7E0F945
:101F3000E3690BB120469847A5682046314655B95C
:101F4000FFF77EFF071EF7DAFFF7B2F92B4683F3A0
:101F500011883846F8BDA0692269013DA56010F8D6
:101F6000017B9042A06124BFE068A061FFF7A0F967
:101F7000002383F311883846F8BD00BFAFF300801B
:101F80002DE9F0470446154688461E46C769002AD3
:101F90003AD0202383F31188FFF7AAF908F1010A48
:101FA0004FF00009A8440FB12046B847A568204665
:101FB00031465DB9FFF744FF0028F7D0FFF778F905
:101FC0002B4683F311884846BDE8F087A369013D9D
:101FD000A56013F8012B0AF8012C2069A361834244
:101FE00024BFE368A361FFF763F9002383F311883B
:101FF000C24509F10109E6D0202383F31188FFF7D8
:1020000077F90AF1010ACEE702480349E722FFF710
:1020100077F8BEE710D0000824D00008AFF30080A6
:1020200010B4C361019B40608C1800608260416104
:102030008161C1600461036210BC7047AFF300802E
:1020400038B50446FFF7A4F8E368226920686361A5
:10205000D11AA042A361A1600AD06FF00105036804
:1020600023605C60FFF7F4F985622068A042F6D136
:1020700038BD00BFAFF30080AFF30080AFF3008046
:102080002DE9F041202304468846164683F3118843
:10209000FFF72EF9A568204631465DB9FFF7D0FE5F
:1020A000071EF7DAFFF704F92B4683F31188384649
:1020B000BDE8F0816369013DA56003F8018B2269E9
:1020C0006361934228BFE368E16928BF636109B196
:1020D00020468847FFF7ECF8002383F311881F465A
:1020E0003846BDE8F08100BFAFF30080AFF3008059
:1020F00038B50446FFF74CF8A3696269A0689A42B4
:1021000016D0411CA16013F8015B2269A3619342C0
:102110000BD22068A04206D0016821604C60FFF716
:1021200097F900228262284638BDE368A361F0E790
:102130000028E6D06FF0020038BD00BFAFF300808A
:102140002DE9F0470446164688469A46D0F81C907A
:10215000002A39D0202383F31188FFF7C9F800271C
:10216000A56820466B1E0DB3A360656918F8011BB6
:1021700005F8011B22696561954224BFE26862612E
:10218000B9F1000F00D0C847FFF792F8002383F39E
:1021900011880137013E14D0202383F31188FFF703
:1021A000A7F8A56820466B1E002DDDD120465146BC
:1021B000FFF746FE0028D3D0FFF77AF82B4683F3CB
:1021C00011883846BDE8F0870348044940F29B1265
:1021D000FEF796FFBEE700BF48D0000824D00008F5
:1021E00041F6DC5241F6D8534CF200010648C2F2E7
:1021F0000002C2F20003C2F2010120F0070021F048
:10220000070110601960704783170010AFF300805A
:1022100010B50446FEF7BCFF074A08491368096871
:10222000E01D20F00700C91A88429ABF18181060F4
:102230000023184610BD00BFDC1D0020D81D002063
:1022400010B52023044683F31188FFF751F8204688
:10225000FFF7DEFF0446FFF72BF8002383F3118816
:10226000204610BDAFF30080AFF30080AFF30080D5
:1022700041F6E053C2F2000342F241210022C0F6CF
:10228000000103F1100019609A60DA60FFF788BC62
:10229000F8B5074600284DD057F8086C06F1100035
:1022A000FFF71EFD0836A7F108053446AC4204D8F6
:1022B00063680833E01885421FD3B442216801D017
:1022C000AC4202D219B18D4201D30C46EEE757F869
:1022D000042C47F8081C256002F1080357F8080C85
:1022E000E91881420FD0606800F1080163189D422F
:1022F00017D0BDE8F840FFF703BD11481149D022BF
:10230000FEF7FEFED9E74868EB581218083247F886
:10231000042C606847F8083C00F1080163189D42EE
:10232000E7D157F8041C57F8082C4318083384E801
:102330000C00DEE704480349C622FEF7E1FEABE7E6
:10234000A0D0000870D0000890D00008AFF3008043
:1023500038B504460D46FEF71BFF24B11DB12368B6
:102360002B60256038BD034803499922FEF7C8FE5B
:10237000F5E700BF08D10008D0D00008AFF3008017
:1023800038B505460C46202383F31188FEF7B0FFCD
:1023900028462146FFF7DCFFFEF78AFF002383F380
:1023A000118838BDAFF30080AFF30080AFF3008039
:1023B0000368052B70B504460D46164608D0991DD6
:1023C00004EB8302581C44F821602060556070BD06
:1023D000034804490D2200F09BFA2368EFE700BF91
:1023E00030D1000844D10008AFF30080AFF3008083
:1023F0000368002B70B5064609DD041F0025043470
:102400000135A069616888473068A842F7DC70BD73
:102410000368002B2DE9F04106460F4690460ADD81
:10242000051F0024043538466A68414690473068E5
:102430000134A042F6DCBDE8F08100BFAFF30080BC
:10244000002953DD03464118002003E050008B4271
:10245000C0B24AD013F8012B504010F0800F4FEA61
:1024600040021CBF82F02702D243D0B210F0800F8E
:102470004FEA40021CBF82F02702D243D0B210F0D4
:10248000800F4FEA40021CBF82F02702D243D0B235
:1024900010F0800F4FEA40021CBF82F02702D243A7
:1024A000D0B210F0800F4FEA40021CBF82F027022A
:1024B000D243D0B210F0800F4FEA40021CBF82F02E
:1024C0002702D243D0B24FEA400210F0800F1CBF67
:1024D00082F02702D243D2B21006B7D5520082F062
:1024E0002700C2438B42D0B2B4D17047002070475E
:1024F00010B5044605F094FC38B906F091FF01468A
:102500002046BDE8104006F043BD05F0C1FF50B1C4
:1025100003EE900AB8EEE34AF2EE044A84EE245A3F
:1025200015EE100A10BD062004F00AFA07EE900A14
:10253000B8EEE77AB0EE080A67EE000A9FED0B1AD4
:10254000C0EE811A4FF40041C4F2BB4131EEA12A22
:1025500012EE100A07F03CF802EE900ABDEEE23AE5
:1025600013EE100ABDE8104006F0DABE00F07F4519
:10257000F0B54CF68015C0F600052E4607460FCE86
:10258000A5B010AC0FC40FCE0FC496E8030048F2FC
:102590009D06C3F6C656069641F27B46C3F62E66E6
:1025A00007964FF07A5608964AF22706C3F6B166A8
:1025B00009964FF07C560A964DF214062835C3F65C
:1025C000187684E803000B960FCD48F21F56C3F629
:1025D0002B760C964FF07D560D964DF214061AACE4
:1025E000C3F658760E960FC40FCD0FC495E80300BE
:1025F00084E80300022006AB04A910AC01904DF260
:1026000060104FF07E56009302910494C0F60000D3
:102610001AAC394600220A230F96059405F080F97A
:1026200025B0F0BDAFF30080AFF30080AFF30080C2
:1026300002220123C26003210422836101624260FD
:10264000C362436303648364704700BFAFF30080D9
:102650004AF61C23C2F2000349F69A1245F62940B5
:10266000C3F61972C4F287005A609860704700BFC1
:1026700070B51148114E84B001F082FAFFF7A0F94D
:10268000044694F82220A368616A0D48551E0095FF
:1026900094F82020029156F822100191A569214654
:1026A0000022039501F06CFA2046FFF7A1F90446D9
:1026B0000028E6D104B070BDB0D1000870D1000888
:1026C000E0D10008AFF30080AFF30080AFF30080EB
:1026D0004DF208204DF21821C0F60000C0F60001AE
:1026E0002B22FEF70DBD00BFAFF30080AFF30080DB
:1026F0004DF2302010B5C0F6000041F6C864C2F2B9
:10270000000401F03DFA42F62E524DF27821C0F25B
:1027100033122046C0F6000101F0E2F84DF2A82184
:102720004DF28820C0F60001C0F6000001F028FA42
:102730004DF2B020C0F6000001F022FA4DF2DC208C
:102740004DF2EC21C0F60000C0F6000101F018FACD
:1027500048F2A0624DF230312046C0F60001C0F2CE
:10276000010201F0BDF84DF240312046C0F60001F3
:102770004FF4E13201F0B4F846F640724DF25031B8
:102780002046C0F60001C0F2401201F0A9F84FF453
:102790003D424DF260312046C0F60001C0F20152C8
:1027A00001F09EF84FF4F4424DF270312046C0F62D
:1027B0000001C0F6032201F093F84DF2803120466B
:1027C0000122C0F6000101F08BF84DF2983120464D
:1027D0000122C0F6000101F083F84DF2A831204635
:1027E0000122C0F6000101F07BF84DF2C431012254
:1027F000C0F60001204601F073F8204601F010F801
:102800004DF2E0312046C0F6000100F0E1FE4DF24D
:10281000E4312046C0F6000100F0DAFE4DF2E83166
:10282000C0F60001204600F0D3FE204601F048F833
:102830004DF2F43120460122C0F6000101F050F8BB
:102840004DF2084120460122C0F6000101F048F88F
:102850004DF21C4120460122C0F6000101F040F873
:102860004DF2384120460122C0F6000101F038F84F
:102870004DF254412046C0F60001012201F030F82B
:102880004DF2704101222046C0F6000101F028F807
:102890004DF2844120460422C0F6000101F020F8E8
:1028A0004DF29C412046C0F600014FF4C87201F081
:1028B00017F84DF2B4412046C0F60001012201F0A4
:1028C0000FF84FF4FA70BDE81040FEF7B9BF00BF33
:1028D00008B540F62043C2F20103C1B21A68184697
:1028E0009368984708BD00BFAFF30080AFF3008046
:1028F00038B540F62043C2F2010305461C680A467B
:10290000246818462946A04738BD00BFAFF30080B1
:1029100070B541F600640346C2F200040D4620463D
:102920001946164609F00CFF204629463246BDE8F6
:102930007040FEF7E5BB00BFAFF30080AFF300804F
:1029400008B501F055FD44F21140C0F6000000F05A
:102950008FF841F6C860C2F200004DF2D84100F194
:102960002C02C823C0F6000100F092FFFFF7C0FE62
:102970004DF2E04042F2F161C0F60000C0F6000105
:1029800001F04EFC4DF2E84042F2D161C0F6000089
:10299000C0F6000101F044FC4DF2F04042F27161DA
:1029A000C0F60000C0F6000101F03AFCBDE80840A6
:1029B00001F03EBCAFF30080AFF30080AFF30080C6
:1029C0002DE9F843204BDFF88C8098691F4A204E90
:1029D000DFF884908261454608F14E0731681C4853
:1029E000CC68A047044600B200281DDB04281BD099
:1029F00008280BD00D281AD01F28EFDDBD42EDD2DC
:102A0000E0B2FFF765FF05F8014BE7E7E4B24545A3
:102A10002046E3D0FFF75CFF2020FFF759FF204658
:102A2000FFF756FF013DD9E70020BDE8F883FFF727
:102A30004FFF0A20FFF74CFF002306482B70D9F800
:102A4000002005469047C9E7BC1D002080D500083E
:102A5000200C01200C08002000250020AFF300808E
:102A600001207047AFF30080AFF30080AFF3008028
:102A700010B542F20053C2F200034FF440641860F4
:102A800040F6000140F6204082B0C4F20204C2F2D7
:102A90000001C2F2010002F05BF920464FF4007120
:102AA00040F2823207F08CFC20464FF4807140F2F5
:102AB000823207F085FC0020009042F6C11341F6F7
:102AC000C8704FF4A7614022C0F60003C2F20000B4
:102AD000FEF796FE02B010BDAFF30080AFF30080AA
:102AE00008B501F0D5FE202383F3118818B9BDE89D
:102AF0000840FEF7FDBBBDE80840FEF7C1BB00BFC4
:102B000010B501F0C5FE044628B9FEF7D1FB2346F7
:102B100083F3118810BDFEF793FB002383F3118824
:102B200010BD00BFAFF30080AFF30080AFF30080B3
:102B300008B543F22833C2F200034DF290501A68F0
:102B4000C0F60000511C196000F08AF94DF2A8503F
:102B5000C0F600000D21BDE8084000F071B900BFCB
:102B600043F22833C2F2000343F208305A68C2F23B
:102B70000000013220215A6000F062B9AFF30080FA
:102B800008B543F22833C2F200034DF2B8509A68F8
:102B9000C0F60000511C996000F062F942F2045046
:102BA000C2F2000040F60461BDE8084000F048B9F8
:102BB00008B54DF2CC50C0F6000000F051F94DF2CE
:102BC000DC50C0F600000721BDE8084000F038B92D
:102BD000482808B515D04F2817D0572819D04228B3
:102BE0001BD043281DD0742807D0542805D00F4B84
:102BF0001A69501C1861002008BDFFF7D9FF012099
:102C000008BDFFF795FF012008BDFFF7A9FF0120D0
:102C100008BD00F035F9012008BD00F071F9012070
:102C200008BDFFF7ADFF012008BD00BF283300201D
:102C3000022906D0032906D00748012918BF002021
:102C4000704706487047032A03D8054800EBC200C6
:102C500070470020704700BFA0D7000870D600085A
:102C600070D70008AFF30080AFF30080AFF30080AF
:102C7000022938B50C46054616D1202383F3118866
:102C8000FEF7FEFA28460121084A02F021FC2146FF
:102C9000074A284602F01CFC064802F0E1F9FEF75C
:102CA000CFFA002383F3118838BD00BFF0D50008A8
:102CB00080D600083C330020AFF30080AFF30080E3
:102CC00038B543F23C35C2F200054DF29074284607
:102CD000C0F6000402F05CF92146284602F088F9AB
:102CE0002468236D9A6B48F2A06022F40021996356
:102CF000C0F20100FEF7A4FD4DF2B0612046C0F61F
:102D0000000102F0ADFB236D986B002440F400221B
:102D100040F6A8309A632146C2F20100C4F20204D0
:102D200002F016F80421204640F2823207F048FBF8
:102D30002046082140F28232BDE8384007F040BB0F
:102D400043F23C33C2F20003D3F8540201680A781C
:102D5000131F584258417047AFF30080AFF3008013
:102D600010B543F6081343F22834C2F20003C2F24E
:102D700000044DF2B07019682269C0F6000000F03E
:102D8000FFFE4DF2D8702168C0F6000000F0F8FE9A
:102D90004DF2F47061682022C0F6000000F0F0FEF1
:102DA0004DF61800A168C0F6000040F6046200F07D
:102DB000E7FE4DF63C00E168C0F6000040F6046214
:102DC00000F0DEFE43F2C851C2F200014DF6600091
:102DD0000968C0F60000BDE8104000F0D1BE00BF99
:102DE000124B134A986970B5124E134D8261FFF76A
:102DF000A7FF78B131680F48CC68A04704B22046DD
:102E0000FFF7E6FE58B12B68581C2860FFF798FFC3
:102E10000028EFD14FF47A70FEF712FDE7E7214664
:102E20000648224600F0ACFEEDE700BFBC1D0020C6
:102E30007CD800083C3300200839002090D80008D6
:102E400038B543F23C33C2F2000305461C680A461B
:102E5000246818462946A04738BD00BFAFF300805C
:102E6000014608B54EF28070C0F6000000F088FE02
:102E7000BDE80840FFF774BFAFF30080AFF30080F8
:102E800043F2C853C2F200034DF6B0001A6810B501
:102E9000511CC0F600001960FFF7E2FF4DF6C000BC
:102EA000C0F60000032100F06BFE43F23C30C2F29A
:102EB000000043F2C4540368C2F200045B680322BA
:102EC0002146984701464DF6D000C0F6000000F0BC
:102ED00057FE4DF6DC00C0F60000B4F90010A278F1
:102EE00000F04EFE40F65C00C2F20000A178B4F99A
:102EF00000200368995410BDAFF30080AFF3008049
:102F000008B543F22833C2F200034DF6F400DA6844
:102F1000C0F60000511CD960FFF7A2FF40F63C202C
:102F2000C2F2000042F20451C2F2000140F6046213
:102F3000006809F075FABDE8084005F0C1BC00BFA3
:102F400040F63C23C2F2000342F204501968C2F278
:102F5000000040F6046209F063BA00BFAFF30080DE
:102F600000B543F60C10C2F200004DF6041183B018
:102F700000F12C02C823C0F6000100F089FC4DF6D8
:102F80001410C0F6000000F0FBFDFFF799FEFFF7FC
:102F9000D7FF4DF6301042F66151C0F60000C0F682
:102FA000000101F03DF90023009343F2D05042F6B6
:102FB000E1534FF44E714022C0F60003C2F200000C
:102FC000FEF71EFC03B000BDAFF30080AFF300803E
:102FD00010B52DED028B05F083FD43F20834C2F2EB
:102FE0000004F0EE088A2060062003F0A9FC07EE3A
:102FF000100AF8EEC77A9FED1B8A27EEA80A4FF455
:103000000041C0EE080AC4F2BB4130EEA01A11EE36
:10301000100A06F0DDFA60600E2003F091FC01EE6C
:10302000900AB8EEE12A4FF4404162EE288AC4F2D9
:103030002851C8EE882A32EEA28A18EE100A06F04D
:10304000C7FAA06006F0A4F9E06006F0E9F9206193
:1030500006F01EFA606106F05BFAE061BDEC028BDF
:1030600010BD00BF00F07F45AFF30080AFF30080DC
:1030700043F60453C2F2000301221A60704700BFF6
:103080002DE9F04707EE101A2DED048BB8EEC78A34
:10309000DFED4B8A88EE288A84B007464DF640144F
:1030A000C0F600044DF65018C0F600084DF6841620
:1030B000C0F60006F0EE089A18EE101A05F038FF78
:1030C00082460E2003F03CFC00EE100AF8EEC07AB7
:1030D0009FED3C9A67EEA90A4FF4404180EE891AB1
:1030E000C4F2285171EE011A11EE900A06F070FA3E
:1030F00005F0DEFE0546062003F022FC02EE100A73
:10310000F8EEC22A4FF4004162EEA99AC4F2BB4124
:1031100089EE893A73EE033A13EE900A06F058FAF4
:1031200005F0AEFE814606F0F3F905F0D9FE09EE92
:10313000100A5046FDF7B8F902460B46204600F04B
:103140001FFD2846FDF7B0F9044648460D46FDF739
:10315000ABF929EE284A2246BDEEC49A2B46CDE9AA
:1031600000018DED029A404600F00AFD18EE101A9B
:10317000384605F00DFF04EE900A24EEA85A18EE2A
:10318000100AFDEEC58AFDF78FF9CDED008A0246E3
:103190000B463046394600F0F3FC18EE908A43F6B1
:1031A00004404DF6A41118EE902AC2F20000C0F6B9
:1031B000000104B0BDEC048BBDE8F04700F0E0BBBB
:1031C0000000C84200F07F45AFF30080AFF30080FD
:1031D0004DF6C0114DF6BC13C0F60003C0F6000159
:1031E000002818BF194610B50446054800F0C8FC71
:1031F00004480549224600F073FB0448046010BDF2
:10320000C4D90008083D0020E0D900080C3A00208D
:103210000320012103F024BFAFF30080AFF300804F
:10322000F8B52DED028BFFF71BFC10B9BDEC028B3E
:10323000F8BD6C4C236893B16B4E6C4F0320012199
:1032400003F00EFF6A48216832683B6800F098FC82
:1032500048F2A060C0F20100FEF7F2FAFEE700F0CB
:103260009FFB03F0A5FC634801680029DED0624F94
:10327000624EFA6845F6C5245509C0F67C24A4FBC5
:103280000513DD0903F09CFC044630685C49A0424C
:1032900002D10A68AA42C9D0FF680D6005F020FC7F
:1032A00048F21F53C5F2EB130546A3FB0720410963
:1032B00007EE901A9FED530AB8EEE77A0323C7EEA4
:1032C000000A514851493460F0EE088A10EE902A05
:1032D00000F066FA22464C484D4900F019FA2A4699
:1032E0004C49494800F014FA04F062FE4A4902468B
:1032F000454800F00DFA06F093F80146284605F01F
:1033000047FE0223024645493F4800F049FA06F0CD
:10331000BFF80223024642493B4800F041FA06F05A
:10332000DFF8022302463F49374800F039FA06F039
:1033300077F8022302463C49334800F031FA06F0A0
:1033400087F805210246304800F05AFA06F020F8C6
:1033500001EE100AFDEEC11A032111EE902A2A484F
:1033600000F03EFA062003F0EBFA02EE100AF8EE47
:10337000C22A9FED2E8A22EEA83A4FF40041C3EEF6
:10338000083AC4F2BB4133EEA34A14EE100A06F029
:103390001FF9012102461C4800F032FA0E2003F00A
:1033A000CFFA04EE900AB8EEE45A4FF4404165EECD
:1033B000288AC4F22851C8EE885A35EEA58A18EE3C
:1033C000100A06F005F9022102460F4800F018FA2B
:1033D0000D4802F0DDFF0C48BDEC028BBDE8F84063
:1033E00000F06EBAA81D0020981D0020A01D00202E
:1033F000E4D900080C3A0020AC1D00206008002031
:103400006408002000007A44083D002000DA00082B
:1034100008DA000810DA000814DA000818DA0008E0
:1034200024DA000828DA000830DA000800F07F45C6
:1034300043F608504DF6342143F6102208B5C2F287
:103440000000C0F60001C2F200024FF4FA7300F06F
:103450001FFA43F60440C2F200004DF6402100F18D
:103460002C02C823C0F6000100F012FA0120FFF779
:10347000AFFE4DF6542043F28101C0F60000C0F6C5
:10348000000100F0C5FE4DF6E01043F2D111C0F688
:103490000000C0F6000100F0B3FE4EF6881043F2C3
:1034A0007101C0F60000C0F60001BDE8084000F060
:1034B000B7BE00BFAFF30080AFF30080AFF3008072
:1034C0000F4B104A70B4DC68156848F29F63651BA7
:1034D000C0F201039D42064607EE901A01DC70BC63
:1034E00070479FED097A27EE870A1460FDEEC00A47
:1034F000064810EE902A314670BC00F041BA00BF79
:10350000AC1D00206808002000007A44083D00201F
:10351000F8B5074609F074F9114B124D064693E8C9
:1035200003002860A980681D314601F0A9F904460E
:103530003A2004F8010B39462046A71909F000F992
:103540000D210A22A1557A70FFF78AFA00B9F8BD59
:10355000BB1C2846591BBDE8F840FFF7C9B900BF9E
:1035600060DA000818650020AFF30080AFF3008038
:1035700008B5052806D8DFE800F00C0E1012140379
:10358000094808BD09480A492122FFF7C1F900206E
:1035900008BD084808BD084808BD084808BD0848D7
:1035A00008BD084808BD00BF7CDA000880DA0008C2
:1035B00098DA00084CF9000870DA00086CDA0008A4
:1035C00068DA000874DA0008AFF30080AFF3008017
:1035D000F8B50E46044600293AD0304609F010F9F5
:1035E000D4F8F4300546002B38D0D4F8F800D4F8DD
:1035F000FC20C11A6B189A4209DD6A1C314608F09A
:103600000FFFD4F8F8004519C4F8F850F8BD244D60
:103610000FCD6060A16003CD2D88E2602361606101
:10362000A161A583216804F11D0009F039F8271D67
:103630001C4BC21BA41818883146A080384609F0DC
:1036400057F8194938464822BDE8F840FFF760B9F5
:10365000164815494F22FDF753FDBEE7144D0FCD17
:103660006060A16003CD2D88E26023616061A1618B
:10367000A583216804F11D0009F012F8271D094AED
:10368000C11B1388641838463146A38009F030F80E
:10369000054938463E22BDE8F840FFF739B900BF7A
:1036A000E0DA0008DCDA000898DA0008B4DA00088A
:1036B000C0DA0008AFF30080AFF30080AFF3008002
:1036C00038B5041D0546204601F0DAF828462146A3
:1036D000BDE83840FFF77CBFAFF30080AFF3008058
:1036E00038B504461546FFF773FF20462946FFF715
:1036F000E7FF4DF2E4312046C0F60001BDE8384056
:10370000FFF766BFAFF30080AFF30080AFF3008038
:10371000F8B54DF2E4350446C0F600051746061D1F
:10372000FFF756FF20462946FFF752FF394630463D
:1037300001F0A6F820463146FFF74AFF2046294609
:10374000BDE8F840FFF744BFAFF30080AFF300805F
:103750002DE9F8439046061D99460446089F4DF210
:10376000E435FFF735FF4146304601F089F8C0F6F1
:10377000000520463146FFF72BFF20462946FFF77C
:1037800027FF49463A46304600F0DAFF20463146E8
:10379000FFF71EFF20462946BDE8F843FFF718BF94
:1037A0002DE9F0414DF2E4350446C0F60005984697
:1037B0001746061DFFF70CFF20462946FFF708FFB6
:1037C00042463946304600F0BBFF20463146FFF7FF
:1037D000FFFE20462946BDE8F041FFF7F9BE00BFD5
:1037E00038B5044608461546FFF7C2FE2A4601468C
:1037F0002046BDE83840FFF78BBF00BFAFF3008025
:1038000070B5044608461546FFF7B2FE2A46014643
:1038100002232046BDE87040FFF7C2BFAFF300802F
:1038200038B5D0F8F450044615B1C4F8F85038BD96
:1038300003480449B922FDF763FCC4F8F85038BDC9
:10384000FCDA000898DA0008AFF30080AFF30080DC
:1038500070B5044616460D46FFF7E2FF4DF2E03123
:103860002046C0F60001FFF7B3FE4DF2E4312046DA
:10387000C0F60001FFF7ACFE204629463246BDE8FF
:103880007040FFF72DBF00BFAFF30080AFF30080A3
:10389000F8B504464DF60830C0F600000D46164651
:1038A0001F4600F06DF920462560C4F8F460C4F8A6
:1038B000FC70BDE8F840FFF7B3BF00BFAFF3008076
:1038C00010B50446D0F8F400FFF722FE2046BDE80C
:1038D0001040FFF7A5BF00BFAFF30080AFF300803B
:1038E00010B50446FFF7B4FF2046BDE81040FFF7CF
:1038F000E7BF00BFAFF30080AFF30080AFF30080FD
:1039000070B50446D0F8F4000C4D08F079FF064677
:10391000FFF7E6F8284608F073FF41F2873386196F
:103920009E4204DCD4F8F410281808F009FFFFF7D1
:10393000E7F82046BDE87040FFF772BF90510020C5
:10394000F8B504460F464DF2E4351646C0F60005BC
:10395000FFF766FF20463946FFF73AFE2046294624
:10396000FFF736FE20463146FFF7AAFE20462946DD
:10397000FFF72EFE2046BDE8F840FFF7C1BF00BFAD
:1039800010B50446FFF764FF2046BDE81040FFF77E
:10399000B7BF00BFAFF30080AFF30080AFF300808C
:1039A00038B50A4C0A4DFFF79BF82946204608F027
:1039B000C7FE00232B70FFF7A3F8207800B938BDAD
:1039C0002046BDE83840FFF7A3BD00BF083E0020F9
:1039D00090510020AFF30080AFF30080AFF3008080
:1039E0002DE9F041B1F10008054656DD00780028C8
:1039F0004DD02E46002316F8017F0133002FFAD157
:103A0000984545DCB84612F0020F0CBF2026302640
:103A100012F001023FD1B8F1000F42DD08F1FF3191
:103A20000C46304601F00107FEF752FF4CB11FB9BA
:103A30003046FEF74DFF013C3046FEF749FF013CA2
:103A4000F6D1287844464FF0000830B1FEF740FF29
:103A500015F8010F01340028F8D1B8F1000F13DD7B
:103A600008F1FF373D46304607F00107FEF730FF0B
:103A70004DB11FB93046FEF72BFF013D3046FEF732
:103A800027FF013DF6D144442046BDE8F0810346BE
:103A9000C3EB0808B7E70024D7E720260024007806
:103AA000D3E71446D1E700BFAFF30080AFF3008047
:103AB000F0B587B005460C9F0446002837D0002A91
:103AC00031D100208DF81700002C4CD00D9E0DF147
:103AD0001605A6F13A0CB4FBF1F001FB1044092CD9
:103AE000C8BF644404F1300E2E46044605F801E9CF
:103AF0000028F0D172B1002B24D12D2206F8012C20
:103B00000024013E304619463A46FFF769FF001986
:103B100007B0F0BD16490868F0B12B2406F8014C37
:103B20001446013EEEE70A2918D00022C9E71946DB
:103B300003A830233A468DF80C308DF80D50FFF76E
:103B40004FFFE5E7BA07D8D52D200193FEF7C0FE59
:103B5000019B0124013BD5E71446D3E70028E4DAB2
:103B600044420122ADE70DF11706002AD2D0C2E788
:103B7000A0780020AFF30080AFF30080AFF30080A7
:103B80000FB42DE9F04F2DED028BA5B0FEF768FFC5
:103B900030B925B0BDEC028BBDE8F04F04B07047E2
:103BA000309B47F6A000C2F200001A7800210160A5
:103BB000002AEED046F24E144CF6CD48C0F24E0428
:103BC000252A0DF1C40BCCF6CC48029461D158786B
:103BD0005C1C0028DDD025285DD02D2800F0018256
:103BE00000252B2800F0F481302807D1661C3446CC
:103BF00016F8010B302845F00205F8D02E2800F009
:103C0000C581A0F13007092F40F2C08106260027A8
:103C10006C2804BF607801345838202800F2A9814C
:103C2000DFE810F09501A701A701A701A701A701EF
:103C3000A701A701A701A701A70183017201A7019D
:103C40006100A701A701A701A701A701A701A7017B
:103C5000A701A701A701A701A7014D00A7013C00EB
:103C6000A701A701210061235BF8040B0193002247
:103C7000009510213B46FFF71BFF47F6A002C2F25A
:103C80000002002010606278631C002A81D0252A7F
:103C90009DD018781C46FEF71BFEF4E761215BF807
:103CA000040B01913B4600950A210022FFF700FF1B
:103CB00047F6A000C2F2000000230360E3E75BF8D0
:103CC000040B4DF6203CC0F6000C39462A4600286D
:103CD00008BF6046FFF784FE47F6A001C2F200016C
:103CE00000220A60CFE71BF0070F18BF0BF1040B8F
:103CF000FBE80201FCF7CCFE08EE100A08F098F889
:103D0000002800F07281B5EEC08AF1EE10FA00F1E1
:103D1000828147F6A00AC2F2000ADAF80030002BCE
:103D200000F076812B208DF83C000DF13D0C0FA8A2
:103D3000072E0CD84DF63031C0F6000101EB86039A
:103D4000D3ED007A38EE278A002E00F06D81012233
:103D5000711E0A23B24201EA020E194611D0BEF1C9
:103D6000000F04D002226423B242194609D003EBAB
:103D70008303D90001EB430302325B00B2421946D0
:103D8000F5D106EE901AB8EE660ABCEEC87A17EEC8
:103D900010AABAF1000F00F0368117EE103A002198
:103DA0000DF11409A8FB03E2D20802EB820EA3EB8B
:103DB0004E0303F1300E09F801E013460131002AE9
:103DC000F0D1002900F01F818944634619F801ED04
:103DD00003F801EB61446FEA0C028A188B4202F08F
:103DE000010212D02AB119F8012D03F8012B8B42E0
:103DF0000BD019F801CD1A4619F801ED02F801CBE4
:103E000083F801E0531C8B42F3D1002E66D000EE04
:103E100090AAB8EE601A194638EE418A2E2268EE52
:103E2000001A01F8012BBCEEE12A039112EE102AD0
:103E3000002A00F003814FF0000E0DF11409A8FBD9
:103E400002C1C90801EB810CA2EB4C0202F1300C5B
:103E500009F80EC00A460EF1010E0029EFD1764591
:103E600040F2E5800EF1FF390DF1140CE1440DF143
:103E7000130202EB060E6FEA090A09F10102302172
:103E8000F244724589F801100AF0010A0ED0BAF125
:103E9000000F03D002F8011F724507D002F101099B
:103EA00051700232724589F80110F7D10CEB06020D
:103EB000711E12F801ED624503F801EF01F00101F6
:103EC0000AD019B912F8011D03F8011F12F8011DDB
:103ED000624503F8011FF5D1039B9B1900221A705C
:103EE0009DF83C1021B1034613F8012F002AFBD1A5
:103EF00039462A46FFF774FD47F6A00CC2F2000CC3
:103F00000020CCF80000BEE661235BF8040B0193AF
:103F10000A21012200953B46FFF7CAFD47F6A001A2
:103F2000C2F2000100220A60ADE65BF8043B002605
:103F300004A839462A468DF810308DF81160FFF735
:103F40004FFD47F6A000C2F2000006609BE641224A
:103F50005BF8040B01921021009500223B46FFF70D
:103F6000A7FD47F6A00CC2F2000C0021CCF800100F
:103F700089E62520FEF7ACFC2078FEF7A9FC47F681
:103F8000A000C2F20000002303607CE60027AE46DA
:103F9000234606263D4603E0A1F1300613F8010F43
:103FA000A0F130022E28D1B21C460CD009290DD820
:103FB00006EB860400EB440107EB8700002DEBD1F4
:103FC00002EB4007EAE700260125E7E775461FE612
:103FD00047F6A002C2F20002012360781360E418E1
:103FE00002E69C1C98780125FBE5029B0FA813F0C4
:103FF0004E0F0F9318BF01463FF47AAF11F8012F0F
:10400000002AFBD174E76346302103F8011BFCE66C
:104010000FA884468CE62D228DF83C20B1EE488A0C
:104020000DF13D0C0FA883E6B7EE000AADE6BEF138
:10403000000F06D13021597002334FE712EE10EA1B
:104040000DE776460DF1140C30E700BFAFF30080AA
:1040500070B50446012504E014F8013B2D2B0DD169
:104060006D42204608F0CCFB22460028F4D144F2F1
:104070003012C0F2AB0202FB05F070BD002834DD47
:10408000303BD9B2092929D810180138811A0024E7
:10409000C90717D512F8011F1C46A1F13003D9B288
:1040A00009290FD91AE011F8014F303C0A46E1B254
:1040B000092904EB460411D812F8013F303BD9B26C
:1040C00009290BD804EB840403EB44038242114614
:1040D00003EB8306E7D103FB05F070BD4BF6D06020
:1040E000CFF6547000FB05F070BD002070BD00BF1E
:1040F00070B50D46064608F083FB0446284608F0D6
:104100007FFB844201D0002070BD002C25DD327879
:104110002B789A42F7D10022E0073346294617D47C
:1041200013F8015F11F8010F01228542EBD1013232
:10413000944202F1010210D013F8015F11F8010F4F
:104140008542E0D113F8015F11F8010F8542DAD101
:104150000132944202F10102EED1012070BD00BF94
:1041600070B50C4E0C483168FFF70AFD3368002B20
:104170000FDD0A4D002404EB440105EB81020848E1
:1041800055F821105268FFF7FBFC30680134A0425B
:10419000F1DC70BDA478002050DB0008707A0020AC
:1041A00068DB0008AFF30080AFF30080AFF300805E
:1041B00001464DF68030C0F60000FFF7E1BC00BFBD
:1041C000F0B40B4C2368202B0BD00A4F03EB4306B3
:1041D000B600BD190133B85123606960AA60F0BC14
:1041E0007047054805491722F0BCFEF791BB00BF98
:1041F000A4780020707A002090DB0008ACDB000877
:104200000A460121FFF7DCBFAFF30080AFF3008067
:104210000A460421FFF7D4BFAFF30080AFF300805C
:104220000A460021FFF7CCBFAFF30080AFF3008058
:1042300008B54DF6CC3044F26111C0F60000C0F66E
:104240000001FFF7EDFF4DF6D43044F2B111C0F696
:104250000000C0F60001BDE80840FFF7D1BF00BF75
:10426000F8B54368032B06460D4671D0042B08466B
:104270000CD0022B43D0FFF7EBFE4BF6D061CFF60C
:104280005471884235D0B2689047F8BD08F0B8FA4A
:104290000028FADD2C78202C00F099806C1C00227C
:1042A000C3071FD42178012220292346144419D1A1
:1042B000511CEAD0571C002018702846FFF7C8FE92
:1042C0000446E819FFF7C4FEB36801462046984744
:1042D000F8BD1C78202CEBD00B46097801325C1C11
:1042E0002029E5D001329042234604F10101F0D1AA
:1042F000F8BD3B482946BDE8F840FFF741BC08F04F
:104300007FFA00281CDD2B782E2B66D0691C00223A
:10431000C3070FD40C7801222E2C0B46114409D16F
:104320001AE01C782E2C17D00C780B460132013184
:104330002E2C11D0013290420B4601F10101F0D137
:104340002846FFF785FE06EE100AF8EEC62A39E089
:10435000826808469047F8BD511CF1D0571C0020D8
:1043600018702846FFF774FEEF190546384608F026
:1043700047FA04463846FFF76BFE002C2ADD012180
:10438000631EF2EE047A8C4203F00102B0EE677A0B
:104390000CD022B102218C4227EEA77A06D027EE5C
:1043A000270A02318C4220EE277AF8D100EE900ADB
:1043B000F8EEE06A01EE105A86EE872AF8EEC11A8E
:1043C00071EE822AB36812EE900A9847F8BD2B4628
:1043D000012770E7B7EE007AE8E72B460127BEE732
:1043E000DCDB0008AFF30080AFF30080AFF30080A8
:1043F00047F67010C2F200004DF6F431C0F600012D
:1044000000F12C02C823FFF743BA00BFAFF30080CE
:104410002DE9F04F014681B0054604227C4808F0A2
:104420001FFA002800F09180002D00F0EB80794BFE
:10443000794C0FCB07C42046294600F8013B08F011
:104440002FF9764A118801802C7854B1202C4FF036
:10445000000402D105E0202803D00134285D0028A3
:10446000F9D1284608F0CCF9A04282466C4B48D0DE
:10447000D3F80090002291452A552C4455DD694F10
:1044800009F1FF332846396803F00108BB46FFF7FE
:104490002FFE50BB01264E4547D0B8F1000F14D077
:1044A000BB4628465BF80C1FFFF722FEE8B9022640
:1044B0004E450AD139E0284657F8281007EB880BFB
:1044C000FFF716FE88B94E452FD006EB4602284668
:1044D00057F8221007EB820BFFF70AFE06F10108DE
:1044E00008EB480802360028E5D05846611CFFF763
:1044F000B7FE4D484849524601B0BDE8F04FFFF7BE
:104500003FBAD3F80080B8F1000F0EDD454E08F138
:10451000FF372846316807F00107B146FFF7E8FD8D
:10452000002864D1012444453CD100223E483F4943
:10453000FFF726FA3C4838494FF0FF32FFF720FAE0
:1045400001B0BDE8F04FFFF70BBE394829462C1DDE
:10455000FFF716FB36482146FFF712FB2B79212B7C
:1045600053D0002B47D0681D01E0002A43D00546F8
:1045700010F8012B212AF8D1002105F8011B204653
:10458000FFF766FD0446284608F03AF984420246E1
:104590003FF44DAF274821462B4601B0BDE8F04F10
:1045A000FFF7EEBAA7B1B146284659F80C1FFFF73E
:1045B0009FFDE0B9022444450AD1B6E7284656F8E3
:1045C000271006EB8709FFF793FD80B94445ACD06F
:1045D00004EB4403284656F8231006EB8309FFF743
:1045E00087FD671C07EB470702340028E6D0D9F89F
:1045F000081088477DE71048214601B0BDE8F04F1C
:10460000FFF7BEBA01B0BDE8F08F2546B4E700BFA2
:1046100004DC00086CDC0008A878002064DA0008DC
:10462000A4780020707A0020707900207CDC0008DB
:104630000CDC000838DC00081CDC0008AFF300804C
:10464000F0B4064600F10B0700F10A04B1FBF2F5E5
:1046500002FB151101F13003392BC8BF01F13703FB
:10466000DBB22046294604F80139002DEED13A1A72
:104670000146B018F2438218D2070AD506F8013B6A
:1046800011F8013F05E011F8013F737011F8013F87
:10469000561C324602F8013B8242F4D1F0BC70470E
:1046A000092870B436DD632838DDB0F57A7F33DB56
:1046B00042F20F73984233DD48F29F61C0F201016C
:1046C00088422FDD44F23F22C0F20F0290422BDDE0
:1046D00049F27F64C0F29804A04229DD4EF2FF0542
:1046E000C0F2F555A84221DD46F267610123C6F20A
:1046F000666102E00133A8420ADD81FB0062C01757
:10470000C0EBA200A0421E46F4DC981D70BC7047AE
:10471000F01DFBE70020F9E70220F7E70120F5E7AD
:104720000320F3E70420F1E70520EFE70720EDE79A
:104730000620EBE7AFF30080AFF30080AFF300801B
:10474000F0B52DED028B08EE101AB5EEC08AF1EE31
:1047500010FA83B0154609D52D23B1EE488AB5EE7F
:10476000C08AF1EE10FA00F8013BF6D4FDEEC88ADB
:104770000A2218EE901AFFF763FF002D044642DD6F
:104780000646F8EEE88A2E206F1E38EE688A06F894
:10479000010B072F55D8DFE807F0404244474A4F46
:1047A000043B49F28061C0F2980107EE101AF8EE5E
:1047B000C77A27EE880ABDEEC08A18EE100A8DED82
:1047C000018AFFF76DFF431CAB42019914DA2346BF
:1047D0003022E51903F8012F2D1AE4436419AB4286
:1047E00004F0010406D00CB903F8012F03F8012FDF
:1047F000AB42F9D13F1AF61930460A22FFF720FFE3
:10480000044600202070204603B0BDEC028BF0BDB2
:104810004FF46141C0F2F551C7E70A21C5E76421B1
:10482000C3E74FF47A71C0E742F21071BDE748F276
:10483000A061C0F20101B8E744F24021C0F20F01CB
:10484000B3E7FEE7AFF30080AFF30080AFF3008083
:104850000B1E10B5044604DBFFF7F2FE00210170C9
:1048600010BD2D2100F8011B5942FFF7E9FE00227F
:10487000027010BDAFF30080AFF30080AFF3008093
:104880000A22FFF7E5BF00BFAFF30080AFF300805F
:1048900041F69C53C2F2000318680028D4BF0020E0
:1048A00001207047AFF30080AFF30080AFF30080CA
:1048B0002DE9F041194C984625680F4604461646E6
:1048C000202383F31188002D13DDFCF7D9FCE06869
:1048D00010B12046FCF77CFD43462046394632465F
:1048E000FCF746FDFCF7ACFC002383F31188BDE820
:1048F000F081FCF7FDFCE36813B12046FCF768FD8E
:104900004346204639463246FCF732FDFCF7D0FCE0
:10491000002383F31188BDE8F08100BF9C1D0020B7
:1049200008B505F0B5F940F2A020C0F6010005F089
:104930006FFC00F02DF800F0A3F800F059F900F03A
:10494000D7F900F065FC00F073FD00F019FBBDE83D
:10495000084007F065BA00BFAFF30080AFF30080F6
:104960004FF48053CEF2000319465A6880188242F1
:104970004B6802D29A4202D970479A42F7D99842BC
:1049800094BF00230123002BF1D17047AFF30080C7
:1049900005F046BAAFF30080AFF30080AFF30080BC
:1049A00000230122027043608360C360036143619E
:1049B0001830FDF7F5B800BFAFF30080AFF300800B
:1049C00038B504460D46C8B1202383F31188FCF79F
:1049D0008FFC2378581E012804D90B480B497522F7
:1049E000FCF78EFB2046656005F04AFA0221217033
:1049F000FCF75EFC002383F3118838BD04480349AB
:104A00007122FCF77DFBDFE7BCDC0008A0DC0008BE
:104A100090DC0008AFF30080AFF30080AFF30080BC
:104A2000F8B504460E4617461D46FCF7B1FBDCB14F
:104A3000D6B1CFB1012D01D0EB0715D420780228D3
:104A400008D0042806D0052804D00A480A49C722FD
:104A5000FCF756FB03232046A760E5602661237020
:104A6000BDE8F84005F074BA04480349C322FCF7D6
:104A700047FBE3E700DD0008A0DC0008E8DC0008F5
:104A800006F08EBDAFF30080AFF30080AFF300807F
:104A90000123002103704160704700BFAFF3008025
:104AA00038B504460D46D0B1C9B1202383F311882F
:104AB000FCF71EFC2378581E012804D90B480C492A
:104AC0006422FCF71DFB2046656006F099FD02217B
:104AD0002170FCF7EDFB002383F3118838BD0548F6
:104AE00003496022FCF70CFBDFE700BFECDD0008A8
:104AF000D0DD0008C0DD0008AFF30080AFF3008018
:104B000010B50446C0B1202383F31188FCF7F0FBF5
:104B10002378581E012804D90A480B497822FCF74B
:104B2000EFFA204606F034FE01212170FCF7C0FBAD
:104B3000002383F3118810BD044803497422FCF755
:104B4000DFFAE0E708DE0008D0DD0008FCDD000841
:104B500010B50446B8B1202383F31188FCF7C8FBD5
:104B60002378022B04D00B480B498A22FCF7C8FAA1
:104B7000204606F065FE03202070FCF799FB002319
:104B800083F3118810BD054803498722FCF7B8FA62
:104B9000E1E700BF28DE0008D0DD000818DE0008CD
:104BA00010B50446C0B1202383F31188FCF7A0FBA5
:104BB0002378981E032804D90A480B499E22FCF743
:104BC0009FFA204606F064FE02212170FCF770FB7C
:104BD000002383F3118810BD044803499922FCF790
:104BE0008FFAE0E748DE0008D0DD000838DE000874
:104BF00006F0B6BEAFF30080AFF30080AFF30080E5
:104C00000123002103704160704700BFAFF30080B3
:104C100038B504460D46E0B1D9B1202383F311889D
:104C2000FCF766FB2378581E012804D90C480D496F
:104C30006922FCF765FAA98865602046218106F0A3
:104C4000AFFE02222270FCF733FB002383F31188AE
:104C500038BD054803496522FCF752FADDE700BF7D
:104C60008CDE000870DE000860DE0008AFF3008014
:104C70000C30FDF785B900BFAFF30080AFF30080C3
:104C80000C304FF0FF33FDF77BB900BFAFF300806E
:104C90003030FDF755BA00BFAFF30080AFF30080AE
:104CA00030304FF0FF33FDF74BBA00BFAFF3008059
:104CB0000C30FDF735B900BFAFF30080AFF30080D3
:104CC0000C304FF0FF31FDF72BB900BFAFF3008080
:104CD0003030FDF7D5B900BFAFF30080AFF30080EF
:104CE00030304FF0FF32FDF7CBB900BFAFF300809B
:104CF00006F0FEBFAFF30080AFF30080AFF300809B
:104D000070B54DF6B0730546C0F60003044645F88D
:104D1000043B82B0656001250B46164604F1540140
:104D20001022257200F10C000094FDF7A1F8009408
:104D300004F1300004F1640110223346FDF770F9EC
:104D400002B070BDAFF30080AFF30080AFF300801E
:104D500038B504460D46C8B1202383F31188FCF70B
:104D6000C7FA237A581E012804D90B480B49A622FA
:104D7000FCF7C6F92046294606F0E2FF022121721F
:104D8000FCF796FA002383F3118838BD04480349E1
:104D9000A122FCF7B5F9DFE758DF00083CDF000887
:104DA00030DF0008AFF30080AFF30080AFF3008086
:104DB00038B504460D46FCF7EBF9D4B163693BB155
:104DC00004F10C002946FDF77BF800280BDB38BD09
:104DD000201D0421FDF714F804F10C002946FDF70D
:104DE0006FF80028F3DA201D8021BDE83840FDF778
:104DF00007B803480349D822FCF782F9DEE700BF71
:104E000084DF00083CDF0008AFF30080AFF30080D0
:104E100070B5046AD4F854321A681178042900D0A5
:104E200070BD207A0228FBD115891B7945FA03F25F
:104E300012F00105F4D1266CE16BA06B731A1E1AF7
:104E4000EED0FCF735FA2B4683F31188D4F85422C0
:104E500033461068117904F1300200F0B1FB2023D1
:104E600083F31188FCF744FAD4F8541208680979DE
:104E7000BDE8704000F0DCBBAFF30080AFF3008012
:104E8000F8B5046AD4F8542213681978042900D0BC
:104E9000F8BD207A0228FBD155795F8903EB8503A1
:104EA00047FA05F2D96812F001074D8AF0D1E66998
:104EB000A0696369321AD61AB542E9D8FCF7F8F945
:104EC0003B4683F31188D4F85412B6FBF5F305FB87
:104ED00003F30868497904F10C0200F061FB202318
:104EE00083F31188FCF704FAD4F85432186859791E
:104EF000BDE8F84000F074BBAFF30080AFF3008072
:104F00000C30FDF73DB800BFAFF30080AFF3008079
:104F10000C304FF0FF33FDF733B800BFAFF3008024
:104F20003030FDF70DB900BFAFF30080AFF3008064
:104F300030304FF0FF33FDF703B900BFAFF300800F
:104F40000C30FCF7EDBF00BFAFF30080AFF3008083
:104F50000C304FF0FF31FCF7E3BF00BFAFF3008030
:104F60003030FDF78DB800BFAFF30080AFF30080A5
:104F700030304FF0FF32FDF783B800BFAFF3008051
:104F8000704700BFAFF30080AFF30080AFF3008045
:104F900030B54EF220030546C0F60003044645F83E
:104FA000043B83B0656044F68163012504F154013C
:104FB000257200F10C004FF48072C0F600030094DB
:104FC000FCF756FF44F61163009404F1300004F539
:104FD000AA714FF48072C0F60003FDF721F803B008
:104FE00030BD00BFAFF30080AFF30080AFF30080AF
:104FF00070B50D4604460E6818B3202383F311885C
:10500000FCF776F9237A581E012804D91048114973
:10501000DF22FCF775F8297906EB81020221946101
:105020006B79093346F82340A87906EB8006B46112
:10503000C4F854522172FCF73BF9002383F3118822
:1050400070BD05480349DA22FCF75AF8D5E700BFDE
:1050500000E00008E0DF0008D0DF0008AFF30080C8
:1050600070B5D0F8543200F10C06044630461D6885
:10507000FCF70EFF04F13000FCF7E2FF201D0121D8
:10508000FCF7BEFED4F85402417905EB81022846B4
:10509000D36832465B8A00F083FAD4F85412497917
:1050A0002846BDE8704000F09BBA00BFAFF3008017
:1050B00090F8443003F06001202901D000207047AF
:1050C00090F84520212A03D0222A09D0202AF5D1A0
:1050D0000649072200238163C263036401207047ED
:1050E00000238363C3630364012070476C080020BE
:1050F000F8B500EB810306469C690D46CCB1202330
:1051000083F31188FCF7BCF8201D0821FCF778FE1A
:10511000216CE26BA06B8F1A3F1A16D106EB850348
:10512000D9684A69506828B9FCF78AF8002383F3E4
:105130001188F8BD0F8A7B1E13EA0007F4D1FCF733
:105140007FF83B4683F3118805E0FCF779F80023EC
:1051500083F311883B463046294604F1300200F0C3
:105160002FFA202383F31188FCF78AF8304629466A
:1051700000F05EFAD8E700BFAFF30080AFF3008025
:1051800001F109032DE9F04150F823400D46064690
:10519000CCB1202383F31188FCF772F8201D042181
:1051A000FCF72EFE06EB8500E169C768A26963691A
:1051B0007F8A881AC3EB0008474506D9FCF740F8F8
:1051C000002383F31188BDE8F081FCF739F8002350
:1051D00083F31188B8FBF7F307FB03F33046294646
:1051E00004F10C0200F0DCF9202383F31188FCF7B2
:1051F00047F83046294600F0F3F9DFE7AFF30080C7
:10520000704700BFAFF30080AFF30080AFF30080C2
:1052100005F0E6BFAFF30080AFF30080AFF300808E
:10522000002301220270436083600C30FCF7B8BC9D
:1052300038B504460D46D0B1C9B1202383F3118897
:10524000FCF756F82378581E012804D90B480C495E
:105250007122FBF755FF2046656006F001F8022138
:105260002170FCF725F8002383F3118838BD054829
:1052700003496D22FBF744FFDFE700BF6CE0000845
:1052800050E0000840E00008AFF30080AFF300807A
:1052900010B50446D8B1202383F31188FCF728F811
:1052A0002378581E012804D90C480D498722FBF7A2
:1052B00027FF204606F0ACF8204606F069F80121E9
:1052C0002170FBF7F5FF002383F3118810BD05481B
:1052D00003498322FBF714FFDDE700BF88E00008E5
:1052E00050E000087CE00008AFF30080AFF30080DE
:1052F00010B50446A8B1202383F31188FBF7F8FF0B
:105300002378022B04D00A480A499A22FBF7F8FEB8
:10531000204606F06DF8FBF7CBFF002383F31188DE
:1053200010BD054803499722FBF7EAFEE3E700BFFB
:10533000A8E0000850E0000898E00008AFF3008003
:1053400010B50446A8B1202383F31188FBF7D0FFE2
:105350002378022B04D00A480A49AC22FBF7D0FE7E
:10536000204606F055F8FBF7A3FF002383F31188CE
:1053700010BD05480349A922FBF7C2FEE3E700BFC1
:10538000C8E0000850E00008B8E00008AFF3008073
:1053900070B504460D46164608B1002937D11D48A0
:1053A0001D4940F26712FBF7ABFE202383F31188FF
:1053B000FBF79EFF2378022B05D0184816494FF4BF
:1053C000B572FBF79DFE6068016829B11448124967
:1053D00040F26B12FBF794FE03222270204629460E
:1053E000324606F025F8A3682BB10E480A4940F270
:1053F0006D12FBF785FE0C4881690220A160FCF765
:105400007FF8FBF755FF002383F3118870BD002A56
:10541000CBD1C4E708E2000850E0000814E200081D
:1054200024E20008C0E10008BC1D0020AFF30080AA
:1054300005F0EEBBAFF30080AFF30080AFF3008068
:105440000023012202704360C36183620362C3626E
:105450004362036303814381704700BFAFF3008061
:1054600070B504460E4600B3F9B1202383F31188CA
:10547000FBF73EFF2378581E012805D90E480F4937
:1054800040F21312FBF73CFE002520466660E56003
:1054900025616561A56105F0D3FB02212170FBF751
:1054A00007FF2B4683F3118870BD0548034940F27E
:1054B0000F12FBF725FED8E7ECE20008D0E2000867
:1054C000C0E20008AFF30080AFF30080AFF30080CC
:1054D000F8B504460E461546FBF75AFE002C2AD0B6
:1054E000002D28D02378042B05D01648164940F209
:1054F0004312FBF705FEB71C04EB8700416829B196
:105500001248114940F24512FBF7FAFD686918B1DB
:105510000021102207F02CF8A86918B100211022F0
:1055200007F026F804EB8707204631467D60BDE88A
:10553000F84005F0A5BC0648034940F24112FBF7CC
:10554000DFFDCFE730E30008D0E200084CE30008BD
:1055500018E30008AFF30080AFF30080AFF30080E2
:1055600030B400EB81040025E468A4692570E26092
:105570006360A56030BC05F06BBD00BFAFF3008079
:1055800030B400EB81040025E46864692570E260B2
:105590006360A56030BC05F073BD00BFAFF3008051
:1055A00030B400EB8104E568AC6901256360002339
:1055B0002570E260A36030BC05F04ABDAFF3008007
:1055C00030B400EB8104E5686C6901256360002359
:1055D0002570E260A36030BC05F052BDAFF30080DF
:1055E00070B504460D46FBF7D3FD9CB1638943FAC1
:1055F00005F010F0010601D0012070BD012202FA71
:1056000005F242EA030161812046294605F058FD72
:10561000304670BD034804494FF4F472FBF770FD47
:10562000E4E700BFA0E30008D0E20008AFF3008089
:1056300070B504460D46FBF7ABFD9CB1238943FAD8
:1056400005F010F0010601D0012070BD012202FA20
:1056500005F242EA030121812046294605F038FD82
:10566000304670BD0348044940F20322FBF748FD71
:10567000E4E700BFB8E30008D0E20008AFF3008021
:1056800010B40346002202240470A0F84C2083F8D2
:105690004E2080F84F2002814281C2600261426147
:1056A000826183F8342010BC05F03ABBAFF3008070
:1056B000F8B50446002380F8343000F1440205F0C8
:1056C000B7FC6068816800292DD02046884750B318
:1056D000E56B94F8443094F84B1094F84A2042EA71
:1056E0000120A8423CBF0546E06313F0800F2B4623
:1056F00040F08780002D6DD1052184F834102046BC
:1057000029462A46FFF73CFF202383F31188FBF745
:10571000B7FD29462046FFF78BFFFBF791FD2B468F
:1057200083F31188F8BD94F8443013F0600711D06A
:105730000021204605F0ECFC2046002105F0E0FCAD
:1057400063681A6812B1204605219047062084F844
:105750003400F8BD94F8456003F07F0242EA062663
:10576000B6F5407F00F0068117DDB6F5C06F00F09A
:10577000968075DDB6F5106F00F0C18040F60242EC
:10578000964200F08580B6F5006FD1D1012504F175
:105790004F00A063E56327649DE7022E00F0C180FF
:1057A00071DDB6F5807F00F09380B6F5817FBFD1C3
:1057B00094F846100029BBD194F8485015F00F0119
:1057C0005CD02A06204600F1068105F0A9FC94F879
:1057D000443053E0042284F8342020460021A26B98
:1057E000FFF7BEFE202383F31188FBF749FD00215C
:1057F0002046FFF7F5FEFBF723FD002383F3118816
:10580000F8BDB5B1012184F8341020460021A26B07
:10581000FFF7B6FE202383F31188FBF731FD00214B
:105820002046FFF705FFFBF70BFD002383F31188EC
:10583000F8BD032084F83400294620462A46FFF7A5
:105840008FFE202383F31188FBF71AFD294620469B
:10585000FFF7C6FEFBF7F4FC2B4683F31188F8BD77
:1058600040F20230864273D0B6F5A06F7FF460AF8D
:10587000B4F84410B1F5A06F00F09B800025A5633B
:10588000E563256427E7002E32D0012E7FF450AF68
:10589000564902250022A163E56322641BE7606884
:1058A00094F8496094F84830456894F8471094F8A3
:1058B0004620204643EA0623A84700283FF438AF95
:1058C0004168056894F84430A163E563276402E702
:1058D00094F84620012A7FF42BAFB4F84C00A7635C
:1058E00020F00201A4F84C10E76327643D46F2E67D
:1058F000022504F14C00A063E5632664EBE694F80E
:10590000465084F84F50002D44D103212170626825
:105910001568002DB2D020460221A84794F84430E3
:10592000ACE794F8483013F0800F204603F00F01E5
:1059300033D105F05DFB012833D002287FF4F8AEA7
:105940002B4DE063A563276494F844300546C2E616
:1059500094F8461000297FF4EBAE94F8485015F007
:105960000F018BD02B0620463AD405F0C9FB94F8E2
:10597000443083E794F84620012A7FF4D9AEB4F886
:105980004C50A76345F00200A4F84C00E76327647D
:105990003D46A0E604202070B9E705F039FB012858
:1059A000CBD1144AE663A263276494F844303546A9
:1059B00091E694F84630204684F84E3005F050FACF
:1059C00065682A6812B1204601219047032094F8A7
:1059D0004430207052E705F0ABFB94F844304DE7BB
:1059E00005F096FB94F8443048E700BFA0E20008B9
:1059F000B0E2000800E40008AFF30080AFF30080DD
:105A000038B590F83430022B044624D0052B3AD018
:105A1000012B10D0002105F07BFB2046002105F072
:105A20006FFB6068026812B120460521904706218D
:105A300084F8341038BD90F84B1090F84A30C26B9F
:105A400043EA0121914206D9C5682B8AB2FBF3F1E2
:105A500003FB1125F5B1002103200B4684F8340027
:105A60000A462046FFF77CFD202383F31188FBF7CD
:105A700007FC00212046FFF7B3FDFBF7E1FB002305
:105A800083F3118838BD026C02B19047002384F87B
:105A9000343038BD2B4629462A46FFF771FD2023B6
:105AA00083F31188FBF7ECFB29462046FFF7C0FD86
:105AB000FBF7C6FB2B4683F31188022084F83400E1
:105AC00038BD00BFAFF30080AFF30080AFF30080BC
:105AD00090F83430032B10B504462AD0042B11D093
