:020000040800F2
:1000000000040010D1150008D1170008D11700080E
:10001000D1170008D1170008D1170008D117000820
:10002000D1170008D1170008D1170008411800089F
:10003000D1170008D1170008D1170008411900088E
:10004000D1170008D1170008D1170008D1170008F0
:10005000D1170008D1170008D1170008D1170008E0
:10006000D1170008D1170008D1170008710C01083A
:10007000B10C0108F10C0108310D0108710D0108E6
:10008000B10D0108F10D010891170108111D0108BA
:10009000311D0108511D0108711D0108D11700080B
:1000A00031320108B1310108D1170008D1310108FE
:1000B000F131010811320108D1350108D1170008CA
:1000C000D1170008D1170008D1170008D117000870
:1000D000D117000881390108A1390108C139010887
:1000E000D1170008D1170008D1170008D117000850
:1000F000D1170008D1170008D1170008310E0108E8
:10010000D1170008D1170008F1350108D1170008F0
:10011000D1170008D1170008D1170008D11700081F
:10012000710E0108B10E0108F10E0108310F01082E
:10013000710F0108D1170008D1170008911D01089F
:10014000B11D0108D11D0108F11D01084127010859
:10015000B10F0108F10F010831100108D117000893
:10016000D1170008D1170008D1170008D1170008CF
:10017000D1170008D1170008D1170008D1170008BF
:08018000D1170008D117000897
:1001900008B508F01DFE01F07BFC16F009F8002000
:1001A00008BD00BFAFF30080AFF30080AFF3008065
:1001B00081F0004102E000BF83F0004330B54FEA18
:1001C00041044FEA430594EA050F08BF90EA020F85
:1001D0001FBF54EA000C55EA020C7FEA645C7FEA18
:1001E000655C00F0E2804FEA5454D4EB5555B8BF3B
:1001F0006D420CDD2C4480EA020281EA030382EAAC
:10020000000083EA010180EA020281EA0303362D3D
:1002100088BF30BD11F0004F4FEA01314FF4801C10
:100220004CEA113102D0404261EB410113F0004F22
:100230004FEA03334CEA133302D0524263EB4303D9
:1002400094EA050F00F0A780A4F10104D5F1200E77
:100250000DDB02FA0EFC22FA05F2801841F10001D2
:1002600003FA0EF2801843FA05F359410EE0A5F1A6
:1002700020050EF1200E012A03FA0EFC28BF4CF0D7
:10028000020C43FA05F3C01851EBE37101F000458D
:1002900007D54FF0000EDCF1000C7EEB00006EEB9A
:1002A0000101B1F5801F1BD3B1F5001F0CD3490824
:1002B0005FEA30004FEA3C0C04F101044FEA44527B
:1002C00012F5800F80F09A80BCF1004F08BF5FEA02
:1002D000500C50F1000041EB045141EA050130BDE2
:1002E0005FEA4C0C404141EB010111F4801FA4F185
:1002F0000104E9D191F0000F04BF01460020B1FADA
:1003000081F308BF2033A3F10B03B3F120020CDA11
:100310000C3208DD02F1140CC2F10C0201FA0CF0EF
:1003200021FA02F10CE002F11402D8BFC2F1200C54
:1003300001FA02F120FA0CFCDCBF41EA0C0190400A
:10034000E41AA2BF01EB0451294330BD6FEA040453
:100350001F3C1CDA0C340EDC04F11404C4F120023E
:1003600020FA04F001FA02F340EA030021FA04F350
:1003700045EA030130BDC4F10C04C4F1200220FAA7
:1003800002F001FA04F340EA0300294630BD21FAE5
:1003900004F0294630BD94F0000F83F4801306BFAB
:1003A00081F480110134013D4EE77FEA645C18BF9F
:1003B0007FEA655C29D094EA050F08BF90EA020F36
:1003C00005D054EA000C04BF1946104630BD91EA2E
:1003D000030F1EBF0021002030BD5FEA545C05D131
:1003E0004000494128BF41F0004130BD14F5800470
:1003F0003CBF01F5801130BD01F0004545F0FE41E4
:1004000041F470014FF0000030BD7FEA645C1ABF18
:10041000194610467FEA655C1CBF0B46024650EA4F
:10042000013406BF52EA033591EA030F41F400217B
:1004300030BD00BF90F0000F04BF0021704730B501
:100440004FF4806404F132044FF000054FF00001D6
:1004500050E700BF90F0000F04BF0021704730B597
:100460004FF4806404F1320410F0004548BF40426C
:100470004FF000013EE700BF42004FEAE2014FEAC1
:1004800031014FEA02701FBF12F07F4393F07F4F9C
:1004900081F06051704792F0000F14BF93F07F4FCE
:1004A000704730B54FF4607401F0004521F0004111
:1004B00020E700BF50EA010208BF704730B54FF097
:1004C00000050AE050EA010208BF704730B511F09C
:1004D000004502D5404261EB41014FF4806404F1D4
:1004E00032045FEA915C3FF4DCAE4FF003025FEA56
:1004F000DC0C18BF03325FEADC0C18BF033202EBDE
:10050000DC02C2F1200300FA03FC20FA02F001FA37
:1005100003FE40EA0E0021FA02F11444C1E600BFD6
:1005200070B54FF0FF0C4CF4E06C1CEA11541DBF89
:100530001CEA135594EA0C0F95EA0C0F00F0DEF854
:100540002C4481EA030621EA4C5123EA4C5350EA39
:10055000013518BF52EA033541F4801143F480138A
:1005600038D0A0FB02CE4FF00005E1FB02E506F01B
:100570000042E0FB03E54FF00006E1FB03569CF070
:10058000000F18BF4EF0010EA4F1FF04B6F5007F76
:1005900064F5407404D25FEA4E0E6D4146EB0606E8
:1005A00042EAC62141EA55514FEAC52040EA5E5071
:1005B0004FEACE2EB4F1FD0C88BFBCF5E06F1ED81B
:1005C000BEF1004F08BF5FEA500E50F1000041EB52
:1005D000045170BD06F0004646EA010140EA0200FF
:1005E00081EA0301B4EB5C04C2BFD4EB0C0541EA21
:1005F000045170BD41F480114FF0000E013C00F336
:10060000AB8014F1360FDEBF002001F0004170BD59
:10061000C4F10004203C35DA0C341BDC04F1140472
:10062000C4F1200500FA05F320FA04F001FA05F2FE
:1006300040EA020001F0004221F0004110EBD370CB
:1006400021FA04F642EB06015EEA430E08BF20EAF7
:10065000D37070BDC4F10C04C4F1200500FA04F39A
:1006600020FA05F001FA04F240EA020001F000412C
:1006700010EBD37041F100015EEA430E08BF20EA9F
:10068000D37070BDC4F1200500FA05F24EEA020EE7
:1006900020FA04F301FA05F243EA020321FA04F016
:1006A00001F0004121FA04F220EA020000EBD370CD
:1006B0005EEA430E08BF20EAD37070BD94F0000FCD
:1006C0000FD101F00046400041EB010111F4801F01
:1006D00008BF013CF7D041EA060195F0000F18BFB2
:1006E000704703F00046520043EB030313F4801FEE
:1006F00008BF013DF7D043EA0603704794EA0C0FA8
:100700000CEA135518BF95EA0C0F0CD050EA4106BD
:1007100018BF52EA4306D1D181EA030101F000413A
:100720004FF0000070BD50EA410606BF1046194662
:1007300052EA430619D094EA0C0F02D150EA01366E
:1007400013D195EA0C0F05D152EA03361CBF1046AF
:1007500019460AD181EA030101F0004141F0FE414E
:1007600041F470014FF0000070BD41F0FE4141F4D2
:10077000780170BD70B54FF0FF0C4CF4E06C1CEAD2
:1007800011541DBF1CEA135594EA0C0F95EA0C0F87
:1007900000F0A7F8A4EB050481EA030E52EA033542
:1007A0004FEA013100F088804FEA03334FF0805563
:1007B00045EA131343EA12634FEA022245EA111590
:1007C00045EA10654FEA00260EF000419D4208BF41
:1007D000964244F1FD0404F5407402D25B084FEAEE
:1007E0003202B61A65EB03055B084FEA32024FF49A
:1007F00080104FF4002CB6EB020E75EB030E22BFF7
:10080000B61A754640EA0C005B084FEA3202B6EBB6
:10081000020E75EB030E22BFB61A754640EA5C0065
:100820005B084FEA3202B6EB020E75EB030E22BFF5
:10083000B61A754640EA9C005B084FEA3202B6EBF6
:10084000020E75EB030E22BFB61A754640EADC00B5
:1008500055EA060E18D04FEA051545EA16754FEA17
:1008600006164FEAC30343EA52734FEAC2025FEA35
:100870001C1CC0D111F4801F0BD141EA00014FF0C4
:1008800000004FF0004CB6E711F4801F04BF014395
:100890000020B4F1FD0C88BFBCF5E06F3FF6AFAEB1
:1008A000B5EB030C04BFB6EB020C5FEA500C50F141
:1008B000000041EB045170BD0EF0004E4EEA1131C4
:1008C00014EB5C04C2BFD4EB0C0541EA045170BDCB
:1008D00041F480114FF0000E013C90E645EA060E0F
:1008E0008DE60CEA135594EA0C0F08BF95EA0C0F3D
:1008F0003FF43BAF94EA0C0F0AD150EA01347FF485
:1009000034AF95EA0C0F7FF425AF104619462CE75B
:1009100095EA0C0F06D152EA03353FF4FDAE1046BE
:10092000194622E750EA410618BF52EA43067FF40F
:10093000C5AE50EA41047FF40DAF52EA43057FF49F
:10094000EBAE12E700000000000000000000000015
:100950004FF0FF3C06E000BF4FF0010C02E000BF8B
:100960004FF0010C4DF804CD4FEA410C7FEA6C5C6E
:100970004FEA430C18BF7FEA6C5C1BD001B050EA11
:10098000410C0CBF52EA430C91EA030F02BF90EAFC
:10099000020F0020704710F1000F91EA030F58BFBB
:1009A000994208BF90422CBFD8176FEAE37040F01D
:1009B000010070474FEA410C7FEA6C5C02D150EABB
:1009C000013C07D14FEA430C7FEA6C5CD6D152EA76
:1009D000033CD3D05DF8040B704700BF844610463B
:1009E00062468C461946634600E000BF01B5FFF73A
:1009F000B7FF002848BF10F1000F01BD4DF808ED0A
:100A0000FFF7F4FF0CBF012000205DF808FB00BFDA
:100A10004DF808EDFFF7EAFF34BF012000205DF834
:100A200008FB00BF4DF808EDFFF7E0FF94BF012081
:100A300000205DF808FB00BF4DF808EDFFF7CEFF82
:100A400094BF012000205DF808FB00BF4DF808EDC1
:100A5000FFF7C4FF34BF012000205DF808FB00BF92
:100A60004FEA410212F5001215D211D56FF47873D6
:100A7000B3EB625212D94FEAC12343F0004343EA79
:100A8000505311F0004F23FA02F018BF4042704754
:100A90004FF00000704750EA013005D111F00040DE
:100AA00008BF6FF0004070474FF00000704700BF74
:100AB0004FEA4102B2F1E04324BFB3F5001CDCF180
:100AC000FE5C0DD901F0004C4FEAC0024CEA5070B8
:100AD000B2F1004F40EB830008BF20F001007047E7
:100AE00011F0804F21D113F13872BCBF01F00040EA
:100AF000704741F480114FEA5252C2F11802C2F11C
:100B0000200C10FA0CF320FA02F018BF40F001009C
:100B10004FEAC1234FEAD32303FA0CFC40EA0C004E
:100B200023FA02F34FEA4303CCE77FEA625307D18B
:100B300050EA01331EBF4FF0FE4040F440007047C2
:100B400001F0004040F0FE4040F40000704700BF5C
:100B500080F0004002E000BF81F0004142001FBF72
:100B60005FEA410392EA030F7FEA226C7FEA236C7B
:100B70006AD04FEA1262D2EB1363C1BFD218414070
:100B800048404140B8BF5B42192B88BF704710F006
:100B9000004F40F4000020F07F4018BF404211F0A9
:100BA000004F41F4000121F07F4118BF494292EA11
:100BB000030F3FD0A2F1010241FA03FC10EB0C003D
:100BC000C3F1200301FA03F100F0004302D54942CA
:100BD00060EB4000B0F5000F13D3B0F1807F06D377
:100BE00040084FEA310102F10102FE2A51D2B1F16F
:100BF000004F40EBC25008BF20F0010040EA030064
:100C00007047490040EB000010F4000FA2F1010210
:100C1000EDD1B0FA80FCACF1080CB2EB0C0200FA9A
:100C20000CF0AABF00EBC25052421843BCBFD040E8
:100C30001843704792F0000F81F4000106BF80F462
:100C400000000132013BB5E74FEA41037FEA226C25
:100C500018BF7FEA236C21D092EA030F04D092F0F0
:100C6000000F08BF0846704790EA010F1CBF002024
:100C7000704712F07F4F04D1400028BF40F0004081
:100C8000704712F100723CBF00F50000704700F0A1
:100C9000004343F0FE4040F4000070477FEA2262C8
:100CA00016BF08467FEA23630146420206BF5FEA99
:100CB000412390EA010F40F4800070474FF0000399
:100CC00004E000BF10F0004348BF40425FEA000C60
:100CD00008BF704743F0964301464FF000001CE008
:100CE00050EA010208BF70474FF000030AE000BF5E
:100CF00050EA010208BF704711F0004302D540429C
:100D000061EB41015FEA010C02BF8446014600200D
:100D100043F0B64308BFA3F18053A3F50003BCFA28
:100D20008CF2083AA3EBC25310DB01FA02FC6344D5
:100D300000FA02FCC2F12002BCF1004F20FA02F2DC
:100D400043EB020008BF20F00100704702F12002CF
:100D500001FA02FCC2F1200250EA4C0021FA02F230
:100D600043EB020008BF20EADC707047000000007F
:100D700073B96AB9002908BF0028BCBF00204FF032
:100D80000041C4BF6FF000414FF0FF3000F0C8B821
:100D900082B0EC462DE9005000F092F8DDF804E056
:100DA00002B00CBC704700BF000000000000000053
:100DB00010B50021044600F029F920B92046BDE80D
:100DC000104000F02DB804F1004000F029F8424234
:100DD00061EB41031046194610BD00BF0000000042
:100DE00038B50022002305460C46FFF711FE28B94E
:100DF00028462146BDE8384000F03AB8284604F1BC
:100E0000004100F035F8424261EB410310461946BB
:100E100038BD00BF0000000000000000000000001E
:100E200070B5FFF729FB00230022C3F6F0530446F8
:100E30000D46FFF775FB00F07BF80646FFF7FAFA60
:100E400000230022C4F2F013FFF76AFB02460B46B0
:100E500020462946FFF7B0F900F06AF80022024365
:100E60001046314670BD00BF0000000000000000C9
:100E7000002370B50022C3F6F05304460D46FFF779
:100E80004FFB00F055F80646FFF7D4FA0023002286
:100E9000C4F2F013FFF744FB02460B4620462946F6
:100EA000FFF78AF900F044F8002202431046314669
:100EB00070BD00BF00000000000000000000000046
:100EC000F8B5164604460D461F4600F0C9F806FB65
:100ED00001F300FB0737A6FB0023FB18A21A65EB02
:100EE0000303069CC4E90023F8BD00BFF8B516460D
:100EF00004460D461F4600F013FA00FB07F7A0FB5F
:100F0000062306FB0177FB18A21A65EB0303069C78
:100F1000C4E90023F8BD00BF00000000000000008D
:100F2000704700BF0000000000000000000000004B
:100F30004A0011D212F5001211D20DD56FF4787358
:100F4000B3EB62520ED44FEAC12343F0004343EAAD
:100F5000505323FA02F070474FF00000704750EAF8
:100F6000013002D14FF0FF3070474FF00000704762
:100F70004FF0FF3C06E000BF4FF0010C02E000BF65
:100F80004FF0010C4DF804CD4FEA40024FEA410307
:100F90007FEA226C18BF7FEA236C11D001B052EABD
:100FA000530C18BF90EA010F58BFB2EB030088BF83
:100FB000C81738BF6FEAE17018BF40F001007047F2
:100FC0007FEA226C02D15FEA402C05D17FEA236CD4
:100FD000E4D15FEA412CE1D05DF8040B704700BF1B
:100FE000844608466146FFE70FB5FFF7C9FF0028B2
:100FF00048BF10F1000F0FBD4DF808EDFFF7F4FFEB
:101000000CBF012000205DF808FB00BF4DF808ED83
:10101000FFF7EAFF34BF012000205DF808FB00BFA6
:101020004DF808EDFFF7E0FF94BF012000205DF8C8
:1010300008FB00BF4DF808EDFFF7D2FF94BF012079
:1010400000205DF808FB00BF4DF808EDFFF7C8FF72
:1010500034BF012000205DF808FB00BF0000000045
:1010600000292DE9F00F1D46C0F29D800024002DBF
:10107000C0F2948080460F4694461E46E3BB8A42E7
:1010800055D9B2FA82F747B1C7F1200520FA05F623
:1010900001FA07F1BA403143B840170CB1FBF7F63B
:1010A000030C1FFA82FC07FB16110CFB06F543EA42
:1010B00001439D4208D9711E9B1880F013819D4207
:1010C00040F21081023E9B18591BB1FBF7F507FB5C
:1010D000151380B20CFB05FC40EA03418C4507D98F
:1010E0006B1E8A1880F00081944540F2FD80023D1D
:1010F00045EA0641002503E08B420CD9002529462C
:101100000A462B4614B1524263EB4303104619467C
:10111000BDE8F00F7047B3FA83F5002D40F08780EB
:101120008B4201D38242EAD800250121E8E712B9B7
:101130000126B6FBF2F2B2FA82F6002E39D18E1AEF
:10114000130C1FFA82FC0125B6FBF3F703FB1761B2
:101150004FEA10490CFB07F849EA0146B04506D9A9
:10116000791EB61802D2B04500F2D3800F46C8EB04
:101170000606B6FBF3F103FB116380B20CFB01FC26
:1011800040EA03439C4506D94E1E9A1802D2944564
:1011900000F2C280314641EA0741B1E7E4435242DE
:1011A00063EB430366E7404261EB41014FF0FF34DC
:1011B0005DE7B240C6F1200921FA09F720FA09F5E6
:1011C000130C01FA06F1B7FBF3F845EA01091FFA1F
:1011D00082FC03FB18774FEA19410CFB08F541EA42
:1011E0000747B040BD420AD9BF1808F1FF3680F06A
:1011F0008E80BD4240F28B80A8F10208BF18791B97
:10120000B1FBF3F503FB15171FFA89F90CFB05F683
:1012100049EA07418E4206D96F1E891871D28E4263
:101220006FD9023D89188E1B45EA08458CE7C5F148
:10123000200122FA01F306FA05F61E4327FA01F20D
:101240004FEA164907FA05F720FA01F1B2FBF9F85F
:101250000F433B0C1FFA86FA09FB18220AFB08FB16
:1012600043EA024293450CFA05FC08D9921908F1A9
:10127000FF314AD2934548D9A8F102089219CBEB25
:101280000203B3FBF9F109FB1132BFB20AFB01FA09
:1012900047EA02439A4506D94A1E9B1933D29A451A
:1012A00031D902399B1941EA08410F0C1FFA8CF819
:1012B00008FB07F68AB24FEA1C4C08FB02F80CFB4D
:1012C000026202EB18420CFB07FC964288BF0CF549
:1012D000803CCAEB03030CEB124C63450ED305D0E4
:1012E00000250DE70E46EFE61D4601E71FFA88F8D8
:1012F00000FA05F008EB0245A842F1D201390025B9
:10130000FEE63D468FE71146CDE78846B7E7B04693
:1013100075E7023FB6182AE702393CE700000000F3
:101320002DE9F007144605460E46002B3DD18A42B2
:1013300049D9B2FA82F747B1C7F1200120FA01F288
:1013400006FA07F6BC401643BD40220CB6FBF2F08D
:101350002F0CA1B202FB106601FB00F347EA064620
:10136000B34208D9471E361980F0F880B34240F2E4
:10137000F58002383619F61AB6FBF2F302FB136257
:10138000ADB201FB03F145EA0242914207D95E1E6C
:10139000121980F0E580914240F2E280023B43EA7C
:1013A00000400021BDE8F00770478B4243D8B3FAF4
:1013B00083F4002C42D18B4202D3824200F2DF80C0
:1013C00000210120EEE712B90127B7FBF2F4B4FACD
:1013D00084F2002A40F088800A1B230CA7B2012166
:1013E000B2FBF3F603FB16224FEA154C07FB06F09F
:1013F0004CEA0242904207D9121906F1FF3C02D290
:10140000904200F2CE806646121AB2FBF3F003FB64
:101410001023ADB207FB00F745EA03439F4207D90B
:10142000421E1B1980F09E809F4240F29B80023832
:1014300040EA0640B6E700210846B3E7C4F12006BB
:1014400022FA06F503FA04F32B434FEA134C21FA70
:1014500006F501FA04F120FA06F6B5FBFCF746EAB8
:10146000010A1FFA83F80CFB17554FEA1A4108FBD3
:1014700007F941EA0545A94502FA04F203D97E1E9F
:10148000ED187FD33746C9EB0501B1FBFCF60CFB29
:1014900016151FFA8AFA08FB06F84AEA054188453C
:1014A00003D9751EC91873D32E4646EA0746370C72
:1014B0001FFA82FC0CFB07F5120CB3B20CFB03FC09
:1014C00002FB035303EB1C4302FB07F29D4288BF60
:1014D00002F58032C8EB010102EB134291424BD37B
:1014E00042D0304600215DE79440C2F1200521FA48
:1014F00005F6230C20FA05F701FA02F1B6FBF3FC1E
:1015000039430D0CA7B203FB1C6645EA064607FBF0
:101510000CF8B04500FA02F508D936190CF1FF3085
:101520003DD2B0453BD9ACF1020C3619C8EB0602EE
:10153000B2FBF3F003FB10268AB242EA064207FB35
:1015400000F1914206D9461E121926D2914224D9A1
:1015500002381219521A40EA0C4141E738460AE7AC
:1015600033461CE7104663E71FFA8CFC00FA04F0D0
:101570000CEB03439842B4D2701E002112E72146BF
:1015800020460FE7A9457FF67DAF023FED187AE7C9
:10159000884589D9023EC91887E73046DAE784468C
:1015A000C4E7023E12192FE700000000000000000F
:1015B000704700BFAFF30080AFF30080AFF300804F
:1015C000FEE700BFAFF30080AFF30080AFF3008011
:1015D00072B6704C84F309884EF63472CEF2000273
:1015E0004EF68853CEF200034FF040411160186868
:1015F00040F470051D600022E1EE102A4EF63C73A7
:10160000CEF2000306211A6081F31488BFF36F8FB6
:101610006148624DA84218D2EA1C051D531B23F0F5
:101620000302034610184FF0553183421960C2F38C
:1016300080020AD01AB185422B46296005D01D1DB3
:101640005960083383426960F9D15548A04218D2E5
:101650005449041D0A1B22F00305034628184FF0C5
:10166000553183421960C5F380020AD01AB1844211
:101670002346216005D01D1D5960083383426960EF
:10168000F9D112F05DFA4849484881421BD2C61C84
:101690000C1D321B464822F00302161D0568042368
:1016A000B3420D60C2F380020DD022B14568082319
:1016B000B342256007D01A1D1D5884585D50083369
:1016C000B3428C50F7D13B483B49884217D2CB1CE0
:1016D000041D1A1B22F0030503462818002183422B
:1016E0001960C5F380020AD01AB1844223462160F2
:1016F00005D01D1D5960083383426960F9D1FFF799
:1017000057FF2E4D2E498D421DD2CC1C2E1DA71BDE
:10171000B808471C01242A6800EA04089047BC4224
:1017200011D0B8F1000F05D0022433689847BC42AD
:10173000354608D0696888470234A8682E1D80475E
:101740000835BC42F6D1FEF723FD1E4D1E4A9542D8
:101750001DD2D41C2E1DA71BBB085F1C01242968A9
:1017600003EA04088847BC4211D0B8F1000F05D045
:10177000022430688047BC42354608D06A689047EA
:101780000234AB682E1D98470835BC42F6D1FFF7EE
:1017900017FF00BF00080010000000100004001038
:1017A000000400100308001000000020AC05002019
:1017B00080BB010858290020F45A01208801000844
:1017C000880100088801000888010008AFF3008044
:1017D000FEE700BFAFF30080AFF30080AFF30080FF
:1017E000F8B548F20004C0F6010407460FCC42F6F3
:1017F0005816C2F2000635460FC523682B70B9692A
:10180000284616F0DDFA48F214013046C0F6010110
:101810002E22BDE8F84000F0B3B900BFAFF300805E
:1018200072B6FEE7AFF30080AFF30080AFF3008045
:1018300000F09EFA00F08CFC00F07AFA00DF00BFA6
:10184000EFF309824EF63073CEF20003D2F8CC10DB
:101850005960986868309860683282F3098800237C
:1018600083F31188704700BFAFF30080AFF30080AF
:1018700008B54FF46D43CEF200034FF44072C0F24E
:10188000FA520021996007201021DA6000F0D8F8A0
:101890000A204FF4007100F0D3F80B208021BDE83E
:1018A000084000F0CDB800BFAFF30080AFF3008078
:1018B000202383F311884FF46D43CEF20003586860
:1018C00010F4006325D0EFF30983A3F1680282F3DB
:1018D000098816494FF080708A6943F84C0C92F8D9
:1018E0002300096892688968B0B1914294BF0022D0
:1018F0000122BAB10E4A43F8502CF1EE10FA4EF61E
:101900003072CEF20002516841F001005966506019
:10191000704783F311887047914234BF002201223F
:10192000002AE7D1034843F8500CE8E79809001073
:10193000311800083C180008AFF30080AFF30080B6
:1019400008B500F09DF9202383F3118800F0D8F941
:1019500000F0DEF800F0B4F9002383F3118800F002
:101960006FF9BDE80840FFF7A3BF00BFAFF30080E9
:101970002DE9F04F2DED108AC1F80CD0D0F80CD025
:10198000BDEC108ABDE8F08FAFF30080AFF30080AC
:1019900008B500F0CDF9002383F311882846A0474D
:1019A00000F0F6FC08BD00BFAFF30080AFF300808D
:1019B000F0B44FF461438408CEF20003C03400F069
:1019C000030553F82470ED00FF26420906FA05F6D8
:1019D00027EA060601FA05F500F01F0002F160078C
:1019E000012101FA00F02E4343F8246043F8270058
:1019F00043F82200F0BC7047AFF30080AFF30080E3
:101A000041094FF4614310B4CEF2000300F01F020D
:101A10002031012404FA02F4820843F82140C03244
:101A200000F0030053F82210C000FF2404FA00F075
:101A300021EA000143F8221010BC7047AFF3008088
:101A400082084FF46D43CEF20003063200F003002B
:101A500030B4C00053F82250FF2404FA00F425EA01
:101A6000040401FA00F10C4343F8224030BC7047F3
:101A7000024B034A98698261FEE700BF9809001093
:101A80006CAA0108AFF30080AFF30080AFF30080D1
:101A900030B583B0FFF7ECFE00F00AFA00F098F9D9
:101AA00001F086F801F0CCF840F600004021C1F2C8
:101AB000000000F05DFB40F6981440F20043C1F2D4
:101AC0000003C1F200040125C36180F82050A06129
:101AD00000F066F9002383F3118862B648F2F02122
:101AE000A269C0F60101916140F65000009341F6F1
:101AF00071234FF4A4712A46C0F60003C1F200001E
:101B000000F0BEFB03B030BDAFF30080AFF3008048
:101B1000F8B500F07DF8164B986990F8232012B1C3
:101B2000511E80F82310446A124D631C4362E8681A
:101B30002C68421CAC42EA6018D0A768013FA7603D
:101B4000A7B92168E6684D60E760296000F0B8F841
:101B5000002383F311882069B047202383F3118881
:101B600000F0CEF82C68A368002BEAD0F8BD00BFC7
:101B700098090010B4090010AFF30080AFF30080A3
:101B800070B506460D46144606F05AFB00B170BD0E
:101B900006F04EFB0C4B0D4A18680D490D4B1560B5
:101BA0000C601E600028F2D131462A4623460A48BE
:101BB00007F006F848F2A060C0F2010000F080FBD8
:101BC000BDE87040FFF72CBEF05A0120202A00200B
:101BD000282A0020302A002040800108AFF300802E
:101BE000064B186820B906490A68002A00DD7047CC
:101BF00004480549D322FFF7C3BF00BF242A0020B1
:101C00002C2A0020548001085C800108AFF300807A
:101C1000064B1868002804DB05490A68002A00DD25
:101C2000704704480449C522FFF7AABF242A0020B0
:101C30002C2A00207C8001085C800108AFF3008022
:101C400010B5202383F31188094C2368002B02DD93
:101C5000084A106828B108480849B522FFF790FFE4
:101C60002368591E2160002383F3118810BD00BF33
:101C7000242A00202C2A0020A08001085C80010872
:101C800010B5202383F31188094C2368002B02DB55
:101C9000084A106828B108480849A722FFF770FFD2
:101CA0002368591C2160002383F3118810BD00BFF5
:101CB000242A00202C2A0020A88001085C8001082A
:101CC000084B1868002810B5074C05DD216800296D
:101CD00002DD0022226010BD044805499A22FFF768
:101CE0004FFFF6E7242A00202C2A0020B0800108AC
:101CF0005C800108AFF30080AFF30080AFF3008099
:101D0000074B1868002810B5064C01DD216821B189
:101D1000054806498E22FFF733FF0122226010BDDD
:101D2000242A00202C2A0020B88001085C800108A9
:101D3000084B186810B5084C28B92168002902DD45
:101D40000022226010BD054805498222FFF718FFD6
:101D5000F6E700BF242A00202C2A0020D8800108A2
:101D60005C800108AFF30080AFF30080AFF3008028
:101D7000074B186810B5074C08B9216821B106480F
:101D800006497622FFF7FCFE0122226010BD00BF4B
:101D9000242A00202C2A0020E08001085C80010811
:101DA000054B186810B905490A6822B1044805496D
:101DB0006B22FFF7E5BE7047242A00202C2A002062
:101DC000FC8001085C800108AFF30080AFF3008065
:101DD00040F6B413C1F200034FF0FF3200205B6005
:101DE0001B609A60D8607047AFF30080AFF300804B
:101DF000F8B505460C4616461F46FFF709FFCDB15C
:101E0000C6B1BCB10E492F610B68EE609A6894426E
:101E100004D91B68A41A9A68A242FAD358682B60A6
:101E20008B42686005605D60AC6002D099680C1BF5
:101E30009C60F8BD034804495122FFF7A1FEE1E789
:101E4000B40900102081010830810108AFF300803F
:101E500010B50446FFF7DCFE84B1E368A3B1206847
:101E60000C4A904203D08168A368CA1882606168F6
:101E70000860206800234160E36010BD0648074900
:101E80006D22FFF77DFEE8E7054804497022FFF761
:101E900077FEE4E7B40900105081010830810108A1
:101EA00060810108AFF30080AFF30080AFF30080E2
:101EB00040F69813C1F2000300225B601B609A6039
:101EC0005B611B61704700BFAFF30080AFF3008020
:101ED00010B50446FFF79CFE94F820308BB10E2B12
:101EE0000FD00022A1680A4884F820200068836887
:101EF0008B42FBD24168206061600C6044602046E8
:101F000010BD044804495A22FFF73AFEE9E700BF32
:101F1000980900108081010894810108AFF30080C6
:101F200010B52023044683F31188FFF7E9FE94F8E7
:101F300020300D2B11D8DFE803F016101007100B1E
:101F4000101010101010100BA06A8268511C8160D4
:101F500094E80C001A60206843604FF0FF33A362DE
:101F60002046FFF7B5FFFFF7ABFE002383F3118890
:101F700010BD00BFAFF30080AFF30080AFF300806F
:101F800070B5104C0646FFF72BFEA5692368E9697A
:101F90001A6885F82060ADF1640054601426226050
:101FA0000122814285F82360A36183F8202003D9B0
:101FB0002846FFF715FCA36918462946BDE870407E
:101FC000FFF7D6BC98090010AFF30080AFF3008094
:101FD00070B50C4686B00646FFF702FE631C12D0B1
:101FE0000B4D0C4AAB69214601A8FFF701FF3046B3
:101FF000FFF7C6FF049B13B101A8FFF729FFA869EB
:10200000806A06B070BD3046FFF7BAFF004DF6E7B4
:1020100098090010211F0008AFF30080AFF3008083
:1020200070B5124D04460E46FFF7DAFDA869A268A6
:102030008368A6629A4211D9FFF74AFFC369AC616F
:10204000ADF1640201219342064684F820100AD8BB
:1020500020463146BDE87040FFF78ABC2046BDE807
:102060007040FFF735BFFFF7BBFBF1E798090010A1
:1020700038B50F4C2368A5691A68012114205460F3
:1020800083F8201085F8230028462260A361FFF71B
:102090001FFFEB69ADF16402934202D92846FFF7B6
:1020A0009FFBA0692946BDE83840FFF761BC00BF2F
:1020B00098090010AFF30080AFF30080AFF3008009
:1020C00070B5134E3068B5690368AC685E60012274
:1020D000002180F820203360B06185F8201003468D
:1020E00000E01B689A68A242FBD8E9695A682B6035
:1020F000ADF16404A1426A6015605D6003D92846B1
:10210000FFF76EFBB0692946BDE87040FFF730BCB1
:1021100098090010AFF30080AFF30080AFF30080A8
:1021200008B5FFF75DFD064B1A68986991688368EA
:10213000994200D808BDBDE80840FFF7C1BF00BF05
:1021400098090010AFF30080AFF30080AFF3008078
:10215000044B986990F8231009B1FFF7B1BFFFF75E
:1021600087BF00BF98090010AFF30080AFF3008075
:102170002DE9F00140F69814C1F2000400226569CF
:102180004164046100F13006816000F12C0C00F123
:102190004C0745614FF0020860610121142480F86A
:1021A000208080F8212080F823400264C2634262CC
:1021B00080F8221082612861C0F82CC04663066353
:1021C000C761BDE8F0017047AFF30080AFF3008056
:1021D0002DE9F04704460D4617469846FFF718FDCF
:1021E00014B1B5F59C7F38D21F482049A622FFF7CD
:1021F000C7FCA5F1640161181D4E089BD6F814C0F8
:10220000E1604B641B4BC1F840800B660221002546
:1022100004F1300204F12C0A04F14C0984F8201076
:10222000142301212661A760C4F814C020467461FC
:1022300084F8215084F8233067642564E56365627F
:1022400084F82210A561CCF81040C4F82CA0626379
:102250002263C4F81C90BDE8F0877F2FC4D8B8F182
:10226000000FC6D1C0E700BFC0810108D4810108BA
:102270009809001091190008AFF30080AFF30080B7
:10228000F0B51C4683B005460E461746202383F35F
:102290001188FFF76DFD089823463A4631460090B5
:1022A0002846FFF795FF00210446FFF7B9FEFFF728
:1022B0003FFD002383F31188204603B0F0BD00BF2B
:1022C00010B5044628B90A480A494FF49372FFF73B
:1022D00057FC202383F31188FFF74AFD214606208F
:1022E000FFF776FEFFF724FD002383F3118810BD6E
:1022F00024820108D4810108AFF30080AFF300808D
:1023000010B52023044683F31188FFF731FD064BF7
:10231000D968611A02D00620FFF75AFEFFF708FDC0
:10232000002383F3118810BDB4090010AFF30080BF
:1023300038B5114B9C692546A06255F82C0FA84270
:1023400006D00168E162FFF7C3FDE06AA842F8D158
:1023500094F82100830704D1636922691A61216915
:102360004B610E20FFF70CFE0448054940F2811234
:10237000BDE83840FFF704BC98090010348201081A
:10238000D4810108AFF30080AFF30080AFF3008089
:1023900010B52023044683F31188FFF7E9FC20469B
:1023A000BDE81040FFF7C4BFAFF30080AFF300807B
:1023B00038B50446202383F31188FFF7D9FC94F83D
:1023C0002230002B21D0581EC5B284F82250FFF7CE
:1023D000AFFC002383F311881DB994F820100E2957
:1023E00000D038BD94F8212002F00303012B14D053
:1023F000022BF6D163692169A06C1961226921461B
:102400005361BDE8384000F0EBBC094809494E2251
:10241000FFF7B6FB94F82230D5E7636920691861AD
:10242000216920464B61BDE8384000F061BC00BF27
:10243000B882010894820108AFF30080AFF30080F6
:1024400010B5202383F31188FFF792FC40F6981310
:10245000C1F200031C6994F82200411C84F8221088
:10246000FFF766FC002383F31188204610BD00BFF0
:1024700038B50546202383F31188FFF779FC2C69D2
:102480000E4B9C4218D094F82200FF280CD0411C1F
:1024900084F82210FFF74CFC002383F311882846B0
:1024A000FFF786FF204638BD054806499622FFF70C
:1024B00067FB94F82200EAE70024EBE79809001094
:1024C0001083010828830108AFF30080AFF3008078
:1024D00038B504460D4628B1002903DB646024604A
:1024E000A56038BD024803495822FFF749FBF5E7CC
:1024F0005083010860830108AFF30080AFF30080D0
:1025000010B50446FFF784FB002C22D0A368226894
:10251000002B0DDBA24206D0114812494FF49B72EA
:10252000FFF72EFBA368581C0028A06006DD10BD35
:10253000A242F1D0581C0028A060F8DC21680A688B
:1025400000230846226054608B62BDE81040FFF70C
:10255000BFBC054803494FF49972FFF711FBD5E75B
:1025600030840108608301081C840108AFF30080F7
:1025700010B5044620B1002364602460A36010BD40
:10258000024803495822FFF7FBFAF4E7C084010828
:10259000D0840108AFF30080AFF30080AFF3008078
:1025A000F8B53E4B05469C69FFF71AFB002D6FD02E
:1025B000A86800283AD0A2688168914208D290F8B1
:1025C00020308260042B49D0052B34D0002B22D040
:1025D00028460068854203D08168A2689142F8D2FB
:1025E0004368206063601C604460A5620420FFF7BC
:1025F000C7FCA868A04204D029482A49B222FFF7A4
:10260000BFFA216CA94215D027482649B322BDE85C
:10261000F840FFF7B5BA90E80C001A600268012193
:1026200080F820105360FFF753FCD1E7206CAC60BA
:10263000E8602564F8BD41680768866A0F6007682E
:10264000334679601B689E4202D099689142F9D264
:102650005A680360426010605860B9E741680768D3
:10266000866A0F600768334679601B689E420DD00A
:1026700099689142F9D25A680360426010605860CC
:10268000B068A2688368934299D3A1E73346F2E722
:10269000064804497D22FFF773FA89E7980900107C
:1026A00000850108D084010814850108F084010820
:1026B00010B52023044683F31188FFF759FB204609
:1026C000FFF76EFFFFF734FB002383F3118810BD83
:1026D000214A70B52023956983F31188FFF748FBE1
:1026E0002C6C002C30D0A368AB4206D01B481C4990
:1026F00040F20B12FFF744FA2C6C2668E368A642FE
:102700002B641ED0696C4BB11A689A4203D0906852
:10271000814238BF0146DB68002BF5D13368326C4B
:10272000A9603046236000215C60A660E2603464EA
:10273000FFF776FCFFF7FCFA002383F311882046AD
:1027400070BD0020A060F5E7064805494FF484728B
:10275000FFF716FA2C6CC6E798090010508501089F
:10276000D08401083C850108AFF30080AFF30080FE
:1027700038B504460D46FFF74BFAC4B1E26B94F846
:10278000203045EA0201082BE1630CD0092B00D070
:1027900038BDA06A01408842FAD12046FFF798FB75
:1027A0000023836238BDA26A1142F6D138BD0348C6
:1027B0000349FE22FFF7E4F9E0E700BFE0850108E6
:1027C000A8850108AFF30080AFF30080AFF300806D
:1027D00070B505460E46FFF71BFA65B12C68A54299
:1027E00008D0201D0BC83343E360FFF7C1FF246806
:1027F000A542F6D170BD03480349BC22FFF7C0F9DA
:10280000ECE700BF04860108A8850108AFF300804B
:1028100010B4024659B1084B9B69986244680D2078
:1028200083E814005360236010BCFFF7D1BB4FF066
:10283000FF3010BC704700BF98090010AFF3008054
:1028400010B4C361019B40608A180024006084605A
:1028500041618161C1600261036210BC704700BFC9
:1028600038B50446FFF7D4F92068E3680021A04298
:102870006361A361A1600AD06FF001050268226064
:102880005460FFF725FB85622068A042F6D138BD71
:1028900038B504460D46FFF7BBF96369A269A06825
:1028A00093421AD0411CA16003F8015B2269636165
:1028B00093420BD22068A0420DD0016821604C6089
:1028C000FFF706FB00228262104638BD2068E368ED
:1028D000A0426361F1D1002038BD0028E2D06FF042
:1028E000030038BDAFF30080AFF30080AFF300808A
:1028F000F8B504460E46202383F31188FFF738FA13
:10290000E3690BB120469847A5682046314655B982
:10291000FFF77EFF071EF7DAFFF70AFA2B4683F36D
:1029200011883846F8BDA0692269013DA56010F8FC
:10293000017B9042A06124BFE068A061FFF7F8F935
:10294000002383F311883846F8BD00BFAFF3008041
:102950002DE9F0470446154688461E46C769002AF9
:102960003AD0202383F31188FFF702FA08F1010A15
:102970004FF00009A8440FB12046B847A56820468B
:1029800031465DB9FFF744FF0028F7D0FFF7D0F9D3
:102990002B4683F311884846BDE8F087A369013DC3
:1029A000A56013F8012B0AF8012C2069A36183426A
:1029B00024BFE368A361FFF7BBF9002383F3118809
:1029C000C24509F10109E6D0202383F31188FFF7FE
:1029D000CFF90AF1010ACEE702480349E722FFF7DF
:1029E000CFF8BEE75086010864860108AFF3008087
:1029F00010B4C361019B40608C180060826041612B
:102A00008161C1600461036210BC7047AFF3008054
:102A100038B50446FFF7FCF8E36822692068636173
:102A2000D11AA042A361A1600AD06FF0010503682A
:102A300023605C60FFF74CFA85622068A042F6D103
:102A400038BD00BFAFF30080AFF30080AFF300806C
:102A50002DE9F041202304468846164683F3118869
:102A6000FFF786F9A568204631465DB9FFF7D0FE2D
:102A7000071EF7DAFFF75CF92B4683F31188384617
:102A8000BDE8F0816369013DA56003F8018B22690F
:102A90006361934228BFE368E16928BF636109B1BC
:102AA00020468847FFF744F9002383F311881F4627
:102AB0003846BDE8F08100BFAFF30080AFF300807F
:102AC00038B50446FFF7A4F8A3696269A0689A4282
:102AD00016D0411CA16013F8015B2269A3619342E7
:102AE0000BD22068A04206D0016821604C60FFF73D
:102AF000EFF900228262284638BDE368A361F0E75F
:102B00000028E6D06FF0020038BD00BFAFF30080B0
:102B10002DE9F0470446164688469A46D0F81C90A0
:102B2000002A39D0202383F31188FFF721F90027E9
:102B3000A56820466B1E0DB3A360656918F8011BDC
:102B400005F8011B22696561954224BFE268626154
:102B5000B9F1000F00D0C847FFF7EAF8002383F36C
:102B600011880137013E14D0202383F31188FFF729
:102B7000FFF8A56820466B1E002DDDD1204651468A
:102B8000FFF746FE0028D3D0FFF7D2F82B4683F399
:102B900011883846BDE8F0870348044940F29B128B
:102BA000FEF7EEFFBEE700BF8886010864860108D5
:102BB00040F6C81240F6C4134CF200010648C1F2B8
:102BC0000002C1F20003C2F2010120F0070021F06F
:102BD0000701106019607047FB5A0120AFF30080B5
:102BE00010B50446FFF714F8074A08491368096846
:102BF000E01D20F00700C91A88429ABF181810601B
:102C00000023184610BD00BFC8090010C4090010F9
:102C100010B52023044683F31188FFF7A9F8204656
:102C2000FFF7DEFF0446FFF783F8002383F31188E4
:102C3000204610BDAFF30080AFF30080AFF30080FB
:102C400040F6D013C1F2000342F611410022C0F653
:102C5000000103F1100019609A60DA60FFF788BC88
:102C6000F8B5204E002818BF0646073106F11000BF
:102C700021F0070506F10804FFF71AFD00E01C46E5
:102C80002368FBB15A689542F9D805F108019142D1
:102C900015D84FF6F870CFF6FF70401B03EB010E0E
:102CA00082181868CEF8042058505D60C4F800E01F
:102CB0001C4644F8086BFFF70BFD2046F8BD196869
:102CC0002160F5E7FFF704FD32684AB105F108001D
:102CD000904728B100F10804066045602046F8BD21
:102CE0000024EAE7D0090010AFF30080AFF30080C2
:102CF000F8B5074600284DD057F8086C06F11000CB
:102D0000FFF7D6FC0836A7F108053446AC4204D8D4
:102D100063680833E01885421FD3B442216801D0AC
:102D2000AC4202D219B18D4201D30C46EEE757F8FE
:102D3000042C47F8081C256002F1080357F8080C1A
:102D4000E91881420FD0606800F1080163189D42C4
:102D500017D0BDE8F840FFF7BBBC11481149D0229D
:102D6000FEF70EFFD9E74868EB581218083247F80B
:102D7000042C606847F8083C00F1080163189D4284
:102D8000E7D157F8041C57F8082C4318083384E897
:102D90000C00DEE704480349C622FEF7F1FEABE76C
:102DA000E0860108B0860108D0860108AFF30080F4
:102DB00038B504460D46FEF72BFF24B11DB123683C
:102DC0002B60256038BD034803499922FEF7D8FEE1
:102DD000F5E700BF4887010810870108AFF30080BE
:102DE00038B505460C46202383F31188FEF7C0FF53
:102DF00028462146FFF7DCFFFEF79AFF002383F306
:102E0000118838BDAFF30080AFF30080AFF30080CE
:102E1000F0B4002B08BF0B46074600F10B0C00F185
:102E20000A05B1FBF2F602FB161101F13004392C50
:102E3000C8BF01F13704E4B2B3FBF2F328463146D0
:102E400005F80149002BECD1C0EB0C03F943024615
:102E5000F8184318DB070AD507F8014B12F8014FA1
:102E600005E012F8014F7C7012F8014F5F1C3B46E1
:102E700003F8014B8342F4D1F0BC7047AFF30080FC
:102E80002DE9F04F2DED028B8FB00DF1210408AB31
:102E900001940293064617460198029A4CF6CD45D6
:102EA0000C46CCF6CC45811A03910695254615F8BB
:102EB000011B59B125290ED033682C4625463046D2
:102EC0009A68904715F8011B0029F3D10FB0BDECAB
:102ED000028BBDE8F08F63782D2B00F0D4814FF08A
:102EE00000092E2B00F0B281302B00F0AF814FF0A3
:102EF00020082C46002506E03978043705EB8505C7
:102F0000237801EB4505A3F13000C1B20134092952
:102F1000F4D92A2BF0D02E2B00F09D814FF0000B1E
:102F20006C2B00F08C814C2B00F08981A3F14401C3
:102F3000342900F27D81DFE811F074017B017B010F
:102F40007B017B0174017B017B017B017B017B01A8
:102F500072017B017B017B017B017B0170017B01A5
:102F60007B0163017B017B017B017B017B017B0199
:102F70007B017B017B017B01240174017B01D30078
:102F80007B017B0174017B017B017B017B017B0168
:102F900072017B017B017B0135007B0170017B01AC
:102FA0007B0163013868AE4A002814BF824692460E
:102FB00047F6FF719AF800300437BBF1000F08BFE5
:102FC0008B46002B00F098810AEB0B006FEA0A0297
:102FD0009AF80130111801F001020AF1010B63B1F6
:102FE00083455B4609D0002A6ED09BF801300BF177
:102FF000010B13B183455B4666D1CAEB0B0B4FF057
:103000002008CBEB050525EAE575B9F1000F00F0C6
:10301000CA80BBF1000F27DDD146306819F8011BCB
:103020008268D3446FEA0A0C0BEB0C0E30460EF0AC
:10303000010A9047D94517D0BAF1000F03D0336881
:1030400019F8011B0BE03068CA4682681AF8011BA8
:1030500030469047336899F801100AF101099A68DF
:1030600030469047D945EED1002D3FF41FAF31686F
:103070006B1E8A681D463046414603F001099047A1
:10308000002D3FF413AFB9F1000F07D0316830467F
:103090008B6841469847013D3FF408AF3068414690
:1030A0008268304690473168013D8B683046414622
:1030B0009847013DF2D1F9E69BF801100BF1010BA5
:1030C00000299AD0834598D003F1010B59785A46CC
:1030D000531C0029F0D1CAEB0B0B4FF0200890E7EE
:1030E000073727F00707D7E90001FDF7E1FC08EEF5
:1030F000100AB5EEC08A0837F1EE10FA00F1F4803C
:103100000DF1200A18EE100AFDF7B6F9CDE9040119
:1031100013F06EF8002800F0C780BBF1000F00F03C
:10312000D380069AA2FB0B03D9080791BDEEC88A8B
:1031300000230A2218EE101A5046FFF769FE824655
:103140002E220AF8012B18EE100AFDF783F9024629
:103150000B46DDE90401FDF72FF8CDE904015846DF
:10316000FDF768F902460B46DDE90401FDF7D8F9E1
:10317000FDF776FC0A220146079B5046FFF748FE02
:103180009CE03868DDF80CB08DF820004FF0200886
:1031900004370DEB080ACBEB050525EAE575B9F117
:1031A000000F7FF436AF6D42002D3FF432AF9AF836
:1031B00000102D296CD030684146826830466FEA95
:1031C00005099047013509F001093FF422AFB9F133
:1031D000000F07D0316830468B684146984701356B
:1031E0003FF417AF306841468268304690473168F7
:1031F00001358B683046414698470135F2D108E7E2
:103200001022396808A804370023FFF701FE02994D
:103210000DF1200AC1EB000BBDE70A22F1E70822FD
:10322000EFE739680437002956DB08A80A22EBE7E4
:103230008DF82030DDF80CB00DF1200AABE72278D4
:10324000002A3FF473AE013413466FE66B784FF0FB
:10325000300801354DE621464FF0000B08E000BF75
:1032600070870108387804370BEB8B0400EB440BB4
:1032700011F8013BA3F13004E0B209280C46F3D960
:103280002A2BEFD04CE6A51CA3784FF0010928E6C5
:10329000B8F1300F8FD132683046936898470AF101
:1032A000010A0BF1FF3B86E74E2361218AF80030CB
:1032B0008AF801108AF802300AF10300029A0DF12F
:1032C000200AC2EB000B66E748F2A06B42F21070D6
:1032D0000790C0F2010B29E72D238DF820304942D9
:1032E0000DF121000A228FE72D208DF82000B1EE8C
:1032F000488A0DF1210A05E79B464FF020084AE76E
:1033000010B560B907480479053C18BF012410F0D6
:1033100027FC10B144F00400C4B2204610BD0224C2
:10332000204610BD88080120AFF30080AFF3008075
:1033300010B560B907480479053C18BF012410F0A6
:103340000FFC10B144F00400C4B2204610BD0224AA
:10335000204610BD88080120AFF30080AFF3008045
:10336000F0B50C4683B030B9234D297903200529E7
:1033700003D003B0F0BD0420FBE7284611460193BB
:1033800006F016FB019B78BB83B35E1E28462146E0
:1033900006F0010706F04CFB30BB16F0FF0604F503
:1033A000007423D09FB12846214606F041FBD8B9CE
:1033B000013E16F0FF0604F5007408D116E00E4831
:1033C00006F036FB711E78B911F0FF060ED02146CB
:1033D000094806F02DFB04F50075721E2946D6B289
:1033E00004F580640028EAD00120C2E7024803B057
:1033F000BDE8F04006F06CBB88080120AFF3008008
:10340000F0B50C4683B030B9274D29790320052942
:1034100003D003B0F0BD0420FBE7284601920093DF
:1034200010F09EFB019A08B10220F2E728461146EF
:1034300006F0AEFB009B78BB83B35E1E2846214698
:1034400006F0010706F0E4FB30BB16F0FF0604F5BA
:10345000007423D09FB12846214606F0D9FBD8B985
:10346000013E16F0FF0604F5007408D116E00E4880
:1034700006F0CEFB711E78B911F0FF060ED0214682
:10348000094806F0C5FB04F50075721E2946D6B240
:1034900004F580640028EAD00120BAE7024803B0AE
:1034A000BDE8F04006F004BC88080120AFF30080BE
:1034B00020B909B908467047022901D00420704795
:1034C0004FF4007313807047AFF30080AFF30080B8
:1034D0004FF40410704700BFAFF30080AFF30080DB
:1034E00001460020FFF7BCBBAFF30080AFF30080C4
:1034F000FFF7FEBBAFF30080AFF30080AFF30080B7
:10350000C36882689A4206D04268D154C1684B1C95
:10351000C360002070476FF001007047AFF3008078
:103520000369C2689A4205D04168CA5C01330361ED
:10353000104670476FF00100704700BFAFF3008086
:1035400038B5044608462369E5686168ED1AAA4261
:1035500038BF15462A46C91814F0A2FA2069421944
:103560002261284638BD00BFAFF30080AFF3008072
:1035700038B5C36885680446ED1A4068AA4238BF6A
:1035800015462A46C01814F08BFAE1684A19E26021
:10359000284638BDAFF30080AFF30080AFF3008062
:1035A00010B448F28074C0F60104C36000230460C4
:1035B00041608260036110BC704700BFAFF30080C0
:1035C00003680F2B70B504460D46164609D003F16B
:1035D000100104EB8302581C44F821602060556000
:1035E00070BD034803490D2204F08AF92368EEE711
:1035F00090870108A4870108AFF30080AFF3008033
:103600000368002B70B5064609DD041F002504344D
:103610000135206C616888473068A842F7DC70BDCE
:103620000368002B2DE9F04106460F4690460ADD5F
:10363000051F0024043538466A68414690473068C3
:103640000134A042F6DCBDE8F08100BFAFF300809A
:10365000002953DD03464118002003E050008B424F
:10366000C0B24AD013F8012B504010F0800F4FEA3F
:1036700040021CBF82F02702D243D0B210F0800F6C
:103680004FEA40021CBF82F02702D243D0B210F0B2
:10369000800F4FEA40021CBF82F02702D243D0B213
:1036A00010F0800F4FEA40021CBF82F02702D24385
:1036B000D0B210F0800F4FEA40021CBF82F0270208
:1036C000D243D0B210F0800F4FEA40021CBF82F00C
:1036D0002702D243D0B24FEA400210F0800F1CBF45
:1036E00082F02702D243D2B21006B7D5520082F040
:1036F0002700C2438B42D0B2B4D17047002070473C
:103700002DE9F04F6E4C0022002383B0104619467D
:10371000E4E80223FCF7D6FE67A3D3E90023FCF715
:10372000FFFEFDF75DFB01260027002908BF0028EA
:1037300000F0BF80002871F10002BCBF4FF0FF30E5
:103740006FF00041C4E9000140F27D39DFF87C816F
:1037500004460D462EE0A04271EB0502BCBF4FF0BF
:10376000FF306FF00041B9F1010AE8E802013BD0F7
:1037700058E9024520462946FCF7A4FE4EA3D3E9AA
:103780000023FCF7CDFEFDF72BFB001941EB0501F3
:10379000A94208BFA04223D0A04271EB0503BCBFE1
:1037A0004FF0FF306FF00041E8E802010AF1FF3905
:1037B00004460D4620462946FCF784FE3EA3D3E985
:1037C0000023FCF7ADFEFDF70BFB001941EB0501F3
:1037D000A94208BFA042BED1A01945EB0701BAE734
:1037E000801941EB0701D7E7364D4FF0FF326FF0FC
:1037F0000043C5E904235746A5F5DF5BD44640F2F4
:10380000E739FBE902236446E517944275EB0300B0
:1038100007F1010A44DACC4545DCE443E843A41847
:1038200040EB03050021012205EA01032240CDE916
:103830000023DDE9000142F63423C2F200030CF15B
:10384000FF3803EB88080022002301431CD00CF151
:10385000010C01220023BCF57A7F48F8047F13D1C4
:1038600021E001200021801841EB03010122002307
:10387000BCF57A7F0CF1010C15D0121843EB010353
:10388000BCF57A7F77600ED008F10406AB4208BF22
:10389000A242C8F804700CF1010C06F10408E0D152
:1038A000CC455746ADDD08490120086003B0BDE8AE
:1038B000F08F304639463DE7000000A09999A93FB6
:1038C000D8390020B8550020D0550020E839002014
:1038D000234B1A682DE9F04104460D46002A33D0E7
:1038E000002C75F1000338DBB4F57A7F75F1000820
:1038F0001C4822DBD0F89C1F40F27D33994220DC2B
:10390000194F40F27E36BC4602E0461EB14218DA3C
:103910008A19501007EBC003D3E90023944275EBDA
:103920000308F2DB411C0CEBC103D3E900239442F2
:1039300075EB0308EADABDE8F08150F82400BDE831
:10394000F0810846BDE8F0813C2208480849FEF7AE
:1039500017F9002C75F10003C6DA0020BDE8F081EC
:10396000D0550020342A0020D8390020D087010803
:10397000E4870108AFF30080AFF30080AFF300806D
:1039800010B4002200230160C0E90223C0E904232F
:103990000446002140F6186210BC14F029B900BF9B
:1039A0002DE9F84F19468246104690469946FFF792
:1039B0008FFFDAE90267DAE9044516EB080647EB00
:1039C000090701228346002340F27E30A41845EB0C
:1039D00003058345CAE90267CAE9044504DD0748CF
:1039E00007496122FEF7CCF80BF1060B5AF82B10B1
:1039F0004A1C4AF82B20BDE8F88F00BFF887010861
:103A0000E4870108AFF30080AFF30080AFF30080DC
:103A10002DE9F04F2DED028BD0E904238BB0CDE9D9
:103A20000023062A73F1000380468B46C0F2F6801D
:103A300083694FF0000A43B900F118009A4650F824
:103A4000043F0AF1010A002BF9D0CBF80030DDE980
:103A50000001FDF74DF9DDE90045DDE900236D10BA
:103A60004FEA34044FF0FF36CDE906454FF0FF3101
:103A700000240025921943EB0103DFF80092CDF8F2
:103A800014B0CDE908235F4608EE900ACB46B9464C
:103A90000BF1040BDBED007A28EEA70A10EE100AFA
:103AA000FDF786F906460F4656EA070200F0B38096
:103AB000DDE90001B94208BFB04201D1DDE9086784
:103AC0000AF1060158F82100221845EBE073B242D2
:103AD00073EB070011DA08EB810114461D4601E083
:103AE00014461D4651F8040F221845EBE073B2420C
:103AF00073EB07000AF1010AF2DBDDE906239642C7
:103B000077EB03031CDA0AF1060158F821002218AA
:103B100045EBE073964277EB030011DB08EB810184
:103B200014461D4601E014461D4651F8040F2218A4
:103B300045EBE073964277EB03000AF1010AF2DAF3
:103B400043F6D813C2F2000303EBCA02D2E9000124
:103B5000CDE90201FDF7CCF8BD4208BFB44208EE42
:103B6000100A2AD043F6D811C2F2000101EBCA03B1
:103B7000D3E902014FF0FF3280184FF0FF3341EBE1
:103B80000301DDE902230AF1060E801A61EB03014D
:103B9000361B67EB050758F82E2000FB07F306FBE2
:103BA0000133A0FB06015918D317FDF7E1F8FDF723
:103BB0009FF807EE900A38EE278ABDEEC88A05996D
:103BC0002C4B18EE100A41F8040F9B4505917FF429
:103BD0005FAFD8F8102ECB46002A48D108F5616CAB
:103BE00040F27E335CF8040D013B0028FAD0591CEA
:103BF00043F6D812C2F2000202EBC101D1E9002360
:103C00004FF0FF301318CBF8103005200BB0BDEC8F
:103C1000028BBDE8F08F0126002751E7164900F11D
:103C2000180C012600205CF8042B002A19DD51E94C
:103C30000223D1E90045121943EB0505EC0F1219D7
:103C400045F100035B104FEA3202431E0BEB830485
:103C5000002344F8042F5CF8045C013301309D42DA
:103C6000F7DC01360831B6F5607FDCD1CEE740F2F3
:103C70007F31BDE7C8870108E0390020BC87010813
:103C800010B500210446402213F0B2FF0023236444
:103C900010BD00BFAFF30080AFF30080AFF3008032
:103CA000036C5A1C0264036C102B01D100220264C5
:103CB000036C40F82310416C4A1C4264704700BFFB
:103CC000436C8B42B8BF436C026CA8BF0B46002B01
:103CD000F0B441DD5C1ED143002A04F00105C3EBC2
:103CE000020C144604DA21F00F0702F11003FC184D
:103CF000531E0131634550F824702AD06DB1002B5A
:103D00001C4603DA21F00F040F32A41850F82420C7
:103D1000013B0131634517441BD05A1E002B1E4640
:103D200001F10104154604DA21F00F0103F1100638
:103D30008E1950F826100F33002A0F4402DA24F0AF
:103D40000F05ED18531E50F82520611C63451744DC
:103D5000E3D13846F0BC70470027FAE7AFF30080A4
:103D600038B50C46054614F08BF8011E18DD2B788B
:103D7000A3421AD00020CA072B460ED413F8012FF5
:103D80000120A24209D138BD13F8012FA2420AD066
:103D900013F8012F0130A24206D001308142F3D145
:103DA0004FF0FF3038BD38BD38BD002038BD00BFF2
:103DB000014648F61000C0F6010004F001BF00BF44
:103DC00070B50C4E0C48316804F0FAFE3368002BD5
:103DD0000FDD0A4D002404EB440105EB8102084885
:103DE00055F82110526804F0EBFE30680134A0420F
:103DF000F1DC70BDD455002020880108A0560020B9
:103E000038880108AFF30080AFF30080AFF3008083
:103E1000F0B40B4C23682A2B0BD00A4F03EB43065C
:103E2000B600BD190133B85123606960AA60F0BCC7
:103E30007047054805491E22F0BC03F061BD00BF74
:103E4000D4550020A0560020508801086C88010835
:103E50000A460021FFF7DCBFAFF30080AFF300801C
:103E60000A460121FFF7D4BFAFF30080AFF3008013
:103E70000A460521FFF7CCBFAFF30080AFF3008007
:103E80000A460321FFF7C4BFAFF30080AFF3008001
:103E90000A460421FFF7BCBFAFF30080AFF30080F8
:103EA00070B50446012504E014F8013B2D2B0DD11B
:103EB0006D42204613F0E4FF22460028F4D144F27C
:103EC0003012C0F2AB0202FB05F070BD002834DDF9
:103ED000303BD9B2092929D810180138811A002499
:103EE000C90717D512F8011F1C46A1F13003D9B23A
:103EF00009290FD91AE011F8014F303C0A46E1B206
:103F0000092904EB460411D812F8013F303BD9B21D
:103F100009290BD804EB840403EB440382421146C5
:103F200003EB8306E7D103FB05F070BD4BF6D060D1
:103F3000CFF6547000FB05F070BD002070BD00BFCF
:103F400070B52E210446FFF70BFF0546013036D031
:103F5000002363552046FFF7A3FF01356519064688
:103F6000284613F08DFF04462846FFF799FF002CE2
:103F70002FDD0123611EF2EE047A9C4201F0010262
:103F8000B0EE677A0CD022B102239C4227EEA77ACA
:103F900006D027EE270A02339C4220EE277AF8D17A
:103FA00000EE900AF8EEE06A06EE106AC6EE871A96
:103FB000B8EEC61A31EE212A12EE100A70BD204664
:103FC000FFF76EFF02EE900AB8EEE22A12EE100A38
:103FD00070BDB7EE007AE3E7AFF30080AFF3008087
:103FE00008B548F6880043F6C151C0F60100C0F696
:103FF0000001FFF72DFF48F6900043F6B151C0F6DF
:104000000100C0F60001BDE80840FFF729BF00BF6E
:10401000F8B54368032B05460C4642D0042B0846EE
:104020000ED0052B23D0022B36D0FFF739FF4BF6ED
:10403000D061CFF65471884237D0AA689047F8BD56
:104040002021FFF78DFE411CF9D0461C0027A61940
:10405000275420213046FFF783FE421CEFD037540F
:10406000421C3146AB682046B2189847F8BD202163
:10407000FFF776FE431C0646E1D00020A0552046FF
:10408000FFF70EFF711C07466018FFF709FFAA68CB
:10409000014638469047F8BDFFF752FFAB68984796
:1040A000F8BD816820468847F8BD03482146BDE831
:1040B000F84004F085BD00BF98880108AFF3008088
:1040C00070B50D46064613F0DBFE0446284613F095
:1040D000D7FE844201D0002070BD002C25DD32784F
:1040E0002B789A42F7D10022E0073346294617D4AD
:1040F00013F8015F11F8010F01228542EBD1013263
:10410000944202F1010210D013F8015F11F8010F7F
:104110008542E0D113F8015F11F8010F8542DAD131
:104120000132944202F10102EED1012070BD00BFC4
:10413000704700BFAFF30080AFF30080AFF30080A3
:1041400070B5044628B11D482146042213F0C8FE6C
:1041500008B1204670BD1A482146251D04F030FDE7
:104160001748294604F02CFD2379212B23D0DBB1FD
:10417000601D00E0C2B1044610F8012B212AF9D1DC
:10418000002604F8016B2846FFF78AFE0546204604
:1041900013F076FE85420246DBD0234609482946C5
:1041A00004F00EFD3446D4E707482946002404F005
:1041B00007FD204670BD2C46E2E700BFB08801082D
:1041C000B8880108E4880108C8880108AFF30080B6
:1041D0002DE9F84FFFF7B4FF044620B113F050FE6D
:1041E0006428804601DDBDE8F88F594B594D0FCB4F
:1041F00007C52846214600F8013B13F091FD5649BA
:104200000A880280207850B120284FF0000002D1A7
:1042100005E0202B03D00130235C002BF9D1804531
:1042200053D04E49D1F8009000229145225404EB1E
:10423000000A3DDD4A4E09F1FF372046316807F09C
:104240000107B346FFF73CFF38BB01254D452FD092
:10425000A7B1B34620465BF80C1FFFF731FFE0B96A
:1042600002254D450AD123E0204656F8271006EBDB
:10427000870BFFF725FF80B94D4519D005EB4503A6
:10428000204656F8231006EB830BFFF719FF6F1C2F
:1042900007EB470702350028E6D058460AF101012E
:1042A000FFF7B6FE2B484146BDE8F84F03F040BB90
:1042B00000212C4803F03CFB26484FF0FF3103F06F
:1042C00037FBBDE8F84FFFF77BBD2448D0F80090DE
:1042D000B9F1000FECDD224E09F1FF3220463168C2
:1042E00002F00107B246FFF7EBFE38BB01254D4552
:1042F000DED0A7B1B24620465AF80C1FFFF7E0FE09
:10430000E0B902254D450AD1D2E7204656F82710DC
:1043100006EB870AFFF7D4FE80B94D45C8D005EB00
:104320004503204656F8231006EB830AFFF7C8FE24
:104330006F1C07EB470702350028E6D0DAF80810B3
:10434000884704484146BDE8F84F03F0F1BA00BF82
:1043500018890108D855002054920108D45500202E
:10436000A056002028890108AFF30080AFF3008039
:1043700041F65833A0F84831704700BFAFF30080D2
:104380002DE9F04700F12C050446284606F0D0FD43
:104390000021284600220123C4F2702106F0D0FD3E
:1043A0000022002128461346C4F2523106F0C8FD0F
:1043B0000021284600220123C4F2D23106F0C0FDBC
:1043C00000224FF4004128461346C4F21D4106F076
:1043D000B7FD0022002128461346C4F2344106F0FE
:1043E000AFFD49F6B25704F24C7204F5EA6347F2A6
:1043F000BD41C3F61371C3F66F7704F6381611602A
:104400001F6004F254700CF04BF830460CF048F882
:1044100010200BF0BDFD4FF0000AC4F24C2A0246FA
:104420000021534630460CF043F80E200BF0B0FD4F
:104430004FF00009C4F26739024600214B4630466E
:104440000CF036F80D200BF0A3FD4FF40048C4F239
:10445000CD3802460021434630460CF029F80F20A3
:104460000BF096FD4FF44047C4F21347002102467B
:1044700004F61C353B4630460CF01AF828460CF082
:104480000FF807200BF084FD002102465346284612
:104490000CF00EF808200BF07BFD002102464B4685
:1044A00028460CF005F809200BF072FD00210246A9
:1044B000434628460BF0FCFF0A200BF069FD002163
:1044C00002463B4628460BF0F3FF02200022C4F8C8
:1044D0004007C4F84827BDE8F08700BFAFF300806D
:1044E0002DE9F00F2DED108B8146ADF5F16D09F53D
:1044F000D363CDF8983409F61833029309F61C33C8
:10450000039309F62C03669309F53263049309F6C5
:104510002433059309F62833069309F204730193B3
:1045200009F62C33079309F53363009309F6343306
:10453000089309F63833099309F63C330A9309F5D1
:1045400034630B9309F644330C9309F648330D9307
:1045500009F64C330E9309F535630F9309F654337E
:10456000109309F65833119309F65C33129309F549
:104570003663139309F66433149309F6683315937D
:1045800009F66C33169309F53763179309F67433FC
:10459000189309F67833199309F67C331A9309F5C1
:1045A00038631B9309F684331C9309F688331D93F3
:1045B00009F68C331E9309F539631F9309F694337A
:1045C000209309F5E363219309F21C73229309F503
:1045D000E463239309F22473249309F5E563259397
:1045E00009F22C73269309F5E663279309F23473D5
:1045F000289309F5E763299309F23C732A9309F597
:10460000E8632B9309F244732C9309F5E9632D9326
:1046100009F24C732E9309F5EA632F9309F2547350
:10462000309309F5EB63319309F25C73329309F52A
:10463000EC63339309F26473349309F5ED633593B6
:1046400009F26C73369309F5EE63379309F27473CC
:10465000389309F5EF63399309F27C733A9309F5BE
:10466000F0633B9309F284733C9309F5F1633D9346
:1046700009F28C733E9309F5F2633F9309F2947348
:10468000409309F5F363419309F29C73429309F552
:10469000F463439309F2A473449309F5F5634593D6
:1046A00009F2AC73469309F5F663479309F2B473C4
:1046B000489309F5F763499309F2BC734A9309F5E6
:1046C000F8634B9309F2C4734C9309F5F9634D9366
:1046D00009F2CC734E9309F5FA634F9309F2D47340
:1046E000509309F5FB63519309F2DC73529309F57A
:1046F000FC63539309F2E473549309F5FD635593F6
:1047000009F2EC73569309F5FE63579309F2F473BB
:10471000589309F5FF63599309F2FC735A9309F50D
:1047200000635B9309F604035C9309F608035D9349
:1047300009F60C035E9309F501635F9309F6140310
:10474000609309F61803619309F61C03629309F557
:104750000263639309F62403649309F628036593BF
:1047600009F50363679309F63403689309F29C63C0
:10477000CDF89C3409F5D463CDF8A03409F2A463D4
:10478000CDF8A43409F5D563CDF8A83409F2AC63AB
:10479000CDF8AC3409F5D663CDF8B03409F2B46382
:1047A000CDF8B43409F5D763CDF8B83409F2BC6359
:1047B000CDF8BC3409F5D863CDF8C03409F2C46330
:1047C000CDF8C43409F5D963CDF8C83409F2CC6307
:1047D000CDF8CC3409F5DA63CDF8D03409F2D463DE
:1047E000CDF8D43409F5DB63CDF8D83409F2DC63B5
:1047F000CDF8DC3409F5DC63CDF8E03409F2E4638C
:10480000CDF8E43409F5DD63CDF8E83409F2EC6362
:10481000CDF8EC3409F5DE63CDF8F03409F2F46339
:10482000CDF8F43409F5DF63CDF8F83409F2FC6310
:10483000CDF8FC3409F5E063CDF8003509F5806367
:10484000CDF8043509F20443CDF8083509F5816344
:10485000CDF80C3509F20C43CDF8103509F582631B
:10486000CDF8143509F21443CDF8183509F58363F2
:10487000CDF81C3509F21C43CDF8203509F58463C9
:10488000CDF8243509F22443CDF8283509F58563A0
:10489000CDF82C3509F22C43CDF8303509F5866377
:1048A000CDF8343509F23443CDF8383509F587634E
:1048B000CDF83C3509F23C43CDF8403509F5886325
:1048C000CDF8443509F24443CDF8483509F58963FC
:1048D000CDF84C3509F24C43CDF8503509F58A63D3
:1048E000CDF8543509F25443CDF8583509F58B63AA
:1048F000CDF85C3509F25C43CDF8603509F58C6381
:10490000CDF8643509F26443CDF8683509F58D6357
:10491000CDF86C3509F26C43CDF8703509F58E632E
:10492000CDF8743509F27443CDF8783509F58F6305
:10493000CDF87C3509F27C43CDF8803509F59063DC
:10494000CDF8843509F28443CDF8883509F59163B3
:10495000CDF88C3509F28C43CDF8903509F592638A
:10496000CDF8943509F29443CDF8983509F5936361
:10497000CDF89C3509F29C43CDF8A03509F5946338
:10498000CDF8A43509F2A443CDF8A83509F595630F
:10499000CDF8AC3509F2AC43CDF8B03509F59663E6
:1049A000CDF8B43509F2B443CDF8B83509F59763BD
:1049B000CDF8BC3509F2BC43CDF8C03509F5986394
:1049C000CDF8C43509F2C443CDF8C83509F599636B
:1049D000CDF8CC3509F2CC43CDF8D03509F59A6342
:1049E000CDF8D43509F2D443CDF8D83509F59B6319
:1049F000CDF8DC3509F2DC43CDF8E03509F59C63F0
:104A0000CDF8E43509F2E443CDF8E83509F59D63C6
:104A1000CDF8EC3509F2EC43CDF8F03509F59E639D
:104A2000CDF8F43509F2F443CDF8F83509F59F6374
:104A3000CDF8FC3509F2FC43CDF8003609F5A0634A
:104A4000CDF8043609F20453CDF8083609F5A16310
:104A5000CDF80C3609F20C53CDF8103609F5A263E7
:104A6000CDF8143609F29463CDF8943409F2145356
:104A7000CDF8183609F5D263CDF8903409F5A36363
:104A8000CDF81C3609F28C63CDF88C3409F21C5336
:104A9000CDF8203609F5D163CDF8883409F5A46343
:104AA000CDF8243609F28463CDF8843409F638034E
:104AB000699309F61433CDF8803409F63C036A9300
:104AC00009F53163CDF87C3409F504636B9309F67D
:104AD0000C33CDF8783409F644036C9309F60833A7
:104AE000CDF8743409F648036D9309F60433CDF814
:104AF000703409F64C036E9309F53063CDF86C34CD
:104B000009F505636F9309F6FC23CDF8683409F6BF
:104B10005403709309F6F823CDF8643409F658036A
:104B2000719309F6F423CDF8603409F65C037293AF
:104B300009F52F63CDF85C3409F50663739309F624
:104B4000EC23CDF8583409F66403749309F6E8238E
:104B5000CDF8543409F66803759309F6E423CDF8CB
:104B6000503409F66C03769309F52E63CDF84C3476
:104B700009F50763779309F6DC23CDF8483409F685
:104B80007403789309F6D823CDF8443409F67803F2
:104B9000799309F6D423CDF8403409F67C037A934F
:104BA00009F52D63CDF83C3409F508637B9309F6CC
:104BB000CC23CDF8383409F684037C9309F6C82356
:104BC000CDF8343409F688037D9309F6C423CDF873
:104BD000303409F68C037E9309F52C63CDF82C3420
:104BE00009F509637F9309F6BC23CDF8283409F64B
:104BF0009403809309F6B823CDF8243409F698037A
:104C0000819309F6B423CDF8203409F69C038293EE
:104C100009F52B63CDF81C3409F50A63839309F673
:104C2000AC23CDF8183409F6A403849309F6A8231D
:104C3000CDF8143409F6A803859309F6A423CDF81A
:104C4000103409F6AC03869309F52A63CDF80C34C9
:104C500009F50B63879309F69C23CDF8083409F610
:104C6000B403889309F69823CDF8043409F6B80301
:104C7000899309F69423CDF8003409F6BC038A938E
:104C800009F52963FF9309F50C638B9309F68C23CF
:104C9000FE9309F6C4038C9309F68823FD9309F665
:104CA000C8038D9309F68423FC9309F6CC038E93F5
:104CB00009F52863FB9309F50D638F9309F67C23AF
:104CC000FA9309F6D403909309F67823F99309F639
:104CD000D803919309F67423F89309F6DC039293B1
:104CE00009F52763F79309F50E63939309F66C238F
:104CF000F69309F6E403949309F66823F59309F60D
:104D0000E803959309F66423F49309F6EC0396936C
:104D100009F52663F39309F50F63979309F65C236E
:104D2000F29309F6F403989309F65823F19309F6E0
:104D3000F803999309F65423F09309F6FC039A9328
:104D400009F52563EF9309F510639B9309F64C234E
:104D5000EE9309F604139C9309F64823ED9309F6A4
:104D600008139D9309F64423EC9309F60C139E93C4
:104D700009F52463EB9309F511639F9309F63C232E
:104D8000EA9309F61413A09309F63823E99309F678
:104D90001813A19309F63423E89309F61C13A29380
:104DA00009F52363E79309F51263A39309F62C230E
:104DB000E69309F62413A49309F62823E59309F64C
:104DC0002813A59309F62423E49309F62C13A6933C
:104DD00009F52263E39309F51363A79309F61C23EE
:104DE000E29309F63413A89309F61823E19309F620
:104DF0003813A99309F61423E09309F63C13AA93F8
:104E000009F52163DF9309F51463AB9309F60C23CD
:104E1000DE9309F64413AC9309F60823DD9309F6F3
:104E20004813AD9309F60423DC9309F64C13AE93B3
:104E300009F52063DB9309F51563AF9309F6FC13BD
:104E4000DA9309F65413B09309F6F813D99309F6D7
:104E50005813B19309F6F413D89309F65C13B2937F
:104E600009F51F63D79309F51663B39309F6EC139D
:104E7000D69309F66413B49309F6E813D59309F6AB
:104E80006813B59309F6E413D49309F66C13B6933B
:104E900009F51E63D39309F51763B79309F6DC137D
:104EA000D29309F67413B89309F6D813D19309F67F
:104EB0007813B99309F6D413D09309F67C13BA93F7
:104EC00009F51D63CF9309F51863BB9309F6CC135D
:104ED000CE9309F68413BC9309F6C813CD9309F653
:104EE0008813BD9309F6C413CC9309F68C13BE93B3
:104EF00009F51C63CB9309F51963BF9309F6BC133D
:104F0000CA9309F69413C09309F6B813C99309F626
:104F10009813C19309F6B413C89309F69C13C2936E
:104F200009F51B63C79309F51A63C39309F6AC131C
:104F3000C69309F6A413C49309F6A813C59309F2FE
:104F40002453CDF8283609F5A563CDF82C3609F29F
:104F50002C53CDF8303609F5A663CDF8343609F276
:104F60003453CDF8383609F5A763CDF83C3609F24D
:104F70003C53CDF8403609F5A863CDF8443609F224
:104F80004453CDF8483609F5A963CDF84C3609F2FB
:104F90004C53CDF8503609F5AA63CDF8543609F2D2
:104FA0005453CDF8583609F5AB63CDF85C3609F2A9
:104FB0005C53CDF8603609F5AC63CDF8643609F280
:104FC0006453CDF8683609F5AD63CDF86C3609F257
:104FD0006C53CDF8703609F5AE63CDF8743609F22E
:104FE0007453CDF8783609F5AF63CDF87C3609F205
:104FF0007C53CDF8803609F5B063CDF8843609F2DC
:105000008453CDF8883609F5B163CDF88C3609F2B2
:105010008C53CDF8903609F5B263CDF8943609F289
:105020009453CDF8983609F5B363CDF89C3609F260
:105030009C53CDF8A03609F5B463CDF8A43609F237
:10504000A453CDF8A83609F5B563CDF8AC3609F20E
:10505000AC53CDF8B03609F5B663CDF8B43609F2E5
:10506000B453CDF8B83609F5B763CDF8BC3609F2BC
:10507000BC53CDF8C03609F5B863CDF8C43609F293
:10508000C453CDF8C83609F5B963CDF8CC3609F26A
:10509000CC53CDF8D03609F5BA63CDF8D43609F241
:1050A000D453CDF8D83609F5BB63CDF8DC3609F218
:1050B000DC53CDF8E03609F5BC63CDF8E43609F2EF
:1050C000E453CDF8E83609F5BD63CDF8EC3609F2C6
:1050D000EC53CDF8F03609F5BE63CDF8F43609F29D
:1050E000F453CDF8F83609F5BF63CDF8FC3609F274
:1050F000FC53CDF8003709F5C063CDF8043709F249
:105100000463CDF8083709F5C163CDF80C3709F20F
:105110000C63CDF8103709F5C263CDF8143709F2E6
:105120001463CDF8183709F5C363CDF81C3709F2BD
:105130001C63CDF8203709F5C463CDF8243709F294
:105140002463CDF8283709F5C563CDF82C3709F26B
:105150002C63CDF8303709F5C663CDF8343709F242
:105160003463CDF8383709F5C763CDF83C3709F219
:105170003C63CDF8403709F5C863CDF8443709F2F0
:105180004463CDF8483709F5C963CDF84C3709F2C7
:105190004C63CDF8503709F5CA63CDF8543709F29E
:1051A0005463CDF8583709F5CB63CDF85C3709F275
:1051B0005C63CDF8603709F5CC63CDF8643709F24C
:1051C0006463CDF8683709F5CD63CDF86C3709F223
:1051D0006C63CDF8703709F5CE63CDF8743709F2FA
:1051E0007463CDF8783709F5CF63CDF87C3709F2D1
:1051F0007C63CDF8803709F5D063CDF8843749F664
:105200009A13C3F6997305EE103A029B83ED005A88
:105210000023C4F2484305EE103A119B83ED005A77
:105220004EF61903C3F6B47305EE103A039B83EDF3
:10523000005A4AF6AB23C4F2974305EE103A129B8C
:1052400083ED005A43F2A063C3F6D07305EE103A23
:10525000049B83ED005A45F25653C4F2CB4305EE4E
:10526000103A139B83ED005A48F21F53C3F6EB73B9
:1052700005EE103A059B83ED005A0023C4F2FF436C
:1052800005EE103A149B83ED005A46F6CF13C4F294
:10529000030305EE103A069B83ED005A45F2565380
:1052A000C4F2195305EE103A159B83ED005A41F2F2
:1052B0001213C4F2110305EE103A079B83ED005A56
:1052C00042F6AB23C4F2335305EE103A169B83ED3E
:1052D000005A4BF65203C4F21E0305EE103A009B2F
:1052E00083ED005A0023C4F24D5305EE103A179B8C
:1052F00083ED005A45F69173C4F22C0305EE103A83
:10530000089B83ED005A4DF25653C4F2665305EEE6
:10531000103A189B83ED005A40F2D563C4F23A0369
:1053200005EE103A099B83ED005A0123A9F84A3192
:105330004AF61463C4F2470305EE103A0A9B83ED64
:10534000005A4FF47A73A9F84C3145F25453C4F221
:10535000550305EE103A0B9B83ED005A0023C4F26F
:105360000C2305EE103A019B83ED005A4FF698434B
:10537000C4F2620305EE103A0C9B83ED005A41F62D
:105380005833A9F848314AF2D733C4F2700305EE16
:10539000103A0D9B83ED005A0023C4F27013C9F834
:1053A000503144F61633C4F27E0305EE103A0E9BDC
:1053B00083ED005A0023C4F28223C9F854314FF61A
:1053C0002D13C4F2850305EE103A0F9B83ED005AAE
:1053D0004FF08343C9F858314FF08243C9F85C312C
:1053E0004CF6CD43C4F28C0305EE103A109B83EDCE
:1053F000005A45F25653C4F2805305EE103A199BF9
:1054000083ED005A4FF48043C4F28D5305EE103AF9
:105410001A9B83ED005A46F24203C3F6C57305EEAC
:10542000103A219B83ED005A42F6AB23C4F29A5303
:1054300005EE103A1B9B83ED005A41F2C273C3F68E
:10544000C67305EE103A229B83ED005A41F2565383
:10545000C4F2A75305EE103A1C9B83ED005A4AF2A2
:105460009433C3F6C67305EE103A239B83ED005ABE
:105470000023C4F2B45305EE103A1D9B83ED005A8D
:105480004FF2C353C3F6C87305EE103A249B83ED65
:10549000005A4EF6AB23C4F2C05305EE103A1E9BE1
:1054A00083ED005A46F26663C3F6C67305EE103A02
:1054B000259B83ED005A4DF25653C4F2CD5305EEB1
:1054C000103A1F9B83ED005A49F65663C3F6687382
:1054D00005EE103A269B83ED005A4FF44043C4F288
:1054E000DA5305EE103A209B83ED005A47F603038A
:1054F000C3F64B7305EE103A279B83ED005A47F233
:105500008233C3F6467305EE103A289B83ED005AAA
:105510004AF60473C3F64A7305EE103A299B83EDED
:10552000005A4CF6CD43C3F64C7305EE103A2A9B55
:1055300083ED005A47F27153C3F64C7305EE103AEF
:105540002B9B83ED005A44F28543C3F64E7305EE60
:10555000103A2C9B9FEDD97A83ED005A2D9B83ED59
:10556000007A2E9B83ED007A2F9B83ED007A309B8F
:1055700083ED007A41F6EF43C3F6C47305EE103AAB
:10558000319B83ED005A45F69243C3F6C87305EE8E
:10559000103A329B83ED005A48F62A73C3F6C6735D
:1055A00005EE103A339B83ED005A4CF24413C3F6D8
:1055B000C67305EE103A349B83ED005A4EF2EB337E
:1055C000C3F6C57305EE103A359B83ED005A45F2DC
:1055D000B453C3F64D7305EE103A369B83ED005A73
:1055E000379B83ED007A4DF69833C3F6497305EE89
:1055F000103A389B83ED005A41F2F033C3F64F73F3
:1056000005EE103A399B83ED005A4BF27873C3F6DE
:105610003E7305EE103A3A9B83ED005A48F68253EA
:10562000C3F6337305EE103A3B9B83ED005A41F607
:105630009363C3F6367305EE103A3C9B83ED005A34
:105640004AF27F23C3F63E7305EE103A3D9B83ED8D
:10565000005A3E9B83ED007A3F9B83ED007A409B8E
:1056600083ED007A49F2AF43C3F6C57307EE103AF3
:10567000419B83ED007A4DF25653C3F6C57305EE98
:10568000103A429B83ED005A42F69113C3F6C7735A
:1056900007EE103A439B83ED007A4EF27123C3F676
:1056A000C57305EE103A449B83ED005A42F6A213EF
:1056B000C3F6B57307EE103A459B83ED007A41F6C9
:1056C0001D43C3F6EC5305EE103A469BDFED7C7AA2
:1056D00083ED005A479BC3ED007A489BC3ED007AE7
:1056E000499BC3ED007A4A9BC3ED007A4B9BC3ED07
:1056F000007A4C9BC3ED007A4D9BC3ED007A4E9B24
:10570000C3ED007A4F9BC3ED007A509BC3ED007A46
:105710004FF26673C3F6C47307EE103A519B83EDE4
:10572000007A4FF25A63C3F6DE7305EE103A529BCD
:1057300083ED005A47F68123C3F6C77307EE103A8C
:10574000539B83ED007A4BF24E43C3F6CB7305EEC9
:10575000103A549B83ED005A44F66F03C3F69D73D1
:1057600007EE103A559B83ED007A569BC3ED007A05
:10577000579BC3ED007A589BC3ED007A599BC3ED4C
:10578000007A5A9BC3ED007A5B9BC3ED007A5C9B69
:10579000C3ED007A5D9BC3ED007A5E9BC3ED007A9A
:1057A0005F9BC3ED007A609BC3ED007A4AF6EF235E
:1057B000C4F2140305EE103A619B83ED005A42F2E5
:1057C000C873C4F25C0307EE103A629B83ED007A63
:1057D00046F2AE23C4F2340305EE103A639B83ED28
:1057E000005A48F24913C4F20F0307EE103A649BC3
:1057F00083ED007A40F6BF53C4F2080305EE103A79
:10580000659B83ED005A4DF25663C3F6987307EE1D
:10581000103A669B83ED007A45F6D603C3F6FA6329
:1058200005EE103A679B83ED005A689BC3ED007A42
:10583000699BC3ED007A6A9BC3ED007A6B9BC3ED55
:10584000007A6C9BC3ED007A6D9BC3ED007A6E9B72
:10585000C3ED007A6F9BC3ED007A709BC3ED007AB5
:1058600044F61933C4F2F60307EE103A719B83ED48
:10587000007A4AF2EC33C4F2BE0305EE103A729B92
:1058800083ED005A46F66963C4F2960307EE103AB8
:10589000739B83ED007A44F2D043C4F2780305EEA3
:1058A000103A749B83ED005A45F6D973C4F246034F
:1058B00007EE103A759B83ED007A07E0295C4F3FB5
:1058C0000000000085EB3140EC5180404CF69243E3
:1058D000C4F2190305EE103A769B83ED005A45F6A3
:1058E000C923C4F21D0307EE103A779B83ED007ABB
:1058F00043F6CD63C3F6E57305EE103A789B83ED6E
:10590000005A43F2B113C4F20C0307EE103A799B2C
:1059100083ED007A4CF25873C4F2040305EE103A9A
:105920007A9B83ED005A43F2B073C3F6AF7307EE70
:10593000103A7B9B83ED007A4CF6A363C3F6A47305
:1059400005EE103A7C9B83ED005A7D9BC3ED007AF7
:105950007E9BC3ED007A7F9BC3ED007A809BC3EDF5
:10596000007A44F2AF73C4F2651307EE103A819BDC
:1059700083ED007A45F65473C4F20B1305EE103A2A
:10598000829B83ED005A4DF63C43C4F2D10307EEEF
:10599000103A839B83ED007A4BF68823C4F2AF0361
:1059A00005EE103A849B83ED005A4CF28323C4F237
:1059B000A30307EE103A859B83ED007A4EF2AC13F9
:1059C000C4F2890305EE103A869B83ED005A4DF62A
:1059D0009373C4F24B0307EE103A879B83ED007A72
:1059E0004BF6B223C4F2550305EE103A889B83EDC3
:1059F000005A48F25963C4F2380307EE103A899B03
:105A000083ED007A4CF61913C4F2350305EE103A13
:105A10008A9B83ED005A42F66243C4F2290307EEE3
:105A2000103A8B9B83ED007A45F26D33C4F220036C
:105A300005EE103A8C9B83ED005A4FF62643C4F2D4
:105A4000120307EE103A8D9B83ED007A8E9BC3ED17
:105A5000007A8F9BC3ED007A909BC3ED007A4FF4E0
:105A60005543C4F2AA1317EE904A07EE903A919B61
:105A7000C3ED007A4AF2DC73C4F2761305EE103AF5
:105A8000929B83ED005A44F20213C4F22F1307EEE7
:105A9000103A939B83ED007A47F6EA03C4F20C13A5
:105AA00007EE903A949BC3ED007A4BF63623C4F28E
:105AB000BB0305EE103A959B83ED005A43F606436F
:105AC000C4F2A10307EE103A969B83ED007A49F6E3
:105AD000C773C4F2A30307EE903A979BC3ED007A15
