:020000040800F2
:1000000000040020B11500087118000851AB010868
:100010007118000831AB010811AB01087118000814
:10002000711800087118000871180008E11800081C
:10003000F1AA01087118000871180008011A0008D7
:10004000711800087118000871180008711800086C
:10005000711800087118000871180008711800085C
:10006000711800087118000871180008613701083C
:10007000A1370108E137010821380108613801087A
:10008000A1380108E138010861430108514801081D
:100090007148010891480108B14801087118000829
:1000A000C165010841650108711800086165010812
:1000B00081650108A1650108416A0108E14B010859
:1000C000514D0108711800087118000871180008D6
:1000D00071180008716E0108916E0108B16E010877
:1000E00071180008711800087118000871180008CC
:1000F00071180008711800087118000821390108EA
:100100007118000871180008616A01087118000868
:10011000711800087118000871180008711800089B
:1001200061390108A1390108E1390108213A0108C2
:10013000613A01087118000871180008D1480108D7
:10014000F14801081149010831490108C157010866
:10015000A13A0108E13A0108213B010871180008A1
:10016000711800087118000871180008711800084B
:10017000711800087118000871180008711800083B
:08018000711800087118000855
:1001900081F0004102E000BF83F0004330B54FEA38
:1001A00041044FEA430594EA050F08BF90EA020FA5
:1001B0001FBF54EA000C55EA020C7FEA645C7FEA38
:1001C000655C00F0E2804FEA5454D4EB5555B8BF5B
:1001D0006D420CDD2C4480EA020281EA030382EACC
:1001E000000083EA010180EA020281EA0303362D5E
:1001F00088BF30BD11F0004F4FEA01314FF4801C31
:100200004CEA113102D0404261EB410113F0004F42
:100210004FEA03334CEA133302D0524263EB4303F9
:1002200094EA050F00F0A780A4F10104D5F1200E97
:100230000DDB02FA0EFC22FA05F2801841F10001F2
:1002400003FA0EF2801843FA05F359410EE0A5F1C6
:1002500020050EF1200E012A03FA0EFC28BF4CF0F7
:10026000020C43FA05F3C01851EBE37101F00045AD
:1002700007D54FF0000EDCF1000C7EEB00006EEBBA
:100280000101B1F5801F1BD3B1F5001F0CD3490844
:100290005FEA30004FEA3C0C04F101044FEA44529B
:1002A00012F5800F80F09A80BCF1004F08BF5FEA22
:1002B000500C50F1000041EB045141EA050130BD02
:1002C0005FEA4C0C404141EB010111F4801FA4F1A5
:1002D0000104E9D191F0000F04BF01460020B1FAFA
:1002E00081F308BF2033A3F10B03B3F120020CDA32
:1002F0000C3208DD02F1140CC2F10C0201FA0CF010
:1003000021FA02F10CE002F11402D8BFC2F1200C74
:1003100001FA02F120FA0CFCDCBF41EA0C0190402A
:10032000E41AA2BF01EB0451294330BD6FEA040473
:100330001F3C1CDA0C340EDC04F11404C4F120025E
:1003400020FA04F001FA02F340EA030021FA04F370
:1003500045EA030130BDC4F10C04C4F1200220FAC7
:1003600002F001FA04F340EA0300294630BD21FA05
:1003700004F0294630BD94F0000F83F4801306BFCB
:1003800081F480110134013D4EE77FEA645C18BFBF
:100390007FEA655C29D094EA050F08BF90EA020F56
:1003A00005D054EA000C04BF1946104630BD91EA4E
:1003B000030F1EBF0021002030BD5FEA545C05D151
:1003C0004000494128BF41F0004130BD14F5800490
:1003D0003CBF01F5801130BD01F0004545F0FE4104
:1003E00041F470014FF0000030BD7FEA645C1ABF39
:1003F000194610467FEA655C1CBF0B46024650EA70
:10040000013406BF52EA033591EA030F41F400219B
:1004100030BD00BF90F0000F04BF0021704730B521
:100420004FF4806404F132044FF000054FF00001F6
:1004300050E700BF90F0000F04BF0021704730B5B7
:100440004FF4806404F1320410F0004548BF40428C
:100450004FF000013EE700BF42004FEAE2014FEAE1
:1004600031014FEA02701FBF12F07F4393F07F4FBC
:1004700081F06051704792F0000F14BF93F07F4FEE
:10048000704730B54FF4607401F0004521F0004131
:1004900020E700BF50EA010208BF704730B54FF0B7
:1004A00000050AE050EA010208BF704730B511F0BC
:1004B000004502D5404261EB41014FF4806404F1F4
:1004C00032045FEA915C3FF4DCAE4FF003025FEA76
:1004D000DC0C18BF03325FEADC0C18BF033202EBFE
:1004E000DC02C2F1200300FA03FC20FA02F001FA58
:1004F00003FE40EA0E0021FA02F11444C1E600BFF7
:1005000070B54FF0FF0C4CF4E06C1CEA11541DBFA9
:100510001CEA135594EA0C0F95EA0C0F00F0DEF874
:100520002C4481EA030621EA4C5123EA4C5350EA59
:10053000013518BF52EA033541F4801143F48013AA
:1005400038D0A0FB02CE4FF00005E1FB02E506F03B
:100550000042E0FB03E54FF00006E1FB03569CF090
:10056000000F18BF4EF0010EA4F1FF04B6F5007F96
:1005700064F5407404D25FEA4E0E6D4146EB060608
:1005800042EAC62141EA55514FEAC52040EA5E5091
:100590004FEACE2EB4F1FD0C88BFBCF5E06F1ED83B
:1005A000BEF1004F08BF5FEA500E50F1000041EB72
:1005B000045170BD06F0004646EA010140EA02001F
:1005C00081EA0301B4EB5C04C2BFD4EB0C0541EA41
:1005D000045170BD41F480114FF0000E013C00F356
:1005E000AB8014F1360FDEBF002001F0004170BD7A
:1005F000C4F10004203C35DA0C341BDC04F1140493
:10060000C4F1200500FA05F320FA04F001FA05F21E
:1006100040EA020001F0004221F0004110EBD370EB
:1006200021FA04F642EB06015EEA430E08BF20EA17
:10063000D37070BDC4F10C04C4F1200500FA04F3BA
:1006400020FA05F001FA04F240EA020001F000414C
:1006500010EBD37041F100015EEA430E08BF20EABF
:10066000D37070BDC4F1200500FA05F24EEA020E07
:1006700020FA04F301FA05F243EA020321FA04F036
:1006800001F0004121FA04F220EA020000EBD370ED
:100690005EEA430E08BF20EAD37070BD94F0000FED
:1006A0000FD101F00046400041EB010111F4801F21
:1006B00008BF013CF7D041EA060195F0000F18BFD2
:1006C000704703F00046520043EB030313F4801F0E
:1006D00008BF013DF7D043EA0603704794EA0C0FC8
:1006E0000CEA135518BF95EA0C0F0CD050EA4106DE
:1006F00018BF52EA4306D1D181EA030101F000415B
:100700004FF0000070BD50EA410606BF1046194682
:1007100052EA430619D094EA0C0F02D150EA01368E
:1007200013D195EA0C0F05D152EA03361CBF1046CF
:1007300019460AD181EA030101F0004141F0FE416E
:1007400041F470014FF0000070BD41F0FE4141F4F2
:10075000780170BD70B54FF0FF0C4CF4E06C1CEAF2
:1007600011541DBF1CEA135594EA0C0F95EA0C0FA7
:1007700000F0A7F8A4EB050481EA030E52EA033562
:100780004FEA013100F088804FEA03334FF0805583
:1007900045EA131343EA12634FEA022245EA1115B0
:1007A00045EA10654FEA00260EF000419D4208BF61
:1007B000964244F1FD0404F5407402D25B084FEA0E
:1007C0003202B61A65EB03055B084FEA32024FF4BA
:1007D00080104FF4002CB6EB020E75EB030E22BF17
:1007E000B61A754640EA0C005B084FEA3202B6EBD7
:1007F000020E75EB030E22BFB61A754640EA5C0086
:100800005B084FEA3202B6EB020E75EB030E22BF15
:10081000B61A754640EA9C005B084FEA3202B6EB16
:10082000020E75EB030E22BFB61A754640EADC00D5
:1008300055EA060E18D04FEA051545EA16754FEA37
:1008400006164FEAC30343EA52734FEAC2025FEA55
:100850001C1CC0D111F4801F0BD141EA00014FF0E4
:1008600000004FF0004CB6E711F4801F04BF0143B5
:100870000020B4F1FD0C88BFBCF5E06F3FF6AFAED1
:10088000B5EB030C04BFB6EB020C5FEA500C50F161
:10089000000041EB045170BD0EF0004E4EEA1131E4
:1008A00014EB5C04C2BFD4EB0C0541EA045170BDEB
:1008B00041F480114FF0000E013C90E645EA060E2F
:1008C0008DE60CEA135594EA0C0F08BF95EA0C0F5D
:1008D0003FF43BAF94EA0C0F0AD150EA01347FF4A5
:1008E00034AF95EA0C0F7FF425AF104619462CE77C
:1008F00095EA0C0F06D152EA03353FF4FDAE1046DF
:10090000194622E750EA410618BF52EA43067FF42F
:10091000C5AE50EA41047FF40DAF52EA43057FF4BF
:10092000EBAE12E700000000000000000000000035
:100930004FF0FF3C06E000BF4FF0010C02E000BFAB
:100940004FF0010C4DF804CD4FEA410C7FEA6C5C8E
:100950004FEA430C18BF7FEA6C5C1BD001B050EA31
:10096000410C0CBF52EA430C91EA030F02BF90EA1C
:10097000020F0020704710F1000F91EA030F58BFDB
:10098000994208BF90422CBFD8176FEAE37040F03D
:10099000010070474FEA410C7FEA6C5C02D150EADB
:1009A000013C07D14FEA430C7FEA6C5CD6D152EA96
:1009B000033CD3D05DF8040B704700BF844610465B
:1009C00062468C461946634600E000BF01B5FFF75A
:1009D000B7FF002848BF10F1000F01BD4DF808ED2A
:1009E000FFF7F4FF0CBF012000205DF808FB00BFFB
:1009F0004DF808EDFFF7EAFF34BF012000205DF855
:100A000008FB00BF4DF808EDFFF7E0FF94BF0120A1
:100A100000205DF808FB00BF4DF808EDFFF7CEFFA2
:100A200094BF012000205DF808FB00BF4DF808EDE1
:100A3000FFF7C4FF34BF012000205DF808FB00BFB2
:100A40004FEA410212F5001215D211D56FF47873F6
:100A5000B3EB625212D94FEAC12343F0004343EA99
:100A6000505311F0004F23FA02F018BF4042704774
:100A70004FF00000704750EA013005D111F00040FE
:100A800008BF6FF0004070474FF00000704700BF94
:100A90004FEA4102B2F1E04324BFB3F5001CDCF1A0
:100AA000FE5C0DD901F0004C4FEAC0024CEA5070D8
:100AB000B2F1004F40EB830008BF20F00100704707
:100AC00011F0804F21D113F13872BCBF01F000400A
:100AD000704741F480114FEA5252C2F11802C2F13C
:100AE000200C10FA0CF320FA02F018BF40F00100BD
:100AF0004FEAC1234FEAD32303FA0CFC40EA0C006F
:100B000023FA02F34FEA4303CCE77FEA625307D1AB
:100B100050EA01331EBF4FF0FE4040F440007047E2
:100B200001F0004040F0FE4040F40000704700BF7C
:100B300080F0004002E000BF81F0004142001FBF92
:100B40005FEA410392EA030F7FEA226C7FEA236C9B
:100B50006AD04FEA1262D2EB1363C1BFD218414090
:100B600048404140B8BF5B42192B88BF704710F026
:100B7000004F40F4000020F07F4018BF404211F0C9
:100B8000004F41F4000121F07F4118BF494292EA31
:100B9000030F3FD0A2F1010241FA03FC10EB0C005D
:100BA000C3F1200301FA03F100F0004302D54942EA
:100BB00060EB4000B0F5000F13D3B0F1807F06D397
:100BC00040084FEA310102F10102FE2A51D2B1F18F
:100BD000004F40EBC25008BF20F0010040EA030084
:100BE0007047490040EB000010F4000FA2F1010231
:100BF000EDD1B0FA80FCACF1080CB2EB0C0200FABB
:100C00000CF0AABF00EBC25052421843BCBFD04008
:100C10001843704792F0000F81F4000106BF80F482
:100C200000000132013BB5E74FEA41037FEA226C45
:100C300018BF7FEA236C21D092EA030F04D092F010
:100C4000000F08BF0846704790EA010F1CBF002044
:100C5000704712F07F4F04D1400028BF40F00040A1
:100C6000704712F100723CBF00F50000704700F0C1
:100C7000004343F0FE4040F4000070477FEA2262E8
:100C800016BF08467FEA23630146420206BF5FEAB9
:100C9000412390EA010F40F4800070474FF00003B9
:100CA00004E000BF10F0004348BF40425FEA000C80
:100CB00008BF704743F0964301464FF000001CE028
:100CC00050EA010208BF70474FF000030AE000BF7E
:100CD00050EA010208BF704711F0004302D54042BC
:100CE00061EB41015FEA010C02BF8446014600202E
:100CF00043F0B64308BFA3F18053A3F50003BCFA49
:100D00008CF2083AA3EBC25310DB01FA02FC6344F5
:100D100000FA02FCC2F12002BCF1004F20FA02F2FC
:100D200043EB020008BF20F00100704702F12002EF
:100D300001FA02FCC2F1200250EA4C0021FA02F250
:100D400043EB020008BF20EADC707047000000009F
:100D500073B96AB9002908BF0028BCBF00204FF052
:100D60000041C4BF6FF000414FF0FF3000F0C8B841
:100D700082B0EC462DE9005000F092F8DDF804E076
:100D800002B00CBC704700BF000000000000000073
:100D900010B50021044600F029F920B92046BDE82D
:100DA000104000F02DB804F1004000F029F8424254
:100DB00061EB41031046194610BD00BF0000000062
:100DC00038B50022002305460C46FFF711FE28B96E
:100DD00028462146BDE8384000F03AB8284604F1DC
:100DE000004100F035F8424261EB410310461946DC
:100DF00038BD00BF0000000000000000000000003F
:100E000070B5FFF729FB00230022C3F6F053044618
:100E10000D46FFF775FB00F07BF80646FFF7FAFA80
:100E200000230022C4F2F013FFF76AFB02460B46D0
:100E300020462946FFF7B0F900F06AF80022024385
:100E40001046314670BD00BF0000000000000000E9
:100E5000002370B50022C3F6F05304460D46FFF799
:100E60004FFB00F055F80646FFF7D4FA00230022A6
:100E7000C4F2F013FFF744FB02460B462046294616
:100E8000FFF78AF900F044F8002202431046314689
:100E900070BD00BF00000000000000000000000066
:100EA000F8B5164604460D461F4600F0C9F806FB85
:100EB00001F300FB0737A6FB0023FB18A21A65EB22
:100EC0000303069CC4E90023F8BD00BFF8B516462D
:100ED00004460D461F4600F013FA00FB07F7A0FB7F
:100EE000062306FB0177FB18A21A65EB0303069C99
:100EF000C4E90023F8BD00BF0000000000000000AE
:100F0000704700BF0000000000000000000000006B
:100F10004A0011D212F5001211D20DD56FF4787378
:100F2000B3EB62520ED44FEAC12343F0004343EACD
:100F3000505323FA02F070474FF00000704750EA18
:100F4000013002D14FF0FF3070474FF00000704782
:100F50004FF0FF3C06E000BF4FF0010C02E000BF85
:100F60004FF0010C4DF804CD4FEA40024FEA410327
:100F70007FEA226C18BF7FEA236C11D001B052EADD
:100F8000530C18BF90EA010F58BFB2EB030088BFA3
:100F9000C81738BF6FEAE17018BF40F00100704712
:100FA0007FEA226C02D15FEA402C05D17FEA236CF4
:100FB000E4D15FEA412CE1D05DF8040B704700BF3B
:100FC000844608466146FFE70FB5FFF7C9FF0028D2
:100FD00048BF10F1000F0FBD4DF808EDFFF7F4FF0B
:100FE0000CBF012000205DF808FB00BF4DF808EDA4
:100FF000FFF7EAFF34BF012000205DF808FB00BFC7
:101000004DF808EDFFF7E0FF94BF012000205DF8E8
:1010100008FB00BF4DF808EDFFF7D2FF94BF012099
:1010200000205DF808FB00BF4DF808EDFFF7C8FF92
:1010300034BF012000205DF808FB00BF0000000065
:1010400000292DE9F00F1D46C0F29D800024002DDF
:10105000C0F2948080460F4694461E46E3BB8A4207
:1010600055D9B2FA82F747B1C7F1200520FA05F643
:1010700001FA07F1BA403143B840170CB1FBF7F65B
:10108000030C1FFA82FC07FB16110CFB06F543EA62
:1010900001439D4208D9711E9B1880F013819D4227
:1010A00040F21081023E9B18591BB1FBF7F507FB7C
:1010B000151380B20CFB05FC40EA03418C4507D9AF
:1010C0006B1E8A1880F00081944540F2FD80023D3D
:1010D00045EA0641002503E08B420CD9002529464C
:1010E0000A462B4614B1524263EB4303104619469D
:1010F000BDE8F00F7047B3FA83F5002D40F087800C
:101100008B4201D38242EAD800250121E8E712B9D7
:101110000126B6FBF2F2B2FA82F6002E39D18E1A0F
:10112000130C1FFA82FC0125B6FBF3F703FB1761D2
:101130004FEA10490CFB07F849EA0146B04506D9C9
:10114000791EB61802D2B04500F2D3800F46C8EB24
:101150000606B6FBF3F103FB116380B20CFB01FC46
:1011600040EA03439C4506D94E1E9A1802D2944584
:1011700000F2C280314641EA0741B1E7E4435242FE
:1011800063EB430366E7404261EB41014FF0FF34FC
:101190005DE7B240C6F1200921FA09F720FA09F506
:1011A000130C01FA06F1B7FBF3F845EA01091FFA3F
:1011B00082FC03FB18774FEA19410CFB08F541EA62
:1011C0000747B040BD420AD9BF1808F1FF3680F08A
:1011D0008E80BD4240F28B80A8F10208BF18791BB7
:1011E000B1FBF3F503FB15171FFA89F90CFB05F6A4
:1011F00049EA07418E4206D96F1E891871D28E4284
:101200006FD9023D89188E1B45EA08458CE7C5F168
:10121000200122FA01F306FA05F61E4327FA01F22D
:101220004FEA164907FA05F720FA01F1B2FBF9F87F
:101230000F433B0C1FFA86FA09FB18220AFB08FB36
:1012400043EA024293450CFA05FC08D9921908F1C9
:10125000FF314AD2934548D9A8F102089219CBEB45
:101260000203B3FBF9F109FB1132BFB20AFB01FA29
:1012700047EA02439A4506D94A1E9B1933D29A453A
:1012800031D902399B1941EA08410F0C1FFA8CF839
:1012900008FB07F68AB24FEA1C4C08FB02F80CFB6D
:1012A000026202EB18420CFB07FC964288BF0CF569
:1012B000803CCAEB03030CEB124C63450ED305D004
:1012C00000250DE70E46EFE61D4601E71FFA88F8F8
:1012D00000FA05F008EB0245A842F1D201390025D9
:1012E000FEE63D468FE71146CDE78846B7E7B046B4
:1012F00075E7023FB6182AE702393CE70000000014
:101300002DE9F007144605460E46002B3DD18A42D2
:1013100049D9B2FA82F747B1C7F1200120FA01F2A8
:1013200006FA07F6BC401643BD40220CB6FBF2F0AD
:101330002F0CA1B202FB106601FB00F347EA064640
:10134000B34208D9471E361980F0F880B34240F204
:10135000F58002383619F61AB6FBF2F302FB136277
:10136000ADB201FB03F145EA0242914207D95E1E8C
:10137000121980F0E580914240F2E280023B43EA9C
:1013800000400021BDE8F00770478B4243D8B3FA14
:1013900083F4002C42D18B4202D3824200F2DF80E0
:1013A00000210120EEE712B90127B7FBF2F4B4FAED
:1013B00084F2002A40F088800A1B230CA7B2012186
:1013C000B2FBF3F603FB16224FEA154C07FB06F0BF
:1013D0004CEA0242904207D9121906F1FF3C02D2B0
:1013E000904200F2CE806646121AB2FBF3F003FB85
:1013F0001023ADB207FB00F745EA03439F4207D92C
:10140000421E1B1980F09E809F4240F29B80023852
:1014100040EA0640B6E700210846B3E7C4F12006DB
:1014200022FA06F503FA04F32B434FEA134C21FA90
:1014300006F501FA04F120FA06F6B5FBFCF746EAD8
:10144000010A1FFA83F80CFB17554FEA1A4108FBF3
:1014500007F941EA0545A94502FA04F203D97E1EBF
:10146000ED187FD33746C9EB0501B1FBFCF60CFB49
:1014700016151FFA8AFA08FB06F84AEA054188455C
:1014800003D9751EC91873D32E4646EA0746370C92
:101490001FFA82FC0CFB07F5120CB3B20CFB03FC29
:1014A00002FB035303EB1C4302FB07F29D4288BF80
:1014B00002F58032C8EB010102EB134291424BD39B
:1014C00042D0304600215DE79440C2F1200521FA68
:1014D00005F6230C20FA05F701FA02F1B6FBF3FC3E
:1014E00039430D0CA7B203FB1C6645EA064607FB11
:1014F0000CF8B04500FA02F508D936190CF1FF30A6
:101500003DD2B0453BD9ACF1020C3619C8EB06020E
:10151000B2FBF3F003FB10268AB242EA064207FB55
:1015200000F1914206D9461E121926D2914224D9C1
:1015300002381219521A40EA0C4141E738460AE7CC
:1015400033461CE7104663E71FFA8CFC00FA04F0F0
:101550000CEB03439842B4D2701E002112E72146DF
:1015600020460FE7A9457FF67DAF023FED187AE7E9
:10157000884589D9023EC91887E73046DAE78446AC
:10158000C4E7023E12192FE700000000000000002F
:10159000704700BFAFF30080AFF30080AFF300806F
:1015A000FEE700BFAFF30080AFF30080AFF3008031
:1015B00072B640F60004C2F2000484F309884EF6C5
:1015C0003473CEF200034FF040421A604EF688505A
:1015D000CEF20000016841F4700303604FF0000296
:1015E000E1EE102A4EF63C70CEF2000002604FF0A1
:1015F000060181F31488BFF36F8F8E4B8E4A9A4297
:101600001FD2A2F104038D48C11A21F0030240F257
:101610000000C2F2000010184FF05531C21AA2F1BA
:101620000402C2F3800243F8041F834240F0F880B2
:1016300007E003F10402596003F10803516083429B
:10164000F7D17F4B7F48984220D2A0F10403E41ADF
:10165000A4F1050424F0030440F20041C2F20001A9
:1016600060184FF05531C21AA2F10402C2F3800291
:1016700043F8041F834240F0CA8007E003F10402EC
:10168000596003F1080351608342F7D115F0D8FC8B
:101690006D4B6E48984225D200F104056C4C611BDD
:1016A00021F003004FF0000340F60002C2F20002F6
:1016B00042F6D031C0F6020100F10404C0F380000C
:1016C0005D589D5003F10403A34240F0958009E06A
:1016D0005858985003F104035858985003F10403E4
:1016E000A342F5D15B4B5C4A9A421ED2A2F104039D
:1016F0005A49C81A20F0030243F2B821C2F200018D
:1017000050184FF00001C21AA2F10402C2F3800285
:1017100043F8041F834268D107E003F104025960D3
:1017200003F1080351608342F7D1FFF731FF4C4BBF
:101730004C4898421ED2A0F10404A3F105031E1BDD
:101740004FEA960505F1010705F0010654F8041F5C
:1017500088474FF00105BD423DD10BE004F104067E
:101760006368984704F108047068804705F1020532
:10177000BD42F3D119F02CFA3B493C4A8A421ED2B1
:10178000A2F10404A1F105010F1B4FEA970606F12F
:10179000010706F0010654F8045FA8474FF0010561
:1017A000BD420ED10BE004F104066068804704F1ED
:1017B00008047168884705F10205BD42F3D1FFF7BF
:1017C000EFFE002EEFD054F8043F984705F10105D5
:1017D000BD42E8D1F3E7002EC0D054F8042F904763
:1017E00005F10105BD42B9D1C4E7002A95D043F8FF
:1017F000041F834291D198E700283FF469AF5858FD
:10180000985003F10403A3427FF462AF6AE7002A11
:101810003FF434AF43F8041F83427FF42FAF35E722
:10182000002A3FF406AF43F8041F83427FF401AF60
:1018300007E700BF0004002000000020FB03002099
:101840000008002000040020FC0D002000080020FB
:10185000FF0D002030920120B83200202B92012091
:101860008801000888010008880100088801000834
:10187000FEE700BFAFF30080AFF30080AFF300805E
:10188000F8B5074643F2B826C2F2000634464EF2D7
:101890003005C0F601050FCD0FC42B68237030460C
:1018A000B9691BF045FD30464EF24401C0F6010116
:1018B0004FF02E0200F0ECF9F8BD00BFAFF300804E
:1018C00072B6FEE7AFF30080AFF30080AFF30080A5
:1018D00000F016FB00F04CFD00F0EAFA00DF00BF5C
:1018E000EFF30982D2F8CC104EF63073CEF200033B
:1018F0005960986800F16800986002F1680282F30C
:1019000009884FF0000383F311887047AFF300801C
:1019100008B54FF46D43CEF200034FF000029A6019
:101920004FF44070C0F2FA50D8604FF007004FF00B
:10193000100100F0F5F84FF00A004FF4007100F0CC
:10194000EFF84FF00B004FF0800100F0E9F808BD10
:101950004FF0200383F311884FF46D43CEF2000360
:10196000586810F4006F42D0EFF30983A3F16802C6
:1019700082F309884FF0807143F84C1C40F29810B4
:10198000C1F20000826992F8231059B140F2981117
:10199000C1F20001086881689268914294BF0022F8
:1019A00001220AE040F29810C1F200000168886844
:1019B0009268904234BF0022012242B141F6D10028
:1019C000C0F6000043F8500CF1EE10FA05E041F6C5
:1019D000DC02C0F6000243F8502C4EF63072CEF214
:1019E00000025168596641F00103536070474FF09F
:1019F000000383F311887047AFF30080AFF30080DA
:101A000008B500F0D5F94FF0200383F3118800F0FA
:101A100027FA00F0F5F800F0FBF94FF0000383F32C
:101A2000118800F095F9FFF793FF08BDAFF3008030
:101A30002DE9F04F2DED108AC1F80CD0D0F80CD064
:101A4000BDEC108ABDE8F08FAFF30080AFF30080EB
:101A500008B500F02DFA4FF0000383F311882846F3
:101A6000A04700F075FD08BDAFF30080AFF3008024
:101A700070B44FEA90024FF46143CEF2000302F1DA
:101A8000C00253F8226000F003044FEAC4044FF090
:101A9000FF0505FA04F526EA050501FA04F10D43F0
:101AA00043F822504FEA501200F01F004FF001019E
:101AB00001FA00F002F1600143F8210043F822002E
:101AC00070BC7047AFF30080AFF30080AFF30080CD
:101AD00010B44FEA501200F01F034FF0010101FA59
:101AE00003F14FF46143CEF2000302F1200243F808
:101AF00022104FEA900202F1C00253F8221000F0C7
:101B000003004FEAC0004FF0FF0404FA00F021EA9E
:101B1000000143F8221010BC704700BFAFF30080F3
:101B200030B44FEA90024FF46D43CEF2000302F15D
:101B3000060253F8225000F003004FEAC0004FF0B5
:101B4000FF0404FA00F425EA040401FA00F10C434E
:101B500043F8224030BC7047AFF30080AFF3008001
:101B600040F29813C1F2000398694EF27002C0F679
:101B700001028261FEE700BFAFF30080AFF3008097
:101B800030B583B0FFF7C4FE00F082FA00F000FA2F
:101B900001F04EF901F09CF940F20000C1F20000A2
:101BA0004FF0400100F0F4FB40F29815C1F200053F
:101BB000A8614FF0010480F8204040F20043C2F2D7
:101BC0000003C36100F0C4F94FF0000383F31188F0
:101BD00062B6AA694EF21031C0F60101916100931C
:101BE00040F25000C1F200004FF4A471224641F6C9
:101BF0006133C0F6000300F02BFC03B030BD00BF22
:101C00002DE9F04100F084F840F29813C1F200038E
:101C1000986990F823201AB102F1FF3180F823105F
:101C2000436A03F10103436240F2B410C1F20000C1
:101C3000C26802F10102C2600168814224D08C684E
:101C400004F1FF338B600C468A68EAB94FF0000656
:101C500040F2B415C1F200054FF02008E768E660D5
:101C600021684D6023682B6000F0D2F8334683F37F
:101C700011882069B847434683F3118800F0F0F8D3
:101C80002C68A0680028E9D0BDE8F081AFF300809F
:101C900070B506460D46144605F002FC98B943F2AD
:101CA0008033C2F200031D6043F28830C2F20000AC
:101CB000046043F29031C2F200010E6030462946C2
:101CC000224618F0EDFE70BDAFF30080AFF3008048
:101CD00008B543F28433C2F20003186830B943F206
:101CE0008C31C2F200010A68002A0BDC4EF280003F
:101CF000C0F601004EF28801C0F601014FF0D20299
:101D0000FFF7C6FF08BD00BFAFF30080AFF3008050
:101D100008B543F28433C2F200031868002806DBDA
:101D200043F28C31C2F200010A68002A0BDC4EF249
:101D3000A800C0F601004EF28801C0F601014FF084
:101D4000C402FFF7A5FF08BDAFF30080AFF300802A
:101D500008B54FF0200383F3118843F28433C2F2B5
:101D600000031868002805DD43F28C31C2F200013F
:101D70000A685AB14EF2CC00C0F601004EF288015A
:101D8000C0F601014FF0B402FFF782FF43F2843343
:101D9000C2F20003186800F1FF3119604FF0000330
:101DA00083F3118808BD00BFAFF30080AFF300805C
:101DB00008B54FF0200383F3118843F28433C2F255
:101DC00000031868002805DB43F28C31C2F20001E1
:101DD0000A685AB14EF2D400C0F601004EF28801F2
:101DE000C0F601014FF0A602FFF752FF43F2843321
:101DF000C2F20003186800F1010018604FF0000300
:101E000083F3118808BD00BFAFF30080AFF30080FB
:101E100008B543F28433C2F200031868002806DDD7
:101E200043F28C31C2F200010A68002A0BDC4EF248
:101E3000DC00C0F601004EF28801C0F601014FF04F
:101E40009902FFF725FF43F28C33C2F200034FF0F3
:101E50000000186008BD00BFAFF30080AFF3008042
:101E600008B543F28433C2F200031868002805DD88
:101E700043F28C31C2F200010A685AB14EF2E4001A
:101E8000C0F601004EF28801C0F601014FF08D024C
:101E9000FFF7FEFE43F28C33C2F200034FF0010065
:101EA000186008BDAFF30080AFF30080AFF300808F
:101EB00008B543F28433C2F20003186830B943F224
:101EC0008C31C2F200010A68002A0BDC4EF20410C9
:101ED000C0F601004EF28801C0F601014FF0810208
:101EE000FFF7D6FE43F28C33C2F200034FF000003E
:101EF000186008BDAFF30080AFF30080AFF300803F
:101F000008B543F28433C2F20003186828B943F2DB
:101F10008C31C2F200010A685AB14EF20C10C0F6C0
:101F200001004EF28801C0F601014FF07502FFF783
:101F3000AFFE43F28C33C2F200034FF00100186091
:101F400008BD00BFAFF30080AFF30080AFF30080A7
:101F500008B543F28433C2F20003186828B943F28B
:101F60008C31C2F200010A685AB14EF22810C0F654
:101F700001004EF28801C0F601014FF06A02FFF73E
:101F800087FE08BDAFF30080AFF30080AFF30080A1
:101F900040F2B413C1F200035B601B604FF0FF32EC
:101FA0009A604FF00000D860704700BFAFF3008028
:101FB000F8B505460C4616461F46FFF7A9FE0DB1BB
:101FC00006B15CB94EF24010C0F601004EF250115D
:101FD000C0F601014FF05102FFF75AFE2F61EE608B
:101FE00040F2B413C1F2000318688268944204D925
:101FF000A41A00688268A242FAD328604168696026
:1020000045600D60AC6040F2B413C1F20003984229
:1020100002D08268141B8460F8BD00BFAFF300805B
:1020200010B50446FFF774FE5CB94EF27010C0F6AE
:1020300001004EF25011C0F601014FF06D02FFF7A2
:1020400027FEE3685BB94EF28010C0F601004EF245
:102050005011C0F601014FF07002FFF719FE206821
:1020600040F2B412C1F20002904203D08168A3682A
:10207000CA188260606821680160236862685A60DB
:102080004FF00000E06010BDAFF30080AFF30080C0
:1020900040F29813C1F200035B601B604FF0000236
:1020A0009A605B611B617047AFF30080AFF3008003
:1020B00010B50446FFF72CFE94F820300BB10E2B20
:1020C0000BD14EF2A010C0F601004EF2B411C0F6D2
:1020D00001014FF05A02FFF7DBFD4FF0000084F8DA
:1020E0002000A16840F29813C1F200031B689A68AF
:1020F0008A42FBD22360586860605C6004602046BE
:1021000010BD00BFAFF30080AFF30080AFF30080DD
:1021100010B504464FF0200383F31188FFF7A0FEAB
:1021200094F820300D2B1AD8DFE803F00719190EA8
:1021300019131919191919191913FFF769FE4FF015
:10214000000383F3118810BDA06A826802F10102C6
:102150008260616823680B602068626842604FF0AB
:10216000FF31A1622046FFF7A3FFFFF751FE4FF0BA
:10217000000383F3118810BDAFF30080AFF300803C
:1021800038B50546FFF7A4FD40F29813C1F20003ED
:102190009C6984F820504FF0140284F823201868BA
:1021A000016819604B6098614FF0010380F820309E
:1021B000ADF16402E069904202D92046FFF760FB6E
:1021C00040F29811C1F2000188692146FFF730FC06
:1021D00038BD00BFAFF30080AFF30080AFF30080E5
:1021E00030B587B005460C46FFF772FDB4F1FF3FEE
:1021F00015D001A8214642F21112C0F6000240F2A9
:102200009813C1F200039B69FFF7D2FE2846FFF73F
:10221000B7FF049830B101A8FFF702FF02E028469B
:10222000FFF7AEFF40F29811C1F200018A69906A8F
:1022300007B030BDAFF30080AFF30080AFF3008094
:1022400038B504460D46FFF743FDA56240F29813EA
:10225000C1F200039869A26881688A4203D82046C7
:10226000FFF726FF38BDFFF723FF054640F2981021
:10227000C1F2000084614FF0010384F82030ADF119
:102280006402E969914202D92846FFF7F9FA20462B
:102290002946FFF7CDFB38BDAFF30080AFF30080D8
:1022A00010B540F29813C1F200039C691A681168D6
:1022B00019604B609A614FF0010082F820004FF0E6
:1022C000140384F823302046FFF7F2FEADF16402D8
:1022D000E169914202D92046FFF7D2FA40F2981004
:1022E000C1F2000080692146FFF7A2FB10BD00BFCC
:1022F00010B540F29813C1F200039C691A68116886
:1023000019604B609A614FF0010082F820004FF095
:10231000000284F82020A1681B6898688842FBD8D6
:1023200023605A6862605C601460ADF16401E36927
:102330008B4202D92046FFF7A3FA40F29810C1F26F
:10234000000080692146FFF773FB10BDAFF30080EA
:1023500008B5FFF7BDFC40F29813C1F200031A68FC
:10236000986991688368994201D9FFF7C1FF08BD58
:1023700008B540F29813C1F20003986990F8231051
:1023800011B9FFF78DFF08BDFFF7B2FF08BD00BF11
:1023900010B481604FF0020280F820204FF000025C
:1023A00080F821204FF0140480F823404164026437
:1023B000C26342624FF0010180F82210826140F254
:1023C0009812C1F2000202615169416150610861D5
:1023D00000F12C02C26200F130014163016300F19F
:1023E0004C02C26110BC7047AFF30080AFF30080B5
:1023F000F8B504460D4616461F46FFF789FC2CB17A
:10240000B5F59C7F02D37F2E00D85FB94EF2E01065
:10241000C0F601004EF2F411C0F601014FF0A60221
:10242000FFF736FCA5F164002118E1600F64E36852
:10243000069A5A64E06841F65121C0F6000101662F
:1024400020463146FFF7A4FFF8BD00BFAFF3008080
:10245000F0B583B007460E4615461C464FF02003E4
:1024600083F31188FFF74CFD089B009338463146F3
:102470002A462346FFF7BCFF04464FF00001FFF752
:10248000DFFEFFF715FD4FF0000383F311882046B0
:1024900003B0F0BDAFF30080AFF30080AFF3008076
:1024A00010B5044658B94EF24420C0F601004EF271
:1024B000F411C0F601014FF49372FFF7E9FB4FF0FE
:1024C000200383F31188FFF71BFD4FF00600214620
:1024D000FFF786FEFFF7ECFC4FF0000383F3118853
:1024E00010BD00BFAFF30080AFF30080AFF30080FA
:1024F00038B540F29813C1F200039C69A0622546EA
:1025000055F82C0FA84206D00168E162FFF7D0FD14
:10251000E06AA842F8D194F8210010F0030F05D129
:10252000636922691A612169606948614FF00E0090
:10253000FFF726FE4EF25420C0F601004EF2F411D1
:10254000C0F6010140F28112FFF7A2FB38BD00BFC7
:1025500010B504464FF0200383F31188FFF7D0FC39
:102560002046FFF7C5FF10BDAFF30080AFF300803A
:1025700038B504464FF0200383F31188FFF7C0FC01
:1025800094F822305BB94EF2D820C0F601004EF22A
:10259000B421C0F601014FF04E02FFF779FB94F829
:1025A000225005F1FF30C5B284F82250FFF780FCBD
:1025B0004FF0000383F3118805BB94F820100E2917
:1025C0001CD194F8212002F00303012B02D0022B2E
:1025D00014D109E0606921690161236962695A6166
:1025E000204600F0D5FC38BD60692169016123698E
:1025F00062695A61A06C214600F04AFD38BD00BFF7
:1026000010B54FF0200383F31188FFF779FC40F2F7
:102610009813C1F200031C6994F8220000F1010034
:1026200084F82200FFF744FC4FF0000383F3118885
:10263000204610BDAFF30080AFF30080AFF3008001
:1026400038B505464FF0200383F31188FFF758FC97
:102650002C6940F29813C1F200039C4216D094F802
:102660002200FF280BD14EF23030C0F601004EF2AE
:102670004831C0F601014FF09602FFF709FB94F8CC
:10268000221001F1010184F8221001E04FF0000452
:10269000FFF70EFC4FF0000383F311882846FFF785
:1026A00067FF204638BD00BFAFF30080AFF3008066
:1026B00038B50D46044608B100290BDA4EF27030E9
:1026C000C0F601004EF28031C0F601014FF0580211
:1026D000FFF7DEFA64602460A56038BDAFF30080C8
:1026E00010B50446FFF714FB5CB94EF23C40C0F64F
:1026F00001004EF28031C0F601014FF49972FFF7EC
:10270000C7FAA368002B03DB2068A04203D10EE0C8
:102710002168A1420BD14EF25040C0F601004EF2AA
:102720008031C0F601014FF49B72FFF7B1FAA26845
:1027300002F10102A260002A08DC2068036823601D
:102740005C604FF000018162FFF7B2FC10BD00BF7A
:1027500010B5044658B94EF2E040C0F601004EF202
:10276000F041C0F601014FF05802FFF791FA6460A2
:1027700024604FF00003A36010BD00BFAFF30080E2
:1027800070B5054640F29813C1F200039C69FFF74B
:102790009FFA5DB94EF21050C0F601004EF2F041C2
:1027A000C0F601014FF07D02FFF772FAA868002819
:1027B00000F08280A2688168914249D2826090F8DC
:1027C0002020042A04D0052A1FD0002A34D03FE05C
:1027D000466802683260036841685960866A32461A
:1027E0001268964204D0936881688B42F8D200E068
:1027F000324602605368436050601860806A8068A7
:10280000A26881689142D9D322E0466801683160AC
:10281000036842685A60866A32461268964204D05B
:10282000936881688B42F8D200E0324602605368B8
:102830004360506018600BE04FF0010380F82030D7
:10284000426801681160036842685A60FFF730FC13
:1028500028462B461B68984204D09968A26891428A
:10286000F8D200E02B462360586860605C6004602A
:10287000A5624FF00400FFF783FCAB68A3420BD0C6
:102880004EF22050C0F601004EF2F041C0F60101B8
:102890004FF0B202FFF7FCF9216CA94210D04EF2C2
:1028A0003450C0F601004EF2F041C0F601014FF085
:1028B000B302FFF7EDF970BDAC60206CE8602564F1
:1028C00070BD00BFAFF30080AFF30080AFF30080B6
:1028D00010B504464FF0200383F31188FFF710FB77
:1028E0002046FFF74DFFFFF7E3FA4FF0000383F3B5
:1028F000118810BDAFF30080AFF30080AFF300800C
:1029000038B540F29813C1F200039D694FF02003DF
:1029100083F31188FFF7F4FA286C58B94EF25C5033
:10292000C0F601004EF2F041C0F601014FF484728E
:10293000FFF7AEF9296C8A68AA420BD04EF27050AC
:10294000C0F601004EF2F041C0F6010140F20B1258
:10295000FFF79EF92C6CE3682B642068A04219D025
:10296000696C4BB11A689A4203D09068814238BFB3
:102970000146DB68002BF5D1A96020680168216061
:102980004C60A060026CE26004644FF00001FFF74D
:1029900057FC02E04FF00003A360FFF789FA4FF005
:1029A000000383F31188204638BD00BFAFF30080D9
:1029B00038B504460D46FFF7ABF95CB94EF200603E
:1029C000C0F601004EF2C851C0F601014FF0FE0200
:1029D000FFF75EF9E36B45EA0301E16394F8200039
:1029E000082803D1A36A194206D138BD092809D1A4
:1029F000A26A11408A4205D12046FFF759FB4FF0E9
:102A00000001816238BD00BFAFF30080AFF30080EA
:102A100070B505460E46FFF77BF95DB94EF22460AE
:102A2000C0F601004EF2C851C0F601014FF0BC02E1
:102A3000FFF72EF92C68A54209D0E3683343E36021
:102A40006068A168FFF7B4FF2468A542F5D170BDA6
:102A500010B50C4681B140F29813C1F20003996998
:102A60008862086042684A60416011604FF00D0062
:102A70002146FFF7B5FB10BD4FF0FF3010BD00BF82
:102A800010B4406000604FF00004846041618161D7
:102A9000C1608A180261C361019B036210BC704768
:102AA00070B50446FFF734F9E3686361A3614FF042
:102AB0000000A06020682546A0420AD06FF0010601
:102AC000016821604D60FFF7F3FA86622068A84232
:102AD000F6D170BDAFF30080AFF30080AFF300809C
:102AE00038B504460D46FFF713F96369A2699342AE
:102AF00017D1A06878B914E0E36863612068A04248
:102B00000CD0016821604C60FFF7D2FA4FF0000250
:102B10008262104638BD6FF0030038BD4FF00000F0
:102B200038BDA16801F10101A16003F8015B636197
:102B300022699342E0D2E1E7AFF30080AFF3008077
:102B400070B504460E464FF0200383F31188FFF75B
:102B5000D7F9E3697BB1204698470CE0204631461F
:102B6000FFF776FF051E06DAFFF7A2F94FF0000324
:102B700083F3118814E0A0680028EFD000F1FF3142
:102B8000A160A36913F8015BA3612269934224BF8A
:102B9000E368A361FFF78CF94FF0000383F311881A
:102BA000284670BDAFF30080AFF30080AFF3008024
:102BB0002DE9F84F04460F461D46C66992465AB99C
:102BC0004EF27060C0F601004EF28461C0F6010161
:102BD0004FF0E702FFF75CF84FF0200383F3118812
:102BE000FFF78EF907F10108BA444FF00007B94624
:102BF0004FF0200B76B12046B0470BE02046294627
:102C0000FFF726FF30B1FFF753F94FF0000383F3CE
:102C1000118821E0A368002BF0D003F1FF30A06001
:102C2000A16911F8012B08F8012CA16123699942CF
:102C300024BFE168A161FFF73BF94B4683F311889C
:102C400007F10107D04507D05B4683F31188FFF7F2
:102C500057F908F10108CDE73846BDE8F88F00BF05
:102C600040600060826041618161C16089180161DA
:102C7000C361009B03627047AFF30080AFF3008035
:102C800070B50446FFF744F8E3686361A361226905
:102C9000D01AA06020682546A0420AD06FF0010635
:102CA000016821604D60FFF703FA86622068A84240
:102CB000F6D170BDAFF30080AFF30080AFF30080BA
:102CC000F8B504460F4616464FF0200383F31188EB
:102CD000FFF716F90CE020463146FFF7B9FE051E56
:102CE00006DAFFF7E5F84FF0000383F3118819E0E7
:102CF000A368002BEFD003F1FF30A060616901F8F9
:102D0000017B61612269914224BFE1686161E569EB
:102D10000DB12046A847FFF7CBF84FF0000383F32F
:102D200011881D462846F8BDAFF30080AFF3008040
:102D300038B50446FEF7ECFFA36962699A4214D1E4
:102D4000A06878B911E0E368A3612068A04207D0C9
:102D5000016821604C60FFF7ABF94FF0000282621E
:102D6000284638BD6FF0020038BDA16801F10101AD
:102D7000A16013F8015BA36122699342E3D2E4E707
:102D80002DE9F84F04460F469B46D0F81C801546A7
:102D90005AB94EF2A860C0F601004EF28461C0F646
:102DA000010140F29B12FEF773FF4FF0200383F303
:102DB0001188FFF7A5F84FF00006B1464FF0200A42
:102DC0000BE020465946FFF743FE30B1FFF770F89D
:102DD0004FF0000383F3118824E0A368002BF0D0A8
:102DE00003F1FF30A06017F8012B616901F8012B96
:102DF00061612369994224BFE1686161B8F1000F04
:102E000001D02046C047FFF753F84B4683F31188A3
:102E100006F10106013D05D0534683F31188FFF703
:102E20006FF8DAE73046BDE8F88F00BFAFF30080F7
:102E3000094A22F0070040F2C813C1F200031860EB
:102E40004CF20001C2F2010121F0070240F2C4106D
:102E5000C1F200000260704737920120AFF300809A
:102E600010B50446FEF754FF04F1070323F00701F1
:102E700040F2C812C1F20002106840F2C413C1F25D
:102E800000031A68131A994206D8411840F2C81272
:102E9000C1F20002116010BD4FF0000010BD00BF74
:102EA00010B504464FF0200383F31188FFF728F88C
:102EB0002046FFF7D5FF0446FEF7FAFF4FF0000368
:102EC00083F31188204610BDAFF30080AFF300807C
:102ED00008B540F2D010C1F2000042F6A163C0F67E
:102EE000000303604FF000018160C16000F1100039
:102EF000FFF72EFC08BD00BFAFF30080AFF30080EA
:102F000070B5064618B940F2D016C1F2000601F1BC
:102F1000070525F0070506F1080406F11000FFF784
:102F2000D7FC1AE05A68954216D805F1080191427B
:102F300002D91A68226009E05A181868585059686E
:102F4000A1F10801481B506022605D601C4644F8F6
:102F5000086BFFF7D5FC13E01C462368002BE1D17A
:102F6000FFF7CEFC316849B105F1080088470446F7
:102F700030B10660456004F1080401E04FF0000440
:102F8000204670BDAFF30080AFF30080AFF3008048
:102F90002DE9F047074658B94EF2F060C0F601003F
:102FA0004EF2D061C0F601014FF0C602FEF770FE8E
:102FB000A7F1080557F8080C00F1080600F1100009
:102FC000FFF786FC34464EF2007AC0F6010A4EF254
:102FD000D069C0F601094FF0D008AC420AD8636846
:102FE00003F10803E018854204D2504649464246A0
:102FF000FEF74EFEB44201D0AC4228D2216809B19E
:103000008D4224D247F8081C256057F8042C02F1A1
:103010000803E91857F8080C814208D1496852188A
:1030200002F1080247F8042CEB5847F8083C6068A6
:1030300000F10801621895420BD157F8043CC01802
:1030400000F10800606057F8081C216001E0246866
:10305000C3E7FFF755FCBDE8F08700BFAFF3008082
:1030600038B504460D46FEF753FE04B15DB94EF285
:103070006870C0F601004EF23071C0F601014FF0E9
:103080009902FEF705FE23682B60256038BD00BF5E
:1030900038B505460C464FF0200383F31188FEF740
:1030A0002FFF28462146FFF7DBFFFEF701FF4FF019
:1030B000000383F3118838BDAFF30080AFF30080C5
:1030C000F0B40746002B08BF0B4600F10B0007F1D8
:1030D0000A050E46B1FBF2F402FB141101F13004B3
:1030E000392CC8BF01F13704AC4605F80149B6FBDD
:1030F000F2F1B3FBF2F3002BEBD1CCEB0002B818EA
:103100006FEA0703C11801F001042A4612F8011FF3
:103110003B4603F8011B834210D10DE002F101048C
:103120005278194601F8012B04F1010264785C70B1
:1031300001F101038342F1D1F0BC7047002CEDD0C6
:1031400012F8011F03F8011B8342E7D1F4E700BF27
:1031500008B54FF00003FFF7B3FF08BDAFF30080E1
:103160002DE9F04F2DED048B8BB007460E4615462A
:103170004FF0000BDFED9A9A4CF6CD40CCF6CC40E8
:1031800002904EF29073C0F601030393B04618F814
:10319000011B002900F0ED81252905D03A689368CC
:1031A000384698474646F1E771782D2903BF06F166
:1031B000020801220192CDF804B098F800202E2ACE
:1031C00001D0302A04D108F101084FF0300401E0A9
:1031D0004FF020044046D84610F8012B0646A2F1D5
:1031E0003003D9B2092904D92A2A07D1297805F14F
:1031F000040508EB880A01EB4A08EDE72E2A13D1F3
:103200000146DA4611F8012B0E46A2F13000C0B299
:10321000092804D92A2A08D1287805F104050AEBDF
:103220008A0600EB460AEDE7DA466C2A01D04C2A02
:1032300005D1307820B106F10106024600E0FFE733
:10324000A2F14403342B00F21781DFE813F0810070
:103250001501150115011501810015011501150153
:1032600015011501070115011501150115011501BC
:103270000A0115011501350015011501150115018A
:103280001501150115011501150115013800810001
:103290001501970015011501810015011501150192
:1032A000150115010701150115011501440015014E
:1032B0000A011501150135004FF01002D3E02C680A
:1032C0000DF1280909F8184D05F104054FF0200407
:1032D0000DF11100E4E005F10404D5F80090B9F116
:1032E000000F039D08BFA94647F6FF72BAF1000F11
:1032F00008BF924699F80010002900F0C480BAF186
:10330000010F00F1C5804B4609EB0A056FEA090081
:10331000421902F0010103F10103184699F8012056
:10332000002A40F04381B8E002F1010318465278C8
:10333000002A00F0B2801A4603F1010108465B78CA
:10334000002B40F04681A8E025464FF02004A7E07E
:10335000296805F10405002908DA4FF02D008DF8E1
:103360001000C1F100010DF1110000E004A84FF0C0
:103370000A02FFF7EDFE0DF1100991E005F10705D6
:1033800025F0070000F10805D0E90001FDF780FBFA
:1033900009EE100AB4EEE99AF1EE10FA08D54FF0F2
:1033A0002D028DF81020B1EE499A0DF1110901E0BE
:1033B0000DF1100919EE100AFDF74EF841EC180B4B
:1033C00017F016FC70B94FF04E0189F800104FF05D
:1033D000610289F8012089F8021009F103003AE03E
:1033E0000000000048F2A061C0F20101BAF1000F34
:1033F00008BF8A46BDEEC99A484619EE101A4FF02A
:103400000A025B46FFF75CFE81464FF02E0309F887
:10341000013B19EE100AFDF70DF802460B4651EC80
:10342000180BFCF7B9FE41EC180B5046FCF7F2FF05
:1034300002460B4651EC180BFDF762F8FDF700FB56
:1034400001460298A0FB0A2348464FF00A024FEAC1
:10345000D303FFF735FE0DF1100921E04FF008020C
:1034600001E04FF00A02296805F1040504A8FFF7FE
:103470006FFE0DF1100913E00DF1280909F8182D60
:103480000DF111000CE0254648464FF0200407E0FE
:10349000254648464FF0200402E025464FF0200420
:1034A000C9EB000ACAEB080C2CEAEC78019B0BB9BB
:1034B000C8F10008B8F1000F2DDA99F800102D2995
:1034C0000BD1302C09D109F101093B689A683846C3
:1034D0004FF02D0190470AF1FF3A6FEA080000F023
:1034E000010101913B689A6838462146904718F1DE
:1034F000010843D136E03A68936838462146984738
:1035000008F101083868826838462146904718F16A
:103510000108F0D126E039680B6838464946524622
:103520009847B8F1000F3FF431AE08F1FF3E0EF0BE
:1035300001093A689368384621469847B8F101086E
:1035400028D123E639688B6838462146984708F128
:10355000FF3838688268384621469047B8F101083C
:10356000F0D113E639680B68384649465246984709
:103570000CE60BB0BDEC048BBDE8F08F0198002881
:10358000B9D039688B6838462146984718F1010848
:10359000B1D1E7E7B9F1000FD4D038688268384676
:1035A00021469047B8F10108CCD1EFE51A46AB426D
:1035B0003FF4CAAE00293FF4B7AE03F1010108465B
:1035C0005B78002B3FF469AF0A46A9427FF4ACAEAA
:1035D000BAE602F10102A9427FF4A6AEB4E600BF4A
:1035E000C36882689A4208D04268D154C16801F128
:1035F0000101C1604FF0000070476FF0010070479B
:103600000369C2689A4206D04168CA5C03F10103AB
:103610000361104670476FF001007047AFF3008000
:1036200038B504460369C568ED1AAA4238BF154685
:1036300042680846D1182A4618F0EAFF2069411965
:103640002161284638BD00BFAFF30080AFF3008092
:1036500038B50446C3688568ED1AAA4238BF1546D6
:103660004068C0182A4618F0D3FFE1684A19E260A2
:10367000284638BDAFF30080AFF30080AFF3008081
:1036800010B44EF2A074C0F6010404604160826080
:10369000C3604FF00003036110BC7047AFF30080BC
:1036A00010B44B680A684FF00001C160C16101614C
:1036B00041610160416081604FF0FF340462C2F3F8
:1036C0004231072908BF00218161C2F3011404EBD4
:1036D000840102F00F0404EB4101C160C2F3003128
:1036E0004FEA81046118C2F3032404EB410101F1A4
:1036F000FF340461C2F3035101EB8104C2F30342BE
:1037000002EB440101F164014161C3F3021404EBD3
:10371000840203F00F0101EB42040460C3F30232A0
:1037200002EB8204C3F3032101EB44024260C3F3C2
:10373000015404EB8404C3F380524FEA42018A1817
:103740004FEA820101EB4402C3F30343D1188160C5
:1037500010BC7047AFF30080AFF30080AFF3008080
:10376000F0B44FF000030B604B604269A2F16402B9
:103770004CF6CD44CCF6CC44A4FB02454FEAD50729
:103780004FEA075606F4700407EB8703A2EB4302E7
:1037900044EA02470F608569002D08BF07254FEAFC
:1037A000457647EA16450D60066906F101064CF6B6
:1037B000CD43CCF6CC43A3FB06424FEAD2044FEAFA
:1037C000043707F4805704EB8402A6EB420647EA6D
:1037D00006242C430C60C568A3FB05624FEAD202A5
:1037E0004FEA021606F0300602EB8202A5EB420514
:1037F0002E4334430C608568A3FB05424FEAD20494
:103800004FEA045606F4401604EB8402A5EB420589
:1038100046EA05444C604568A3FB05624FEAD202C4
:103820004FEA023606F4E04602EB8202A5EB4202C2
:1038300046EA022222434A600068A3FB00434FEAA3
:10384000D3034FEA031404F0700403EB8303A0EBEB
:10385000430044EA00031A434A60F0BC704700BFCB
:1038600010B584B00C464FF00003009301938DF81F
:1038700008300393694606F09BF920466946FFF736
:103880000FFF04B010BD00BFAFF30080AFF30080A6
:1038900010B584B004464FF00003009301938DF8F7
:1038A0000830039308466946FFF75AFF20466946E9
:1038B00006F056F904B010BDAFF30080AFF30080FE
:1038C00000B58FB04FF000030A930B938DF83030A2
:1038D0000D930AA906F06CF901A80AA9FFF7E0FE0A
:1038E00001A819F0DDF80FB000BD00BFAFF30080F4
:1038F00010B590B0044601914FF000030C930D9366
:103900008DF838300F9301A803A918F079FE03A8A9
:103910000CA9FFF725FF20460CA906F021F910B0ED
:1039200010BD00BFAFF30080AFF30080AFF30080A5
:1039300070B504460E46154603680F2B0BD14EF2A8
:10394000B070C0F601004EF2C471C0F601014FF034
:103950000D0203F08DF9206800F10102226004EBF2
:1039600080014E6000F1100044F8205070BD00BF8F
:1039700070B506460368002B0DDDA0F104044FF07E
:10398000000504F104046168206C884705F1010515
:103990003068A842F5DC70BDAFF30080AFF3008063
:1039A0002DE9F04106460F4690460368002B0EDDD8
:1039B000A0F104054FF0000405F104056A683846DB
:1039C0004146904704F101043068A042F4DCBDE8B0
:1039D000F08100BFAFF30080AFF30080AFF3008051
:1039E00010B4002943DD034644184FF000006FF087
:1039F000270113F8012B504010F0800F0CBF40003E
:103A000081EA4000C2B212F0800F0CBF520081EA7E
:103A10004202D0B210F0800F0CBF400081EA40009B
:103A2000C2B212F0800F0CBF520081EA4202D0B243
:103A300010F0800F0CBF400081EA4000C2B212F0CB
:103A4000800F0CBF520081EA4202D0B210F0800F0A
:103A50000CBF400081EA4000C2B212F0800F14BFD8
:103A600081EA42025200D0B2A342C2D101E04FF03B
:103A7000000010BC704700BFAFF30080AFF30080C0
:103A800070B506460C4619F05BFD0546002816DDAC
:103A90003378A34216D033464FF0000015F0010FE3
:103AA00005D112E013F8011FA14215D170BD00F13C
:103AB000010210469542F5D14FF0FF3070BD4FF036
:103AC000FF3070BD4FF0000070BD00F1010013F831
:103AD000012FA242EBD170BD02F1010013F8012FBA
:103AE000A242E4D170BD00BFAFF30080AFF300800D
:103AF00038B5044619F024FD054658B322782D2A1E
:103B00000ED000282BDDA2F13003D8B2092829D825
:103B100023464FF00001084615F0010F0FD12BE0AE
:103B200004F10100FFF7E4FFC0F1000038BD13F815
:103B3000014FA4F13002D2B2092A2DD917E000EBCF
:103B40008000A2F1300202EB400001F101018D4240
:103B5000EDD138BD44F23010C0F2AB0038BD4FF0AB
:103B6000000038BD4BF6D060CFF6547038BD4BF630
:103B7000D060CFF6547038BD01EB8104A2F1300261
:103B800002EB440001F1010113F8012FA2F130040E
:103B9000E4B2092CD3D9EAE700EB8000A4F13004A9
:103BA00004EB400001F1010113F8012FA2F13004F0
:103BB000E4B2092CC3D9DAE7AFF30080AFF3008099
:103BC000F8B5044619F0BCFC632855D843F2943587
:103BD000C2F200052846214619F052FC28464FF053
:103BE0002E01FFF74DFF0446B0F1FF3F07D12846F5
:103BF000FFF77EFF02EE100AF8EEC22A3EE043F223
:103C00009435C2F200054FF000032B542846FFF70D
:103C10006FFF074604F101042D19284619F090FCA6
:103C2000064604462846FFF763FF002E15DDB2EE78
:103C3000047A06F1FF3101F00102F0EE477A4FF00D
:103C400001039E421DD10AE027EE870A60EE077A43
:103C500003F102039C42F7D101E0F7EE007A06EE91
:103C6000907AF8EEE60A06EE100AB8EEC61AC1EE31
:103C7000271A70EEA12A01E0DFED062A12EE900A63
:103C8000F8BD002AE0D067EE077A03F101039E42F7
:103C9000DAD1E4E70000C07FAFF30080AFF300802B
:103CA0002DE9F84F2DED028B44F29835C2F2000554
:103CB0002C464FF000024FF00003E4E8022305F524
:103CC000DF5505F11805A2469FED638B4FF0FF38D5
:103CD0006FF00049D3465AE9026730463946FCF78F
:103CE000E1FB53EC182BFCF70BFCFDF769F880198E
:103CF00041EB0701B94208BFB04206D14FF00102C3
:103D00004FF00003801841EB0301B04271EB070351
:103D1000BCBF40464946CBE900010AF1080A5AE90E
:103D2000026730463946FCF7BDFB53EC182BFCF715
:103D3000E7FBFDF745F8801941EB0701B94208BFE1
:103D4000B0427DD175E04FF0FF326FF0004344493F
:103D5000C1E904234FF00006354640F2E73843F24C
:103D6000F839C2F200091CE007F1040B7E6005F18E
:103D7000010A554652464FEAEA73824273EB010745
:103D80000CDA0BF10407CBF804600AF101052A46AE
:103D90004FEAE573824273EB010A46DB664645450E
:103DA00023DC06F1010CF4E802012A464FEAE57330
:103DB000824273EB010BF1DA454516DC54E902014E
:103DC00005F1FF3709EB87036FEA050202F0010AEC
:103DD00003F104075E6005F101052A464FEAE57329
:103DE000824273EB010B0BDBD8E745F69071C2F210
:103DF00000014FF001000860BDEC028BBDE8F88FB8
:103E0000B5F57A7FF1D0BAF1000FADD047F8046F65
:103E100005F101052A464FEAE573824273EB010A78
:103E2000BCDAB5F57A7F9FD1DFE7B5F57A7F9BD114
:103E3000DBE74FF001024FF00003801841EB030174
:103E4000B04271EB0703BCBF40464946EAE80201B5
:103E5000AA457FF43FAF76E7000000A09999A93FFB
:103E6000785F0020AFF30080AFF30080AFF30080F5
:103E7000F8B504460D4645F69073C2F20003186883
:103E800058B94EF2F070C0F601004EF60801C0F6C7
:103E900001014FF03C02FDF7FBFE002C75F1000321
:103EA00037DBB4F57A7F75F1000C06DA43F2F830AF
:103EB000C2F2000050F82400F8BD43F2F831C2F21B
:103EC0000001D1F89C1F40F27D32914224DC40F287
:103ED0007E3644F29837C2F200078B194FEA63002E
:103EE00007EBC002D2E90023944275EB030C02DA1F
:103EF00000F1FF3609E000F1010107EBC103D3E94E
:103F00000023944275EB030C07DBB142E5DB084666
:103F1000F8BD4FF00000F8BD0846F8BDAFF30080D3
:103F200010B5044601604FF000024FF00003C0E9F5
:103F30000223C0E904234FF0000140F6186218F094
:103F40000FFC10BDAFF30080AFF30080AFF3008033
:103F5000F8B5064614461D4610461946FFF788FF79
:103F60000746D6E90223A41845EB0305C6E9024536
:103F7000D6E904234FF001004FF00001121843EB83
:103F80000103C6E9042340F27E339F420BDD4EF667
:103F90001C00C0F601004EF60801C0F601014FF00A
:103FA0006102FDF775FE07F1060756F8272002F1BA
:103FB000010246F82720F8BDAFF30080AFF3008080
:103FC0002DE9F04F2DED028B85B081460391D0E9AC
:103FD0000423062A73F100000EDA09F1180C44F2EA
:103FE0009838C2F2000808F1080608F5E0584FF0CA
:103FF000000081468A4623E0D9F818304FF00008C7
:1040000093BB27E056E90245D6E90023121943EB9A
:1040100005034FEAD374121943F100035B104FEA12
:10402000320247F8042F00F1010001F101015CF8B0
:10403000042C8A42E6DC06F10806464500F00081C1
:104040005CF8043B002BF6DD00F1FF340AEB84073B
:104050004946D7E709F118004FF0000808F10108B8
:1040600050F8043F002BF9D003990B604EF2E07436
:10407000C0F60104A4F10405019502914FF0000A75
:104080004FF0000BD9E9046730463946FCF720FEB3
:10409000019A02F10402D2ED007A019207EE100AB1
:1040A00027EE270A10EE100AFCF772FE04460D46B2
:1040B00054EA050004BF01240025BD4208BFB442F4
:1040C00006D14FF0FF304FF0FF31241845EB0105CA
:1040D00008F1060259F822001AEB00024BEBE073DC
:1040E000A24273EB050014DA08F1060109EB810125
:1040F00092469B4601E092469B4608F1010851F822
:10410000040F1AEB00024BEBE073A24273EB0500C5
:10411000F1DB4FEAD773F21847F100035B104FEA67
:104120003202944275EB030120DA08F1060659F8D1
:1041300026701AEB07024BEBE773944275EB030012
:1041400014DB08F1060109EB810692469B4601E06B
:1041500092469B4608F1010856F8040F1AEB00023C
:104160004BEBE073944275EB0300F1DA44F29832C2
:10417000C2F2000202EBC803D3E9006730463946B9
:10418000FCF7A6FD08EE100AAB4508BFA2452BD0F0
:1041900044F29832C2F2000202EBC803D3E90201F2
:1041A0004FF0FF324FF0FF33801841EB0301801BCB
:1041B00061EB0701B4EB0A0465EB0B0500FB05F3AB
:1041C00004FB0133A0FB0401591808F1060359F858
:1041D000234022464FEAE473FCF7BAFDFCF778FD72
:1041E00007EE100A38EE078ABDEEC88A029918EE6B
:1041F000100A41F8040F0291019A144B9A427FF47D
:1042000041AFD9F8101E51B909F5616940F27E300D
:1042100000F1FF3059F8042D002AF9D001E040F2F6
:104220007E3044F29833C2F2000303EBC001D1E9BF
:1042300002014FF0FF321218039802614FF005009F
:1042400005B0BDEC028BBDE8F08F00BFE8E70108C8
:1042500010B504464FF000014FF0400218F080FA0C
:104260004FF00003236410BDAFF30080AFF3008074
:10427000036C03F101030364026C102A04BF0022E3
:104280000264036C40F82310416C01F101014164A8
:10429000704700BFAFF30080AFF30080AFF3008042
:1042A00070B4436C8B42B4BF466C0E46016C002E5A
:1042B00022DD0A466FEA01048E1B4FF0000113460F
:1042C000002A0FDA6FEA0205C5F30015103318D47F
:1042D00003E003F110031033FBD424F00F0502F1C7
:1042E0001003EB1850F82330C91802F1FF3204F123
:1042F0000104B242E3D101E04FF00001084670BC76
:104300007047002DE5D01033E3D4E6E7AFF300802B
:1043100008B501464EF63000C0F6010002F0D0FCB0
:1043200008BD00BFAFF30080AFF30080AFF30080A3
:104330002DE9F84345F69474C2F2000446F2600099
:10434000C2F200004EF64001C0F60101226803F0FF
:104350009FFF2368002B21DD4FF0000446F2641517
:10436000C2F2000546F26009C2F200094EF6580892
:10437000C0F6010845F69477C2F2000704EB440248
:1043800005EB82064846414655F82220736803F043
:104390007FFF04F101043868A042EFDCBDE8F88338
:1043A000F8B545F69473C2F200031B68402B0CD19C
:1043B0004EF66C00C0F601004EF68801C0F6010111
:1043C0004FF0230202F054FCF8BD46F26416C2F22C
:1043D000000603EB43054FEA8505741903F1010359
:1043E00045F69477C2F200073B6070516160A260AD
:1043F000F8BD00BFAFF30080AFF30080AFF30080E3
:1044000045F69473C2F200034FF000021A60704741
:1044100008B50A464FF00001FFF7C2FF08BD00BF14
:1044200008B50A464FF00101FFF7BAFF08BD00BF0B
:1044300008B50A464FF00501FFF7B2FF08BD00BFFF
:1044400008B50A464FF00301FFF7AAFF08BD00BFF9
:1044500008B50A464FF00401FFF7A2FF08BD00BFF0
:1044600008B50A464FF00201FFF79AFF08BD00BFEA
:10447000F8B504460D464368032B03D181682846EE
:104480008847F8BD042B20D108464FF02001FFF7E4
:10449000F7FAB0F1FF3F4FD04FF000062E5400F175
:1044A00001002E1830464FF02001FFF7E9FAB0F175
:1044B000FF3F41D04FF00003335400F10102A368E5
:1044C00028463146B2189847F8BD052B19D1084641
:1044D0004FF02001FFF7D4FA0646B0F1FF3F2BD092
:1044E0004FF00000A8552846FFF702FB074606F1EB
:1044F00001016818FFF7FCFA0146A26838469047A8
:10450000F8BD022B05D10846FFF75AFBA368984770
:10451000F8BD0846FFF7ECFA4BF6D061CFF65471C0
:10452000884207D14EF6A400C0F60100294602F0E9
:10453000C7FBF8BDA2689047F8BD00BFAFF300808D
:10454000037863B1202B0DD04FF0000101E0202A49
:104550000AD001F10101425C002AF8D104E04FF0D9
:10456000000101E04FF0000108467047AFF3008002
:10457000F8B507460E4618F0E3FF054604463046F8
:1045800018F0DEFF85421BD1002D1CDD3A78337810
:104590009A421BD13B4631464FF0000215F0010F05
:1045A00007D119E013F8015F11F8010F85421CD003
:1045B0000FE002F101029442F4D14FF00100F8BD86
:1045C0004FF00000F8BD4FF00100F8BD4FF00000C3
:1045D000F8BD4FF00000F8BD02F1010213F8015FD1
:1045E00011F8010F8542E4D0F3E702F1010213F85C
:1045F000015F11F8010F8542DBD0EAE7AFF30080DD
:1046000008B546F26000C2F200004EF6BC01C0F6EA
:10461000010103F065FCFFF7F3FE4EF6C800C0F69B
:10462000010044F23131C0F60001FFF7F1FE4EF611
:10463000D000C0F6010044F21131C0F60001FFF7CE
:10464000EFFE08BDAFF30080AFF30080AFF3008052
:1046500070B50446002849D04EF6D800C0F60100D7
:1046600021464FF0040218F09BFF00283ED14EF681
:10467000E006C0F601063046214602F021FB04F1B7
:1046800004053046294602F01BFB2379212B14D068
:104690005BB900E05AB94EF6F000C0F601002946B9
:1046A00002F00EFB4FF0000420E004F10500044688
:1046B00010F8012B212AEDD100E02C464FF000012B
:1046C00004F8011B2846FFF713FA0546204618F0A8
:1046D00037FF0246854209D04EF60C10C0F60100A5
:1046E0002946234602F0ECFA4FF00004204670BD44
:1046F0002DE9F84FFFF7ACFF0546002800F0AC802D
:1047000018F01EFF8146642807DD4EF64010C0F603
:10471000010002F0D5FABDE8F88F45F69876C2F2AE
:1047200000064EF65013C0F6010334460FCB07C403
:1047300023803046294618F0FBFD304618F000FF74
:104740004FF23411C0F601010A8832522846FFF7B1
:10475000F7FE814532D145F69470C2F20000076839
:10476000002F67DD46F26416C2F2000607F1FF3241
:1047700002F0010AB04628463168FFF7F9FE00282A
:104780006CD009E004EB440306EB8308284656F896
:104790002310FFF7EDFE18B1D8F80800804754E069
:1047A00004F1010404EB440206EB8208284656F8A3
:1047B0002210FFF7DDFE00286AD0EDE705EB000AC6
:1047C0004FF000032B5445F69470C2F20000D0F86D
:1047D0000080B8F1000F2DDD46F26416C2F200062B
:1047E00008F1FF3707F0010B374628463168FFF71D
:1047F000BFFE002852D009E004EB440206EB82071A
:10480000284656F82210FFF7B3FE28B138460AF1C1
:104810000101FFF72DFE18E004F1010404EB44014F
:1048200006EB8107284656F82110FFF7A1FE002865
:104830004CD0EBE745F69870C2F20000494602F012
:104840002FFAFFF775FDBDE8F88F45F69870C2F2B4
:104850000000494602F024FABDE8F88F4FF000044A
:1048600004F10104BC42E5D0BAF1000F8AD004EB98
:10487000440806EB88082846D8F80010FFF778FEB1
:10488000002889D104F10104BC427FF47BAFD1E759
:1048900004F10104BC427FF475AFCBE74FF0000494
:1048A00004F101044445C5D0BBF1000FA4D004EBD2
:1048B000440106EB810728463968FFF759FE0028B6
:1048C000A4D104F10104444596D1B3E704F10104F5
:1048D000444591D1AEE700BFAFF30080AFF3008055
:1048E00030B585B0044641F65833A0F848314FF052
:1048F0000205C0F89C5B4FF47040C4F2EB5000908E
:104900004FF00001C4F2C82101914FF00002C4F23F
:104910002F42029204F5FA704FF000014FF4684202
:10492000C4F2FD624FF00003C4F2F0130EF030FE4B
:104930004FF40043C4F20953C4F80C324CF6CD4096
:10494000C4F21620C4F854014FF00001C4F2A001D3
:10495000C4F85C114FF00002CCF22022C4F85021C0
:104960004FF00003C4F2D013C4F8583104F63C40B1
:1049700047F2BD41C3F61371016004F5446349F683
:10498000B252C3F66F721A604FF00100C4F8300CD7
:104990004FF00001C4F8441CC4F82C5CC4F8D80BD8
:1049A000C4F8DC5B05B030BDAFF30080AFF300802E
:1049B0002DE9F8430C4601F5E7600DF0C1F804F667
:1049C0001C1528460DF0BCF84FF015000CF090FDBA
:1049D00002464FF00009C4F24C2928464FF000016E
:1049E0004B460DF0B5F84FF013000CF081FD024678
:1049F0004FF00008C4F2673828464FF000014346E4
:104A00000DF0A6F84FF012000CF072FD02464FF4C4
:104A10000047C4F2CD3728464FF000013B460DF069
:104A200097F84FF014000CF063FD02464FF4404637
:104A3000C4F2134628464FF0000133460DF088F8C3
:104A400004F5306420460DF07BF84FF00C000CF0BC
:104A50004FFD024620464FF000014B460DF078F81E
:104A60004FF00D000CF044FD024620464FF00001CF
:104A700043460DF06DF84FF00E000CF039FD024684
:104A800020464FF000013B460DF062F84FF00F005A
:104A90000CF02EFD024620464FF0000133460DF08B
:104AA00057F8BDE8F88300BFAFF30080AFF3008094
:104AB0002DE9F04F2DED088B85B004464FF0010332
:104AC000A0F84A314FF47A70A4F84C0104F2047152
:104AD0004FF00002C4F20C220A6041F65835A4F8E7
:104AE00048514FF48046C4F20356009648F63C679E
:104AF000C4F2432701974FF00003C4F27A430293B4
:104B000004F5FA704FF00001CCF2A0114FF42042EE
:104B1000C4F28C6241F67843C4F2BF130EF038FD44
:104B20004FF48040C4F24E50C4F80C024FF0000124
:104B3000C4F28221C4F854114FF08242C4F85C21BF
:104B40004FF00003C4F850314FF00005C4F2A01537
:104B5000C4F8585104F6AC364FF00007C4F22F37B2
:104B6000376004F618309FEDF7AA80ED00AA04F62E
:104B70001C31DFEDF59AC1ED009A04F532629FED2C
:104B8000F39A82ED009A04F62435DFEDF18AC5ED43
:104B9000008A04F628369FEDEF8A86ED008A04F637
:104BA0002C379FEDED0A87ED000A04F53360DFED49
:104BB000EB0AC0ED000A04F634319FEDE91A81EDED
:104BC000001A04F63832DFEDE71AC2ED001A04F6D7
:104BD0003C359FEDE52A85ED002A04F53466DFEDCE
:104BE000E32AC6ED002A04F644379FEDE13A87ED4B
:104BF000003A04F64830DFEDDF3AC0ED003A04F643
:104C00004C319FEDDD4A81ED004A04F53562DFED60
:104C1000DB4AC2ED004A04F654359FEDD95A85EDC2
:104C2000005A04F65836DFEDD75AC6ED005A04F69E
:104C30005C379FEDD56A87ED006A04F53660DFEDDD
:104C4000D36AC0ED006A04F664319FEDD17A81ED3C
:104C5000007A04F66832DFEDCF7AC2ED007A04F60E
:104C60006C3542F6AB2AC4F2335AC5F800A004F5FD
:104C700037664FF00009C4F24D59C6F8009004F6AB
:104C800074374DF25658C4F26658C7F8008004F6DF
:104C9000783045F2565CC4F2805CC0F800C004F67F
:104CA0007C314FF48047C4F28D570F6004F53862B1
:104CB00042F6AB26C4F29A56166004F6843041F2EE
:104CC0005655C4F2A755056004F688314FF0000030
:104CD000C4F2B450086004F68C324EF6AB21C4F234
:104CE000C051116004F53962DFEDABAAC2ED00AA34
:104CF00004F694329FEDA9BA82ED00BA04F5E3629E
:104D000046F2420BC3F6C57BC2F800B004F21C7237
:104D100041F2C27BC3F6C67BC2F800B004F5E46280
:104D20004AF2943BC3F6C67BC2F800B004F2247288
:104D30004FF2C35BC3F6C87BC2F800B004F5E5626E
:104D400046F2666BC3F6C67BC2F800B004F22C7262
:104D500049F6566BC3F6687BC2F800B004F5E6620C
:104D600047F6030BC3F64B7BC2F800B004F2347273
:104D700047F2823BC3F6467BC2F800B004F5E76217
:104D80004AF6047BC3F64A7BC2F800B004F23C72D8
:104D90004CF6CD4BC3F64C7BC2F800B004F5E8628C
:104DA00047F2715BC3F64C7BC2F800B004F2447268
:104DB00044F2854BC3F64E7BC2F800B004F5E96BB4
:104DC00045F62942C3F64F72CBF8002004F24C7B23
:104DD000CBF8002004F5EA6BCBF8002004F2547BFA
:104DE000CBF8002004F5EB6BDFED6DBACBED00BA2C
:104DF00004F25C7BDFED6BBACBED00BA04F5EC6B33
:104E0000DFED69BACBED00BA04F2647BDFED67BA7F
:104E1000CBED00BA04F5ED6BDFED65BACBED00BA72
:104E200004F26C7BDFED63BACBED00BA04F5EE6BF8
:104E3000CBF8002004F2747BDFED5FBACBED00BA53
:104E400004F5EF6BDFED5DBACBED00BA04F27C7BCD
:104E5000DFED5BBACBED00BA04F5F06BDFED59BACC
:104E6000CBED00BA04F2847BDFED57BACBED00BA8C
:104E700004F5F16BDFED55BACBED00BA04F28C7B93
:104E8000CBF8002004F5F26BCBF8002004F2947B01
:104E9000CBF8002004F5F36249F2AF4BC3F6C57BB3
:104EA000C2F800B004F29C724DF2565BC3F6C57BAB
:104EB000C2F800B004F5F46242F6911BC3F6C77B5A
:104EC000C2F800B004F2A4724EF2712BC3F6C57B97
:104ED000C2F800B004F5F56242F6A21BC3F6B57B3A
:104EE000C2F800B004F2AC7241F61D4BC3F6EC5BA5
:104EF000C2F800B004F5F662136004F2B4721360F5
:104F000004F5F762136004F2BC72136004F5F862F2
:104F1000136004F2C472136004F5F962136004F2C2
:104F2000CC72136004F5FA62136004F2D472136059
:104F300004F5FB624FF2667BC3F6C47BC2F800B097
:104F400046E000BF9A99993F19E8B43FA036D03F98
:104F50001F85EB3FCF6903401211114052B81E402C
:104F6000915F2C40D5063A4014AE47405455554009
:104F700098FC6240D7A37040164B7E402DF98540C7
:104F8000CDCC8C4000004844ABAA97445655CB4446
:104F90000000FF445655194556D5CD4500C0DA45A9
:104FA000EF1CC43F925CC83F2A8FC63F44C1C63F36
:104FB000EBE3C53FB4554D3F98DB493FF0134F3FFE
:104FC00078B73E3F828D333F931E363F7FA23E3FF0
:104FD00004F2DC724FF25A6BC3F6DE7BC2F800B00B
:104FE00004F5FC6247F6812BC3F6C77BC2F800B01C
:104FF00004F2E4724BF24E4BC3F6CB7BC2F800B026
:1050000004F5FD6244F66F0BC3F69D7BC2F800B059
:1050100004F2EC72136004F5FE62136004F2F472A1
:10502000136004F5FF62136004F2FC72136004F570
:105030000062136004F60402136004F608021360B1
:1050400004F60C02136004F50162136004F6140206
:10505000136004F618024AF6EF2BC4F2140BC2F8E0
:1050600000B004F61C0242F2C87BC4F25C0BC2F82A
:1050700000B004F5026246F2AE2BC4F2340BC2F863
:1050800000B004F6240248F2491BC4F20F0BC2F828
:1050900000B004F6280240F6BF5BC4F2080BC2F869
:1050A00000B004F62C024DF2566BC3F6987BC2F8A2
:1050B00000B004F5036245F6D60BC3F6FA6BC2F8EE
:1050C00000B004F63402136004F63802136004F6EC
:1050D0003C02136004F50462136004F6440213609A
:1050E00004F64802136004F64C02136004F50562EE
:1050F000136004F65402136004F6580244F6193B98
:10510000C4F2F60BC2F800B004F65C024AF2EC3BC3
:10511000C4F2BE0BC2F800B004F5066246F6696B35
:10512000C4F2960BC2F800B004F6640244F2D04B0D
:10513000C4F2780BC2F800B004F6680245F6D97BD9
:10514000C4F2460BC2F800B004F66C024CF6924B67
:10515000C4F2190BC2F800B004F5076245F6C92B7A
:10516000C4F21D0BC2F800B004F6740243F6CD6B16
:10517000C3F6E57BC2F800B004F6780243F2B11B37
:10518000C4F20C0BC2F800B004F67C024CF2587B5F
:10519000C4F2040BC2F800B004F5086243F2B07B1D
:1051A000C3F6AF7BC2F800B004F684024CF6A36BE2
:1051B000C3F6A47BC2F800B004F68802136004F6BC
:1051C0008C02136004F50962136004F69402136004
:1051D00004F6980244F2AF7BC4F2651BC2F800B03B
:1051E00004F69C0245F6547BC4F20B1BC2F800B0D7
:1051F00004F50A624DF63C4BC4F2D10BC2F800B084
:1052000004F6A4024BF6882BC4F2AF0BC2F800B030
:1052100004F6A8024CF2832BC4F2A30BC2F800B030
:1052200004F6AC024EF2AC1BC4F2890BC2F800B01B
:1052300004F50B624DF6937BC4F24B0BC2F800B041
:1052400004F6B4024BF6B22BC4F2550BC2F800B010
:1052500004F6B80248F2596BC4F2380BC2F800B039
:1052600004F6BC024CF6191BC4F2350BC2F800B0B0
:1052700004F50C6242F6624BC4F2290BC2F800B08E
:1052800004F6C40245F26D3BC4F2200BC2F800B034
:1052900004F6C8024FF6264BC4F2120BC2F800B057
:1052A00004F6CC02136004F50D62136004F6D40218
:1052B000136004F6D8034FF45542C4F2AA121A60E0
:1052C00004F6DC034AF2DC72C4F276121A6004F5CA
:1052D0000E6344F20212C4F22F121A6004F6E403C1
:1052E00047F6EA02C4F20C121A6004F6E8034BF621
:1052F0003622C4F2BB021A6004F6EC0343F60642FF
:10530000C4F2A1021A6004F50F6349F6C772C4F231
:10531000A3021A6004F6F4034AF67802C4F28C027F
:105320001A6004F6F80343F2BE02C4F291021A6056
:1053300004F6FC034CF6FB42C4F263021A6004F567
:10534000106340F62502C4F275021A6004F60413D5
:1053500046F61172C4F249021A6004F6081342F6C6
:105360005642C4F258021A6004F60C134EF6853207
:10537000C4F231021A6004F511631A6004F61413C2
:105380001A6004F6181342F6C812C4F2A0121A608A
:1053900004F61C1347F65752C4F282121A6004F541
:1053A00012634AF60662C4F289121A6004F62413E4
:1053B00049F69332C4F279121A6004F6281343F2C4
:1053C000F332C4F22F121A6004F62C134CF23A0294
:1053D000C4F2F8021A6004F513634CF6B802C4F282
:1053E000C7021A6004F634134DF2D212C4F2EC0272
:1053F0001A6004F6381348F26212C4F2D5021A6039
:1054000004F63C1344F64912C4F2C4021A6004F5CF
:1054100014634FF2C052C4F2B0021A6004F644138F
:1054200049F67772C4F298021A6004F648134EF2F5
:105430007962C4F290021A6004F64C1345F2EC1241
:10544000C4F280021A6004F515631A6004F654135E
:105450001A6004F6581341F6AC42C4F292121A6074
:1054600004F65C1346F61852C4F277121A6004F57B
:10547000166348F20D62C4F279121A6004F66413DE
:1054800045F20852C4F276121A6004F668134CF61C
:10549000ED22C4F24F121A6004F66C1346F65C5209
:1054A000C4F255121A6004F5176345F6E442C4F2DB
:1054B0000E121A6004F674134DF25B62C4F20E12FF
:1054C0001A6004F6781348F2AD62C4F200121A6052
:1054D00004F67C1349F6FA32C4F2D8021A6004F5D5
:1054E000186345F6C302C4F2BA021A6004F68413C4
:1054F00043F67E02C4F2CD021A6004F688134DF61C
:105500006432C4F2C2021A6004F68C1345F62942D2
:10551000C4F2B7021A6004F519631A6004F6941312
:105520001A6004F6981345F23D12C4F28B121A6009
:1055300004F69C134DF6C742C4F275121A6004F5C6
:105540001A634FF68072C4F272121A6004F6A41342
:1055500046F61722C4F275121A6004F6A8134EF22A
:10556000EE72C4F274121A6004F6AC1343F2B30282
:10557000C4F276121A6004F51B6348F66602C4F2A0
:1055800067121A6004F6B41341F25712C4F23F12C4
:105590001A6004F6B8134CF2D742C4F22F121A6004
:1055A00004F6BC1344F66A52C4F21F121A6004F5E2
:1055B0001C6344F64762C4F210121A6004F6C41366
:1055C00041F29C02C4F207121A6004F6C81347F6AF
:1055D0008342C4F2F0021A6004F6CC134CF6CD42BA
:1055E000C4F2DC021A6004F51D631A6004F6D413D9
:1055F0001A6004F6D81340F6EC22C4F288121A603E
:1056000004F6DC134FF2F342C4F275121A6004F58B
:105610001E634FF42D72C4F273121A6004F6E41381
:1056200047F2C932C4F274121A6004F6E81343F266
:10563000CA62C4F275121A6004F6EC134FF67F4288
:10564000C4F278121A6004F51F6343F6F502C4F23F
:105650007A121A6004F6F4134AF2A552C4F27612D2
:105660001A6004F6F81341F21762C4F25A121A6073
:1056700004F6FC134BF24C32C4F22E121A6004F5FD
:10568000206342F20E22C4F238121A6004F6042398
:1056900048F66772C4F22A121A6004F608234DF223
:1056A0003D42C4F218121A6004F60C234AF6146242
:1056B000C4F213121A6004F521631A6004F614236D
:1056C0001A6004F618234DF2954BC4F2871BC3F8F9
:1056D00000B004F61C234CF2FA3BC4F2751BC3F86D
:1056E00000B004F522634BF6B92BC4F2721BC3F869
:1056F00000B004F624234DF2AE3BC4F2741BC3F891
:1057000000B004F6282344F6E85BC4F2751BC3F826
:1057100000B004F62C234FF24E3BC4F27A1BC3F8C0
:1057200000B004F523634FF2BA7BC4F27C1BC3F8CC
:1057300000B004F634234FF4755BC4F27B1BC3F84E
:1057400000B004F6382343F6ED7BC4F27D1BC3F8AA
:1057500000B004F63C234DF2E46BC4F2711BC3F8B5
:1057600000B004F524634AF2F17BC4F26A1BC3F86B
:1057700000B004F6442348F6A32BC4F23E1BC3F842
:1057800000B004F648234BF6617BC4F2401BC3F81B
:1057900000B004F64C231A6004F525631A6004F681
:1057A00054231A6004F658234CF60762C4F2871299
:1057B0001A6004F65C2347F64652C4F275121A606A
:1057C00004F526634EF23542C4F274121A6004F6F0
:1057D000642349F64202C4F274121A6004F6682384
:1057E00049F6EE62C4F274121A6004F66C234BF6AA
:1057F000D462C4F277121A6004F527634DF696421C
:10580000C4F27E121A6004F6742347F66142C4F2B1
:105810007C121A6004F678234BF26442C4F27A12C6
:105820001A6004F67C2346F21832C4F27D121A6024
:1058300004F528634FF69742C4F280121A6004F60A
:1058400084234DF6F272C4F270121A6004F68823B3
:1058500048F6B772C4F26F121A6004F68C234CF249
:105860008F22C4F269121A6004F529631A6004F6E3
:1058700094231A6004F698234BF2E812C4F28712BC
:105880001A6004F69C234EF2EE42C4F275121A60BE
:1058900004F52A6345F69652C4F273121A6004F6B0
:1058A000A4234AF27762C4F274121A6004F6A823A1
:1058B00043F62502C4F274121A6004F6AC234CF2CB
:1058C000BF52C4F277121A6004F52B6343F6C2424A
:1058D000C4F27D121A6004F6B4234DF2C662C4F21B
:1058E0007C121A6004F6B8234DF69E02C4F27A12B6
:1058F0001A6004F6BC2343F6E232C4F27D121A6049
:1059000004F52C634FF25942C4F27F121A6004F678
:10591000C42343F64102C4F280121A6004F6C8237D
:105920004AF2DB72C4F277121A6004F6CC2340F616
:105930003D22C4F273121A6004F52D631A6004F656
:10594000D4231A6004F6D82341F27B42C4F28812B1
:105950001A6004F6DC234FF00002C4F274121A60DD
:1059600004F52E634EF24812C4F27A121A6004F65D
:10597000E42340F63D22C4F277121A6004F6E823CD
:1059800045F2EC12C4F274121A6004F6EC2348F2E9
:105990001F52C4F277121A6004F52F634CF6CD4201
:1059A000C4F27C121A6004F6F4234AF61462C4F2BC
:1059B0007B121A6004F6F82349F69A12C4F279129F
:1059C0001A6004F6FC234AF2D732C4F27C121A6041
:1059D00004F530634FF2C352C4F280121A6004F629
:1059E00004334EF24812C4F280121A6004F60833EF
:1059F00041F27B42C4F27A121A6004F60C3346F28A
:105A00006662C4F272121A6004F531631A6004F619
:105A100014331A6004F2846282ED00AA04F5D163A3
:105A2000C3ED009A04F28C6282ED009A04F5D26311
:105A3000C3ED008A04F2946282ED008A04F5D36318
:105A400083ED000A04F29C62C2ED000A04F5D463FF
:105A500083ED001A04F2A462C2ED001A04F5D563C6
:105A600083ED002A04F2AC62C2ED002A04F5D6638D
:105A700083ED003A04F2B462C2ED003A04F5D76354
:105A800083ED004A04F2BC62C2ED004A04F5D8631B
:105A900083ED005A04F2C462C2ED005A04F5D963E2
:105AA00083ED006A04F2CC62C2ED006A04F5DA63A9
:105AB00083ED007A04F2D462C2ED007A04F5DB6370
:105AC000C3F800A004F2DC62C2F8009004F5DC63C5
:105AD000C3F8008004F2E462C2F800C004F5DD639C
