:020000040800F2
:1000000000040020B1150008F1160008F1160008E0
:10001000F1160008F1160008F1160008F1160008A4
:10002000F1160008F1160008F11600086117000823
:10003000F1160008F1160008F11600086118000812
:10004000F1160008F1160008F1160008F116000874
:10005000F1160008F1160008F1160008F116000864
:10006000F1160008F1160008F1160008918D00083D
:10007000C18D0008018E0008418E0008818E0008A5
:10008000B18E0008F18E000811970008F1160008E3
:10009000F1160008F1160008F1160008F116000824
:1000A000D1A9000851A90008F116000871A900089B
:1000B00091A90008B1A9000841AD0008F116000897
:1000C000F1160008F1160008F1160008F1160008F4
:1000D000F1160008F1160008A1B00008C1B0000830
:1000E000F1160008F1160008F1160008F1160008D4
:1000F000F1160008F1160008F1160008318F00080B
:10010000F1160008F116000861AD0008F1160008AC
:10011000F1160008F1160008F1160008F1160008A3
:10012000718F0008A18F0008E18F0008219000085E
:1001300061900008F1160008F1160008F116000899
:10014000F1160008F1160008F1160008E19F0008FA
:1001500091900008D190000811910008F116000854
:10016000F1160008F1160008F1160008F116000853
:10017000F1160008F1160008F1160008F116000843
:08018000F1160008F116000859
:1001900008B504F085FC01F00BFC03F029F906F02A
:1001A00007FA03F0EDFD07F043FC06F0D1F907482C
:1001B00004F0AEF8064B01221A6003F019FD03F0BB
:1001C0004FFC4FF4FA7002F003F8F6E710EB00086A
:1001D00008FE0020AFF30080AFF30080AFF3008093
:1001E00030F0004001D102207047A0F50003B3F1C8
:1001F000FE4F01D2042070474FF6FE73421EC0F23C
:100200007F039A4201D803207047B0F1FF43584260
:10021000584170470000000000000000000000008E
:100220002DE9F0418AB004460D4600F071F840F621
:100230000008C2F2000898F90030013306460F4664
:100240000BD02046294600F05BFA30B12046294603
:100250000022002300F0DAFE20B1304639460AB011
:10026000BDE8F08198F800604EF63033C0F6000328
:10027000CDE9024501930023CDE90445089366BB0F
:100280004FF6FF734FF06042CCF2EF73CDE90623D7
:10029000204629460022002300F090FE60B1022390
:1002A00000939E4225D0684600F052FA08B3089B9E
:1002B00023BBDDE90667D0E70123022E009313D0AC
:1002C000684600F045FA78B14BF65420C0F60000BD
:1002D00000F046FACDE90601E9E700230022CFF657
:1002E000F073CDE90623D3E700F0EAFE2123036093
:1002F000EAE700F0E5FE22230360D8E700F0E0FE25
:10030000089B0360D5E700BF00000000000000006C
:10031000B1F5801F02462DE9F04F0B4687B0044629
:100320000D460E4662DA21F00045054300F0FE80DE
:100330000029C0F27D8100230022C4F250336FF007
:10034000350700F0CDFB0D460B464FF6FF71024618
:10035000C7F6EF718D4250DC25F07F46002326F46E
:100360007006104606F51524002204F66474C3F6E0
:10037000F07304F480142D1584F07F5EA5F2FF3530
:100380008EF4401EEF194EEA060107EB145800F0F8
:10039000F3F9B31C23F470030022022B82468B4630
:1003A00032DC002300F00AFE002800F0C8800020A4
:1003B0000021B8F1000F24D0404600F02BFBA0A391
:1003C000D3E9002306460F4600F08AFB9EA3D3E93B
:1003D000002304460D463046394600F081FB0246B4
:1003E0000B462046294600F0C9F90AE04FF6FF7196
:1003F0000027C7F6EF718D42AEDD1046194600F0BA
:10040000BDF907B0BDE8F08F4FF08043A6F5C227D5
:1004100000F0B4F9C6F5D7265136A7F27A4737432C
:1004200002460B465046594600F084FCCDE90201D5
:10043000404600F0EFFACDE90401DDE90201024691
:100440000B4600F04DFB02460B46CDE9000100F0E3
:1004500047FB7FA3D3E9002304460D4600F040FB91
:100460007DA3D3E9002300F089F922462B4600F052
:1004700037FB7BA3D3E9002300F080F922462B460B
:1004800000F02EFB78A3D3E9002300F077F9DDE933
:10049000002300F025FB76A3D3E90023CDE900017A
:1004A0002046294600F01CFB73A3D3E9002300F08B
:1004B00065F922462B4600F013FB71A3D3E9002314
:1004C00000F05CF922462B4600F00AFB02460B4680
:1004D000DDE9000100F052F9002F04460D4658DD19
:1004E00000230022C3F6E0735046594600F0F8FAA4
:1004F00052465B4600F0F4FA06460F46B8F1000F8C
:1005000063D122462B4600F039F9DDE9022300F0E1
:10051000E7FA02460B463046394600F02DF902460E
:100520000B465046594600F027F96AE700210020A3
:1005300000220023CCF2503100F0FCFB61E7524670
:100540005B465046594600F0CBFA4FA3D3E900234F
:1005500004460D465046594600F0C2FA0B460021AB
:100560000246C3F6E071002000F006F902460B4691
:100570002046294600F0B4FA04460D46B8F1000FB3
:1005800040F086805046594622462B4600F0F4F84B
:1005900037E7B8F1000F00F09F8029A3D3E90023CB
:1005A000DDE9040100F09CFA22462B4606460F4680
:1005B0005046594600F0E0F8DDE9022300F090FAD9
:1005C00004460D46DDE9040170E01DA3D3E90023D4
:1005D000DDE9040100F084FA22462B468046894674
:1005E0003046394600F0CAF8DDE9022300F078FA17
:1005F00015A3D3E9002304460D46DDE9040100F00C
:100600006FFA02460B462046294600F0B7F802462C
:100610000B463046394600F0AFF852465B4600F0D4
:10062000ABF802460B464046494600F0A5F8E8E61E
:1006300000F0A2F80022002300F07CFBE1E600BFFE
:100640000000E0FE422EE63F763C7935EF39EA3D88
:1006500044523EDF12F1C23FDE03CB966446C73FF1
:10066000599322942449D23F935555555555E53F0A
:100670009FC678D0099AC33FAF788E1DC571CC3F15
:1006800004FA97999999D93F555555555555D53FE0
:10069000404600F0BFF916A3D3E9002380468946FF
:1006A00000F01EFA06460F464046494612A3D3E91B
:1006B000002300F015FA02460B462046294600F0BA
:1006C0005BF852465B4600F057F802460B46304650
:1006D000394600F051F894E622462B4650465946DA
:1006E00000F04AF8DDE9022300F0FAF917E700BF4D
:1006F0000000E0FE422EE63F763C7935EF39EA3DD8
:1007000050EA010201D102207047D0F1010238BF46
:100710000022B1F1004F08BF0028F4D021F00043BF
:100720004FF6FF71A3F58010C7F6DF71884201D83C
:1007300004207047B3F5801F01D2032070470020CA
:10074000C7F6F070834214BF002002F0010070472A
:1007500000207047000000000000000000000000C2
:1007600000210020C7F6F871704700BF00000000AC
:1007700081F0004102E000BF83F0004330B54FEA52
:1007800041044FEA430594EA050F08BF90EA020FBF
:100790001FBF54EA000C55EA020C7FEA645C7FEA52
:1007A000655C00F0E2804FEA5454D4EB5555B8BF75
:1007B0006D420CDD2C4480EA020281EA030382EAE6
:1007C000000083EA010180EA020281EA0303362D78
:1007D00088BF30BD11F0004F4FEA01314FF4801C4B
:1007E0004CEA113102D0404261EB410113F0004F5D
:1007F0004FEA03334CEA133302D0524263EB430314
:1008000094EA050F00F0A780A4F10104D5F1200EB1
:100810000DDB02FA0EFC22FA05F2801841F100010C
:1008200003FA0EF2801843FA05F359410EE0A5F1E0
:1008300020050EF1200E012A03FA0EFC28BF4CF011
:10084000020C43FA05F3C01851EBE37101F00045C7
:1008500007D54FF0000EDCF1000C7EEB00006EEBD4
:100860000101B1F5801F1BD3B1F5001F0CD349085E
:100870005FEA30004FEA3C0C04F101044FEA4452B5
:1008800012F5800F80F09A80BCF1004F08BF5FEA3C
:10089000500C50F1000041EB045141EA050130BD1C
:1008A0005FEA4C0C404141EB010111F4801FA4F1BF
:1008B0000104E9D191F0000F04BF01460020B1FA14
:1008C00081F308BF2033A3F10B03B3F120020CDA4C
:1008D0000C3208DD02F1140CC2F10C0201FA0CF02A
:1008E00021FA02F10CE002F11402D8BFC2F1200C8F
:1008F00001FA02F120FA0CFCDCBF41EA0C01904045
:10090000E41AA2BF01EB0451294330BD6FEA04048D
:100910001F3C1CDA0C340EDC04F11404C4F1200278
:1009200020FA04F001FA02F340EA030021FA04F38A
:1009300045EA030130BDC4F10C04C4F1200220FAE1
:1009400002F001FA04F340EA0300294630BD21FA1F
:1009500004F0294630BD94F0000F83F4801306BFE5
:1009600081F480110134013D4EE77FEA645C18BFD9
:100970007FEA655C29D094EA050F08BF90EA020F70
:1009800005D054EA000C04BF1946104630BD91EA68
:10099000030F1EBF0021002030BD5FEA545C05D16B
:1009A0004000494128BF41F0004130BD14F58004AA
:1009B0003CBF01F5801130BD01F0004545F0FE411E
:1009C00041F470014FF0000030BD7FEA645C1ABF53
:1009D000194610467FEA655C1CBF0B46024650EA8A
:1009E000013406BF52EA033591EA030F41F40021B6
:1009F00030BD00BF90F0000F04BF0021704730B53C
:100A00004FF4806404F132044FF000054FF0000110
:100A100050E700BF90F0000F04BF0021704730B5D1
:100A20004FF4806404F1320410F0004548BF4042A6
:100A30004FF000013EE700BF42004FEAE2014FEAFB
:100A400031014FEA02701FBF12F07F4393F07F4FD6
:100A500081F06051704792F0000F14BF93F07F4F08
:100A6000704730B54FF4607401F0004521F000414B
:100A700020E700BF50EA010208BF704730B54FF0D1
:100A800000050AE050EA010208BF704730B511F0D6
:100A9000004502D5404261EB41014FF4806404F10E
:100AA00032045FEA915C3FF4DCAE4FF003025FEA90
:100AB000DC0C18BF03325FEADC0C18BF033202EB18
:100AC000DC02C2F1200300FA03FC20FA02F001FA72
:100AD00003FE40EA0E0021FA02F11444C1E600BF11
:100AE00070B54FF0FF0C4CF4E06C1CEA11541DBFC4
:100AF0001CEA135594EA0C0F95EA0C0F00F0DEF88F
:100B00002C4481EA030621EA4C5123EA4C5350EA73
:100B1000013518BF52EA033541F4801143F48013C4
:100B200038D0A0FB02CE4FF00005E1FB02E506F055
:100B30000042E0FB03E54FF00006E1FB03569CF0AA
:100B4000000F18BF4EF0010EA4F1FF04B6F5007FB0
:100B500064F5407404D25FEA4E0E6D4146EB060622
:100B600042EAC62141EA55514FEAC52040EA5E50AB
:100B70004FEACE2EB4F1FD0C88BFBCF5E06F1ED855
:100B8000BEF1004F08BF5FEA500E50F1000041EB8C
:100B9000045170BD06F0004646EA010140EA020039
:100BA00081EA0301B4EB5C04C2BFD4EB0C0541EA5B
:100BB000045170BD41F480114FF0000E013C00F370
:100BC000AB8014F1360FDEBF002001F0004170BD94
:100BD000C4F10004203C35DA0C341BDC04F11404AD
:100BE000C4F1200500FA05F320FA04F001FA05F239
:100BF00040EA020001F0004221F0004110EBD37006
:100C000021FA04F642EB06015EEA430E08BF20EA31
:100C1000D37070BDC4F10C04C4F1200500FA04F3D4
:100C200020FA05F001FA04F240EA020001F0004166
:100C300010EBD37041F100015EEA430E08BF20EAD9
:100C4000D37070BDC4F1200500FA05F24EEA020E21
:100C500020FA04F301FA05F243EA020321FA04F050
:100C600001F0004121FA04F220EA020000EBD37007
:100C70005EEA430E08BF20EAD37070BD94F0000F07
:100C80000FD101F00046400041EB010111F4801F3B
:100C900008BF013CF7D041EA060195F0000F18BFEC
:100CA000704703F00046520043EB030313F4801F28
:100CB00008BF013DF7D043EA0603704794EA0C0FE2
:100CC0000CEA135518BF95EA0C0F0CD050EA4106F8
:100CD00018BF52EA4306D1D181EA030101F0004175
:100CE0004FF0000070BD50EA410606BF104619469D
:100CF00052EA430619D094EA0C0F02D150EA0136A9
:100D000013D195EA0C0F05D152EA03361CBF1046E9
:100D100019460AD181EA030101F0004141F0FE4188
:100D200041F470014FF0000070BD41F0FE4141F40C
:100D3000780170BD70B54FF0FF0C4CF4E06C1CEA0C
:100D400011541DBF1CEA135594EA0C0F95EA0C0FC1
:100D500000F0A7F8A4EB050481EA030E52EA03357C
:100D60004FEA013100F088804FEA03334FF080559D
:100D700045EA131343EA12634FEA022245EA1115CA
:100D800045EA10654FEA00260EF000419D4208BF7B
:100D9000964244F1FD0404F5407402D25B084FEA28
:100DA0003202B61A65EB03055B084FEA32024FF4D4
:100DB00080104FF4002CB6EB020E75EB030E22BF31
:100DC000B61A754640EA0C005B084FEA3202B6EBF1
:100DD000020E75EB030E22BFB61A754640EA5C00A0
:100DE0005B084FEA3202B6EB020E75EB030E22BF30
:100DF000B61A754640EA9C005B084FEA3202B6EB31
:100E0000020E75EB030E22BFB61A754640EADC00EF
:100E100055EA060E18D04FEA051545EA16754FEA51
:100E200006164FEAC30343EA52734FEAC2025FEA6F
:100E30001C1CC0D111F4801F0BD141EA00014FF0FE
:100E400000004FF0004CB6E711F4801F04BF0143CF
:100E50000020B4F1FD0C88BFBCF5E06F3FF6AFAEEB
:100E6000B5EB030C04BFB6EB020C5FEA500C50F17B
:100E7000000041EB045170BD0EF0004E4EEA1131FE
:100E800014EB5C04C2BFD4EB0C0541EA045170BD05
:100E900041F480114FF0000E013C90E645EA060E49
:100EA0008DE60CEA135594EA0C0F08BF95EA0C0F77
:100EB0003FF43BAF94EA0C0F0AD150EA01347FF4BF
:100EC00034AF95EA0C0F7FF425AF104619462CE796
:100ED00095EA0C0F06D152EA03353FF4FDAE1046F9
:100EE000194622E750EA410618BF52EA43067FF44A
:100EF000C5AE50EA41047FF40DAF52EA43057FF4DA
:100F0000EBAE12E70000000000000000000000004F
:100F10004FF0FF3C06E000BF4FF0010C02E000BFC5
:100F20004FF0010C4DF804CD4FEA410C7FEA6C5CA8
:100F30004FEA430C18BF7FEA6C5C1BD001B050EA4B
:100F4000410C0CBF52EA430C91EA030F02BF90EA36
:100F5000020F0020704710F1000F91EA030F58BFF5
:100F6000994208BF90422CBFD8176FEAE37040F057
:100F7000010070474FEA410C7FEA6C5C02D150EAF5
:100F8000013C07D14FEA430C7FEA6C5CD6D152EAB0
:100F9000033CD3D05DF8040B704700BF8446104675
:100FA00062468C461946634600E000BF01B5FFF774
:100FB000B7FF002848BF10F1000F01BD4DF808ED44
:100FC000FFF7F4FF0CBF012000205DF808FB00BF15
:100FD0004DF808EDFFF7EAFF34BF012000205DF86F
:100FE00008FB00BF4DF808EDFFF7E0FF94BF0120BC
:100FF00000205DF808FB00BF4DF808EDFFF7CEFFBD
:1010000094BF012000205DF808FB00BF4DF808EDFB
:10101000FFF7C4FF34BF012000205DF808FB00BFCC
:101020004FEA4102B2F1E04324BFB3F5001CDCF10A
:10103000FE5C0DD901F0004C4FEAC0024CEA507042
:10104000B2F1004F40EB830008BF20F00100704771
:1010500011F0804F21D113F13872BCBF01F0004074
:10106000704741F480114FEA5252C2F11802C2F1A6
:10107000200C10FA0CF320FA02F018BF40F0010027
:101080004FEAC1234FEAD32303FA0CFC40EA0C00D9
:1010900023FA02F34FEA4303CCE77FEA625307D116
:1010A00050EA01331EBF4FF0FE4040F4400070474D
:1010B00001F0004040F0FE4040F40000704700BFE7
:1010C00040F60403C2F200031868704700000000F5
:1010D000032A2DE9F00F09D82AB10023CC5CC454AF
:1010E00001339342FAD1BDE8F00F70478307024401
:1010F0000ED0441C4D1C15F8017C04F00306234659
:1011000001342946013504F8027C002EF3D100E0B9
:10111000034611F003046DD0D71A0D1B032F2E6860
:1011200019DDC4F1040C4FEAC4081C1D4FEACC0CB5
:1011300055F8047FC4EB0209234604310434B9F1A5
:10114000030F26FA08FA07FA0CFB3E464BEA0A0799
:1011500044F8087CECDC9A42C5D9013301310132F4
:1011600011F8014C01330131934203F8024CF7D1DD
:10117000B9E70C684033403143F8404C51F83C4CDF
:1011800043F83C4C51F8384C43F8384C51F8344C47
:1011900043F8344C51F8304C43F8304C51F82C4C57
:1011A00043F82C4C51F8284C43F8284C51F8244C67
:1011B00043F8244C51F8204C43F8204C51F81C4C77
:1011C00043F81C4C51F8184C43F8184C51F8144C87
:1011D00043F8144C51F8104C43F8104C51F80C4C97
:1011E00043F80C4C51F8084C43F8084C51F8044CA7
:1011F00043F8044CD41A3F2CBBDC11E00C681033CC
:10120000103143F8104C51F80C4C43F80C4C51F889
:10121000084C43F8084C51F8044C43F8044CD41AD9
:101220000F2CEBDC032C96DD1C1D0D1D55F8047CEA
:10123000161B2346294604340435032E44F8087C43
:10124000F4DC88E70000000000000000000000005F
:10125000032AC9B270B408D82AB10346121803F899
:10126000011B9342FBD170BC70478307024409D035
:10127000441C04F00305234604F8011C0134002D2E
:10128000F7D100E00346D51A01EB01243F2D04EB12
:1012900004442CDD1C604033D51A43F83C4C3F2DF0
:1012A00043F8384C43F8344C43F8304C43F82C4C5A
:1012B00043F8284C43F8244C43F8204C43F81C4C8A
:1012C00043F8184C43F8144C43F8104C43F80C4CBA
:1012D00043F8084C43F8044CDCDC08E01C60103395
:1012E000D51A43F80C4C43F8084C43F8044C0F2D26
:1012F000F4DC032D08DD1D1D561B45F8044C032EA0
:101300002B4605F10405F7DC9A42ACD901330132D2
:1013100003F8011C01339342FAD1A4E70000000056
:1013200041EA00039B0710B414D10B68A3F101320A
:1013300022EA030212F0803F0CD10A1D40F8043B60
:10134000114652F8043BA3F1013424EA030414F0DB
:10135000803FF3D04A1E12F8013F00F8013B002BFA
:10136000F9D1013810BC70470000000000000000F7
:10137000830770B5064614D10368A3F1013222EA4F
:10138000030313F0803F0CD1031D1A4653F8044B9E
:10139000A4F1013525EA040414F0803FF5D010468D
:1013A00000E0304603782BB1431C18460133047823
:1013B000002CFAD100F004F8304670BD00000000A7
:1013C00080EA0102844612F0030F4FD111F0030F9F
:1013D00032D14DF8044D11F0040F51F8043B0BD0FD
:1013E000A3F101329A4312F0803F04BF4CF8043B52
:1013F00051F8043B16D100BF51F8044BA3F1013260
:101400009A4312F0803FA4F101320BD14CF8043B17
:10141000A24312F0803F04BF51F8043B4CF8044B48
:10142000EAD023460CF8013B13F0FF0F4FEA3323B9
:10143000F8D15DF8044B704711F0010F06D011F898
:10144000012B0CF8012B002A08BF704711F0020F86
:10145000BFD031F8022B12F0FF0F16BF2CF8022B71
:101460008CF8002012F47F4FB3D1704711F8012B94
:101470000CF8012B002AF9D1704700BF00000000D2
:1014800020F0030110F00300C0F1000051F8043B0C
:1014900000F1040C4FEACC0C6FF000021CBF22FAE2
:1014A0000CF213434FF0010C4CEA0C2C4CEA0C4CA0
:1014B000A3EB0C0222EA030212EACC1204BF51F899
:1014C000043B0430F4D013F0FF0F1FBF013013F4BE
:1014D0007F4F013013F47F0F18BF0130704700BFFA
:1014E00070B4002A45D041EA000313F0030329D168
:1014F000032A27D905680C68A54223D1141F3AD0C6
:10150000A5F1013222EA050515F0803F0DD03AE041
:101510005B686A68A3F10135934225EA03052ED181
:10152000043C28D015F0803F27D10D4603460431F6
:101530000430032CECD8661E2CB91C792A79A01A29
:1015400070BC7047561E04780A789442F7D1C6B131
:101550008CB101368B1C891904E08B4203F1010325
:101560000BD044B113F8012C10F8014F9442F4D081
:10157000E5E71046E4E72046E2E70020E0E7661EE4
:10158000E1E73046DCE71846DAE700BF000000007C
:10159000704700BFAFF30080AFF30080AFF300806F
:1015A000FEE700BFAFF30080AFF30080AFF3008031
:1015B00072B63E4880F309883D4B3E491A684FF0A9
:1015C000404442F470020C601A600023E1EE103ACD
:1015D000394A1360062383F31488BFF36F8F374AA9
:1015E000374B9A420BD2D143C91821F00301131F84
:1015F00089184FF0553243F8042F8B42FBD1314A02
:1016000082420CD23049131DC91A21F00301131F65
:1016100089184FF0553243F8042F8B42FBD109F063
:10162000D7FD2A492A4B99420BD2C843C01820F053
:101630000300284C04300023E258CA50043383428C
:10164000FAD1254A254B9A420AD2D143C91821F032
:101650000301131F8918002243F8042F8B42FBD18A
:10166000FFF796FF1E4D1F4B9D420BD2EE43F6181F
:10167000B608043D0136002455F8043F013498476C
:10168000B442F9D1FEF784FD174D184B9D420BD2A1
:10169000EE43F618B608043D0136002455F8043F21
:1016A00001349847B442F9D1FFF77AFF00080020CF
:1016B00088ED00E034EF00E03CEF00E000000020A7
:1016C000000400200004002003080020000800207F
:1016D0003C0B002048EB0008400B00200CFE0020D3
:1016E00088010008880100088801000888010008B6
:1016F000FEE700BFAFF30080AFF30080AFF30080E0
:10170000F8B5094D094E07460FCD34460FC42B6876
:101710002370B9692046FFF753FE054930462E2253
:10172000BDE8F84000F0B4B9F0B10008400B00206B
:1017300004B20008AFF30080AFF30080AFF3008085
:1017400072B6FEE7AFF30080AFF30080AFF3008026
:1017500000F096FA00F084FC00F072FA00DF00BF9F
:10176000EFF30982064BD2F8CC10596099686831C2
:101770009960683282F30988002383F311887047E7
:1017800030EF00E0AFF30080AFF30080AFF30080F4
:1017900008B50A4B00229A60094A07201021DA6036
:1017A00000F0DEF80A204FF4007100F0D9F80B20A9
:1017B0008021BDE8084000F0D3B800BF00ED00E094
:1017C0000003FA05AFF30080AFF30080AFF30080B1
:1017D000202383F311881A4B5B6813F4006322D033
:1017E000EFF30983A3F1680282F3098815494FF0EA
:1017F00080708A6943F84C0C92F82300096892685B
:10180000896898B1914294BF00220122A2B10E4A88
:1018100043F8502CF1EE10FA0C4A516841F00100E7
:1018200059665060704783F311887047914234BF06
:1018300000220122002AEAD1054A43F8502CEBE7A6
:1018400000ED00E0C40D00205117000830EF00E06B
:101850005C170008AFF30080AFF30080AFF30080A7
:1018600008B500F095F9202383F3118800F0D0F932
:1018700000F0D6F800F0ACF9002383F3118800F0F3
:1018800067F9BDE80840FFF7A3BF00BFAFF30080D2
:101890002DE9F04F2DED108AC1F80CD0D0F80CD006
:1018A000BDEC108ABDE8F08FAFF30080AFF300808D
:1018B00008B500F0C5F9002383F311882846A04736
:1018C00000F0EEFC08BD00BFAFF30080AFF3008076
:1018D000F0B484080F4BC03400F0030553F82470B3
:1018E000ED00FF26420906FA05F627EA060601FA88
:1018F00005F500F01F0002F16007012101FA00F078
:101900002E4343F8246043F8270043F82200F0BC3C
:10191000704700BF00E100E0AFF30080AFF300804C
:10192000410910B40C4B00F01F022031012404FACD
:1019300002F4820843F82140C03200F0030053F85B
:101940002210C000FF2404FA00F021EA000043F84E
:10195000220010BC704700BF00E100E0AFF3008040
:1019600082080A4B063200F0030030B4C00053F87E
:101970002250FF2404FA00F425EA040401FA00F1DD
:101980000C4343F8224030BC704700BF00ED00E03C
:10199000024B034A9B699A61FEE700BFC40D002019
:1019A0005CE10008AFF30080AFF30080AFF300808C
:1019B00030B583B0FFF7ECFE00F002FA00F090F9CA
:1019C00001F0D6F801F01CF940210E480E4C00F051
:1019D00057FB0E4BA0610125C36180F8205000F039
:1019E00067F9002383F3118862B60949A26909489F
:1019F000916100934FF4A4712A46074B00F0C8FB95
:101A000003B030BD080C0020C40D002000040020ED
:101A1000D0B40008580C002091190008AFF30080E2
:101A2000F8B500F07DF8164B9B6993F8232012B1AE
:101A3000013A83F823205A6A124D01325A62EB6848
:101A40002C680133AC42EB6018D0A768013FA76057
:101A5000A7B92368E6685D60E7602B6000F0B8F81E
:101A6000002383F311882069B047202383F3118872
:101A700000F0CEF82C68A368002BEAD0F8BD00BFB8
:101A8000C40D0020B40D0020AFF30080AFF3008040
:101A900070B506460D46144602F0A2F800B170BDBE
:101AA00002F096F80B4A0C4B15600C4A1B68146048
:101AB0000B4A1660002BF2D131462A4623460948CC
:101AC00002F026FC084800F083FBBDE87040FFF7F9
:101AD00037BE00BFA00D002008FE0020A80D00208A
:101AE000B00D002030B20008A0860100AFF30080E6
:101AF000064B1B6823B9064B1B68002B00DD7047A3
:101B000004480549D322FFF7C3BF00BFA40D00203E
:101B1000AC0D002044B200084CB20008AFF30080C6
:101B2000064B1B68002B04DB054B1B68002B00DDFC
:101B3000704704480449C522FFF7AABFA40D00203E
:101B4000AC0D00206CB200084CB20008AFF300806E
:101B500010B5202383F31188094C2368002B02DD84
:101B6000084A12682AB108480849B522FFF790FFD1
:101B70002368013B2360002383F3118810BD00BF5D
:101B8000A40D0020AC0D002090B200084CB200085B
:101B900010B5202383F31188094C2368002B02DB46
:101BA000084A12682AB108480849A722FFF770FFBF
:101BB000236801332360002383F3118810BD00BF25
:101BC000A40D0020AC0D002098B200084CB2000813
:101BD000084B1B68002B10B5074C05DD2368002B54
:101BE00002DD0023236010BD044805499A22FFF757
:101BF0004FFFF6E7A40D0020AC0D0020A0B20008B6
:101C00004CB20008AFF30080AFF30080AFF3008068
:101C1000074B1B68002B10B5064C01DD236823B170
:101C2000054806498E22FFF733FF0123236010BDCC
:101C3000A40D0020AC0D0020A8B200084CB2000892
:101C4000084B1B6810B5084C2BB92368002B02DD2C
:101C50000023236010BD054805498222FFF718FFC5
:101C6000F6E700BFA40D0020AC0D0020C0B20008B4
:101C70004CB20008AFF30080AFF30080AFF30080F8
:101C8000074B1B6810B5074C0BB9236823B10648F6
:101C900006497622FFF7FCFE0123236010BD00BF3A
:101CA000A40D0020AC0D0020C8B200084CB2000802
:101CB000054B1B6813B9054B1B6823B10448054944
:101CC0006B22FFF7E5BE7047A40D0020AC0D00208D
:101CD000E4B200084CB20008AFF30080AFF300801C
:101CE000044B4FF0FF329A6000225B601B60DA60A9
:101CF000704700BFB40D0020AFF30080AFF3008049
:101D0000F8B505460C4616461F46FFF709FFCDB14C
:101D1000C6B1BCB10E492F610B68EE609A6894425F
:101D200004D91B68A41A9A68A242FAD35A682B6095
:101D30008B426A6015605D60AC6002D09A68141BCB
:101D40009C60F8BD034804495122FFF7A1FEE1E77A
:101D5000B40D002000B3000810B30008AFF30080FA
:101D600010B50446FFF7DCFE84B1E368A3B1236835
:101D70000C4A934203D09968A2688A189A606268F4
:101D8000136023685A600023E36010BD06480749CA
:101D90006D22FFF77DFEE8E7054804497022FFF752
:101DA00077FEE4E7B40D002030B3000810B300085C
:101DB00040B30008AFF30080AFF30080AFF30080C2
:101DC000034B00225B601B609A605B611B61704784
:101DD000C40D0020AFF30080AFF30080AFF30080AC
:101DE00010B50446FFF79CFE94F820308BB10E2B03
:101DF0000FD00022A1680A4B84F820201B689A6843
:101E00008A42FBD25A682360626014605C6020469C
:101E100010BD044804495A22FFF73AFEE9E700BF23
:101E2000C40D002060B3000874B30008AFF3008055
:101E300010B52023044683F31188FFF7E9FE94F8D8
:101E400020300D2B11D8DFE803F016101007100B0F
:101E5000101010101010100BA36A9A6801329A60CB
:101E600094E80C001A60226853604FF0FF33A362BD
:101E70002046FFF7B5FFFFF7ABFE002383F3118881
:101E800010BD00BFAFF30080AFF30080AFF3008060
:101E900070B5104C0646FFF72BFEA5692368E9696B
:101EA0001A6885F82060ADF1640054601426226041
:101EB0000122814285F82360A36183F8202003D9A1
:101EC0002846FFF71DFCA36918462946BDE8704067
:101ED000FFF7DEBCC40D0020AFF30080AFF300803D
:101EE00070B50C4686B00646FFF702FE631C12D0A2
:101EF0000B4D0C4AAB69214601A8FFF701FF3046A4
:101F0000FFF7C6FF049B13B101A8FFF729FFAB69D8
:101F1000986A06B070BD3046FFF7BAFF004DF6E78D
:101F2000C40D0020311E0008AFF30080AFF3008025
:101F300070B5124D04460E46FFF7DAFDA869A26897
:101F40008368A6629A4211D9FFF74AFFC369AC6160
:101F5000ADF1640201219342064684F820100AD8AC
:101F600020463146BDE87040FFF792BC2046BDE8F0
:101F70007040FFF735BFFFF7C3FBF1E7C40D00204A
:101F800038B50F4C2368A5691A68012183F8201021
:101F90001421546085F8231028462260A361FFF7BE
:101FA0001FFFEB69ADF16402934202D92846FFF7A7
:101FB000A7FBA0692946BDE83840FFF769BC00BF10
:101FC000C40D0020AFF30080AFF30080AFF30080BA
:101FD00070B5134E3068B5690368AC685E60012265
:101FE0003360002380F82020B06185F8203003465C
:101FF00000E01B689A68A242FBD8E9695A682B6026
:10200000ADF16404A1426A6015605D6003D92846A1
:10201000FFF776FBB0692946BDE87040FFF738BC92
:10202000C40D0020AFF30080AFF30080AFF3008059
:1020300008B5FFF75DFD064B1A689B6992689B68BF
:102040009A4200D808BDBDE80840FFF7C1BF00BFF5
:10205000C40D0020AFF30080AFF30080AFF3008029
:10206000044B9B6993F823300BB1FFF7B1BFFFF727
:1020700087BF00BFC40D0020AFF30080AFF3008026
:102080002DE9F001134C416465690461002200F1FF
:102090003006816000F12C0C00F14C0745614FF0D7
:1020A000020860610121142480F8208080F821203A
:1020B00080F823400264C263426280F82210826189
:1020C0002861C0F82CC046630663C761BDE8F00113
:1020D000704700BFC40D0020AFF30080AFF3008055
:1020E0002DE9F04704460D4617469846FFF718FDC0
:1020F00014B1B5F59C7F38D21F482049A622FFF7BE
:10210000C7FCA5F1640161181D4E089BD6F814C0E8
:10211000E1604B641B4BC1F840800B66022384F8DE
:1021200020301423002504F1300204F12C0A04F1BC
:102130004C0984F8233001232661A760C4F814C039
:102140002046746184F8215067642564E563656204
:1021500084F82230A561CCF81040C4F82CA062634A
:102160002263C4F81C90BDE8F0877F2FC4D8B8F173
:10217000000FC6D1C0E700BFA0B30008B4B3000889
:10218000C40D0020B1180008AFF30080AFF3008049
:10219000F0B51C4683B005460E461746202383F350
:1021A0001188FFF76DFD2346089C3A46314600949E
:1021B0002846FFF795FF00210446FFF7B9FEFFF719
:1021C0003FFD002383F31188204603B0F0BD00BF1C
:1021D00010B5044628B90A480A494FF49372FFF72C
:1021E00057FC202383F31188FFF74AFD2146062080
:1021F000FFF776FEFFF724FD002383F3118810BD5F
:1022000004B40008B4B30008AFF30080AFF300805B
:1022100010B52023044683F31188FFF731FD064BE8
:10222000D968611A02D00620FFF75AFEFFF708FDB1
:10223000002383F3118810BDB40D0020AFF300809C
:1022400038B5114B9C692546A06255F82C0FA84261
:1022500006D00368E362FFF7C3FDE06AA842F8D145
:1022600094F821309B0704D1636922691A612269BD
:1022700053610E20FFF70CFE0448054940F281121D
:10228000BDE83840FFF704BCC40D002014B40008BA
:10229000B4B30008AFF30080AFF30080AFF3008069
:1022A00010B52023044683F31188FFF7E9FC20468C
:1022B000BDE81040FFF7C4BFAFF30080AFF300806C
:1022C00038B50446202383F31188FFF7D9FC94F82E
:1022D0002230002B21D0013BDDB284F82250FFF7E1
:1022E000AFFC002383F311881DB994F820300E2B26
:1022F00000D038BD94F8213003F00303012B14D033
:10230000022BF6D163692269A06C1A612269214609
:102310005361BDE8384000F0FBBC094809494E2232
:10232000FFF7B6FB94F82230D5E7636922691A619A
:10233000226920465361BDE8384000F071BC00BFFF
:1023400098B4000874B40008AFF30080AFF30080C5
:1023500010B5202383F31188FFF792FC064B1C690C
:1023600094F82230013384F82230FFF769FC00230F
:1023700083F31188204610BDC40D0020AFF3008008
:1023800038B50546202383F31188FFF779FC2C69C3
:102390000E4B9C4218D094F82230FF2B0CD0013306
:1023A00084F82230FFF74CFC002383F31188284681
:1023B000FFF786FF204638BD054806499622FFF7FD
:1023C00067FB94F82230EAE70024EBE7C40D002015
:1023D000F0B4000808B50008AFF30080AFF3008048
:1023E00038B504460D4628B1002903DB646024603B
:1023F000A56038BD024803495822FFF749FBF5E7BD
:1024000030B5000840B50008AFF30080AFF300809E
:1024100038B50446FFF76CFB002C25D0A368226872
:10242000002B0DDBA24205D012481349C022FFF752
:102430002FFBA368013B002BA36007DB002038BD06
:10244000A242F1D0013B002BA360F7DA0B4DAB6940
:102450009C6262681C605A60032063601360FFF72F
:1024600017FDAB69986A38BD05480349BC22FFF7E0
:102470000FFBD3E794B5000840B50008C40D002059
:1024800084B50008AFF30080AFF30080AFF30080A5
:1024900010B52023044683F31188FFF7F1FB204693
:1024A000FFF7B6FF0446FFF7CBFB002383F3118849
:1024B000204610BDAFF30080AFF30080AFF3008083
:1024C00010B50446FFF72CFB002C22D0A36822682D
:1024D000002B0DDBA24206D0114812494FF49B722B
:1024E000FFF7D6FAA3680133002BA36006DD10BD09
:1024F000A242F1D00133002BA360F8DC23681A68F4
:1025000018462260546000229A62BDE81040FFF72E
:1025100067BC054803494FF49972FFF7B9FAD5E74C
:1025200010B6000840B50008FCB50008AFF3008005
:1025300010B5044620B1002364602460A36010BD80
:10254000024803495822FFF7A3FAF4E7A0B60008AF
:10255000B0B60008AFF30080AFF30080AFF30080A7
:10256000F8B53E4B05469C69FFF7C2FA002D6FD0C7
:10257000A86800283AD0A2688368934208D290F8ED
:1025800020308260042B49D0052B34D0002B22D080
:102590002B461B689D4203D09968A2689142F8D2ED
:1025A0005A682360626004205C601460A562FFF7D3
:1025B0006FFCAB68A34204D029482A49B222FFF736
:1025C00067FA236CAB4215D027482649B322BDE8F1
:1025D000F840FFF75DBA90E80C001A60026801212C
:1025E00080F820105360FFF7FBFBD1E7236CAC6051
:1025F000EB602564F8BD41680368866A0B60076874
:10260000334679601B689E4202D099689142F9D2A4
:102610005A680360426010605860B9E74168036817
:10262000866A0B600768334679601B689E420DD04E
:1026300099689142F9D25A6803604260106058600C
:10264000B068A2688368934299D3A1E73346F2E762
:10265000064804497D22FFF71BFA89E7C40D0020D4
:10266000E0B60008B0B60008F4B60008D0B600081E
:1026700010B52023044683F31188FFF701FB2046A1
:10268000FFF76EFFFFF7DCFA002383F3118810BD1C
:10269000214A70B52023956983F31188FFF7F0FA7A
:1026A0002C6C002C30D0A368AB4206D01B481C49D0
:1026B00040F20B12FFF7ECF92C6C2668E368A64297
:1026C0002B641ED0696C4BB11A689A4203D0926891
:1026D000914238BF1146DB68002BF5D13368326C6C
:1026E000A9603046236000215C60A660E26034642B
:1026F000FFF71EFCFFF7A4FA002383F3118820469E
:1027000070BD0023A360F5E7064805494FF48472C5
:10271000FFF7BEF92C6CC6E7C40D002030B70008E7
:10272000B0B600081CB70008AFF30080AFF300801C
:1027300038B504460D46FFF7F3F9C4B1E26B94F8DF
:10274000203045EA0201082BE1630CD0092B00D0B0
:1027500038BDA36A19408B42FAD12046FFF740FBEF
:102760000023836238BDA36A1942F6D138BD0348FD
:102770000349FE22FFF78CF9E0E700BFC0B700086D
:1027800088B70008AFF30080AFF30080AFF300809C
:1027900070B505460E46FFF7C3F965B12C68A54232
:1027A00008D0201D0BC83343E360FFF7C1FF246846
:1027B000A542F6D170BD03480349BC22FFF768F972
:1027C000ECE700BFE4B7000888B70008AFF300806B
:1027D00010B4024659B1084B9B69986244680D20B9
:1027E00083E814005360236010BCFFF779BB4FF0FF
:1027F000FF3010BC704700BFC40D0020AFF3008055
:1028000010B4C361019B40608A180024006084609A
:1028100041618161C1600261036210BC704700BF09
:1028200038B50446FFF77CF9E36820686361A3616B
:102830000023A042A3600AD06FF001050368236063
:102840005C60FFF7CDFA85622068A042F6D138BD02
:1028500038B504460D46FFF763F9A26963699342F0
:10286000A2681AD00132A26003F8015B2269636199
:1028700093420BD22068A0420DD0036823605C60B5
:10288000FFF7AEFA00238362184638BD2068E3687C
:10289000A0426361F1D1002038BD002AE2D06FF080
:1028A000030038BDAFF30080AFF30080AFF30080CA
:1028B000F8B504460E46202383F31188FFF7E0F9AC
:1028C000E3690BB120469847A5682046314655B9C3
:1028D000FFF77EFF071EF7DAFFF7B2F92B4683F307
:1028E00011883846F8BDA3692269013DA56013F837
:1028F000017B9342A36124BFE368A361FFF7A0F9C2
:10290000002383F311883846F8BD00BFAFF3008081
:102910002DE9F0470446154688461E46C769002A39
:102920003AD0202383F31188FFF7AAF908F1010AAE
:102930004FF00009A8440FB12046B847A5682046CB
:1029400031465DB9FFF744FF0028F7D0FFF778F96B
:102950002B4683F311884846BDE8F087A369013D03
:10296000A56013F8012B0AF8012C2269A361934298
:1029700024BFE368A361FFF763F9002383F31188A1
:10298000C24509F10109E6D0202383F31188FFF73E
:1029900077F90AF1010ACEE702480349E722FFF777
:1029A00077F8BEE730B8000844B80008AFF30080FD
:1029B00010B4C361019B40608C180060826041616B
:1029C0008161C1600461036210BC7047AFF3008095
:1029D00038B50446FFF7A4F8E3682269206863610C
:1029E000D21AA042A361A2600AD06FF00105036869
:1029F00023605C60FFF7F4F985622068A042F6D19D
:102A000038BD00BFAFF30080AFF30080AFF30080AC
:102A10002DE9F041202304468846164683F31188A9
:102A2000FFF72EF9A568204631465DB9FFF7D0FEC5
:102A3000071EF7DAFFF704F92B4683F311883846AF
:102A4000BDE8F0816369013DA56003F8018B22694F
:102A50006361934224BFE3686361E3690BB120467D
:102A60009847FFF7EDF8002383F311881F46384697
:102A7000BDE8F081AFF30080AFF30080AFF30080DA
:102A800038B50446FFF74CF86269A3699A42A26818
:102A900016D00132A26013F8015B2269A361934250
:102AA0000BD22068A04206D0036823605C60FFF769
:102AB00097F900238362284638BDE368A361F0E7F5
:102AC000002AE6D06FF0020038BD00BFAFF30080EF
:102AD0002DE9F0470446164688469A46D0F81C90E1
:102AE000002A39D0202383F31188FFF7C9F8002783
:102AF000A56820466B1E0DB3A36018F8013B6569FD
:102B000005F8013B236965619D4224BFE368636169
:102B1000B9F1000F00D0C847FFF792F8002383F304
:102B200011880137013E14D0202383F31188FFF769
:102B3000A7F8A56820466B1E002DDDD12046514622
:102B4000FFF746FE0028D3D0FFF77AF82B4683F331
:102B500011883846BDE8F0870348044940F29B12CB
:102B6000FEF796FFBEE700BF68B8000844B800084B
:102B7000054A064B22F007021A60054A054B22F06F
:102B800007021A60704700BF8B170010E40D002089
:102B900000C00120E00D0020AFF30080AFF3008003
:102BA00010B50446FEF7BCFF074A084913680968D8
:102BB000E01D20F00700C91A88429ABF181810605B
:102BC0000023184610BD00BFE40D0020E00D0020DA
:102BD00010B52023044683F31188FFF751F82046EF
:102BE000FFF7DEFF0446FFF72BF8002383F311887D
:102BF000204610BDAFF30080AFF30080AFF300803C
:102C0000044B0549002203F1100019609A60DA6054
:102C1000FFF78EBCE80D0020D12B0008AFF3008039
:102C2000F8B5074600284DD057F8086C06F110009B
:102C3000FFF71EFD0836A7F108053446AC4204D85C
:102C400063680833E3189D421FD3B442236801D060
:102C5000AC4202D21BB19D4201D31C46EEE757F8AD
:102C6000042C47F8083C256002F1080357F8080CCB
:102C7000E91881420FD0636803F10802A218954257
:102C800017D0BDE8F840FFF703BD11481149D02225
:102C9000FEF7FEFED9E74968EB585218083247F8AC
:102CA000042C47F8083C636803F10802A218954217
:102CB000E7D157F8041C57F8082C5B18083384E850
:102CC0000C00DEE704480349C622FEF7E1FEABE74D
:102CD000C0B8000890B80008B0B80008AFF3008092
:102CE00038B504460D46FEF71BFF24B11DB123681D
:102CF0002B60256038BD034803499922FEF7C8FEC2
:102D0000F5E700BF28B90008F0B80008AFF300806D
:102D100038B505460C46202383F31188FEF7B0FF33
:102D200028462146FFF7DCFFFEF78AFF002383F3E6
:102D3000118838BDAFF30080AFF30080AFF300809F
:102D4000F0B400F10B0C00F10A050C46B1FBF2F6F1
:102D500002FB161101F13003392BC8BF01F1370313
:102D6000B4FBF2F42F46314605F80139002CEDD1C1
:102D7000C7EB0C013A46411801E012F8013F00F898
:102D8000013B8842F9D1F0BC704700BFAFF300802F
:102D90002DE9F04F89B00DF115030DF11408C8EBC2
:102DA000030C0193039206460C46CDF808C0254655
:102DB00015F8011B59B125290CD033682C4625463E
:102DC00030469B68984715F8011B0029F3D109B0DC
:102DD000BDE8F08F63782D2B00F012814FF00009D1
:102DE0002E2B00F00981302B00F0068120272C4685
:102DF0000399002506E00A78043105EB8505237860
:102E000002EB4505A3F13002D2B20134092AF4D90C
:102E10002A2BF0D000202E2B03914BD06C2B55D0B9
:102E20004C2B53D0A3F1410119298CBF0021012162
:102E3000A3F14402342A00F2D980DFE812F0C8007E
:102E4000D700D700D700D700C800D700D700D700D9
:102E5000D700D700C600D700D700D700D700D700CB
:102E6000BE00D700D700B100D700D700D700D700E9
:102E7000D700D700D700D700D700D7009100C800EF
:102E8000D700D700D700D700C800D700D700D70099
:102E9000D700D700C600D700D700D7004F00D70013
:102EA000BE00D700D700B1000A78043100EB8000E3
:102EB00002EB400014F8013BA3F13002D2B2092A20
:102EC000F4D92A2BF0D06C2B0391A9D12278002AB7
:102ED00000F09B80013413460121A9E7039B5A4A65
:102EE000D3F800A0BAF1000F08BF924604339AF855
:102EF0000020039347F6FF73002808BF1846002AF6
:102F000000F09F805346504402E0904200F09580CC
:102F100059785A1C13460029F7D1CAEB020BCBEBA8
:102F20000505202725EAE575B9F1000F29D0BBF189
:102F3000000FC8BF0AEB0B0907DD33681AF8011B45
:102F40009B6830469847CA45F7D1002D3FF42FAF14
:102F5000336830469B6839469847013DF8D126E7EB
:102F6000039BDDF808B01A68043303938DF814202E
:102F70002027C246CBEB050525EAE575B9F1000F20
:102F8000D5D16D42002DD2D09AF800102D2949D00C
:102F9000336830469B68394698470135F8D1C6E713
:102FA0001022039B69B1191D039119684046FFF770
:102FB000C7FEC246C8EB000BDCE70A22039B0029D0
:102FC000F1D1181D19680390F0E70822E9E7039B87
:102FD0001A1DE1B91968039200291CDB40460A2238
:102FE000FFF7AEFEC246C8EB000BC3E78DF8143006
:102FF000DDF808B0C246BDE76B7830270135F6E64C
:10300000A51CA3784FF00109EAE6012110E7196831
:1030100003920029E2DA2D238DF8143049420DF194
:103020001500DCE7302FB3D1336830469B689847F2
:103030000AF1010A0BF1FF3BAAE7CAEB000B2027BC
:1030400098E79346202795E750B90008AFF3008032
:103050000368052B70B504460D46164608D0991D29
:1030600004EB8302013344F821602360556070BD96
:10307000034804490D2200F0A3F92368EFE700BFDD
:1030800060B9000874B90008AFF30080AFF30080A6
:103090000368002B70B5064609DD041F00250434C3
:1030A0006368A069984733680135AB42F7DC70BDAF
:1030B0000368002B2DE9F04106460F4690460ADDD5
:1030C000051F0024043538466B684146984733682D
:1030D0000134A342F6DCBDE8F08100BFAFF300800D
:1030E000002910B41DDD02464418002012F8011B0F
:1030F0000823484004E0013B13F0FF03C0B20CD0AA
:1031000010F0800F4FEA4000F5D080F02700013B1F
:10311000C04313F0FF03C0B2F2D1A242E6D110BC0B
:1031200070470020FBE700BFAFF30080AFF30080E3
:10313000704700BFAFF30080AFF30080AFF30080B3
:10314000704700BFAFF30080AFF30080AFF30080A3
:1031500041F65833A0F84831704700BFAFF3008004
:1031600070B51148114E84B001F0D2F8FFF7F0F8B5
:10317000044694F82220A368616A0D48013A00923F
:1031800094F82020029156F822200192A569214648
:103190000022039501F0BCF82046FFF7F1F8044641
:1031A0000028E6D104B070BD90B9000820BD000829
:1031B000C0B90008AFF30080AFF30080AFF3008028
:1031C000024803492B22FEF763BC00BFE8B90008A0
:1031D000F8B90008AFF30080AFF30080AFF30080D0
:1031E00010B5444C444801F093F8444A4449204601
:1031F00001F00EF84349444801F08AF8434801F0D1
:1032000087F84349434801F083F820464249434A3E
:1032100000F0FEFF204642494FF4E13200F0F8FF93
:1032200020464049404A00F0F3FF20463F49404ACB
:1032300000F0EEFF20463F493F4A00F0E9FF2046FC
:1032400001223E4900F0E4FF204601223C4900F003
:10325000DFFF204601223B4900F0DAFF0122204631
:10326000394900F0D5FF204600F072FF204637496B
:1032700000F046FE2046364900F042FE2046354921
:1032800000F03EFE204600F0B3FF20460122324906
:1032900000F0BEFF20460122304900F0B9FF204671
:1032A00001222F4900F0B4FF204600222D4900F0F2
:1032B000AFFF20462C49012200F0AAFF0122204640
:1032C0002A4900F0A5FF20460422294900F0A0FF6A
:1032D000204628494FF4C87200F09AFF204626493C
:1032E000012200F095FF4FF4FA70BDE81040FEF7A0
:1032F0006FBF00BFD00E002010BA0008312D33017F
:1033000058BA000888BA000868BA000890BA0008DD
:10331000CCBA0008BCBA0008D4BA0008A0860100E4
:10332000E4BA0008F4BA0008406F400104BB00088A
:1033300000BD010514BB0008007A030A24BB000885
:103340003CBB00084CBB000868BB000884BB0008FD
:1033500088BB00088CBB000898BB0008ACBB000809
:10336000C0BB0008DCBB0008F8BB000814BC0008A8
:1033700028BC000840BC000858BC0008AFF300801F
:1033800008B5034B1A68C1B292681846904708BD49
:1033900050230020AFF30080AFF30080AFF3008034
:1033A00038B5044B1C6805460A4624681846294669
:1033B000A04738BD50230020AFF30080AFF300805A
:1033C00070B5084B06460C4682B031461846154685
:1033D000FDF7F6FF21462A4602B0BDE87040FEF731
:1033E00057BB00BF080E0020AFF30080AFF3008092
:1033F00008B501F025F90E4800F092F80D480E4985
:1034000000F12C02C82300F0DBFEFFF7E9FE0B48B9
:103410000B4901F055F80B480B4901F051F80B48E6
:103420000B4901F04DF8BDE8084001F051B800BF6C
:1034300061460008D00E002080BC000888BC00084F
:10344000E131000890BC0008C131000898BC0008B8
:1034500061310008AFF30080AFF30080AFF300806C
:103460002DE9F843264BDFF8A4809B69254A264EB8
:10347000DFF89C909A61454608F14E0700F098F9F4
:10348000D0B133682048DB689847044600B2002872
:1034900025DB042823D0082813D00D2822D01F288C
:1034A000ECDDBD42EAD2E0B2FFF76AFF05F8014B5E
:1034B00000F07EF90028E4D14FF47A70FEF788FE20
:1034C000DCE74545DAD0E4B22046FFF759FF20207B
:1034D000FFF756FF2046FFF753FF013DCEE70020E0
:1034E000BDE8F883FFF74CFF0A20FFF749FF0023F0
:1034F00006482B70D9F8003005469847BEE700BF54
:10350000C40D002060BD000850230020F8080020F2
:1035100008150020AFF30080AFF30080AFF3008008
:1035200000B5084B83B0186000F002F90023009347
:103530004FF4A761044B05484022FEF729FE03B073
:1035400000BD00BF0815002061340008D00F002026
:1035500008B501F05DFA202383F3118818B9BDE89E
:103560000840FEF78DBBBDE80840FEF751BB00BF29
:1035700010B501F04DFA044628B9FEF761FB234669
:1035800083F3118810BDFEF723FB002383F311881A
:1035900010BD00BFAFF30080AFF30080AFF3008039
:1035A00008B5064B06481A6801321A6000F098F90F
:1035B00004480D21BDE8084000F082B93C230020FA
:1035C00070BD000888BD0008AFF30080AFF3008035
:1035D000034B04485A68242101325A6000F070B944
:1035E0003C23002018230020AFF30080AFF30080BD
:1035F00008B5074B07489A6801329A6000F070F9E5
:10360000054840F60C61BDE8084000F059B900BF1C
:103610003C23002098BD00080C150020AFF300806B
:1036200008B5044800F05CF903480721BDE80840EC
:1036300000F046B9ACBD0008BCBD0008AFF3008087
:10364000482808B515D04F2817D0572819D0422838
:103650001BD043281DD0742807D0542805D00F4B09
:103660001A6901321A61002008BDFFF7D9FF012055
:1036700008BDFFF795FF012008BDFFF7A9FF012056
:1036800008BD00F03DF9012008BD00F071F90120EE
:1036900008BDFFF7ADFF012008BD00BF3C2300209F
:1036A000022906D0032906D00748012918BF0020A7
:1036B000704706487047032A03D8054800EBC2004C
:1036C00070470020704700BF80BF000850BE000850
:1036D00050BF0008AFF30080AFF30080AFF300806D
:1036E000022938B50C46054616D1202383F31188EC
:1036F000FEF78EFA28460121084A01F099FF21467B
:10370000074A284601F094FF064801F059FDFEF7EC
:103710005FFA002383F3118838BD00BFD0BD0008D5
:1037200060BE000850230020AFF30080AFF300809C
:1037300070B5174E174C184D304601F0E1FC21468C
:10374000304601F005FD24681448236D9A6B22F47D
:1037500000229A63FEF73CFD2046114901F030FF3C
:10376000236D10489A6B42F400229A63002101F005
:10377000A7FB0421284640F2823206F039F9284698
:10378000082140F28232BDE8704006F031B900BF36
:103790005023002070BF000800000240A0860100F6
:1037A00090BE000818FD0020AFF30080AFF300804A
:1037B000044BD3F854321B681878021F5042504112
:1037C000704700BF50230020AFF30080AFF30080AC
:1037D0000D4B0E4A9B6970B50D4E0E4D9A6102E07D
:1037E0002B6801332B6033680948DB68984704B2C3
:1037F0002046FFF725FF0028F2D121460648224641
:1038000000F086FDECE700BFC40D002090BF00086B
:1038100090FD002018290020A4BF0008AFF300800D
:1038200038B51A4D1A4C284603F09AF90922014678
:10383000184800F06DFD284603F092F90822014671
:10384000154800F065FD154B22691968144800F011
:103850005FFD2168134800F05BFD61681248242277
:1038600000F056FDA168114840F60C6200F050FDD2
:10387000E1680F4840F60C6200F04AFD0D4B0E481F
:103880001968BDE8384000F043BD00BF000C02409D
:103890003C230020C4BF0008D4BF00081829002022
:1038A000E4BF00080CC0000828C000084CC0000895
:1038B00070C00008DC25002094C00008AFF3008031
:1038C00038B5044B1C6805460A4624681846294644
:1038D000A04738BD90FD0020AFF30080AFF300801B
:1038E00008B50146034800F013FDBDE80840FFF7A6
:1038F00097BF00BF50CF0008AFF30080AFF3008048
:10390000114B12481A6810B501321A60FFF7E8FF30
:103910000F48104C032100F0FBFC0F480368032202
:103920005B682146984701460C4800F0F1FCB4F969
:103930000010A2780A4800F0EBFC0A4AA178B4F91A
:1039400000301268D15410BDDC250020B0C0000842
:10395000C0C00008D825002090FD0020D0C000087D
:10396000DCC0000848090020AFF30080AFF30080FE
:1039700008B5094B0948DA680132DA60FFF7B0FF91
:10398000074B0849186840F60C62FDF7A1FBBDE83B
:10399000084004F0F5BA00BF3C230020F4C0000842
:1039A000340B00200C150020AFF30080AFF3008033
:1039B000034B0448196840F60C62FDF789BB00BF51
:1039C000340B00200C150020AFF30080AFF3008013
:1039D00010B517481749184C82B000F12C02C823C3
:1039E00000F0EEFB154800F093FC21460922144834
:1039F00040F2823303F0BCF9082240F282332146C0
:103A0000104803F0B5F91048104901F059FAFFF7D2
:103A1000CFFF0F480F4900F053FD002300934FF4F0
:103A20004E710D4B0D484022FEF7B2FB02B010BDA7
:103A30001C29002004C10008000C024014C1000829
:103A40002CC100083CC1000890FD00204C0900205A
:103A50004CC1000821380008D1370008E0250020BB
:103A600010B504F085FB0C4C206005F051F9606046
:103A700005F06EF9A06005F083F8E06005F088F8C5
:103A8000206105F09DF8606105F0DAF8E06105F06D
:103A900067F8206210BD00BF18230020AFF300803C
:103AA000014B01221A607047142D0020AFF30080F3
:103AB000F0B507EE101A2DED048BF8EEC77ADFEDA6
:103AC0002E8A87EEA88A85B0064618EE101A04F0F2
:103AD00007FD054605F03CF904F0C2FC044605F07C
:103AE00017F904F0A5FC074605F0AAF804F0D0FC8D
:103AF00009EE100A2846FCF79FFF02460B461F48B6
:103B000000F006FC2046FCF797FF29EE289A0446B1
:103B100038460D46FCF790FFBDEEC99A22462B466B
:103B2000CDE900018DED029A154800F0F1FB18EE89
:103B3000101A304604F024FD07EE900A18EE100A21
:103B400067EEA88AFCF778FFFDEEE88A02460B468E
:103B5000CDED008A31460B4800F0DAFB18EE907A82
:103B600009480A4918EE902A05B0BDEC048BBDE85F
:103B7000F04000F09DBB00BF0000C84250C10008EB
:103B800060C1000894C10008142C0020B4C10008D2
:103B9000084B094910B5002818BF194604460748C4
:103BA00000F0B6FB06480749224600F031FB064B01
:103BB0001C6010BDCCC10008D0C10008D4C10008F1
:103BC000182D0020F0C100081C2A0020AFF300804F
:103BD0000320012103F00CB9AFF30080AFF30080A4
:103BE000024B1868003018BF01207047B00D00204C
:103BF000F8B5FFF7DDFD00B9F8BD4B4C23687BB18C
:103C00000320012103F0F4F8484B49481A68494B56
:103C100021681B6800F07CFB4748FEF7D9FAFEE7F5
:103C200000F056FB02F0E4FE444B1B68002BE3D08F
:103C3000434F444BFD68444E6D09A3FB052502F03C
:103C4000DFFE3368ED0983420446404B02D11A6817
:103C5000AA42D1D01D60FF6804F08AFA3C4B3D496E
:103C60003460A3FB07277F0906EE907ADFED3A7AEE
:103C7000B8EEE67A0323C7EE276A0546374816EE04
:103C8000902A00F025FA22463448354900F0D8F948
:103C90002A463449314800F0D3F903F051FF324944
:103CA00002462E4800F0CCF904F072FF0146284687
:103CB00004F066FC022302462C49284800F008FA6A
:103CC00004F07EFF022302462949244800F000FA4E
:103CD00004F09EFF022302462649204800F0F8F92E
:103CE00004F056FF0223024623491C4800F0F0F975
:103CF00004F046FF07EE900AFDEEE77A032117EE87
:103D0000902A164800F004FA05F022F80221024633
:103D1000124800F00DFA114802F0B2FB0F48BDE85E
:103D2000F84000F065BA00BFB00D0020A00D0020E3
:103D3000F4C10008A80D0020A08601001C2A002064
:103D4000B40D0020C55A7C0A580900205C090020E7
:103D50001F85EB5110C2000800007A44182D002086
:103D600018C2000820C2000824C2000828C20008A7
:103D700034C2000838C2000840C20008AFF3008017
:103D800008B50F480F49104A4FF4FA7300F018FABB
:103D90000E480F4900F12C02C82300F011FA01204F
:103DA000FFF7F6FE0B480C4900F082FB0B480C496C
:103DB00000F076FB0B480C49BDE8084000F080BBE2
:103DC000182D002044C20008202A0020142C0020B6
:103DD00050C2000864C20008B13A0008F0C10008EF
:103DE000913B000848D10008A13A0008AFF30080D9
:103DF0000D4B0E4A70B4D2681C680D4D141BAC42BA
:103E0000064607EE901A01DC70BC70479FED097AF8
:103E100067EE877A1A60FDEEE77A074817EE902A78
:103E2000314670BC00F044BA60090020B40D002097
:103E30009F86010000007A44182D0020AFF3008017
:103E400070B582B00646FDF71BFB124B124C0546BF
:103E500093E803002060A180601D294600F0D0FD9A
:103E600003463A2203F8012B314618465E19FDF746
:103E7000A7FA0D220A2342557370FFF799FC08B97F
:103E800002B070BDB11C2046091B02B0BDE87040F5
:103E9000FFF786BA70C2000828550020AFF30080F3
:103EA00008B5052806D8DFE800F00C0E1012140340
:103EB000094808BD09480A492122FFF781FA002074
:103EC00008BD084808BD084808BD084808BD08489E
:103ED00008BD084808BD00BF8CC2000890C2000899
:103EE000A8C200080CE1000880C200087CC20008DB
:103EF00078C2000884C20008AFF30080AFF30080EE
:103F0000F8B50E46044600293AD03046FDF7B8FA17
:103F1000D4F8F4300546002B38D0D4F8F800D4F8A3
:103F2000FC20C31AEB189A4209DD6A1C3146FDF7E2
:103F3000CFF8D4F8F8305D19C4F8F850F8BD244D26
:103F40000FCD6060A16003CD2D88E26023616061C8
:103F5000A161A583216804F11D00FDF7E1F9271D8A
:103F60001C4BC01B24181B883146A3803846FDF724
:103F7000FFF9194938464822BDE8F840FFF720BA52
:103F8000164815494F22FDF783FDBEE7144D0FCDAE
:103F90006060A16003CD2D88E26023616061A16152
:103FA000A583216804F11D00FDF7BAF9271D094B0F
:103FB000C01B24181B883146A3803846FDF7D8F96A
:103FC000054938463E22BDE8F840FFF7F9B900BF81
:103FD000F0C20008ECC20008A8C20008C4C2000871
:103FE000D0C20008AFF30080AFF30080AFF30080D1
:103FF00038B5041D0546204600F002FD284621463E
:10400000BDE83840FFF77CBFAFF30080AFF300801E
:1040100038B504461546FFF773FF20462946FFF7DB
:10402000E7FF03492046BDE83840FFF769BF00BFFE
:1040300088BB0008AFF30080AFF30080AFF30080CF
:10404000F8B50C4D04461746061DFFF759FF2046EC
:104050002946FFF755FF3946304600F0D1FC20468F
:104060003146FFF74DFF20462946BDE8F840FFF7EF
:1040700047BF00BF88BB0008AFF30080AFF30080EC
:104080002DE9F8439046051D99460446089F0F4EBA
:10409000FFF736FF4146284600F0B2FC204629468D
:1040A000FFF72EFF20463146FFF72AFF49463A46E2
:1040B000284600F00DFC20462946FFF721FF204648
:1040C0003146BDE8F843FFF71BBF00BF88BB0008BF
:1040D0002DE9F0410C4D044698461746061DFFF7A2
:1040E0000FFF20462946FFF70BFF42463946304670
:1040F00000F0EEFB20463146FFF702FF204629463E
:10410000BDE8F041FFF7FCBE88BB0008AFF30080BC
:1041100038B5044608461546FFF7C2FE2A46014652
:104120002046BDE83840FFF78BBF00BFAFF30080EB
:1041300070B5044608461546FFF7B2FE2A4601460A
:1041400002232046BDE87040FFF7C2BFAFF30080F6
:1041500038B5D0F8F450044615B1C4F8F85038BD5D
:1041600003480449B922FDF793FCC4F8F85038BD60
:104170000CC30008A8C20008AFF30080AFF30080B2
:1041800070B5044616460D46FFF7E2FF2046074984
:10419000FFF7B6FE20460649FFF7B2FE2046294645
:1041A0003246BDE87040FFF733BF00BF84BB000854
:1041B00088BB0008AFF30080AFF30080AFF300804E
:1041C000F8B5044607480D4616461F4600F0A0F80D
:1041D00020462560C4F8F460C4F8FC70BDE8F840DF
:1041E000FFF7B6BF18C30008AFF30080AFF300803D
:1041F00010B50446D0F8F400FFF722FE2046BDE8D3
:104200001040FFF7A5BF00BFAFF30080AFF3008001
:1042100010B50446FFF7B4FF2046BDE81040FFF795
:10422000E7BF00BFAFF30080AFF30080AFF30080C3
:1042300070B50446D0F8F4000C4DFDF721F90646A0
:10424000FFF786F92846FDF71BF941F287338619F7
:104250009E4204DCD4F8F4102818FDF7B1F8FFF7FB
:1042600087F92046BDE87040FFF772BFA0410020EB
:10427000F8B504460C4D0F461646FFF769FF204679
:104280003946FFF73DFE20462946FFF739FE204616
:104290003146FFF7ADFE20462946FFF731FE2046A6
:1042A000BDE8F840FFF7C4BF88BB0008AFF300804B
:1042B00010B50446FFF764FF2046BDE81040FFF745
:1042C000B7BF00BFAFF30080AFF30080AFF3008053
:1042D00038B50A4C0A4DFFF73BF929462046FDF751
:1042E0006FF800232B70FFF743F9237803B938BD2B
:1042F0002046BDE83840FFF7A3BD00BF182E0020C0
:10430000A0410020AFF30080AFF30080AFF3008046
:104310000FB400B583B004AB054853F8041B1A462C
:104320000193FEF735FD03B05DF804EB04B0704770
:1043300050230020AFF30080AFF30080AFF3008084
:1043400038B50446012504E014F8013B2D2B0AD1B1
:104350006D422046FDF794F821460028F4D111481B
:1043600000FB05F038BD00281ADD303BDAB2092A1F
:1043700012D808180138002205E011F8013F303B3F
:10438000DCB2092C08D802EB8202814203EB420224
:10439000F3D102FB05F038BD034800FB05F038BD42
:1043A000002038BD3041AB00D0BE54FFAFF30080D9
:1043B00070B50C460546FDF763F806462046FDF746
:1043C0005FF8864201D0002070BD002E10DD2A78F3
:1043D00023789A42F7D12A462146002305E012F8B5
:1043E000015F11F8014FA542EDD101339E42F6D194
:1043F000012070BDAFF30080AFF30080AFF3008009
:1044000070B50C4E0C483168FFF782FF3368002B03
:104410000FDD0A4D002404EB440305EB830255F83D
:10442000231007485268FFF773FF33680134A34233
:10443000F1DC70BDB068002030C300087C6A002049
:1044400048C30008AFF30080AFF30080AFF30080F3
:1044500001460148FFF75CBF60C30008AFF300806E
:10446000F0B40B4C2368202B0BD00A4F03EB430610
:10447000B600BD190133B85123606960AA60F0BC71
:104480007047054805491722F0BCFEF799BF00BFE9
:10449000B06800207C6A002070C300088CC300084C
:1044A0000A460121FFF7DCBFAFF30080AFF30080C5
:1044B0000A460421FFF7D4BFAFF30080AFF30080BA
:1044C0000A460021FFF7CCBFAFF30080AFF30080B6
:1044D00008B505480549FFF7F3FF05480549BDE85C
:1044E0000840FFF7DDBF00BFACC30008014400086F
:1044F000B4C3000851440008AFF30080AFF300805C
:104500004368032B2DE9F04107460E4655D0042B96
:1045100008460AD0022B23D0FFF712FF464B9842E1
:1045200018D0BB689847BDE8F081FCF7A9FF0028C8
:10453000F9DD3378202B76D0741C002302E0157847
:10454000202D28D001339842224604F10104F6D1EF
:10455000BDE8F08139483146BDE8F041FFF7D8BEEB
:10456000FCF78EFF00280EDD33782E2B61D0711CF6
:10457000002302E014782E2C24D0013398420A46FE
:1045800001F10101F6D13046FFF7DAFE06EE100A1E
:10459000F8EEC67A41E0581CC5D05D1C00211170B0
:1045A0003046FFF7CDFE04467019FFF7C9FEBB6821
:1045B000014620469847BDE8F08183680846984741
:1045C000BDE8F081591CDED05D1C4FF0000882F878
:1045D00000803046FFF7B4FE751906462846FCF702
:1045E0004FFF04462846FFF7ABFE44451EDD434619
:1045F000F7EE007AB2EE047A01339C4267EE877AD6
:10460000FAD107EE100AF8EEC76A06EE106AC6EE97
:10461000A77AB8EEC67A77EE277ABB6817EE900ACB
:104620009847BDE8F08132460125B7E7F7EE007AFA
:10463000E7E732460125C8E7D0BE54FFBCC30008F7
:104640000348044900F12C02C823FFF7B9BD00BF9D
:104650007C690020D4C30008AFF30080AFF3008072
:104660002DE9F0470146064604225348FCF738FF7F
:10467000002854D0002E00F09B80504B504C0FCBA4
:1046800007C42046314600F8013BFCF749FE4D4B7C
:104690001B880380357855B1202D4FF0000502D1DD
:1046A00005E0202B03D00135735D002BF9D1304696
:1046B000FCF7E6FEA8428046434B5BD0D3F800905F
:1046C0000024A145745535441ADD404F01E04C45A6
:1046D00016D004EB4403304657F82310013407EB9F
:1046E000830AFFF765FE0028F1D05046691CFFF7EA
:1046F00007FF374832494246BDE8F047FFF7D8BDCB
:10470000002233483349FFF7D3FD31482C494FF09D
:10471000FF32FFF7CDFDBDE8F047FFF771BE2E4831
:104720003146341DFFF7F4FD2B482146FFF7F0FD1D
:104730003379212B3ED0002B34D0731D01E0002AA9
:1047400030D01E4613F8012B212AF8D1002306F899
:10475000013B2046FFF7F4FD04463046FCF790FE8F
:104760008442024689D01D4821463346BDE8F047C1
:10477000FFF7CEBD1D68002DC2DD144F002401E0FF
:10478000AC42BDD004EB4403304657F8231001344B
:1047900007EB8309FFF70CFE0028F1D0D9F80830A9
:1047A0009847A6E70E482146BDE8F047FFF7B0BDA1
:1047B000BDE8F0872646C9E7E4C300084CC40008FA
:1047C000B468002074C20008B06800207C6A002031
:1047D0007C6900205CC40008ECC3000818C4000811
:1047E000FCC30008AFF30080AFF30080AFF300809C
:1047F00070B400F10B0600F10A04B1FBF2F502FB04
:10480000151101F13003392BC8BF01F137032946D7
:10481000254604F801390029EFD1711B2A464118B9
:1048200001E012F8013F00F8013B8842F9D170BC69
:10483000704700BFAFF30080AFF30080AFF300809C
:10484000092870B427DD632829DDB0F57A7F24DBE1
:1048500042F20F73984224DD174B984223DD174B29
:10486000984222DD1649884223DD164DA8421EDDFE
:104870000123154C02E00133A8420ADD84FB0062EB
:10488000C017C0EBA20088421A46F4DC981D70BC29
:104890007047D01DFBE70020F9E70220F7E7012071
:1048A000F5E70320F3E70420F1E70520EFE7072011
:1048B000EDE70620EBE700BF9F8601003F420F00B7
:1048C0007F969800FFE0F50567666666AFF30080A7
:1048D000F0B52DED028B08EE101AB5EEC08AF1EEA0
:1048E00010FA83B0164609D52D23B1EE488AB5EEED
:1048F000C08AF1EE10FA00F8013BF6D4FDEEC88A4A
:104900000A2218EE901AFFF773FF002E044633DDDB
:10491000F8EEE88A05462E23771E38EE688A05F8F9
:10492000013B072F42D8DFE807F02F3235383B3EF6
:10493000042CDFED1F7AF8EEE77A27EE888ABDEEC9
:10494000C88A18EE100A8DED018AFFF779FF431C23
:10495000B342019909DA2346E419241A302203F8F4
:10496000012FA342FBD13F1AED1928460A22FFF777
:104970003FFF002304460370204603B0BDEC028BCA
:10498000F0BDDFED0C7AD6E7DFED0B7AD3E7DFED94
:104990000B7AD0E7DFED0A7ACDE7DFED0A7ACAE7D6
:1049A000DFED097AC7E7DFED097AC4E7FEE700BF6C
:1049B0008096980000E1F5050A0000006400000000
:1049C000E803000010270000A086010040420F000D
:1049D0000B1E10B5044604DBFFF70AFF002303702B
:1049E00010BD2D2100F8011B5942FFF701FF0023E4
:1049F000037010BDAFF30080AFF30080AFF3008011
:104A00000A22FFF7E5BF00BFAFF30080AFF30080DD
:104A1000034B18680028D4BF00200120704700BF56
:104A2000A40D0020AFF30080AFF30080AFF300804F
:104A30002DE9F041194C984625680F460446164664
:104A4000202383F31188002D13DDFDF7E1F8E368DF
:104A500013B12046FDF784F94346204639463246D5
:104A6000FDF74EF9FDF7B4F8002383F31188BDE894
:104A7000F081FDF705F9E36813B12046FDF770F901
:104A80004346204639463246FDF73AF9FDF7D8F855
:104A9000002383F31188BDE8F08100BFA40D00203E
:104AA00008B504F01DFC0A4804F0B2FE00F030F82E
:104AB00000F0A6F800F05CF900F0DAF900F058FC1C
:104AC00000F066FD00F014FBBDE8084006F088BB6E
:104AD00010EA0008AFF30080AFF30080AFF300806E
:104AE00008494A68801882424B6802D29A4202D929
:104AF00070479A42F7D9984294BF00230123002BB4
:104B0000F1D17047001000E0AFF30080AFF30080F8
:104B100004F08EBCAFF30080AFF30080AFF30080F1
:104B200000230122027043608360C360036143611C
:104B30001830FDF7FDBC00BFAFF30080AFF300807D
:104B400038B504460D46C8B1202383F31188FDF71C
:104B500097F82378013B012B04D90B480B497522A8
:104B6000FCF796FF2046656004F092FC0223237058
:104B7000FDF766F8002383F3118838BD0448034924
:104B80007122FCF785FFDFE79CC4000880C40008A1
:104B900070C40008AFF30080AFF30080AFF3008073
:104BA000F8B504460E4617461D46FCF7B9FFDCB1C2
:104BB000D6B1CFB1012D01D0EB0715D42078022852
:104BC00008D0042806D0052804D00A480A49C7227C
:104BD000FCF75EFF03232046A760E5602661237093
:104BE000BDE8F84004F0B4BC04480349C322FCF714
:104BF0004FFFE3E7E0C4000880C40008C8C4000811
:104C000005F0F6BEAFF30080AFF30080AFF3008095
:104C10000123037000234360704700BFAFF300809F
:104C200038B504460D46D0B1C9B1202383F31188AD
:104C3000FDF726F82378013B012B04D90B480C49DA
:104C40006422FCF725FF2046656005F001FF022382
:104C50002370FCF7F5FF002383F3118838BD054866
:104C600003496022FCF714FFDFE700BFCCC5000852
:104C7000B0C50008A0C50008AFF30080AFF3008006
:104C800010B50446C0B1202383F31188FCF7F8FF68
:104C90002378013B012B04D90A480B497822FCF701
:104CA000F7FE204605F094FF01232370FCF7C8FFB0
:104CB000002383F3118810BD044803497422FCF7D4
:104CC000E7FEE0E7E8C50008B0C50008DCC500085D
:104CD00010B50446B8B1202383F31188FCF7D0FF48
:104CE0002378022B04D00B480B498A22FCF7D0FE14
:104CF000204605F0B5FF03232370FCF7A1FF002336
:104D000083F3118810BD054803498722FCF7C0FED4
:104D1000E1E700BF08C60008B0C50008F8C50008F4
:104D200010B50446C0B1202383F31188FCF7A8FF17
:104D30002378023B032B04D90A480B499E22FCF737
:104D4000A7FE204605F0B4FF02232370FCF778FF8E
:104D5000002383F3118810BD044803499922FCF70E
:104D600097FEE0E728C60008B0C5000818C600088E
:104D700006F006B8AFF30080AFF30080AFF3008019
:104D80000123037000234360704700BFAFF300802E
:104D900038B504460D46E0B1D9B1202383F311881C
:104DA000FCF76EFF2378013B012B04D90C480D4919
:104DB0006922FCF76DFEAB8865602046238105F013
:104DC000F7FF02232370FCF73BFF002383F31188D6
:104DD00038BD054803496522FCF75AFEDDE700BFF0
:104DE0006CC6000850C6000840C60008AFF300803B
:104DF0000C30FDF78DBD00BFAFF30080AFF3008036
:104E00000C304FF0FF33FDF783BD00BFAFF30080E0
:104E10003030FDF75DBE00BFAFF30080AFF3008020
:104E200030304FF0FF33FDF753BE00BFAFF30080CB
:104E30000C30FDF73DBD00BFAFF30080AFF3008045
:104E40000C304FF0FF31FDF733BD00BFAFF30080F2
:104E50003030FDF7DDBD00BFAFF30080AFF3008061
:104E600030304FF0FF32FDF7D3BD00BFAFF300800D
:104E700006F036B9AFF30080AFF30080AFF30080E7
:104E800070B50E4B82B005460446009045F8043BD1
:104E9000656001250B46164604F1540110220C30C2
:104EA0002572FDF7ADFC009404F1300004F16401BB
:104EB00010223346FDF77CFD02B070BD90C700089C
:104EC00038B504460D46C8B1202383F31188FCF79A
:104ED000D7FE237A013B012B04D90B480B49A622AC
:104EE000FCF7D6FD2046294606F01AF90223237264
:104EF000FCF7A6FE002383F3118838BD044803495C
:104F0000A122FCF7C5FDDFE738C700081CC7000871
:104F100010C70008AFF30080AFF30080AFF300804C
:104F200038B504460D46FCF7FBFDD4B163693BB1CF
:104F300004F10C002946FDF78BFC00280BDB38BD83
:104F4000201D0421FDF724FC04F10C002946FDF787
:104F50007FFC0028F3DA201D8021BDE83840FDF7F2
:104F600017BC03480349D822FCF792FDDEE700BFD7
:104F700064C700081CC70008AFF30080AFF30080CF
:104F800070B5046AD4F854321A681178042900D034
:104F900070BD217A0229FBD112891B7942FA03F3F1
:104FA00013F00105F4D1216CE36BA26BC91A8E1AC0
:104FB000EED0FCF745FE2B4683F31188D4F854223B
:104FC00033461068117904F1300200F0A9FB202368
:104FD00083F31188FCF754FED4F854321868197919
:104FE000BDE8704000F0D4BBAFF30080AFF30080A9
:104FF000F8B5046AD4F8542213681978042900D04B
:10500000F8BD217A0229FBD15279598903EB820339
:1050100041FA02F2DB6812F001075D8AF0D1E6691D
:10502000A2696369B61AF61AB542E9D8FCF708FE18
:105030003B4683F31188D4F85422B6FBF5F305FB05
:1050400003F31068517904F10C0200F059FB20239E
:1050500083F31188FCF714FED4F854321868597998
:10506000BDE8F84000F06CBBAFF30080AFF3008008
:105070000C30FDF74DBC00BFAFF30080AFF30080F4
:105080000C304FF0FF33FDF743BC00BFAFF300809F
:105090003030FDF71DBD00BFAFF30080AFF30080DF
:1050A00030304FF0FF33FDF713BD00BFAFF300808A
:1050B0000C30FDF7FDBB00BFAFF30080AFF3008005
:1050C0000C304FF0FF31FDF7F3BB00BFAFF30080B2
:1050D0003030FDF79DBC00BFAFF30080AFF3008020
:1050E00030304FF0FF32FDF793BC00BFAFF30080CC
:1050F000704700BFAFF30080AFF30080AFF30080D4
:1051000030B50F4A0F4B0546044645F8042B83B0D3
:105110006560012504F1540125720C304FF4807252
:105120000094FDF76DFB009404F1300004F5AA71C2
:105130004FF48072044BFDF73BFC03B030BD00BF61
:1051400000C80008F14F0008814F0008AFF300804D
:1051500070B50D4604460E6818B3202383F31188FA
:10516000FCF78EFD237A013B012B04D9104811492D
:10517000DF22FCF78DFC2B7906EB83039C616B79B6
:10518000093346F82340AB7906EB83060223B4616A
:105190002372C4F85452FCF753FD002383F31188A3
:1051A00070BD05480349DA22FCF772FCD5E700BF61
:1051B000E0C70008C0C70008B0C70008AFF3008010
:1051C00070B5D0F8543200F10C06044630461D6824
:1051D000FDF726FB04F13000FDF7FAFB201D01214D
:1051E000FDF7D6FAD4F85432597905EB81032846F5
:1051F000DB6832465B8A00F083FAD4F8543259797E
:105200002846BDE8704000F09BBA00BFAFF30080B5
:1052100090F8443003F06003202B01D00020704749
:1052200090F84530212B03D0222B09D0202BF5D12B
:10523000064B83630723C363002303640120704785
:1052400000238363C3630364012070476409002063
:10525000F8B500EB810306469C690D46CCB12023CE
:1052600083F31188FCF7D4FC0821201DFDF790FA88
:10527000216CE26BA36B8A1AD71A16D106EB850351
:10528000DA6853695B682BB9FCF7A2FC002383F34F
:105290001188F8BD128A013A12EA0307F4D1FCF72B
:1052A00097FC3B4683F3118805E0FCF791FC002353
:1052B00083F311883B463046294604F1300200F062
:1052C0002FFA202383F31188FCF7A2FC30462946ED
:1052D00000F05EFAD8E700BFAFF30080AFF30080C4
:1052E00001F109032DE9F04150F823400D4606462F
:1052F000CCB1202383F31188FCF78AFC201D042104
:10530000FDF746FA06EB8503E169D868A26963698F
:10531000478A8A1AC3EB0208474506D9FCF758FCAE
:10532000002383F31188BDE8F081FCF751FC0023D2
:1053300083F31188B8FBF7F307FB03F330462946E4
:1053400004F10C0200F0DCF9202383F31188FCF750
:105350005FFC3046294600F0F3F9DFE7AFF3008049
:10536000704700BFAFF30080AFF30080AFF3008061
:1053700005F07EB9AFF30080AFF30080AFF300809B
:10538000002301220270436083600C30FDF7D0B827
:1053900038B504460D46D0B1C9B1202383F3118836
:1053A000FCF76EFC2378013B012B04D90B480C4918
:1053B0007122FCF76DFB2046656005F091F9022330
:1053C0002370FCF73DFC002383F3118838BD0548AA
:1053D00003496D22FCF75CFBDFE700BF4CC8000807
:1053E00030C8000820C80008AFF30080AFF3008089
:1053F00010B50446D8B1202383F31188FCF740FC94
:105400002378013B012B04D90C480D498722FCF776
:105410003FFB204605F02CFA204605F0F9F9012360
:105420002370FCF70DFC002383F3118810BD0548A1
:1054300003498322FCF72CFBDDE700BF68C80008A6
:1054400030C800085CC80008AFF30080AFF30080EC
:1054500010B50446A8B1202383F31188FCF710FC93
:105460002378022B04D00A480A499A22FCF710FB41
:10547000204605F0F5F9FCF7E3FB002383F31188E0
:1054800010BD054803499722FCF702FBE3E700BF84
:1054900088C8000830C8000878C80008AFF300804A
:1054A00010B50446A8B1202383F31188FCF7E8FB6C
:1054B0002378022B04D00A480A49AC22FCF7E8FA08
:1054C000204605F0D5F9FCF7BBFB002383F31188D8
:1054D00010BD05480349A922FCF7DAFAE3E700BF4B
:1054E000A8C8000830C8000898C80008AFF30080BA
:1054F00070B504460D46164608B1002937D11D483F
:105500001D4940F26712FCF7C3FA202383F3118888
:10551000FCF7B6FB2378022B05D0184816494FF448
:10552000B572FCF7B5FA63681B682BB114481249D1
:1055300040F26B12FCF7ACFA032323702046294695
:10554000324605F09DF9A3682BB10E480A4940F296
:105550006D12FCF79DFA0C4B9B690220A360FCF7CF
:1055600097FCFCF76DFB002383F3118870BD002AC4
:10557000CBD1C4E7E8C9000830C80008F4C9000866
:1055800004CA0008A0C90008C40D0020AFF30080C1
:1055900004F0AEBDAFF30080AFF30080AFF3008046
:1055A0000023012202704360C36183620362C3620D
:1055B0004362036303814381704700BFAFF3008000
:1055C00070B504460E4600B3F9B1202383F3118869
:1055D000FCF756FB2378013B012B05D90E480F49F8
:1055E00040F21312FCF754FA002520466660E5608D
:1055F00025616561A56104F093FD02232370FCF72A
:105600001FFB2B4683F3118870BD0548034940F208
:105610000F12FCF73DFAD8E7CCCA0008B0CA000860
:10562000A0CA0008AFF30080AFF30080AFF30080A2
:10563000F8B504460E461546FCF772FA002C2AD03F
:10564000002D28D02378042B05D01648164940F2A7
:105650004312FCF71DFAB71C04EB87035B682BB100
:105660001248114940F24512FCF712FA686918B164
:1056700000211022FBF7ECFDA86918B100211022CF
:10568000FBF7E6FD04EB8707204631467D60BDE869
:10569000F84004F03DBE0648034940F24112FCF7D1
:1056A000F7F9CFE710CB0008B0CA00082CCB0008F0
:1056B000F8CA0008AFF30080AFF30080AFF30080BA
:1056C00030B400EB81040025E468A4692570E26031
:1056D0006360A56030BC04F003BF00BFAFF300807F
:1056E00030B400EB81040025E46864692570E26051
:1056F0006360A56030BC04F00BBF00BFAFF3008057
:1057000030B400EB81040125E468A46963600023E0
:105710002570E260A36030BC04F0E2BEAFF300800D
:1057200030B400EB81040125E46864696360002300
:105730002570E260A36030BC04F0EABEAFF30080E5
:1057400070B504460D46FCF7EBF994B1638943FA52
:1057500005F010F0010601D0012070BD012202FA0F
:1057600005F2134320466381294604F0F1FE3046DA
:1057700070BD034803494FF4F472FCF789F9E5E77B
:1057800080CB0008B0CA0008AFF30080AFF3008000
:1057900070B504460D46FCF7C3F994B1238943FA6A
:1057A00005F010F0010601D0012070BD012202FABF
:1057B00005F2134320462381294604F0D1FE3046EA
:1057C00070BD0348034940F20322FCF761F9E5E7A5
:1057D00098CB0008B0CA0008AFF30080AFF3008098
:1057E00010B40346002202240470A0F84C2083F871
:1057F0004E2080F84F2002814281C26002614261E6
:10580000826183F8342010BC04F0FABCAFF300804E
:10581000F8B50023044680F8343000F1440204F067
:105820004FFE63689B68002B2DD02046984750B3ED
:10583000E56B94F8443094F84B1094F84A2042EA0F
:105840000122AA423CBF1546E26313F0800F2B46AB
:1058500040F08780002D6DD1052284F83420204649
:1058600029462A46FFF73CFF202383F31188FCF7E3
:10587000CFF929462046FFF78BFFFCF7A9F92B4605
:1058800083F31188F8BD94F8443013F0600711D009
:105890000021204604F084FE2046002104F078FE1A
:1058A00063681B6813B1204605219847062384F8D6
:1058B0003430F8BD94F8456003F07F0242EA0626D2
:1058C000B6F5407F00F0068117DDB6F5C06F00F039
:1058D000968075DDB6F5106F00F0C18040F602428B
:1058E000964200F08580B6F5006FD1D1012504F114
:1058F0004F02A263E56327649DE7022E00F0C1809A
:1059000071DDB6F5807F00F09380B6F5817FBFD161
:1059100094F84620002ABBD194F8482012F00F01D9
:105920005CD01206204600F1068104F041FE94F896
:10593000443053E0042284F8342020460021A26B36
:10594000FFF7BEFE202383F31188FCF761F90021E5
:105950002046FFF7F5FEFCF73BF9002383F311889F
:10596000F8BDB5B1012284F8342020460021A26B95
:10597000FFF7B6FE202383F31188FCF749F90021D5
:105980002046FFF705FFFCF723F9002383F3118876
:10599000F8BD032284F83420204629462A46FFF722
:1059A0008FFE202383F31188FCF732F92946204625
:1059B000FFF7C6FEFCF70CF92B4683F31188F8BD00
:1059C00040F20232964273D0B6F5A06F7FF460AF1A
:1059D000B4F84420B2F5A06F00F09B800025A563C9
:1059E000E563256427E7002E32D0012E7FF450AF07
:1059F000564A0225A2630022E56322641BE762681F
:105A000094F8496094F84830556894F8471094F831
:105A10004620204643EA0623A84700283FF438AF33
:105A200043680568A363E563276494F8443002E79C
:105A300094F84620012A7FF42BAFB4F84C20A763DA
:105A400022F00202A4F84C20E76327643D46F2E608
:105A5000022504F14C02A263E5632664EBE694F8A8
:105A6000462084F84F20002A44D103222270626825
:105A70001268002AB2D020460221904794F84430A0
:105A8000ACE794F8481011F0800F204601F00F01A8
:105A900033D104F0F5FC012833D002287FF4F8AEAE
:105AA0002B4BE063A363276494F844300546C2E6B9
:105AB00094F84620002A7FF4EBAE94F8482012F0C8
:105AC0000F018BD0130620463AD404F061FD94F800
:105AD000443083E794F84620012A7FF4D9AEB4F825
